{
  "_format": "hh-sol-artifact-1",
  "contractName": "Collection3",
  "sourceName": "contracts/collection-3/Collection3.sol",
  "abi": [
    {
      "inputs": [],
      "stateMutability": "nonpayable",
      "type": "constructor"
    },
    {
      "anonymous": false,
      "inputs": [
        {
          "indexed": false,
          "internalType": "address",
          "name": "previousAdmin",
          "type": "address"
        },
        {
          "indexed": false,
          "internalType": "address",
          "name": "newAdmin",
          "type": "address"
        }
      ],
      "name": "AdminChanged",
      "type": "event"
    },
    {
      "anonymous": false,
      "inputs": [
        {
          "indexed": true,
          "internalType": "address",
          "name": "owner",
          "type": "address"
        },
        {
          "indexed": true,
          "internalType": "address",
          "name": "approved",
          "type": "address"
        },
        {
          "indexed": true,
          "internalType": "uint256",
          "name": "tokenId",
          "type": "uint256"
        }
      ],
      "name": "Approval",
      "type": "event"
    },
    {
      "anonymous": false,
      "inputs": [
        {
          "indexed": true,
          "internalType": "address",
          "name": "owner",
          "type": "address"
        },
        {
          "indexed": true,
          "internalType": "address",
          "name": "operator",
          "type": "address"
        },
        {
          "indexed": false,
          "internalType": "bool",
          "name": "approved",
          "type": "bool"
        }
      ],
      "name": "ApprovalForAll",
      "type": "event"
    },
    {
      "anonymous": false,
      "inputs": [
        {
          "indexed": true,
          "internalType": "address",
          "name": "beacon",
          "type": "address"
        }
      ],
      "name": "BeaconUpgraded",
      "type": "event"
    },
    {
      "anonymous": false,
      "inputs": [
        {
          "indexed": false,
          "internalType": "address",
          "name": "userAddr",
          "type": "address"
        },
        {
          "indexed": false,
          "internalType": "uint256",
          "name": "holdingWeight",
          "type": "uint256"
        },
        {
          "indexed": false,
          "internalType": "uint256",
          "name": "paidAmount",
          "type": "uint256"
        },
        {
          "indexed": false,
          "internalType": "string",
          "name": "text",
          "type": "string"
        },
        {
          "indexed": false,
          "internalType": "uint256",
          "name": "typeInt",
          "type": "uint256"
        },
        {
          "indexed": false,
          "internalType": "uint256",
          "name": "_commentIndex",
          "type": "uint256"
        }
      ],
      "name": "Comment",
      "type": "event"
    },
    {
      "anonymous": false,
      "inputs": [
        {
          "indexed": false,
          "internalType": "uint8",
          "name": "version",
          "type": "uint8"
        }
      ],
      "name": "Initialized",
      "type": "event"
    },
    {
      "anonymous": false,
      "inputs": [
        {
          "indexed": true,
          "internalType": "address",
          "name": "previousOwner",
          "type": "address"
        },
        {
          "indexed": true,
          "internalType": "address",
          "name": "newOwner",
          "type": "address"
        }
      ],
      "name": "OwnershipTransferred",
      "type": "event"
    },
    {
      "anonymous": false,
      "inputs": [
        {
          "indexed": false,
          "internalType": "address",
          "name": "_userAddr",
          "type": "address"
        },
        {
          "indexed": false,
          "internalType": "string",
          "name": "username",
          "type": "string"
        }
      ],
      "name": "Register",
      "type": "event"
    },
    {
      "anonymous": false,
      "inputs": [
        {
          "indexed": false,
          "internalType": "string",
          "name": "baseURI_",
          "type": "string"
        }
      ],
      "name": "SetBaseURI",
      "type": "event"
    },
    {
      "anonymous": false,
      "inputs": [
        {
          "indexed": false,
          "internalType": "string",
          "name": "_creatorName",
          "type": "string"
        }
      ],
      "name": "SetCreatorName",
      "type": "event"
    },
    {
      "anonymous": false,
      "inputs": [
        {
          "indexed": false,
          "internalType": "uint256",
          "name": "_maxSupply",
          "type": "uint256"
        }
      ],
      "name": "SetMaxSupply",
      "type": "event"
    },
    {
      "anonymous": false,
      "inputs": [
        {
          "indexed": true,
          "internalType": "address",
          "name": "from",
          "type": "address"
        },
        {
          "indexed": true,
          "internalType": "address",
          "name": "to",
          "type": "address"
        },
        {
          "indexed": true,
          "internalType": "uint256",
          "name": "tokenId",
          "type": "uint256"
        }
      ],
      "name": "Transfer",
      "type": "event"
    },
    {
      "anonymous": false,
      "inputs": [
        {
          "indexed": false,
          "internalType": "address",
          "name": "_userAddr",
          "type": "address"
        }
      ],
      "name": "UnRegister",
      "type": "event"
    },
    {
      "anonymous": false,
      "inputs": [
        {
          "indexed": true,
          "internalType": "address",
          "name": "implementation",
          "type": "address"
        }
      ],
      "name": "Upgraded",
      "type": "event"
    },
    {
      "inputs": [],
      "name": "_creator_",
      "outputs": [
        {
          "internalType": "string",
          "name": "",
          "type": "string"
        }
      ],
      "stateMutability": "view",
      "type": "function"
    },
    {
      "inputs": [
        {
          "internalType": "address",
          "name": "to",
          "type": "address"
        },
        {
          "internalType": "uint256",
          "name": "tokenId",
          "type": "uint256"
        }
      ],
      "name": "approve",
      "outputs": [],
      "stateMutability": "nonpayable",
      "type": "function"
    },
    {
      "inputs": [
        {
          "internalType": "address",
          "name": "owner",
          "type": "address"
        }
      ],
      "name": "balanceOf",
      "outputs": [
        {
          "internalType": "uint256",
          "name": "",
          "type": "uint256"
        }
      ],
      "stateMutability": "view",
      "type": "function"
    },
    {
      "inputs": [
        {
          "internalType": "uint256",
          "name": "tokenId",
          "type": "uint256"
        }
      ],
      "name": "burn",
      "outputs": [],
      "stateMutability": "nonpayable",
      "type": "function"
    },
    {
      "inputs": [
        {
          "internalType": "uint256[]",
          "name": "tokenId",
          "type": "uint256[]"
        }
      ],
      "name": "burnBatch",
      "outputs": [],
      "stateMutability": "nonpayable",
      "type": "function"
    },
    {
      "inputs": [
        {
          "internalType": "string",
          "name": "text",
          "type": "string"
        },
        {
          "internalType": "uint256",
          "name": "typeInt",
          "type": "uint256"
        }
      ],
      "name": "comment",
      "outputs": [],
      "stateMutability": "payable",
      "type": "function"
    },
    {
      "inputs": [],
      "name": "commentIndex",
      "outputs": [
        {
          "internalType": "uint256",
          "name": "",
          "type": "uint256"
        }
      ],
      "stateMutability": "view",
      "type": "function"
    },
    {
      "inputs": [],
      "name": "deleteDefaultRoyalty",
      "outputs": [],
      "stateMutability": "nonpayable",
      "type": "function"
    },
    {
      "inputs": [
        {
          "internalType": "uint256",
          "name": "tokenId",
          "type": "uint256"
        }
      ],
      "name": "getApproved",
      "outputs": [
        {
          "internalType": "address",
          "name": "",
          "type": "address"
        }
      ],
      "stateMutability": "view",
      "type": "function"
    },
    {
      "inputs": [],
      "name": "guestsCommentFee",
      "outputs": [
        {
          "internalType": "uint256",
          "name": "",
          "type": "uint256"
        }
      ],
      "stateMutability": "view",
      "type": "function"
    },
    {
      "inputs": [],
      "name": "initialize",
      "outputs": [],
      "stateMutability": "nonpayable",
      "type": "function"
    },
    {
      "inputs": [
        {
          "internalType": "address",
          "name": "owner",
          "type": "address"
        },
        {
          "internalType": "address",
          "name": "operator",
          "type": "address"
        }
      ],
      "name": "isApprovedForAll",
      "outputs": [
        {
          "internalType": "bool",
          "name": "",
          "type": "bool"
        }
      ],
      "stateMutability": "view",
      "type": "function"
    },
    {
      "inputs": [],
      "name": "maxSupply",
      "outputs": [
        {
          "internalType": "uint256",
          "name": "",
          "type": "uint256"
        }
      ],
      "stateMutability": "view",
      "type": "function"
    },
    {
      "inputs": [],
      "name": "name",
      "outputs": [
        {
          "internalType": "string",
          "name": "",
          "type": "string"
        }
      ],
      "stateMutability": "view",
      "type": "function"
    },
    {
      "inputs": [],
      "name": "owner",
      "outputs": [
        {
          "internalType": "address",
          "name": "",
          "type": "address"
        }
      ],
      "stateMutability": "view",
      "type": "function"
    },
    {
      "inputs": [
        {
          "internalType": "address",
          "name": "_owner",
          "type": "address"
        }
      ],
      "name": "ownerHoldingWeight",
      "outputs": [
        {
          "internalType": "uint256",
          "name": "",
          "type": "uint256"
        }
      ],
      "stateMutability": "view",
      "type": "function"
    },
    {
      "inputs": [
        {
          "internalType": "uint256",
          "name": "tokenId",
          "type": "uint256"
        }
      ],
      "name": "ownerName",
      "outputs": [
        {
          "internalType": "string",
          "name": "",
          "type": "string"
        }
      ],
      "stateMutability": "view",
      "type": "function"
    },
    {
      "inputs": [
        {
          "internalType": "uint256",
          "name": "tokenId",
          "type": "uint256"
        }
      ],
      "name": "ownerOf",
      "outputs": [
        {
          "internalType": "address",
          "name": "",
          "type": "address"
        }
      ],
      "stateMutability": "view",
      "type": "function"
    },
    {
      "inputs": [
        {
          "internalType": "address",
          "name": "_owner",
          "type": "address"
        }
      ],
      "name": "ownerVotingPower",
      "outputs": [
        {
          "internalType": "uint256",
          "name": "",
          "type": "uint256"
        }
      ],
      "stateMutability": "view",
      "type": "function"
    },
    {
      "inputs": [],
      "name": "proxiableUUID",
      "outputs": [
        {
          "internalType": "bytes32",
          "name": "",
          "type": "bytes32"
        }
      ],
      "stateMutability": "view",
      "type": "function"
    },
    {
      "inputs": [
        {
          "internalType": "string",
          "name": "_username",
          "type": "string"
        }
      ],
      "name": "register",
      "outputs": [],
      "stateMutability": "nonpayable",
      "type": "function"
    },
    {
      "inputs": [],
      "name": "renounceOwnership",
      "outputs": [],
      "stateMutability": "nonpayable",
      "type": "function"
    },
    {
      "inputs": [
        {
          "internalType": "uint256",
          "name": "_tokenId",
          "type": "uint256"
        },
        {
          "internalType": "uint256",
          "name": "_salePrice",
          "type": "uint256"
        }
      ],
      "name": "royaltyInfo",
      "outputs": [
        {
          "internalType": "address",
          "name": "",
          "type": "address"
        },
        {
          "internalType": "uint256",
          "name": "",
          "type": "uint256"
        }
      ],
      "stateMutability": "view",
      "type": "function"
    },
    {
      "inputs": [
        {
          "internalType": "address",
          "name": "from",
          "type": "address"
        },
        {
          "internalType": "address",
          "name": "to",
          "type": "address"
        },
        {
          "internalType": "uint256",
          "name": "tokenId",
          "type": "uint256"
        }
      ],
      "name": "safeTransferFrom",
      "outputs": [],
      "stateMutability": "nonpayable",
      "type": "function"
    },
    {
      "inputs": [
        {
          "internalType": "address",
          "name": "from",
          "type": "address"
        },
        {
          "internalType": "address",
          "name": "to",
          "type": "address"
        },
        {
          "internalType": "uint256",
          "name": "tokenId",
          "type": "uint256"
        },
        {
          "internalType": "bytes",
          "name": "_data",
          "type": "bytes"
        }
      ],
      "name": "safeTransferFrom",
      "outputs": [],
      "stateMutability": "nonpayable",
      "type": "function"
    },
    {
      "inputs": [
        {
          "internalType": "address[]",
          "name": "from",
          "type": "address[]"
        },
        {
          "internalType": "address[]",
          "name": "to",
          "type": "address[]"
        },
        {
          "internalType": "uint256[]",
          "name": "tokenId",
          "type": "uint256[]"
        }
      ],
      "name": "safeTransferFromBatch",
      "outputs": [],
      "stateMutability": "nonpayable",
      "type": "function"
    },
    {
      "inputs": [
        {
          "internalType": "address",
          "name": "operator",
          "type": "address"
        },
        {
          "internalType": "bool",
          "name": "approved",
          "type": "bool"
        }
      ],
      "name": "setApprovalForAll",
      "outputs": [],
      "stateMutability": "nonpayable",
      "type": "function"
    },
    {
      "inputs": [
        {
          "internalType": "uint256",
          "name": "_baseMintFee",
          "type": "uint256"
        }
      ],
      "name": "setBaseMintFee",
      "outputs": [],
      "stateMutability": "nonpayable",
      "type": "function"
    },
    {
      "inputs": [
        {
          "internalType": "string",
          "name": "baseURI_",
          "type": "string"
        }
      ],
      "name": "setBaseURI",
      "outputs": [],
      "stateMutability": "nonpayable",
      "type": "function"
    },
    {
      "inputs": [
        {
          "internalType": "string",
          "name": "_creatorName",
          "type": "string"
        }
      ],
      "name": "setCreatorName",
      "outputs": [],
      "stateMutability": "nonpayable",
      "type": "function"
    },
    {
      "inputs": [
        {
          "internalType": "address",
          "name": "royaltyReceiver",
          "type": "address"
        },
        {
          "internalType": "uint96",
          "name": "royaltyNumerator",
          "type": "uint96"
        }
      ],
      "name": "setDefaultRoyalty",
      "outputs": [],
      "stateMutability": "nonpayable",
      "type": "function"
    },
    {
      "inputs": [
        {
          "internalType": "uint256",
          "name": "_guestsCommentFee",
          "type": "uint256"
        }
      ],
      "name": "setGuestsCommentFee",
      "outputs": [],
      "stateMutability": "nonpayable",
      "type": "function"
    },
    {
      "inputs": [
        {
          "internalType": "uint256",
          "name": "_maxSupply",
          "type": "uint256"
        }
      ],
      "name": "setMaxSupply",
      "outputs": [],
      "stateMutability": "nonpayable",
      "type": "function"
    },
    {
      "inputs": [
        {
          "internalType": "uint256",
          "name": "_mintFeeRatioNumerator",
          "type": "uint256"
        }
      ],
      "name": "setMintFeeRatioNumerator",
      "outputs": [],
      "stateMutability": "nonpayable",
      "type": "function"
    },
    {
      "inputs": [
        {
          "internalType": "uint256",
          "name": "_tokenHoldersCommentFee",
          "type": "uint256"
        }
      ],
      "name": "setTokenHoldersCommentFee",
      "outputs": [],
      "stateMutability": "nonpayable",
      "type": "function"
    },
    {
      "inputs": [
        {
          "internalType": "bytes4",
          "name": "interfaceId",
          "type": "bytes4"
        }
      ],
      "name": "supportsInterface",
      "outputs": [
        {
          "internalType": "bool",
          "name": "",
          "type": "bool"
        }
      ],
      "stateMutability": "view",
      "type": "function"
    },
    {
      "inputs": [],
      "name": "symbol",
      "outputs": [
        {
          "internalType": "string",
          "name": "",
          "type": "string"
        }
      ],
      "stateMutability": "view",
      "type": "function"
    },
    {
      "inputs": [
        {
          "internalType": "uint256",
          "name": "index",
          "type": "uint256"
        }
      ],
      "name": "tokenByIndex",
      "outputs": [
        {
          "internalType": "uint256",
          "name": "",
          "type": "uint256"
        }
      ],
      "stateMutability": "view",
      "type": "function"
    },
    {
      "inputs": [],
      "name": "tokenHoldersCommentFee",
      "outputs": [
        {
          "internalType": "uint256",
          "name": "",
          "type": "uint256"
        }
      ],
      "stateMutability": "view",
      "type": "function"
    },
    {
      "inputs": [
        {
          "internalType": "address",
          "name": "owner",
          "type": "address"
        },
        {
          "internalType": "uint256",
          "name": "index",
          "type": "uint256"
        }
      ],
      "name": "tokenOfOwnerByIndex",
      "outputs": [
        {
          "internalType": "uint256",
          "name": "",
          "type": "uint256"
        }
      ],
      "stateMutability": "view",
      "type": "function"
    },
    {
      "inputs": [
        {
          "internalType": "uint256",
          "name": "tokenId",
          "type": "uint256"
        }
      ],
      "name": "tokenURI",
      "outputs": [
        {
          "internalType": "string",
          "name": "",
          "type": "string"
        }
      ],
      "stateMutability": "view",
      "type": "function"
    },
    {
      "inputs": [
        {
          "internalType": "uint256",
          "name": "tokenId",
          "type": "uint256"
        }
      ],
      "name": "tokenWeight",
      "outputs": [
        {
          "internalType": "uint256",
          "name": "",
          "type": "uint256"
        }
      ],
      "stateMutability": "view",
      "type": "function"
    },
    {
      "inputs": [],
      "name": "totalSupply",
      "outputs": [
        {
          "internalType": "uint256",
          "name": "",
          "type": "uint256"
        }
      ],
      "stateMutability": "view",
      "type": "function"
    },
    {
      "inputs": [
        {
          "internalType": "address",
          "name": "from",
          "type": "address"
        },
        {
          "internalType": "address",
          "name": "to",
          "type": "address"
        },
        {
          "internalType": "uint256",
          "name": "tokenId",
          "type": "uint256"
        }
      ],
      "name": "transferFrom",
      "outputs": [],
      "stateMutability": "nonpayable",
      "type": "function"
    },
    {
      "inputs": [
        {
          "internalType": "address",
          "name": "newOwner",
          "type": "address"
        }
      ],
      "name": "transferOwnership",
      "outputs": [],
      "stateMutability": "nonpayable",
      "type": "function"
    },
    {
      "inputs": [],
      "name": "unRegister",
      "outputs": [],
      "stateMutability": "nonpayable",
      "type": "function"
    },
    {
      "inputs": [
        {
          "internalType": "address",
          "name": "newImplementation",
          "type": "address"
        }
      ],
      "name": "upgradeTo",
      "outputs": [],
      "stateMutability": "nonpayable",
      "type": "function"
    },
    {
      "inputs": [
        {
          "internalType": "address",
          "name": "newImplementation",
          "type": "address"
        },
        {
          "internalType": "bytes",
          "name": "data",
          "type": "bytes"
        }
      ],
      "name": "upgradeToAndCall",
      "outputs": [],
      "stateMutability": "payable",
      "type": "function"
    },
    {
      "inputs": [
        {
          "internalType": "string",
          "name": "_username",
          "type": "string"
        }
      ],
      "name": "userBalance",
      "outputs": [
        {
          "internalType": "uint256",
          "name": "",
          "type": "uint256"
        }
      ],
      "stateMutability": "view",
      "type": "function"
    },
    {
      "inputs": [
        {
          "internalType": "address",
          "name": "userAddr",
          "type": "address"
        }
      ],
      "name": "username",
      "outputs": [
        {
          "internalType": "string",
          "name": "",
          "type": "string"
        }
      ],
      "stateMutability": "view",
      "type": "function"
    },
    {
      "inputs": [
        {
          "internalType": "uint256",
          "name": "amount",
          "type": "uint256"
        }
      ],
      "name": "withdraw",
      "outputs": [],
      "stateMutability": "nonpayable",
      "type": "function"
    }
  ],
  "bytecode": "0x60a0604052306080523480156200001557600080fd5b506200002062000026565b62000156565b6200003260ff62000035565b50565b60008054610100900460ff1615620000ce578160ff1660011480156200006e57506200006c306200014760201b62001e561760201c565b155b620000c65760405162461bcd60e51b815260206004820152602e602482015260008051602062003d5e83398151915260448201526d191e481a5b9a5d1a585b1a5e995960921b60648201526084015b60405180910390fd5b506000919050565b60005460ff8084169116106200012d5760405162461bcd60e51b815260206004820152602e602482015260008051602062003d5e83398151915260448201526d191e481a5b9a5d1a585b1a5e995960921b6064820152608401620000bd565b506000805460ff191660ff92909216919091179055600190565b6001600160a01b03163b151590565b608051613bd06200018e60003960008181610f6101528181610fa1015281816110d20152818161111201526112340152613bd06000f3fe6080604052600436106102e45760003560e01c80636f8b44b011610190578063b8dcb01f116100dc578063d72e780e11610095578063e985e9c51161006f578063e985e9c5146108b5578063f2c298be146108fe578063f2fde38b1461091e578063ffae01b01461093e57600080fd5b8063d72e780e1461083e578063de58cd411461085e578063e4623c1b1461089557600080fd5b8063b8dcb01f1461078d578063ba4e72ad146107ad578063bb99e701146107c4578063c19d7ab3146107d9578063c87b56dd14610807578063d5abeb011461082757600080fd5b806395d89b4111610149578063a22cb46511610123578063a22cb46514610718578063a9b449e014610738578063aa1b103f14610758578063b88d4fde1461076d57600080fd5b806395d89b41146106cc5780639c3d371c146106e1578063a1cebf441461070157600080fd5b80636f8b44b01461062357806370a0823114610643578063715018a6146106635780638129fc1c146106785780638da5cb5b1461068d578063903be51f146106ac57600080fd5b80632e1a7d4d1161024f5780634f6ccce71161020857806355f804b3116101e257806355f804b3146105b05780635c751ff2146105d057806360eb9485146105e35780636352211e1461060357600080fd5b80634f6ccce71461056457806350a364001461058457806352d1902d1461059b57600080fd5b80632e1a7d4d146104b15780632f745c59146104d15780633659cfe6146104f157806342842e0e1461051157806342966c68146105315780634f1ef2861461055157600080fd5b80631536aedd116102a15780631536aedd146103da57806318160ddd1461040857806323b872dd1461041d57806325b5c6e31461043d57806326d7b3b41461045d5780632a55205a1461047257600080fd5b806301ffc9a7146102e957806304634d8d1461031e5780630610a7a21461034057806306fdde031461036d578063081812fc14610382578063095ea7b3146103ba575b600080fd5b3480156102f557600080fd5b506103096103043660046130d3565b61095e565b60405190151581526020015b60405180910390f35b34801561032a57600080fd5b5061033e610339366004613107565b61096f565b005b34801561034c57600080fd5b5061036061035b36600461314a565b6109b1565b60405161031591906131bd565b34801561037957600080fd5b50610360610a5e565b34801561038e57600080fd5b506103a261039d3660046131d0565b610af0565b6040516001600160a01b039091168152602001610315565b3480156103c657600080fd5b5061033e6103d53660046131e9565b610b85565b3480156103e657600080fd5b506103fa6103f53660046132ca565b610c9a565b604051908152602001610315565b34801561041457600080fd5b5060cb546103fa565b34801561042957600080fd5b5061033e6104383660046132ff565b610cce565b34801561044957600080fd5b5061033e6104583660046131d0565b610d00565b34801561046957600080fd5b5061033e610d31565b34801561047e57600080fd5b5061049261048d36600461333b565b610dbd565b604080516001600160a01b039093168352602083019190915201610315565b3480156104bd57600080fd5b5061033e6104cc3660046131d0565b610e69565b3480156104dd57600080fd5b506103fa6104ec3660046131e9565b610ec1565b3480156104fd57600080fd5b5061033e61050c36600461314a565b610f57565b34801561051d57600080fd5b5061033e61052c3660046132ff565b611036565b34801561053d57600080fd5b5061033e61054c3660046131d0565b611051565b61033e61055f36600461335d565b6110c8565b34801561057057600080fd5b506103fa61057f3660046131d0565b611194565b34801561059057600080fd5b506103fa6101fe5481565b3480156105a757600080fd5b506103fa611227565b3480156105bc57600080fd5b5061033e6105cb3660046132ca565b6112da565b61033e6105de3660046133ab565b611354565b3480156105ef57600080fd5b5061033e6105fe3660046132ca565b6114c2565b34801561060f57600080fd5b506103a261061e3660046131d0565b611531565b34801561062f57600080fd5b5061033e61063e3660046131d0565b6115a8565b34801561064f57600080fd5b506103fa61065e36600461314a565b611695565b34801561066f57600080fd5b5061033e61171c565b34801561068457600080fd5b5061033e611753565b34801561069957600080fd5b5061015f546001600160a01b03166103a2565b3480156106b857600080fd5b506103fa6106c736600461314a565b6118a4565b3480156106d857600080fd5b50610360611911565b3480156106ed57600080fd5b506103606106fc3660046131d0565b611920565b34801561070d57600080fd5b506103fa6102005481565b34801561072457600080fd5b5061033e6107333660046133f0565b61192e565b34801561074457600080fd5b5061033e6107533660046131d0565b611939565b34801561076457600080fd5b5061033e61196a565b34801561077957600080fd5b5061033e610788366004613421565b61199f565b34801561079957600080fd5b5061033e6107a836600461357a565b6119d7565b3480156107b957600080fd5b506103fa6101ff5481565b3480156107d057600080fd5b50610360611abf565b3480156107e557600080fd5b506103fa6107f43660046131d0565b6000908152610201602052604090205490565b34801561081357600080fd5b506103606108223660046131d0565b611b4e565b34801561083357600080fd5b506103fa6101f85481565b34801561084a57600080fd5b5061033e6108593660046131d0565b611c29565b34801561086a57600080fd5b506103fa61087936600461314a565b6001600160a01b03166000908152610202602052604090205490565b3480156108a157600080fd5b5061033e6108b0366004613602565b611c5a565b3480156108c157600080fd5b506103096108d0366004613637565b6001600160a01b039182166000908152609c6020908152604080832093909416825291909152205460ff1690565b34801561090a57600080fd5b5061033e6109193660046132ca565b611c9a565b34801561092a57600080fd5b5061033e61093936600461314a565b611d8c565b34801561094a57600080fd5b5061033e6109593660046131d0565b611e25565b600061096982611e65565b92915050565b61015f546001600160a01b031633146109a35760405162461bcd60e51b815260040161099a9061366a565b60405180910390fd5b6109ad8282611e70565b5050565b6001600160a01b03811660009081526101f9602052604090208054606091906109d99061369f565b80601f0160208091040260200160405190810160405280929190818152602001828054610a059061369f565b8015610a525780601f10610a2757610100808354040283529160200191610a52565b820191906000526020600020905b815481529060010190602001808311610a3557829003601f168201915b50505050509050919050565b606060978054610a6d9061369f565b80601f0160208091040260200160405190810160405280929190818152602001828054610a999061369f565b8015610ae65780601f10610abb57610100808354040283529160200191610ae6565b820191906000526020600020905b815481529060010190602001808311610ac957829003601f168201915b5050505050905090565b6000818152609960205260408120546001600160a01b0316610b695760405162461bcd60e51b815260206004820152602c60248201527f4552433732313a20617070726f76656420717565727920666f72206e6f6e657860448201526b34b9ba32b73a103a37b5b2b760a11b606482015260840161099a565b506000908152609b60205260409020546001600160a01b031690565b6000610b9082611531565b9050806001600160a01b0316836001600160a01b031603610bfd5760405162461bcd60e51b815260206004820152602160248201527f4552433732313a20617070726f76616c20746f2063757272656e74206f776e656044820152603960f91b606482015260840161099a565b336001600160a01b0382161480610c195750610c1981336108d0565b610c8b5760405162461bcd60e51b815260206004820152603860248201527f4552433732313a20617070726f76652063616c6c6572206973206e6f74206f7760448201527f6e6572206e6f7220617070726f76656420666f7220616c6c0000000000000000606482015260840161099a565b610c958383611f6d565b505050565b60006109696101fa83604051610cb091906136d9565b908152604051908190036020019020546001600160a01b0316611695565b610cd9335b82611fdb565b610cf55760405162461bcd60e51b815260040161099a906136f5565b610c958383836120d2565b61015f546001600160a01b03163314610d2b5760405162461bcd60e51b815260040161099a9061366a565b6101fb55565b3360009081526101f960205260409081902090516101fa91610d5291613746565b908152604080516020928190038301902080546001600160a01b03191690553360009081526101f99092528120610d8891612fea565b6040513381527f630f28bb6372d0a747db8dcdb1a523bd9d875ddd96649c705325e60b239fc3c39060200160405180910390a1565b60008281526066602090815260408083208151808301909252546001600160a01b038116808352600160a01b9091046001600160601b0316928201929092528291610e325750604080518082019091526065546001600160a01b0381168252600160a01b90046001600160601b031660208201525b602081015160009061271090610e51906001600160601b0316876137f7565b610e5b919061382c565b915196919550909350505050565b61015f546001600160a01b03163314610e945760405162461bcd60e51b815260040161099a9061366a565b604051339082156108fc029083906000818181858888f193505050501580156109ad573d6000803e3d6000fd5b6000610ecc83611695565b8210610f2e5760405162461bcd60e51b815260206004820152602b60248201527f455243373231456e756d657261626c653a206f776e657220696e646578206f7560448201526a74206f6620626f756e647360a81b606482015260840161099a565b506001600160a01b0391909116600090815260c960209081526040808320938352929052205490565b6001600160a01b037f0000000000000000000000000000000000000000000000000000000000000000163003610f9f5760405162461bcd60e51b815260040161099a90613840565b7f00000000000000000000000000000000000000000000000000000000000000006001600160a01b0316610fe8600080516020613b54833981519152546001600160a01b031690565b6001600160a01b03161461100e5760405162461bcd60e51b815260040161099a9061388c565b6110178161227f565b60408051600080825260208201909252611033918391906122aa565b50565b610c958383836040518060200160405280600081525061199f565b61105a33610cd3565b6110bf5760405162461bcd60e51b815260206004820152603060248201527f4552433732314275726e61626c653a2063616c6c6572206973206e6f74206f7760448201526f1b995c881b9bdc88185c1c1c9bdd995960821b606482015260840161099a565b61103381612415565b6001600160a01b037f00000000000000000000000000000000000000000000000000000000000000001630036111105760405162461bcd60e51b815260040161099a90613840565b7f00000000000000000000000000000000000000000000000000000000000000006001600160a01b0316611159600080516020613b54833981519152546001600160a01b031690565b6001600160a01b03161461117f5760405162461bcd60e51b815260040161099a9061388c565b6111888261227f565b6109ad828260016122aa565b600061119f60cb5490565b82106112025760405162461bcd60e51b815260206004820152602c60248201527f455243373231456e756d657261626c653a20676c6f62616c20696e646578206f60448201526b7574206f6620626f756e647360a01b606482015260840161099a565b60cb8281548110611215576112156138d8565b90600052602060002001549050919050565b6000306001600160a01b037f000000000000000000000000000000000000000000000000000000000000000016146112c75760405162461bcd60e51b815260206004820152603860248201527f555550535570677261646561626c653a206d757374206e6f742062652063616c60448201527f6c6564207468726f7567682064656c656761746563616c6c0000000000000000606482015260840161099a565b50600080516020613b5483398151915290565b61015f546001600160a01b031633146113055760405162461bcd60e51b815260040161099a9061366a565b8051611319906101f7906020840190613024565b507f23c8c9488efebfd474e85a7956de6f39b17c7ab88502d42a623db2d8e382bbaa8160405161134991906131bd565b60405180910390a150565b33600090815261020260205260409020543481156113da576101fe5481116113d55760405162461bcd60e51b815260206004820152602e60248201527f436f6c6c656374696f6e3a20696e73756666696369656e742066656520666f7260448201526d103a37b5b2b72437b63232b9399760911b606482015260840161099a565b61143c565b6101ff54811161143c5760405162461bcd60e51b815260206004820152602760248201527f436f6c6c656374696f6e3a20696e73756666696369656e742066656520666f726044820152661033bab2b9ba1760c91b606482015260840161099a565b3360009081526101fd60205260408120805483929061145c9084906138ee565b9091555050610200546040517fb115fe19761893878cadbab8cfc5c7a04feb93c88ff56aa5c93a8430347973a29161149e913391869186918a918a9190613906565b60405180910390a161020080549060006114b783613948565b919050555050505050565b61015f546001600160a01b031633146114ed5760405162461bcd60e51b815260040161099a9061366a565b8051611501906101f6906020840190613024565b507f236f8389aa7c121fd00a2e18f64a0bf0789ab8925f9d80674426dc499590d85c8160405161134991906131bd565b6000818152609960205260408120546001600160a01b0316806109695760405162461bcd60e51b815260206004820152602960248201527f4552433732313a206f776e657220717565727920666f72206e6f6e657869737460448201526832b73a103a37b5b2b760b91b606482015260840161099a565b61015f546001600160a01b031633146115d35760405162461bcd60e51b815260040161099a9061366a565b6101f55481101561165f5760405162461bcd60e51b815260206004820152604a60248201527f436f6c6c656374696f6e3a206d6178537570706c79206d75737420626520677260448201527f6561746572207468616e206f7220657175616c20746f20746865206375727265606482015269373a1039bab838363c9760b11b608482015260a40161099a565b6101f88190556040518181527f3f8118fc46e72ecde0c5e090803cad8c88e817b2f1e93e820aa9bfbf51f2468d90602001611349565b60006001600160a01b0382166117005760405162461bcd60e51b815260206004820152602a60248201527f4552433732313a2062616c616e636520717565727920666f7220746865207a65604482015269726f206164647265737360b01b606482015260840161099a565b506001600160a01b03166000908152609a602052604090205490565b61015f546001600160a01b031633146117475760405162461bcd60e51b815260040161099a9061366a565b611751600061241e565b565b600061175f6001612471565b90508015611777576000805461ff0019166101001790555b6040805180820190915260068082526552656e6f706560d01b60209092019182526117a5916101f691613024565b506117ed6040518060400160405280600b81526020016a636f6c6c656374696f6e3360a81b81525060405180604001604052806002815260200161633360f01b8152506124fe565b6117f561252f565b6117fd61252f565b61180633612556565b604080516020810191829052600090819052611825916101f791613024565b5060646101f855611838306101f4611e70565b66b1a2bc2ec500006101fb5560c86101fc556611c37937e080006101fe55662386f26fc100006101ff558015611033576000805461ff0019169055604051600181527f7f26b83ff96e1f2b6a682f133852f6798a09c465da95921460cefb384740249890602001611349565b6001600160a01b0381166000908152610202602090815260408083205461020490925282205462015180906118d99042613961565b6118e3919061382c565b6118ed91906137f7565b6001600160a01b0383166000908152610203602052604090205461096991906138ee565b606060988054610a6d9061369f565b606061096961035b83611531565b6109ad33838361257d565b61015f546001600160a01b031633146119645760405162461bcd60e51b815260040161099a9061366a565b6101fc55565b61015f546001600160a01b031633146119955760405162461bcd60e51b815260040161099a9061366a565b6117516000606555565b6119a93383611fdb565b6119c55760405162461bcd60e51b815260040161099a906136f5565b6119d18484848461264b565b50505050565b805183511480156119e9575080518251145b611a4b5760405162461bcd60e51b815260206004820152602d60248201527f436f6c6c656374696f6e3a20796f75206d75737420656e7465722073616d652060448201526c6c656e6774682061727261797360981b606482015260840161099a565b60005b81518110156119d157611aad848281518110611a6c57611a6c6138d8565b6020026020010151848381518110611a8657611a866138d8565b6020026020010151848481518110611aa057611aa06138d8565b6020026020010151611036565b80611ab781613948565b915050611a4e565b6101f68054611acd9061369f565b80601f0160208091040260200160405190810160405280929190818152602001828054611af99061369f565b8015611b465780601f10611b1b57610100808354040283529160200191611b46565b820191906000526020600020905b815481529060010190602001808311611b2957829003601f168201915b505050505081565b6000818152609960205260409020546060906001600160a01b0316611bcd5760405162461bcd60e51b815260206004820152602f60248201527f4552433732314d657461646174613a2055524920717565727920666f72206e6f60448201526e3732bc34b9ba32b73a103a37b5b2b760891b606482015260840161099a565b6000611bd761267e565b90506000815111611bf75760405180602001604052806000815250611c22565b80611c018461268e565b604051602001611c12929190613978565b6040516020818303038152906040525b9392505050565b61015f546001600160a01b03163314611c545760405162461bcd60e51b815260040161099a9061366a565b6101ff55565b60005b81518110156109ad57611c88828281518110611c7b57611c7b6138d8565b6020026020010151611051565b80611c9281613948565b915050611c5d565b60006001600160a01b03166101fa82604051611cb691906136d9565b908152604051908190036020019020546001600160a01b031614611d395760405162461bcd60e51b815260206004820152603460248201527f436f6c6c656374696f6e3a2074686520757365726e616d652068617320616c726044820152731958591e481899595b881c9959da5cdd195c995960621b606482015260840161099a565b3360009081526101f9602090815260409091208251611d5a92840190613024565b507f6ba0831d2f62ae5cbf7214bcc1d79c5da1d705f12811efda0beaa840006f874e33826040516113499291906139a7565b61015f546001600160a01b03163314611db75760405162461bcd60e51b815260040161099a9061366a565b6001600160a01b038116611e1c5760405162461bcd60e51b815260206004820152602660248201527f4f776e61626c653a206e6577206f776e657220697320746865207a65726f206160448201526564647265737360d01b606482015260840161099a565b6110338161241e565b61015f546001600160a01b03163314611e505760405162461bcd60e51b815260040161099a9061366a565b6101fe55565b6001600160a01b03163b151590565b60006109698261278f565b6127106001600160601b0382161115611ede5760405162461bcd60e51b815260206004820152602a60248201527f455243323938313a20726f79616c7479206665652077696c6c206578636565646044820152692073616c65507269636560b01b606482015260840161099a565b6001600160a01b038216611f345760405162461bcd60e51b815260206004820152601960248201527f455243323938313a20696e76616c696420726563656976657200000000000000604482015260640161099a565b604080518082019091526001600160a01b039092168083526001600160601b039091166020909201829052600160a01b90910217606555565b6000818152609b6020526040902080546001600160a01b0319166001600160a01b0384169081179091558190611fa282611531565b6001600160a01b03167f8c5be1e5ebec7d5bd14f71427d1e84f3dd0314c0f7b2291e5b200ac8c7c3b92560405160405180910390a45050565b6000818152609960205260408120546001600160a01b03166120545760405162461bcd60e51b815260206004820152602c60248201527f4552433732313a206f70657261746f7220717565727920666f72206e6f6e657860448201526b34b9ba32b73a103a37b5b2b760a11b606482015260840161099a565b600061205f83611531565b9050806001600160a01b0316846001600160a01b031614806120a657506001600160a01b038082166000908152609c602090815260408083209388168352929052205460ff165b806120ca5750836001600160a01b03166120bf84610af0565b6001600160a01b0316145b949350505050565b826001600160a01b03166120e582611531565b6001600160a01b0316146121495760405162461bcd60e51b815260206004820152602560248201527f4552433732313a207472616e736665722066726f6d20696e636f72726563742060448201526437bbb732b960d91b606482015260840161099a565b6001600160a01b0382166121ab5760405162461bcd60e51b8152602060048201526024808201527f4552433732313a207472616e7366657220746f20746865207a65726f206164646044820152637265737360e01b606482015260840161099a565b6121b68383836127b4565b6121c1600082611f6d565b6001600160a01b0383166000908152609a602052604081208054600192906121ea908490613961565b90915550506001600160a01b0382166000908152609a602052604081208054600192906122189084906138ee565b909155505060008181526099602052604080822080546001600160a01b0319166001600160a01b0386811691821790925591518493918716917fddf252ad1be2c89b69c2b068fc378daa952ba7f163c4a11628f55a4df523b3ef91a4610c95838383612847565b61015f546001600160a01b031633146110335760405162461bcd60e51b815260040161099a9061366a565b7f4910fdfa16fed3260ed0e7147f7cc6da11a60208b5b9406d12a635614ffd91435460ff16156122dd57610c95836128e7565b826001600160a01b03166352d1902d6040518163ffffffff1660e01b8152600401602060405180830381865afa925050508015612337575060408051601f3d908101601f19168201909252612334918101906139cb565b60015b61239a5760405162461bcd60e51b815260206004820152602e60248201527f45524331393637557067726164653a206e657720696d706c656d656e7461746960448201526d6f6e206973206e6f74205555505360901b606482015260840161099a565b600080516020613b5483398151915281146124095760405162461bcd60e51b815260206004820152602960248201527f45524331393637557067726164653a20756e737570706f727465642070726f786044820152681a58589b195555525160ba1b606482015260840161099a565b50610c95838383612983565b611033816129a8565b61015f80546001600160a01b038381166001600160a01b0319831681179093556040519116919082907f8be0079c531659141344cd1fd0a4f28419497f9722a3daafe3b4186f6b6457e090600090a35050565b60008054610100900460ff16156124b8578160ff1660011480156124945750303b155b6124b05760405162461bcd60e51b815260040161099a906139e4565b506000919050565b60005460ff8084169116106124df5760405162461bcd60e51b815260040161099a906139e4565b506000805460ff191660ff92909216919091179055600190565b919050565b600054610100900460ff166125255760405162461bcd60e51b815260040161099a90613a32565b6109ad82826129c2565b600054610100900460ff166117515760405162461bcd60e51b815260040161099a90613a32565b600054610100900460ff16611e1c5760405162461bcd60e51b815260040161099a90613a32565b816001600160a01b0316836001600160a01b0316036125de5760405162461bcd60e51b815260206004820152601960248201527f4552433732313a20617070726f766520746f2063616c6c657200000000000000604482015260640161099a565b6001600160a01b038381166000818152609c6020908152604080832094871680845294825291829020805460ff191686151590811790915591519182527f17307eab39ab6107e8899845ad3d59bd9653f200f220920489ca2b5937696c31910160405180910390a3505050565b6126568484846120d2565b61266284848484612a10565b6119d15760405162461bcd60e51b815260040161099a90613a7d565b60606101f78054610a6d9061369f565b6060816000036126b55750506040805180820190915260018152600360fc1b602082015290565b8160005b81156126df57806126c981613948565b91506126d89050600a8361382c565b91506126b9565b60008167ffffffffffffffff8111156126fa576126fa613213565b6040519080825280601f01601f191660200182016040528015612724576020820181803683370190505b5090505b84156120ca57612739600183613961565b9150612746600a86613acf565b6127519060306138ee565b60f81b818381518110612766576127666138d8565b60200101906001600160f81b031916908160001a905350612788600a8661382c565b9450612728565b60006001600160e01b0319821663780e9d6360e01b1480610969575061096982612b11565b6127bf838383612b51565b6001600160a01b03831615612801576127d7836118a4565b6001600160a01b038416600090815261020360209081526040808320939093556102049052204290555b6001600160a01b03821615610c9557612819826118a4565b6001600160a01b03831660009081526102036020908152604080832093909355610204905220429055505050565b6001600160a01b0383161561289557600081815261020160205260409020546001600160a01b038416600090815261020260205260408120805490919061288f908490613961565b90915550505b6001600160a01b03821615610c9557600081815261020160205260409020546001600160a01b03831660009081526102026020526040812080549091906128dd9084906138ee565b9091555050505050565b6001600160a01b0381163b6129545760405162461bcd60e51b815260206004820152602d60248201527f455243313936373a206e657720696d706c656d656e746174696f6e206973206e60448201526c1bdd08184818dbdb9d1c9858dd609a1b606482015260840161099a565b600080516020613b5483398151915280546001600160a01b0319166001600160a01b0392909216919091179055565b61298c83612c09565b6000825111806129995750805b15610c95576119d18383612c49565b6129b181612d3d565b600090815260666020526040812055565b600054610100900460ff166129e95760405162461bcd60e51b815260040161099a90613a32565b81516129fc906097906020850190613024565b508051610c95906098906020840190613024565b60006001600160a01b0384163b15612b0657604051630a85bd0160e11b81526001600160a01b0385169063150b7a0290612a54903390899088908890600401613ae3565b6020604051808303816000875af1925050508015612a8f575060408051601f3d908101601f19168201909252612a8c91810190613b20565b60015b612aec573d808015612abd576040519150601f19603f3d011682016040523d82523d6000602084013e612ac2565b606091505b508051600003612ae45760405162461bcd60e51b815260040161099a90613a7d565b805181602001fd5b6001600160e01b031916630a85bd0160e11b1490506120ca565b506001949350505050565b60006001600160e01b031982166380ac58cd60e01b1480612b4257506001600160e01b03198216635b5e139f60e01b145b80610969575061096982612dec565b6001600160a01b038316612bac57612ba78160cb8054600083815260cc60205260408120829055600182018355919091527fa7ce836d032b2bf62b7e2097a8e0a6d8aeb35405ad15271e96d3b0188a1d06fb0155565b612bcf565b816001600160a01b0316836001600160a01b031614612bcf57612bcf8382612e21565b6001600160a01b038216612be657610c9581612ebe565b826001600160a01b0316826001600160a01b031614610c9557610c958282612f6d565b612c12816128e7565b6040516001600160a01b038216907fbc7cd75a20ee27fd9adebab32041f755214dbc6bffa90cc0225b39da2e5c2d3b90600090a250565b60606001600160a01b0383163b612cb15760405162461bcd60e51b815260206004820152602660248201527f416464726573733a2064656c65676174652063616c6c20746f206e6f6e2d636f6044820152651b9d1c9858dd60d21b606482015260840161099a565b600080846001600160a01b031684604051612ccc91906136d9565b600060405180830381855af49150503d8060008114612d07576040519150601f19603f3d011682016040523d82523d6000602084013e612d0c565b606091505b5091509150612d348282604051806060016040528060278152602001613b7460279139612fb1565b95945050505050565b6000612d4882611531565b9050612d56816000846127b4565b612d61600083611f6d565b6001600160a01b0381166000908152609a60205260408120805460019290612d8a908490613961565b909155505060008281526099602052604080822080546001600160a01b0319169055518391906001600160a01b038416907fddf252ad1be2c89b69c2b068fc378daa952ba7f163c4a11628f55a4df523b3ef908390a46109ad81600084612847565b60006001600160e01b0319821663152a902d60e11b148061096957506301ffc9a760e01b6001600160e01b0319831614610969565b60006001612e2e84611695565b612e389190613961565b600083815260ca6020526040902054909150808214612e8b576001600160a01b038416600090815260c960209081526040808320858452825280832054848452818420819055835260ca90915290208190555b50600091825260ca602090815260408084208490556001600160a01b03909416835260c981528383209183525290812055565b60cb54600090612ed090600190613961565b600083815260cc602052604081205460cb8054939450909284908110612ef857612ef86138d8565b906000526020600020015490508060cb8381548110612f1957612f196138d8565b600091825260208083209091019290925582815260cc909152604080822084905585825281205560cb805480612f5157612f51613b3d565b6001900381819060005260206000200160009055905550505050565b6000612f7883611695565b6001600160a01b03909316600090815260c960209081526040808320868452825280832085905593825260ca9052919091209190915550565b60608315612fc0575081611c22565b825115612fd05782518084602001fd5b8160405162461bcd60e51b815260040161099a91906131bd565b508054612ff69061369f565b6000825580601f10613006575050565b601f01602090049060005260206000209081019061103391906130a8565b8280546130309061369f565b90600052602060002090601f0160209004810192826130525760008555613098565b82601f1061306b57805160ff1916838001178555613098565b82800160010185558215613098579182015b8281111561309857825182559160200191906001019061307d565b506130a49291506130a8565b5090565b5b808211156130a457600081556001016130a9565b6001600160e01b03198116811461103357600080fd5b6000602082840312156130e557600080fd5b8135611c22816130bd565b80356001600160a01b03811681146124f957600080fd5b6000806040838503121561311a57600080fd5b613123836130f0565b915060208301356001600160601b038116811461313f57600080fd5b809150509250929050565b60006020828403121561315c57600080fd5b611c22826130f0565b60005b83811015613180578181015183820152602001613168565b838111156119d15750506000910152565b600081518084526131a9816020860160208601613165565b601f01601f19169290920160200192915050565b602081526000611c226020830184613191565b6000602082840312156131e257600080fd5b5035919050565b600080604083850312156131fc57600080fd5b613205836130f0565b946020939093013593505050565b634e487b7160e01b600052604160045260246000fd5b604051601f8201601f1916810167ffffffffffffffff8111828210171561325257613252613213565b604052919050565b600082601f83011261326b57600080fd5b813567ffffffffffffffff81111561328557613285613213565b613298601f8201601f1916602001613229565b8181528460208386010111156132ad57600080fd5b816020850160208301376000918101602001919091529392505050565b6000602082840312156132dc57600080fd5b813567ffffffffffffffff8111156132f357600080fd5b6120ca8482850161325a565b60008060006060848603121561331457600080fd5b61331d846130f0565b925061332b602085016130f0565b9150604084013590509250925092565b6000806040838503121561334e57600080fd5b50508035926020909101359150565b6000806040838503121561337057600080fd5b613379836130f0565b9150602083013567ffffffffffffffff81111561339557600080fd5b6133a18582860161325a565b9150509250929050565b600080604083850312156133be57600080fd5b823567ffffffffffffffff8111156133d557600080fd5b6133e18582860161325a565b95602094909401359450505050565b6000806040838503121561340357600080fd5b61340c836130f0565b91506020830135801515811461313f57600080fd5b6000806000806080858703121561343757600080fd5b613440856130f0565b935061344e602086016130f0565b925060408501359150606085013567ffffffffffffffff81111561347157600080fd5b61347d8782880161325a565b91505092959194509250565b600067ffffffffffffffff8211156134a3576134a3613213565b5060051b60200190565b600082601f8301126134be57600080fd5b813560206134d36134ce83613489565b613229565b82815260059290921b840181019181810190868411156134f257600080fd5b8286015b8481101561351457613507816130f0565b83529183019183016134f6565b509695505050505050565b600082601f83011261353057600080fd5b813560206135406134ce83613489565b82815260059290921b8401810191818101908684111561355f57600080fd5b8286015b848110156135145780358352918301918301613563565b60008060006060848603121561358f57600080fd5b833567ffffffffffffffff808211156135a757600080fd5b6135b3878388016134ad565b945060208601359150808211156135c957600080fd5b6135d5878388016134ad565b935060408601359150808211156135eb57600080fd5b506135f88682870161351f565b9150509250925092565b60006020828403121561361457600080fd5b813567ffffffffffffffff81111561362b57600080fd5b6120ca8482850161351f565b6000806040838503121561364a57600080fd5b613653836130f0565b9150613661602084016130f0565b90509250929050565b6020808252818101527f4f776e61626c653a2063616c6c6572206973206e6f7420746865206f776e6572604082015260600190565b600181811c908216806136b357607f821691505b6020821081036136d357634e487b7160e01b600052602260045260246000fd5b50919050565b600082516136eb818460208701613165565b9190910192915050565b60208082526031908201527f4552433732313a207472616e736665722063616c6c6572206973206e6f74206f6040820152701ddb995c881b9bdc88185c1c1c9bdd9959607a1b606082015260800190565b600080835481600182811c91508083168061376257607f831692505b6020808410820361378157634e487b7160e01b86526022600452602486fd5b81801561379557600181146137a6576137d3565b60ff198616895284890196506137d3565b60008a81526020902060005b868110156137cb5781548b8201529085019083016137b2565b505084890196505b509498975050505050505050565b634e487b7160e01b600052601160045260246000fd5b6000816000190483118215151615613811576138116137e1565b500290565b634e487b7160e01b600052601260045260246000fd5b60008261383b5761383b613816565b500490565b6020808252602c908201527f46756e6374696f6e206d7573742062652063616c6c6564207468726f7567682060408201526b19195b1959d85d1958d85b1b60a21b606082015260800190565b6020808252602c908201527f46756e6374696f6e206d7573742062652063616c6c6564207468726f7567682060408201526b6163746976652070726f787960a01b606082015260800190565b634e487b7160e01b600052603260045260246000fd5b60008219821115613901576139016137e1565b500190565b60018060a01b038716815285602082015284604082015260c06060820152600061393360c0830186613191565b60808301949094525060a00152949350505050565b60006001820161395a5761395a6137e1565b5060010190565b600082821015613973576139736137e1565b500390565b6000835161398a818460208801613165565b83519083019061399e818360208801613165565b01949350505050565b6001600160a01b03831681526040602082018190526000906120ca90830184613191565b6000602082840312156139dd57600080fd5b5051919050565b6020808252602e908201527f496e697469616c697a61626c653a20636f6e747261637420697320616c72656160408201526d191e481a5b9a5d1a585b1a5e995960921b606082015260800190565b6020808252602b908201527f496e697469616c697a61626c653a20636f6e7472616374206973206e6f74206960408201526a6e697469616c697a696e6760a81b606082015260800190565b60208082526032908201527f4552433732313a207472616e7366657220746f206e6f6e20455243373231526560408201527131b2b4bb32b91034b6b83632b6b2b73a32b960711b606082015260800190565b600082613ade57613ade613816565b500690565b6001600160a01b0385811682528416602082015260408101839052608060608201819052600090613b1690830184613191565b9695505050505050565b600060208284031215613b3257600080fd5b8151611c22816130bd565b634e487b7160e01b600052603160045260246000fdfe360894a13ba1a3210667c828492db98dca3e2076cc3735a920a3ca505d382bbc416464726573733a206c6f772d6c6576656c2064656c65676174652063616c6c206661696c6564a2646970667358221220a5472b26c6ff885078ce4c3af36abd0d8314256757e36a749f4574d4b79a365864736f6c634300080d0033496e697469616c697a61626c653a20636f6e747261637420697320616c726561",
  "linkReferences": {},
  "deployedLinkReferences": {}
}