{
  "_format": "hh-sol-artifact-1",
  "contractName": "ERC721SolidState",
  "sourceName": "contracts/1_ERC721SolidState/ERC721SolidState.sol",
  "abi": [
    {
      "anonymous": false,
      "inputs": [
        {
          "indexed": true,
          "internalType": "address",
          "name": "owner",
          "type": "address"
        },
        {
          "indexed": true,
          "internalType": "address",
          "name": "operator",
          "type": "address"
        },
        {
          "indexed": true,
          "internalType": "uint256",
          "name": "tokenId",
          "type": "uint256"
        }
      ],
      "name": "Approval",
      "type": "event"
    },
    {
      "anonymous": false,
      "inputs": [
        {
          "indexed": true,
          "internalType": "address",
          "name": "owner",
          "type": "address"
        },
        {
          "indexed": true,
          "internalType": "address",
          "name": "operator",
          "type": "address"
        },
        {
          "indexed": false,
          "internalType": "bool",
          "name": "approved",
          "type": "bool"
        }
      ],
      "name": "ApprovalForAll",
      "type": "event"
    },
    {
      "anonymous": false,
      "inputs": [
        {
          "indexed": true,
          "internalType": "address",
          "name": "from",
          "type": "address"
        },
        {
          "indexed": true,
          "internalType": "address",
          "name": "to",
          "type": "address"
        },
        {
          "indexed": true,
          "internalType": "uint256",
          "name": "tokenId",
          "type": "uint256"
        }
      ],
      "name": "Transfer",
      "type": "event"
    },
    {
      "inputs": [
        {
          "internalType": "address",
          "name": "operator",
          "type": "address"
        },
        {
          "internalType": "uint256",
          "name": "tokenId",
          "type": "uint256"
        }
      ],
      "name": "approve",
      "outputs": [],
      "stateMutability": "payable",
      "type": "function"
    },
    {
      "inputs": [
        {
          "internalType": "address",
          "name": "account",
          "type": "address"
        }
      ],
      "name": "balanceOf",
      "outputs": [
        {
          "internalType": "uint256",
          "name": "",
          "type": "uint256"
        }
      ],
      "stateMutability": "view",
      "type": "function"
    },
    {
      "inputs": [
        {
          "internalType": "uint256",
          "name": "tokenId",
          "type": "uint256"
        }
      ],
      "name": "getApproved",
      "outputs": [
        {
          "internalType": "address",
          "name": "",
          "type": "address"
        }
      ],
      "stateMutability": "view",
      "type": "function"
    },
    {
      "inputs": [],
      "name": "init",
      "outputs": [],
      "stateMutability": "nonpayable",
      "type": "function"
    },
    {
      "inputs": [
        {
          "internalType": "address",
          "name": "account",
          "type": "address"
        },
        {
          "internalType": "address",
          "name": "operator",
          "type": "address"
        }
      ],
      "name": "isApprovedForAll",
      "outputs": [
        {
          "internalType": "bool",
          "name": "",
          "type": "bool"
        }
      ],
      "stateMutability": "view",
      "type": "function"
    },
    {
      "inputs": [],
      "name": "name",
      "outputs": [
        {
          "internalType": "string",
          "name": "",
          "type": "string"
        }
      ],
      "stateMutability": "view",
      "type": "function"
    },
    {
      "inputs": [
        {
          "internalType": "uint256",
          "name": "tokenId",
          "type": "uint256"
        }
      ],
      "name": "ownerOf",
      "outputs": [
        {
          "internalType": "address",
          "name": "",
          "type": "address"
        }
      ],
      "stateMutability": "view",
      "type": "function"
    },
    {
      "inputs": [
        {
          "internalType": "address",
          "name": "from",
          "type": "address"
        },
        {
          "internalType": "address",
          "name": "to",
          "type": "address"
        },
        {
          "internalType": "uint256",
          "name": "tokenId",
          "type": "uint256"
        }
      ],
      "name": "safeTransferFrom",
      "outputs": [],
      "stateMutability": "payable",
      "type": "function"
    },
    {
      "inputs": [
        {
          "internalType": "address",
          "name": "from",
          "type": "address"
        },
        {
          "internalType": "address",
          "name": "to",
          "type": "address"
        },
        {
          "internalType": "uint256",
          "name": "tokenId",
          "type": "uint256"
        },
        {
          "internalType": "bytes",
          "name": "data",
          "type": "bytes"
        }
      ],
      "name": "safeTransferFrom",
      "outputs": [],
      "stateMutability": "payable",
      "type": "function"
    },
    {
      "inputs": [
        {
          "internalType": "address",
          "name": "operator",
          "type": "address"
        },
        {
          "internalType": "bool",
          "name": "status",
          "type": "bool"
        }
      ],
      "name": "setApprovalForAll",
      "outputs": [],
      "stateMutability": "nonpayable",
      "type": "function"
    },
    {
      "inputs": [],
      "name": "symbol",
      "outputs": [
        {
          "internalType": "string",
          "name": "",
          "type": "string"
        }
      ],
      "stateMutability": "view",
      "type": "function"
    },
    {
      "inputs": [
        {
          "internalType": "uint256",
          "name": "index",
          "type": "uint256"
        }
      ],
      "name": "tokenByIndex",
      "outputs": [
        {
          "internalType": "uint256",
          "name": "",
          "type": "uint256"
        }
      ],
      "stateMutability": "view",
      "type": "function"
    },
    {
      "inputs": [
        {
          "internalType": "address",
          "name": "owner",
          "type": "address"
        },
        {
          "internalType": "uint256",
          "name": "index",
          "type": "uint256"
        }
      ],
      "name": "tokenOfOwnerByIndex",
      "outputs": [
        {
          "internalType": "uint256",
          "name": "",
          "type": "uint256"
        }
      ],
      "stateMutability": "view",
      "type": "function"
    },
    {
      "inputs": [
        {
          "internalType": "uint256",
          "name": "tokenId",
          "type": "uint256"
        }
      ],
      "name": "tokenURI",
      "outputs": [
        {
          "internalType": "string",
          "name": "",
          "type": "string"
        }
      ],
      "stateMutability": "view",
      "type": "function"
    },
    {
      "inputs": [],
      "name": "totalSupply",
      "outputs": [
        {
          "internalType": "uint256",
          "name": "",
          "type": "uint256"
        }
      ],
      "stateMutability": "view",
      "type": "function"
    },
    {
      "inputs": [
        {
          "internalType": "address",
          "name": "from",
          "type": "address"
        },
        {
          "internalType": "address",
          "name": "to",
          "type": "address"
        },
        {
          "internalType": "uint256",
          "name": "tokenId",
          "type": "uint256"
        }
      ],
      "name": "transferFrom",
      "outputs": [],
      "stateMutability": "payable",
      "type": "function"
    }
  ],
  "bytecode": "0x608060405234801561001057600080fd5b50611e67806100206000396000f3fe6080604052600436106100f35760003560e01c80636352211e1161008a578063b88d4fde11610059578063b88d4fde1461026e578063c87b56dd14610281578063e1c7392a146102a1578063e985e9c5146102b657600080fd5b80636352211e146101f957806370a082311461021957806395d89b4114610239578063a22cb4651461024e57600080fd5b806323b872dd116100c657806323b872dd146101935780632f745c59146101a657806342842e0e146101c65780634f6ccce7146101d957600080fd5b806306fdde03146100f8578063081812fc14610123578063095ea7b31461015b57806318160ddd14610170575b600080fd5b34801561010457600080fd5b5061010d6102e6565b60405161011a9190611991565b60405180910390f35b34801561012f57600080fd5b5061014361013e3660046119a4565b610385565b6040516001600160a01b03909116815260200161011a565b61016e6101693660046119d9565b610396565b005b34801561017c57600080fd5b506101856104bb565b60405190815260200161011a565b61016e6101a1366004611a03565b6104ca565b3480156101b257600080fd5b506101856101c13660046119d9565b610507565b61016e6101d4366004611a03565b61051a565b3480156101e557600080fd5b506101856101f43660046119a4565b610535565b34801561020557600080fd5b506101436102143660046119a4565b610540565b34801561022557600080fd5b50610185610234366004611a3f565b61054b565b34801561024557600080fd5b5061010d610556565b34801561025a57600080fd5b5061016e610269366004611a5a565b610575565b61016e61027c366004611aac565b610584565b34801561028d57600080fd5b5061010d61029c3660046119a4565b6105c8565b3480156102ad57600080fd5b5061016e610802565b3480156102c257600080fd5b506102d66102d1366004611b88565b6108eb565b604051901515815260200161011a565b6060600080516020611e12833981519152805461030290611bbb565b80601f016020809104026020016040519081016040528092919081815260200182805461032e90611bbb565b801561037b5780601f106103505761010080835404028352916020019161037b565b820191906000526020600020905b81548152906001019060200180831161035e57829003601f168201915b5050505050905090565b6000610390826108f7565b92915050565b6103a1828234610990565b60006103ac82610540565b9050806001600160a01b0316836001600160a01b03160361041e5760405162461bcd60e51b815260206004820152602160248201527f4552433732313a20617070726f76616c20746f2063757272656e74206f776e656044820152603960f91b60648201526084015b60405180910390fd5b336001600160a01b038216148061043a575061043a81336108eb565b6104ac5760405162461bcd60e51b815260206004820152603860248201527f4552433732313a20617070726f76652063616c6c6572206973206e6f74206f7760448201527f6e6572206e6f7220617070726f76656420666f7220616c6c00000000000000006064820152608401610415565b6104b683836109f2565b505050565b60006104c5610a7f565b905090565b6104d683838334610a98565b6104e03382610b00565b6104fc5760405162461bcd60e51b815260040161041590611bf5565b6104b6838383610bd0565b60006105138383610d8d565b9392505050565b6104b683838360405180602001604052806000815250610584565b600061039082610da8565b600061039082610dc2565b600061039082610e2d565b6060600080516020611e12833981519152600101805461030290611bbb565b610580338383610ed8565b5050565b61059084848434610a98565b61059a3383610b00565b6105b65760405162461bcd60e51b815260040161041590611bf5565b6105c284848484610fc6565b50505050565b60606105e482600080516020611df28339815191525b90611044565b6106485760405162461bcd60e51b815260206004820152602f60248201527f4552433732314d657461646174613a2055524920717565727920666f72206e6f60448201526e3732bc34b9ba32b73a103a37b5b2b760891b6064820152608401610415565b60008281527f99574a7094154bb123ae6ae102096f0bf9679b85a5cd1e727aaa0ae5f132e6b4602052604081208054600080516020611e1283398151915292919061069290611bbb565b80601f01602080910402602001604051908101604052809291908181526020018280546106be90611bbb565b801561070b5780601f106106e05761010080835404028352916020019161070b565b820191906000526020600020905b8154815290600101906020018083116106ee57829003601f168201915b50505050509050600082600201805461072390611bbb565b80601f016020809104026020016040519081016040528092919081815260200182805461074f90611bbb565b801561079c5780601f106107715761010080835404028352916020019161079c565b820191906000526020600020905b81548152906001019060200180831161077f57829003601f168201915b5050505050905080516000036107b457509392505050565b8151156107e75780826040516020016107ce929190611c45565b6040516020818303038152906040529350505050919050565b806107f186611050565b6040516020016107ce929190611c45565b6108386040518060400160405280601581526020017426b4b73a32b9172937b1b5b9902237b730ba34b7b760591b815250611151565b61085f60405180604001604052806006815260200165446f6e61746560d01b815250611170565b7fc8fcad8db84d3cc18b4c41d551ea0ee66dd599cde068d998e57d5e09332c131f6020527fb0f299ecb5b93181be17d5e233721498930c5361f367b1d41c5b827d4fe4d3808054600160ff19918216811790925563780e9d6360e01b6000527fc564b00dd622489e8872cfaa1fdbe51ee7adef071bfa99bc1effdc20162fa70a80549091169091179055565b600061051383836111a2565b6000600080516020611df28339815191526109128184611044565b6109735760405162461bcd60e51b815260206004820152602c60248201527f4552433732313a20617070726f76656420717565727920666f72206e6f6e657860448201526b34b9ba32b73a103a37b5b2b760a11b6064820152608401610415565b60009283526003016020525060409020546001600160a01b031690565b80156104b65760405162461bcd60e51b815260206004820152602b60248201527f4552433732313a2070617961626c6520617070726f76652063616c6c73206e6f60448201526a1d081cdd5c1c1bdc9d195960aa1b6064820152608401610415565b60008181527f3c7bf052874fa81625121783266a03507bd2cd48b16e571c01a04e8dd3fb07a96020526040902080546001600160a01b0319166001600160a01b0384169081179091558190610a4682610dc2565b6001600160a01b03167f8c5be1e5ebec7d5bd14f71427d1e84f3dd0314c0f7b2291e5b200ac8c7c3b92560405160405180910390a45050565b60006104c5600080516020611df28339815191526111ef565b8015610afb5760405162461bcd60e51b815260206004820152602c60248201527f4552433732313a2070617961626c65207472616e736665722063616c6c73206e60448201526b1bdd081cdd5c1c1bdc9d195960a21b6064820152608401610415565b6105c2565b6000610b1a82600080516020611df28339815191526105de565b610b725760405162461bcd60e51b815260206004820152602360248201527f4552433732313a20717565727920666f72206e6f6e6578697374656e7420746f60448201526235b2b760e91b6064820152608401610415565b6000610b7d83610dc2565b9050806001600160a01b0316846001600160a01b03161480610bb85750836001600160a01b0316610bad846108f7565b6001600160a01b0316145b80610bc85750610bc881856111a2565b949350505050565b826001600160a01b0316610be382610dc2565b6001600160a01b031614610c4b5760405162461bcd60e51b815260206004820152602960248201527f4552433732313a207472616e73666572206f6620746f6b656e2074686174206960448201526839903737ba1037bbb760b91b6064820152608401610415565b6001600160a01b038216610cad5760405162461bcd60e51b8152602060048201526024808201527f4552433732313a207472616e7366657220746f20746865207a65726f206164646044820152637265737360e01b6064820152608401610415565b610cb88383836111fa565b610cc36000826109f2565b6001600160a01b03831660009081527f3c7bf052874fa81625121783266a03507bd2cd48b16e571c01a04e8dd3fb07a860205260409020600080516020611df283398151915290610d149083611205565b506001600160a01b03831660009081526002820160205260409020610d399083611211565b50610d4581838561121d565b5081836001600160a01b0316856001600160a01b03167fddf252ad1be2c89b69c2b068fc378daa952ba7f163c4a11628f55a4df523b3ef60405160405180910390a450505050565b6000610513600080516020611df28339815191528484611233565b6000610390600080516020611df283398151915283611257565b600080610ddd600080516020611df28339815191528461126d565b90506001600160a01b0381166103905760405162461bcd60e51b815260206004820152601560248201527422a9219b99189d1034b73b30b634b21037bbb732b960591b6044820152606401610415565b60006001600160a01b038216610e985760405162461bcd60e51b815260206004820152602a60248201527f4552433732313a2062616c616e636520717565727920666f7220746865207a65604482015269726f206164647265737360b01b6064820152608401610415565b6001600160a01b03821660009081527f3c7bf052874fa81625121783266a03507bd2cd48b16e571c01a04e8dd3fb07a86020526040902061039090611279565b826001600160a01b0316826001600160a01b031603610f395760405162461bcd60e51b815260206004820152601960248201527f4552433732313a20617070726f766520746f2063616c6c6572000000000000006044820152606401610415565b6001600160a01b0383811660008181527f3c7bf052874fa81625121783266a03507bd2cd48b16e571c01a04e8dd3fb07aa6020908152604080832094871680845294825291829020805460ff1916861515908117909155825190815291517f17307eab39ab6107e8899845ad3d59bd9653f200f220920489ca2b5937696c319281900390910190a3505050565b610fd1848484610bd0565b610fdd84848484611283565b6105c25760405162461bcd60e51b815260206004820152603260248201527f4552433732313a207472616e7366657220746f206e6f6e20455243373231526560448201527131b2b4bb32b91034b6b83632b6b2b73a32b960711b6064820152608401610415565b60006105138383611354565b6060816000036110775750506040805180820190915260018152600360fc1b602082015290565b8160005b81156110a1578061108b81611c8a565b915061109a9050600a83611cb9565b915061107b565b60008167ffffffffffffffff8111156110bc576110bc611a96565b6040519080825280601f01601f1916602001820160405280156110e6576020820181803683370190505b5090505b8415610bc8576110fb600183611ccd565b9150611108600a86611ce4565b611113906030611cf8565b60f81b81838151811061112857611128611d10565b60200101906001600160f81b031916908160001a90535061114a600a86611cb9565b94506110ea565b80600080516020611e1283398151915281516105809260200190611863565b8051610580907f99574a7094154bb123ae6ae102096f0bf9679b85a5cd1e727aaa0ae5f132e6b2906020840190611863565b6001600160a01b0391821660009081527f3c7bf052874fa81625121783266a03507bd2cd48b16e571c01a04e8dd3fb07aa6020908152604080832093909416825291909152205460ff1690565b600061039082611279565b6104b683838361136c565b60006105138383611377565b60006105138383611444565b6000610bc884846001600160a01b038516611493565b6001600160a01b03821660009081526002840160205260408120610bc89083611532565b600080611264848461153e565b50949350505050565b6000610513838361155a565b6000610390825490565b60006001600160a01b0384163b61129c57506001610bc8565b600061131d63150b7a0260e01b338887876040516024016112c09493929190611d26565b604051602081830303815290604052906001600160e01b0319166020820180516001600160e01b038381831617835250505050604051806060016040528060328152602001611dc0603291396001600160a01b03881691906115ed565b90506000818060200190518101906113359190611d63565b6001600160e01b031916630a85bd0160e11b1492505050949350505050565b60008181526001830160205260408120541515610513565b6104b68383836115fc565b6000818152600183016020526040812054801561143a578354600090859060001981019081106113a9576113a9611d10565b90600052602060002001549050808560000160018403815481106113cf576113cf611d10565b600091825260208083209091019290925591825260018601905260409020819055835484908061140157611401611d8d565b60019003818190600052602060002001600090559055836001016000848152602001908152602001600020600090556001915050610390565b6000915050610390565b600081815260018301602052604081205461148b57508154600181810184556000848152602080822090930184905584548482528286019093526040902091909155610390565b506000610390565b60008281526001840160205260408120548082036114fa575050604080518082018252838152602080820184815286546001818101895560008981528481209551600290930290950191825591519082015586548684528188019092529290912055610513565b8285600001600183038154811061151357611513611d10565b9060005260206000209060020201600101819055506000915050610513565b60006105138383611640565b600080808061154d86866116c6565b9097909650945050505050565b60008181526001830160205260408120548082036115ba5760405162461bcd60e51b815260206004820152601e60248201527f456e756d657261626c654d61703a206e6f6e6578697374656e74206b657900006044820152606401610415565b8360000160018203815481106115d2576115d2611d10565b90600052602060002090600202016001015491505092915050565b6060610bc88484600085611763565b6001600160a01b0382166104b65760008181527f99574a7094154bb123ae6ae102096f0bf9679b85a5cd1e727aaa0ae5f132e6b4602052604081206104b6916118e7565b8154600090821061169e5760405162461bcd60e51b815260206004820152602260248201527f456e756d657261626c655365743a20696e646578206f7574206f6620626f756e604482015261647360f01b6064820152608401610415565b8260000182815481106116b3576116b3611d10565b9060005260206000200154905092915050565b8154600090819083106117265760405162461bcd60e51b815260206004820152602260248201527f456e756d657261626c654d61703a20696e646578206f7574206f6620626f756e604482015261647360f01b6064820152608401610415565b600084600001848154811061173d5761173d611d10565b906000526020600020906002020190508060000154816001015492509250509250929050565b6060843b6117c75760405162461bcd60e51b815260206004820152602b60248201527f416464726573735574696c733a2066756e6374696f6e2063616c6c20746f206e60448201526a1bdb8b58dbdb9d1c9858dd60aa1b6064820152608401610415565b600080866001600160a01b031685876040516117e39190611da3565b60006040518083038185875af1925050503d8060008114611820576040519150601f19603f3d011682016040523d82523d6000602084013e611825565b606091505b50915091508115611839579150610bc89050565b8051156118495780518082602001fd5b8360405162461bcd60e51b81526004016104159190611991565b82805461186f90611bbb565b90600052602060002090601f01602090048101928261189157600085556118d7565b82601f106118aa57805160ff19168380011785556118d7565b828001600101855582156118d7579182015b828111156118d75782518255916020019190600101906118bc565b506118e3929150611924565b5090565b5080546118f390611bbb565b6000825580601f10611903575050565b601f0160209004906000526020600020908101906119219190611924565b50565b5b808211156118e35760008155600101611925565b60005b8381101561195457818101518382015260200161193c565b838111156105c25750506000910152565b6000815180845261197d816020860160208601611939565b601f01601f19169290920160200192915050565b6020815260006105136020830184611965565b6000602082840312156119b657600080fd5b5035919050565b80356001600160a01b03811681146119d457600080fd5b919050565b600080604083850312156119ec57600080fd5b6119f5836119bd565b946020939093013593505050565b600080600060608486031215611a1857600080fd5b611a21846119bd565b9250611a2f602085016119bd565b9150604084013590509250925092565b600060208284031215611a5157600080fd5b610513826119bd565b60008060408385031215611a6d57600080fd5b611a76836119bd565b915060208301358015158114611a8b57600080fd5b809150509250929050565b634e487b7160e01b600052604160045260246000fd5b60008060008060808587031215611ac257600080fd5b611acb856119bd565b9350611ad9602086016119bd565b925060408501359150606085013567ffffffffffffffff80821115611afd57600080fd5b818701915087601f830112611b1157600080fd5b813581811115611b2357611b23611a96565b604051601f8201601f19908116603f01168101908382118183101715611b4b57611b4b611a96565b816040528281528a6020848701011115611b6457600080fd5b82602086016020830137600060208483010152809550505050505092959194509250565b60008060408385031215611b9b57600080fd5b611ba4836119bd565b9150611bb2602084016119bd565b90509250929050565b600181811c90821680611bcf57607f821691505b602082108103611bef57634e487b7160e01b600052602260045260246000fd5b50919050565b60208082526030908201527f4552433732313a207472616e736665722063616c6c6572206973206e6f74206f60408201526f1ddb995c881bdc88185c1c1c9bdd995960821b606082015260800190565b60008351611c57818460208801611939565b835190830190611c6b818360208801611939565b01949350505050565b634e487b7160e01b600052601160045260246000fd5b600060018201611c9c57611c9c611c74565b5060010190565b634e487b7160e01b600052601260045260246000fd5b600082611cc857611cc8611ca3565b500490565b600082821015611cdf57611cdf611c74565b500390565b600082611cf357611cf3611ca3565b500690565b60008219821115611d0b57611d0b611c74565b500190565b634e487b7160e01b600052603260045260246000fd5b6001600160a01b0385811682528416602082015260408101839052608060608201819052600090611d5990830184611965565b9695505050505050565b600060208284031215611d7557600080fd5b81516001600160e01b03198116811461051357600080fd5b634e487b7160e01b600052603160045260246000fd5b60008251611db5818460208701611939565b919091019291505056fe4552433732313a207472616e7366657220746f206e6f6e20455243373231526563656976657220696d706c656d656e7465723c7bf052874fa81625121783266a03507bd2cd48b16e571c01a04e8dd3fb07a699574a7094154bb123ae6ae102096f0bf9679b85a5cd1e727aaa0ae5f132e6b1a26469706673582212201de69a76ae75d74c11aa08986340e8f3d03a5694fc5f10dab4e43c00ac9e17e164736f6c634300080d0033",
  "linkReferences": {},
  "deployedLinkReferences": {}
}