{
  "_format": "hh-sol-artifact-1",
  "contractName": "ERC721SolidState",
  "sourceName": "contracts/1_ERC721SolidState/ERC721SolidState.sol",
  "abi": [
    {
      "anonymous": false,
      "inputs": [
        {
          "indexed": true,
          "internalType": "address",
          "name": "owner",
          "type": "address"
        },
        {
          "indexed": true,
          "internalType": "address",
          "name": "operator",
          "type": "address"
        },
        {
          "indexed": true,
          "internalType": "uint256",
          "name": "tokenId",
          "type": "uint256"
        }
      ],
      "name": "Approval",
      "type": "event"
    },
    {
      "anonymous": false,
      "inputs": [
        {
          "indexed": true,
          "internalType": "address",
          "name": "owner",
          "type": "address"
        },
        {
          "indexed": true,
          "internalType": "address",
          "name": "operator",
          "type": "address"
        },
        {
          "indexed": false,
          "internalType": "bool",
          "name": "approved",
          "type": "bool"
        }
      ],
      "name": "ApprovalForAll",
      "type": "event"
    },
    {
      "anonymous": false,
      "inputs": [
        {
          "indexed": false,
          "internalType": "address",
          "name": "account",
          "type": "address"
        }
      ],
      "name": "Paused",
      "type": "event"
    },
    {
      "anonymous": false,
      "inputs": [
        {
          "indexed": true,
          "internalType": "address",
          "name": "from",
          "type": "address"
        },
        {
          "indexed": true,
          "internalType": "address",
          "name": "to",
          "type": "address"
        },
        {
          "indexed": true,
          "internalType": "uint256",
          "name": "tokenId",
          "type": "uint256"
        }
      ],
      "name": "Transfer",
      "type": "event"
    },
    {
      "anonymous": false,
      "inputs": [
        {
          "indexed": false,
          "internalType": "address",
          "name": "account",
          "type": "address"
        }
      ],
      "name": "Unpaused",
      "type": "event"
    },
    {
      "inputs": [
        {
          "internalType": "address",
          "name": "operator",
          "type": "address"
        },
        {
          "internalType": "uint256",
          "name": "tokenId",
          "type": "uint256"
        }
      ],
      "name": "approve",
      "outputs": [],
      "stateMutability": "payable",
      "type": "function"
    },
    {
      "inputs": [
        {
          "internalType": "address",
          "name": "account",
          "type": "address"
        }
      ],
      "name": "balanceOf",
      "outputs": [
        {
          "internalType": "uint256",
          "name": "",
          "type": "uint256"
        }
      ],
      "stateMutability": "view",
      "type": "function"
    },
    {
      "inputs": [
        {
          "internalType": "uint256",
          "name": "tokenId",
          "type": "uint256"
        }
      ],
      "name": "getApproved",
      "outputs": [
        {
          "internalType": "address",
          "name": "",
          "type": "address"
        }
      ],
      "stateMutability": "view",
      "type": "function"
    },
    {
      "inputs": [],
      "name": "init",
      "outputs": [],
      "stateMutability": "nonpayable",
      "type": "function"
    },
    {
      "inputs": [
        {
          "internalType": "address",
          "name": "account",
          "type": "address"
        },
        {
          "internalType": "address",
          "name": "operator",
          "type": "address"
        }
      ],
      "name": "isApprovedForAll",
      "outputs": [
        {
          "internalType": "bool",
          "name": "",
          "type": "bool"
        }
      ],
      "stateMutability": "view",
      "type": "function"
    },
    {
      "inputs": [],
      "name": "name",
      "outputs": [
        {
          "internalType": "string",
          "name": "",
          "type": "string"
        }
      ],
      "stateMutability": "view",
      "type": "function"
    },
    {
      "inputs": [
        {
          "internalType": "uint256",
          "name": "tokenId",
          "type": "uint256"
        }
      ],
      "name": "ownerOf",
      "outputs": [
        {
          "internalType": "address",
          "name": "",
          "type": "address"
        }
      ],
      "stateMutability": "view",
      "type": "function"
    },
    {
      "inputs": [],
      "name": "pause",
      "outputs": [],
      "stateMutability": "nonpayable",
      "type": "function"
    },
    {
      "inputs": [],
      "name": "paused",
      "outputs": [
        {
          "internalType": "bool",
          "name": "",
          "type": "bool"
        }
      ],
      "stateMutability": "view",
      "type": "function"
    },
    {
      "inputs": [
        {
          "internalType": "address",
          "name": "from",
          "type": "address"
        },
        {
          "internalType": "address",
          "name": "to",
          "type": "address"
        },
        {
          "internalType": "uint256",
          "name": "tokenId",
          "type": "uint256"
        }
      ],
      "name": "safeTransferFrom",
      "outputs": [],
      "stateMutability": "payable",
      "type": "function"
    },
    {
      "inputs": [
        {
          "internalType": "address",
          "name": "from",
          "type": "address"
        },
        {
          "internalType": "address",
          "name": "to",
          "type": "address"
        },
        {
          "internalType": "uint256",
          "name": "tokenId",
          "type": "uint256"
        },
        {
          "internalType": "bytes",
          "name": "data",
          "type": "bytes"
        }
      ],
      "name": "safeTransferFrom",
      "outputs": [],
      "stateMutability": "payable",
      "type": "function"
    },
    {
      "inputs": [
        {
          "internalType": "address",
          "name": "operator",
          "type": "address"
        },
        {
          "internalType": "bool",
          "name": "status",
          "type": "bool"
        }
      ],
      "name": "setApprovalForAll",
      "outputs": [],
      "stateMutability": "nonpayable",
      "type": "function"
    },
    {
      "inputs": [],
      "name": "symbol",
      "outputs": [
        {
          "internalType": "string",
          "name": "",
          "type": "string"
        }
      ],
      "stateMutability": "view",
      "type": "function"
    },
    {
      "inputs": [
        {
          "internalType": "uint256",
          "name": "index",
          "type": "uint256"
        }
      ],
      "name": "tokenByIndex",
      "outputs": [
        {
          "internalType": "uint256",
          "name": "",
          "type": "uint256"
        }
      ],
      "stateMutability": "view",
      "type": "function"
    },
    {
      "inputs": [
        {
          "internalType": "address",
          "name": "owner",
          "type": "address"
        },
        {
          "internalType": "uint256",
          "name": "index",
          "type": "uint256"
        }
      ],
      "name": "tokenOfOwnerByIndex",
      "outputs": [
        {
          "internalType": "uint256",
          "name": "",
          "type": "uint256"
        }
      ],
      "stateMutability": "view",
      "type": "function"
    },
    {
      "inputs": [
        {
          "internalType": "uint256",
          "name": "tokenId",
          "type": "uint256"
        }
      ],
      "name": "tokenURI",
      "outputs": [
        {
          "internalType": "string",
          "name": "",
          "type": "string"
        }
      ],
      "stateMutability": "view",
      "type": "function"
    },
    {
      "inputs": [],
      "name": "totalSupply",
      "outputs": [
        {
          "internalType": "uint256",
          "name": "",
          "type": "uint256"
        }
      ],
      "stateMutability": "view",
      "type": "function"
    },
    {
      "inputs": [
        {
          "internalType": "address",
          "name": "from",
          "type": "address"
        },
        {
          "internalType": "address",
          "name": "to",
          "type": "address"
        },
        {
          "internalType": "uint256",
          "name": "tokenId",
          "type": "uint256"
        }
      ],
      "name": "transferFrom",
      "outputs": [],
      "stateMutability": "payable",
      "type": "function"
    },
    {
      "inputs": [],
      "name": "unpause",
      "outputs": [],
      "stateMutability": "nonpayable",
      "type": "function"
    }
  ],
  "bytecode": "0x608060405234801561001057600080fd5b50612242806100206000396000f3fe6080604052600436106101145760003560e01c80635c975abb116100a0578063a22cb46511610064578063a22cb465146102be578063b88d4fde146102de578063c87b56dd146102f1578063e1c7392a14610311578063e985e9c51461032657600080fd5b80635c975abb1461022f5780636352211e1461025457806370a08231146102745780638456cb591461029457806395d89b41146102a957600080fd5b806323b872dd116100e757806323b872dd146101b45780632f745c59146101c75780633f4ba83a146101e757806342842e0e146101fc5780634f6ccce71461020f57600080fd5b806306fdde0314610119578063081812fc14610144578063095ea7b31461017c57806318160ddd14610191575b600080fd5b34801561012557600080fd5b5061012e610346565b60405161013b9190611d4c565b60405180910390f35b34801561015057600080fd5b5061016461015f366004611d5f565b6103e5565b6040516001600160a01b03909116815260200161013b565b61018f61018a366004611d94565b6103f6565b005b34801561019d57600080fd5b506101a661051b565b60405190815260200161013b565b61018f6101c2366004611dbe565b61052a565b3480156101d357600080fd5b506101a66101e2366004611d94565b610567565b3480156101f357600080fd5b5061018f61057a565b61018f61020a366004611dbe565b61058c565b34801561021b57600080fd5b506101a661022a366004611d5f565b6105a7565b34801561023b57600080fd5b506102446105b2565b604051901515815260200161013b565b34801561026057600080fd5b5061016461026f366004611d5f565b6105cd565b34801561028057600080fd5b506101a661028f366004611dfa565b6105d8565b3480156102a057600080fd5b5061018f6105e3565b3480156102b557600080fd5b5061012e6105f3565b3480156102ca57600080fd5b5061018f6102d9366004611e15565b610612565b61018f6102ec366004611e67565b610621565b3480156102fd57600080fd5b5061012e61030c366004611d5f565b610665565b34801561031d57600080fd5b5061018f61089f565b34801561033257600080fd5b50610244610341366004611f43565b610988565b60606000805160206121ed833981519152805461036290611f76565b80601f016020809104026020016040519081016040528092919081815260200182805461038e90611f76565b80156103db5780601f106103b0576101008083540402835291602001916103db565b820191906000526020600020905b8154815290600101906020018083116103be57829003601f168201915b5050505050905090565b60006103f082610994565b92915050565b610401828234610a2d565b600061040c826105cd565b9050806001600160a01b0316836001600160a01b03160361047e5760405162461bcd60e51b815260206004820152602160248201527f4552433732313a20617070726f76616c20746f2063757272656e74206f776e656044820152603960f91b60648201526084015b60405180910390fd5b336001600160a01b038216148061049a575061049a8133610988565b61050c5760405162461bcd60e51b815260206004820152603860248201527f4552433732313a20617070726f76652063616c6c6572206973206e6f74206f7760448201527f6e6572206e6f7220617070726f76656420666f7220616c6c00000000000000006064820152608401610475565b6105168383610a8f565b505050565b6000610525610b1c565b905090565b61053683838334610b35565b6105403382610b9d565b61055c5760405162461bcd60e51b815260040161047590611fb0565b610516838383610c6d565b60006105738383610e35565b9392505050565b610582610e50565b61058a610ed7565b565b61051683838360405180602001604052806000815250610621565b60006103f082610f7a565b60006105256000805160206121ad8339815191525460ff1690565b60006103f082610f94565b60006103f082610fff565b6105eb610e50565b61058a6110aa565b60606000805160206121ed833981519152600101805461036290611f76565b61061d338383611147565b5050565b61062d84848434610b35565b6106373383610b9d565b6106535760405162461bcd60e51b815260040161047590611fb0565b61065f84848484611235565b50505050565b6060610681826000805160206121cd8339815191525b906112b3565b6106e55760405162461bcd60e51b815260206004820152602f60248201527f4552433732314d657461646174613a2055524920717565727920666f72206e6f60448201526e3732bc34b9ba32b73a103a37b5b2b760891b6064820152608401610475565b60008281527f99574a7094154bb123ae6ae102096f0bf9679b85a5cd1e727aaa0ae5f132e6b46020526040812080546000805160206121ed83398151915292919061072f90611f76565b80601f016020809104026020016040519081016040528092919081815260200182805461075b90611f76565b80156107a85780601f1061077d576101008083540402835291602001916107a8565b820191906000526020600020905b81548152906001019060200180831161078b57829003601f168201915b5050505050905060008260020180546107c090611f76565b80601f01602080910402602001604051908101604052809291908181526020018280546107ec90611f76565b80156108395780601f1061080e57610100808354040283529160200191610839565b820191906000526020600020905b81548152906001019060200180831161081c57829003601f168201915b50505050509050805160000361085157509392505050565b81511561088457808260405160200161086b929190612000565b6040516020818303038152906040529350505050919050565b8061088e866112bf565b60405160200161086b929190612000565b6108d56040518060400160405280601581526020017426b4b73a32b9172937b1b5b9902237b730ba34b7b760591b8152506113c0565b6108fc60405180604001604052806006815260200165446f6e61746560d01b8152506113df565b7fc8fcad8db84d3cc18b4c41d551ea0ee66dd599cde068d998e57d5e09332c131f6020527fb0f299ecb5b93181be17d5e233721498930c5361f367b1d41c5b827d4fe4d3808054600160ff19918216811790925563780e9d6360e01b6000527fc564b00dd622489e8872cfaa1fdbe51ee7adef071bfa99bc1effdc20162fa70a80549091169091179055565b60006105738383611411565b60006000805160206121cd8339815191526109af81846112b3565b610a105760405162461bcd60e51b815260206004820152602c60248201527f4552433732313a20617070726f76656420717565727920666f72206e6f6e657860448201526b34b9ba32b73a103a37b5b2b760a11b6064820152608401610475565b60009283526003016020525060409020546001600160a01b031690565b80156105165760405162461bcd60e51b815260206004820152602b60248201527f4552433732313a2070617961626c6520617070726f76652063616c6c73206e6f60448201526a1d081cdd5c1c1bdc9d195960aa1b6064820152608401610475565b60008181527f3c7bf052874fa81625121783266a03507bd2cd48b16e571c01a04e8dd3fb07a96020526040902080546001600160a01b0319166001600160a01b0384169081179091558190610ae382610f94565b6001600160a01b03167f8c5be1e5ebec7d5bd14f71427d1e84f3dd0314c0f7b2291e5b200ac8c7c3b92560405160405180910390a45050565b60006105256000805160206121cd83398151915261145e565b8015610b985760405162461bcd60e51b815260206004820152602c60248201527f4552433732313a2070617961626c65207472616e736665722063616c6c73206e60448201526b1bdd081cdd5c1c1bdc9d195960a21b6064820152608401610475565b61065f565b6000610bb7826000805160206121cd83398151915261067b565b610c0f5760405162461bcd60e51b815260206004820152602360248201527f4552433732313a20717565727920666f72206e6f6e6578697374656e7420746f60448201526235b2b760e91b6064820152608401610475565b6000610c1a83610f94565b9050806001600160a01b0316846001600160a01b03161480610c555750836001600160a01b0316610c4a84610994565b6001600160a01b0316145b80610c655750610c658185611411565b949350505050565b826001600160a01b0316610c8082610f94565b6001600160a01b031614610ce85760405162461bcd60e51b815260206004820152602960248201527f4552433732313a207472616e73666572206f6620746f6b656e2074686174206960448201526839903737ba1037bbb760b91b6064820152608401610475565b6001600160a01b038216610d4a5760405162461bcd60e51b8152602060048201526024808201527f4552433732313a207472616e7366657220746f20746865207a65726f206164646044820152637265737360e01b6064820152608401610475565b610d55838383611469565b610d60600082610a8f565b6001600160a01b03831660009081527f3c7bf052874fa81625121783266a03507bd2cd48b16e571c01a04e8dd3fb07a8602052604090206000805160206121cd83398151915290610db190836114c7565b506001600160a01b03831660009081526002820160205260409020610dd690836114d3565b50610de28183856114df565b50610dee8484846114f5565b81836001600160a01b0316856001600160a01b03167fddf252ad1be2c89b69c2b068fc378daa952ba7f163c4a11628f55a4df523b3ef60405160405180910390a450505050565b60006105736000805160206121cd8339815191528484611557565b7fc8fcad8db84d3cc18b4c41d551ea0ee66dd599cde068d998e57d5e09332c131c600401546001600160a01b0316331461058a5760405162461bcd60e51b815260206004820152602260248201527f4c69624469616d6f6e643a204d75737420626520636f6e7472616374206f776e60448201526132b960f11b6064820152608401610475565b6000805160206121ad8339815191525460ff16610f2d5760405162461bcd60e51b815260206004820152601460248201527314185d5cd8589b194e881b9bdd081c185d5cd95960621b6044820152606401610475565b6000805160206121ad833981519152805460ff191690556040513381527f5db9ee0a495bf2e6ff9c91a7834c1ba4fdd244a5e8aa4e537bd38aeae4b073aa906020015b60405180910390a1565b60006103f06000805160206121cd8339815191528361157b565b600080610faf6000805160206121cd83398151915284611591565b90506001600160a01b0381166103f05760405162461bcd60e51b815260206004820152601560248201527422a9219b99189d1034b73b30b634b21037bbb732b960591b6044820152606401610475565b60006001600160a01b03821661106a5760405162461bcd60e51b815260206004820152602a60248201527f4552433732313a2062616c616e636520717565727920666f7220746865207a65604482015269726f206164647265737360b01b6064820152608401610475565b6001600160a01b03821660009081527f3c7bf052874fa81625121783266a03507bd2cd48b16e571c01a04e8dd3fb07a8602052604090206103f09061159d565b6000805160206121ad8339815191525460ff16156110fd5760405162461bcd60e51b815260206004820152601060248201526f14185d5cd8589b194e881c185d5cd95960821b6044820152606401610475565b6000805160206121ad833981519152805460ff191660011790556040513381527f62e78cea01bee320cd4e420270b5ea74000d11b0c9f74754ebdbfc544b05a25890602001610f70565b826001600160a01b0316826001600160a01b0316036111a85760405162461bcd60e51b815260206004820152601960248201527f4552433732313a20617070726f766520746f2063616c6c6572000000000000006044820152606401610475565b6001600160a01b0383811660008181527f3c7bf052874fa81625121783266a03507bd2cd48b16e571c01a04e8dd3fb07aa6020908152604080832094871680845294825291829020805460ff1916861515908117909155825190815291517f17307eab39ab6107e8899845ad3d59bd9653f200f220920489ca2b5937696c319281900390910190a3505050565b611240848484610c6d565b61124c848484846115a7565b61065f5760405162461bcd60e51b815260206004820152603260248201527f4552433732313a207472616e7366657220746f206e6f6e20455243373231526560448201527131b2b4bb32b91034b6b83632b6b2b73a32b960711b6064820152608401610475565b60006105738383611678565b6060816000036112e65750506040805180820190915260018152600360fc1b602082015290565b8160005b811561131057806112fa81612045565b91506113099050600a83612074565b91506112ea565b60008167ffffffffffffffff81111561132b5761132b611e51565b6040519080825280601f01601f191660200182016040528015611355576020820181803683370190505b5090505b8415610c655761136a600183612088565b9150611377600a8661209f565b6113829060306120b3565b60f81b818381518110611397576113976120cb565b60200101906001600160f81b031916908160001a9053506113b9600a86612074565b9450611359565b806000805160206121ed833981519152815161061d9260200190611c1e565b805161061d907f99574a7094154bb123ae6ae102096f0bf9679b85a5cd1e727aaa0ae5f132e6b2906020840190611c1e565b6001600160a01b0391821660009081527f3c7bf052874fa81625121783266a03507bd2cd48b16e571c01a04e8dd3fb07aa6020908152604080832093909416825291909152205460ff1690565b60006103f08261159d565b6000805160206121ad8339815191525460ff16156114bc5760405162461bcd60e51b815260206004820152601060248201526f14185d5cd8589b194e881c185d5cd95960821b6044820152606401610475565b610516838383611690565b6000610573838361169b565b60006105738383611768565b6000610c6584846001600160a01b0385166117b7565b60008181527f8b1e34c06a0926cd4f4dec6712395936ddf06c5177eba09c7581fc2f39f19f4a60205260409020600301546001600160a01b03841661153e5761153e8482611856565b6001600160a01b0383161561065f5761065f83826118a6565b6001600160a01b03821660009081526002840160205260408120610c6590836118ed565b60008061158884846118f9565b50949350505050565b60006105738383611915565b60006103f0825490565b60006001600160a01b0384163b6115c057506001610c65565b600061164163150b7a0260e01b338887876040516024016115e494939291906120e1565b604051602081830303815290604052906001600160e01b0319166020820180516001600160e01b03838183161783525050505060405180606001604052806032815260200161217b603291396001600160a01b03881691906119a8565b9050600081806020019051810190611659919061211e565b6001600160e01b031916630a85bd0160e11b1492505050949350505050565b60008181526001830160205260408120541515610573565b6105168383836119b7565b6000818152600183016020526040812054801561175e578354600090859060001981019081106116cd576116cd6120cb565b90600052602060002001549050808560000160018403815481106116f3576116f36120cb565b600091825260208083209091019290925591825260018601905260409020819055835484908061172557611725612148565b600190038181906000526020600020016000905590558360010160008481526020019081526020016000206000905560019150506103f0565b60009150506103f0565b60008181526001830160205260408120546117af575081546001818101845560008481526020808220909301849055845484825282860190935260409020919091556103f0565b5060006103f0565b600082815260018401602052604081205480820361181e575050604080518082018252838152602080820184815286546001818101895560008981528481209551600290930290950191825591519082015586548684528188019092529290912055610573565b82856000016001830381548110611837576118376120cb565b9060005260206000209060020201600101819055506000915050610573565b6001600160a01b03821660009081527f8b1e34c06a0926cd4f4dec6712395936ddf06c5177eba09c7581fc2f39f19f4b60205260408120805483929061189d908490612088565b90915550505050565b6001600160a01b03821660009081527f8b1e34c06a0926cd4f4dec6712395936ddf06c5177eba09c7581fc2f39f19f4b60205260408120805483929061189d9084906120b3565b600061057383836119fb565b60008080806119088686611a81565b9097909650945050505050565b60008181526001830160205260408120548082036119755760405162461bcd60e51b815260206004820152601e60248201527f456e756d657261626c654d61703a206e6f6e6578697374656e74206b657900006044820152606401610475565b83600001600182038154811061198d5761198d6120cb565b90600052602060002090600202016001015491505092915050565b6060610c658484600085611b1e565b6001600160a01b0382166105165760008181527f99574a7094154bb123ae6ae102096f0bf9679b85a5cd1e727aaa0ae5f132e6b46020526040812061051691611ca2565b81546000908210611a595760405162461bcd60e51b815260206004820152602260248201527f456e756d657261626c655365743a20696e646578206f7574206f6620626f756e604482015261647360f01b6064820152608401610475565b826000018281548110611a6e57611a6e6120cb565b9060005260206000200154905092915050565b815460009081908310611ae15760405162461bcd60e51b815260206004820152602260248201527f456e756d657261626c654d61703a20696e646578206f7574206f6620626f756e604482015261647360f01b6064820152608401610475565b6000846000018481548110611af857611af86120cb565b906000526020600020906002020190508060000154816001015492509250509250929050565b6060843b611b825760405162461bcd60e51b815260206004820152602b60248201527f416464726573735574696c733a2066756e6374696f6e2063616c6c20746f206e60448201526a1bdb8b58dbdb9d1c9858dd60aa1b6064820152608401610475565b600080866001600160a01b03168587604051611b9e919061215e565b60006040518083038185875af1925050503d8060008114611bdb576040519150601f19603f3d011682016040523d82523d6000602084013e611be0565b606091505b50915091508115611bf4579150610c659050565b805115611c045780518082602001fd5b8360405162461bcd60e51b81526004016104759190611d4c565b828054611c2a90611f76565b90600052602060002090601f016020900481019282611c4c5760008555611c92565b82601f10611c6557805160ff1916838001178555611c92565b82800160010185558215611c92579182015b82811115611c92578251825591602001919060010190611c77565b50611c9e929150611cdf565b5090565b508054611cae90611f76565b6000825580601f10611cbe575050565b601f016020900490600052602060002090810190611cdc9190611cdf565b50565b5b80821115611c9e5760008155600101611ce0565b60005b83811015611d0f578181015183820152602001611cf7565b8381111561065f5750506000910152565b60008151808452611d38816020860160208601611cf4565b601f01601f19169290920160200192915050565b6020815260006105736020830184611d20565b600060208284031215611d7157600080fd5b5035919050565b80356001600160a01b0381168114611d8f57600080fd5b919050565b60008060408385031215611da757600080fd5b611db083611d78565b946020939093013593505050565b600080600060608486031215611dd357600080fd5b611ddc84611d78565b9250611dea60208501611d78565b9150604084013590509250925092565b600060208284031215611e0c57600080fd5b61057382611d78565b60008060408385031215611e2857600080fd5b611e3183611d78565b915060208301358015158114611e4657600080fd5b809150509250929050565b634e487b7160e01b600052604160045260246000fd5b60008060008060808587031215611e7d57600080fd5b611e8685611d78565b9350611e9460208601611d78565b925060408501359150606085013567ffffffffffffffff80821115611eb857600080fd5b818701915087601f830112611ecc57600080fd5b813581811115611ede57611ede611e51565b604051601f8201601f19908116603f01168101908382118183101715611f0657611f06611e51565b816040528281528a6020848701011115611f1f57600080fd5b82602086016020830137600060208483010152809550505050505092959194509250565b60008060408385031215611f5657600080fd5b611f5f83611d78565b9150611f6d60208401611d78565b90509250929050565b600181811c90821680611f8a57607f821691505b602082108103611faa57634e487b7160e01b600052602260045260246000fd5b50919050565b60208082526030908201527f4552433732313a207472616e736665722063616c6c6572206973206e6f74206f60408201526f1ddb995c881bdc88185c1c1c9bdd995960821b606082015260800190565b60008351612012818460208801611cf4565b835190830190612026818360208801611cf4565b01949350505050565b634e487b7160e01b600052601160045260246000fd5b6000600182016120575761205761202f565b5060010190565b634e487b7160e01b600052601260045260246000fd5b6000826120835761208361205e565b500490565b60008282101561209a5761209a61202f565b500390565b6000826120ae576120ae61205e565b500690565b600082198211156120c6576120c661202f565b500190565b634e487b7160e01b600052603260045260246000fd5b6001600160a01b038581168252841660208201526040810183905260806060820181905260009061211490830184611d20565b9695505050505050565b60006020828403121561213057600080fd5b81516001600160e01b03198116811461057357600080fd5b634e487b7160e01b600052603160045260246000fd5b60008251612170818460208701611cf4565b919091019291505056fe4552433732313a207472616e7366657220746f206e6f6e20455243373231526563656976657220696d706c656d656e74657268721c0bbf2c02a4d65000340d1370666be06a630022208d4baa9bd7a4b6fea83c7bf052874fa81625121783266a03507bd2cd48b16e571c01a04e8dd3fb07a699574a7094154bb123ae6ae102096f0bf9679b85a5cd1e727aaa0ae5f132e6b1a2646970667358221220af41e76be86f1e081965089c82be5b1e2ff81607e956d2f0ebfbc7bf361c74b364736f6c634300080d0033",
  "linkReferences": {},
  "deployedLinkReferences": {}
}