{
  "_format": "hh-sol-artifact-1",
  "contractName": "ERC721SolidState",
  "sourceName": "contracts/1_ERC721SolidState/ERC721SolidState.sol",
  "abi": [
    {
      "anonymous": false,
      "inputs": [
        {
          "indexed": true,
          "internalType": "address",
          "name": "owner",
          "type": "address"
        },
        {
          "indexed": true,
          "internalType": "address",
          "name": "operator",
          "type": "address"
        },
        {
          "indexed": true,
          "internalType": "uint256",
          "name": "tokenId",
          "type": "uint256"
        }
      ],
      "name": "Approval",
      "type": "event"
    },
    {
      "anonymous": false,
      "inputs": [
        {
          "indexed": true,
          "internalType": "address",
          "name": "owner",
          "type": "address"
        },
        {
          "indexed": true,
          "internalType": "address",
          "name": "operator",
          "type": "address"
        },
        {
          "indexed": false,
          "internalType": "bool",
          "name": "approved",
          "type": "bool"
        }
      ],
      "name": "ApprovalForAll",
      "type": "event"
    },
    {
      "anonymous": false,
      "inputs": [
        {
          "indexed": true,
          "internalType": "address",
          "name": "from",
          "type": "address"
        },
        {
          "indexed": true,
          "internalType": "address",
          "name": "to",
          "type": "address"
        },
        {
          "indexed": true,
          "internalType": "uint256",
          "name": "tokenId",
          "type": "uint256"
        }
      ],
      "name": "Transfer",
      "type": "event"
    },
    {
      "inputs": [
        {
          "internalType": "address",
          "name": "operator",
          "type": "address"
        },
        {
          "internalType": "uint256",
          "name": "tokenId",
          "type": "uint256"
        }
      ],
      "name": "approve",
      "outputs": [],
      "stateMutability": "payable",
      "type": "function"
    },
    {
      "inputs": [
        {
          "internalType": "address",
          "name": "account",
          "type": "address"
        }
      ],
      "name": "balanceOf",
      "outputs": [
        {
          "internalType": "uint256",
          "name": "",
          "type": "uint256"
        }
      ],
      "stateMutability": "view",
      "type": "function"
    },
    {
      "inputs": [
        {
          "internalType": "uint256",
          "name": "tokenId",
          "type": "uint256"
        }
      ],
      "name": "getApproved",
      "outputs": [
        {
          "internalType": "address",
          "name": "",
          "type": "address"
        }
      ],
      "stateMutability": "view",
      "type": "function"
    },
    {
      "inputs": [],
      "name": "init",
      "outputs": [],
      "stateMutability": "nonpayable",
      "type": "function"
    },
    {
      "inputs": [
        {
          "internalType": "address",
          "name": "account",
          "type": "address"
        },
        {
          "internalType": "address",
          "name": "operator",
          "type": "address"
        }
      ],
      "name": "isApprovedForAll",
      "outputs": [
        {
          "internalType": "bool",
          "name": "",
          "type": "bool"
        }
      ],
      "stateMutability": "view",
      "type": "function"
    },
    {
      "inputs": [],
      "name": "name",
      "outputs": [
        {
          "internalType": "string",
          "name": "",
          "type": "string"
        }
      ],
      "stateMutability": "view",
      "type": "function"
    },
    {
      "inputs": [
        {
          "internalType": "uint256",
          "name": "tokenId",
          "type": "uint256"
        }
      ],
      "name": "ownerOf",
      "outputs": [
        {
          "internalType": "address",
          "name": "",
          "type": "address"
        }
      ],
      "stateMutability": "view",
      "type": "function"
    },
    {
      "inputs": [
        {
          "internalType": "address",
          "name": "from",
          "type": "address"
        },
        {
          "internalType": "address",
          "name": "to",
          "type": "address"
        },
        {
          "internalType": "uint256",
          "name": "tokenId",
          "type": "uint256"
        }
      ],
      "name": "safeTransferFrom",
      "outputs": [],
      "stateMutability": "payable",
      "type": "function"
    },
    {
      "inputs": [
        {
          "internalType": "address",
          "name": "from",
          "type": "address"
        },
        {
          "internalType": "address",
          "name": "to",
          "type": "address"
        },
        {
          "internalType": "uint256",
          "name": "tokenId",
          "type": "uint256"
        },
        {
          "internalType": "bytes",
          "name": "data",
          "type": "bytes"
        }
      ],
      "name": "safeTransferFrom",
      "outputs": [],
      "stateMutability": "payable",
      "type": "function"
    },
    {
      "inputs": [
        {
          "internalType": "address",
          "name": "operator",
          "type": "address"
        },
        {
          "internalType": "bool",
          "name": "status",
          "type": "bool"
        }
      ],
      "name": "setApprovalForAll",
      "outputs": [],
      "stateMutability": "nonpayable",
      "type": "function"
    },
    {
      "inputs": [],
      "name": "symbol",
      "outputs": [
        {
          "internalType": "string",
          "name": "",
          "type": "string"
        }
      ],
      "stateMutability": "view",
      "type": "function"
    },
    {
      "inputs": [
        {
          "internalType": "uint256",
          "name": "index",
          "type": "uint256"
        }
      ],
      "name": "tokenByIndex",
      "outputs": [
        {
          "internalType": "uint256",
          "name": "",
          "type": "uint256"
        }
      ],
      "stateMutability": "view",
      "type": "function"
    },
    {
      "inputs": [
        {
          "internalType": "address",
          "name": "owner",
          "type": "address"
        },
        {
          "internalType": "uint256",
          "name": "index",
          "type": "uint256"
        }
      ],
      "name": "tokenOfOwnerByIndex",
      "outputs": [
        {
          "internalType": "uint256",
          "name": "",
          "type": "uint256"
        }
      ],
      "stateMutability": "view",
      "type": "function"
    },
    {
      "inputs": [
        {
          "internalType": "uint256",
          "name": "tokenId",
          "type": "uint256"
        }
      ],
      "name": "tokenURI",
      "outputs": [
        {
          "internalType": "string",
          "name": "",
          "type": "string"
        }
      ],
      "stateMutability": "view",
      "type": "function"
    },
    {
      "inputs": [],
      "name": "totalSupply",
      "outputs": [
        {
          "internalType": "uint256",
          "name": "",
          "type": "uint256"
        }
      ],
      "stateMutability": "view",
      "type": "function"
    },
    {
      "inputs": [
        {
          "internalType": "address",
          "name": "from",
          "type": "address"
        },
        {
          "internalType": "address",
          "name": "to",
          "type": "address"
        },
        {
          "internalType": "uint256",
          "name": "tokenId",
          "type": "uint256"
        }
      ],
      "name": "transferFrom",
      "outputs": [],
      "stateMutability": "payable",
      "type": "function"
    }
  ],
  "bytecode": "0x608060405234801561001057600080fd5b50611e62806100206000396000f3fe6080604052600436106100f35760003560e01c80636352211e1161008a578063b88d4fde11610059578063b88d4fde1461026e578063c87b56dd14610281578063e1c7392a146102a1578063e985e9c5146102b657600080fd5b80636352211e146101f957806370a082311461021957806395d89b4114610239578063a22cb4651461024e57600080fd5b806323b872dd116100c657806323b872dd146101935780632f745c59146101a657806342842e0e146101c65780634f6ccce7146101d957600080fd5b806306fdde03146100f8578063081812fc14610123578063095ea7b31461015b57806318160ddd14610170575b600080fd5b34801561010457600080fd5b5061010d6102e6565b60405161011a919061198c565b60405180910390f35b34801561012f57600080fd5b5061014361013e36600461199f565b610385565b6040516001600160a01b03909116815260200161011a565b61016e6101693660046119d4565b610396565b005b34801561017c57600080fd5b506101856104bb565b60405190815260200161011a565b61016e6101a13660046119fe565b6104ca565b3480156101b257600080fd5b506101856101c13660046119d4565b610507565b61016e6101d43660046119fe565b61051a565b3480156101e557600080fd5b506101856101f436600461199f565b610535565b34801561020557600080fd5b5061014361021436600461199f565b610540565b34801561022557600080fd5b50610185610234366004611a3a565b61054b565b34801561024557600080fd5b5061010d610556565b34801561025a57600080fd5b5061016e610269366004611a55565b610575565b61016e61027c366004611aa7565b610584565b34801561028d57600080fd5b5061010d61029c36600461199f565b6105c8565b3480156102ad57600080fd5b5061016e610802565b3480156102c257600080fd5b506102d66102d1366004611b83565b6108e6565b604051901515815260200161011a565b6060600080516020611e0d833981519152805461030290611bb6565b80601f016020809104026020016040519081016040528092919081815260200182805461032e90611bb6565b801561037b5780601f106103505761010080835404028352916020019161037b565b820191906000526020600020905b81548152906001019060200180831161035e57829003601f168201915b5050505050905090565b6000610390826108f2565b92915050565b6103a182823461098b565b60006103ac82610540565b9050806001600160a01b0316836001600160a01b03160361041e5760405162461bcd60e51b815260206004820152602160248201527f4552433732313a20617070726f76616c20746f2063757272656e74206f776e656044820152603960f91b60648201526084015b60405180910390fd5b336001600160a01b038216148061043a575061043a81336108e6565b6104ac5760405162461bcd60e51b815260206004820152603860248201527f4552433732313a20617070726f76652063616c6c6572206973206e6f74206f7760448201527f6e6572206e6f7220617070726f76656420666f7220616c6c00000000000000006064820152608401610415565b6104b683836109ed565b505050565b60006104c5610a7a565b905090565b6104d683838334610a93565b6104e03382610afb565b6104fc5760405162461bcd60e51b815260040161041590611bf0565b6104b6838383610bcb565b60006105138383610d88565b9392505050565b6104b683838360405180602001604052806000815250610584565b600061039082610da3565b600061039082610dbd565b600061039082610e28565b6060600080516020611e0d833981519152600101805461030290611bb6565b610580338383610ed3565b5050565b61059084848434610a93565b61059a3383610afb565b6105b65760405162461bcd60e51b815260040161041590611bf0565b6105c284848484610fc1565b50505050565b60606105e482600080516020611ded8339815191525b9061103f565b6106485760405162461bcd60e51b815260206004820152602f60248201527f4552433732314d657461646174613a2055524920717565727920666f72206e6f60448201526e3732bc34b9ba32b73a103a37b5b2b760891b6064820152608401610415565b60008281527f99574a7094154bb123ae6ae102096f0bf9679b85a5cd1e727aaa0ae5f132e6b4602052604081208054600080516020611e0d83398151915292919061069290611bb6565b80601f01602080910402602001604051908101604052809291908181526020018280546106be90611bb6565b801561070b5780601f106106e05761010080835404028352916020019161070b565b820191906000526020600020905b8154815290600101906020018083116106ee57829003601f168201915b50505050509050600082600201805461072390611bb6565b80601f016020809104026020016040519081016040528092919081815260200182805461074f90611bb6565b801561079c5780601f106107715761010080835404028352916020019161079c565b820191906000526020600020905b81548152906001019060200180831161077f57829003601f168201915b5050505050905080516000036107b457509392505050565b8151156107e75780826040516020016107ce929190611c40565b6040516020818303038152906040529350505050919050565b806107f18661104b565b6040516020016107ce929190611c40565b610835604051806040016040528060128152602001714f6e436861696e2d4368617261637465727360701b81525061114c565b61085a6040518060400160405280600481526020016331b430b960e11b81525061116b565b7fc8fcad8db84d3cc18b4c41d551ea0ee66dd599cde068d998e57d5e09332c131f6020527fb0f299ecb5b93181be17d5e233721498930c5361f367b1d41c5b827d4fe4d3808054600160ff19918216811790925563780e9d6360e01b6000527fc564b00dd622489e8872cfaa1fdbe51ee7adef071bfa99bc1effdc20162fa70a80549091169091179055565b6000610513838361119d565b6000600080516020611ded83398151915261090d818461103f565b61096e5760405162461bcd60e51b815260206004820152602c60248201527f4552433732313a20617070726f76656420717565727920666f72206e6f6e657860448201526b34b9ba32b73a103a37b5b2b760a11b6064820152608401610415565b60009283526003016020525060409020546001600160a01b031690565b80156104b65760405162461bcd60e51b815260206004820152602b60248201527f4552433732313a2070617961626c6520617070726f76652063616c6c73206e6f60448201526a1d081cdd5c1c1bdc9d195960aa1b6064820152608401610415565b60008181527f3c7bf052874fa81625121783266a03507bd2cd48b16e571c01a04e8dd3fb07a96020526040902080546001600160a01b0319166001600160a01b0384169081179091558190610a4182610dbd565b6001600160a01b03167f8c5be1e5ebec7d5bd14f71427d1e84f3dd0314c0f7b2291e5b200ac8c7c3b92560405160405180910390a45050565b60006104c5600080516020611ded8339815191526111ea565b8015610af65760405162461bcd60e51b815260206004820152602c60248201527f4552433732313a2070617961626c65207472616e736665722063616c6c73206e60448201526b1bdd081cdd5c1c1bdc9d195960a21b6064820152608401610415565b6105c2565b6000610b1582600080516020611ded8339815191526105de565b610b6d5760405162461bcd60e51b815260206004820152602360248201527f4552433732313a20717565727920666f72206e6f6e6578697374656e7420746f60448201526235b2b760e91b6064820152608401610415565b6000610b7883610dbd565b9050806001600160a01b0316846001600160a01b03161480610bb35750836001600160a01b0316610ba8846108f2565b6001600160a01b0316145b80610bc35750610bc3818561119d565b949350505050565b826001600160a01b0316610bde82610dbd565b6001600160a01b031614610c465760405162461bcd60e51b815260206004820152602960248201527f4552433732313a207472616e73666572206f6620746f6b656e2074686174206960448201526839903737ba1037bbb760b91b6064820152608401610415565b6001600160a01b038216610ca85760405162461bcd60e51b8152602060048201526024808201527f4552433732313a207472616e7366657220746f20746865207a65726f206164646044820152637265737360e01b6064820152608401610415565b610cb38383836111f5565b610cbe6000826109ed565b6001600160a01b03831660009081527f3c7bf052874fa81625121783266a03507bd2cd48b16e571c01a04e8dd3fb07a860205260409020600080516020611ded83398151915290610d0f9083611200565b506001600160a01b03831660009081526002820160205260409020610d34908361120c565b50610d40818385611218565b5081836001600160a01b0316856001600160a01b03167fddf252ad1be2c89b69c2b068fc378daa952ba7f163c4a11628f55a4df523b3ef60405160405180910390a450505050565b6000610513600080516020611ded833981519152848461122e565b6000610390600080516020611ded83398151915283611252565b600080610dd8600080516020611ded83398151915284611268565b90506001600160a01b0381166103905760405162461bcd60e51b815260206004820152601560248201527422a9219b99189d1034b73b30b634b21037bbb732b960591b6044820152606401610415565b60006001600160a01b038216610e935760405162461bcd60e51b815260206004820152602a60248201527f4552433732313a2062616c616e636520717565727920666f7220746865207a65604482015269726f206164647265737360b01b6064820152608401610415565b6001600160a01b03821660009081527f3c7bf052874fa81625121783266a03507bd2cd48b16e571c01a04e8dd3fb07a86020526040902061039090611274565b826001600160a01b0316826001600160a01b031603610f345760405162461bcd60e51b815260206004820152601960248201527f4552433732313a20617070726f766520746f2063616c6c6572000000000000006044820152606401610415565b6001600160a01b0383811660008181527f3c7bf052874fa81625121783266a03507bd2cd48b16e571c01a04e8dd3fb07aa6020908152604080832094871680845294825291829020805460ff1916861515908117909155825190815291517f17307eab39ab6107e8899845ad3d59bd9653f200f220920489ca2b5937696c319281900390910190a3505050565b610fcc848484610bcb565b610fd88484848461127e565b6105c25760405162461bcd60e51b815260206004820152603260248201527f4552433732313a207472616e7366657220746f206e6f6e20455243373231526560448201527131b2b4bb32b91034b6b83632b6b2b73a32b960711b6064820152608401610415565b6000610513838361134f565b6060816000036110725750506040805180820190915260018152600360fc1b602082015290565b8160005b811561109c578061108681611c85565b91506110959050600a83611cb4565b9150611076565b60008167ffffffffffffffff8111156110b7576110b7611a91565b6040519080825280601f01601f1916602001820160405280156110e1576020820181803683370190505b5090505b8415610bc3576110f6600183611cc8565b9150611103600a86611cdf565b61110e906030611cf3565b60f81b81838151811061112357611123611d0b565b60200101906001600160f81b031916908160001a905350611145600a86611cb4565b94506110e5565b80600080516020611e0d8339815191528151610580926020019061185e565b8051610580907f99574a7094154bb123ae6ae102096f0bf9679b85a5cd1e727aaa0ae5f132e6b290602084019061185e565b6001600160a01b0391821660009081527f3c7bf052874fa81625121783266a03507bd2cd48b16e571c01a04e8dd3fb07aa6020908152604080832093909416825291909152205460ff1690565b600061039082611274565b6104b6838383611367565b60006105138383611372565b6000610513838361143f565b6000610bc384846001600160a01b03851661148e565b6001600160a01b03821660009081526002840160205260408120610bc3908361152d565b60008061125f8484611539565b50949350505050565b60006105138383611555565b6000610390825490565b60006001600160a01b0384163b61129757506001610bc3565b600061131863150b7a0260e01b338887876040516024016112bb9493929190611d21565b604051602081830303815290604052906001600160e01b0319166020820180516001600160e01b038381831617835250505050604051806060016040528060328152602001611dbb603291396001600160a01b03881691906115e8565b90506000818060200190518101906113309190611d5e565b6001600160e01b031916630a85bd0160e11b1492505050949350505050565b60008181526001830160205260408120541515610513565b6104b68383836115f7565b60008181526001830160205260408120548015611435578354600090859060001981019081106113a4576113a4611d0b565b90600052602060002001549050808560000160018403815481106113ca576113ca611d0b565b60009182526020808320909101929092559182526001860190526040902081905583548490806113fc576113fc611d88565b60019003818190600052602060002001600090559055836001016000848152602001908152602001600020600090556001915050610390565b6000915050610390565b600081815260018301602052604081205461148657508154600181810184556000848152602080822090930184905584548482528286019093526040902091909155610390565b506000610390565b60008281526001840160205260408120548082036114f5575050604080518082018252838152602080820184815286546001818101895560008981528481209551600290930290950191825591519082015586548684528188019092529290912055610513565b8285600001600183038154811061150e5761150e611d0b565b9060005260206000209060020201600101819055506000915050610513565b6000610513838361163b565b600080808061154886866116c1565b9097909650945050505050565b60008181526001830160205260408120548082036115b55760405162461bcd60e51b815260206004820152601e60248201527f456e756d657261626c654d61703a206e6f6e6578697374656e74206b657900006044820152606401610415565b8360000160018203815481106115cd576115cd611d0b565b90600052602060002090600202016001015491505092915050565b6060610bc3848460008561175e565b6001600160a01b0382166104b65760008181527f99574a7094154bb123ae6ae102096f0bf9679b85a5cd1e727aaa0ae5f132e6b4602052604081206104b6916118e2565b815460009082106116995760405162461bcd60e51b815260206004820152602260248201527f456e756d657261626c655365743a20696e646578206f7574206f6620626f756e604482015261647360f01b6064820152608401610415565b8260000182815481106116ae576116ae611d0b565b9060005260206000200154905092915050565b8154600090819083106117215760405162461bcd60e51b815260206004820152602260248201527f456e756d657261626c654d61703a20696e646578206f7574206f6620626f756e604482015261647360f01b6064820152608401610415565b600084600001848154811061173857611738611d0b565b906000526020600020906002020190508060000154816001015492509250509250929050565b6060843b6117c25760405162461bcd60e51b815260206004820152602b60248201527f416464726573735574696c733a2066756e6374696f6e2063616c6c20746f206e60448201526a1bdb8b58dbdb9d1c9858dd60aa1b6064820152608401610415565b600080866001600160a01b031685876040516117de9190611d9e565b60006040518083038185875af1925050503d806000811461181b576040519150601f19603f3d011682016040523d82523d6000602084013e611820565b606091505b50915091508115611834579150610bc39050565b8051156118445780518082602001fd5b8360405162461bcd60e51b8152600401610415919061198c565b82805461186a90611bb6565b90600052602060002090601f01602090048101928261188c57600085556118d2565b82601f106118a557805160ff19168380011785556118d2565b828001600101855582156118d2579182015b828111156118d25782518255916020019190600101906118b7565b506118de92915061191f565b5090565b5080546118ee90611bb6565b6000825580601f106118fe575050565b601f01602090049060005260206000209081019061191c919061191f565b50565b5b808211156118de5760008155600101611920565b60005b8381101561194f578181015183820152602001611937565b838111156105c25750506000910152565b60008151808452611978816020860160208601611934565b601f01601f19169290920160200192915050565b6020815260006105136020830184611960565b6000602082840312156119b157600080fd5b5035919050565b80356001600160a01b03811681146119cf57600080fd5b919050565b600080604083850312156119e757600080fd5b6119f0836119b8565b946020939093013593505050565b600080600060608486031215611a1357600080fd5b611a1c846119b8565b9250611a2a602085016119b8565b9150604084013590509250925092565b600060208284031215611a4c57600080fd5b610513826119b8565b60008060408385031215611a6857600080fd5b611a71836119b8565b915060208301358015158114611a8657600080fd5b809150509250929050565b634e487b7160e01b600052604160045260246000fd5b60008060008060808587031215611abd57600080fd5b611ac6856119b8565b9350611ad4602086016119b8565b925060408501359150606085013567ffffffffffffffff80821115611af857600080fd5b818701915087601f830112611b0c57600080fd5b813581811115611b1e57611b1e611a91565b604051601f8201601f19908116603f01168101908382118183101715611b4657611b46611a91565b816040528281528a6020848701011115611b5f57600080fd5b82602086016020830137600060208483010152809550505050505092959194509250565b60008060408385031215611b9657600080fd5b611b9f836119b8565b9150611bad602084016119b8565b90509250929050565b600181811c90821680611bca57607f821691505b602082108103611bea57634e487b7160e01b600052602260045260246000fd5b50919050565b60208082526030908201527f4552433732313a207472616e736665722063616c6c6572206973206e6f74206f60408201526f1ddb995c881bdc88185c1c1c9bdd995960821b606082015260800190565b60008351611c52818460208801611934565b835190830190611c66818360208801611934565b01949350505050565b634e487b7160e01b600052601160045260246000fd5b600060018201611c9757611c97611c6f565b5060010190565b634e487b7160e01b600052601260045260246000fd5b600082611cc357611cc3611c9e565b500490565b600082821015611cda57611cda611c6f565b500390565b600082611cee57611cee611c9e565b500690565b60008219821115611d0657611d06611c6f565b500190565b634e487b7160e01b600052603260045260246000fd5b6001600160a01b0385811682528416602082015260408101839052608060608201819052600090611d5490830184611960565b9695505050505050565b600060208284031215611d7057600080fd5b81516001600160e01b03198116811461051357600080fd5b634e487b7160e01b600052603160045260246000fd5b60008251611db0818460208701611934565b919091019291505056fe4552433732313a207472616e7366657220746f206e6f6e20455243373231526563656976657220696d706c656d656e7465723c7bf052874fa81625121783266a03507bd2cd48b16e571c01a04e8dd3fb07a699574a7094154bb123ae6ae102096f0bf9679b85a5cd1e727aaa0ae5f132e6b1a264697066735822122042dab10e4df12870c3437905694093d4739929c9d7785d3635d34faaa06f9b1e64736f6c634300080d0033",
  "linkReferences": {},
  "deployedLinkReferences": {}
}