{
  "contracts/Factory.sol": {
    "Factory": {
      "abi": [
        {
          "anonymous": false,
          "inputs": [
            {
              "indexed": false,
              "internalType": "string",
              "name": "creatorName",
              "type": "string"
            },
            {
              "indexed": false,
              "internalType": "string",
              "name": "tokenName",
              "type": "string"
            },
            {
              "indexed": false,
              "internalType": "string",
              "name": "tokenSymbol",
              "type": "string"
            },
            {
              "indexed": false,
              "internalType": "address",
              "name": "creatorAddress",
              "type": "address"
            },
            {
              "indexed": false,
              "internalType": "address",
              "name": "contractAddress",
              "type": "address"
            },
            {
              "indexed": false,
              "internalType": "uint96",
              "name": "defaultRoyalty",
              "type": "uint96"
            }
          ],
          "name": "NewGallery",
          "type": "event"
        },
        {
          "inputs": [],
          "name": "galleryCont",
          "outputs": [
            {
              "internalType": "contract Gallery",
              "name": "",
              "type": "address"
            }
          ],
          "stateMutability": "view",
          "type": "function"
        },
        {
          "inputs": [
            {
              "internalType": "string",
              "name": "creatorName",
              "type": "string"
            },
            {
              "internalType": "string",
              "name": "tokenName",
              "type": "string"
            },
            {
              "internalType": "string",
              "name": "tokenSymbol",
              "type": "string"
            },
            {
              "internalType": "uint96",
              "name": "royaltyNumerator",
              "type": "uint96"
            },
            {
              "internalType": "address",
              "name": "royaltyReciever",
              "type": "address"
            }
          ],
          "name": "newGallery",
          "outputs": [],
          "stateMutability": "nonpayable",
          "type": "function"
        }
      ],
      "evm": {
        "bytecode": {
          "linkReferences": {},
          "object": "60806040526040516100109061005f565b604051809103906000f08015801561002c573d6000803e3d6000fd5b50600080546001600160a01b0319166001600160a01b039290921691909117905534801561005957600080fd5b5061006c565b6124428061052e83390190565b6104b38061007b6000396000f3fe608060405234801561001057600080fd5b50600436106100365760003560e01c8063adfef20b1461003b578063b5ea661e14610050575b600080fd5b61004e61004936600461028d565b61007f565b005b600054610063906001600160a01b031681565b6040516001600160a01b03909116815260200160405180910390f35b60008054610095906001600160a01b0316610149565b60405163d670226d60e01b81529091506001600160a01b0382169063d670226d906100ce9089908990899033908a908a906004016103a2565b600060405180830381600087803b1580156100e857600080fd5b505af11580156100fc573d6000803e3d6000fd5b505050507fc2dc28ddc714fd3a445fcf941bbde257aec97db0cb2a44500ee83869083591a986868633858860405161013996959493929190610410565b60405180910390a1505050505050565b6000604051733d602d80600a3d3981f3363d3d373d3d3d363d7360601b81528260601b60148201526e5af43d82803e903d91602b57fd5bf360881b60288201526037816000f09150506001600160a01b0381166101e55760405162461bcd60e51b8152602060048201526016602482015275115490cc4c4d8dce8818dc99585d194819985a5b195960521b604482015260640160405180910390fd5b919050565b634e487b7160e01b600052604160045260246000fd5b600082601f83011261021157600080fd5b813567ffffffffffffffff8082111561022c5761022c6101ea565b604051601f8301601f19908116603f01168101908282118183101715610254576102546101ea565b8160405283815286602085880101111561026d57600080fd5b836020870160208301376000602085830101528094505050505092915050565b600080600080600060a086880312156102a557600080fd5b853567ffffffffffffffff808211156102bd57600080fd5b6102c989838a01610200565b965060208801359150808211156102df57600080fd5b6102eb89838a01610200565b9550604088013591508082111561030157600080fd5b5061030e88828901610200565b93505060608601356001600160601b038116811461032b57600080fd5b915060808601356001600160a01b038116811461034757600080fd5b809150509295509295909350565b6000815180845260005b8181101561037b5760208185018101518683018201520161035f565b8181111561038d576000602083870101525b50601f01601f19169290920160200192915050565b60c0815260006103b560c0830189610355565b82810360208401526103c78189610355565b905082810360408401526103db8188610355565b6001600160a01b0396871660608501526001600160601b039590951660808401525050921660a0909201919091529392505050565b60c08152600061042360c0830189610355565b82810360208401526104358189610355565b905082810360408401526104498188610355565b6001600160a01b039687166060850152949095166080830152506001600160601b039190911660a09091015294935050505056fea26469706673582212205a431d403a8d5ea9d22591663b4fc14d420b0b2b9e07a7146f8aae8324df7a9e64736f6c634300080d0033608060405234801561001057600080fd5b50612422806100206000396000f3fe608060405234801561001057600080fd5b50600436106101735760003560e01c806370a08231116100de578063aa1b103f11610097578063d204c45e11610071578063d204c45e14610338578063d670226d1461034b578063e985e9c51461035e578063f2fde38b1461039a57600080fd5b8063aa1b103f1461030a578063b88d4fde14610312578063c87b56dd1461032557600080fd5b806370a08231146102a1578063715018a6146102c25780638a616bc0146102ca5780638da5cb5b146102dd57806395d89b41146102ef578063a22cb465146102f757600080fd5b806323b872dd1161013057806323b872dd146102105780632a55205a1461022357806342842e0e1461025557806342966c681461026857806360eb94851461027b5780636352211e1461028e57600080fd5b806301ffc9a71461017857806302d05d3f146101a057806306ce61f8146101b557806306fdde03146101ca578063081812fc146101d2578063095ea7b3146101fd575b600080fd5b61018b610186366004611bf2565b6103ad565b60405190151581526020015b60405180910390f35b6101a86103be565b6040516101979190611c67565b6101c86101c3366004611d54565b61044d565b005b6101a86104d0565b6101e56101e0366004611dc3565b610562565b6040516001600160a01b039091168152602001610197565b6101c861020b366004611ddc565b6105ea565b6101c861021e366004611e06565b6106ff565b610236610231366004611e42565b610731565b604080516001600160a01b039093168352602083019190915201610197565b6101c8610263366004611e06565b6107dd565b6101c8610276366004611dc3565b6107f8565b6101c8610289366004611e64565b610872565b6101e561029c366004611dc3565b6108b5565b6102b46102af366004611e99565b61092c565b604051908152602001610197565b6101c86109b3565b6101c86102d8366004611dc3565b6109ea565b61015f546001600160a01b03166101e5565b6101a8610a26565b6101c8610305366004611eb4565b610a35565b6101c8610a40565b6101c8610320366004611ef0565b610a75565b6101a8610333366004611dc3565b610aa7565b6101c8610346366004611f6c565b610ab2565b6101c8610359366004611fba565b610b0e565b61018b61036c366004612073565b6001600160a01b039182166000908152609c6020908152604080832093909416825291909152205460ff1690565b6101c86103a8366004611e99565b610bf8565b60006103b882610c91565b92915050565b61019280546103cc906120a6565b80601f01602080910402602001604051908101604052809291908181526020018280546103f8906120a6565b80156104455780601f1061041a57610100808354040283529160200191610445565b820191906000526020600020905b81548152906001019060200180831161042857829003601f168201915b505050505081565b61015f546001600160a01b031633146104815760405162461bcd60e51b8152600401610478906120e0565b60405180910390fd5b61048b8484610ab2565b6001600160601b038216156104ca576001600160a01b0381166104c05760405162461bcd60e51b815260040161047890612115565b6104ca8183610c9c565b50505050565b6060609780546104df906120a6565b80601f016020809104026020016040519081016040528092919081815260200182805461050b906120a6565b80156105585780601f1061052d57610100808354040283529160200191610558565b820191906000526020600020905b81548152906001019060200180831161053b57829003601f168201915b5050505050905090565b600061056d82610d99565b6105ce5760405162461bcd60e51b815260206004820152602c60248201527f4552433732313a20617070726f76656420717565727920666f72206e6f6e657860448201526b34b9ba32b73a103a37b5b2b760a11b6064820152608401610478565b506000908152609b60205260409020546001600160a01b031690565b60006105f5826108b5565b9050806001600160a01b0316836001600160a01b0316036106625760405162461bcd60e51b815260206004820152602160248201527f4552433732313a20617070726f76616c20746f2063757272656e74206f776e656044820152603960f91b6064820152608401610478565b336001600160a01b038216148061067e575061067e813361036c565b6106f05760405162461bcd60e51b815260206004820152603860248201527f4552433732313a20617070726f76652063616c6c6572206973206e6f74206f7760448201527f6e6572206e6f7220617070726f76656420666f7220616c6c00000000000000006064820152608401610478565b6106fa8383610db6565b505050565b61070a335b82610e24565b6107265760405162461bcd60e51b815260040161047890612156565b6106fa838383610f0e565b60008281526066602090815260408083208151808301909252546001600160a01b038116808352600160a01b9091046001600160601b03169282019290925282916107a65750604080518082019091526065546001600160a01b0381168252600160a01b90046001600160601b031660208201525b6020810151600090612710906107c5906001600160601b0316876121bd565b6107cf91906121f2565b915196919550909350505050565b6106fa83838360405180602001604052806000815250610a75565b61080133610704565b6108665760405162461bcd60e51b815260206004820152603060248201527f4552433732314275726e61626c653a2063616c6c6572206973206e6f74206f7760448201526f1b995c881b9bdc88185c1c1c9bdd995960821b6064820152608401610478565b61086f816110aa565b50565b61015f546001600160a01b0316331461089d5760405162461bcd60e51b8152600401610478906120e0565b80516108b190610192906020840190611b0d565b5050565b6000818152609960205260408120546001600160a01b0316806103b85760405162461bcd60e51b815260206004820152602960248201527f4552433732313a206f776e657220717565727920666f72206e6f6e657869737460448201526832b73a103a37b5b2b760b91b6064820152608401610478565b60006001600160a01b0382166109975760405162461bcd60e51b815260206004820152602a60248201527f4552433732313a2062616c616e636520717565727920666f7220746865207a65604482015269726f206164647265737360b01b6064820152608401610478565b506001600160a01b03166000908152609a602052604090205490565b61015f546001600160a01b031633146109de5760405162461bcd60e51b8152600401610478906120e0565b6109e860006110b3565b565b61015f546001600160a01b03163314610a155760405162461bcd60e51b8152600401610478906120e0565b600090815260666020526040812055565b6060609880546104df906120a6565b6108b1338383611106565b61015f546001600160a01b03163314610a6b5760405162461bcd60e51b8152600401610478906120e0565b6109e86000606555565b610a7f3383610e24565b610a9b5760405162461bcd60e51b815260040161047890612156565b6104ca848484846111d4565b60606103b882611207565b61015f546001600160a01b03163314610add5760405162461bcd60e51b8152600401610478906120e0565b6000610ae96101915490565b9050610afa61019180546001019055565b610b048382611375565b6106fa818361138f565b6000610b1a600161141a565b90508015610b32576000805461ff0019166101001790555b8651610b46906101929060208a0190611b0d565b50610b5186866114a7565b610b596114d8565b610b616114d8565b610b6a846114ff565b6001600160601b03831615610ba9576001600160a01b038216610b9f5760405162461bcd60e51b815260040161047890612115565b610ba98284610c9c565b8015610bef576000805461ff0019169055604051600181527f7f26b83ff96e1f2b6a682f133852f6798a09c465da95921460cefb38474024989060200160405180910390a15b50505050505050565b61015f546001600160a01b03163314610c235760405162461bcd60e51b8152600401610478906120e0565b6001600160a01b038116610c885760405162461bcd60e51b815260206004820152602660248201527f4f776e61626c653a206e6577206f776e657220697320746865207a65726f206160448201526564647265737360d01b6064820152608401610478565b61086f816110b3565b60006103b882611526565b6127106001600160601b0382161115610d0a5760405162461bcd60e51b815260206004820152602a60248201527f455243323938313a20726f79616c7479206665652077696c6c206578636565646044820152692073616c65507269636560b01b6064820152608401610478565b6001600160a01b038216610d605760405162461bcd60e51b815260206004820152601960248201527f455243323938313a20696e76616c6964207265636569766572000000000000006044820152606401610478565b604080518082019091526001600160a01b039092168083526001600160601b039091166020909201829052600160a01b90910217606555565b6000908152609960205260409020546001600160a01b0316151590565b6000818152609b6020526040902080546001600160a01b0319166001600160a01b0384169081179091558190610deb826108b5565b6001600160a01b03167f8c5be1e5ebec7d5bd14f71427d1e84f3dd0314c0f7b2291e5b200ac8c7c3b92560405160405180910390a45050565b6000610e2f82610d99565b610e905760405162461bcd60e51b815260206004820152602c60248201527f4552433732313a206f70657261746f7220717565727920666f72206e6f6e657860448201526b34b9ba32b73a103a37b5b2b760a11b6064820152608401610478565b6000610e9b836108b5565b9050806001600160a01b0316846001600160a01b03161480610ee257506001600160a01b038082166000908152609c602090815260408083209388168352929052205460ff165b80610f065750836001600160a01b0316610efb84610562565b6001600160a01b0316145b949350505050565b826001600160a01b0316610f21826108b5565b6001600160a01b031614610f855760405162461bcd60e51b815260206004820152602560248201527f4552433732313a207472616e736665722066726f6d20696e636f72726563742060448201526437bbb732b960d91b6064820152608401610478565b6001600160a01b038216610fe75760405162461bcd60e51b8152602060048201526024808201527f4552433732313a207472616e7366657220746f20746865207a65726f206164646044820152637265737360e01b6064820152608401610478565b610ff2600082610db6565b6001600160a01b0383166000908152609a6020526040812080546001929061101b908490612206565b90915550506001600160a01b0382166000908152609a6020526040812080546001929061104990849061221d565b909155505060008181526099602052604080822080546001600160a01b0319166001600160a01b0386811691821790925591518493918716917fddf252ad1be2c89b69c2b068fc378daa952ba7f163c4a11628f55a4df523b3ef91a4505050565b61086f81611566565b61015f80546001600160a01b038381166001600160a01b0319831681179093556040519116919082907f8be0079c531659141344cd1fd0a4f28419497f9722a3daafe3b4186f6b6457e090600090a35050565b816001600160a01b0316836001600160a01b0316036111675760405162461bcd60e51b815260206004820152601960248201527f4552433732313a20617070726f766520746f2063616c6c6572000000000000006044820152606401610478565b6001600160a01b038381166000818152609c6020908152604080832094871680845294825291829020805460ff191686151590811790915591519182527f17307eab39ab6107e8899845ad3d59bd9653f200f220920489ca2b5937696c31910160405180910390a3505050565b6111df848484610f0e565b6111eb8484848461156f565b6104ca5760405162461bcd60e51b815260040161047890612235565b606061121282610d99565b6112785760405162461bcd60e51b815260206004820152603160248201527f45524337323155524953746f726167653a2055524920717565727920666f72206044820152703737b732bc34b9ba32b73a103a37b5b2b760791b6064820152608401610478565b600082815260c9602052604081208054611291906120a6565b80601f01602080910402602001604051908101604052809291908181526020018280546112bd906120a6565b801561130a5780601f106112df5761010080835404028352916020019161130a565b820191906000526020600020905b8154815290600101906020018083116112ed57829003601f168201915b50505050509050600061132860408051602081019091526000815290565b9050805160000361133a575092915050565b81511561136c578082604051602001611354929190612287565b60405160208183030381529060405292505050919050565b610f0684611670565b6108b1828260405180602001604052806000815250611748565b61139882610d99565b6113fb5760405162461bcd60e51b815260206004820152602e60248201527f45524337323155524953746f726167653a2055524920736574206f66206e6f6e60448201526d32bc34b9ba32b73a103a37b5b2b760911b6064820152608401610478565b600082815260c96020908152604090912082516106fa92840190611b0d565b60008054610100900460ff1615611461578160ff16600114801561143d5750303b155b6114595760405162461bcd60e51b8152600401610478906122b6565b506000919050565b60005460ff8084169116106114885760405162461bcd60e51b8152600401610478906122b6565b506000805460ff191660ff92909216919091179055600190565b919050565b600054610100900460ff166114ce5760405162461bcd60e51b815260040161047890612304565b6108b1828261177b565b600054610100900460ff166109e85760405162461bcd60e51b815260040161047890612304565b600054610100900460ff16610c885760405162461bcd60e51b815260040161047890612304565b60006001600160e01b031982166380ac58cd60e01b148061155757506001600160e01b03198216635b5e139f60e01b145b806103b857506103b8826117c9565b610a15816117fe565b60006001600160a01b0384163b1561166557604051630a85bd0160e11b81526001600160a01b0385169063150b7a02906115b390339089908890889060040161234f565b6020604051808303816000875af19250505080156115ee575060408051601f3d908101601f191682019092526115eb9181019061238c565b60015b61164b573d80801561161c576040519150601f19603f3d011682016040523d82523d6000602084013e611621565b606091505b5080516000036116435760405162461bcd60e51b815260040161047890612235565b805181602001fd5b6001600160e01b031916630a85bd0160e11b149050610f06565b506001949350505050565b606061167b82610d99565b6116df5760405162461bcd60e51b815260206004820152602f60248201527f4552433732314d657461646174613a2055524920717565727920666f72206e6f60448201526e3732bc34b9ba32b73a103a37b5b2b760891b6064820152608401610478565b60006116f660408051602081019091526000815290565b905060008151116117165760405180602001604052806000815250611741565b806117208461183e565b604051602001611731929190612287565b6040516020818303038152906040525b9392505050565b611752838361193f565b61175f600084848461156f565b6106fa5760405162461bcd60e51b815260040161047890612235565b600054610100900460ff166117a25760405162461bcd60e51b815260040161047890612304565b81516117b5906097906020850190611b0d565b5080516106fa906098906020840190611b0d565b60006001600160e01b0319821663152a902d60e11b14806103b857506301ffc9a760e01b6001600160e01b03198316146103b8565b61180781611a72565b600081815260c9602052604090208054611820906120a6565b15905061086f57600081815260c96020526040812061086f91611b91565b6060816000036118655750506040805180820190915260018152600360fc1b602082015290565b8160005b811561188f5780611879816123a9565b91506118889050600a836121f2565b9150611869565b60008167ffffffffffffffff8111156118aa576118aa611c91565b6040519080825280601f01601f1916602001820160405280156118d4576020820181803683370190505b5090505b8415610f06576118e9600183612206565b91506118f6600a866123c2565b61190190603061221d565b60f81b818381518110611916576119166123d6565b60200101906001600160f81b031916908160001a905350611938600a866121f2565b94506118d8565b6001600160a01b0382166119955760405162461bcd60e51b815260206004820181905260248201527f4552433732313a206d696e7420746f20746865207a65726f20616464726573736044820152606401610478565b61199e81610d99565b156119eb5760405162461bcd60e51b815260206004820152601c60248201527f4552433732313a20746f6b656e20616c7265616479206d696e746564000000006044820152606401610478565b6001600160a01b0382166000908152609a60205260408120805460019290611a1490849061221d565b909155505060008181526099602052604080822080546001600160a01b0319166001600160a01b03861690811790915590518392907fddf252ad1be2c89b69c2b068fc378daa952ba7f163c4a11628f55a4df523b3ef908290a45050565b6000611a7d826108b5565b9050611a8a600083610db6565b6001600160a01b0381166000908152609a60205260408120805460019290611ab3908490612206565b909155505060008281526099602052604080822080546001600160a01b0319169055518391906001600160a01b038416907fddf252ad1be2c89b69c2b068fc378daa952ba7f163c4a11628f55a4df523b3ef908390a45050565b828054611b19906120a6565b90600052602060002090601f016020900481019282611b3b5760008555611b81565b82601f10611b5457805160ff1916838001178555611b81565b82800160010185558215611b81579182015b82811115611b81578251825591602001919060010190611b66565b50611b8d929150611bc7565b5090565b508054611b9d906120a6565b6000825580601f10611bad575050565b601f01602090049060005260206000209081019061086f91905b5b80821115611b8d5760008155600101611bc8565b6001600160e01b03198116811461086f57600080fd5b600060208284031215611c0457600080fd5b813561174181611bdc565b60005b83811015611c2a578181015183820152602001611c12565b838111156104ca5750506000910152565b60008151808452611c53816020860160208601611c0f565b601f01601f19169290920160200192915050565b6020815260006117416020830184611c3b565b80356001600160a01b03811681146114a257600080fd5b634e487b7160e01b600052604160045260246000fd5b600067ffffffffffffffff80841115611cc257611cc2611c91565b604051601f8501601f19908116603f01168101908282118183101715611cea57611cea611c91565b81604052809350858152868686011115611d0357600080fd5b858560208301376000602087830101525050509392505050565b600082601f830112611d2e57600080fd5b61174183833560208501611ca7565b80356001600160601b03811681146114a257600080fd5b60008060008060808587031215611d6a57600080fd5b611d7385611c7a565b9350602085013567ffffffffffffffff811115611d8f57600080fd5b611d9b87828801611d1d565b935050611daa60408601611d3d565b9150611db860608601611c7a565b905092959194509250565b600060208284031215611dd557600080fd5b5035919050565b60008060408385031215611def57600080fd5b611df883611c7a565b946020939093013593505050565b600080600060608486031215611e1b57600080fd5b611e2484611c7a565b9250611e3260208501611c7a565b9150604084013590509250925092565b60008060408385031215611e5557600080fd5b50508035926020909101359150565b600060208284031215611e7657600080fd5b813567ffffffffffffffff811115611e8d57600080fd5b610f0684828501611d1d565b600060208284031215611eab57600080fd5b61174182611c7a565b60008060408385031215611ec757600080fd5b611ed083611c7a565b915060208301358015158114611ee557600080fd5b809150509250929050565b60008060008060808587031215611f0657600080fd5b611f0f85611c7a565b9350611f1d60208601611c7a565b925060408501359150606085013567ffffffffffffffff811115611f4057600080fd5b8501601f81018713611f5157600080fd5b611f6087823560208401611ca7565b91505092959194509250565b60008060408385031215611f7f57600080fd5b611f8883611c7a565b9150602083013567ffffffffffffffff811115611fa457600080fd5b611fb085828601611d1d565b9150509250929050565b60008060008060008060c08789031215611fd357600080fd5b863567ffffffffffffffff80821115611feb57600080fd5b611ff78a838b01611d1d565b9750602089013591508082111561200d57600080fd5b6120198a838b01611d1d565b9650604089013591508082111561202f57600080fd5b5061203c89828a01611d1d565b94505061204b60608801611c7a565b925061205960808801611d3d565b915061206760a08801611c7a565b90509295509295509295565b6000806040838503121561208657600080fd5b61208f83611c7a565b915061209d60208401611c7a565b90509250929050565b600181811c908216806120ba57607f821691505b6020821081036120da57634e487b7160e01b600052602260045260246000fd5b50919050565b6020808252818101527f4f776e61626c653a2063616c6c6572206973206e6f7420746865206f776e6572604082015260600190565b60208082526021908201527f47616c6c6572793a20496e76616c696420526f79616c747920726563656976656040820152603960f91b606082015260800190565b60208082526031908201527f4552433732313a207472616e736665722063616c6c6572206973206e6f74206f6040820152701ddb995c881b9bdc88185c1c1c9bdd9959607a1b606082015260800190565b634e487b7160e01b600052601160045260246000fd5b60008160001904831182151516156121d7576121d76121a7565b500290565b634e487b7160e01b600052601260045260246000fd5b600082612201576122016121dc565b500490565b600082821015612218576122186121a7565b500390565b60008219821115612230576122306121a7565b500190565b60208082526032908201527f4552433732313a207472616e7366657220746f206e6f6e20455243373231526560408201527131b2b4bb32b91034b6b83632b6b2b73a32b960711b606082015260800190565b60008351612299818460208801611c0f565b8351908301906122ad818360208801611c0f565b01949350505050565b6020808252602e908201527f496e697469616c697a61626c653a20636f6e747261637420697320616c72656160408201526d191e481a5b9a5d1a585b1a5e995960921b606082015260800190565b6020808252602b908201527f496e697469616c697a61626c653a20636f6e7472616374206973206e6f74206960408201526a6e697469616c697a696e6760a81b606082015260800190565b6001600160a01b038581168252841660208201526040810183905260806060820181905260009061238290830184611c3b565b9695505050505050565b60006020828403121561239e57600080fd5b815161174181611bdc565b6000600182016123bb576123bb6121a7565b5060010190565b6000826123d1576123d16121dc565b500690565b634e487b7160e01b600052603260045260246000fdfea264697066735822122024a54f51b8c0110b7715dcf16ca14d5e327d00ce0ea42cb7e146d9e6c15efddc64736f6c634300080d0033",
          "opcodes": "PUSH1 0x80 PUSH1 0x40 MSTORE PUSH1 0x40 MLOAD PUSH2 0x10 SWAP1 PUSH2 0x5F JUMP JUMPDEST PUSH1 0x40 MLOAD DUP1 SWAP2 SUB SWAP1 PUSH1 0x0 CREATE DUP1 ISZERO DUP1 ISZERO PUSH2 0x2C JUMPI RETURNDATASIZE PUSH1 0x0 DUP1 RETURNDATACOPY RETURNDATASIZE PUSH1 0x0 REVERT JUMPDEST POP PUSH1 0x0 DUP1 SLOAD PUSH1 0x1 PUSH1 0x1 PUSH1 0xA0 SHL SUB NOT AND PUSH1 0x1 PUSH1 0x1 PUSH1 0xA0 SHL SUB SWAP3 SWAP1 SWAP3 AND SWAP2 SWAP1 SWAP2 OR SWAP1 SSTORE CALLVALUE DUP1 ISZERO PUSH2 0x59 JUMPI PUSH1 0x0 DUP1 REVERT JUMPDEST POP PUSH2 0x6C JUMP JUMPDEST PUSH2 0x2442 DUP1 PUSH2 0x52E DUP4 CODECOPY ADD SWAP1 JUMP JUMPDEST PUSH2 0x4B3 DUP1 PUSH2 0x7B PUSH1 0x0 CODECOPY PUSH1 0x0 RETURN INVALID PUSH1 0x80 PUSH1 0x40 MSTORE CALLVALUE DUP1 ISZERO PUSH2 0x10 JUMPI PUSH1 0x0 DUP1 REVERT JUMPDEST POP PUSH1 0x4 CALLDATASIZE LT PUSH2 0x36 JUMPI PUSH1 0x0 CALLDATALOAD PUSH1 0xE0 SHR DUP1 PUSH4 0xADFEF20B EQ PUSH2 0x3B JUMPI DUP1 PUSH4 0xB5EA661E EQ PUSH2 0x50 JUMPI JUMPDEST PUSH1 0x0 DUP1 REVERT JUMPDEST PUSH2 0x4E PUSH2 0x49 CALLDATASIZE PUSH1 0x4 PUSH2 0x28D JUMP JUMPDEST PUSH2 0x7F JUMP JUMPDEST STOP JUMPDEST PUSH1 0x0 SLOAD PUSH2 0x63 SWAP1 PUSH1 0x1 PUSH1 0x1 PUSH1 0xA0 SHL SUB AND DUP2 JUMP JUMPDEST PUSH1 0x40 MLOAD PUSH1 0x1 PUSH1 0x1 PUSH1 0xA0 SHL SUB SWAP1 SWAP2 AND DUP2 MSTORE PUSH1 0x20 ADD PUSH1 0x40 MLOAD DUP1 SWAP2 SUB SWAP1 RETURN JUMPDEST PUSH1 0x0 DUP1 SLOAD PUSH2 0x95 SWAP1 PUSH1 0x1 PUSH1 0x1 PUSH1 0xA0 SHL SUB AND PUSH2 0x149 JUMP JUMPDEST PUSH1 0x40 MLOAD PUSH4 0xD670226D PUSH1 0xE0 SHL DUP2 MSTORE SWAP1 SWAP2 POP PUSH1 0x1 PUSH1 0x1 PUSH1 0xA0 SHL SUB DUP3 AND SWAP1 PUSH4 0xD670226D SWAP1 PUSH2 0xCE SWAP1 DUP10 SWAP1 DUP10 SWAP1 DUP10 SWAP1 CALLER SWAP1 DUP11 SWAP1 DUP11 SWAP1 PUSH1 0x4 ADD PUSH2 0x3A2 JUMP JUMPDEST PUSH1 0x0 PUSH1 0x40 MLOAD DUP1 DUP4 SUB DUP2 PUSH1 0x0 DUP8 DUP1 EXTCODESIZE ISZERO DUP1 ISZERO PUSH2 0xE8 JUMPI PUSH1 0x0 DUP1 REVERT JUMPDEST POP GAS CALL ISZERO DUP1 ISZERO PUSH2 0xFC JUMPI RETURNDATASIZE PUSH1 0x0 DUP1 RETURNDATACOPY RETURNDATASIZE PUSH1 0x0 REVERT JUMPDEST POP POP POP POP PUSH32 0xC2DC28DDC714FD3A445FCF941BBDE257AEC97DB0CB2A44500EE83869083591A9 DUP7 DUP7 DUP7 CALLER DUP6 DUP9 PUSH1 0x40 MLOAD PUSH2 0x139 SWAP7 SWAP6 SWAP5 SWAP4 SWAP3 SWAP2 SWAP1 PUSH2 0x410 JUMP JUMPDEST PUSH1 0x40 MLOAD DUP1 SWAP2 SUB SWAP1 LOG1 POP POP POP POP POP POP JUMP JUMPDEST PUSH1 0x0 PUSH1 0x40 MLOAD PUSH20 0x3D602D80600A3D3981F3363D3D373D3D3D363D73 PUSH1 0x60 SHL DUP2 MSTORE DUP3 PUSH1 0x60 SHL PUSH1 0x14 DUP3 ADD MSTORE PUSH15 0x5AF43D82803E903D91602B57FD5BF3 PUSH1 0x88 SHL PUSH1 0x28 DUP3 ADD MSTORE PUSH1 0x37 DUP2 PUSH1 0x0 CREATE SWAP2 POP POP PUSH1 0x1 PUSH1 0x1 PUSH1 0xA0 SHL SUB DUP2 AND PUSH2 0x1E5 JUMPI PUSH1 0x40 MLOAD PUSH3 0x461BCD PUSH1 0xE5 SHL DUP2 MSTORE PUSH1 0x20 PUSH1 0x4 DUP3 ADD MSTORE PUSH1 0x16 PUSH1 0x24 DUP3 ADD MSTORE PUSH22 0x115490CC4C4D8DCE8818DC99585D194819985A5B1959 PUSH1 0x52 SHL PUSH1 0x44 DUP3 ADD MSTORE PUSH1 0x64 ADD PUSH1 0x40 MLOAD DUP1 SWAP2 SUB SWAP1 REVERT JUMPDEST SWAP2 SWAP1 POP JUMP JUMPDEST PUSH4 0x4E487B71 PUSH1 0xE0 SHL PUSH1 0x0 MSTORE PUSH1 0x41 PUSH1 0x4 MSTORE PUSH1 0x24 PUSH1 0x0 REVERT JUMPDEST PUSH1 0x0 DUP3 PUSH1 0x1F DUP4 ADD SLT PUSH2 0x211 JUMPI PUSH1 0x0 DUP1 REVERT JUMPDEST DUP2 CALLDATALOAD PUSH8 0xFFFFFFFFFFFFFFFF DUP1 DUP3 GT ISZERO PUSH2 0x22C JUMPI PUSH2 0x22C PUSH2 0x1EA JUMP JUMPDEST PUSH1 0x40 MLOAD PUSH1 0x1F DUP4 ADD PUSH1 0x1F NOT SWAP1 DUP2 AND PUSH1 0x3F ADD AND DUP2 ADD SWAP1 DUP3 DUP3 GT DUP2 DUP4 LT OR ISZERO PUSH2 0x254 JUMPI PUSH2 0x254 PUSH2 0x1EA JUMP JUMPDEST DUP2 PUSH1 0x40 MSTORE DUP4 DUP2 MSTORE DUP7 PUSH1 0x20 DUP6 DUP9 ADD ADD GT ISZERO PUSH2 0x26D JUMPI PUSH1 0x0 DUP1 REVERT JUMPDEST DUP4 PUSH1 0x20 DUP8 ADD PUSH1 0x20 DUP4 ADD CALLDATACOPY PUSH1 0x0 PUSH1 0x20 DUP6 DUP4 ADD ADD MSTORE DUP1 SWAP5 POP POP POP POP POP SWAP3 SWAP2 POP POP JUMP JUMPDEST PUSH1 0x0 DUP1 PUSH1 0x0 DUP1 PUSH1 0x0 PUSH1 0xA0 DUP7 DUP9 SUB SLT ISZERO PUSH2 0x2A5 JUMPI PUSH1 0x0 DUP1 REVERT JUMPDEST DUP6 CALLDATALOAD PUSH8 0xFFFFFFFFFFFFFFFF DUP1 DUP3 GT ISZERO PUSH2 0x2BD JUMPI PUSH1 0x0 DUP1 REVERT JUMPDEST PUSH2 0x2C9 DUP10 DUP4 DUP11 ADD PUSH2 0x200 JUMP JUMPDEST SWAP7 POP PUSH1 0x20 DUP9 ADD CALLDATALOAD SWAP2 POP DUP1 DUP3 GT ISZERO PUSH2 0x2DF JUMPI PUSH1 0x0 DUP1 REVERT JUMPDEST PUSH2 0x2EB DUP10 DUP4 DUP11 ADD PUSH2 0x200 JUMP JUMPDEST SWAP6 POP PUSH1 0x40 DUP9 ADD CALLDATALOAD SWAP2 POP DUP1 DUP3 GT ISZERO PUSH2 0x301 JUMPI PUSH1 0x0 DUP1 REVERT JUMPDEST POP PUSH2 0x30E DUP9 DUP3 DUP10 ADD PUSH2 0x200 JUMP JUMPDEST SWAP4 POP POP PUSH1 0x60 DUP7 ADD CALLDATALOAD PUSH1 0x1 PUSH1 0x1 PUSH1 0x60 SHL SUB DUP2 AND DUP2 EQ PUSH2 0x32B JUMPI PUSH1 0x0 DUP1 REVERT JUMPDEST SWAP2 POP PUSH1 0x80 DUP7 ADD CALLDATALOAD PUSH1 0x1 PUSH1 0x1 PUSH1 0xA0 SHL SUB DUP2 AND DUP2 EQ PUSH2 0x347 JUMPI PUSH1 0x0 DUP1 REVERT JUMPDEST DUP1 SWAP2 POP POP SWAP3 SWAP6 POP SWAP3 SWAP6 SWAP1 SWAP4 POP JUMP JUMPDEST PUSH1 0x0 DUP2 MLOAD DUP1 DUP5 MSTORE PUSH1 0x0 JUMPDEST DUP2 DUP2 LT ISZERO PUSH2 0x37B JUMPI PUSH1 0x20 DUP2 DUP6 ADD DUP2 ADD MLOAD DUP7 DUP4 ADD DUP3 ADD MSTORE ADD PUSH2 0x35F JUMP JUMPDEST DUP2 DUP2 GT ISZERO PUSH2 0x38D JUMPI PUSH1 0x0 PUSH1 0x20 DUP4 DUP8 ADD ADD MSTORE JUMPDEST POP PUSH1 0x1F ADD PUSH1 0x1F NOT AND SWAP3 SWAP1 SWAP3 ADD PUSH1 0x20 ADD SWAP3 SWAP2 POP POP JUMP JUMPDEST PUSH1 0xC0 DUP2 MSTORE PUSH1 0x0 PUSH2 0x3B5 PUSH1 0xC0 DUP4 ADD DUP10 PUSH2 0x355 JUMP JUMPDEST DUP3 DUP2 SUB PUSH1 0x20 DUP5 ADD MSTORE PUSH2 0x3C7 DUP2 DUP10 PUSH2 0x355 JUMP JUMPDEST SWAP1 POP DUP3 DUP2 SUB PUSH1 0x40 DUP5 ADD MSTORE PUSH2 0x3DB DUP2 DUP9 PUSH2 0x355 JUMP JUMPDEST PUSH1 0x1 PUSH1 0x1 PUSH1 0xA0 SHL SUB SWAP7 DUP8 AND PUSH1 0x60 DUP6 ADD MSTORE PUSH1 0x1 PUSH1 0x1 PUSH1 0x60 SHL SUB SWAP6 SWAP1 SWAP6 AND PUSH1 0x80 DUP5 ADD MSTORE POP POP SWAP3 AND PUSH1 0xA0 SWAP1 SWAP3 ADD SWAP2 SWAP1 SWAP2 MSTORE SWAP4 SWAP3 POP POP POP JUMP JUMPDEST PUSH1 0xC0 DUP2 MSTORE PUSH1 0x0 PUSH2 0x423 PUSH1 0xC0 DUP4 ADD DUP10 PUSH2 0x355 JUMP JUMPDEST DUP3 DUP2 SUB PUSH1 0x20 DUP5 ADD MSTORE PUSH2 0x435 DUP2 DUP10 PUSH2 0x355 JUMP JUMPDEST SWAP1 POP DUP3 DUP2 SUB PUSH1 0x40 DUP5 ADD MSTORE PUSH2 0x449 DUP2 DUP9 PUSH2 0x355 JUMP JUMPDEST PUSH1 0x1 PUSH1 0x1 PUSH1 0xA0 SHL SUB SWAP7 DUP8 AND PUSH1 0x60 DUP6 ADD MSTORE SWAP5 SWAP1 SWAP6 AND PUSH1 0x80 DUP4 ADD MSTORE POP PUSH1 0x1 PUSH1 0x1 PUSH1 0x60 SHL SUB SWAP2 SWAP1 SWAP2 AND PUSH1 0xA0 SWAP1 SWAP2 ADD MSTORE SWAP5 SWAP4 POP POP POP POP JUMP INVALID LOG2 PUSH5 0x6970667358 0x22 SLT KECCAK256 GAS NUMBER SAR BLOCKHASH GASPRICE DUP14 0x5E 0xA9 0xD2 0x25 SWAP2 PUSH7 0x3B4FC14D420B0B 0x2B SWAP15 SMOD 0xA7 EQ PUSH16 0x8AAE8324DF7A9E64736F6C634300080D STOP CALLER PUSH1 0x80 PUSH1 0x40 MSTORE CALLVALUE DUP1 ISZERO PUSH2 0x10 JUMPI PUSH1 0x0 DUP1 REVERT JUMPDEST POP PUSH2 0x2422 DUP1 PUSH2 0x20 PUSH1 0x0 CODECOPY PUSH1 0x0 RETURN INVALID PUSH1 0x80 PUSH1 0x40 MSTORE CALLVALUE DUP1 ISZERO PUSH2 0x10 JUMPI PUSH1 0x0 DUP1 REVERT JUMPDEST POP PUSH1 0x4 CALLDATASIZE LT PUSH2 0x173 JUMPI PUSH1 0x0 CALLDATALOAD PUSH1 0xE0 SHR DUP1 PUSH4 0x70A08231 GT PUSH2 0xDE JUMPI DUP1 PUSH4 0xAA1B103F GT PUSH2 0x97 JUMPI DUP1 PUSH4 0xD204C45E GT PUSH2 0x71 JUMPI DUP1 PUSH4 0xD204C45E EQ PUSH2 0x338 JUMPI DUP1 PUSH4 0xD670226D EQ PUSH2 0x34B JUMPI DUP1 PUSH4 0xE985E9C5 EQ PUSH2 0x35E JUMPI DUP1 PUSH4 0xF2FDE38B EQ PUSH2 0x39A JUMPI PUSH1 0x0 DUP1 REVERT JUMPDEST DUP1 PUSH4 0xAA1B103F EQ PUSH2 0x30A JUMPI DUP1 PUSH4 0xB88D4FDE EQ PUSH2 0x312 JUMPI DUP1 PUSH4 0xC87B56DD EQ PUSH2 0x325 JUMPI PUSH1 0x0 DUP1 REVERT JUMPDEST DUP1 PUSH4 0x70A08231 EQ PUSH2 0x2A1 JUMPI DUP1 PUSH4 0x715018A6 EQ PUSH2 0x2C2 JUMPI DUP1 PUSH4 0x8A616BC0 EQ PUSH2 0x2CA JUMPI DUP1 PUSH4 0x8DA5CB5B EQ PUSH2 0x2DD JUMPI DUP1 PUSH4 0x95D89B41 EQ PUSH2 0x2EF JUMPI DUP1 PUSH4 0xA22CB465 EQ PUSH2 0x2F7 JUMPI PUSH1 0x0 DUP1 REVERT JUMPDEST DUP1 PUSH4 0x23B872DD GT PUSH2 0x130 JUMPI DUP1 PUSH4 0x23B872DD EQ PUSH2 0x210 JUMPI DUP1 PUSH4 0x2A55205A EQ PUSH2 0x223 JUMPI DUP1 PUSH4 0x42842E0E EQ PUSH2 0x255 JUMPI DUP1 PUSH4 0x42966C68 EQ PUSH2 0x268 JUMPI DUP1 PUSH4 0x60EB9485 EQ PUSH2 0x27B JUMPI DUP1 PUSH4 0x6352211E EQ PUSH2 0x28E JUMPI PUSH1 0x0 DUP1 REVERT JUMPDEST DUP1 PUSH4 0x1FFC9A7 EQ PUSH2 0x178 JUMPI DUP1 PUSH4 0x2D05D3F EQ PUSH2 0x1A0 JUMPI DUP1 PUSH4 0x6CE61F8 EQ PUSH2 0x1B5 JUMPI DUP1 PUSH4 0x6FDDE03 EQ PUSH2 0x1CA JUMPI DUP1 PUSH4 0x81812FC EQ PUSH2 0x1D2 JUMPI DUP1 PUSH4 0x95EA7B3 EQ PUSH2 0x1FD JUMPI JUMPDEST PUSH1 0x0 DUP1 REVERT JUMPDEST PUSH2 0x18B PUSH2 0x186 CALLDATASIZE PUSH1 0x4 PUSH2 0x1BF2 JUMP JUMPDEST PUSH2 0x3AD JUMP JUMPDEST PUSH1 0x40 MLOAD SWAP1 ISZERO ISZERO DUP2 MSTORE PUSH1 0x20 ADD JUMPDEST PUSH1 0x40 MLOAD DUP1 SWAP2 SUB SWAP1 RETURN JUMPDEST PUSH2 0x1A8 PUSH2 0x3BE JUMP JUMPDEST PUSH1 0x40 MLOAD PUSH2 0x197 SWAP2 SWAP1 PUSH2 0x1C67 JUMP JUMPDEST PUSH2 0x1C8 PUSH2 0x1C3 CALLDATASIZE PUSH1 0x4 PUSH2 0x1D54 JUMP JUMPDEST PUSH2 0x44D JUMP JUMPDEST STOP JUMPDEST PUSH2 0x1A8 PUSH2 0x4D0 JUMP JUMPDEST PUSH2 0x1E5 PUSH2 0x1E0 CALLDATASIZE PUSH1 0x4 PUSH2 0x1DC3 JUMP JUMPDEST PUSH2 0x562 JUMP JUMPDEST PUSH1 0x40 MLOAD PUSH1 0x1 PUSH1 0x1 PUSH1 0xA0 SHL SUB SWAP1 SWAP2 AND DUP2 MSTORE PUSH1 0x20 ADD PUSH2 0x197 JUMP JUMPDEST PUSH2 0x1C8 PUSH2 0x20B CALLDATASIZE PUSH1 0x4 PUSH2 0x1DDC JUMP JUMPDEST PUSH2 0x5EA JUMP JUMPDEST PUSH2 0x1C8 PUSH2 0x21E CALLDATASIZE PUSH1 0x4 PUSH2 0x1E06 JUMP JUMPDEST PUSH2 0x6FF JUMP JUMPDEST PUSH2 0x236 PUSH2 0x231 CALLDATASIZE PUSH1 0x4 PUSH2 0x1E42 JUMP JUMPDEST PUSH2 0x731 JUMP JUMPDEST PUSH1 0x40 DUP1 MLOAD PUSH1 0x1 PUSH1 0x1 PUSH1 0xA0 SHL SUB SWAP1 SWAP4 AND DUP4 MSTORE PUSH1 0x20 DUP4 ADD SWAP2 SWAP1 SWAP2 MSTORE ADD PUSH2 0x197 JUMP JUMPDEST PUSH2 0x1C8 PUSH2 0x263 CALLDATASIZE PUSH1 0x4 PUSH2 0x1E06 JUMP JUMPDEST PUSH2 0x7DD JUMP JUMPDEST PUSH2 0x1C8 PUSH2 0x276 CALLDATASIZE PUSH1 0x4 PUSH2 0x1DC3 JUMP JUMPDEST PUSH2 0x7F8 JUMP JUMPDEST PUSH2 0x1C8 PUSH2 0x289 CALLDATASIZE PUSH1 0x4 PUSH2 0x1E64 JUMP JUMPDEST PUSH2 0x872 JUMP JUMPDEST PUSH2 0x1E5 PUSH2 0x29C CALLDATASIZE PUSH1 0x4 PUSH2 0x1DC3 JUMP JUMPDEST PUSH2 0x8B5 JUMP JUMPDEST PUSH2 0x2B4 PUSH2 0x2AF CALLDATASIZE PUSH1 0x4 PUSH2 0x1E99 JUMP JUMPDEST PUSH2 0x92C JUMP JUMPDEST PUSH1 0x40 MLOAD SWAP1 DUP2 MSTORE PUSH1 0x20 ADD PUSH2 0x197 JUMP JUMPDEST PUSH2 0x1C8 PUSH2 0x9B3 JUMP JUMPDEST PUSH2 0x1C8 PUSH2 0x2D8 CALLDATASIZE PUSH1 0x4 PUSH2 0x1DC3 JUMP JUMPDEST PUSH2 0x9EA JUMP JUMPDEST PUSH2 0x15F SLOAD PUSH1 0x1 PUSH1 0x1 PUSH1 0xA0 SHL SUB AND PUSH2 0x1E5 JUMP JUMPDEST PUSH2 0x1A8 PUSH2 0xA26 JUMP JUMPDEST PUSH2 0x1C8 PUSH2 0x305 CALLDATASIZE PUSH1 0x4 PUSH2 0x1EB4 JUMP JUMPDEST PUSH2 0xA35 JUMP JUMPDEST PUSH2 0x1C8 PUSH2 0xA40 JUMP JUMPDEST PUSH2 0x1C8 PUSH2 0x320 CALLDATASIZE PUSH1 0x4 PUSH2 0x1EF0 JUMP JUMPDEST PUSH2 0xA75 JUMP JUMPDEST PUSH2 0x1A8 PUSH2 0x333 CALLDATASIZE PUSH1 0x4 PUSH2 0x1DC3 JUMP JUMPDEST PUSH2 0xAA7 JUMP JUMPDEST PUSH2 0x1C8 PUSH2 0x346 CALLDATASIZE PUSH1 0x4 PUSH2 0x1F6C JUMP JUMPDEST PUSH2 0xAB2 JUMP JUMPDEST PUSH2 0x1C8 PUSH2 0x359 CALLDATASIZE PUSH1 0x4 PUSH2 0x1FBA JUMP JUMPDEST PUSH2 0xB0E JUMP JUMPDEST PUSH2 0x18B PUSH2 0x36C CALLDATASIZE PUSH1 0x4 PUSH2 0x2073 JUMP JUMPDEST PUSH1 0x1 PUSH1 0x1 PUSH1 0xA0 SHL SUB SWAP2 DUP3 AND PUSH1 0x0 SWAP1 DUP2 MSTORE PUSH1 0x9C PUSH1 0x20 SWAP1 DUP2 MSTORE PUSH1 0x40 DUP1 DUP4 KECCAK256 SWAP4 SWAP1 SWAP5 AND DUP3 MSTORE SWAP2 SWAP1 SWAP2 MSTORE KECCAK256 SLOAD PUSH1 0xFF AND SWAP1 JUMP JUMPDEST PUSH2 0x1C8 PUSH2 0x3A8 CALLDATASIZE PUSH1 0x4 PUSH2 0x1E99 JUMP JUMPDEST PUSH2 0xBF8 JUMP JUMPDEST PUSH1 0x0 PUSH2 0x3B8 DUP3 PUSH2 0xC91 JUMP JUMPDEST SWAP3 SWAP2 POP POP JUMP JUMPDEST PUSH2 0x192 DUP1 SLOAD PUSH2 0x3CC SWAP1 PUSH2 0x20A6 JUMP JUMPDEST DUP1 PUSH1 0x1F ADD PUSH1 0x20 DUP1 SWAP2 DIV MUL PUSH1 0x20 ADD PUSH1 0x40 MLOAD SWAP1 DUP2 ADD PUSH1 0x40 MSTORE DUP1 SWAP3 SWAP2 SWAP1 DUP2 DUP2 MSTORE PUSH1 0x20 ADD DUP3 DUP1 SLOAD PUSH2 0x3F8 SWAP1 PUSH2 0x20A6 JUMP JUMPDEST DUP1 ISZERO PUSH2 0x445 JUMPI DUP1 PUSH1 0x1F LT PUSH2 0x41A JUMPI PUSH2 0x100 DUP1 DUP4 SLOAD DIV MUL DUP4 MSTORE SWAP2 PUSH1 0x20 ADD SWAP2 PUSH2 0x445 JUMP JUMPDEST DUP3 ADD SWAP2 SWAP1 PUSH1 0x0 MSTORE PUSH1 0x20 PUSH1 0x0 KECCAK256 SWAP1 JUMPDEST DUP2 SLOAD DUP2 MSTORE SWAP1 PUSH1 0x1 ADD SWAP1 PUSH1 0x20 ADD DUP1 DUP4 GT PUSH2 0x428 JUMPI DUP3 SWAP1 SUB PUSH1 0x1F AND DUP3 ADD SWAP2 JUMPDEST POP POP POP POP POP DUP2 JUMP JUMPDEST PUSH2 0x15F SLOAD PUSH1 0x1 PUSH1 0x1 PUSH1 0xA0 SHL SUB AND CALLER EQ PUSH2 0x481 JUMPI PUSH1 0x40 MLOAD PUSH3 0x461BCD PUSH1 0xE5 SHL DUP2 MSTORE PUSH1 0x4 ADD PUSH2 0x478 SWAP1 PUSH2 0x20E0 JUMP JUMPDEST PUSH1 0x40 MLOAD DUP1 SWAP2 SUB SWAP1 REVERT JUMPDEST PUSH2 0x48B DUP5 DUP5 PUSH2 0xAB2 JUMP JUMPDEST PUSH1 0x1 PUSH1 0x1 PUSH1 0x60 SHL SUB DUP3 AND ISZERO PUSH2 0x4CA JUMPI PUSH1 0x1 PUSH1 0x1 PUSH1 0xA0 SHL SUB DUP2 AND PUSH2 0x4C0 JUMPI PUSH1 0x40 MLOAD PUSH3 0x461BCD PUSH1 0xE5 SHL DUP2 MSTORE PUSH1 0x4 ADD PUSH2 0x478 SWAP1 PUSH2 0x2115 JUMP JUMPDEST PUSH2 0x4CA DUP2 DUP4 PUSH2 0xC9C JUMP JUMPDEST POP POP POP POP JUMP JUMPDEST PUSH1 0x60 PUSH1 0x97 DUP1 SLOAD PUSH2 0x4DF SWAP1 PUSH2 0x20A6 JUMP JUMPDEST DUP1 PUSH1 0x1F ADD PUSH1 0x20 DUP1 SWAP2 DIV MUL PUSH1 0x20 ADD PUSH1 0x40 MLOAD SWAP1 DUP2 ADD PUSH1 0x40 MSTORE DUP1 SWAP3 SWAP2 SWAP1 DUP2 DUP2 MSTORE PUSH1 0x20 ADD DUP3 DUP1 SLOAD PUSH2 0x50B SWAP1 PUSH2 0x20A6 JUMP JUMPDEST DUP1 ISZERO PUSH2 0x558 JUMPI DUP1 PUSH1 0x1F LT PUSH2 0x52D JUMPI PUSH2 0x100 DUP1 DUP4 SLOAD DIV MUL DUP4 MSTORE SWAP2 PUSH1 0x20 ADD SWAP2 PUSH2 0x558 JUMP JUMPDEST DUP3 ADD SWAP2 SWAP1 PUSH1 0x0 MSTORE PUSH1 0x20 PUSH1 0x0 KECCAK256 SWAP1 JUMPDEST DUP2 SLOAD DUP2 MSTORE SWAP1 PUSH1 0x1 ADD SWAP1 PUSH1 0x20 ADD DUP1 DUP4 GT PUSH2 0x53B JUMPI DUP3 SWAP1 SUB PUSH1 0x1F AND DUP3 ADD SWAP2 JUMPDEST POP POP POP POP POP SWAP1 POP SWAP1 JUMP JUMPDEST PUSH1 0x0 PUSH2 0x56D DUP3 PUSH2 0xD99 JUMP JUMPDEST PUSH2 0x5CE JUMPI PUSH1 0x40 MLOAD PUSH3 0x461BCD PUSH1 0xE5 SHL DUP2 MSTORE PUSH1 0x20 PUSH1 0x4 DUP3 ADD MSTORE PUSH1 0x2C PUSH1 0x24 DUP3 ADD MSTORE PUSH32 0x4552433732313A20617070726F76656420717565727920666F72206E6F6E6578 PUSH1 0x44 DUP3 ADD MSTORE PUSH12 0x34B9BA32B73A103A37B5B2B7 PUSH1 0xA1 SHL PUSH1 0x64 DUP3 ADD MSTORE PUSH1 0x84 ADD PUSH2 0x478 JUMP JUMPDEST POP PUSH1 0x0 SWAP1 DUP2 MSTORE PUSH1 0x9B PUSH1 0x20 MSTORE PUSH1 0x40 SWAP1 KECCAK256 SLOAD PUSH1 0x1 PUSH1 0x1 PUSH1 0xA0 SHL SUB AND SWAP1 JUMP JUMPDEST PUSH1 0x0 PUSH2 0x5F5 DUP3 PUSH2 0x8B5 JUMP JUMPDEST SWAP1 POP DUP1 PUSH1 0x1 PUSH1 0x1 PUSH1 0xA0 SHL SUB AND DUP4 PUSH1 0x1 PUSH1 0x1 PUSH1 0xA0 SHL SUB AND SUB PUSH2 0x662 JUMPI PUSH1 0x40 MLOAD PUSH3 0x461BCD PUSH1 0xE5 SHL DUP2 MSTORE PUSH1 0x20 PUSH1 0x4 DUP3 ADD MSTORE PUSH1 0x21 PUSH1 0x24 DUP3 ADD MSTORE PUSH32 0x4552433732313A20617070726F76616C20746F2063757272656E74206F776E65 PUSH1 0x44 DUP3 ADD MSTORE PUSH1 0x39 PUSH1 0xF9 SHL PUSH1 0x64 DUP3 ADD MSTORE PUSH1 0x84 ADD PUSH2 0x478 JUMP JUMPDEST CALLER PUSH1 0x1 PUSH1 0x1 PUSH1 0xA0 SHL SUB DUP3 AND EQ DUP1 PUSH2 0x67E JUMPI POP PUSH2 0x67E DUP2 CALLER PUSH2 0x36C JUMP JUMPDEST PUSH2 0x6F0 JUMPI PUSH1 0x40 MLOAD PUSH3 0x461BCD PUSH1 0xE5 SHL DUP2 MSTORE PUSH1 0x20 PUSH1 0x4 DUP3 ADD MSTORE PUSH1 0x38 PUSH1 0x24 DUP3 ADD MSTORE PUSH32 0x4552433732313A20617070726F76652063616C6C6572206973206E6F74206F77 PUSH1 0x44 DUP3 ADD MSTORE PUSH32 0x6E6572206E6F7220617070726F76656420666F7220616C6C0000000000000000 PUSH1 0x64 DUP3 ADD MSTORE PUSH1 0x84 ADD PUSH2 0x478 JUMP JUMPDEST PUSH2 0x6FA DUP4 DUP4 PUSH2 0xDB6 JUMP JUMPDEST POP POP POP JUMP JUMPDEST PUSH2 0x70A CALLER JUMPDEST DUP3 PUSH2 0xE24 JUMP JUMPDEST PUSH2 0x726 JUMPI PUSH1 0x40 MLOAD PUSH3 0x461BCD PUSH1 0xE5 SHL DUP2 MSTORE PUSH1 0x4 ADD PUSH2 0x478 SWAP1 PUSH2 0x2156 JUMP JUMPDEST PUSH2 0x6FA DUP4 DUP4 DUP4 PUSH2 0xF0E JUMP JUMPDEST PUSH1 0x0 DUP3 DUP2 MSTORE PUSH1 0x66 PUSH1 0x20 SWAP1 DUP2 MSTORE PUSH1 0x40 DUP1 DUP4 KECCAK256 DUP2 MLOAD DUP1 DUP4 ADD SWAP1 SWAP3 MSTORE SLOAD PUSH1 0x1 PUSH1 0x1 PUSH1 0xA0 SHL SUB DUP2 AND DUP1 DUP4 MSTORE PUSH1 0x1 PUSH1 0xA0 SHL SWAP1 SWAP2 DIV PUSH1 0x1 PUSH1 0x1 PUSH1 0x60 SHL SUB AND SWAP3 DUP3 ADD SWAP3 SWAP1 SWAP3 MSTORE DUP3 SWAP2 PUSH2 0x7A6 JUMPI POP PUSH1 0x40 DUP1 MLOAD DUP1 DUP3 ADD SWAP1 SWAP2 MSTORE PUSH1 0x65 SLOAD PUSH1 0x1 PUSH1 0x1 PUSH1 0xA0 SHL SUB DUP2 AND DUP3 MSTORE PUSH1 0x1 PUSH1 0xA0 SHL SWAP1 DIV PUSH1 0x1 PUSH1 0x1 PUSH1 0x60 SHL SUB AND PUSH1 0x20 DUP3 ADD MSTORE JUMPDEST PUSH1 0x20 DUP2 ADD MLOAD PUSH1 0x0 SWAP1 PUSH2 0x2710 SWAP1 PUSH2 0x7C5 SWAP1 PUSH1 0x1 PUSH1 0x1 PUSH1 0x60 SHL SUB AND DUP8 PUSH2 0x21BD JUMP JUMPDEST PUSH2 0x7CF SWAP2 SWAP1 PUSH2 0x21F2 JUMP JUMPDEST SWAP2 MLOAD SWAP7 SWAP2 SWAP6 POP SWAP1 SWAP4 POP POP POP POP JUMP JUMPDEST PUSH2 0x6FA DUP4 DUP4 DUP4 PUSH1 0x40 MLOAD DUP1 PUSH1 0x20 ADD PUSH1 0x40 MSTORE DUP1 PUSH1 0x0 DUP2 MSTORE POP PUSH2 0xA75 JUMP JUMPDEST PUSH2 0x801 CALLER PUSH2 0x704 JUMP JUMPDEST PUSH2 0x866 JUMPI PUSH1 0x40 MLOAD PUSH3 0x461BCD PUSH1 0xE5 SHL DUP2 MSTORE PUSH1 0x20 PUSH1 0x4 DUP3 ADD MSTORE PUSH1 0x30 PUSH1 0x24 DUP3 ADD MSTORE PUSH32 0x4552433732314275726E61626C653A2063616C6C6572206973206E6F74206F77 PUSH1 0x44 DUP3 ADD MSTORE PUSH16 0x1B995C881B9BDC88185C1C1C9BDD9959 PUSH1 0x82 SHL PUSH1 0x64 DUP3 ADD MSTORE PUSH1 0x84 ADD PUSH2 0x478 JUMP JUMPDEST PUSH2 0x86F DUP2 PUSH2 0x10AA JUMP JUMPDEST POP JUMP JUMPDEST PUSH2 0x15F SLOAD PUSH1 0x1 PUSH1 0x1 PUSH1 0xA0 SHL SUB AND CALLER EQ PUSH2 0x89D JUMPI PUSH1 0x40 MLOAD PUSH3 0x461BCD PUSH1 0xE5 SHL DUP2 MSTORE PUSH1 0x4 ADD PUSH2 0x478 SWAP1 PUSH2 0x20E0 JUMP JUMPDEST DUP1 MLOAD PUSH2 0x8B1 SWAP1 PUSH2 0x192 SWAP1 PUSH1 0x20 DUP5 ADD SWAP1 PUSH2 0x1B0D JUMP JUMPDEST POP POP JUMP JUMPDEST PUSH1 0x0 DUP2 DUP2 MSTORE PUSH1 0x99 PUSH1 0x20 MSTORE PUSH1 0x40 DUP2 KECCAK256 SLOAD PUSH1 0x1 PUSH1 0x1 PUSH1 0xA0 SHL SUB AND DUP1 PUSH2 0x3B8 JUMPI PUSH1 0x40 MLOAD PUSH3 0x461BCD PUSH1 0xE5 SHL DUP2 MSTORE PUSH1 0x20 PUSH1 0x4 DUP3 ADD MSTORE PUSH1 0x29 PUSH1 0x24 DUP3 ADD MSTORE PUSH32 0x4552433732313A206F776E657220717565727920666F72206E6F6E6578697374 PUSH1 0x44 DUP3 ADD MSTORE PUSH9 0x32B73A103A37B5B2B7 PUSH1 0xB9 SHL PUSH1 0x64 DUP3 ADD MSTORE PUSH1 0x84 ADD PUSH2 0x478 JUMP JUMPDEST PUSH1 0x0 PUSH1 0x1 PUSH1 0x1 PUSH1 0xA0 SHL SUB DUP3 AND PUSH2 0x997 JUMPI PUSH1 0x40 MLOAD PUSH3 0x461BCD PUSH1 0xE5 SHL DUP2 MSTORE PUSH1 0x20 PUSH1 0x4 DUP3 ADD MSTORE PUSH1 0x2A PUSH1 0x24 DUP3 ADD MSTORE PUSH32 0x4552433732313A2062616C616E636520717565727920666F7220746865207A65 PUSH1 0x44 DUP3 ADD MSTORE PUSH10 0x726F2061646472657373 PUSH1 0xB0 SHL PUSH1 0x64 DUP3 ADD MSTORE PUSH1 0x84 ADD PUSH2 0x478 JUMP JUMPDEST POP PUSH1 0x1 PUSH1 0x1 PUSH1 0xA0 SHL SUB AND PUSH1 0x0 SWAP1 DUP2 MSTORE PUSH1 0x9A PUSH1 0x20 MSTORE PUSH1 0x40 SWAP1 KECCAK256 SLOAD SWAP1 JUMP JUMPDEST PUSH2 0x15F SLOAD PUSH1 0x1 PUSH1 0x1 PUSH1 0xA0 SHL SUB AND CALLER EQ PUSH2 0x9DE JUMPI PUSH1 0x40 MLOAD PUSH3 0x461BCD PUSH1 0xE5 SHL DUP2 MSTORE PUSH1 0x4 ADD PUSH2 0x478 SWAP1 PUSH2 0x20E0 JUMP JUMPDEST PUSH2 0x9E8 PUSH1 0x0 PUSH2 0x10B3 JUMP JUMPDEST JUMP JUMPDEST PUSH2 0x15F SLOAD PUSH1 0x1 PUSH1 0x1 PUSH1 0xA0 SHL SUB AND CALLER EQ PUSH2 0xA15 JUMPI PUSH1 0x40 MLOAD PUSH3 0x461BCD PUSH1 0xE5 SHL DUP2 MSTORE PUSH1 0x4 ADD PUSH2 0x478 SWAP1 PUSH2 0x20E0 JUMP JUMPDEST PUSH1 0x0 SWAP1 DUP2 MSTORE PUSH1 0x66 PUSH1 0x20 MSTORE PUSH1 0x40 DUP2 KECCAK256 SSTORE JUMP JUMPDEST PUSH1 0x60 PUSH1 0x98 DUP1 SLOAD PUSH2 0x4DF SWAP1 PUSH2 0x20A6 JUMP JUMPDEST PUSH2 0x8B1 CALLER DUP4 DUP4 PUSH2 0x1106 JUMP JUMPDEST PUSH2 0x15F SLOAD PUSH1 0x1 PUSH1 0x1 PUSH1 0xA0 SHL SUB AND CALLER EQ PUSH2 0xA6B JUMPI PUSH1 0x40 MLOAD PUSH3 0x461BCD PUSH1 0xE5 SHL DUP2 MSTORE PUSH1 0x4 ADD PUSH2 0x478 SWAP1 PUSH2 0x20E0 JUMP JUMPDEST PUSH2 0x9E8 PUSH1 0x0 PUSH1 0x65 SSTORE JUMP JUMPDEST PUSH2 0xA7F CALLER DUP4 PUSH2 0xE24 JUMP JUMPDEST PUSH2 0xA9B JUMPI PUSH1 0x40 MLOAD PUSH3 0x461BCD PUSH1 0xE5 SHL DUP2 MSTORE PUSH1 0x4 ADD PUSH2 0x478 SWAP1 PUSH2 0x2156 JUMP JUMPDEST PUSH2 0x4CA DUP5 DUP5 DUP5 DUP5 PUSH2 0x11D4 JUMP JUMPDEST PUSH1 0x60 PUSH2 0x3B8 DUP3 PUSH2 0x1207 JUMP JUMPDEST PUSH2 0x15F SLOAD PUSH1 0x1 PUSH1 0x1 PUSH1 0xA0 SHL SUB AND CALLER EQ PUSH2 0xADD JUMPI PUSH1 0x40 MLOAD PUSH3 0x461BCD PUSH1 0xE5 SHL DUP2 MSTORE PUSH1 0x4 ADD PUSH2 0x478 SWAP1 PUSH2 0x20E0 JUMP JUMPDEST PUSH1 0x0 PUSH2 0xAE9 PUSH2 0x191 SLOAD SWAP1 JUMP JUMPDEST SWAP1 POP PUSH2 0xAFA PUSH2 0x191 DUP1 SLOAD PUSH1 0x1 ADD SWAP1 SSTORE JUMP JUMPDEST PUSH2 0xB04 DUP4 DUP3 PUSH2 0x1375 JUMP JUMPDEST PUSH2 0x6FA DUP2 DUP4 PUSH2 0x138F JUMP JUMPDEST PUSH1 0x0 PUSH2 0xB1A PUSH1 0x1 PUSH2 0x141A JUMP JUMPDEST SWAP1 POP DUP1 ISZERO PUSH2 0xB32 JUMPI PUSH1 0x0 DUP1 SLOAD PUSH2 0xFF00 NOT AND PUSH2 0x100 OR SWAP1 SSTORE JUMPDEST DUP7 MLOAD PUSH2 0xB46 SWAP1 PUSH2 0x192 SWAP1 PUSH1 0x20 DUP11 ADD SWAP1 PUSH2 0x1B0D JUMP JUMPDEST POP PUSH2 0xB51 DUP7 DUP7 PUSH2 0x14A7 JUMP JUMPDEST PUSH2 0xB59 PUSH2 0x14D8 JUMP JUMPDEST PUSH2 0xB61 PUSH2 0x14D8 JUMP JUMPDEST PUSH2 0xB6A DUP5 PUSH2 0x14FF JUMP JUMPDEST PUSH1 0x1 PUSH1 0x1 PUSH1 0x60 SHL SUB DUP4 AND ISZERO PUSH2 0xBA9 JUMPI PUSH1 0x1 PUSH1 0x1 PUSH1 0xA0 SHL SUB DUP3 AND PUSH2 0xB9F JUMPI PUSH1 0x40 MLOAD PUSH3 0x461BCD PUSH1 0xE5 SHL DUP2 MSTORE PUSH1 0x4 ADD PUSH2 0x478 SWAP1 PUSH2 0x2115 JUMP JUMPDEST PUSH2 0xBA9 DUP3 DUP5 PUSH2 0xC9C JUMP JUMPDEST DUP1 ISZERO PUSH2 0xBEF JUMPI PUSH1 0x0 DUP1 SLOAD PUSH2 0xFF00 NOT AND SWAP1 SSTORE PUSH1 0x40 MLOAD PUSH1 0x1 DUP2 MSTORE PUSH32 0x7F26B83FF96E1F2B6A682F133852F6798A09C465DA95921460CEFB3847402498 SWAP1 PUSH1 0x20 ADD PUSH1 0x40 MLOAD DUP1 SWAP2 SUB SWAP1 LOG1 JUMPDEST POP POP POP POP POP POP POP JUMP JUMPDEST PUSH2 0x15F SLOAD PUSH1 0x1 PUSH1 0x1 PUSH1 0xA0 SHL SUB AND CALLER EQ PUSH2 0xC23 JUMPI PUSH1 0x40 MLOAD PUSH3 0x461BCD PUSH1 0xE5 SHL DUP2 MSTORE PUSH1 0x4 ADD PUSH2 0x478 SWAP1 PUSH2 0x20E0 JUMP JUMPDEST PUSH1 0x1 PUSH1 0x1 PUSH1 0xA0 SHL SUB DUP2 AND PUSH2 0xC88 JUMPI PUSH1 0x40 MLOAD PUSH3 0x461BCD PUSH1 0xE5 SHL DUP2 MSTORE PUSH1 0x20 PUSH1 0x4 DUP3 ADD MSTORE PUSH1 0x26 PUSH1 0x24 DUP3 ADD MSTORE PUSH32 0x4F776E61626C653A206E6577206F776E657220697320746865207A65726F2061 PUSH1 0x44 DUP3 ADD MSTORE PUSH6 0x646472657373 PUSH1 0xD0 SHL PUSH1 0x64 DUP3 ADD MSTORE PUSH1 0x84 ADD PUSH2 0x478 JUMP JUMPDEST PUSH2 0x86F DUP2 PUSH2 0x10B3 JUMP JUMPDEST PUSH1 0x0 PUSH2 0x3B8 DUP3 PUSH2 0x1526 JUMP JUMPDEST PUSH2 0x2710 PUSH1 0x1 PUSH1 0x1 PUSH1 0x60 SHL SUB DUP3 AND GT ISZERO PUSH2 0xD0A JUMPI PUSH1 0x40 MLOAD PUSH3 0x461BCD PUSH1 0xE5 SHL DUP2 MSTORE PUSH1 0x20 PUSH1 0x4 DUP3 ADD MSTORE PUSH1 0x2A PUSH1 0x24 DUP3 ADD MSTORE PUSH32 0x455243323938313A20726F79616C7479206665652077696C6C20657863656564 PUSH1 0x44 DUP3 ADD MSTORE PUSH10 0x2073616C655072696365 PUSH1 0xB0 SHL PUSH1 0x64 DUP3 ADD MSTORE PUSH1 0x84 ADD PUSH2 0x478 JUMP JUMPDEST PUSH1 0x1 PUSH1 0x1 PUSH1 0xA0 SHL SUB DUP3 AND PUSH2 0xD60 JUMPI PUSH1 0x40 MLOAD PUSH3 0x461BCD PUSH1 0xE5 SHL DUP2 MSTORE PUSH1 0x20 PUSH1 0x4 DUP3 ADD MSTORE PUSH1 0x19 PUSH1 0x24 DUP3 ADD MSTORE PUSH32 0x455243323938313A20696E76616C696420726563656976657200000000000000 PUSH1 0x44 DUP3 ADD MSTORE PUSH1 0x64 ADD PUSH2 0x478 JUMP JUMPDEST PUSH1 0x40 DUP1 MLOAD DUP1 DUP3 ADD SWAP1 SWAP2 MSTORE PUSH1 0x1 PUSH1 0x1 PUSH1 0xA0 SHL SUB SWAP1 SWAP3 AND DUP1 DUP4 MSTORE PUSH1 0x1 PUSH1 0x1 PUSH1 0x60 SHL SUB SWAP1 SWAP2 AND PUSH1 0x20 SWAP1 SWAP3 ADD DUP3 SWAP1 MSTORE PUSH1 0x1 PUSH1 0xA0 SHL SWAP1 SWAP2 MUL OR PUSH1 0x65 SSTORE JUMP JUMPDEST PUSH1 0x0 SWAP1 DUP2 MSTORE PUSH1 0x99 PUSH1 0x20 MSTORE PUSH1 0x40 SWAP1 KECCAK256 SLOAD PUSH1 0x1 PUSH1 0x1 PUSH1 0xA0 SHL SUB AND ISZERO ISZERO SWAP1 JUMP JUMPDEST PUSH1 0x0 DUP2 DUP2 MSTORE PUSH1 0x9B PUSH1 0x20 MSTORE PUSH1 0x40 SWAP1 KECCAK256 DUP1 SLOAD PUSH1 0x1 PUSH1 0x1 PUSH1 0xA0 SHL SUB NOT AND PUSH1 0x1 PUSH1 0x1 PUSH1 0xA0 SHL SUB DUP5 AND SWAP1 DUP2 OR SWAP1 SWAP2 SSTORE DUP2 SWAP1 PUSH2 0xDEB DUP3 PUSH2 0x8B5 JUMP JUMPDEST PUSH1 0x1 PUSH1 0x1 PUSH1 0xA0 SHL SUB AND PUSH32 0x8C5BE1E5EBEC7D5BD14F71427D1E84F3DD0314C0F7B2291E5B200AC8C7C3B925 PUSH1 0x40 MLOAD PUSH1 0x40 MLOAD DUP1 SWAP2 SUB SWAP1 LOG4 POP POP JUMP JUMPDEST PUSH1 0x0 PUSH2 0xE2F DUP3 PUSH2 0xD99 JUMP JUMPDEST PUSH2 0xE90 JUMPI PUSH1 0x40 MLOAD PUSH3 0x461BCD PUSH1 0xE5 SHL DUP2 MSTORE PUSH1 0x20 PUSH1 0x4 DUP3 ADD MSTORE PUSH1 0x2C PUSH1 0x24 DUP3 ADD MSTORE PUSH32 0x4552433732313A206F70657261746F7220717565727920666F72206E6F6E6578 PUSH1 0x44 DUP3 ADD MSTORE PUSH12 0x34B9BA32B73A103A37B5B2B7 PUSH1 0xA1 SHL PUSH1 0x64 DUP3 ADD MSTORE PUSH1 0x84 ADD PUSH2 0x478 JUMP JUMPDEST PUSH1 0x0 PUSH2 0xE9B DUP4 PUSH2 0x8B5 JUMP JUMPDEST SWAP1 POP DUP1 PUSH1 0x1 PUSH1 0x1 PUSH1 0xA0 SHL SUB AND DUP5 PUSH1 0x1 PUSH1 0x1 PUSH1 0xA0 SHL SUB AND EQ DUP1 PUSH2 0xEE2 JUMPI POP PUSH1 0x1 PUSH1 0x1 PUSH1 0xA0 SHL SUB DUP1 DUP3 AND PUSH1 0x0 SWAP1 DUP2 MSTORE PUSH1 0x9C PUSH1 0x20 SWAP1 DUP2 MSTORE PUSH1 0x40 DUP1 DUP4 KECCAK256 SWAP4 DUP9 AND DUP4 MSTORE SWAP3 SWAP1 MSTORE KECCAK256 SLOAD PUSH1 0xFF AND JUMPDEST DUP1 PUSH2 0xF06 JUMPI POP DUP4 PUSH1 0x1 PUSH1 0x1 PUSH1 0xA0 SHL SUB AND PUSH2 0xEFB DUP5 PUSH2 0x562 JUMP JUMPDEST PUSH1 0x1 PUSH1 0x1 PUSH1 0xA0 SHL SUB AND EQ JUMPDEST SWAP5 SWAP4 POP POP POP POP JUMP JUMPDEST DUP3 PUSH1 0x1 PUSH1 0x1 PUSH1 0xA0 SHL SUB AND PUSH2 0xF21 DUP3 PUSH2 0x8B5 JUMP JUMPDEST PUSH1 0x1 PUSH1 0x1 PUSH1 0xA0 SHL SUB AND EQ PUSH2 0xF85 JUMPI PUSH1 0x40 MLOAD PUSH3 0x461BCD PUSH1 0xE5 SHL DUP2 MSTORE PUSH1 0x20 PUSH1 0x4 DUP3 ADD MSTORE PUSH1 0x25 PUSH1 0x24 DUP3 ADD MSTORE PUSH32 0x4552433732313A207472616E736665722066726F6D20696E636F727265637420 PUSH1 0x44 DUP3 ADD MSTORE PUSH5 0x37BBB732B9 PUSH1 0xD9 SHL PUSH1 0x64 DUP3 ADD MSTORE PUSH1 0x84 ADD PUSH2 0x478 JUMP JUMPDEST PUSH1 0x1 PUSH1 0x1 PUSH1 0xA0 SHL SUB DUP3 AND PUSH2 0xFE7 JUMPI PUSH1 0x40 MLOAD PUSH3 0x461BCD PUSH1 0xE5 SHL DUP2 MSTORE PUSH1 0x20 PUSH1 0x4 DUP3 ADD MSTORE PUSH1 0x24 DUP1 DUP3 ADD MSTORE PUSH32 0x4552433732313A207472616E7366657220746F20746865207A65726F20616464 PUSH1 0x44 DUP3 ADD MSTORE PUSH4 0x72657373 PUSH1 0xE0 SHL PUSH1 0x64 DUP3 ADD MSTORE PUSH1 0x84 ADD PUSH2 0x478 JUMP JUMPDEST PUSH2 0xFF2 PUSH1 0x0 DUP3 PUSH2 0xDB6 JUMP JUMPDEST PUSH1 0x1 PUSH1 0x1 PUSH1 0xA0 SHL SUB DUP4 AND PUSH1 0x0 SWAP1 DUP2 MSTORE PUSH1 0x9A PUSH1 0x20 MSTORE PUSH1 0x40 DUP2 KECCAK256 DUP1 SLOAD PUSH1 0x1 SWAP3 SWAP1 PUSH2 0x101B SWAP1 DUP5 SWAP1 PUSH2 0x2206 JUMP JUMPDEST SWAP1 SWAP2 SSTORE POP POP PUSH1 0x1 PUSH1 0x1 PUSH1 0xA0 SHL SUB DUP3 AND PUSH1 0x0 SWAP1 DUP2 MSTORE PUSH1 0x9A PUSH1 0x20 MSTORE PUSH1 0x40 DUP2 KECCAK256 DUP1 SLOAD PUSH1 0x1 SWAP3 SWAP1 PUSH2 0x1049 SWAP1 DUP5 SWAP1 PUSH2 0x221D JUMP JUMPDEST SWAP1 SWAP2 SSTORE POP POP PUSH1 0x0 DUP2 DUP2 MSTORE PUSH1 0x99 PUSH1 0x20 MSTORE PUSH1 0x40 DUP1 DUP3 KECCAK256 DUP1 SLOAD PUSH1 0x1 PUSH1 0x1 PUSH1 0xA0 SHL SUB NOT AND PUSH1 0x1 PUSH1 0x1 PUSH1 0xA0 SHL SUB DUP7 DUP2 AND SWAP2 DUP3 OR SWAP1 SWAP3 SSTORE SWAP2 MLOAD DUP5 SWAP4 SWAP2 DUP8 AND SWAP2 PUSH32 0xDDF252AD1BE2C89B69C2B068FC378DAA952BA7F163C4A11628F55A4DF523B3EF SWAP2 LOG4 POP POP POP JUMP JUMPDEST PUSH2 0x86F DUP2 PUSH2 0x1566 JUMP JUMPDEST PUSH2 0x15F DUP1 SLOAD PUSH1 0x1 PUSH1 0x1 PUSH1 0xA0 SHL SUB DUP4 DUP2 AND PUSH1 0x1 PUSH1 0x1 PUSH1 0xA0 SHL SUB NOT DUP4 AND DUP2 OR SWAP1 SWAP4 SSTORE PUSH1 0x40 MLOAD SWAP2 AND SWAP2 SWAP1 DUP3 SWAP1 PUSH32 0x8BE0079C531659141344CD1FD0A4F28419497F9722A3DAAFE3B4186F6B6457E0 SWAP1 PUSH1 0x0 SWAP1 LOG3 POP POP JUMP JUMPDEST DUP2 PUSH1 0x1 PUSH1 0x1 PUSH1 0xA0 SHL SUB AND DUP4 PUSH1 0x1 PUSH1 0x1 PUSH1 0xA0 SHL SUB AND SUB PUSH2 0x1167 JUMPI PUSH1 0x40 MLOAD PUSH3 0x461BCD PUSH1 0xE5 SHL DUP2 MSTORE PUSH1 0x20 PUSH1 0x4 DUP3 ADD MSTORE PUSH1 0x19 PUSH1 0x24 DUP3 ADD MSTORE PUSH32 0x4552433732313A20617070726F766520746F2063616C6C657200000000000000 PUSH1 0x44 DUP3 ADD MSTORE PUSH1 0x64 ADD PUSH2 0x478 JUMP JUMPDEST PUSH1 0x1 PUSH1 0x1 PUSH1 0xA0 SHL SUB DUP4 DUP2 AND PUSH1 0x0 DUP2 DUP2 MSTORE PUSH1 0x9C PUSH1 0x20 SWAP1 DUP2 MSTORE PUSH1 0x40 DUP1 DUP4 KECCAK256 SWAP5 DUP8 AND DUP1 DUP5 MSTORE SWAP5 DUP3 MSTORE SWAP2 DUP3 SWAP1 KECCAK256 DUP1 SLOAD PUSH1 0xFF NOT AND DUP7 ISZERO ISZERO SWAP1 DUP2 OR SWAP1 SWAP2 SSTORE SWAP2 MLOAD SWAP2 DUP3 MSTORE PUSH32 0x17307EAB39AB6107E8899845AD3D59BD9653F200F220920489CA2B5937696C31 SWAP2 ADD PUSH1 0x40 MLOAD DUP1 SWAP2 SUB SWAP1 LOG3 POP POP POP JUMP JUMPDEST PUSH2 0x11DF DUP5 DUP5 DUP5 PUSH2 0xF0E JUMP JUMPDEST PUSH2 0x11EB DUP5 DUP5 DUP5 DUP5 PUSH2 0x156F JUMP JUMPDEST PUSH2 0x4CA JUMPI PUSH1 0x40 MLOAD PUSH3 0x461BCD PUSH1 0xE5 SHL DUP2 MSTORE PUSH1 0x4 ADD PUSH2 0x478 SWAP1 PUSH2 0x2235 JUMP JUMPDEST PUSH1 0x60 PUSH2 0x1212 DUP3 PUSH2 0xD99 JUMP JUMPDEST PUSH2 0x1278 JUMPI PUSH1 0x40 MLOAD PUSH3 0x461BCD PUSH1 0xE5 SHL DUP2 MSTORE PUSH1 0x20 PUSH1 0x4 DUP3 ADD MSTORE PUSH1 0x31 PUSH1 0x24 DUP3 ADD MSTORE PUSH32 0x45524337323155524953746F726167653A2055524920717565727920666F7220 PUSH1 0x44 DUP3 ADD MSTORE PUSH17 0x3737B732BC34B9BA32B73A103A37B5B2B7 PUSH1 0x79 SHL PUSH1 0x64 DUP3 ADD MSTORE PUSH1 0x84 ADD PUSH2 0x478 JUMP JUMPDEST PUSH1 0x0 DUP3 DUP2 MSTORE PUSH1 0xC9 PUSH1 0x20 MSTORE PUSH1 0x40 DUP2 KECCAK256 DUP1 SLOAD PUSH2 0x1291 SWAP1 PUSH2 0x20A6 JUMP JUMPDEST DUP1 PUSH1 0x1F ADD PUSH1 0x20 DUP1 SWAP2 DIV MUL PUSH1 0x20 ADD PUSH1 0x40 MLOAD SWAP1 DUP2 ADD PUSH1 0x40 MSTORE DUP1 SWAP3 SWAP2 SWAP1 DUP2 DUP2 MSTORE PUSH1 0x20 ADD DUP3 DUP1 SLOAD PUSH2 0x12BD SWAP1 PUSH2 0x20A6 JUMP JUMPDEST DUP1 ISZERO PUSH2 0x130A JUMPI DUP1 PUSH1 0x1F LT PUSH2 0x12DF JUMPI PUSH2 0x100 DUP1 DUP4 SLOAD DIV MUL DUP4 MSTORE SWAP2 PUSH1 0x20 ADD SWAP2 PUSH2 0x130A JUMP JUMPDEST DUP3 ADD SWAP2 SWAP1 PUSH1 0x0 MSTORE PUSH1 0x20 PUSH1 0x0 KECCAK256 SWAP1 JUMPDEST DUP2 SLOAD DUP2 MSTORE SWAP1 PUSH1 0x1 ADD SWAP1 PUSH1 0x20 ADD DUP1 DUP4 GT PUSH2 0x12ED JUMPI DUP3 SWAP1 SUB PUSH1 0x1F AND DUP3 ADD SWAP2 JUMPDEST POP POP POP POP POP SWAP1 POP PUSH1 0x0 PUSH2 0x1328 PUSH1 0x40 DUP1 MLOAD PUSH1 0x20 DUP2 ADD SWAP1 SWAP2 MSTORE PUSH1 0x0 DUP2 MSTORE SWAP1 JUMP JUMPDEST SWAP1 POP DUP1 MLOAD PUSH1 0x0 SUB PUSH2 0x133A JUMPI POP SWAP3 SWAP2 POP POP JUMP JUMPDEST DUP2 MLOAD ISZERO PUSH2 0x136C JUMPI DUP1 DUP3 PUSH1 0x40 MLOAD PUSH1 0x20 ADD PUSH2 0x1354 SWAP3 SWAP2 SWAP1 PUSH2 0x2287 JUMP JUMPDEST PUSH1 0x40 MLOAD PUSH1 0x20 DUP2 DUP4 SUB SUB DUP2 MSTORE SWAP1 PUSH1 0x40 MSTORE SWAP3 POP POP POP SWAP2 SWAP1 POP JUMP JUMPDEST PUSH2 0xF06 DUP5 PUSH2 0x1670 JUMP JUMPDEST PUSH2 0x8B1 DUP3 DUP3 PUSH1 0x40 MLOAD DUP1 PUSH1 0x20 ADD PUSH1 0x40 MSTORE DUP1 PUSH1 0x0 DUP2 MSTORE POP PUSH2 0x1748 JUMP JUMPDEST PUSH2 0x1398 DUP3 PUSH2 0xD99 JUMP JUMPDEST PUSH2 0x13FB JUMPI PUSH1 0x40 MLOAD PUSH3 0x461BCD PUSH1 0xE5 SHL DUP2 MSTORE PUSH1 0x20 PUSH1 0x4 DUP3 ADD MSTORE PUSH1 0x2E PUSH1 0x24 DUP3 ADD MSTORE PUSH32 0x45524337323155524953746F726167653A2055524920736574206F66206E6F6E PUSH1 0x44 DUP3 ADD MSTORE PUSH14 0x32BC34B9BA32B73A103A37B5B2B7 PUSH1 0x91 SHL PUSH1 0x64 DUP3 ADD MSTORE PUSH1 0x84 ADD PUSH2 0x478 JUMP JUMPDEST PUSH1 0x0 DUP3 DUP2 MSTORE PUSH1 0xC9 PUSH1 0x20 SWAP1 DUP2 MSTORE PUSH1 0x40 SWAP1 SWAP2 KECCAK256 DUP3 MLOAD PUSH2 0x6FA SWAP3 DUP5 ADD SWAP1 PUSH2 0x1B0D JUMP JUMPDEST PUSH1 0x0 DUP1 SLOAD PUSH2 0x100 SWAP1 DIV PUSH1 0xFF AND ISZERO PUSH2 0x1461 JUMPI DUP2 PUSH1 0xFF AND PUSH1 0x1 EQ DUP1 ISZERO PUSH2 0x143D JUMPI POP ADDRESS EXTCODESIZE ISZERO JUMPDEST PUSH2 0x1459 JUMPI PUSH1 0x40 MLOAD PUSH3 0x461BCD PUSH1 0xE5 SHL DUP2 MSTORE PUSH1 0x4 ADD PUSH2 0x478 SWAP1 PUSH2 0x22B6 JUMP JUMPDEST POP PUSH1 0x0 SWAP2 SWAP1 POP JUMP JUMPDEST PUSH1 0x0 SLOAD PUSH1 0xFF DUP1 DUP5 AND SWAP2 AND LT PUSH2 0x1488 JUMPI PUSH1 0x40 MLOAD PUSH3 0x461BCD PUSH1 0xE5 SHL DUP2 MSTORE PUSH1 0x4 ADD PUSH2 0x478 SWAP1 PUSH2 0x22B6 JUMP JUMPDEST POP PUSH1 0x0 DUP1 SLOAD PUSH1 0xFF NOT AND PUSH1 0xFF SWAP3 SWAP1 SWAP3 AND SWAP2 SWAP1 SWAP2 OR SWAP1 SSTORE PUSH1 0x1 SWAP1 JUMP JUMPDEST SWAP2 SWAP1 POP JUMP JUMPDEST PUSH1 0x0 SLOAD PUSH2 0x100 SWAP1 DIV PUSH1 0xFF AND PUSH2 0x14CE JUMPI PUSH1 0x40 MLOAD PUSH3 0x461BCD PUSH1 0xE5 SHL DUP2 MSTORE PUSH1 0x4 ADD PUSH2 0x478 SWAP1 PUSH2 0x2304 JUMP JUMPDEST PUSH2 0x8B1 DUP3 DUP3 PUSH2 0x177B JUMP JUMPDEST PUSH1 0x0 SLOAD PUSH2 0x100 SWAP1 DIV PUSH1 0xFF AND PUSH2 0x9E8 JUMPI PUSH1 0x40 MLOAD PUSH3 0x461BCD PUSH1 0xE5 SHL DUP2 MSTORE PUSH1 0x4 ADD PUSH2 0x478 SWAP1 PUSH2 0x2304 JUMP JUMPDEST PUSH1 0x0 SLOAD PUSH2 0x100 SWAP1 DIV PUSH1 0xFF AND PUSH2 0xC88 JUMPI PUSH1 0x40 MLOAD PUSH3 0x461BCD PUSH1 0xE5 SHL DUP2 MSTORE PUSH1 0x4 ADD PUSH2 0x478 SWAP1 PUSH2 0x2304 JUMP JUMPDEST PUSH1 0x0 PUSH1 0x1 PUSH1 0x1 PUSH1 0xE0 SHL SUB NOT DUP3 AND PUSH4 0x80AC58CD PUSH1 0xE0 SHL EQ DUP1 PUSH2 0x1557 JUMPI POP PUSH1 0x1 PUSH1 0x1 PUSH1 0xE0 SHL SUB NOT DUP3 AND PUSH4 0x5B5E139F PUSH1 0xE0 SHL EQ JUMPDEST DUP1 PUSH2 0x3B8 JUMPI POP PUSH2 0x3B8 DUP3 PUSH2 0x17C9 JUMP JUMPDEST PUSH2 0xA15 DUP2 PUSH2 0x17FE JUMP JUMPDEST PUSH1 0x0 PUSH1 0x1 PUSH1 0x1 PUSH1 0xA0 SHL SUB DUP5 AND EXTCODESIZE ISZERO PUSH2 0x1665 JUMPI PUSH1 0x40 MLOAD PUSH4 0xA85BD01 PUSH1 0xE1 SHL DUP2 MSTORE PUSH1 0x1 PUSH1 0x1 PUSH1 0xA0 SHL SUB DUP6 AND SWAP1 PUSH4 0x150B7A02 SWAP1 PUSH2 0x15B3 SWAP1 CALLER SWAP1 DUP10 SWAP1 DUP9 SWAP1 DUP9 SWAP1 PUSH1 0x4 ADD PUSH2 0x234F JUMP JUMPDEST PUSH1 0x20 PUSH1 0x40 MLOAD DUP1 DUP4 SUB DUP2 PUSH1 0x0 DUP8 GAS CALL SWAP3 POP POP POP DUP1 ISZERO PUSH2 0x15EE JUMPI POP PUSH1 0x40 DUP1 MLOAD PUSH1 0x1F RETURNDATASIZE SWAP1 DUP2 ADD PUSH1 0x1F NOT AND DUP3 ADD SWAP1 SWAP3 MSTORE PUSH2 0x15EB SWAP2 DUP2 ADD SWAP1 PUSH2 0x238C JUMP JUMPDEST PUSH1 0x1 JUMPDEST PUSH2 0x164B JUMPI RETURNDATASIZE DUP1 DUP1 ISZERO PUSH2 0x161C JUMPI PUSH1 0x40 MLOAD SWAP2 POP PUSH1 0x1F NOT PUSH1 0x3F RETURNDATASIZE ADD AND DUP3 ADD PUSH1 0x40 MSTORE RETURNDATASIZE DUP3 MSTORE RETURNDATASIZE PUSH1 0x0 PUSH1 0x20 DUP5 ADD RETURNDATACOPY PUSH2 0x1621 JUMP JUMPDEST PUSH1 0x60 SWAP2 POP JUMPDEST POP DUP1 MLOAD PUSH1 0x0 SUB PUSH2 0x1643 JUMPI PUSH1 0x40 MLOAD PUSH3 0x461BCD PUSH1 0xE5 SHL DUP2 MSTORE PUSH1 0x4 ADD PUSH2 0x478 SWAP1 PUSH2 0x2235 JUMP JUMPDEST DUP1 MLOAD DUP2 PUSH1 0x20 ADD REVERT JUMPDEST PUSH1 0x1 PUSH1 0x1 PUSH1 0xE0 SHL SUB NOT AND PUSH4 0xA85BD01 PUSH1 0xE1 SHL EQ SWAP1 POP PUSH2 0xF06 JUMP JUMPDEST POP PUSH1 0x1 SWAP5 SWAP4 POP POP POP POP JUMP JUMPDEST PUSH1 0x60 PUSH2 0x167B DUP3 PUSH2 0xD99 JUMP JUMPDEST PUSH2 0x16DF JUMPI PUSH1 0x40 MLOAD PUSH3 0x461BCD PUSH1 0xE5 SHL DUP2 MSTORE PUSH1 0x20 PUSH1 0x4 DUP3 ADD MSTORE PUSH1 0x2F PUSH1 0x24 DUP3 ADD MSTORE PUSH32 0x4552433732314D657461646174613A2055524920717565727920666F72206E6F PUSH1 0x44 DUP3 ADD MSTORE PUSH15 0x3732BC34B9BA32B73A103A37B5B2B7 PUSH1 0x89 SHL PUSH1 0x64 DUP3 ADD MSTORE PUSH1 0x84 ADD PUSH2 0x478 JUMP JUMPDEST PUSH1 0x0 PUSH2 0x16F6 PUSH1 0x40 DUP1 MLOAD PUSH1 0x20 DUP2 ADD SWAP1 SWAP2 MSTORE PUSH1 0x0 DUP2 MSTORE SWAP1 JUMP JUMPDEST SWAP1 POP PUSH1 0x0 DUP2 MLOAD GT PUSH2 0x1716 JUMPI PUSH1 0x40 MLOAD DUP1 PUSH1 0x20 ADD PUSH1 0x40 MSTORE DUP1 PUSH1 0x0 DUP2 MSTORE POP PUSH2 0x1741 JUMP JUMPDEST DUP1 PUSH2 0x1720 DUP5 PUSH2 0x183E JUMP JUMPDEST PUSH1 0x40 MLOAD PUSH1 0x20 ADD PUSH2 0x1731 SWAP3 SWAP2 SWAP1 PUSH2 0x2287 JUMP JUMPDEST PUSH1 0x40 MLOAD PUSH1 0x20 DUP2 DUP4 SUB SUB DUP2 MSTORE SWAP1 PUSH1 0x40 MSTORE JUMPDEST SWAP4 SWAP3 POP POP POP JUMP JUMPDEST PUSH2 0x1752 DUP4 DUP4 PUSH2 0x193F JUMP JUMPDEST PUSH2 0x175F PUSH1 0x0 DUP5 DUP5 DUP5 PUSH2 0x156F JUMP JUMPDEST PUSH2 0x6FA JUMPI PUSH1 0x40 MLOAD PUSH3 0x461BCD PUSH1 0xE5 SHL DUP2 MSTORE PUSH1 0x4 ADD PUSH2 0x478 SWAP1 PUSH2 0x2235 JUMP JUMPDEST PUSH1 0x0 SLOAD PUSH2 0x100 SWAP1 DIV PUSH1 0xFF AND PUSH2 0x17A2 JUMPI PUSH1 0x40 MLOAD PUSH3 0x461BCD PUSH1 0xE5 SHL DUP2 MSTORE PUSH1 0x4 ADD PUSH2 0x478 SWAP1 PUSH2 0x2304 JUMP JUMPDEST DUP2 MLOAD PUSH2 0x17B5 SWAP1 PUSH1 0x97 SWAP1 PUSH1 0x20 DUP6 ADD SWAP1 PUSH2 0x1B0D JUMP JUMPDEST POP DUP1 MLOAD PUSH2 0x6FA SWAP1 PUSH1 0x98 SWAP1 PUSH1 0x20 DUP5 ADD SWAP1 PUSH2 0x1B0D JUMP JUMPDEST PUSH1 0x0 PUSH1 0x1 PUSH1 0x1 PUSH1 0xE0 SHL SUB NOT DUP3 AND PUSH4 0x152A902D PUSH1 0xE1 SHL EQ DUP1 PUSH2 0x3B8 JUMPI POP PUSH4 0x1FFC9A7 PUSH1 0xE0 SHL PUSH1 0x1 PUSH1 0x1 PUSH1 0xE0 SHL SUB NOT DUP4 AND EQ PUSH2 0x3B8 JUMP JUMPDEST PUSH2 0x1807 DUP2 PUSH2 0x1A72 JUMP JUMPDEST PUSH1 0x0 DUP2 DUP2 MSTORE PUSH1 0xC9 PUSH1 0x20 MSTORE PUSH1 0x40 SWAP1 KECCAK256 DUP1 SLOAD PUSH2 0x1820 SWAP1 PUSH2 0x20A6 JUMP JUMPDEST ISZERO SWAP1 POP PUSH2 0x86F JUMPI PUSH1 0x0 DUP2 DUP2 MSTORE PUSH1 0xC9 PUSH1 0x20 MSTORE PUSH1 0x40 DUP2 KECCAK256 PUSH2 0x86F SWAP2 PUSH2 0x1B91 JUMP JUMPDEST PUSH1 0x60 DUP2 PUSH1 0x0 SUB PUSH2 0x1865 JUMPI POP POP PUSH1 0x40 DUP1 MLOAD DUP1 DUP3 ADD SWAP1 SWAP2 MSTORE PUSH1 0x1 DUP2 MSTORE PUSH1 0x3 PUSH1 0xFC SHL PUSH1 0x20 DUP3 ADD MSTORE SWAP1 JUMP JUMPDEST DUP2 PUSH1 0x0 JUMPDEST DUP2 ISZERO PUSH2 0x188F JUMPI DUP1 PUSH2 0x1879 DUP2 PUSH2 0x23A9 JUMP JUMPDEST SWAP2 POP PUSH2 0x1888 SWAP1 POP PUSH1 0xA DUP4 PUSH2 0x21F2 JUMP JUMPDEST SWAP2 POP PUSH2 0x1869 JUMP JUMPDEST PUSH1 0x0 DUP2 PUSH8 0xFFFFFFFFFFFFFFFF DUP2 GT ISZERO PUSH2 0x18AA JUMPI PUSH2 0x18AA PUSH2 0x1C91 JUMP JUMPDEST PUSH1 0x40 MLOAD SWAP1 DUP1 DUP3 MSTORE DUP1 PUSH1 0x1F ADD PUSH1 0x1F NOT AND PUSH1 0x20 ADD DUP3 ADD PUSH1 0x40 MSTORE DUP1 ISZERO PUSH2 0x18D4 JUMPI PUSH1 0x20 DUP3 ADD DUP2 DUP1 CALLDATASIZE DUP4 CALLDATACOPY ADD SWAP1 POP JUMPDEST POP SWAP1 POP JUMPDEST DUP5 ISZERO PUSH2 0xF06 JUMPI PUSH2 0x18E9 PUSH1 0x1 DUP4 PUSH2 0x2206 JUMP JUMPDEST SWAP2 POP PUSH2 0x18F6 PUSH1 0xA DUP7 PUSH2 0x23C2 JUMP JUMPDEST PUSH2 0x1901 SWAP1 PUSH1 0x30 PUSH2 0x221D JUMP JUMPDEST PUSH1 0xF8 SHL DUP2 DUP4 DUP2 MLOAD DUP2 LT PUSH2 0x1916 JUMPI PUSH2 0x1916 PUSH2 0x23D6 JUMP JUMPDEST PUSH1 0x20 ADD ADD SWAP1 PUSH1 0x1 PUSH1 0x1 PUSH1 0xF8 SHL SUB NOT AND SWAP1 DUP2 PUSH1 0x0 BYTE SWAP1 MSTORE8 POP PUSH2 0x1938 PUSH1 0xA DUP7 PUSH2 0x21F2 JUMP JUMPDEST SWAP5 POP PUSH2 0x18D8 JUMP JUMPDEST PUSH1 0x1 PUSH1 0x1 PUSH1 0xA0 SHL SUB DUP3 AND PUSH2 0x1995 JUMPI PUSH1 0x40 MLOAD PUSH3 0x461BCD PUSH1 0xE5 SHL DUP2 MSTORE PUSH1 0x20 PUSH1 0x4 DUP3 ADD DUP2 SWAP1 MSTORE PUSH1 0x24 DUP3 ADD MSTORE PUSH32 0x4552433732313A206D696E7420746F20746865207A65726F2061646472657373 PUSH1 0x44 DUP3 ADD MSTORE PUSH1 0x64 ADD PUSH2 0x478 JUMP JUMPDEST PUSH2 0x199E DUP2 PUSH2 0xD99 JUMP JUMPDEST ISZERO PUSH2 0x19EB JUMPI PUSH1 0x40 MLOAD PUSH3 0x461BCD PUSH1 0xE5 SHL DUP2 MSTORE PUSH1 0x20 PUSH1 0x4 DUP3 ADD MSTORE PUSH1 0x1C PUSH1 0x24 DUP3 ADD MSTORE PUSH32 0x4552433732313A20746F6B656E20616C7265616479206D696E74656400000000 PUSH1 0x44 DUP3 ADD MSTORE PUSH1 0x64 ADD PUSH2 0x478 JUMP JUMPDEST PUSH1 0x1 PUSH1 0x1 PUSH1 0xA0 SHL SUB DUP3 AND PUSH1 0x0 SWAP1 DUP2 MSTORE PUSH1 0x9A PUSH1 0x20 MSTORE PUSH1 0x40 DUP2 KECCAK256 DUP1 SLOAD PUSH1 0x1 SWAP3 SWAP1 PUSH2 0x1A14 SWAP1 DUP5 SWAP1 PUSH2 0x221D JUMP JUMPDEST SWAP1 SWAP2 SSTORE POP POP PUSH1 0x0 DUP2 DUP2 MSTORE PUSH1 0x99 PUSH1 0x20 MSTORE PUSH1 0x40 DUP1 DUP3 KECCAK256 DUP1 SLOAD PUSH1 0x1 PUSH1 0x1 PUSH1 0xA0 SHL SUB NOT AND PUSH1 0x1 PUSH1 0x1 PUSH1 0xA0 SHL SUB DUP7 AND SWAP1 DUP2 OR SWAP1 SWAP2 SSTORE SWAP1 MLOAD DUP4 SWAP3 SWAP1 PUSH32 0xDDF252AD1BE2C89B69C2B068FC378DAA952BA7F163C4A11628F55A4DF523B3EF SWAP1 DUP3 SWAP1 LOG4 POP POP JUMP JUMPDEST PUSH1 0x0 PUSH2 0x1A7D DUP3 PUSH2 0x8B5 JUMP JUMPDEST SWAP1 POP PUSH2 0x1A8A PUSH1 0x0 DUP4 PUSH2 0xDB6 JUMP JUMPDEST PUSH1 0x1 PUSH1 0x1 PUSH1 0xA0 SHL SUB DUP2 AND PUSH1 0x0 SWAP1 DUP2 MSTORE PUSH1 0x9A PUSH1 0x20 MSTORE PUSH1 0x40 DUP2 KECCAK256 DUP1 SLOAD PUSH1 0x1 SWAP3 SWAP1 PUSH2 0x1AB3 SWAP1 DUP5 SWAP1 PUSH2 0x2206 JUMP JUMPDEST SWAP1 SWAP2 SSTORE POP POP PUSH1 0x0 DUP3 DUP2 MSTORE PUSH1 0x99 PUSH1 0x20 MSTORE PUSH1 0x40 DUP1 DUP3 KECCAK256 DUP1 SLOAD PUSH1 0x1 PUSH1 0x1 PUSH1 0xA0 SHL SUB NOT AND SWAP1 SSTORE MLOAD DUP4 SWAP2 SWAP1 PUSH1 0x1 PUSH1 0x1 PUSH1 0xA0 SHL SUB DUP5 AND SWAP1 PUSH32 0xDDF252AD1BE2C89B69C2B068FC378DAA952BA7F163C4A11628F55A4DF523B3EF SWAP1 DUP4 SWAP1 LOG4 POP POP JUMP JUMPDEST DUP3 DUP1 SLOAD PUSH2 0x1B19 SWAP1 PUSH2 0x20A6 JUMP JUMPDEST SWAP1 PUSH1 0x0 MSTORE PUSH1 0x20 PUSH1 0x0 KECCAK256 SWAP1 PUSH1 0x1F ADD PUSH1 0x20 SWAP1 DIV DUP2 ADD SWAP3 DUP3 PUSH2 0x1B3B JUMPI PUSH1 0x0 DUP6 SSTORE PUSH2 0x1B81 JUMP JUMPDEST DUP3 PUSH1 0x1F LT PUSH2 0x1B54 JUMPI DUP1 MLOAD PUSH1 0xFF NOT AND DUP4 DUP1 ADD OR DUP6 SSTORE PUSH2 0x1B81 JUMP JUMPDEST DUP3 DUP1 ADD PUSH1 0x1 ADD DUP6 SSTORE DUP3 ISZERO PUSH2 0x1B81 JUMPI SWAP2 DUP3 ADD JUMPDEST DUP3 DUP2 GT ISZERO PUSH2 0x1B81 JUMPI DUP3 MLOAD DUP3 SSTORE SWAP2 PUSH1 0x20 ADD SWAP2 SWAP1 PUSH1 0x1 ADD SWAP1 PUSH2 0x1B66 JUMP JUMPDEST POP PUSH2 0x1B8D SWAP3 SWAP2 POP PUSH2 0x1BC7 JUMP JUMPDEST POP SWAP1 JUMP JUMPDEST POP DUP1 SLOAD PUSH2 0x1B9D SWAP1 PUSH2 0x20A6 JUMP JUMPDEST PUSH1 0x0 DUP3 SSTORE DUP1 PUSH1 0x1F LT PUSH2 0x1BAD JUMPI POP POP JUMP JUMPDEST PUSH1 0x1F ADD PUSH1 0x20 SWAP1 DIV SWAP1 PUSH1 0x0 MSTORE PUSH1 0x20 PUSH1 0x0 KECCAK256 SWAP1 DUP2 ADD SWAP1 PUSH2 0x86F SWAP2 SWAP1 JUMPDEST JUMPDEST DUP1 DUP3 GT ISZERO PUSH2 0x1B8D JUMPI PUSH1 0x0 DUP2 SSTORE PUSH1 0x1 ADD PUSH2 0x1BC8 JUMP JUMPDEST PUSH1 0x1 PUSH1 0x1 PUSH1 0xE0 SHL SUB NOT DUP2 AND DUP2 EQ PUSH2 0x86F JUMPI PUSH1 0x0 DUP1 REVERT JUMPDEST PUSH1 0x0 PUSH1 0x20 DUP3 DUP5 SUB SLT ISZERO PUSH2 0x1C04 JUMPI PUSH1 0x0 DUP1 REVERT JUMPDEST DUP2 CALLDATALOAD PUSH2 0x1741 DUP2 PUSH2 0x1BDC JUMP JUMPDEST PUSH1 0x0 JUMPDEST DUP4 DUP2 LT ISZERO PUSH2 0x1C2A JUMPI DUP2 DUP2 ADD MLOAD DUP4 DUP3 ADD MSTORE PUSH1 0x20 ADD PUSH2 0x1C12 JUMP JUMPDEST DUP4 DUP2 GT ISZERO PUSH2 0x4CA JUMPI POP POP PUSH1 0x0 SWAP2 ADD MSTORE JUMP JUMPDEST PUSH1 0x0 DUP2 MLOAD DUP1 DUP5 MSTORE PUSH2 0x1C53 DUP2 PUSH1 0x20 DUP7 ADD PUSH1 0x20 DUP7 ADD PUSH2 0x1C0F JUMP JUMPDEST PUSH1 0x1F ADD PUSH1 0x1F NOT AND SWAP3 SWAP1 SWAP3 ADD PUSH1 0x20 ADD SWAP3 SWAP2 POP POP JUMP JUMPDEST PUSH1 0x20 DUP2 MSTORE PUSH1 0x0 PUSH2 0x1741 PUSH1 0x20 DUP4 ADD DUP5 PUSH2 0x1C3B JUMP JUMPDEST DUP1 CALLDATALOAD PUSH1 0x1 PUSH1 0x1 PUSH1 0xA0 SHL SUB DUP2 AND DUP2 EQ PUSH2 0x14A2 JUMPI PUSH1 0x0 DUP1 REVERT JUMPDEST PUSH4 0x4E487B71 PUSH1 0xE0 SHL PUSH1 0x0 MSTORE PUSH1 0x41 PUSH1 0x4 MSTORE PUSH1 0x24 PUSH1 0x0 REVERT JUMPDEST PUSH1 0x0 PUSH8 0xFFFFFFFFFFFFFFFF DUP1 DUP5 GT ISZERO PUSH2 0x1CC2 JUMPI PUSH2 0x1CC2 PUSH2 0x1C91 JUMP JUMPDEST PUSH1 0x40 MLOAD PUSH1 0x1F DUP6 ADD PUSH1 0x1F NOT SWAP1 DUP2 AND PUSH1 0x3F ADD AND DUP2 ADD SWAP1 DUP3 DUP3 GT DUP2 DUP4 LT OR ISZERO PUSH2 0x1CEA JUMPI PUSH2 0x1CEA PUSH2 0x1C91 JUMP JUMPDEST DUP2 PUSH1 0x40 MSTORE DUP1 SWAP4 POP DUP6 DUP2 MSTORE DUP7 DUP7 DUP7 ADD GT ISZERO PUSH2 0x1D03 JUMPI PUSH1 0x0 DUP1 REVERT JUMPDEST DUP6 DUP6 PUSH1 0x20 DUP4 ADD CALLDATACOPY PUSH1 0x0 PUSH1 0x20 DUP8 DUP4 ADD ADD MSTORE POP POP POP SWAP4 SWAP3 POP POP POP JUMP JUMPDEST PUSH1 0x0 DUP3 PUSH1 0x1F DUP4 ADD SLT PUSH2 0x1D2E JUMPI PUSH1 0x0 DUP1 REVERT JUMPDEST PUSH2 0x1741 DUP4 DUP4 CALLDATALOAD PUSH1 0x20 DUP6 ADD PUSH2 0x1CA7 JUMP JUMPDEST DUP1 CALLDATALOAD PUSH1 0x1 PUSH1 0x1 PUSH1 0x60 SHL SUB DUP2 AND DUP2 EQ PUSH2 0x14A2 JUMPI PUSH1 0x0 DUP1 REVERT JUMPDEST PUSH1 0x0 DUP1 PUSH1 0x0 DUP1 PUSH1 0x80 DUP6 DUP8 SUB SLT ISZERO PUSH2 0x1D6A JUMPI PUSH1 0x0 DUP1 REVERT JUMPDEST PUSH2 0x1D73 DUP6 PUSH2 0x1C7A JUMP JUMPDEST SWAP4 POP PUSH1 0x20 DUP6 ADD CALLDATALOAD PUSH8 0xFFFFFFFFFFFFFFFF DUP2 GT ISZERO PUSH2 0x1D8F JUMPI PUSH1 0x0 DUP1 REVERT JUMPDEST PUSH2 0x1D9B DUP8 DUP3 DUP9 ADD PUSH2 0x1D1D JUMP JUMPDEST SWAP4 POP POP PUSH2 0x1DAA PUSH1 0x40 DUP7 ADD PUSH2 0x1D3D JUMP JUMPDEST SWAP2 POP PUSH2 0x1DB8 PUSH1 0x60 DUP7 ADD PUSH2 0x1C7A JUMP JUMPDEST SWAP1 POP SWAP3 SWAP6 SWAP2 SWAP5 POP SWAP3 POP JUMP JUMPDEST PUSH1 0x0 PUSH1 0x20 DUP3 DUP5 SUB SLT ISZERO PUSH2 0x1DD5 JUMPI PUSH1 0x0 DUP1 REVERT JUMPDEST POP CALLDATALOAD SWAP2 SWAP1 POP JUMP JUMPDEST PUSH1 0x0 DUP1 PUSH1 0x40 DUP4 DUP6 SUB SLT ISZERO PUSH2 0x1DEF JUMPI PUSH1 0x0 DUP1 REVERT JUMPDEST PUSH2 0x1DF8 DUP4 PUSH2 0x1C7A JUMP JUMPDEST SWAP5 PUSH1 0x20 SWAP4 SWAP1 SWAP4 ADD CALLDATALOAD SWAP4 POP POP POP JUMP JUMPDEST PUSH1 0x0 DUP1 PUSH1 0x0 PUSH1 0x60 DUP5 DUP7 SUB SLT ISZERO PUSH2 0x1E1B JUMPI PUSH1 0x0 DUP1 REVERT JUMPDEST PUSH2 0x1E24 DUP5 PUSH2 0x1C7A JUMP JUMPDEST SWAP3 POP PUSH2 0x1E32 PUSH1 0x20 DUP6 ADD PUSH2 0x1C7A JUMP JUMPDEST SWAP2 POP PUSH1 0x40 DUP5 ADD CALLDATALOAD SWAP1 POP SWAP3 POP SWAP3 POP SWAP3 JUMP JUMPDEST PUSH1 0x0 DUP1 PUSH1 0x40 DUP4 DUP6 SUB SLT ISZERO PUSH2 0x1E55 JUMPI PUSH1 0x0 DUP1 REVERT JUMPDEST POP POP DUP1 CALLDATALOAD SWAP3 PUSH1 0x20 SWAP1 SWAP2 ADD CALLDATALOAD SWAP2 POP JUMP JUMPDEST PUSH1 0x0 PUSH1 0x20 DUP3 DUP5 SUB SLT ISZERO PUSH2 0x1E76 JUMPI PUSH1 0x0 DUP1 REVERT JUMPDEST DUP2 CALLDATALOAD PUSH8 0xFFFFFFFFFFFFFFFF DUP2 GT ISZERO PUSH2 0x1E8D JUMPI PUSH1 0x0 DUP1 REVERT JUMPDEST PUSH2 0xF06 DUP5 DUP3 DUP6 ADD PUSH2 0x1D1D JUMP JUMPDEST PUSH1 0x0 PUSH1 0x20 DUP3 DUP5 SUB SLT ISZERO PUSH2 0x1EAB JUMPI PUSH1 0x0 DUP1 REVERT JUMPDEST PUSH2 0x1741 DUP3 PUSH2 0x1C7A JUMP JUMPDEST PUSH1 0x0 DUP1 PUSH1 0x40 DUP4 DUP6 SUB SLT ISZERO PUSH2 0x1EC7 JUMPI PUSH1 0x0 DUP1 REVERT JUMPDEST PUSH2 0x1ED0 DUP4 PUSH2 0x1C7A JUMP JUMPDEST SWAP2 POP PUSH1 0x20 DUP4 ADD CALLDATALOAD DUP1 ISZERO ISZERO DUP2 EQ PUSH2 0x1EE5 JUMPI PUSH1 0x0 DUP1 REVERT JUMPDEST DUP1 SWAP2 POP POP SWAP3 POP SWAP3 SWAP1 POP JUMP JUMPDEST PUSH1 0x0 DUP1 PUSH1 0x0 DUP1 PUSH1 0x80 DUP6 DUP8 SUB SLT ISZERO PUSH2 0x1F06 JUMPI PUSH1 0x0 DUP1 REVERT JUMPDEST PUSH2 0x1F0F DUP6 PUSH2 0x1C7A JUMP JUMPDEST SWAP4 POP PUSH2 0x1F1D PUSH1 0x20 DUP7 ADD PUSH2 0x1C7A JUMP JUMPDEST SWAP3 POP PUSH1 0x40 DUP6 ADD CALLDATALOAD SWAP2 POP PUSH1 0x60 DUP6 ADD CALLDATALOAD PUSH8 0xFFFFFFFFFFFFFFFF DUP2 GT ISZERO PUSH2 0x1F40 JUMPI PUSH1 0x0 DUP1 REVERT JUMPDEST DUP6 ADD PUSH1 0x1F DUP2 ADD DUP8 SGT PUSH2 0x1F51 JUMPI PUSH1 0x0 DUP1 REVERT JUMPDEST PUSH2 0x1F60 DUP8 DUP3 CALLDATALOAD PUSH1 0x20 DUP5 ADD PUSH2 0x1CA7 JUMP JUMPDEST SWAP2 POP POP SWAP3 SWAP6 SWAP2 SWAP5 POP SWAP3 POP JUMP JUMPDEST PUSH1 0x0 DUP1 PUSH1 0x40 DUP4 DUP6 SUB SLT ISZERO PUSH2 0x1F7F JUMPI PUSH1 0x0 DUP1 REVERT JUMPDEST PUSH2 0x1F88 DUP4 PUSH2 0x1C7A JUMP JUMPDEST SWAP2 POP PUSH1 0x20 DUP4 ADD CALLDATALOAD PUSH8 0xFFFFFFFFFFFFFFFF DUP2 GT ISZERO PUSH2 0x1FA4 JUMPI PUSH1 0x0 DUP1 REVERT JUMPDEST PUSH2 0x1FB0 DUP6 DUP3 DUP7 ADD PUSH2 0x1D1D JUMP JUMPDEST SWAP2 POP POP SWAP3 POP SWAP3 SWAP1 POP JUMP JUMPDEST PUSH1 0x0 DUP1 PUSH1 0x0 DUP1 PUSH1 0x0 DUP1 PUSH1 0xC0 DUP8 DUP10 SUB SLT ISZERO PUSH2 0x1FD3 JUMPI PUSH1 0x0 DUP1 REVERT JUMPDEST DUP7 CALLDATALOAD PUSH8 0xFFFFFFFFFFFFFFFF DUP1 DUP3 GT ISZERO PUSH2 0x1FEB JUMPI PUSH1 0x0 DUP1 REVERT JUMPDEST PUSH2 0x1FF7 DUP11 DUP4 DUP12 ADD PUSH2 0x1D1D JUMP JUMPDEST SWAP8 POP PUSH1 0x20 DUP10 ADD CALLDATALOAD SWAP2 POP DUP1 DUP3 GT ISZERO PUSH2 0x200D JUMPI PUSH1 0x0 DUP1 REVERT JUMPDEST PUSH2 0x2019 DUP11 DUP4 DUP12 ADD PUSH2 0x1D1D JUMP JUMPDEST SWAP7 POP PUSH1 0x40 DUP10 ADD CALLDATALOAD SWAP2 POP DUP1 DUP3 GT ISZERO PUSH2 0x202F JUMPI PUSH1 0x0 DUP1 REVERT JUMPDEST POP PUSH2 0x203C DUP10 DUP3 DUP11 ADD PUSH2 0x1D1D JUMP JUMPDEST SWAP5 POP POP PUSH2 0x204B PUSH1 0x60 DUP9 ADD PUSH2 0x1C7A JUMP JUMPDEST SWAP3 POP PUSH2 0x2059 PUSH1 0x80 DUP9 ADD PUSH2 0x1D3D JUMP JUMPDEST SWAP2 POP PUSH2 0x2067 PUSH1 0xA0 DUP9 ADD PUSH2 0x1C7A JUMP JUMPDEST SWAP1 POP SWAP3 SWAP6 POP SWAP3 SWAP6 POP SWAP3 SWAP6 JUMP JUMPDEST PUSH1 0x0 DUP1 PUSH1 0x40 DUP4 DUP6 SUB SLT ISZERO PUSH2 0x2086 JUMPI PUSH1 0x0 DUP1 REVERT JUMPDEST PUSH2 0x208F DUP4 PUSH2 0x1C7A JUMP JUMPDEST SWAP2 POP PUSH2 0x209D PUSH1 0x20 DUP5 ADD PUSH2 0x1C7A JUMP JUMPDEST SWAP1 POP SWAP3 POP SWAP3 SWAP1 POP JUMP JUMPDEST PUSH1 0x1 DUP2 DUP2 SHR SWAP1 DUP3 AND DUP1 PUSH2 0x20BA JUMPI PUSH1 0x7F DUP3 AND SWAP2 POP JUMPDEST PUSH1 0x20 DUP3 LT DUP2 SUB PUSH2 0x20DA JUMPI PUSH4 0x4E487B71 PUSH1 0xE0 SHL PUSH1 0x0 MSTORE PUSH1 0x22 PUSH1 0x4 MSTORE PUSH1 0x24 PUSH1 0x0 REVERT JUMPDEST POP SWAP2 SWAP1 POP JUMP JUMPDEST PUSH1 0x20 DUP1 DUP3 MSTORE DUP2 DUP2 ADD MSTORE PUSH32 0x4F776E61626C653A2063616C6C6572206973206E6F7420746865206F776E6572 PUSH1 0x40 DUP3 ADD MSTORE PUSH1 0x60 ADD SWAP1 JUMP JUMPDEST PUSH1 0x20 DUP1 DUP3 MSTORE PUSH1 0x21 SWAP1 DUP3 ADD MSTORE PUSH32 0x47616C6C6572793A20496E76616C696420526F79616C74792072656365697665 PUSH1 0x40 DUP3 ADD MSTORE PUSH1 0x39 PUSH1 0xF9 SHL PUSH1 0x60 DUP3 ADD MSTORE PUSH1 0x80 ADD SWAP1 JUMP JUMPDEST PUSH1 0x20 DUP1 DUP3 MSTORE PUSH1 0x31 SWAP1 DUP3 ADD MSTORE PUSH32 0x4552433732313A207472616E736665722063616C6C6572206973206E6F74206F PUSH1 0x40 DUP3 ADD MSTORE PUSH17 0x1DDB995C881B9BDC88185C1C1C9BDD9959 PUSH1 0x7A SHL PUSH1 0x60 DUP3 ADD MSTORE PUSH1 0x80 ADD SWAP1 JUMP JUMPDEST PUSH4 0x4E487B71 PUSH1 0xE0 SHL PUSH1 0x0 MSTORE PUSH1 0x11 PUSH1 0x4 MSTORE PUSH1 0x24 PUSH1 0x0 REVERT JUMPDEST PUSH1 0x0 DUP2 PUSH1 0x0 NOT DIV DUP4 GT DUP3 ISZERO ISZERO AND ISZERO PUSH2 0x21D7 JUMPI PUSH2 0x21D7 PUSH2 0x21A7 JUMP JUMPDEST POP MUL SWAP1 JUMP JUMPDEST PUSH4 0x4E487B71 PUSH1 0xE0 SHL PUSH1 0x0 MSTORE PUSH1 0x12 PUSH1 0x4 MSTORE PUSH1 0x24 PUSH1 0x0 REVERT JUMPDEST PUSH1 0x0 DUP3 PUSH2 0x2201 JUMPI PUSH2 0x2201 PUSH2 0x21DC JUMP JUMPDEST POP DIV SWAP1 JUMP JUMPDEST PUSH1 0x0 DUP3 DUP3 LT ISZERO PUSH2 0x2218 JUMPI PUSH2 0x2218 PUSH2 0x21A7 JUMP JUMPDEST POP SUB SWAP1 JUMP JUMPDEST PUSH1 0x0 DUP3 NOT DUP3 GT ISZERO PUSH2 0x2230 JUMPI PUSH2 0x2230 PUSH2 0x21A7 JUMP JUMPDEST POP ADD SWAP1 JUMP JUMPDEST PUSH1 0x20 DUP1 DUP3 MSTORE PUSH1 0x32 SWAP1 DUP3 ADD MSTORE PUSH32 0x4552433732313A207472616E7366657220746F206E6F6E204552433732315265 PUSH1 0x40 DUP3 ADD MSTORE PUSH18 0x31B2B4BB32B91034B6B83632B6B2B73A32B9 PUSH1 0x71 SHL PUSH1 0x60 DUP3 ADD MSTORE PUSH1 0x80 ADD SWAP1 JUMP JUMPDEST PUSH1 0x0 DUP4 MLOAD PUSH2 0x2299 DUP2 DUP5 PUSH1 0x20 DUP9 ADD PUSH2 0x1C0F JUMP JUMPDEST DUP4 MLOAD SWAP1 DUP4 ADD SWAP1 PUSH2 0x22AD DUP2 DUP4 PUSH1 0x20 DUP9 ADD PUSH2 0x1C0F JUMP JUMPDEST ADD SWAP5 SWAP4 POP POP POP POP JUMP JUMPDEST PUSH1 0x20 DUP1 DUP3 MSTORE PUSH1 0x2E SWAP1 DUP3 ADD MSTORE PUSH32 0x496E697469616C697A61626C653A20636F6E747261637420697320616C726561 PUSH1 0x40 DUP3 ADD MSTORE PUSH14 0x191E481A5B9A5D1A585B1A5E9959 PUSH1 0x92 SHL PUSH1 0x60 DUP3 ADD MSTORE PUSH1 0x80 ADD SWAP1 JUMP JUMPDEST PUSH1 0x20 DUP1 DUP3 MSTORE PUSH1 0x2B SWAP1 DUP3 ADD MSTORE PUSH32 0x496E697469616C697A61626C653A20636F6E7472616374206973206E6F742069 PUSH1 0x40 DUP3 ADD MSTORE PUSH11 0x6E697469616C697A696E67 PUSH1 0xA8 SHL PUSH1 0x60 DUP3 ADD MSTORE PUSH1 0x80 ADD SWAP1 JUMP JUMPDEST PUSH1 0x1 PUSH1 0x1 PUSH1 0xA0 SHL SUB DUP6 DUP2 AND DUP3 MSTORE DUP5 AND PUSH1 0x20 DUP3 ADD MSTORE PUSH1 0x40 DUP2 ADD DUP4 SWAP1 MSTORE PUSH1 0x80 PUSH1 0x60 DUP3 ADD DUP2 SWAP1 MSTORE PUSH1 0x0 SWAP1 PUSH2 0x2382 SWAP1 DUP4 ADD DUP5 PUSH2 0x1C3B JUMP JUMPDEST SWAP7 SWAP6 POP POP POP POP POP POP JUMP JUMPDEST PUSH1 0x0 PUSH1 0x20 DUP3 DUP5 SUB SLT ISZERO PUSH2 0x239E JUMPI PUSH1 0x0 DUP1 REVERT JUMPDEST DUP2 MLOAD PUSH2 0x1741 DUP2 PUSH2 0x1BDC JUMP JUMPDEST PUSH1 0x0 PUSH1 0x1 DUP3 ADD PUSH2 0x23BB JUMPI PUSH2 0x23BB PUSH2 0x21A7 JUMP JUMPDEST POP PUSH1 0x1 ADD SWAP1 JUMP JUMPDEST PUSH1 0x0 DUP3 PUSH2 0x23D1 JUMPI PUSH2 0x23D1 PUSH2 0x21DC JUMP JUMPDEST POP MOD SWAP1 JUMP JUMPDEST PUSH4 0x4E487B71 PUSH1 0xE0 SHL PUSH1 0x0 MSTORE PUSH1 0x32 PUSH1 0x4 MSTORE PUSH1 0x24 PUSH1 0x0 REVERT INVALID LOG2 PUSH5 0x6970667358 0x22 SLT KECCAK256 0x24 0xA5 0x4F MLOAD 0xB8 0xC0 GT SIGNEXTEND PUSH24 0x15DCF16CA14D5E327D00CE0EA42CB7E146D9E6C15EFDDC64 PUSH20 0x6F6C634300080D00330000000000000000000000 "
        },
        "methodIdentifiers": {
          "galleryCont()": "b5ea661e",
          "newGallery(string,string,string,uint96,address)": "adfef20b"
        }
      },
      "storageLayout": {
        "storage": [
          {
            "astId": 2522,
            "contract": "contracts/Factory.sol:Factory",
            "label": "galleryCont",
            "offset": 0,
            "slot": "0",
            "type": "t_contract(Gallery)2822"
          }
        ],
        "types": {
          "t_contract(Gallery)2822": {
            "encoding": "inplace",
            "label": "contract Gallery",
            "numberOfBytes": "20"
          }
        }
      }
    }
  }
}