{
  "contracts/comunityERC20/DonationGov.sol": {
    "TagGov": {
      "abi": [
        {
          "inputs": [],
          "stateMutability": "nonpayable",
          "type": "constructor"
        },
        {
          "anonymous": false,
          "inputs": [
            {
              "indexed": true,
              "internalType": "address",
              "name": "owner",
              "type": "address"
            },
            {
              "indexed": true,
              "internalType": "address",
              "name": "spender",
              "type": "address"
            },
            {
              "indexed": false,
              "internalType": "uint256",
              "name": "value",
              "type": "uint256"
            }
          ],
          "name": "Approval",
          "type": "event"
        },
        {
          "anonymous": false,
          "inputs": [
            {
              "indexed": true,
              "internalType": "address",
              "name": "delegator",
              "type": "address"
            },
            {
              "indexed": true,
              "internalType": "address",
              "name": "fromDelegate",
              "type": "address"
            },
            {
              "indexed": true,
              "internalType": "address",
              "name": "toDelegate",
              "type": "address"
            }
          ],
          "name": "DelegateChanged",
          "type": "event"
        },
        {
          "anonymous": false,
          "inputs": [
            {
              "indexed": true,
              "internalType": "address",
              "name": "delegate",
              "type": "address"
            },
            {
              "indexed": false,
              "internalType": "uint256",
              "name": "previousBalance",
              "type": "uint256"
            },
            {
              "indexed": false,
              "internalType": "uint256",
              "name": "newBalance",
              "type": "uint256"
            }
          ],
          "name": "DelegateVotesChanged",
          "type": "event"
        },
        {
          "anonymous": false,
          "inputs": [
            {
              "indexed": true,
              "internalType": "address",
              "name": "previousOwner",
              "type": "address"
            },
            {
              "indexed": true,
              "internalType": "address",
              "name": "newOwner",
              "type": "address"
            }
          ],
          "name": "OwnershipTransferred",
          "type": "event"
        },
        {
          "anonymous": false,
          "inputs": [
            {
              "indexed": false,
              "internalType": "uint256",
              "name": "id",
              "type": "uint256"
            }
          ],
          "name": "Snapshot",
          "type": "event"
        },
        {
          "anonymous": false,
          "inputs": [
            {
              "indexed": true,
              "internalType": "address",
              "name": "from",
              "type": "address"
            },
            {
              "indexed": true,
              "internalType": "address",
              "name": "to",
              "type": "address"
            },
            {
              "indexed": false,
              "internalType": "uint256",
              "name": "value",
              "type": "uint256"
            }
          ],
          "name": "Transfer",
          "type": "event"
        },
        {
          "inputs": [],
          "name": "DOMAIN_SEPARATOR",
          "outputs": [
            {
              "internalType": "bytes32",
              "name": "",
              "type": "bytes32"
            }
          ],
          "stateMutability": "view",
          "type": "function"
        },
        {
          "inputs": [
            {
              "internalType": "address",
              "name": "owner",
              "type": "address"
            },
            {
              "internalType": "address",
              "name": "spender",
              "type": "address"
            }
          ],
          "name": "allowance",
          "outputs": [
            {
              "internalType": "uint256",
              "name": "",
              "type": "uint256"
            }
          ],
          "stateMutability": "view",
          "type": "function"
        },
        {
          "inputs": [
            {
              "internalType": "address",
              "name": "spender",
              "type": "address"
            },
            {
              "internalType": "uint256",
              "name": "amount",
              "type": "uint256"
            }
          ],
          "name": "approve",
          "outputs": [
            {
              "internalType": "bool",
              "name": "",
              "type": "bool"
            }
          ],
          "stateMutability": "nonpayable",
          "type": "function"
        },
        {
          "inputs": [
            {
              "internalType": "address",
              "name": "account",
              "type": "address"
            }
          ],
          "name": "balanceOf",
          "outputs": [
            {
              "internalType": "uint256",
              "name": "",
              "type": "uint256"
            }
          ],
          "stateMutability": "view",
          "type": "function"
        },
        {
          "inputs": [
            {
              "internalType": "address",
              "name": "account",
              "type": "address"
            },
            {
              "internalType": "uint256",
              "name": "snapshotId",
              "type": "uint256"
            }
          ],
          "name": "balanceOfAt",
          "outputs": [
            {
              "internalType": "uint256",
              "name": "",
              "type": "uint256"
            }
          ],
          "stateMutability": "view",
          "type": "function"
        },
        {
          "inputs": [
            {
              "internalType": "uint256",
              "name": "amount",
              "type": "uint256"
            }
          ],
          "name": "burn",
          "outputs": [],
          "stateMutability": "nonpayable",
          "type": "function"
        },
        {
          "inputs": [
            {
              "internalType": "address",
              "name": "account",
              "type": "address"
            },
            {
              "internalType": "uint256",
              "name": "amount",
              "type": "uint256"
            }
          ],
          "name": "burnFrom",
          "outputs": [],
          "stateMutability": "nonpayable",
          "type": "function"
        },
        {
          "inputs": [
            {
              "internalType": "address",
              "name": "account",
              "type": "address"
            },
            {
              "internalType": "uint32",
              "name": "pos",
              "type": "uint32"
            }
          ],
          "name": "checkpoints",
          "outputs": [
            {
              "components": [
                {
                  "internalType": "uint32",
                  "name": "fromBlock",
                  "type": "uint32"
                },
                {
                  "internalType": "uint224",
                  "name": "votes",
                  "type": "uint224"
                }
              ],
              "internalType": "struct ERC20Votes.Checkpoint",
              "name": "",
              "type": "tuple"
            }
          ],
          "stateMutability": "view",
          "type": "function"
        },
        {
          "inputs": [],
          "name": "decimals",
          "outputs": [
            {
              "internalType": "uint8",
              "name": "",
              "type": "uint8"
            }
          ],
          "stateMutability": "view",
          "type": "function"
        },
        {
          "inputs": [
            {
              "internalType": "address",
              "name": "spender",
              "type": "address"
            },
            {
              "internalType": "uint256",
              "name": "subtractedValue",
              "type": "uint256"
            }
          ],
          "name": "decreaseAllowance",
          "outputs": [
            {
              "internalType": "bool",
              "name": "",
              "type": "bool"
            }
          ],
          "stateMutability": "nonpayable",
          "type": "function"
        },
        {
          "inputs": [
            {
              "internalType": "address",
              "name": "delegatee",
              "type": "address"
            }
          ],
          "name": "delegate",
          "outputs": [],
          "stateMutability": "nonpayable",
          "type": "function"
        },
        {
          "inputs": [
            {
              "internalType": "address",
              "name": "delegatee",
              "type": "address"
            },
            {
              "internalType": "uint256",
              "name": "nonce",
              "type": "uint256"
            },
            {
              "internalType": "uint256",
              "name": "expiry",
              "type": "uint256"
            },
            {
              "internalType": "uint8",
              "name": "v",
              "type": "uint8"
            },
            {
              "internalType": "bytes32",
              "name": "r",
              "type": "bytes32"
            },
            {
              "internalType": "bytes32",
              "name": "s",
              "type": "bytes32"
            }
          ],
          "name": "delegateBySig",
          "outputs": [],
          "stateMutability": "nonpayable",
          "type": "function"
        },
        {
          "inputs": [
            {
              "internalType": "address",
              "name": "account",
              "type": "address"
            }
          ],
          "name": "delegates",
          "outputs": [
            {
              "internalType": "address",
              "name": "",
              "type": "address"
            }
          ],
          "stateMutability": "view",
          "type": "function"
        },
        {
          "inputs": [
            {
              "internalType": "uint256",
              "name": "blockNumber",
              "type": "uint256"
            }
          ],
          "name": "getPastTotalSupply",
          "outputs": [
            {
              "internalType": "uint256",
              "name": "",
              "type": "uint256"
            }
          ],
          "stateMutability": "view",
          "type": "function"
        },
        {
          "inputs": [
            {
              "internalType": "address",
              "name": "account",
              "type": "address"
            },
            {
              "internalType": "uint256",
              "name": "blockNumber",
              "type": "uint256"
            }
          ],
          "name": "getPastVotes",
          "outputs": [
            {
              "internalType": "uint256",
              "name": "",
              "type": "uint256"
            }
          ],
          "stateMutability": "view",
          "type": "function"
        },
        {
          "inputs": [
            {
              "internalType": "address",
              "name": "account",
              "type": "address"
            }
          ],
          "name": "getVotes",
          "outputs": [
            {
              "internalType": "uint256",
              "name": "",
              "type": "uint256"
            }
          ],
          "stateMutability": "view",
          "type": "function"
        },
        {
          "inputs": [
            {
              "internalType": "address",
              "name": "spender",
              "type": "address"
            },
            {
              "internalType": "uint256",
              "name": "addedValue",
              "type": "uint256"
            }
          ],
          "name": "increaseAllowance",
          "outputs": [
            {
              "internalType": "bool",
              "name": "",
              "type": "bool"
            }
          ],
          "stateMutability": "nonpayable",
          "type": "function"
        },
        {
          "inputs": [
            {
              "internalType": "address",
              "name": "to",
              "type": "address"
            },
            {
              "internalType": "uint256",
              "name": "amount",
              "type": "uint256"
            }
          ],
          "name": "mint",
          "outputs": [],
          "stateMutability": "nonpayable",
          "type": "function"
        },
        {
          "inputs": [],
          "name": "name",
          "outputs": [
            {
              "internalType": "string",
              "name": "",
              "type": "string"
            }
          ],
          "stateMutability": "view",
          "type": "function"
        },
        {
          "inputs": [
            {
              "internalType": "address",
              "name": "owner",
              "type": "address"
            }
          ],
          "name": "nonces",
          "outputs": [
            {
              "internalType": "uint256",
              "name": "",
              "type": "uint256"
            }
          ],
          "stateMutability": "view",
          "type": "function"
        },
        {
          "inputs": [
            {
              "internalType": "address",
              "name": "account",
              "type": "address"
            }
          ],
          "name": "numCheckpoints",
          "outputs": [
            {
              "internalType": "uint32",
              "name": "",
              "type": "uint32"
            }
          ],
          "stateMutability": "view",
          "type": "function"
        },
        {
          "inputs": [],
          "name": "owner",
          "outputs": [
            {
              "internalType": "address",
              "name": "",
              "type": "address"
            }
          ],
          "stateMutability": "view",
          "type": "function"
        },
        {
          "inputs": [
            {
              "internalType": "address",
              "name": "owner",
              "type": "address"
            },
            {
              "internalType": "address",
              "name": "spender",
              "type": "address"
            },
            {
              "internalType": "uint256",
              "name": "value",
              "type": "uint256"
            },
            {
              "internalType": "uint256",
              "name": "deadline",
              "type": "uint256"
            },
            {
              "internalType": "uint8",
              "name": "v",
              "type": "uint8"
            },
            {
              "internalType": "bytes32",
              "name": "r",
              "type": "bytes32"
            },
            {
              "internalType": "bytes32",
              "name": "s",
              "type": "bytes32"
            }
          ],
          "name": "permit",
          "outputs": [],
          "stateMutability": "nonpayable",
          "type": "function"
        },
        {
          "inputs": [],
          "name": "renounceOwnership",
          "outputs": [],
          "stateMutability": "nonpayable",
          "type": "function"
        },
        {
          "inputs": [],
          "name": "snapshot",
          "outputs": [],
          "stateMutability": "nonpayable",
          "type": "function"
        },
        {
          "inputs": [],
          "name": "symbol",
          "outputs": [
            {
              "internalType": "string",
              "name": "",
              "type": "string"
            }
          ],
          "stateMutability": "view",
          "type": "function"
        },
        {
          "inputs": [],
          "name": "totalSupply",
          "outputs": [
            {
              "internalType": "uint256",
              "name": "",
              "type": "uint256"
            }
          ],
          "stateMutability": "view",
          "type": "function"
        },
        {
          "inputs": [
            {
              "internalType": "uint256",
              "name": "snapshotId",
              "type": "uint256"
            }
          ],
          "name": "totalSupplyAt",
          "outputs": [
            {
              "internalType": "uint256",
              "name": "",
              "type": "uint256"
            }
          ],
          "stateMutability": "view",
          "type": "function"
        },
        {
          "inputs": [
            {
              "internalType": "address",
              "name": "to",
              "type": "address"
            },
            {
              "internalType": "uint256",
              "name": "amount",
              "type": "uint256"
            }
          ],
          "name": "transfer",
          "outputs": [
            {
              "internalType": "bool",
              "name": "",
              "type": "bool"
            }
          ],
          "stateMutability": "nonpayable",
          "type": "function"
        },
        {
          "inputs": [
            {
              "internalType": "address",
              "name": "from",
              "type": "address"
            },
            {
              "internalType": "address",
              "name": "to",
              "type": "address"
            },
            {
              "internalType": "uint256",
              "name": "amount",
              "type": "uint256"
            }
          ],
          "name": "transferFrom",
          "outputs": [
            {
              "internalType": "bool",
              "name": "",
              "type": "bool"
            }
          ],
          "stateMutability": "nonpayable",
          "type": "function"
        },
        {
          "inputs": [
            {
              "internalType": "address",
              "name": "newOwner",
              "type": "address"
            }
          ],
          "name": "transferOwnership",
          "outputs": [],
          "stateMutability": "nonpayable",
          "type": "function"
        }
      ],
      "evm": {
        "bytecode": {
          "linkReferences": {},
          "object": "6101608060405234620004895762000017816200048e565b60068152602090818101652a30b3a3b7bb60d11b91828252604051926200003e846200048e565b60068452848401526040519062000055826200048e565b6002825261444760f01b858301526040519262000072846200048e565b6001808552603160f81b87860190815286516001600160401b0397919392919088811162000383576003908154928484811c941680156200047e575b8c851014620004685781908c601f958681116200040f575b50508c908d868411600114620003a5575060009262000399575b505060001982841b1c191690841b1781555b865191898311620003835760049788548581811c9116801562000378575b8d821014620003635780838e921162000316575b50508b918411600114620002a7579383949184926000956200029b575b50501b92600019911b1c19161784555b60098054336001600160a01b0319821681179092556040519491906001600160a01b03167f8be0079c531659141344cd1fd0a4f28419497f9722a3daafe3b4186f6b6457e0600087a351902093519020918360e052610100958387524660a0528201927f8b73c3c69bb8fe3d512ecc4cf759cc79239f7b179b0ffacaa9a75d522b39400f94858552604084015260608301524660808301523060a083015260a0825260c082019482861090861117620002865750836040525190206080523060c052610120908152610140907f6e71edae12b1b97f4d1f60370fef10105fa2faae0126114a169c64845d6126c982526129179384620004ab853960805184612405015260a051846124d1015260c051846123cf015260e051846124540152518361247a01525182612431015251816103920152f35b604190634e487b7160e01b6000525260246000fd5b01519350388062000141565b908b929184601f1981168b60005285600020956000905b89838310620002fb5750505010620002e0575b50505050811b01845562000151565b01519060f884600019921b161c1916905538808080620002d1565b858701518955909701969485019488935090810190620002be565b8a60005283826000209181880160051c830193881062000359575b0160051c019086905b8281106200034c57508d915062000124565b600081550186906200033a565b9250819262000331565b60228a634e487b7160e01b6000525260246000fd5b90607f169062000110565b634e487b7160e01b600052604160045260246000fd5b015190503880620000e0565b9190879450601f1984168660005283600020936000905b828210620003f55750508411620003dc575b505050811b018155620000f2565b015160001983861b60f8161c19169055388080620003ce565b8484015186558a97909501949384019390810190620003bc565b909192508460005285826000209181860160051c83019386106200045e575b918891869594930160051c01915b8281106200044e57508e9150620000c6565b600081558594508891016200043c565b925081926200042e565b634e487b7160e01b600052602260045260246000fd5b93607f1693620000ae565b600080fd5b604081019081106001600160401b03821117620003835760405256fe6080604081815260048036101561001557600080fd5b600092833560e01c90816306fdde03146113a457508063095ea7b31461137a57806318160ddd1461135d57806323b872dd14611320578063313ce567146113045780633644e515146112e757806339509351146112975780633a46b1a81461119e57806340c10f1914610eb957806342966c6814610d795780634ee2cd7e14610d24578063587cde1e14610ce95780635c19a95c14610cc55780636fcfff4514610c7d57806370a0823114610c50578063715018a614610bee57806379cc679014610a8d5780637ecebe0014610a555780638da5cb5b14610a2c5780638e539e8c1461095657806395d89b41146108525780639711715a146107f5578063981b24d0146107b85780639ab24eb014610730578063a457c2d71461068c578063a9059cbb1461065b578063c3cda520146104d5578063d505accf14610327578063dd62ed3e146102de578063f1127ed8146102425763f2fde38b1461017857600080fd5b3461023e57602036600319011261023e576101916114ed565b6009546001600160a01b0380821694926101ac33871461151e565b169283156101ec57506001600160a01b031916821760095551917f8be0079c531659141344cd1fd0a4f28419497f9722a3daafe3b4186f6b6457e08484a3f35b608490602084519162461bcd60e51b8352820152602660248201527f4f776e61626c653a206e6577206f776e657220697320746865207a65726f206160448201526564647265737360d01b6064820152fd5b8280fd5b8284346102db57816003193601126102db5761025c6114ed565b63ffffffff916024359183831683036102d75781859161029f94936020845161028481611569565b82815201526001600160a01b03168152600c602052206119cc565b509060208351926102af84611569565b54918216808452602092831c919093019081528351928352516001600160e01b031690820152f35b5080fd5b80fd5b5050346102d757806003193601126102d757806020926102fc6114ed565b610304611508565b6001600160a01b0391821683526001865283832091168252845220549051908152f35b509190346102d75760e03660031901126102d7576103436114ed565b9261034c611508565b6044359160843560643560ff821682036104d15780421161048e576001600160a01b0388166000908152600a6020526040902080546001810190915591865160208101917f0000000000000000000000000000000000000000000000000000000000000000835260018060a01b0393848c1695868b850152858916606085015289608085015260a084015260c083015260c0825260e0820182811067ffffffffffffffff82111761047b5791610423939161041b938b5261041660c4359360a435935190206124f7565b612317565b9190916121a5565b16036104385750610435929394611777565b51f35b606490602085519162461bcd60e51b8352820152601e60248201527f45524332305065726d69743a20696e76616c6964207369676e617475726500006044820152fd5b634e487b7160e01b8b526041875260248bfd5b855162461bcd60e51b8152602081850152601d60248201527f45524332305065726d69743a206578706972656420646561646c696e650000006044820152606490fd5b8680fd5b503461023e5760c036600319011261023e576104ef6114ed565b9060243560443560643560ff811681036104d1578142116106185785519060208201927fe48329057bfd03d55e49b547132e39cffd9c1820ad7b9d4c5307691425d15adf845260018060a01b0387168884015284606084015260808301526080825260a0820182811067ffffffffffffffff82111761060557916105919594939161058993895261041660a43593608435935190206124f7565b9390936121a5565b6001600160a01b0383166000908152600a60205260409020805460018101909155036105c257509061043591611b36565b606490602085519162461bcd60e51b8352820152601960248201527f4552433230566f7465733a20696e76616c6964206e6f6e6365000000000000006044820152fd5b634e487b7160e01b895260418652602489fd5b855162461bcd60e51b8152602081860152601d60248201527f4552433230566f7465733a207369676e617475726520657870697265640000006044820152606490fd5b5050346102d757806003193601126102d75760209061068561067b6114ed565b60243590336115df565b5160018152f35b5082346102db57826003193601126102db576106a66114ed565b918360243592338152600160205281812060018060a01b03861682526020522054908282106106df576020856106858585038733611777565b608490602086519162461bcd60e51b8352820152602560248201527f45524332303a2064656372656173656420616c6c6f77616e63652062656c6f77604482015264207a65726f60d81b6064820152fd5b5091346102db5760203660031901126102db576001600160a01b036107536114ed565b168152600c602052818120548061077b575060209250905b516001600160e01b039091168152f35b82822091600182106107a55750602093509061079b9160001901906119cc565b5054821c9061076b565b634e487b7160e01b815260118552602490fd5b503461023e57602036600319011261023e57916107d7602093356119e4565b9150156107e657905b51908152f35b506107ef6126b4565b906107e0565b5050346102d757816003193601126102d75761081c60018060a01b0360095416331461151e565b7f8030e83b04d87bef53480e26263266d6ca66863aa8506aca6f2559d18aa1cb676020600160085401806008558351908152a151f35b509190346102d757816003193601126102d757805191809380549160019083821c9282851694851561094c575b60209586861081146109395785895290811561091557506001146108bd575b6108b987876108af828c038361159b565b5191829182611496565b0390f35b81529295507f8a35acfbc15ff81a39ae7d344fd709f28e8600b4aa8c65c6b64bfe7fe36bd19b5b82841061090257505050826108b9946108af9282010194388061089e565b80548685018801529286019281016108e4565b60ff19168887015250505050151560051b83010192506108af826108b9388061089e565b634e487b7160e01b845260228352602484fd5b93607f169361087f565b5091346102db5760203660031901126102db57823592610977438510611aea565b600d549382905b8582106109ce575050836109a257506020925090516001600160e01b039091168152f35b600184106109bb57505061079b60209260001901611911565b634e487b7160e01b825260119052602490fd5b90946001906109e3818818831c8289166115bd565b918363ffffffff6109f385611911565b5054161115610a06575050945b9061097e565b909650906001198111610a195701610a00565b634e487b7160e01b855260118452602485fd5b5050346102d757816003193601126102d75760095490516001600160a01b039091168152602090f35b5050346102d75760203660031901126102d75760209181906001600160a01b03610a7d6114ed565b168152600a845220549051908152f35b503461023e578160031936011261023e57610aa66114ed565b9060243591610ab6833383611879565b6001600160a01b0391818316918215610ba157610ad29061273d565b610ada61278c565b818652856020528486205490848210610b5357509280928282610b4e96610b49958a52896020520387892055610b1283600254611adf565b60025587816000805160206128a283398151915260208a51878152a38752600b602052858720548780528688205482169116611bb3565b611f1e565b505051f35b608490602087519162461bcd60e51b8352820152602260248201527f45524332303a206275726e20616d6f756e7420657863656564732062616c616e604482015261636560f01b6064820152fd5b855162461bcd60e51b8152602081840152602160248201527f45524332303a206275726e2066726f6d20746865207a65726f206164647265736044820152607360f81b6064820152608490fd5b5050346102d757816003193601126102d7576009546001600160a01b038116918391610c1b33851461151e565b6001600160a01b03191660095551917f8be0079c531659141344cd1fd0a4f28419497f9722a3daafe3b4186f6b6457e08284a3f35b5050346102d75760203660031901126102d757602090610c76610c716114ed565b61260d565b9051908152f35b5050346102d75760203660031901126102d75760209163ffffffff90610cbd9083906001600160a01b03610caf6114ed565b168152600c865220546125a8565b915191168152f35b5050346102d75760203660031901126102d757610435610ce36114ed565b33611b36565b5050346102d75760203660031901126102d7576020916001600160a01b0390829082610d136114ed565b168152600b85522054169051908152f35b5050346102d757806003193601126102d757602091610d416114ed565b6001600160a01b038116825260058452828220610d6090602435611aa8565b925015610d6f57509051908152f35b6107ef915061260d565b503461023e57602080600319360112610eb5578135913315610e6a57610d9e3361273d565b610da661278c565b3385528482528385205490838210610e1c57508291610b4e93600b923388528783520385872055610dd983600254611adf565b6002558585518481526000805160206128a2833981519152833392a3338652528284205484805283852054610b499183916001600160a01b039081169116611bb3565b845162461bcd60e51b8152908101839052602260248201527f45524332303a206275726e20616d6f756e7420657863656564732062616c616e604482015261636560f01b6064820152608490fd5b60849184519162461bcd60e51b8352820152602160248201527f45524332303a206275726e2066726f6d20746865207a65726f206164647265736044820152607360f81b6064820152fd5b8380fd5b503461023e578160031936011261023e57610ed26114ed565b6024803560018060a01b0392610eed8460095416331461151e565b83811690811561115c57610f6891610f05849261273d565b610f0d61278c565b610f19826002546115bd565b600255808952602095898752888a20610f338482546115bd565b9055818a6000805160206128a2833981519152898c51878152a3898052600b875280898b205416918a52888a20541690611bb3565b6001600160e01b0380610f796126b4565b1161110257600d549384159283156110cd57610f9890838a5b166115bd565b921580611096575b15610ff5575050610fb09061253f565b9260018310610fe457505090610fcc6104359260001901611911565b509063ffffffff82549181199060201b169116179055565b634e487b7160e01b86526011905284fd5b61100f6110099897969593929498436125a8565b9261253f565b928487519261101d84611569565b63ffffffff8095168452830194168452600160401b811015611084578060016110499201600d55611911565b959095611073575051915163ffffffff9190921616911660201b63ffffffff191617905590915051f35b634e487b7160e01b88528790528787fd5b634e487b7160e01b8852604186528888fd5b50600185106110bb5763ffffffff6110b16000198701611911565b5054164314610fa0565b634e487b7160e01b8852601186528388fd5b600186106110f057610f9890836110e76000198901611911565b5054841c610f92565b634e487b7160e01b8952601187528489fd5b5050603091608494519362461bcd60e51b85528401528201527f4552433230566f7465733a20746f74616c20737570706c79207269736b73206f60448201526f766572666c6f77696e6720766f74657360801b6064820152fd5b865162461bcd60e51b8152602081880152601f818601527f45524332303a206d696e7420746f20746865207a65726f2061646472657373006044820152606490fd5b5091346102db57816003193601126102db576111b86114ed565b60248035916111c8438410611aea565b6001600160a01b03168352600c60205283832080549095909284905b8482106112395750508261120a575050506020925090516001600160e01b039091168152f35b600183949293106112295750505060209261079b9160001901906119cc565b634e487b7160e01b825260119052fd5b909360019061124e818718831c8288166115bd565b918363ffffffff61125f858d6119cc565b5054161115611272575050935b906111e4565b909550906001198111611285570161126c565b634e487b7160e01b8752601184528487fd5b5050346102d757806003193601126102d7576106856020926112e06112ba6114ed565b338352600186528483206001600160a01b038216845286529184902054602435906115bd565b9033611777565b5050346102d757816003193601126102d757602090610c766123cc565b5050346102d757816003193601126102d7576020905160128152f35b5050346102d75760603660031901126102d7576020906106856113416114ed565b611349611508565b60443591611358833383611879565b6115df565b5050346102d757816003193601126102d757602090610c766126b4565b5050346102d757806003193601126102d75760209061068561139a6114ed565b6024359033611777565b9291905034610eb55783600319360112610eb557600354600181811c918690828116801561148c575b6020958686108214611479575084885290811561145757506001146113fe575b6108b986866108af828b038361159b565b929550600383527fc2575a0e9e593c00f959f8c92f12db2869c3395a3b0502d05e2516446f71f85b5b82841061144457505050826108b9946108af9282010194386113ed565b8054868501880152928601928101611427565b60ff191687860152505050151560051b83010192506108af826108b9386113ed565b634e487b7160e01b845260229052602483fd5b93607f16936113cd565b919091602080825283519081818401526000945b8286106114d75750508060409394116114ca575b601f01601f1916010190565b60008382840101526114be565b85810182015184870160400152948101946114aa565b600435906001600160a01b038216820361150357565b600080fd5b602435906001600160a01b038216820361150357565b1561152557565b606460405162461bcd60e51b815260206004820152602060248201527f4f776e61626c653a2063616c6c6572206973206e6f7420746865206f776e65726044820152fd5b6040810190811067ffffffffffffffff82111761158557604052565b634e487b7160e01b600052604160045260246000fd5b90601f8019910116810190811067ffffffffffffffff82111761158557604052565b811981116115c9570190565b634e487b7160e01b600052601160045260246000fd5b6001600160a01b03808216949392918515611724578183169283156116d35761160a61160f9261273d565b61273d565b6000858152806020526040908181205496858810611680578561167e979882845283602052038383205584825282822061164a8782546115bd565b905584816000805160206128a2833981519152602086518a8152a38152600b60205282828220541693815220541690611bb3565b565b825162461bcd60e51b815260206004820152602660248201527f45524332303a207472616e7366657220616d6f756e7420657863656564732062604482015265616c616e636560d01b6064820152608490fd5b60405162461bcd60e51b815260206004820152602360248201527f45524332303a207472616e7366657220746f20746865207a65726f206164647260448201526265737360e81b6064820152608490fd5b60405162461bcd60e51b815260206004820152602560248201527f45524332303a207472616e736665722066726f6d20746865207a65726f206164604482015264647265737360d81b6064820152608490fd5b6001600160a01b0390811691821561182857169182156117d85760207f8c5be1e5ebec7d5bd14f71427d1e84f3dd0314c0f7b2291e5b200ac8c7c3b925918360005260018252604060002085600052825280604060002055604051908152a3565b60405162461bcd60e51b815260206004820152602260248201527f45524332303a20617070726f766520746f20746865207a65726f206164647265604482015261737360f01b6064820152608490fd5b60405162461bcd60e51b8152602060048201526024808201527f45524332303a20617070726f76652066726f6d20746865207a65726f206164646044820152637265737360e01b6064820152608490fd5b9060018060a01b03808316600052600160205260406000209082166000526020526040600020549260001984036118b1575b50505050565b8084106118cc576118c3930391611777565b388080806118ab565b60405162461bcd60e51b815260206004820152601d60248201527f45524332303a20696e73756666696369656e7420616c6c6f77616e63650000006044820152606490fd5b600d5481101561194857600d6000527fd7b6990105719101dabeb77144f2a3385c8033acd3af97e9423a695e81ad1eb50190600090565b634e487b7160e01b600052603260045260246000fd5b6007548110156119485760076000527fa66cc928b5edb82af9bd49922954155ab7b0942694bea4ce44661d9a8736c6880190600090565b6006548110156119485760066000527ff652222313e28459528d920b65115c16c04f3efc82aaedc97be59f3f377c0d3f0190600090565b80548210156119485760005260206000200190600090565b8015611a6a576008548111611a25576119fc9061204a565b6006548103611a0e5750600090600090565b611a179061195e565b90549060031b1c9060019190565b60405162461bcd60e51b815260206004820152601d60248201527f4552433230536e617073686f743a206e6f6e6578697374656e742069640000006044820152606490fd5b60405162461bcd60e51b815260206004820152601660248201527504552433230536e617073686f743a20696420697320360541b6044820152606490fd5b8015611a6a576008548111611a2557611ac190826120f6565b81548103611ad3575050600090600090565b6001611a1792016119cc565b8181106115c9570390565b15611af157565b60405162461bcd60e51b815260206004820152601f60248201527f4552433230566f7465733a20626c6f636b206e6f7420796574206d696e6564006044820152606490fd5b61167e91611b6160018060a01b038084169384600052600b602052816040600020541692839161260d565b9480600052600b602052604060002092851692836bffffffffffffffffffffffff60a01b8254161790557f3134e8a2e6d97e929a7e54011ea5485d7d196dd5f0ba4d4ef95803e8e3fc257f6000604051a45b6001600160a01b039182169291168083141580611f15575b611bd457505050565b80611da2575b5081611be4575050565b6000828152600c60205260408120805480159291908315611d6e57825b6001600160e01b0390811695611c1790876115bd565b941580611d34575b15611c7f5750611c2e8461253f565b9260018210611c6b57506000805160206128c28339815191529492610fcc60409593611c5e9360001901906119cc565b82519182526020820152a2565b634e487b7160e01b81526011600452602490fd5b91611c89436125a8565b90611c938661253f565b9260405191611ca183611569565b63ffffffff8094168352856020840195168552600160401b821015611d205790611cd0916001820181556119cc565b959095611d0c575051915163ffffffff9190921616911660201b63ffffffff19161790556000805160206128c283398151915291604091611c5e565b634e487b7160e01b81526004819052602490fd5b634e487b7160e01b87526041600452602487fd5b5060018210611d5a5763ffffffff611d506000198401856119cc565b5054164314611c1f565b634e487b7160e01b84526011600452602484fd5b60018110611d8e57611d846000198201836119cc565b505460201c611c01565b634e487b7160e01b83526011600452602483fd5b6000818152600c602052604081208054918215918215611ee05781935b6001600160e01b0394851694611dd58887611adf565b941580611eba575b15611e2d5750611dec8461253f565b9260018210611c6b57506000805160206128c28339815191529492610fcc60409593611e1c9360001901906119cc565b82519182526020820152a238611bda565b91611e37436125a8565b90611e418661253f565b9260405191611e4f83611569565b63ffffffff8094168352856020840195168552600160401b821015611d205790611e7e916001820181556119cc565b959095611d0c575051915163ffffffff9190921616911660201b63ffffffff19161790556000805160206128c283398151915291604091611e1c565b5060018210611d5a5763ffffffff611ed66000198401856119cc565b5054164314611ddd565b60018410611f0157611ef66000198501826119cc565b505460201c93611dbf565b634e487b7160e01b82526011600452602482fd5b50811515611bcb565b600d5490918115916000831561202a575060005b6001600160e01b0390811694611f489086611adf565b931580612005575b15611f775750611f5f8361253f565b600182106115c957610fcc61167e9260001901611911565b611f80436125a8565b90611f8a8561253f565b60405193611f9785611569565b63ffffffff8094168552826020860192168252600160401b81101561158557806001611fc69201600d55611911565b939093611fef579351905163ffffffff9190941616921660201b63ffffffff1916919091179055565b634e487b7160e01b600052600060045260246000fd5b50600182106115c95763ffffffff6120206000198401611911565b5054164314611f50565b60018210611c6b57506120406000198201611911565b505460201c611f32565b6006549081156120ef576000915b8083106120a757508115159081612082575b501561207f57600181106115c9576000190190565b90565b9050600182106115c9576120996000198301611995565b90549060031b1c143861206a565b6001906120ba818518831c8286166115bd565b91836120c584611995565b90549060031b1c116000146120db575050612058565b9093509060011981116115c9570191612058565b5050600090565b805491821561219d576000925b8084106121545750821515918261212b575b50501561207f57600181106115c9576000190190565b909150600183106115c957612145906000198401906119cc565b90549060031b1c143880612115565b600190612167818618831c8287166115bd565b918361217384876119cc565b90549060031b1c11600014612189575050612103565b9094509060011981116115c9570192612103565b505050600090565b600581101561230157806121b65750565b600181036122035760405162461bcd60e51b815260206004820152601860248201527f45434453413a20696e76616c6964207369676e617475726500000000000000006044820152606490fd5b600281036122505760405162461bcd60e51b815260206004820152601f60248201527f45434453413a20696e76616c6964207369676e6174757265206c656e677468006044820152606490fd5b600381036122a85760405162461bcd60e51b815260206004820152602260248201527f45434453413a20696e76616c6964207369676e6174757265202773272076616c604482015261756560f01b6064820152608490fd5b6004146122b157565b60405162461bcd60e51b815260206004820152602260248201527f45434453413a20696e76616c6964207369676e6174757265202776272076616c604482015261756560f01b6064820152608490fd5b634e487b7160e01b600052602160045260246000fd5b9291907f7fffffffffffffffffffffffffffffff5d576e7357a4501ddfe92f46681b20a083116123c05760ff16601b811415806123b5575b6123a9579160809493916020936040519384528484015260408301526060820152600093849182805260015afa1561239c5781516001600160a01b03811615612396579190565b50600190565b50604051903d90823e3d90fd5b50505050600090600490565b50601c81141561234f565b50505050600090600390565b307f00000000000000000000000000000000000000000000000000000000000000006001600160a01b031614806124ce575b15612427577f000000000000000000000000000000000000000000000000000000000000000090565b60405160208101907f000000000000000000000000000000000000000000000000000000000000000082527f000000000000000000000000000000000000000000000000000000000000000060408201527f000000000000000000000000000000000000000000000000000000000000000060608201524660808201523060a082015260a0815260c0810181811067ffffffffffffffff8211176115855760405251902090565b507f000000000000000000000000000000000000000000000000000000000000000046146123fe565b6124ff6123cc565b9060405190602082019261190160f01b845260228301526042820152604281526080810181811067ffffffffffffffff8211176115855760405251902090565b6001600160e01b0390818111612553571690565b60405162461bcd60e51b815260206004820152602760248201527f53616665436173743a2076616c756520646f65736e27742066697420696e20326044820152663234206269747360c81b6064820152608490fd5b63ffffffff908181116125b9571690565b60405162461bcd60e51b815260206004820152602660248201527f53616665436173743a2076616c756520646f65736e27742066697420696e203360448201526532206269747360d01b6064820152608490fd5b60018060a01b031690600091808352826020526040832054604051916326b71a2960e11b83526004830152602082602481739f5c41da4dbdd0c59f663053ac79364d02a5381d5afa9182156126a957849261266f575b5061207f9293506115bd565b9091506020813d82116126a1575b8161268a6020938361159b565b81010312610eb55761207f92935051908392612663565b3d915061267d565b6040513d86823e3d90fd5b6002546040516336ceb48b60e21b81529190602083600481739f5c41da4dbdd0c59f663053ac79364d02a5381d5afa928315612731576000936126fe575b509161207f91926115bd565b6020813d8211612729575b816127166020938361159b565b81010312610eb55751925061207f6126f2565b3d9150612709565b6040513d6000823e3d90fd5b6001600160a01b03811660009081526005602052604090209061275f9061260d565b6008548061276c8461287c565b1061277657505050565b8261278660019261167e95612818565b01612818565b6127946126b4565b60085490816127a161284f565b106127aa575050565b600654600160401b9081811015611585578060016127cb9201600655611995565b9381549460031b946000199586811b9283911b169119161790556007549081101561158557806001612800920160075561195e565b909283549160031b90811b9283911b16911916179055565b8054600160401b81101561158557612835916001820181556119cc565b819291549060031b600019811b9283911b16911916179055565b6006548061285d5750600090565b600181106115c9576128729060001901611995565b90549060031b1c90565b8054908161288b575050600090565b600182106115c9576128729160001901906119cc56feddf252ad1be2c89b69c2b068fc378daa952ba7f163c4a11628f55a4df523b3efdec2bacdd2f05b59de34da9b523dff8be42e5e38e818c82fdb0bae774387a724a26469706673582212206722bf098c84825ac37a5540c3daf3e1ee86adb29183f49d583321437bd1d92264736f6c634300080f0033",
          "opcodes": "PUSH2 0x160 DUP1 PUSH1 0x40 MSTORE CALLVALUE PUSH3 0x489 JUMPI PUSH3 0x17 DUP2 PUSH3 0x48E JUMP JUMPDEST PUSH1 0x6 DUP2 MSTORE PUSH1 0x20 SWAP1 DUP2 DUP2 ADD PUSH6 0x2A30B3A3B7BB PUSH1 0xD1 SHL SWAP2 DUP3 DUP3 MSTORE PUSH1 0x40 MLOAD SWAP3 PUSH3 0x3E DUP5 PUSH3 0x48E JUMP JUMPDEST PUSH1 0x6 DUP5 MSTORE DUP5 DUP5 ADD MSTORE PUSH1 0x40 MLOAD SWAP1 PUSH3 0x55 DUP3 PUSH3 0x48E JUMP JUMPDEST PUSH1 0x2 DUP3 MSTORE PUSH2 0x4447 PUSH1 0xF0 SHL DUP6 DUP4 ADD MSTORE PUSH1 0x40 MLOAD SWAP3 PUSH3 0x72 DUP5 PUSH3 0x48E JUMP JUMPDEST PUSH1 0x1 DUP1 DUP6 MSTORE PUSH1 0x31 PUSH1 0xF8 SHL DUP8 DUP7 ADD SWAP1 DUP2 MSTORE DUP7 MLOAD PUSH1 0x1 PUSH1 0x1 PUSH1 0x40 SHL SUB SWAP8 SWAP2 SWAP4 SWAP3 SWAP2 SWAP1 DUP9 DUP2 GT PUSH3 0x383 JUMPI PUSH1 0x3 SWAP1 DUP2 SLOAD SWAP3 DUP5 DUP5 DUP2 SHR SWAP5 AND DUP1 ISZERO PUSH3 0x47E JUMPI JUMPDEST DUP13 DUP6 LT EQ PUSH3 0x468 JUMPI DUP2 SWAP1 DUP13 PUSH1 0x1F SWAP6 DUP7 DUP2 GT PUSH3 0x40F JUMPI JUMPDEST POP POP DUP13 SWAP1 DUP14 DUP7 DUP5 GT PUSH1 0x1 EQ PUSH3 0x3A5 JUMPI POP PUSH1 0x0 SWAP3 PUSH3 0x399 JUMPI JUMPDEST POP POP PUSH1 0x0 NOT DUP3 DUP5 SHL SHR NOT AND SWAP1 DUP5 SHL OR DUP2 SSTORE JUMPDEST DUP7 MLOAD SWAP2 DUP10 DUP4 GT PUSH3 0x383 JUMPI PUSH1 0x4 SWAP8 DUP9 SLOAD DUP6 DUP2 DUP2 SHR SWAP2 AND DUP1 ISZERO PUSH3 0x378 JUMPI JUMPDEST DUP14 DUP3 LT EQ PUSH3 0x363 JUMPI DUP1 DUP4 DUP15 SWAP3 GT PUSH3 0x316 JUMPI JUMPDEST POP POP DUP12 SWAP2 DUP5 GT PUSH1 0x1 EQ PUSH3 0x2A7 JUMPI SWAP4 DUP4 SWAP5 SWAP2 DUP5 SWAP3 PUSH1 0x0 SWAP6 PUSH3 0x29B JUMPI JUMPDEST POP POP SHL SWAP3 PUSH1 0x0 NOT SWAP2 SHL SHR NOT AND OR DUP5 SSTORE JUMPDEST PUSH1 0x9 DUP1 SLOAD CALLER PUSH1 0x1 PUSH1 0x1 PUSH1 0xA0 SHL SUB NOT DUP3 AND DUP2 OR SWAP1 SWAP3 SSTORE PUSH1 0x40 MLOAD SWAP5 SWAP2 SWAP1 PUSH1 0x1 PUSH1 0x1 PUSH1 0xA0 SHL SUB AND PUSH32 0x8BE0079C531659141344CD1FD0A4F28419497F9722A3DAAFE3B4186F6B6457E0 PUSH1 0x0 DUP8 LOG3 MLOAD SWAP1 KECCAK256 SWAP4 MLOAD SWAP1 KECCAK256 SWAP2 DUP4 PUSH1 0xE0 MSTORE PUSH2 0x100 SWAP6 DUP4 DUP8 MSTORE CHAINID PUSH1 0xA0 MSTORE DUP3 ADD SWAP3 PUSH32 0x8B73C3C69BB8FE3D512ECC4CF759CC79239F7B179B0FFACAA9A75D522B39400F SWAP5 DUP6 DUP6 MSTORE PUSH1 0x40 DUP5 ADD MSTORE PUSH1 0x60 DUP4 ADD MSTORE CHAINID PUSH1 0x80 DUP4 ADD MSTORE ADDRESS PUSH1 0xA0 DUP4 ADD MSTORE PUSH1 0xA0 DUP3 MSTORE PUSH1 0xC0 DUP3 ADD SWAP5 DUP3 DUP7 LT SWAP1 DUP7 GT OR PUSH3 0x286 JUMPI POP DUP4 PUSH1 0x40 MSTORE MLOAD SWAP1 KECCAK256 PUSH1 0x80 MSTORE ADDRESS PUSH1 0xC0 MSTORE PUSH2 0x120 SWAP1 DUP2 MSTORE PUSH2 0x140 SWAP1 PUSH32 0x6E71EDAE12B1B97F4D1F60370FEF10105FA2FAAE0126114A169C64845D6126C9 DUP3 MSTORE PUSH2 0x2917 SWAP4 DUP5 PUSH3 0x4AB DUP6 CODECOPY PUSH1 0x80 MLOAD DUP5 PUSH2 0x2405 ADD MSTORE PUSH1 0xA0 MLOAD DUP5 PUSH2 0x24D1 ADD MSTORE PUSH1 0xC0 MLOAD DUP5 PUSH2 0x23CF ADD MSTORE PUSH1 0xE0 MLOAD DUP5 PUSH2 0x2454 ADD MSTORE MLOAD DUP4 PUSH2 0x247A ADD MSTORE MLOAD DUP3 PUSH2 0x2431 ADD MSTORE MLOAD DUP2 PUSH2 0x392 ADD MSTORE RETURN JUMPDEST PUSH1 0x41 SWAP1 PUSH4 0x4E487B71 PUSH1 0xE0 SHL PUSH1 0x0 MSTORE MSTORE PUSH1 0x24 PUSH1 0x0 REVERT JUMPDEST ADD MLOAD SWAP4 POP CODESIZE DUP1 PUSH3 0x141 JUMP JUMPDEST SWAP1 DUP12 SWAP3 SWAP2 DUP5 PUSH1 0x1F NOT DUP2 AND DUP12 PUSH1 0x0 MSTORE DUP6 PUSH1 0x0 KECCAK256 SWAP6 PUSH1 0x0 SWAP1 JUMPDEST DUP10 DUP4 DUP4 LT PUSH3 0x2FB JUMPI POP POP POP LT PUSH3 0x2E0 JUMPI JUMPDEST POP POP POP POP DUP2 SHL ADD DUP5 SSTORE PUSH3 0x151 JUMP JUMPDEST ADD MLOAD SWAP1 PUSH1 0xF8 DUP5 PUSH1 0x0 NOT SWAP3 SHL AND SHR NOT AND SWAP1 SSTORE CODESIZE DUP1 DUP1 DUP1 PUSH3 0x2D1 JUMP JUMPDEST DUP6 DUP8 ADD MLOAD DUP10 SSTORE SWAP1 SWAP8 ADD SWAP7 SWAP5 DUP6 ADD SWAP5 DUP9 SWAP4 POP SWAP1 DUP2 ADD SWAP1 PUSH3 0x2BE JUMP JUMPDEST DUP11 PUSH1 0x0 MSTORE DUP4 DUP3 PUSH1 0x0 KECCAK256 SWAP2 DUP2 DUP9 ADD PUSH1 0x5 SHR DUP4 ADD SWAP4 DUP9 LT PUSH3 0x359 JUMPI JUMPDEST ADD PUSH1 0x5 SHR ADD SWAP1 DUP7 SWAP1 JUMPDEST DUP3 DUP2 LT PUSH3 0x34C JUMPI POP DUP14 SWAP2 POP PUSH3 0x124 JUMP JUMPDEST PUSH1 0x0 DUP2 SSTORE ADD DUP7 SWAP1 PUSH3 0x33A JUMP JUMPDEST SWAP3 POP DUP2 SWAP3 PUSH3 0x331 JUMP JUMPDEST PUSH1 0x22 DUP11 PUSH4 0x4E487B71 PUSH1 0xE0 SHL PUSH1 0x0 MSTORE MSTORE PUSH1 0x24 PUSH1 0x0 REVERT JUMPDEST SWAP1 PUSH1 0x7F AND SWAP1 PUSH3 0x110 JUMP JUMPDEST PUSH4 0x4E487B71 PUSH1 0xE0 SHL PUSH1 0x0 MSTORE PUSH1 0x41 PUSH1 0x4 MSTORE PUSH1 0x24 PUSH1 0x0 REVERT JUMPDEST ADD MLOAD SWAP1 POP CODESIZE DUP1 PUSH3 0xE0 JUMP JUMPDEST SWAP2 SWAP1 DUP8 SWAP5 POP PUSH1 0x1F NOT DUP5 AND DUP7 PUSH1 0x0 MSTORE DUP4 PUSH1 0x0 KECCAK256 SWAP4 PUSH1 0x0 SWAP1 JUMPDEST DUP3 DUP3 LT PUSH3 0x3F5 JUMPI POP POP DUP5 GT PUSH3 0x3DC JUMPI JUMPDEST POP POP POP DUP2 SHL ADD DUP2 SSTORE PUSH3 0xF2 JUMP JUMPDEST ADD MLOAD PUSH1 0x0 NOT DUP4 DUP7 SHL PUSH1 0xF8 AND SHR NOT AND SWAP1 SSTORE CODESIZE DUP1 DUP1 PUSH3 0x3CE JUMP JUMPDEST DUP5 DUP5 ADD MLOAD DUP7 SSTORE DUP11 SWAP8 SWAP1 SWAP6 ADD SWAP5 SWAP4 DUP5 ADD SWAP4 SWAP1 DUP2 ADD SWAP1 PUSH3 0x3BC JUMP JUMPDEST SWAP1 SWAP2 SWAP3 POP DUP5 PUSH1 0x0 MSTORE DUP6 DUP3 PUSH1 0x0 KECCAK256 SWAP2 DUP2 DUP7 ADD PUSH1 0x5 SHR DUP4 ADD SWAP4 DUP7 LT PUSH3 0x45E JUMPI JUMPDEST SWAP2 DUP9 SWAP2 DUP7 SWAP6 SWAP5 SWAP4 ADD PUSH1 0x5 SHR ADD SWAP2 JUMPDEST DUP3 DUP2 LT PUSH3 0x44E JUMPI POP DUP15 SWAP2 POP PUSH3 0xC6 JUMP JUMPDEST PUSH1 0x0 DUP2 SSTORE DUP6 SWAP5 POP DUP9 SWAP2 ADD PUSH3 0x43C JUMP JUMPDEST SWAP3 POP DUP2 SWAP3 PUSH3 0x42E JUMP JUMPDEST PUSH4 0x4E487B71 PUSH1 0xE0 SHL PUSH1 0x0 MSTORE PUSH1 0x22 PUSH1 0x4 MSTORE PUSH1 0x24 PUSH1 0x0 REVERT JUMPDEST SWAP4 PUSH1 0x7F AND SWAP4 PUSH3 0xAE JUMP JUMPDEST PUSH1 0x0 DUP1 REVERT JUMPDEST PUSH1 0x40 DUP2 ADD SWAP1 DUP2 LT PUSH1 0x1 PUSH1 0x1 PUSH1 0x40 SHL SUB DUP3 GT OR PUSH3 0x383 JUMPI PUSH1 0x40 MSTORE JUMP INVALID PUSH1 0x80 PUSH1 0x40 DUP2 DUP2 MSTORE PUSH1 0x4 DUP1 CALLDATASIZE LT ISZERO PUSH2 0x15 JUMPI PUSH1 0x0 DUP1 REVERT JUMPDEST PUSH1 0x0 SWAP3 DUP4 CALLDATALOAD PUSH1 0xE0 SHR SWAP1 DUP2 PUSH4 0x6FDDE03 EQ PUSH2 0x13A4 JUMPI POP DUP1 PUSH4 0x95EA7B3 EQ PUSH2 0x137A JUMPI DUP1 PUSH4 0x18160DDD EQ PUSH2 0x135D JUMPI DUP1 PUSH4 0x23B872DD EQ PUSH2 0x1320 JUMPI DUP1 PUSH4 0x313CE567 EQ PUSH2 0x1304 JUMPI DUP1 PUSH4 0x3644E515 EQ PUSH2 0x12E7 JUMPI DUP1 PUSH4 0x39509351 EQ PUSH2 0x1297 JUMPI DUP1 PUSH4 0x3A46B1A8 EQ PUSH2 0x119E JUMPI DUP1 PUSH4 0x40C10F19 EQ PUSH2 0xEB9 JUMPI DUP1 PUSH4 0x42966C68 EQ PUSH2 0xD79 JUMPI DUP1 PUSH4 0x4EE2CD7E EQ PUSH2 0xD24 JUMPI DUP1 PUSH4 0x587CDE1E EQ PUSH2 0xCE9 JUMPI DUP1 PUSH4 0x5C19A95C EQ PUSH2 0xCC5 JUMPI DUP1 PUSH4 0x6FCFFF45 EQ PUSH2 0xC7D JUMPI DUP1 PUSH4 0x70A08231 EQ PUSH2 0xC50 JUMPI DUP1 PUSH4 0x715018A6 EQ PUSH2 0xBEE JUMPI DUP1 PUSH4 0x79CC6790 EQ PUSH2 0xA8D JUMPI DUP1 PUSH4 0x7ECEBE00 EQ PUSH2 0xA55 JUMPI DUP1 PUSH4 0x8DA5CB5B EQ PUSH2 0xA2C JUMPI DUP1 PUSH4 0x8E539E8C EQ PUSH2 0x956 JUMPI DUP1 PUSH4 0x95D89B41 EQ PUSH2 0x852 JUMPI DUP1 PUSH4 0x9711715A EQ PUSH2 0x7F5 JUMPI DUP1 PUSH4 0x981B24D0 EQ PUSH2 0x7B8 JUMPI DUP1 PUSH4 0x9AB24EB0 EQ PUSH2 0x730 JUMPI DUP1 PUSH4 0xA457C2D7 EQ PUSH2 0x68C JUMPI DUP1 PUSH4 0xA9059CBB EQ PUSH2 0x65B JUMPI DUP1 PUSH4 0xC3CDA520 EQ PUSH2 0x4D5 JUMPI DUP1 PUSH4 0xD505ACCF EQ PUSH2 0x327 JUMPI DUP1 PUSH4 0xDD62ED3E EQ PUSH2 0x2DE JUMPI DUP1 PUSH4 0xF1127ED8 EQ PUSH2 0x242 JUMPI PUSH4 0xF2FDE38B EQ PUSH2 0x178 JUMPI PUSH1 0x0 DUP1 REVERT JUMPDEST CALLVALUE PUSH2 0x23E JUMPI PUSH1 0x20 CALLDATASIZE PUSH1 0x3 NOT ADD SLT PUSH2 0x23E JUMPI PUSH2 0x191 PUSH2 0x14ED JUMP JUMPDEST PUSH1 0x9 SLOAD PUSH1 0x1 PUSH1 0x1 PUSH1 0xA0 SHL SUB DUP1 DUP3 AND SWAP5 SWAP3 PUSH2 0x1AC CALLER DUP8 EQ PUSH2 0x151E JUMP JUMPDEST AND SWAP3 DUP4 ISZERO PUSH2 0x1EC JUMPI POP PUSH1 0x1 PUSH1 0x1 PUSH1 0xA0 SHL SUB NOT AND DUP3 OR PUSH1 0x9 SSTORE MLOAD SWAP2 PUSH32 0x8BE0079C531659141344CD1FD0A4F28419497F9722A3DAAFE3B4186F6B6457E0 DUP5 DUP5 LOG3 RETURN JUMPDEST PUSH1 0x84 SWAP1 PUSH1 0x20 DUP5 MLOAD SWAP2 PUSH3 0x461BCD PUSH1 0xE5 SHL DUP4 MSTORE DUP3 ADD MSTORE PUSH1 0x26 PUSH1 0x24 DUP3 ADD MSTORE PUSH32 0x4F776E61626C653A206E6577206F776E657220697320746865207A65726F2061 PUSH1 0x44 DUP3 ADD MSTORE PUSH6 0x646472657373 PUSH1 0xD0 SHL PUSH1 0x64 DUP3 ADD MSTORE REVERT JUMPDEST DUP3 DUP1 REVERT JUMPDEST DUP3 DUP5 CALLVALUE PUSH2 0x2DB JUMPI DUP2 PUSH1 0x3 NOT CALLDATASIZE ADD SLT PUSH2 0x2DB JUMPI PUSH2 0x25C PUSH2 0x14ED JUMP JUMPDEST PUSH4 0xFFFFFFFF SWAP2 PUSH1 0x24 CALLDATALOAD SWAP2 DUP4 DUP4 AND DUP4 SUB PUSH2 0x2D7 JUMPI DUP2 DUP6 SWAP2 PUSH2 0x29F SWAP5 SWAP4 PUSH1 0x20 DUP5 MLOAD PUSH2 0x284 DUP2 PUSH2 0x1569 JUMP JUMPDEST DUP3 DUP2 MSTORE ADD MSTORE PUSH1 0x1 PUSH1 0x1 PUSH1 0xA0 SHL SUB AND DUP2 MSTORE PUSH1 0xC PUSH1 0x20 MSTORE KECCAK256 PUSH2 0x19CC JUMP JUMPDEST POP SWAP1 PUSH1 0x20 DUP4 MLOAD SWAP3 PUSH2 0x2AF DUP5 PUSH2 0x1569 JUMP JUMPDEST SLOAD SWAP2 DUP3 AND DUP1 DUP5 MSTORE PUSH1 0x20 SWAP3 DUP4 SHR SWAP2 SWAP1 SWAP4 ADD SWAP1 DUP2 MSTORE DUP4 MLOAD SWAP3 DUP4 MSTORE MLOAD PUSH1 0x1 PUSH1 0x1 PUSH1 0xE0 SHL SUB AND SWAP1 DUP3 ADD MSTORE RETURN JUMPDEST POP DUP1 REVERT JUMPDEST DUP1 REVERT JUMPDEST POP POP CALLVALUE PUSH2 0x2D7 JUMPI DUP1 PUSH1 0x3 NOT CALLDATASIZE ADD SLT PUSH2 0x2D7 JUMPI DUP1 PUSH1 0x20 SWAP3 PUSH2 0x2FC PUSH2 0x14ED JUMP JUMPDEST PUSH2 0x304 PUSH2 0x1508 JUMP JUMPDEST PUSH1 0x1 PUSH1 0x1 PUSH1 0xA0 SHL SUB SWAP2 DUP3 AND DUP4 MSTORE PUSH1 0x1 DUP7 MSTORE DUP4 DUP4 KECCAK256 SWAP2 AND DUP3 MSTORE DUP5 MSTORE KECCAK256 SLOAD SWAP1 MLOAD SWAP1 DUP2 MSTORE RETURN JUMPDEST POP SWAP2 SWAP1 CALLVALUE PUSH2 0x2D7 JUMPI PUSH1 0xE0 CALLDATASIZE PUSH1 0x3 NOT ADD SLT PUSH2 0x2D7 JUMPI PUSH2 0x343 PUSH2 0x14ED JUMP JUMPDEST SWAP3 PUSH2 0x34C PUSH2 0x1508 JUMP JUMPDEST PUSH1 0x44 CALLDATALOAD SWAP2 PUSH1 0x84 CALLDATALOAD PUSH1 0x64 CALLDATALOAD PUSH1 0xFF DUP3 AND DUP3 SUB PUSH2 0x4D1 JUMPI DUP1 TIMESTAMP GT PUSH2 0x48E JUMPI PUSH1 0x1 PUSH1 0x1 PUSH1 0xA0 SHL SUB DUP9 AND PUSH1 0x0 SWAP1 DUP2 MSTORE PUSH1 0xA PUSH1 0x20 MSTORE PUSH1 0x40 SWAP1 KECCAK256 DUP1 SLOAD PUSH1 0x1 DUP2 ADD SWAP1 SWAP2 SSTORE SWAP2 DUP7 MLOAD PUSH1 0x20 DUP2 ADD SWAP2 PUSH32 0x0 DUP4 MSTORE PUSH1 0x1 DUP1 PUSH1 0xA0 SHL SUB SWAP4 DUP5 DUP13 AND SWAP6 DUP7 DUP12 DUP6 ADD MSTORE DUP6 DUP10 AND PUSH1 0x60 DUP6 ADD MSTORE DUP10 PUSH1 0x80 DUP6 ADD MSTORE PUSH1 0xA0 DUP5 ADD MSTORE PUSH1 0xC0 DUP4 ADD MSTORE PUSH1 0xC0 DUP3 MSTORE PUSH1 0xE0 DUP3 ADD DUP3 DUP2 LT PUSH8 0xFFFFFFFFFFFFFFFF DUP3 GT OR PUSH2 0x47B JUMPI SWAP2 PUSH2 0x423 SWAP4 SWAP2 PUSH2 0x41B SWAP4 DUP12 MSTORE PUSH2 0x416 PUSH1 0xC4 CALLDATALOAD SWAP4 PUSH1 0xA4 CALLDATALOAD SWAP4 MLOAD SWAP1 KECCAK256 PUSH2 0x24F7 JUMP JUMPDEST PUSH2 0x2317 JUMP JUMPDEST SWAP2 SWAP1 SWAP2 PUSH2 0x21A5 JUMP JUMPDEST AND SUB PUSH2 0x438 JUMPI POP PUSH2 0x435 SWAP3 SWAP4 SWAP5 PUSH2 0x1777 JUMP JUMPDEST MLOAD RETURN JUMPDEST PUSH1 0x64 SWAP1 PUSH1 0x20 DUP6 MLOAD SWAP2 PUSH3 0x461BCD PUSH1 0xE5 SHL DUP4 MSTORE DUP3 ADD MSTORE PUSH1 0x1E PUSH1 0x24 DUP3 ADD MSTORE PUSH32 0x45524332305065726D69743A20696E76616C6964207369676E61747572650000 PUSH1 0x44 DUP3 ADD MSTORE REVERT JUMPDEST PUSH4 0x4E487B71 PUSH1 0xE0 SHL DUP12 MSTORE PUSH1 0x41 DUP8 MSTORE PUSH1 0x24 DUP12 REVERT JUMPDEST DUP6 MLOAD PUSH3 0x461BCD PUSH1 0xE5 SHL DUP2 MSTORE PUSH1 0x20 DUP2 DUP6 ADD MSTORE PUSH1 0x1D PUSH1 0x24 DUP3 ADD MSTORE PUSH32 0x45524332305065726D69743A206578706972656420646561646C696E65000000 PUSH1 0x44 DUP3 ADD MSTORE PUSH1 0x64 SWAP1 REVERT JUMPDEST DUP7 DUP1 REVERT JUMPDEST POP CALLVALUE PUSH2 0x23E JUMPI PUSH1 0xC0 CALLDATASIZE PUSH1 0x3 NOT ADD SLT PUSH2 0x23E JUMPI PUSH2 0x4EF PUSH2 0x14ED JUMP JUMPDEST SWAP1 PUSH1 0x24 CALLDATALOAD PUSH1 0x44 CALLDATALOAD PUSH1 0x64 CALLDATALOAD PUSH1 0xFF DUP2 AND DUP2 SUB PUSH2 0x4D1 JUMPI DUP2 TIMESTAMP GT PUSH2 0x618 JUMPI DUP6 MLOAD SWAP1 PUSH1 0x20 DUP3 ADD SWAP3 PUSH32 0xE48329057BFD03D55E49B547132E39CFFD9C1820AD7B9D4C5307691425D15ADF DUP5 MSTORE PUSH1 0x1 DUP1 PUSH1 0xA0 SHL SUB DUP8 AND DUP9 DUP5 ADD MSTORE DUP5 PUSH1 0x60 DUP5 ADD MSTORE PUSH1 0x80 DUP4 ADD MSTORE PUSH1 0x80 DUP3 MSTORE PUSH1 0xA0 DUP3 ADD DUP3 DUP2 LT PUSH8 0xFFFFFFFFFFFFFFFF DUP3 GT OR PUSH2 0x605 JUMPI SWAP2 PUSH2 0x591 SWAP6 SWAP5 SWAP4 SWAP2 PUSH2 0x589 SWAP4 DUP10 MSTORE PUSH2 0x416 PUSH1 0xA4 CALLDATALOAD SWAP4 PUSH1 0x84 CALLDATALOAD SWAP4 MLOAD SWAP1 KECCAK256 PUSH2 0x24F7 JUMP JUMPDEST SWAP4 SWAP1 SWAP4 PUSH2 0x21A5 JUMP JUMPDEST PUSH1 0x1 PUSH1 0x1 PUSH1 0xA0 SHL SUB DUP4 AND PUSH1 0x0 SWAP1 DUP2 MSTORE PUSH1 0xA PUSH1 0x20 MSTORE PUSH1 0x40 SWAP1 KECCAK256 DUP1 SLOAD PUSH1 0x1 DUP2 ADD SWAP1 SWAP2 SSTORE SUB PUSH2 0x5C2 JUMPI POP SWAP1 PUSH2 0x435 SWAP2 PUSH2 0x1B36 JUMP JUMPDEST PUSH1 0x64 SWAP1 PUSH1 0x20 DUP6 MLOAD SWAP2 PUSH3 0x461BCD PUSH1 0xE5 SHL DUP4 MSTORE DUP3 ADD MSTORE PUSH1 0x19 PUSH1 0x24 DUP3 ADD MSTORE PUSH32 0x4552433230566F7465733A20696E76616C6964206E6F6E636500000000000000 PUSH1 0x44 DUP3 ADD MSTORE REVERT JUMPDEST PUSH4 0x4E487B71 PUSH1 0xE0 SHL DUP10 MSTORE PUSH1 0x41 DUP7 MSTORE PUSH1 0x24 DUP10 REVERT JUMPDEST DUP6 MLOAD PUSH3 0x461BCD PUSH1 0xE5 SHL DUP2 MSTORE PUSH1 0x20 DUP2 DUP7 ADD MSTORE PUSH1 0x1D PUSH1 0x24 DUP3 ADD MSTORE PUSH32 0x4552433230566F7465733A207369676E61747572652065787069726564000000 PUSH1 0x44 DUP3 ADD MSTORE PUSH1 0x64 SWAP1 REVERT JUMPDEST POP POP CALLVALUE PUSH2 0x2D7 JUMPI DUP1 PUSH1 0x3 NOT CALLDATASIZE ADD SLT PUSH2 0x2D7 JUMPI PUSH1 0x20 SWAP1 PUSH2 0x685 PUSH2 0x67B PUSH2 0x14ED JUMP JUMPDEST PUSH1 0x24 CALLDATALOAD SWAP1 CALLER PUSH2 0x15DF JUMP JUMPDEST MLOAD PUSH1 0x1 DUP2 MSTORE RETURN JUMPDEST POP DUP3 CALLVALUE PUSH2 0x2DB JUMPI DUP3 PUSH1 0x3 NOT CALLDATASIZE ADD SLT PUSH2 0x2DB JUMPI PUSH2 0x6A6 PUSH2 0x14ED JUMP JUMPDEST SWAP2 DUP4 PUSH1 0x24 CALLDATALOAD SWAP3 CALLER DUP2 MSTORE PUSH1 0x1 PUSH1 0x20 MSTORE DUP2 DUP2 KECCAK256 PUSH1 0x1 DUP1 PUSH1 0xA0 SHL SUB DUP7 AND DUP3 MSTORE PUSH1 0x20 MSTORE KECCAK256 SLOAD SWAP1 DUP3 DUP3 LT PUSH2 0x6DF JUMPI PUSH1 0x20 DUP6 PUSH2 0x685 DUP6 DUP6 SUB DUP8 CALLER PUSH2 0x1777 JUMP JUMPDEST PUSH1 0x84 SWAP1 PUSH1 0x20 DUP7 MLOAD SWAP2 PUSH3 0x461BCD PUSH1 0xE5 SHL DUP4 MSTORE DUP3 ADD MSTORE PUSH1 0x25 PUSH1 0x24 DUP3 ADD MSTORE PUSH32 0x45524332303A2064656372656173656420616C6C6F77616E63652062656C6F77 PUSH1 0x44 DUP3 ADD MSTORE PUSH5 0x207A65726F PUSH1 0xD8 SHL PUSH1 0x64 DUP3 ADD MSTORE REVERT JUMPDEST POP SWAP2 CALLVALUE PUSH2 0x2DB JUMPI PUSH1 0x20 CALLDATASIZE PUSH1 0x3 NOT ADD SLT PUSH2 0x2DB JUMPI PUSH1 0x1 PUSH1 0x1 PUSH1 0xA0 SHL SUB PUSH2 0x753 PUSH2 0x14ED JUMP JUMPDEST AND DUP2 MSTORE PUSH1 0xC PUSH1 0x20 MSTORE DUP2 DUP2 KECCAK256 SLOAD DUP1 PUSH2 0x77B JUMPI POP PUSH1 0x20 SWAP3 POP SWAP1 JUMPDEST MLOAD PUSH1 0x1 PUSH1 0x1 PUSH1 0xE0 SHL SUB SWAP1 SWAP2 AND DUP2 MSTORE RETURN JUMPDEST DUP3 DUP3 KECCAK256 SWAP2 PUSH1 0x1 DUP3 LT PUSH2 0x7A5 JUMPI POP PUSH1 0x20 SWAP4 POP SWAP1 PUSH2 0x79B SWAP2 PUSH1 0x0 NOT ADD SWAP1 PUSH2 0x19CC JUMP JUMPDEST POP SLOAD DUP3 SHR SWAP1 PUSH2 0x76B JUMP JUMPDEST PUSH4 0x4E487B71 PUSH1 0xE0 SHL DUP2 MSTORE PUSH1 0x11 DUP6 MSTORE PUSH1 0x24 SWAP1 REVERT JUMPDEST POP CALLVALUE PUSH2 0x23E JUMPI PUSH1 0x20 CALLDATASIZE PUSH1 0x3 NOT ADD SLT PUSH2 0x23E JUMPI SWAP2 PUSH2 0x7D7 PUSH1 0x20 SWAP4 CALLDATALOAD PUSH2 0x19E4 JUMP JUMPDEST SWAP2 POP ISZERO PUSH2 0x7E6 JUMPI SWAP1 JUMPDEST MLOAD SWAP1 DUP2 MSTORE RETURN JUMPDEST POP PUSH2 0x7EF PUSH2 0x26B4 JUMP JUMPDEST SWAP1 PUSH2 0x7E0 JUMP JUMPDEST POP POP CALLVALUE PUSH2 0x2D7 JUMPI DUP2 PUSH1 0x3 NOT CALLDATASIZE ADD SLT PUSH2 0x2D7 JUMPI PUSH2 0x81C PUSH1 0x1 DUP1 PUSH1 0xA0 SHL SUB PUSH1 0x9 SLOAD AND CALLER EQ PUSH2 0x151E JUMP JUMPDEST PUSH32 0x8030E83B04D87BEF53480E26263266D6CA66863AA8506ACA6F2559D18AA1CB67 PUSH1 0x20 PUSH1 0x1 PUSH1 0x8 SLOAD ADD DUP1 PUSH1 0x8 SSTORE DUP4 MLOAD SWAP1 DUP2 MSTORE LOG1 MLOAD RETURN JUMPDEST POP SWAP2 SWAP1 CALLVALUE PUSH2 0x2D7 JUMPI DUP2 PUSH1 0x3 NOT CALLDATASIZE ADD SLT PUSH2 0x2D7 JUMPI DUP1 MLOAD SWAP2 DUP1 SWAP4 DUP1 SLOAD SWAP2 PUSH1 0x1 SWAP1 DUP4 DUP3 SHR SWAP3 DUP3 DUP6 AND SWAP5 DUP6 ISZERO PUSH2 0x94C JUMPI JUMPDEST PUSH1 0x20 SWAP6 DUP7 DUP7 LT DUP2 EQ PUSH2 0x939 JUMPI DUP6 DUP10 MSTORE SWAP1 DUP2 ISZERO PUSH2 0x915 JUMPI POP PUSH1 0x1 EQ PUSH2 0x8BD JUMPI JUMPDEST PUSH2 0x8B9 DUP8 DUP8 PUSH2 0x8AF DUP3 DUP13 SUB DUP4 PUSH2 0x159B JUMP JUMPDEST MLOAD SWAP2 DUP3 SWAP2 DUP3 PUSH2 0x1496 JUMP JUMPDEST SUB SWAP1 RETURN JUMPDEST DUP2 MSTORE SWAP3 SWAP6 POP PUSH32 0x8A35ACFBC15FF81A39AE7D344FD709F28E8600B4AA8C65C6B64BFE7FE36BD19B JUMPDEST DUP3 DUP5 LT PUSH2 0x902 JUMPI POP POP POP DUP3 PUSH2 0x8B9 SWAP5 PUSH2 0x8AF SWAP3 DUP3 ADD ADD SWAP5 CODESIZE DUP1 PUSH2 0x89E JUMP JUMPDEST DUP1 SLOAD DUP7 DUP6 ADD DUP9 ADD MSTORE SWAP3 DUP7 ADD SWAP3 DUP2 ADD PUSH2 0x8E4 JUMP JUMPDEST PUSH1 0xFF NOT AND DUP9 DUP8 ADD MSTORE POP POP POP POP ISZERO ISZERO PUSH1 0x5 SHL DUP4 ADD ADD SWAP3 POP PUSH2 0x8AF DUP3 PUSH2 0x8B9 CODESIZE DUP1 PUSH2 0x89E JUMP JUMPDEST PUSH4 0x4E487B71 PUSH1 0xE0 SHL DUP5 MSTORE PUSH1 0x22 DUP4 MSTORE PUSH1 0x24 DUP5 REVERT JUMPDEST SWAP4 PUSH1 0x7F AND SWAP4 PUSH2 0x87F JUMP JUMPDEST POP SWAP2 CALLVALUE PUSH2 0x2DB JUMPI PUSH1 0x20 CALLDATASIZE PUSH1 0x3 NOT ADD SLT PUSH2 0x2DB JUMPI DUP3 CALLDATALOAD SWAP3 PUSH2 0x977 NUMBER DUP6 LT PUSH2 0x1AEA JUMP JUMPDEST PUSH1 0xD SLOAD SWAP4 DUP3 SWAP1 JUMPDEST DUP6 DUP3 LT PUSH2 0x9CE JUMPI POP POP DUP4 PUSH2 0x9A2 JUMPI POP PUSH1 0x20 SWAP3 POP SWAP1 MLOAD PUSH1 0x1 PUSH1 0x1 PUSH1 0xE0 SHL SUB SWAP1 SWAP2 AND DUP2 MSTORE RETURN JUMPDEST PUSH1 0x1 DUP5 LT PUSH2 0x9BB JUMPI POP POP PUSH2 0x79B PUSH1 0x20 SWAP3 PUSH1 0x0 NOT ADD PUSH2 0x1911 JUMP JUMPDEST PUSH4 0x4E487B71 PUSH1 0xE0 SHL DUP3 MSTORE PUSH1 0x11 SWAP1 MSTORE PUSH1 0x24 SWAP1 REVERT JUMPDEST SWAP1 SWAP5 PUSH1 0x1 SWAP1 PUSH2 0x9E3 DUP2 DUP9 XOR DUP4 SHR DUP3 DUP10 AND PUSH2 0x15BD JUMP JUMPDEST SWAP2 DUP4 PUSH4 0xFFFFFFFF PUSH2 0x9F3 DUP6 PUSH2 0x1911 JUMP JUMPDEST POP SLOAD AND GT ISZERO PUSH2 0xA06 JUMPI POP POP SWAP5 JUMPDEST SWAP1 PUSH2 0x97E JUMP JUMPDEST SWAP1 SWAP7 POP SWAP1 PUSH1 0x1 NOT DUP2 GT PUSH2 0xA19 JUMPI ADD PUSH2 0xA00 JUMP JUMPDEST PUSH4 0x4E487B71 PUSH1 0xE0 SHL DUP6 MSTORE PUSH1 0x11 DUP5 MSTORE PUSH1 0x24 DUP6 REVERT JUMPDEST POP POP CALLVALUE PUSH2 0x2D7 JUMPI DUP2 PUSH1 0x3 NOT CALLDATASIZE ADD SLT PUSH2 0x2D7 JUMPI PUSH1 0x9 SLOAD SWAP1 MLOAD PUSH1 0x1 PUSH1 0x1 PUSH1 0xA0 SHL SUB SWAP1 SWAP2 AND DUP2 MSTORE PUSH1 0x20 SWAP1 RETURN JUMPDEST POP POP CALLVALUE PUSH2 0x2D7 JUMPI PUSH1 0x20 CALLDATASIZE PUSH1 0x3 NOT ADD SLT PUSH2 0x2D7 JUMPI PUSH1 0x20 SWAP2 DUP2 SWAP1 PUSH1 0x1 PUSH1 0x1 PUSH1 0xA0 SHL SUB PUSH2 0xA7D PUSH2 0x14ED JUMP JUMPDEST AND DUP2 MSTORE PUSH1 0xA DUP5 MSTORE KECCAK256 SLOAD SWAP1 MLOAD SWAP1 DUP2 MSTORE RETURN JUMPDEST POP CALLVALUE PUSH2 0x23E JUMPI DUP2 PUSH1 0x3 NOT CALLDATASIZE ADD SLT PUSH2 0x23E JUMPI PUSH2 0xAA6 PUSH2 0x14ED JUMP JUMPDEST SWAP1 PUSH1 0x24 CALLDATALOAD SWAP2 PUSH2 0xAB6 DUP4 CALLER DUP4 PUSH2 0x1879 JUMP JUMPDEST PUSH1 0x1 PUSH1 0x1 PUSH1 0xA0 SHL SUB SWAP2 DUP2 DUP4 AND SWAP2 DUP3 ISZERO PUSH2 0xBA1 JUMPI PUSH2 0xAD2 SWAP1 PUSH2 0x273D JUMP JUMPDEST PUSH2 0xADA PUSH2 0x278C JUMP JUMPDEST DUP2 DUP7 MSTORE DUP6 PUSH1 0x20 MSTORE DUP5 DUP7 KECCAK256 SLOAD SWAP1 DUP5 DUP3 LT PUSH2 0xB53 JUMPI POP SWAP3 DUP1 SWAP3 DUP3 DUP3 PUSH2 0xB4E SWAP7 PUSH2 0xB49 SWAP6 DUP11 MSTORE DUP10 PUSH1 0x20 MSTORE SUB DUP8 DUP10 KECCAK256 SSTORE PUSH2 0xB12 DUP4 PUSH1 0x2 SLOAD PUSH2 0x1ADF JUMP JUMPDEST PUSH1 0x2 SSTORE DUP8 DUP2 PUSH1 0x0 DUP1 MLOAD PUSH1 0x20 PUSH2 0x28A2 DUP4 CODECOPY DUP2 MLOAD SWAP2 MSTORE PUSH1 0x20 DUP11 MLOAD DUP8 DUP2 MSTORE LOG3 DUP8 MSTORE PUSH1 0xB PUSH1 0x20 MSTORE DUP6 DUP8 KECCAK256 SLOAD DUP8 DUP1 MSTORE DUP7 DUP9 KECCAK256 SLOAD DUP3 AND SWAP2 AND PUSH2 0x1BB3 JUMP JUMPDEST PUSH2 0x1F1E JUMP JUMPDEST POP POP MLOAD RETURN JUMPDEST PUSH1 0x84 SWAP1 PUSH1 0x20 DUP8 MLOAD SWAP2 PUSH3 0x461BCD PUSH1 0xE5 SHL DUP4 MSTORE DUP3 ADD MSTORE PUSH1 0x22 PUSH1 0x24 DUP3 ADD MSTORE PUSH32 0x45524332303A206275726E20616D6F756E7420657863656564732062616C616E PUSH1 0x44 DUP3 ADD MSTORE PUSH2 0x6365 PUSH1 0xF0 SHL PUSH1 0x64 DUP3 ADD MSTORE REVERT JUMPDEST DUP6 MLOAD PUSH3 0x461BCD PUSH1 0xE5 SHL DUP2 MSTORE PUSH1 0x20 DUP2 DUP5 ADD MSTORE PUSH1 0x21 PUSH1 0x24 DUP3 ADD MSTORE PUSH32 0x45524332303A206275726E2066726F6D20746865207A65726F20616464726573 PUSH1 0x44 DUP3 ADD MSTORE PUSH1 0x73 PUSH1 0xF8 SHL PUSH1 0x64 DUP3 ADD MSTORE PUSH1 0x84 SWAP1 REVERT JUMPDEST POP POP CALLVALUE PUSH2 0x2D7 JUMPI DUP2 PUSH1 0x3 NOT CALLDATASIZE ADD SLT PUSH2 0x2D7 JUMPI PUSH1 0x9 SLOAD PUSH1 0x1 PUSH1 0x1 PUSH1 0xA0 SHL SUB DUP2 AND SWAP2 DUP4 SWAP2 PUSH2 0xC1B CALLER DUP6 EQ PUSH2 0x151E JUMP JUMPDEST PUSH1 0x1 PUSH1 0x1 PUSH1 0xA0 SHL SUB NOT AND PUSH1 0x9 SSTORE MLOAD SWAP2 PUSH32 0x8BE0079C531659141344CD1FD0A4F28419497F9722A3DAAFE3B4186F6B6457E0 DUP3 DUP5 LOG3 RETURN JUMPDEST POP POP CALLVALUE PUSH2 0x2D7 JUMPI PUSH1 0x20 CALLDATASIZE PUSH1 0x3 NOT ADD SLT PUSH2 0x2D7 JUMPI PUSH1 0x20 SWAP1 PUSH2 0xC76 PUSH2 0xC71 PUSH2 0x14ED JUMP JUMPDEST PUSH2 0x260D JUMP JUMPDEST SWAP1 MLOAD SWAP1 DUP2 MSTORE RETURN JUMPDEST POP POP CALLVALUE PUSH2 0x2D7 JUMPI PUSH1 0x20 CALLDATASIZE PUSH1 0x3 NOT ADD SLT PUSH2 0x2D7 JUMPI PUSH1 0x20 SWAP2 PUSH4 0xFFFFFFFF SWAP1 PUSH2 0xCBD SWAP1 DUP4 SWAP1 PUSH1 0x1 PUSH1 0x1 PUSH1 0xA0 SHL SUB PUSH2 0xCAF PUSH2 0x14ED JUMP JUMPDEST AND DUP2 MSTORE PUSH1 0xC DUP7 MSTORE KECCAK256 SLOAD PUSH2 0x25A8 JUMP JUMPDEST SWAP2 MLOAD SWAP2 AND DUP2 MSTORE RETURN JUMPDEST POP POP CALLVALUE PUSH2 0x2D7 JUMPI PUSH1 0x20 CALLDATASIZE PUSH1 0x3 NOT ADD SLT PUSH2 0x2D7 JUMPI PUSH2 0x435 PUSH2 0xCE3 PUSH2 0x14ED JUMP JUMPDEST CALLER PUSH2 0x1B36 JUMP JUMPDEST POP POP CALLVALUE PUSH2 0x2D7 JUMPI PUSH1 0x20 CALLDATASIZE PUSH1 0x3 NOT ADD SLT PUSH2 0x2D7 JUMPI PUSH1 0x20 SWAP2 PUSH1 0x1 PUSH1 0x1 PUSH1 0xA0 SHL SUB SWAP1 DUP3 SWAP1 DUP3 PUSH2 0xD13 PUSH2 0x14ED JUMP JUMPDEST AND DUP2 MSTORE PUSH1 0xB DUP6 MSTORE KECCAK256 SLOAD AND SWAP1 MLOAD SWAP1 DUP2 MSTORE RETURN JUMPDEST POP POP CALLVALUE PUSH2 0x2D7 JUMPI DUP1 PUSH1 0x3 NOT CALLDATASIZE ADD SLT PUSH2 0x2D7 JUMPI PUSH1 0x20 SWAP2 PUSH2 0xD41 PUSH2 0x14ED JUMP JUMPDEST PUSH1 0x1 PUSH1 0x1 PUSH1 0xA0 SHL SUB DUP2 AND DUP3 MSTORE PUSH1 0x5 DUP5 MSTORE DUP3 DUP3 KECCAK256 PUSH2 0xD60 SWAP1 PUSH1 0x24 CALLDATALOAD PUSH2 0x1AA8 JUMP JUMPDEST SWAP3 POP ISZERO PUSH2 0xD6F JUMPI POP SWAP1 MLOAD SWAP1 DUP2 MSTORE RETURN JUMPDEST PUSH2 0x7EF SWAP2 POP PUSH2 0x260D JUMP JUMPDEST POP CALLVALUE PUSH2 0x23E JUMPI PUSH1 0x20 DUP1 PUSH1 0x3 NOT CALLDATASIZE ADD SLT PUSH2 0xEB5 JUMPI DUP2 CALLDATALOAD SWAP2 CALLER ISZERO PUSH2 0xE6A JUMPI PUSH2 0xD9E CALLER PUSH2 0x273D JUMP JUMPDEST PUSH2 0xDA6 PUSH2 0x278C JUMP JUMPDEST CALLER DUP6 MSTORE DUP5 DUP3 MSTORE DUP4 DUP6 KECCAK256 SLOAD SWAP1 DUP4 DUP3 LT PUSH2 0xE1C JUMPI POP DUP3 SWAP2 PUSH2 0xB4E SWAP4 PUSH1 0xB SWAP3 CALLER DUP9 MSTORE DUP8 DUP4 MSTORE SUB DUP6 DUP8 KECCAK256 SSTORE PUSH2 0xDD9 DUP4 PUSH1 0x2 SLOAD PUSH2 0x1ADF JUMP JUMPDEST PUSH1 0x2 SSTORE DUP6 DUP6 MLOAD DUP5 DUP2 MSTORE PUSH1 0x0 DUP1 MLOAD PUSH1 0x20 PUSH2 0x28A2 DUP4 CODECOPY DUP2 MLOAD SWAP2 MSTORE DUP4 CALLER SWAP3 LOG3 CALLER DUP7 MSTORE MSTORE DUP3 DUP5 KECCAK256 SLOAD DUP5 DUP1 MSTORE DUP4 DUP6 KECCAK256 SLOAD PUSH2 0xB49 SWAP2 DUP4 SWAP2 PUSH1 0x1 PUSH1 0x1 PUSH1 0xA0 SHL SUB SWAP1 DUP2 AND SWAP2 AND PUSH2 0x1BB3 JUMP JUMPDEST DUP5 MLOAD PUSH3 0x461BCD PUSH1 0xE5 SHL DUP2 MSTORE SWAP1 DUP2 ADD DUP4 SWAP1 MSTORE PUSH1 0x22 PUSH1 0x24 DUP3 ADD MSTORE PUSH32 0x45524332303A206275726E20616D6F756E7420657863656564732062616C616E PUSH1 0x44 DUP3 ADD MSTORE PUSH2 0x6365 PUSH1 0xF0 SHL PUSH1 0x64 DUP3 ADD MSTORE PUSH1 0x84 SWAP1 REVERT JUMPDEST PUSH1 0x84 SWAP2 DUP5 MLOAD SWAP2 PUSH3 0x461BCD PUSH1 0xE5 SHL DUP4 MSTORE DUP3 ADD MSTORE PUSH1 0x21 PUSH1 0x24 DUP3 ADD MSTORE PUSH32 0x45524332303A206275726E2066726F6D20746865207A65726F20616464726573 PUSH1 0x44 DUP3 ADD MSTORE PUSH1 0x73 PUSH1 0xF8 SHL PUSH1 0x64 DUP3 ADD MSTORE REVERT JUMPDEST DUP4 DUP1 REVERT JUMPDEST POP CALLVALUE PUSH2 0x23E JUMPI DUP2 PUSH1 0x3 NOT CALLDATASIZE ADD SLT PUSH2 0x23E JUMPI PUSH2 0xED2 PUSH2 0x14ED JUMP JUMPDEST PUSH1 0x24 DUP1 CALLDATALOAD PUSH1 0x1 DUP1 PUSH1 0xA0 SHL SUB SWAP3 PUSH2 0xEED DUP5 PUSH1 0x9 SLOAD AND CALLER EQ PUSH2 0x151E JUMP JUMPDEST DUP4 DUP2 AND SWAP1 DUP2 ISZERO PUSH2 0x115C JUMPI PUSH2 0xF68 SWAP2 PUSH2 0xF05 DUP5 SWAP3 PUSH2 0x273D JUMP JUMPDEST PUSH2 0xF0D PUSH2 0x278C JUMP JUMPDEST PUSH2 0xF19 DUP3 PUSH1 0x2 SLOAD PUSH2 0x15BD JUMP JUMPDEST PUSH1 0x2 SSTORE DUP1 DUP10 MSTORE PUSH1 0x20 SWAP6 DUP10 DUP8 MSTORE DUP9 DUP11 KECCAK256 PUSH2 0xF33 DUP5 DUP3 SLOAD PUSH2 0x15BD JUMP JUMPDEST SWAP1 SSTORE DUP2 DUP11 PUSH1 0x0 DUP1 MLOAD PUSH1 0x20 PUSH2 0x28A2 DUP4 CODECOPY DUP2 MLOAD SWAP2 MSTORE DUP10 DUP13 MLOAD DUP8 DUP2 MSTORE LOG3 DUP10 DUP1 MSTORE PUSH1 0xB DUP8 MSTORE DUP1 DUP10 DUP12 KECCAK256 SLOAD AND SWAP2 DUP11 MSTORE DUP9 DUP11 KECCAK256 SLOAD AND SWAP1 PUSH2 0x1BB3 JUMP JUMPDEST PUSH1 0x1 PUSH1 0x1 PUSH1 0xE0 SHL SUB DUP1 PUSH2 0xF79 PUSH2 0x26B4 JUMP JUMPDEST GT PUSH2 0x1102 JUMPI PUSH1 0xD SLOAD SWAP4 DUP5 ISZERO SWAP3 DUP4 ISZERO PUSH2 0x10CD JUMPI PUSH2 0xF98 SWAP1 DUP4 DUP11 JUMPDEST AND PUSH2 0x15BD JUMP JUMPDEST SWAP3 ISZERO DUP1 PUSH2 0x1096 JUMPI JUMPDEST ISZERO PUSH2 0xFF5 JUMPI POP POP PUSH2 0xFB0 SWAP1 PUSH2 0x253F JUMP JUMPDEST SWAP3 PUSH1 0x1 DUP4 LT PUSH2 0xFE4 JUMPI POP POP SWAP1 PUSH2 0xFCC PUSH2 0x435 SWAP3 PUSH1 0x0 NOT ADD PUSH2 0x1911 JUMP JUMPDEST POP SWAP1 PUSH4 0xFFFFFFFF DUP3 SLOAD SWAP2 DUP2 NOT SWAP1 PUSH1 0x20 SHL AND SWAP2 AND OR SWAP1 SSTORE JUMP JUMPDEST PUSH4 0x4E487B71 PUSH1 0xE0 SHL DUP7 MSTORE PUSH1 0x11 SWAP1 MSTORE DUP5 REVERT JUMPDEST PUSH2 0x100F PUSH2 0x1009 SWAP9 SWAP8 SWAP7 SWAP6 SWAP4 SWAP3 SWAP5 SWAP9 NUMBER PUSH2 0x25A8 JUMP JUMPDEST SWAP3 PUSH2 0x253F JUMP JUMPDEST SWAP3 DUP5 DUP8 MLOAD SWAP3 PUSH2 0x101D DUP5 PUSH2 0x1569 JUMP JUMPDEST PUSH4 0xFFFFFFFF DUP1 SWAP6 AND DUP5 MSTORE DUP4 ADD SWAP5 AND DUP5 MSTORE PUSH1 0x1 PUSH1 0x40 SHL DUP2 LT ISZERO PUSH2 0x1084 JUMPI DUP1 PUSH1 0x1 PUSH2 0x1049 SWAP3 ADD PUSH1 0xD SSTORE PUSH2 0x1911 JUMP JUMPDEST SWAP6 SWAP1 SWAP6 PUSH2 0x1073 JUMPI POP MLOAD SWAP2 MLOAD PUSH4 0xFFFFFFFF SWAP2 SWAP1 SWAP3 AND AND SWAP2 AND PUSH1 0x20 SHL PUSH4 0xFFFFFFFF NOT AND OR SWAP1 SSTORE SWAP1 SWAP2 POP MLOAD RETURN JUMPDEST PUSH4 0x4E487B71 PUSH1 0xE0 SHL DUP9 MSTORE DUP8 SWAP1 MSTORE DUP8 DUP8 REVERT JUMPDEST PUSH4 0x4E487B71 PUSH1 0xE0 SHL DUP9 MSTORE PUSH1 0x41 DUP7 MSTORE DUP9 DUP9 REVERT JUMPDEST POP PUSH1 0x1 DUP6 LT PUSH2 0x10BB JUMPI PUSH4 0xFFFFFFFF PUSH2 0x10B1 PUSH1 0x0 NOT DUP8 ADD PUSH2 0x1911 JUMP JUMPDEST POP SLOAD AND NUMBER EQ PUSH2 0xFA0 JUMP JUMPDEST PUSH4 0x4E487B71 PUSH1 0xE0 SHL DUP9 MSTORE PUSH1 0x11 DUP7 MSTORE DUP4 DUP9 REVERT JUMPDEST PUSH1 0x1 DUP7 LT PUSH2 0x10F0 JUMPI PUSH2 0xF98 SWAP1 DUP4 PUSH2 0x10E7 PUSH1 0x0 NOT DUP10 ADD PUSH2 0x1911 JUMP JUMPDEST POP SLOAD DUP5 SHR PUSH2 0xF92 JUMP JUMPDEST PUSH4 0x4E487B71 PUSH1 0xE0 SHL DUP10 MSTORE PUSH1 0x11 DUP8 MSTORE DUP5 DUP10 REVERT JUMPDEST POP POP PUSH1 0x30 SWAP2 PUSH1 0x84 SWAP5 MLOAD SWAP4 PUSH3 0x461BCD PUSH1 0xE5 SHL DUP6 MSTORE DUP5 ADD MSTORE DUP3 ADD MSTORE PUSH32 0x4552433230566F7465733A20746F74616C20737570706C79207269736B73206F PUSH1 0x44 DUP3 ADD MSTORE PUSH16 0x766572666C6F77696E6720766F746573 PUSH1 0x80 SHL PUSH1 0x64 DUP3 ADD MSTORE REVERT JUMPDEST DUP7 MLOAD PUSH3 0x461BCD PUSH1 0xE5 SHL DUP2 MSTORE PUSH1 0x20 DUP2 DUP9 ADD MSTORE PUSH1 0x1F DUP2 DUP7 ADD MSTORE PUSH32 0x45524332303A206D696E7420746F20746865207A65726F206164647265737300 PUSH1 0x44 DUP3 ADD MSTORE PUSH1 0x64 SWAP1 REVERT JUMPDEST POP SWAP2 CALLVALUE PUSH2 0x2DB JUMPI DUP2 PUSH1 0x3 NOT CALLDATASIZE ADD SLT PUSH2 0x2DB JUMPI PUSH2 0x11B8 PUSH2 0x14ED JUMP JUMPDEST PUSH1 0x24 DUP1 CALLDATALOAD SWAP2 PUSH2 0x11C8 NUMBER DUP5 LT PUSH2 0x1AEA JUMP JUMPDEST PUSH1 0x1 PUSH1 0x1 PUSH1 0xA0 SHL SUB AND DUP4 MSTORE PUSH1 0xC PUSH1 0x20 MSTORE DUP4 DUP4 KECCAK256 DUP1 SLOAD SWAP1 SWAP6 SWAP1 SWAP3 DUP5 SWAP1 JUMPDEST DUP5 DUP3 LT PUSH2 0x1239 JUMPI POP POP DUP3 PUSH2 0x120A JUMPI POP POP POP PUSH1 0x20 SWAP3 POP SWAP1 MLOAD PUSH1 0x1 PUSH1 0x1 PUSH1 0xE0 SHL SUB SWAP1 SWAP2 AND DUP2 MSTORE RETURN JUMPDEST PUSH1 0x1 DUP4 SWAP5 SWAP3 SWAP4 LT PUSH2 0x1229 JUMPI POP POP POP PUSH1 0x20 SWAP3 PUSH2 0x79B SWAP2 PUSH1 0x0 NOT ADD SWAP1 PUSH2 0x19CC JUMP JUMPDEST PUSH4 0x4E487B71 PUSH1 0xE0 SHL DUP3 MSTORE PUSH1 0x11 SWAP1 MSTORE REVERT JUMPDEST SWAP1 SWAP4 PUSH1 0x1 SWAP1 PUSH2 0x124E DUP2 DUP8 XOR DUP4 SHR DUP3 DUP9 AND PUSH2 0x15BD JUMP JUMPDEST SWAP2 DUP4 PUSH4 0xFFFFFFFF PUSH2 0x125F DUP6 DUP14 PUSH2 0x19CC JUMP JUMPDEST POP SLOAD AND GT ISZERO PUSH2 0x1272 JUMPI POP POP SWAP4 JUMPDEST SWAP1 PUSH2 0x11E4 JUMP JUMPDEST SWAP1 SWAP6 POP SWAP1 PUSH1 0x1 NOT DUP2 GT PUSH2 0x1285 JUMPI ADD PUSH2 0x126C JUMP JUMPDEST PUSH4 0x4E487B71 PUSH1 0xE0 SHL DUP8 MSTORE PUSH1 0x11 DUP5 MSTORE DUP5 DUP8 REVERT JUMPDEST POP POP CALLVALUE PUSH2 0x2D7 JUMPI DUP1 PUSH1 0x3 NOT CALLDATASIZE ADD SLT PUSH2 0x2D7 JUMPI PUSH2 0x685 PUSH1 0x20 SWAP3 PUSH2 0x12E0 PUSH2 0x12BA PUSH2 0x14ED JUMP JUMPDEST CALLER DUP4 MSTORE PUSH1 0x1 DUP7 MSTORE DUP5 DUP4 KECCAK256 PUSH1 0x1 PUSH1 0x1 PUSH1 0xA0 SHL SUB DUP3 AND DUP5 MSTORE DUP7 MSTORE SWAP2 DUP5 SWAP1 KECCAK256 SLOAD PUSH1 0x24 CALLDATALOAD SWAP1 PUSH2 0x15BD JUMP JUMPDEST SWAP1 CALLER PUSH2 0x1777 JUMP JUMPDEST POP POP CALLVALUE PUSH2 0x2D7 JUMPI DUP2 PUSH1 0x3 NOT CALLDATASIZE ADD SLT PUSH2 0x2D7 JUMPI PUSH1 0x20 SWAP1 PUSH2 0xC76 PUSH2 0x23CC JUMP JUMPDEST POP POP CALLVALUE PUSH2 0x2D7 JUMPI DUP2 PUSH1 0x3 NOT CALLDATASIZE ADD SLT PUSH2 0x2D7 JUMPI PUSH1 0x20 SWAP1 MLOAD PUSH1 0x12 DUP2 MSTORE RETURN JUMPDEST POP POP CALLVALUE PUSH2 0x2D7 JUMPI PUSH1 0x60 CALLDATASIZE PUSH1 0x3 NOT ADD SLT PUSH2 0x2D7 JUMPI PUSH1 0x20 SWAP1 PUSH2 0x685 PUSH2 0x1341 PUSH2 0x14ED JUMP JUMPDEST PUSH2 0x1349 PUSH2 0x1508 JUMP JUMPDEST PUSH1 0x44 CALLDATALOAD SWAP2 PUSH2 0x1358 DUP4 CALLER DUP4 PUSH2 0x1879 JUMP JUMPDEST PUSH2 0x15DF JUMP JUMPDEST POP POP CALLVALUE PUSH2 0x2D7 JUMPI DUP2 PUSH1 0x3 NOT CALLDATASIZE ADD SLT PUSH2 0x2D7 JUMPI PUSH1 0x20 SWAP1 PUSH2 0xC76 PUSH2 0x26B4 JUMP JUMPDEST POP POP CALLVALUE PUSH2 0x2D7 JUMPI DUP1 PUSH1 0x3 NOT CALLDATASIZE ADD SLT PUSH2 0x2D7 JUMPI PUSH1 0x20 SWAP1 PUSH2 0x685 PUSH2 0x139A PUSH2 0x14ED JUMP JUMPDEST PUSH1 0x24 CALLDATALOAD SWAP1 CALLER PUSH2 0x1777 JUMP JUMPDEST SWAP3 SWAP2 SWAP1 POP CALLVALUE PUSH2 0xEB5 JUMPI DUP4 PUSH1 0x3 NOT CALLDATASIZE ADD SLT PUSH2 0xEB5 JUMPI PUSH1 0x3 SLOAD PUSH1 0x1 DUP2 DUP2 SHR SWAP2 DUP7 SWAP1 DUP3 DUP2 AND DUP1 ISZERO PUSH2 0x148C JUMPI JUMPDEST PUSH1 0x20 SWAP6 DUP7 DUP7 LT DUP3 EQ PUSH2 0x1479 JUMPI POP DUP5 DUP9 MSTORE SWAP1 DUP2 ISZERO PUSH2 0x1457 JUMPI POP PUSH1 0x1 EQ PUSH2 0x13FE JUMPI JUMPDEST PUSH2 0x8B9 DUP7 DUP7 PUSH2 0x8AF DUP3 DUP12 SUB DUP4 PUSH2 0x159B JUMP JUMPDEST SWAP3 SWAP6 POP PUSH1 0x3 DUP4 MSTORE PUSH32 0xC2575A0E9E593C00F959F8C92F12DB2869C3395A3B0502D05E2516446F71F85B JUMPDEST DUP3 DUP5 LT PUSH2 0x1444 JUMPI POP POP POP DUP3 PUSH2 0x8B9 SWAP5 PUSH2 0x8AF SWAP3 DUP3 ADD ADD SWAP5 CODESIZE PUSH2 0x13ED JUMP JUMPDEST DUP1 SLOAD DUP7 DUP6 ADD DUP9 ADD MSTORE SWAP3 DUP7 ADD SWAP3 DUP2 ADD PUSH2 0x1427 JUMP JUMPDEST PUSH1 0xFF NOT AND DUP8 DUP7 ADD MSTORE POP POP POP ISZERO ISZERO PUSH1 0x5 SHL DUP4 ADD ADD SWAP3 POP PUSH2 0x8AF DUP3 PUSH2 0x8B9 CODESIZE PUSH2 0x13ED JUMP JUMPDEST PUSH4 0x4E487B71 PUSH1 0xE0 SHL DUP5 MSTORE PUSH1 0x22 SWAP1 MSTORE PUSH1 0x24 DUP4 REVERT JUMPDEST SWAP4 PUSH1 0x7F AND SWAP4 PUSH2 0x13CD JUMP JUMPDEST SWAP2 SWAP1 SWAP2 PUSH1 0x20 DUP1 DUP3 MSTORE DUP4 MLOAD SWAP1 DUP2 DUP2 DUP5 ADD MSTORE PUSH1 0x0 SWAP5 JUMPDEST DUP3 DUP7 LT PUSH2 0x14D7 JUMPI POP POP DUP1 PUSH1 0x40 SWAP4 SWAP5 GT PUSH2 0x14CA JUMPI JUMPDEST PUSH1 0x1F ADD PUSH1 0x1F NOT AND ADD ADD SWAP1 JUMP JUMPDEST PUSH1 0x0 DUP4 DUP3 DUP5 ADD ADD MSTORE PUSH2 0x14BE JUMP JUMPDEST DUP6 DUP2 ADD DUP3 ADD MLOAD DUP5 DUP8 ADD PUSH1 0x40 ADD MSTORE SWAP5 DUP2 ADD SWAP5 PUSH2 0x14AA JUMP JUMPDEST PUSH1 0x4 CALLDATALOAD SWAP1 PUSH1 0x1 PUSH1 0x1 PUSH1 0xA0 SHL SUB DUP3 AND DUP3 SUB PUSH2 0x1503 JUMPI JUMP JUMPDEST PUSH1 0x0 DUP1 REVERT JUMPDEST PUSH1 0x24 CALLDATALOAD SWAP1 PUSH1 0x1 PUSH1 0x1 PUSH1 0xA0 SHL SUB DUP3 AND DUP3 SUB PUSH2 0x1503 JUMPI JUMP JUMPDEST ISZERO PUSH2 0x1525 JUMPI JUMP JUMPDEST PUSH1 0x64 PUSH1 0x40 MLOAD PUSH3 0x461BCD PUSH1 0xE5 SHL DUP2 MSTORE PUSH1 0x20 PUSH1 0x4 DUP3 ADD MSTORE PUSH1 0x20 PUSH1 0x24 DUP3 ADD MSTORE PUSH32 0x4F776E61626C653A2063616C6C6572206973206E6F7420746865206F776E6572 PUSH1 0x44 DUP3 ADD MSTORE REVERT JUMPDEST PUSH1 0x40 DUP2 ADD SWAP1 DUP2 LT PUSH8 0xFFFFFFFFFFFFFFFF DUP3 GT OR PUSH2 0x1585 JUMPI PUSH1 0x40 MSTORE JUMP JUMPDEST PUSH4 0x4E487B71 PUSH1 0xE0 SHL PUSH1 0x0 MSTORE PUSH1 0x41 PUSH1 0x4 MSTORE PUSH1 0x24 PUSH1 0x0 REVERT JUMPDEST SWAP1 PUSH1 0x1F DUP1 NOT SWAP2 ADD AND DUP2 ADD SWAP1 DUP2 LT PUSH8 0xFFFFFFFFFFFFFFFF DUP3 GT OR PUSH2 0x1585 JUMPI PUSH1 0x40 MSTORE JUMP JUMPDEST DUP2 NOT DUP2 GT PUSH2 0x15C9 JUMPI ADD SWAP1 JUMP JUMPDEST PUSH4 0x4E487B71 PUSH1 0xE0 SHL PUSH1 0x0 MSTORE PUSH1 0x11 PUSH1 0x4 MSTORE PUSH1 0x24 PUSH1 0x0 REVERT JUMPDEST PUSH1 0x1 PUSH1 0x1 PUSH1 0xA0 SHL SUB DUP1 DUP3 AND SWAP5 SWAP4 SWAP3 SWAP2 DUP6 ISZERO PUSH2 0x1724 JUMPI DUP2 DUP4 AND SWAP3 DUP4 ISZERO PUSH2 0x16D3 JUMPI PUSH2 0x160A PUSH2 0x160F SWAP3 PUSH2 0x273D JUMP JUMPDEST PUSH2 0x273D JUMP JUMPDEST PUSH1 0x0 DUP6 DUP2 MSTORE DUP1 PUSH1 0x20 MSTORE PUSH1 0x40 SWAP1 DUP2 DUP2 KECCAK256 SLOAD SWAP7 DUP6 DUP9 LT PUSH2 0x1680 JUMPI DUP6 PUSH2 0x167E SWAP8 SWAP9 DUP3 DUP5 MSTORE DUP4 PUSH1 0x20 MSTORE SUB DUP4 DUP4 KECCAK256 SSTORE DUP5 DUP3 MSTORE DUP3 DUP3 KECCAK256 PUSH2 0x164A DUP8 DUP3 SLOAD PUSH2 0x15BD JUMP JUMPDEST SWAP1 SSTORE DUP5 DUP2 PUSH1 0x0 DUP1 MLOAD PUSH1 0x20 PUSH2 0x28A2 DUP4 CODECOPY DUP2 MLOAD SWAP2 MSTORE PUSH1 0x20 DUP7 MLOAD DUP11 DUP2 MSTORE LOG3 DUP2 MSTORE PUSH1 0xB PUSH1 0x20 MSTORE DUP3 DUP3 DUP3 KECCAK256 SLOAD AND SWAP4 DUP2 MSTORE KECCAK256 SLOAD AND SWAP1 PUSH2 0x1BB3 JUMP JUMPDEST JUMP JUMPDEST DUP3 MLOAD PUSH3 0x461BCD PUSH1 0xE5 SHL DUP2 MSTORE PUSH1 0x20 PUSH1 0x4 DUP3 ADD MSTORE PUSH1 0x26 PUSH1 0x24 DUP3 ADD MSTORE PUSH32 0x45524332303A207472616E7366657220616D6F756E7420657863656564732062 PUSH1 0x44 DUP3 ADD MSTORE PUSH6 0x616C616E6365 PUSH1 0xD0 SHL PUSH1 0x64 DUP3 ADD MSTORE PUSH1 0x84 SWAP1 REVERT JUMPDEST PUSH1 0x40 MLOAD PUSH3 0x461BCD PUSH1 0xE5 SHL DUP2 MSTORE PUSH1 0x20 PUSH1 0x4 DUP3 ADD MSTORE PUSH1 0x23 PUSH1 0x24 DUP3 ADD MSTORE PUSH32 0x45524332303A207472616E7366657220746F20746865207A65726F2061646472 PUSH1 0x44 DUP3 ADD MSTORE PUSH3 0x657373 PUSH1 0xE8 SHL PUSH1 0x64 DUP3 ADD MSTORE PUSH1 0x84 SWAP1 REVERT JUMPDEST PUSH1 0x40 MLOAD PUSH3 0x461BCD PUSH1 0xE5 SHL DUP2 MSTORE PUSH1 0x20 PUSH1 0x4 DUP3 ADD MSTORE PUSH1 0x25 PUSH1 0x24 DUP3 ADD MSTORE PUSH32 0x45524332303A207472616E736665722066726F6D20746865207A65726F206164 PUSH1 0x44 DUP3 ADD MSTORE PUSH5 0x6472657373 PUSH1 0xD8 SHL PUSH1 0x64 DUP3 ADD MSTORE PUSH1 0x84 SWAP1 REVERT JUMPDEST PUSH1 0x1 PUSH1 0x1 PUSH1 0xA0 SHL SUB SWAP1 DUP2 AND SWAP2 DUP3 ISZERO PUSH2 0x1828 JUMPI AND SWAP2 DUP3 ISZERO PUSH2 0x17D8 JUMPI PUSH1 0x20 PUSH32 0x8C5BE1E5EBEC7D5BD14F71427D1E84F3DD0314C0F7B2291E5B200AC8C7C3B925 SWAP2 DUP4 PUSH1 0x0 MSTORE PUSH1 0x1 DUP3 MSTORE PUSH1 0x40 PUSH1 0x0 KECCAK256 DUP6 PUSH1 0x0 MSTORE DUP3 MSTORE DUP1 PUSH1 0x40 PUSH1 0x0 KECCAK256 SSTORE PUSH1 0x40 MLOAD SWAP1 DUP2 MSTORE LOG3 JUMP JUMPDEST PUSH1 0x40 MLOAD PUSH3 0x461BCD PUSH1 0xE5 SHL DUP2 MSTORE PUSH1 0x20 PUSH1 0x4 DUP3 ADD MSTORE PUSH1 0x22 PUSH1 0x24 DUP3 ADD MSTORE PUSH32 0x45524332303A20617070726F766520746F20746865207A65726F206164647265 PUSH1 0x44 DUP3 ADD MSTORE PUSH2 0x7373 PUSH1 0xF0 SHL PUSH1 0x64 DUP3 ADD MSTORE PUSH1 0x84 SWAP1 REVERT JUMPDEST PUSH1 0x40 MLOAD PUSH3 0x461BCD PUSH1 0xE5 SHL DUP2 MSTORE PUSH1 0x20 PUSH1 0x4 DUP3 ADD MSTORE PUSH1 0x24 DUP1 DUP3 ADD MSTORE PUSH32 0x45524332303A20617070726F76652066726F6D20746865207A65726F20616464 PUSH1 0x44 DUP3 ADD MSTORE PUSH4 0x72657373 PUSH1 0xE0 SHL PUSH1 0x64 DUP3 ADD MSTORE PUSH1 0x84 SWAP1 REVERT JUMPDEST SWAP1 PUSH1 0x1 DUP1 PUSH1 0xA0 SHL SUB DUP1 DUP4 AND PUSH1 0x0 MSTORE PUSH1 0x1 PUSH1 0x20 MSTORE PUSH1 0x40 PUSH1 0x0 KECCAK256 SWAP1 DUP3 AND PUSH1 0x0 MSTORE PUSH1 0x20 MSTORE PUSH1 0x40 PUSH1 0x0 KECCAK256 SLOAD SWAP3 PUSH1 0x0 NOT DUP5 SUB PUSH2 0x18B1 JUMPI JUMPDEST POP POP POP POP JUMP JUMPDEST DUP1 DUP5 LT PUSH2 0x18CC JUMPI PUSH2 0x18C3 SWAP4 SUB SWAP2 PUSH2 0x1777 JUMP JUMPDEST CODESIZE DUP1 DUP1 DUP1 PUSH2 0x18AB JUMP JUMPDEST PUSH1 0x40 MLOAD PUSH3 0x461BCD PUSH1 0xE5 SHL DUP2 MSTORE PUSH1 0x20 PUSH1 0x4 DUP3 ADD MSTORE PUSH1 0x1D PUSH1 0x24 DUP3 ADD MSTORE PUSH32 0x45524332303A20696E73756666696369656E7420616C6C6F77616E6365000000 PUSH1 0x44 DUP3 ADD MSTORE PUSH1 0x64 SWAP1 REVERT JUMPDEST PUSH1 0xD SLOAD DUP2 LT ISZERO PUSH2 0x1948 JUMPI PUSH1 0xD PUSH1 0x0 MSTORE PUSH32 0xD7B6990105719101DABEB77144F2A3385C8033ACD3AF97E9423A695E81AD1EB5 ADD SWAP1 PUSH1 0x0 SWAP1 JUMP JUMPDEST PUSH4 0x4E487B71 PUSH1 0xE0 SHL PUSH1 0x0 MSTORE PUSH1 0x32 PUSH1 0x4 MSTORE PUSH1 0x24 PUSH1 0x0 REVERT JUMPDEST PUSH1 0x7 SLOAD DUP2 LT ISZERO PUSH2 0x1948 JUMPI PUSH1 0x7 PUSH1 0x0 MSTORE PUSH32 0xA66CC928B5EDB82AF9BD49922954155AB7B0942694BEA4CE44661D9A8736C688 ADD SWAP1 PUSH1 0x0 SWAP1 JUMP JUMPDEST PUSH1 0x6 SLOAD DUP2 LT ISZERO PUSH2 0x1948 JUMPI PUSH1 0x6 PUSH1 0x0 MSTORE PUSH32 0xF652222313E28459528D920B65115C16C04F3EFC82AAEDC97BE59F3F377C0D3F ADD SWAP1 PUSH1 0x0 SWAP1 JUMP JUMPDEST DUP1 SLOAD DUP3 LT ISZERO PUSH2 0x1948 JUMPI PUSH1 0x0 MSTORE PUSH1 0x20 PUSH1 0x0 KECCAK256 ADD SWAP1 PUSH1 0x0 SWAP1 JUMP JUMPDEST DUP1 ISZERO PUSH2 0x1A6A JUMPI PUSH1 0x8 SLOAD DUP2 GT PUSH2 0x1A25 JUMPI PUSH2 0x19FC SWAP1 PUSH2 0x204A JUMP JUMPDEST PUSH1 0x6 SLOAD DUP2 SUB PUSH2 0x1A0E JUMPI POP PUSH1 0x0 SWAP1 PUSH1 0x0 SWAP1 JUMP JUMPDEST PUSH2 0x1A17 SWAP1 PUSH2 0x195E JUMP JUMPDEST SWAP1 SLOAD SWAP1 PUSH1 0x3 SHL SHR SWAP1 PUSH1 0x1 SWAP2 SWAP1 JUMP JUMPDEST PUSH1 0x40 MLOAD PUSH3 0x461BCD PUSH1 0xE5 SHL DUP2 MSTORE PUSH1 0x20 PUSH1 0x4 DUP3 ADD MSTORE PUSH1 0x1D PUSH1 0x24 DUP3 ADD MSTORE PUSH32 0x4552433230536E617073686F743A206E6F6E6578697374656E74206964000000 PUSH1 0x44 DUP3 ADD MSTORE PUSH1 0x64 SWAP1 REVERT JUMPDEST PUSH1 0x40 MLOAD PUSH3 0x461BCD PUSH1 0xE5 SHL DUP2 MSTORE PUSH1 0x20 PUSH1 0x4 DUP3 ADD MSTORE PUSH1 0x16 PUSH1 0x24 DUP3 ADD MSTORE PUSH22 0x4552433230536E617073686F743A206964206973203 PUSH1 0x54 SHL PUSH1 0x44 DUP3 ADD MSTORE PUSH1 0x64 SWAP1 REVERT JUMPDEST DUP1 ISZERO PUSH2 0x1A6A JUMPI PUSH1 0x8 SLOAD DUP2 GT PUSH2 0x1A25 JUMPI PUSH2 0x1AC1 SWAP1 DUP3 PUSH2 0x20F6 JUMP JUMPDEST DUP2 SLOAD DUP2 SUB PUSH2 0x1AD3 JUMPI POP POP PUSH1 0x0 SWAP1 PUSH1 0x0 SWAP1 JUMP JUMPDEST PUSH1 0x1 PUSH2 0x1A17 SWAP3 ADD PUSH2 0x19CC JUMP JUMPDEST DUP2 DUP2 LT PUSH2 0x15C9 JUMPI SUB SWAP1 JUMP JUMPDEST ISZERO PUSH2 0x1AF1 JUMPI JUMP JUMPDEST PUSH1 0x40 MLOAD PUSH3 0x461BCD PUSH1 0xE5 SHL DUP2 MSTORE PUSH1 0x20 PUSH1 0x4 DUP3 ADD MSTORE PUSH1 0x1F PUSH1 0x24 DUP3 ADD MSTORE PUSH32 0x4552433230566F7465733A20626C6F636B206E6F7420796574206D696E656400 PUSH1 0x44 DUP3 ADD MSTORE PUSH1 0x64 SWAP1 REVERT JUMPDEST PUSH2 0x167E SWAP2 PUSH2 0x1B61 PUSH1 0x1 DUP1 PUSH1 0xA0 SHL SUB DUP1 DUP5 AND SWAP4 DUP5 PUSH1 0x0 MSTORE PUSH1 0xB PUSH1 0x20 MSTORE DUP2 PUSH1 0x40 PUSH1 0x0 KECCAK256 SLOAD AND SWAP3 DUP4 SWAP2 PUSH2 0x260D JUMP JUMPDEST SWAP5 DUP1 PUSH1 0x0 MSTORE PUSH1 0xB PUSH1 0x20 MSTORE PUSH1 0x40 PUSH1 0x0 KECCAK256 SWAP3 DUP6 AND SWAP3 DUP4 PUSH12 0xFFFFFFFFFFFFFFFFFFFFFFFF PUSH1 0xA0 SHL DUP3 SLOAD AND OR SWAP1 SSTORE PUSH32 0x3134E8A2E6D97E929A7E54011EA5485D7D196DD5F0BA4D4EF95803E8E3FC257F PUSH1 0x0 PUSH1 0x40 MLOAD LOG4 JUMPDEST PUSH1 0x1 PUSH1 0x1 PUSH1 0xA0 SHL SUB SWAP2 DUP3 AND SWAP3 SWAP2 AND DUP1 DUP4 EQ ISZERO DUP1 PUSH2 0x1F15 JUMPI JUMPDEST PUSH2 0x1BD4 JUMPI POP POP POP JUMP JUMPDEST DUP1 PUSH2 0x1DA2 JUMPI JUMPDEST POP DUP2 PUSH2 0x1BE4 JUMPI POP POP JUMP JUMPDEST PUSH1 0x0 DUP3 DUP2 MSTORE PUSH1 0xC PUSH1 0x20 MSTORE PUSH1 0x40 DUP2 KECCAK256 DUP1 SLOAD DUP1 ISZERO SWAP3 SWAP2 SWAP1 DUP4 ISZERO PUSH2 0x1D6E JUMPI DUP3 JUMPDEST PUSH1 0x1 PUSH1 0x1 PUSH1 0xE0 SHL SUB SWAP1 DUP2 AND SWAP6 PUSH2 0x1C17 SWAP1 DUP8 PUSH2 0x15BD JUMP JUMPDEST SWAP5 ISZERO DUP1 PUSH2 0x1D34 JUMPI JUMPDEST ISZERO PUSH2 0x1C7F JUMPI POP PUSH2 0x1C2E DUP5 PUSH2 0x253F JUMP JUMPDEST SWAP3 PUSH1 0x1 DUP3 LT PUSH2 0x1C6B JUMPI POP PUSH1 0x0 DUP1 MLOAD PUSH1 0x20 PUSH2 0x28C2 DUP4 CODECOPY DUP2 MLOAD SWAP2 MSTORE SWAP5 SWAP3 PUSH2 0xFCC PUSH1 0x40 SWAP6 SWAP4 PUSH2 0x1C5E SWAP4 PUSH1 0x0 NOT ADD SWAP1 PUSH2 0x19CC JUMP JUMPDEST DUP3 MLOAD SWAP2 DUP3 MSTORE PUSH1 0x20 DUP3 ADD MSTORE LOG2 JUMP JUMPDEST PUSH4 0x4E487B71 PUSH1 0xE0 SHL DUP2 MSTORE PUSH1 0x11 PUSH1 0x4 MSTORE PUSH1 0x24 SWAP1 REVERT JUMPDEST SWAP2 PUSH2 0x1C89 NUMBER PUSH2 0x25A8 JUMP JUMPDEST SWAP1 PUSH2 0x1C93 DUP7 PUSH2 0x253F JUMP JUMPDEST SWAP3 PUSH1 0x40 MLOAD SWAP2 PUSH2 0x1CA1 DUP4 PUSH2 0x1569 JUMP JUMPDEST PUSH4 0xFFFFFFFF DUP1 SWAP5 AND DUP4 MSTORE DUP6 PUSH1 0x20 DUP5 ADD SWAP6 AND DUP6 MSTORE PUSH1 0x1 PUSH1 0x40 SHL DUP3 LT ISZERO PUSH2 0x1D20 JUMPI SWAP1 PUSH2 0x1CD0 SWAP2 PUSH1 0x1 DUP3 ADD DUP2 SSTORE PUSH2 0x19CC JUMP JUMPDEST SWAP6 SWAP1 SWAP6 PUSH2 0x1D0C JUMPI POP MLOAD SWAP2 MLOAD PUSH4 0xFFFFFFFF SWAP2 SWAP1 SWAP3 AND AND SWAP2 AND PUSH1 0x20 SHL PUSH4 0xFFFFFFFF NOT AND OR SWAP1 SSTORE PUSH1 0x0 DUP1 MLOAD PUSH1 0x20 PUSH2 0x28C2 DUP4 CODECOPY DUP2 MLOAD SWAP2 MSTORE SWAP2 PUSH1 0x40 SWAP2 PUSH2 0x1C5E JUMP JUMPDEST PUSH4 0x4E487B71 PUSH1 0xE0 SHL DUP2 MSTORE PUSH1 0x4 DUP2 SWAP1 MSTORE PUSH1 0x24 SWAP1 REVERT JUMPDEST PUSH4 0x4E487B71 PUSH1 0xE0 SHL DUP8 MSTORE PUSH1 0x41 PUSH1 0x4 MSTORE PUSH1 0x24 DUP8 REVERT JUMPDEST POP PUSH1 0x1 DUP3 LT PUSH2 0x1D5A JUMPI PUSH4 0xFFFFFFFF PUSH2 0x1D50 PUSH1 0x0 NOT DUP5 ADD DUP6 PUSH2 0x19CC JUMP JUMPDEST POP SLOAD AND NUMBER EQ PUSH2 0x1C1F JUMP JUMPDEST PUSH4 0x4E487B71 PUSH1 0xE0 SHL DUP5 MSTORE PUSH1 0x11 PUSH1 0x4 MSTORE PUSH1 0x24 DUP5 REVERT JUMPDEST PUSH1 0x1 DUP2 LT PUSH2 0x1D8E JUMPI PUSH2 0x1D84 PUSH1 0x0 NOT DUP3 ADD DUP4 PUSH2 0x19CC JUMP JUMPDEST POP SLOAD PUSH1 0x20 SHR PUSH2 0x1C01 JUMP JUMPDEST PUSH4 0x4E487B71 PUSH1 0xE0 SHL DUP4 MSTORE PUSH1 0x11 PUSH1 0x4 MSTORE PUSH1 0x24 DUP4 REVERT JUMPDEST PUSH1 0x0 DUP2 DUP2 MSTORE PUSH1 0xC PUSH1 0x20 MSTORE PUSH1 0x40 DUP2 KECCAK256 DUP1 SLOAD SWAP2 DUP3 ISZERO SWAP2 DUP3 ISZERO PUSH2 0x1EE0 JUMPI DUP2 SWAP4 JUMPDEST PUSH1 0x1 PUSH1 0x1 PUSH1 0xE0 SHL SUB SWAP5 DUP6 AND SWAP5 PUSH2 0x1DD5 DUP9 DUP8 PUSH2 0x1ADF JUMP JUMPDEST SWAP5 ISZERO DUP1 PUSH2 0x1EBA JUMPI JUMPDEST ISZERO PUSH2 0x1E2D JUMPI POP PUSH2 0x1DEC DUP5 PUSH2 0x253F JUMP JUMPDEST SWAP3 PUSH1 0x1 DUP3 LT PUSH2 0x1C6B JUMPI POP PUSH1 0x0 DUP1 MLOAD PUSH1 0x20 PUSH2 0x28C2 DUP4 CODECOPY DUP2 MLOAD SWAP2 MSTORE SWAP5 SWAP3 PUSH2 0xFCC PUSH1 0x40 SWAP6 SWAP4 PUSH2 0x1E1C SWAP4 PUSH1 0x0 NOT ADD SWAP1 PUSH2 0x19CC JUMP JUMPDEST DUP3 MLOAD SWAP2 DUP3 MSTORE PUSH1 0x20 DUP3 ADD MSTORE LOG2 CODESIZE PUSH2 0x1BDA JUMP JUMPDEST SWAP2 PUSH2 0x1E37 NUMBER PUSH2 0x25A8 JUMP JUMPDEST SWAP1 PUSH2 0x1E41 DUP7 PUSH2 0x253F JUMP JUMPDEST SWAP3 PUSH1 0x40 MLOAD SWAP2 PUSH2 0x1E4F DUP4 PUSH2 0x1569 JUMP JUMPDEST PUSH4 0xFFFFFFFF DUP1 SWAP5 AND DUP4 MSTORE DUP6 PUSH1 0x20 DUP5 ADD SWAP6 AND DUP6 MSTORE PUSH1 0x1 PUSH1 0x40 SHL DUP3 LT ISZERO PUSH2 0x1D20 JUMPI SWAP1 PUSH2 0x1E7E SWAP2 PUSH1 0x1 DUP3 ADD DUP2 SSTORE PUSH2 0x19CC JUMP JUMPDEST SWAP6 SWAP1 SWAP6 PUSH2 0x1D0C JUMPI POP MLOAD SWAP2 MLOAD PUSH4 0xFFFFFFFF SWAP2 SWAP1 SWAP3 AND AND SWAP2 AND PUSH1 0x20 SHL PUSH4 0xFFFFFFFF NOT AND OR SWAP1 SSTORE PUSH1 0x0 DUP1 MLOAD PUSH1 0x20 PUSH2 0x28C2 DUP4 CODECOPY DUP2 MLOAD SWAP2 MSTORE SWAP2 PUSH1 0x40 SWAP2 PUSH2 0x1E1C JUMP JUMPDEST POP PUSH1 0x1 DUP3 LT PUSH2 0x1D5A JUMPI PUSH4 0xFFFFFFFF PUSH2 0x1ED6 PUSH1 0x0 NOT DUP5 ADD DUP6 PUSH2 0x19CC JUMP JUMPDEST POP SLOAD AND NUMBER EQ PUSH2 0x1DDD JUMP JUMPDEST PUSH1 0x1 DUP5 LT PUSH2 0x1F01 JUMPI PUSH2 0x1EF6 PUSH1 0x0 NOT DUP6 ADD DUP3 PUSH2 0x19CC JUMP JUMPDEST POP SLOAD PUSH1 0x20 SHR SWAP4 PUSH2 0x1DBF JUMP JUMPDEST PUSH4 0x4E487B71 PUSH1 0xE0 SHL DUP3 MSTORE PUSH1 0x11 PUSH1 0x4 MSTORE PUSH1 0x24 DUP3 REVERT JUMPDEST POP DUP2 ISZERO ISZERO PUSH2 0x1BCB JUMP JUMPDEST PUSH1 0xD SLOAD SWAP1 SWAP2 DUP2 ISZERO SWAP2 PUSH1 0x0 DUP4 ISZERO PUSH2 0x202A JUMPI POP PUSH1 0x0 JUMPDEST PUSH1 0x1 PUSH1 0x1 PUSH1 0xE0 SHL SUB SWAP1 DUP2 AND SWAP5 PUSH2 0x1F48 SWAP1 DUP7 PUSH2 0x1ADF JUMP JUMPDEST SWAP4 ISZERO DUP1 PUSH2 0x2005 JUMPI JUMPDEST ISZERO PUSH2 0x1F77 JUMPI POP PUSH2 0x1F5F DUP4 PUSH2 0x253F JUMP JUMPDEST PUSH1 0x1 DUP3 LT PUSH2 0x15C9 JUMPI PUSH2 0xFCC PUSH2 0x167E SWAP3 PUSH1 0x0 NOT ADD PUSH2 0x1911 JUMP JUMPDEST PUSH2 0x1F80 NUMBER PUSH2 0x25A8 JUMP JUMPDEST SWAP1 PUSH2 0x1F8A DUP6 PUSH2 0x253F JUMP JUMPDEST PUSH1 0x40 MLOAD SWAP4 PUSH2 0x1F97 DUP6 PUSH2 0x1569 JUMP JUMPDEST PUSH4 0xFFFFFFFF DUP1 SWAP5 AND DUP6 MSTORE DUP3 PUSH1 0x20 DUP7 ADD SWAP3 AND DUP3 MSTORE PUSH1 0x1 PUSH1 0x40 SHL DUP2 LT ISZERO PUSH2 0x1585 JUMPI DUP1 PUSH1 0x1 PUSH2 0x1FC6 SWAP3 ADD PUSH1 0xD SSTORE PUSH2 0x1911 JUMP JUMPDEST SWAP4 SWAP1 SWAP4 PUSH2 0x1FEF JUMPI SWAP4 MLOAD SWAP1 MLOAD PUSH4 0xFFFFFFFF SWAP2 SWAP1 SWAP5 AND AND SWAP3 AND PUSH1 0x20 SHL PUSH4 0xFFFFFFFF NOT AND SWAP2 SWAP1 SWAP2 OR SWAP1 SSTORE JUMP JUMPDEST PUSH4 0x4E487B71 PUSH1 0xE0 SHL PUSH1 0x0 MSTORE PUSH1 0x0 PUSH1 0x4 MSTORE PUSH1 0x24 PUSH1 0x0 REVERT JUMPDEST POP PUSH1 0x1 DUP3 LT PUSH2 0x15C9 JUMPI PUSH4 0xFFFFFFFF PUSH2 0x2020 PUSH1 0x0 NOT DUP5 ADD PUSH2 0x1911 JUMP JUMPDEST POP SLOAD AND NUMBER EQ PUSH2 0x1F50 JUMP JUMPDEST PUSH1 0x1 DUP3 LT PUSH2 0x1C6B JUMPI POP PUSH2 0x2040 PUSH1 0x0 NOT DUP3 ADD PUSH2 0x1911 JUMP JUMPDEST POP SLOAD PUSH1 0x20 SHR PUSH2 0x1F32 JUMP JUMPDEST PUSH1 0x6 SLOAD SWAP1 DUP2 ISZERO PUSH2 0x20EF JUMPI PUSH1 0x0 SWAP2 JUMPDEST DUP1 DUP4 LT PUSH2 0x20A7 JUMPI POP DUP2 ISZERO ISZERO SWAP1 DUP2 PUSH2 0x2082 JUMPI JUMPDEST POP ISZERO PUSH2 0x207F JUMPI PUSH1 0x1 DUP2 LT PUSH2 0x15C9 JUMPI PUSH1 0x0 NOT ADD SWAP1 JUMP JUMPDEST SWAP1 JUMP JUMPDEST SWAP1 POP PUSH1 0x1 DUP3 LT PUSH2 0x15C9 JUMPI PUSH2 0x2099 PUSH1 0x0 NOT DUP4 ADD PUSH2 0x1995 JUMP JUMPDEST SWAP1 SLOAD SWAP1 PUSH1 0x3 SHL SHR EQ CODESIZE PUSH2 0x206A JUMP JUMPDEST PUSH1 0x1 SWAP1 PUSH2 0x20BA DUP2 DUP6 XOR DUP4 SHR DUP3 DUP7 AND PUSH2 0x15BD JUMP JUMPDEST SWAP2 DUP4 PUSH2 0x20C5 DUP5 PUSH2 0x1995 JUMP JUMPDEST SWAP1 SLOAD SWAP1 PUSH1 0x3 SHL SHR GT PUSH1 0x0 EQ PUSH2 0x20DB JUMPI POP POP PUSH2 0x2058 JUMP JUMPDEST SWAP1 SWAP4 POP SWAP1 PUSH1 0x1 NOT DUP2 GT PUSH2 0x15C9 JUMPI ADD SWAP2 PUSH2 0x2058 JUMP JUMPDEST POP POP PUSH1 0x0 SWAP1 JUMP JUMPDEST DUP1 SLOAD SWAP2 DUP3 ISZERO PUSH2 0x219D JUMPI PUSH1 0x0 SWAP3 JUMPDEST DUP1 DUP5 LT PUSH2 0x2154 JUMPI POP DUP3 ISZERO ISZERO SWAP2 DUP3 PUSH2 0x212B JUMPI JUMPDEST POP POP ISZERO PUSH2 0x207F JUMPI PUSH1 0x1 DUP2 LT PUSH2 0x15C9 JUMPI PUSH1 0x0 NOT ADD SWAP1 JUMP JUMPDEST SWAP1 SWAP2 POP PUSH1 0x1 DUP4 LT PUSH2 0x15C9 JUMPI PUSH2 0x2145 SWAP1 PUSH1 0x0 NOT DUP5 ADD SWAP1 PUSH2 0x19CC JUMP JUMPDEST SWAP1 SLOAD SWAP1 PUSH1 0x3 SHL SHR EQ CODESIZE DUP1 PUSH2 0x2115 JUMP JUMPDEST PUSH1 0x1 SWAP1 PUSH2 0x2167 DUP2 DUP7 XOR DUP4 SHR DUP3 DUP8 AND PUSH2 0x15BD JUMP JUMPDEST SWAP2 DUP4 PUSH2 0x2173 DUP5 DUP8 PUSH2 0x19CC JUMP JUMPDEST SWAP1 SLOAD SWAP1 PUSH1 0x3 SHL SHR GT PUSH1 0x0 EQ PUSH2 0x2189 JUMPI POP POP PUSH2 0x2103 JUMP JUMPDEST SWAP1 SWAP5 POP SWAP1 PUSH1 0x1 NOT DUP2 GT PUSH2 0x15C9 JUMPI ADD SWAP3 PUSH2 0x2103 JUMP JUMPDEST POP POP POP PUSH1 0x0 SWAP1 JUMP JUMPDEST PUSH1 0x5 DUP2 LT ISZERO PUSH2 0x2301 JUMPI DUP1 PUSH2 0x21B6 JUMPI POP JUMP JUMPDEST PUSH1 0x1 DUP2 SUB PUSH2 0x2203 JUMPI PUSH1 0x40 MLOAD PUSH3 0x461BCD PUSH1 0xE5 SHL DUP2 MSTORE PUSH1 0x20 PUSH1 0x4 DUP3 ADD MSTORE PUSH1 0x18 PUSH1 0x24 DUP3 ADD MSTORE PUSH32 0x45434453413A20696E76616C6964207369676E61747572650000000000000000 PUSH1 0x44 DUP3 ADD MSTORE PUSH1 0x64 SWAP1 REVERT JUMPDEST PUSH1 0x2 DUP2 SUB PUSH2 0x2250 JUMPI PUSH1 0x40 MLOAD PUSH3 0x461BCD PUSH1 0xE5 SHL DUP2 MSTORE PUSH1 0x20 PUSH1 0x4 DUP3 ADD MSTORE PUSH1 0x1F PUSH1 0x24 DUP3 ADD MSTORE PUSH32 0x45434453413A20696E76616C6964207369676E6174757265206C656E67746800 PUSH1 0x44 DUP3 ADD MSTORE PUSH1 0x64 SWAP1 REVERT JUMPDEST PUSH1 0x3 DUP2 SUB PUSH2 0x22A8 JUMPI PUSH1 0x40 MLOAD PUSH3 0x461BCD PUSH1 0xE5 SHL DUP2 MSTORE PUSH1 0x20 PUSH1 0x4 DUP3 ADD MSTORE PUSH1 0x22 PUSH1 0x24 DUP3 ADD MSTORE PUSH32 0x45434453413A20696E76616C6964207369676E6174757265202773272076616C PUSH1 0x44 DUP3 ADD MSTORE PUSH2 0x7565 PUSH1 0xF0 SHL PUSH1 0x64 DUP3 ADD MSTORE PUSH1 0x84 SWAP1 REVERT JUMPDEST PUSH1 0x4 EQ PUSH2 0x22B1 JUMPI JUMP JUMPDEST PUSH1 0x40 MLOAD PUSH3 0x461BCD PUSH1 0xE5 SHL DUP2 MSTORE PUSH1 0x20 PUSH1 0x4 DUP3 ADD MSTORE PUSH1 0x22 PUSH1 0x24 DUP3 ADD MSTORE PUSH32 0x45434453413A20696E76616C6964207369676E6174757265202776272076616C PUSH1 0x44 DUP3 ADD MSTORE PUSH2 0x7565 PUSH1 0xF0 SHL PUSH1 0x64 DUP3 ADD MSTORE PUSH1 0x84 SWAP1 REVERT JUMPDEST PUSH4 0x4E487B71 PUSH1 0xE0 SHL PUSH1 0x0 MSTORE PUSH1 0x21 PUSH1 0x4 MSTORE PUSH1 0x24 PUSH1 0x0 REVERT JUMPDEST SWAP3 SWAP2 SWAP1 PUSH32 0x7FFFFFFFFFFFFFFFFFFFFFFFFFFFFFFF5D576E7357A4501DDFE92F46681B20A0 DUP4 GT PUSH2 0x23C0 JUMPI PUSH1 0xFF AND PUSH1 0x1B DUP2 EQ ISZERO DUP1 PUSH2 0x23B5 JUMPI JUMPDEST PUSH2 0x23A9 JUMPI SWAP2 PUSH1 0x80 SWAP5 SWAP4 SWAP2 PUSH1 0x20 SWAP4 PUSH1 0x40 MLOAD SWAP4 DUP5 MSTORE DUP5 DUP5 ADD MSTORE PUSH1 0x40 DUP4 ADD MSTORE PUSH1 0x60 DUP3 ADD MSTORE PUSH1 0x0 SWAP4 DUP5 SWAP2 DUP3 DUP1 MSTORE PUSH1 0x1 GAS STATICCALL ISZERO PUSH2 0x239C JUMPI DUP2 MLOAD PUSH1 0x1 PUSH1 0x1 PUSH1 0xA0 SHL SUB DUP2 AND ISZERO PUSH2 0x2396 JUMPI SWAP2 SWAP1 JUMP JUMPDEST POP PUSH1 0x1 SWAP1 JUMP JUMPDEST POP PUSH1 0x40 MLOAD SWAP1 RETURNDATASIZE SWAP1 DUP3 RETURNDATACOPY RETURNDATASIZE SWAP1 REVERT JUMPDEST POP POP POP POP PUSH1 0x0 SWAP1 PUSH1 0x4 SWAP1 JUMP JUMPDEST POP PUSH1 0x1C DUP2 EQ ISZERO PUSH2 0x234F JUMP JUMPDEST POP POP POP POP PUSH1 0x0 SWAP1 PUSH1 0x3 SWAP1 JUMP JUMPDEST ADDRESS PUSH32 0x0 PUSH1 0x1 PUSH1 0x1 PUSH1 0xA0 SHL SUB AND EQ DUP1 PUSH2 0x24CE JUMPI JUMPDEST ISZERO PUSH2 0x2427 JUMPI PUSH32 0x0 SWAP1 JUMP JUMPDEST PUSH1 0x40 MLOAD PUSH1 0x20 DUP2 ADD SWAP1 PUSH32 0x0 DUP3 MSTORE PUSH32 0x0 PUSH1 0x40 DUP3 ADD MSTORE PUSH32 0x0 PUSH1 0x60 DUP3 ADD MSTORE CHAINID PUSH1 0x80 DUP3 ADD MSTORE ADDRESS PUSH1 0xA0 DUP3 ADD MSTORE PUSH1 0xA0 DUP2 MSTORE PUSH1 0xC0 DUP2 ADD DUP2 DUP2 LT PUSH8 0xFFFFFFFFFFFFFFFF DUP3 GT OR PUSH2 0x1585 JUMPI PUSH1 0x40 MSTORE MLOAD SWAP1 KECCAK256 SWAP1 JUMP JUMPDEST POP PUSH32 0x0 CHAINID EQ PUSH2 0x23FE JUMP JUMPDEST PUSH2 0x24FF PUSH2 0x23CC JUMP JUMPDEST SWAP1 PUSH1 0x40 MLOAD SWAP1 PUSH1 0x20 DUP3 ADD SWAP3 PUSH2 0x1901 PUSH1 0xF0 SHL DUP5 MSTORE PUSH1 0x22 DUP4 ADD MSTORE PUSH1 0x42 DUP3 ADD MSTORE PUSH1 0x42 DUP2 MSTORE PUSH1 0x80 DUP2 ADD DUP2 DUP2 LT PUSH8 0xFFFFFFFFFFFFFFFF DUP3 GT OR PUSH2 0x1585 JUMPI PUSH1 0x40 MSTORE MLOAD SWAP1 KECCAK256 SWAP1 JUMP JUMPDEST PUSH1 0x1 PUSH1 0x1 PUSH1 0xE0 SHL SUB SWAP1 DUP2 DUP2 GT PUSH2 0x2553 JUMPI AND SWAP1 JUMP JUMPDEST PUSH1 0x40 MLOAD PUSH3 0x461BCD PUSH1 0xE5 SHL DUP2 MSTORE PUSH1 0x20 PUSH1 0x4 DUP3 ADD MSTORE PUSH1 0x27 PUSH1 0x24 DUP3 ADD MSTORE PUSH32 0x53616665436173743A2076616C756520646F65736E27742066697420696E2032 PUSH1 0x44 DUP3 ADD MSTORE PUSH7 0x32342062697473 PUSH1 0xC8 SHL PUSH1 0x64 DUP3 ADD MSTORE PUSH1 0x84 SWAP1 REVERT JUMPDEST PUSH4 0xFFFFFFFF SWAP1 DUP2 DUP2 GT PUSH2 0x25B9 JUMPI AND SWAP1 JUMP JUMPDEST PUSH1 0x40 MLOAD PUSH3 0x461BCD PUSH1 0xE5 SHL DUP2 MSTORE PUSH1 0x20 PUSH1 0x4 DUP3 ADD MSTORE PUSH1 0x26 PUSH1 0x24 DUP3 ADD MSTORE PUSH32 0x53616665436173743A2076616C756520646F65736E27742066697420696E2033 PUSH1 0x44 DUP3 ADD MSTORE PUSH6 0x322062697473 PUSH1 0xD0 SHL PUSH1 0x64 DUP3 ADD MSTORE PUSH1 0x84 SWAP1 REVERT JUMPDEST PUSH1 0x1 DUP1 PUSH1 0xA0 SHL SUB AND SWAP1 PUSH1 0x0 SWAP2 DUP1 DUP4 MSTORE DUP3 PUSH1 0x20 MSTORE PUSH1 0x40 DUP4 KECCAK256 SLOAD PUSH1 0x40 MLOAD SWAP2 PUSH4 0x26B71A29 PUSH1 0xE1 SHL DUP4 MSTORE PUSH1 0x4 DUP4 ADD MSTORE PUSH1 0x20 DUP3 PUSH1 0x24 DUP2 PUSH20 0x9F5C41DA4DBDD0C59F663053AC79364D02A5381D GAS STATICCALL SWAP2 DUP3 ISZERO PUSH2 0x26A9 JUMPI DUP5 SWAP3 PUSH2 0x266F JUMPI JUMPDEST POP PUSH2 0x207F SWAP3 SWAP4 POP PUSH2 0x15BD JUMP JUMPDEST SWAP1 SWAP2 POP PUSH1 0x20 DUP2 RETURNDATASIZE DUP3 GT PUSH2 0x26A1 JUMPI JUMPDEST DUP2 PUSH2 0x268A PUSH1 0x20 SWAP4 DUP4 PUSH2 0x159B JUMP JUMPDEST DUP2 ADD SUB SLT PUSH2 0xEB5 JUMPI PUSH2 0x207F SWAP3 SWAP4 POP MLOAD SWAP1 DUP4 SWAP3 PUSH2 0x2663 JUMP JUMPDEST RETURNDATASIZE SWAP2 POP PUSH2 0x267D JUMP JUMPDEST PUSH1 0x40 MLOAD RETURNDATASIZE DUP7 DUP3 RETURNDATACOPY RETURNDATASIZE SWAP1 REVERT JUMPDEST PUSH1 0x2 SLOAD PUSH1 0x40 MLOAD PUSH4 0x36CEB48B PUSH1 0xE2 SHL DUP2 MSTORE SWAP2 SWAP1 PUSH1 0x20 DUP4 PUSH1 0x4 DUP2 PUSH20 0x9F5C41DA4DBDD0C59F663053AC79364D02A5381D GAS STATICCALL SWAP3 DUP4 ISZERO PUSH2 0x2731 JUMPI PUSH1 0x0 SWAP4 PUSH2 0x26FE JUMPI JUMPDEST POP SWAP2 PUSH2 0x207F SWAP2 SWAP3 PUSH2 0x15BD JUMP JUMPDEST PUSH1 0x20 DUP2 RETURNDATASIZE DUP3 GT PUSH2 0x2729 JUMPI JUMPDEST DUP2 PUSH2 0x2716 PUSH1 0x20 SWAP4 DUP4 PUSH2 0x159B JUMP JUMPDEST DUP2 ADD SUB SLT PUSH2 0xEB5 JUMPI MLOAD SWAP3 POP PUSH2 0x207F PUSH2 0x26F2 JUMP JUMPDEST RETURNDATASIZE SWAP2 POP PUSH2 0x2709 JUMP JUMPDEST PUSH1 0x40 MLOAD RETURNDATASIZE PUSH1 0x0 DUP3 RETURNDATACOPY RETURNDATASIZE SWAP1 REVERT JUMPDEST PUSH1 0x1 PUSH1 0x1 PUSH1 0xA0 SHL SUB DUP2 AND PUSH1 0x0 SWAP1 DUP2 MSTORE PUSH1 0x5 PUSH1 0x20 MSTORE PUSH1 0x40 SWAP1 KECCAK256 SWAP1 PUSH2 0x275F SWAP1 PUSH2 0x260D JUMP JUMPDEST PUSH1 0x8 SLOAD DUP1 PUSH2 0x276C DUP5 PUSH2 0x287C JUMP JUMPDEST LT PUSH2 0x2776 JUMPI POP POP POP JUMP JUMPDEST DUP3 PUSH2 0x2786 PUSH1 0x1 SWAP3 PUSH2 0x167E SWAP6 PUSH2 0x2818 JUMP JUMPDEST ADD PUSH2 0x2818 JUMP JUMPDEST PUSH2 0x2794 PUSH2 0x26B4 JUMP JUMPDEST PUSH1 0x8 SLOAD SWAP1 DUP2 PUSH2 0x27A1 PUSH2 0x284F JUMP JUMPDEST LT PUSH2 0x27AA JUMPI POP POP JUMP JUMPDEST PUSH1 0x6 SLOAD PUSH1 0x1 PUSH1 0x40 SHL SWAP1 DUP2 DUP2 LT ISZERO PUSH2 0x1585 JUMPI DUP1 PUSH1 0x1 PUSH2 0x27CB SWAP3 ADD PUSH1 0x6 SSTORE PUSH2 0x1995 JUMP JUMPDEST SWAP4 DUP2 SLOAD SWAP5 PUSH1 0x3 SHL SWAP5 PUSH1 0x0 NOT SWAP6 DUP7 DUP2 SHL SWAP3 DUP4 SWAP2 SHL AND SWAP2 NOT AND OR SWAP1 SSTORE PUSH1 0x7 SLOAD SWAP1 DUP2 LT ISZERO PUSH2 0x1585 JUMPI DUP1 PUSH1 0x1 PUSH2 0x2800 SWAP3 ADD PUSH1 0x7 SSTORE PUSH2 0x195E JUMP JUMPDEST SWAP1 SWAP3 DUP4 SLOAD SWAP2 PUSH1 0x3 SHL SWAP1 DUP2 SHL SWAP3 DUP4 SWAP2 SHL AND SWAP2 NOT AND OR SWAP1 SSTORE JUMP JUMPDEST DUP1 SLOAD PUSH1 0x1 PUSH1 0x40 SHL DUP2 LT ISZERO PUSH2 0x1585 JUMPI PUSH2 0x2835 SWAP2 PUSH1 0x1 DUP3 ADD DUP2 SSTORE PUSH2 0x19CC JUMP JUMPDEST DUP2 SWAP3 SWAP2 SLOAD SWAP1 PUSH1 0x3 SHL PUSH1 0x0 NOT DUP2 SHL SWAP3 DUP4 SWAP2 SHL AND SWAP2 NOT AND OR SWAP1 SSTORE JUMP JUMPDEST PUSH1 0x6 SLOAD DUP1 PUSH2 0x285D JUMPI POP PUSH1 0x0 SWAP1 JUMP JUMPDEST PUSH1 0x1 DUP2 LT PUSH2 0x15C9 JUMPI PUSH2 0x2872 SWAP1 PUSH1 0x0 NOT ADD PUSH2 0x1995 JUMP JUMPDEST SWAP1 SLOAD SWAP1 PUSH1 0x3 SHL SHR SWAP1 JUMP JUMPDEST DUP1 SLOAD SWAP1 DUP2 PUSH2 0x288B JUMPI POP POP PUSH1 0x0 SWAP1 JUMP JUMPDEST PUSH1 0x1 DUP3 LT PUSH2 0x15C9 JUMPI PUSH2 0x2872 SWAP2 PUSH1 0x0 NOT ADD SWAP1 PUSH2 0x19CC JUMP INVALID 0xDD CALLCODE MSTORE 0xAD SHL 0xE2 0xC8 SWAP12 PUSH10 0xC2B068FC378DAA952BA7 CALL PUSH4 0xC4A11628 CREATE2 GAS 0x4D CREATE2 0x23 0xB3 0xEF 0xDE 0xC2 0xBA 0xCD 0xD2 CREATE JUMPDEST MSIZE 0xDE CALLVALUE 0xDA SWAP12 MSTORE RETURNDATASIZE SELFDESTRUCT DUP12 0xE4 0x2E 0x5E CODESIZE 0xE8 XOR 0xC8 0x2F 0xDB SIGNEXTEND 0xAE PUSH24 0x4387A724A26469706673582212206722BF098C84825AC37A SSTORE BLOCKHASH 0xC3 0xDA RETURN 0xE1 0xEE DUP7 0xAD 0xB2 SWAP2 DUP4 DELEGATECALL SWAP14 PC CALLER 0x21 NUMBER PUSH28 0xD1D92264736F6C634300080F00330000000000000000000000000000 "
        },
        "methodIdentifiers": {
          "DOMAIN_SEPARATOR()": "3644e515",
          "allowance(address,address)": "dd62ed3e",
          "approve(address,uint256)": "095ea7b3",
          "balanceOf(address)": "70a08231",
          "balanceOfAt(address,uint256)": "4ee2cd7e",
          "burn(uint256)": "42966c68",
          "burnFrom(address,uint256)": "79cc6790",
          "checkpoints(address,uint32)": "f1127ed8",
          "decimals()": "313ce567",
          "decreaseAllowance(address,uint256)": "a457c2d7",
          "delegate(address)": "5c19a95c",
          "delegateBySig(address,uint256,uint256,uint8,bytes32,bytes32)": "c3cda520",
          "delegates(address)": "587cde1e",
          "getPastTotalSupply(uint256)": "8e539e8c",
          "getPastVotes(address,uint256)": "3a46b1a8",
          "getVotes(address)": "9ab24eb0",
          "increaseAllowance(address,uint256)": "39509351",
          "mint(address,uint256)": "40c10f19",
          "name()": "06fdde03",
          "nonces(address)": "7ecebe00",
          "numCheckpoints(address)": "6fcfff45",
          "owner()": "8da5cb5b",
          "permit(address,address,uint256,uint256,uint8,bytes32,bytes32)": "d505accf",
          "renounceOwnership()": "715018a6",
          "snapshot()": "9711715a",
          "symbol()": "95d89b41",
          "totalSupply()": "18160ddd",
          "totalSupplyAt(uint256)": "981b24d0",
          "transfer(address,uint256)": "a9059cbb",
          "transferFrom(address,address,uint256)": "23b872dd",
          "transferOwnership(address)": "f2fde38b"
        }
      },
      "storageLayout": {
        "storage": [
          {
            "astId": 198,
            "contract": "contracts/comunityERC20/DonationGov.sol:TagGov",
            "label": "_balances",
            "offset": 0,
            "slot": "0",
            "type": "t_mapping(t_address,t_uint256)"
          },
          {
            "astId": 204,
            "contract": "contracts/comunityERC20/DonationGov.sol:TagGov",
            "label": "_allowances",
            "offset": 0,
            "slot": "1",
            "type": "t_mapping(t_address,t_mapping(t_address,t_uint256))"
          },
          {
            "astId": 206,
            "contract": "contracts/comunityERC20/DonationGov.sol:TagGov",
            "label": "_totalSupply",
            "offset": 0,
            "slot": "2",
            "type": "t_uint256"
          },
          {
            "astId": 208,
            "contract": "contracts/comunityERC20/DonationGov.sol:TagGov",
            "label": "_name",
            "offset": 0,
            "slot": "3",
            "type": "t_string_storage"
          },
          {
            "astId": 210,
            "contract": "contracts/comunityERC20/DonationGov.sol:TagGov",
            "label": "_symbol",
            "offset": 0,
            "slot": "4",
            "type": "t_string_storage"
          },
          {
            "astId": 920,
            "contract": "contracts/comunityERC20/DonationGov.sol:TagGov",
            "label": "_accountBalanceSnapshots",
            "offset": 0,
            "slot": "5",
            "type": "t_mapping(t_address,t_struct(Snapshots)915_storage)"
          },
          {
            "astId": 923,
            "contract": "contracts/comunityERC20/DonationGov.sol:TagGov",
            "label": "_totalSupplySnapshots",
            "offset": 0,
            "slot": "6",
            "type": "t_struct(Snapshots)915_storage"
          },
          {
            "astId": 926,
            "contract": "contracts/comunityERC20/DonationGov.sol:TagGov",
            "label": "_currentSnapshotId",
            "offset": 0,
            "slot": "8",
            "type": "t_struct(Counter)2200_storage"
          },
          {
            "astId": 7,
            "contract": "contracts/comunityERC20/DonationGov.sol:TagGov",
            "label": "_owner",
            "offset": 0,
            "slot": "9",
            "type": "t_address"
          },
          {
            "astId": 1905,
            "contract": "contracts/comunityERC20/DonationGov.sol:TagGov",
            "label": "_nonces",
            "offset": 0,
            "slot": "10",
            "type": "t_mapping(t_address,t_struct(Counter)2200_storage)"
          },
          {
            "astId": 1246,
            "contract": "contracts/comunityERC20/DonationGov.sol:TagGov",
            "label": "_delegates",
            "offset": 0,
            "slot": "11",
            "type": "t_mapping(t_address,t_address)"
          },
          {
            "astId": 1252,
            "contract": "contracts/comunityERC20/DonationGov.sol:TagGov",
            "label": "_checkpoints",
            "offset": 0,
            "slot": "12",
            "type": "t_mapping(t_address,t_array(t_struct(Checkpoint)1237_storage)dyn_storage)"
          },
          {
            "astId": 1256,
            "contract": "contracts/comunityERC20/DonationGov.sol:TagGov",
            "label": "_totalSupplyCheckpoints",
            "offset": 0,
            "slot": "13",
            "type": "t_array(t_struct(Checkpoint)1237_storage)dyn_storage"
          }
        ],
        "types": {
          "t_address": {
            "encoding": "inplace",
            "label": "address",
            "numberOfBytes": "20"
          },
          "t_array(t_struct(Checkpoint)1237_storage)dyn_storage": {
            "base": "t_struct(Checkpoint)1237_storage",
            "encoding": "dynamic_array",
            "label": "struct ERC20Votes.Checkpoint[]",
            "numberOfBytes": "32"
          },
          "t_array(t_uint256)dyn_storage": {
            "base": "t_uint256",
            "encoding": "dynamic_array",
            "label": "uint256[]",
            "numberOfBytes": "32"
          },
          "t_mapping(t_address,t_address)": {
            "encoding": "mapping",
            "key": "t_address",
            "label": "mapping(address => address)",
            "numberOfBytes": "32",
            "value": "t_address"
          },
          "t_mapping(t_address,t_array(t_struct(Checkpoint)1237_storage)dyn_storage)": {
            "encoding": "mapping",
            "key": "t_address",
            "label": "mapping(address => struct ERC20Votes.Checkpoint[])",
            "numberOfBytes": "32",
            "value": "t_array(t_struct(Checkpoint)1237_storage)dyn_storage"
          },
          "t_mapping(t_address,t_mapping(t_address,t_uint256))": {
            "encoding": "mapping",
            "key": "t_address",
            "label": "mapping(address => mapping(address => uint256))",
            "numberOfBytes": "32",
            "value": "t_mapping(t_address,t_uint256)"
          },
          "t_mapping(t_address,t_struct(Counter)2200_storage)": {
            "encoding": "mapping",
            "key": "t_address",
            "label": "mapping(address => struct Counters.Counter)",
            "numberOfBytes": "32",
            "value": "t_struct(Counter)2200_storage"
          },
          "t_mapping(t_address,t_struct(Snapshots)915_storage)": {
            "encoding": "mapping",
            "key": "t_address",
            "label": "mapping(address => struct ERC20Snapshot.Snapshots)",
            "numberOfBytes": "32",
            "value": "t_struct(Snapshots)915_storage"
          },
          "t_mapping(t_address,t_uint256)": {
            "encoding": "mapping",
            "key": "t_address",
            "label": "mapping(address => uint256)",
            "numberOfBytes": "32",
            "value": "t_uint256"
          },
          "t_string_storage": {
            "encoding": "bytes",
            "label": "string",
            "numberOfBytes": "32"
          },
          "t_struct(Checkpoint)1237_storage": {
            "encoding": "inplace",
            "label": "struct ERC20Votes.Checkpoint",
            "members": [
              {
                "astId": 1234,
                "contract": "contracts/comunityERC20/DonationGov.sol:TagGov",
                "label": "fromBlock",
                "offset": 0,
                "slot": "0",
                "type": "t_uint32"
              },
              {
                "astId": 1236,
                "contract": "contracts/comunityERC20/DonationGov.sol:TagGov",
                "label": "votes",
                "offset": 4,
                "slot": "0",
                "type": "t_uint224"
              }
            ],
            "numberOfBytes": "32"
          },
          "t_struct(Counter)2200_storage": {
            "encoding": "inplace",
            "label": "struct Counters.Counter",
            "members": [
              {
                "astId": 2199,
                "contract": "contracts/comunityERC20/DonationGov.sol:TagGov",
                "label": "_value",
                "offset": 0,
                "slot": "0",
                "type": "t_uint256"
              }
            ],
            "numberOfBytes": "32"
          },
          "t_struct(Snapshots)915_storage": {
            "encoding": "inplace",
            "label": "struct ERC20Snapshot.Snapshots",
            "members": [
              {
                "astId": 911,
                "contract": "contracts/comunityERC20/DonationGov.sol:TagGov",
                "label": "ids",
                "offset": 0,
                "slot": "0",
                "type": "t_array(t_uint256)dyn_storage"
              },
              {
                "astId": 914,
                "contract": "contracts/comunityERC20/DonationGov.sol:TagGov",
                "label": "values",
                "offset": 0,
                "slot": "1",
                "type": "t_array(t_uint256)dyn_storage"
              }
            ],
            "numberOfBytes": "64"
          },
          "t_uint224": {
            "encoding": "inplace",
            "label": "uint224",
            "numberOfBytes": "28"
          },
          "t_uint256": {
            "encoding": "inplace",
            "label": "uint256",
            "numberOfBytes": "32"
          },
          "t_uint32": {
            "encoding": "inplace",
            "label": "uint32",
            "numberOfBytes": "4"
          }
        }
      }
    }
  }
}