{
  "_format": "hh-sol-artifact-1",
  "contractName": "Collection1",
  "sourceName": "contracts/collection-1-factory/Collection1.sol",
  "abi": [
    {
      "inputs": [],
      "stateMutability": "nonpayable",
      "type": "constructor"
    },
    {
      "anonymous": false,
      "inputs": [
        {
          "indexed": true,
          "internalType": "address",
          "name": "owner",
          "type": "address"
        },
        {
          "indexed": true,
          "internalType": "address",
          "name": "approved",
          "type": "address"
        },
        {
          "indexed": true,
          "internalType": "uint256",
          "name": "tokenId",
          "type": "uint256"
        }
      ],
      "name": "Approval",
      "type": "event"
    },
    {
      "anonymous": false,
      "inputs": [
        {
          "indexed": true,
          "internalType": "address",
          "name": "owner",
          "type": "address"
        },
        {
          "indexed": true,
          "internalType": "address",
          "name": "operator",
          "type": "address"
        },
        {
          "indexed": false,
          "internalType": "bool",
          "name": "approved",
          "type": "bool"
        }
      ],
      "name": "ApprovalForAll",
      "type": "event"
    },
    {
      "anonymous": false,
      "inputs": [
        {
          "indexed": false,
          "internalType": "uint8",
          "name": "version",
          "type": "uint8"
        }
      ],
      "name": "Initialized",
      "type": "event"
    },
    {
      "anonymous": false,
      "inputs": [
        {
          "indexed": true,
          "internalType": "address",
          "name": "previousOwner",
          "type": "address"
        },
        {
          "indexed": true,
          "internalType": "address",
          "name": "newOwner",
          "type": "address"
        }
      ],
      "name": "OwnershipTransferred",
      "type": "event"
    },
    {
      "anonymous": false,
      "inputs": [
        {
          "indexed": true,
          "internalType": "address",
          "name": "from",
          "type": "address"
        },
        {
          "indexed": true,
          "internalType": "address",
          "name": "to",
          "type": "address"
        },
        {
          "indexed": true,
          "internalType": "uint256",
          "name": "tokenId",
          "type": "uint256"
        }
      ],
      "name": "Transfer",
      "type": "event"
    },
    {
      "inputs": [],
      "name": "_creator_",
      "outputs": [
        {
          "internalType": "string",
          "name": "",
          "type": "string"
        }
      ],
      "stateMutability": "view",
      "type": "function"
    },
    {
      "inputs": [
        {
          "internalType": "address",
          "name": "to",
          "type": "address"
        },
        {
          "internalType": "uint256",
          "name": "tokenId",
          "type": "uint256"
        }
      ],
      "name": "approve",
      "outputs": [],
      "stateMutability": "nonpayable",
      "type": "function"
    },
    {
      "inputs": [
        {
          "internalType": "address",
          "name": "owner",
          "type": "address"
        }
      ],
      "name": "balanceOf",
      "outputs": [
        {
          "internalType": "uint256",
          "name": "",
          "type": "uint256"
        }
      ],
      "stateMutability": "view",
      "type": "function"
    },
    {
      "inputs": [
        {
          "internalType": "uint256",
          "name": "tokenId",
          "type": "uint256"
        }
      ],
      "name": "burn",
      "outputs": [],
      "stateMutability": "nonpayable",
      "type": "function"
    },
    {
      "inputs": [],
      "name": "deleteDefaultRoyalty",
      "outputs": [],
      "stateMutability": "nonpayable",
      "type": "function"
    },
    {
      "inputs": [
        {
          "internalType": "uint256",
          "name": "tokenId",
          "type": "uint256"
        }
      ],
      "name": "getApproved",
      "outputs": [
        {
          "internalType": "address",
          "name": "",
          "type": "address"
        }
      ],
      "stateMutability": "view",
      "type": "function"
    },
    {
      "inputs": [
        {
          "internalType": "string",
          "name": "_creator",
          "type": "string"
        },
        {
          "internalType": "string",
          "name": "_name",
          "type": "string"
        },
        {
          "internalType": "string",
          "name": "_symbol",
          "type": "string"
        },
        {
          "internalType": "address",
          "name": "_owner",
          "type": "address"
        },
        {
          "internalType": "uint96",
          "name": "_royaltyNumerator",
          "type": "uint96"
        },
        {
          "internalType": "address",
          "name": "_royaltyReciever",
          "type": "address"
        }
      ],
      "name": "initialize",
      "outputs": [],
      "stateMutability": "nonpayable",
      "type": "function"
    },
    {
      "inputs": [
        {
          "internalType": "address",
          "name": "owner",
          "type": "address"
        },
        {
          "internalType": "address",
          "name": "operator",
          "type": "address"
        }
      ],
      "name": "isApprovedForAll",
      "outputs": [
        {
          "internalType": "bool",
          "name": "",
          "type": "bool"
        }
      ],
      "stateMutability": "view",
      "type": "function"
    },
    {
      "inputs": [],
      "name": "name",
      "outputs": [
        {
          "internalType": "string",
          "name": "",
          "type": "string"
        }
      ],
      "stateMutability": "view",
      "type": "function"
    },
    {
      "inputs": [],
      "name": "owner",
      "outputs": [
        {
          "internalType": "address",
          "name": "",
          "type": "address"
        }
      ],
      "stateMutability": "view",
      "type": "function"
    },
    {
      "inputs": [
        {
          "internalType": "uint256",
          "name": "tokenId",
          "type": "uint256"
        }
      ],
      "name": "ownerOf",
      "outputs": [
        {
          "internalType": "address",
          "name": "",
          "type": "address"
        }
      ],
      "stateMutability": "view",
      "type": "function"
    },
    {
      "inputs": [],
      "name": "renounceOwnership",
      "outputs": [],
      "stateMutability": "nonpayable",
      "type": "function"
    },
    {
      "inputs": [
        {
          "internalType": "uint256",
          "name": "tokenId",
          "type": "uint256"
        }
      ],
      "name": "resetTokenRoyalty",
      "outputs": [],
      "stateMutability": "nonpayable",
      "type": "function"
    },
    {
      "inputs": [
        {
          "internalType": "uint256",
          "name": "_tokenId",
          "type": "uint256"
        },
        {
          "internalType": "uint256",
          "name": "_salePrice",
          "type": "uint256"
        }
      ],
      "name": "royaltyInfo",
      "outputs": [
        {
          "internalType": "address",
          "name": "",
          "type": "address"
        },
        {
          "internalType": "uint256",
          "name": "",
          "type": "uint256"
        }
      ],
      "stateMutability": "view",
      "type": "function"
    },
    {
      "inputs": [
        {
          "internalType": "address",
          "name": "to",
          "type": "address"
        },
        {
          "internalType": "uint256",
          "name": "tokenId",
          "type": "uint256"
        },
        {
          "internalType": "string",
          "name": "uri",
          "type": "string"
        }
      ],
      "name": "safeMint",
      "outputs": [],
      "stateMutability": "nonpayable",
      "type": "function"
    },
    {
      "inputs": [
        {
          "internalType": "address",
          "name": "to",
          "type": "address"
        },
        {
          "internalType": "string",
          "name": "uri",
          "type": "string"
        }
      ],
      "name": "safeMint",
      "outputs": [],
      "stateMutability": "nonpayable",
      "type": "function"
    },
    {
      "inputs": [
        {
          "internalType": "address",
          "name": "from",
          "type": "address"
        },
        {
          "internalType": "address",
          "name": "to",
          "type": "address"
        },
        {
          "internalType": "uint256",
          "name": "tokenId",
          "type": "uint256"
        }
      ],
      "name": "safeTransferFrom",
      "outputs": [],
      "stateMutability": "nonpayable",
      "type": "function"
    },
    {
      "inputs": [
        {
          "internalType": "address",
          "name": "from",
          "type": "address"
        },
        {
          "internalType": "address",
          "name": "to",
          "type": "address"
        },
        {
          "internalType": "uint256",
          "name": "tokenId",
          "type": "uint256"
        },
        {
          "internalType": "bytes",
          "name": "_data",
          "type": "bytes"
        }
      ],
      "name": "safeTransferFrom",
      "outputs": [],
      "stateMutability": "nonpayable",
      "type": "function"
    },
    {
      "inputs": [
        {
          "internalType": "address",
          "name": "operator",
          "type": "address"
        },
        {
          "internalType": "bool",
          "name": "approved",
          "type": "bool"
        }
      ],
      "name": "setApprovalForAll",
      "outputs": [],
      "stateMutability": "nonpayable",
      "type": "function"
    },
    {
      "inputs": [
        {
          "internalType": "string",
          "name": "_creatorName",
          "type": "string"
        }
      ],
      "name": "setCreatorName",
      "outputs": [],
      "stateMutability": "nonpayable",
      "type": "function"
    },
    {
      "inputs": [
        {
          "internalType": "uint256",
          "name": "tokenId",
          "type": "uint256"
        },
        {
          "internalType": "address",
          "name": "receiver",
          "type": "address"
        },
        {
          "internalType": "uint96",
          "name": "feeNumerator",
          "type": "uint96"
        }
      ],
      "name": "setTokenRoyalty",
      "outputs": [],
      "stateMutability": "nonpayable",
      "type": "function"
    },
    {
      "inputs": [
        {
          "internalType": "bytes4",
          "name": "interfaceId",
          "type": "bytes4"
        }
      ],
      "name": "supportsInterface",
      "outputs": [
        {
          "internalType": "bool",
          "name": "",
          "type": "bool"
        }
      ],
      "stateMutability": "view",
      "type": "function"
    },
    {
      "inputs": [],
      "name": "symbol",
      "outputs": [
        {
          "internalType": "string",
          "name": "",
          "type": "string"
        }
      ],
      "stateMutability": "view",
      "type": "function"
    },
    {
      "inputs": [
        {
          "internalType": "uint256",
          "name": "tokenId",
          "type": "uint256"
        }
      ],
      "name": "tokenURI",
      "outputs": [
        {
          "internalType": "string",
          "name": "",
          "type": "string"
        }
      ],
      "stateMutability": "view",
      "type": "function"
    },
    {
      "inputs": [
        {
          "internalType": "address",
          "name": "from",
          "type": "address"
        },
        {
          "internalType": "address",
          "name": "to",
          "type": "address"
        },
        {
          "internalType": "uint256",
          "name": "tokenId",
          "type": "uint256"
        }
      ],
      "name": "transferFrom",
      "outputs": [],
      "stateMutability": "nonpayable",
      "type": "function"
    },
    {
      "inputs": [
        {
          "internalType": "address",
          "name": "newOwner",
          "type": "address"
        }
      ],
      "name": "transferOwnership",
      "outputs": [],
      "stateMutability": "nonpayable",
      "type": "function"
    }
  ],
  "bytecode": "0x6080604052346200002557620000146200002a565b506040516129f69081620000ee8239f35b600080fd5b60005460ff8160081c16600014620000875760405162461bcd60e51b815260206004820152602e602482015260008051602062002ae483398151915260448201526d191e481a5b9a5d1a585b1a5e995960921b6064820152608490fd5b60ff8082161015620000a25760ff191660ff17600055600190565b60405162461bcd60e51b815260206004820152602e602482015260008051602062002ae483398151915260448201526d191e481a5b9a5d1a585b1a5e995960921b6064820152608490fdfe60806040526004361015610013575b600080fd5b60003560e01c806301ffc9a71461021b57806306fdde0314610212578063081812fc14610209578063095ea7b31461020057806323b872dd146101f75780632a55205a146101ee57806342842e0e146101e557806342966c68146101dc5780635944c753146101d357806360eb9485146101ca5780636352211e146101c157806370a08231146101b8578063715018a6146101af5780638a616bc0146101a65780638da5cb5b1461019d57806395d89b4114610194578063a22cb4651461018b578063aa1b103f14610182578063b88d4fde14610179578063bb99e70114610170578063c87b56dd14610167578063cd279c7c1461015e578063d204c45e14610155578063d670226d1461014c578063e985e9c5146101435763f2fde38b1461013b57600080fd5b61000e6112e1565b5061000e611283565b5061000e6111f1565b5061000e611143565b5061000e6110de565b5061000e6110aa565b5061000e610fe3565b5061000e610ea5565b5061000e610e76565b5061000e610d89565b5061000e610ce1565b5061000e610cb6565b5061000e610c77565b5061000e610c10565b5061000e610b6d565b5061000e610b4e565b5061000e610a26565b5061000e610854565b5061000e6106b5565b5061000e61068c565b5061000e6105d5565b5061000e6105ab565b5061000e610486565b5061000e610413565b5061000e61032d565b5061000e610236565b6001600160e01b031981160361000e57565b503461000e57602036600319011261000e57602060043561025681610224565b63ffffffff60e01b166380ac58cd60e01b81149081156102ae575b8115610283575b506040519015158152f35b63152a902d60e11b81149150811561029d575b5038610278565b6301ffc9a760e01b14905038610296565b635b5e139f60e01b81149150610271565b918091926000905b8282106102df5750116102d8575050565b6000910152565b915080602091830151818601520182916102c7565b9060209161030d815180928185528580860191016102bf565b601f01601f1916010190565b90602061032a9281815201906102f4565b90565b503461000e5760008060031936011261041057604051908060975461035181610f05565b808552916001918083169081156103e6575060011461038b575b6103878561037b8187038261097a565b60405191829182610319565b0390f35b9250609783527f354a83ed9988f79f6038d4c7a7dadbad8af32f4ad6df893e0e5807a1b1944ff95b8284106103ce57505050810160200161037b8261038761036b565b805460208587018101919091529093019281016103b3565b8695506103879693506020925061037b94915060ff191682840152151560051b820101929361036b565b80fd5b503461000e57602036600319011261000e5760206104326004356114fd565b6040516001600160a01b039091168152f35b600435906001600160a01b038216820361000e57565b602435906001600160a01b038216820361000e57565b60a435906001600160a01b038216820361000e57565b503461000e57604036600319011261000e576104a0610444565b6024356104ac81611413565b916001600160a01b038084169082168114610527576104de936104d99133149081156104e0575b5061148b565b6119ee565b005b6001600160a01b03166000908152609c60205260409020610521915061051a9033905b9060018060a01b0316600052602052604060002090565b5460ff1690565b386104d3565b60405162461bcd60e51b815260206004820152602160248201527f4552433732313a20617070726f76616c20746f2063757272656e74206f776e656044820152603960f91b6064820152608490fd5b606090600319011261000e576001600160a01b0390600435828116810361000e5791602435908116810361000e579060443590565b503461000e576104de6105bd36610576565b916105d06105cb84336116ab565b61158f565b611860565b503461000e57604036600319011261000e5760243560043560005260666020526106026040600020611c18565b80519091906001600160a01b03161561067c575b6103876106486001600160601b0360208501511693836000190485118415151661066f575b516001600160a01b031690565b6127106040519485940204908360209093929193604081019460018060a01b031681520152565b6106776117f3565b61063b565b9050610686611bf2565b90610616565b503461000e576104de61069e36610576565b90604051926106ac8461095f565b60008452611608565b503461000e57602036600319011261000e576004356106d481336116ab565b156107ca5761078b6106e582611413565b6106ee83611998565b60018060a01b0316918060008481958252609a602052604082208054600181106107bd575b6000190190558282526099602052604080832080546001600160a01b0319169055517fddf252ad1be2c89b69c2b068fc378daa952ba7f163c4a11628f55a4df523b3ef908390a46107766107718260005260c9602052604060002090565b612690565b61079057600052606660205260006040812055565b604051f35b6107ac6107a78260005260c9602052604060002090565b61269a565b600052606660205260006040812055565b6107c56117f3565b610713565b60405162461bcd60e51b815260206004820152603060248201527f4552433732314275726e61626c653a2063616c6c6572206973206e6f74206f7760448201526f1b995c881b9bdc88185c1c1c9bdd995960821b6064820152608490fd5b604435906001600160601b038216820361000e57565b608435906001600160601b038216820361000e57565b503461000e57606036600319011261000e5761086e61045a565b610876610828565b61015f546001600160a01b03906108909082163314611379565b61089b600435611413565b1633036108ab576104de916122da565b60405162461bcd60e51b815260206004820152604160248201527f436f6c6c656374696f6e3a20796f75206d75737420626520746865206f776e6560448201527f72206f662074686520746f6b656e20746f207365742074686520726f79616c746064820152607960f81b608482015260a490fd5b50634e487b7160e01b600052604160045260246000fd5b604081019081106001600160401b0382111761095257604052565b61095a610920565b604052565b602081019081106001600160401b0382111761095257604052565b90601f801991011681019081106001600160401b0382111761095257604052565b604051906109a882610937565b565b6020906001600160401b0381116109c7575b601f01601f19160190565b6109cf610920565b6109bc565b9291926109e0826109aa565b916109ee604051938461097a565b82948184528183011161000e578281602093846000960137010152565b9080601f8301121561000e5781602061032a933591016109d4565b503461000e5760208060031936011261000e576001600160401b039060043582811161000e57610a5a903690600401610a0b565b91610a7160018060a01b0361015f54163314611379565b8251908111610b41575b61019291610a9282610a8d8554610f05565b611c54565b80601f8311600114610acb5750819293600092610ac0575b50508160011b916000199060031b1c1916179055005b015190503880610aaa565b90601f19831694610aed6101926000526000805160206129a183398151915290565b926000905b878210610b29575050836001959610610b10575b505050811b019055005b015160001960f88460031b161c19169055388080610b06565b80600185968294968601518155019501930190610af2565b610b49610920565b610a7b565b503461000e57602036600319011261000e576020610432600435611413565b503461000e57602036600319011261000e576001600160a01b03610b8f610444565b168015610bb857600052609a602052610387604060002054604051918291829190602083019252565b60405162461bcd60e51b815260206004820152602a60248201527f4552433732313a2062616c616e636520717565727920666f7220746865207a65604482015269726f206164647265737360b01b6064820152608490fd5b503461000e576000806003193601126104105761015f80546001600160a01b0381169190610c3f338414611379565b6001600160a01b03191690556040519082907f8be0079c531659141344cd1fd0a4f28419497f9722a3daafe3b4186f6b6457e08284a3f35b503461000e57602036600319011261000e57610c9f60018060a01b0361015f54163314611379565b6104de600435600052606660205260006040812055565b503461000e57600036600319011261000e5761015f546040516001600160a01b039091168152602090f35b503461000e57600080600319360112610410576040519080609854610d0581610f05565b808552916001918083169081156103e65750600114610d2e576103878561037b8187038261097a565b9250609883527f2237a976fa961f5921fd19f2b03c925c725d77b20ce8f790c19709c03de4d8145b828410610d7157505050810160200161037b8261038761036b565b80546020858701810191909152909301928101610d56565b503461000e57604036600319011261000e57610da3610444565b602435801515810361000e576001600160a01b03821691338314610e315781610dee610dff9233600052609c60205260406000209060018060a01b0316600052602052604060002090565b9060ff801983541691151516179055565b604051901515815233907f17307eab39ab6107e8899845ad3d59bd9653f200f220920489ca2b5937696c3190602090a3005b60405162461bcd60e51b815260206004820152601960248201527f4552433732313a20617070726f766520746f2063616c6c6572000000000000006044820152606490fd5b503461000e57600036600319011261000e57610e9e60018060a01b0361015f54163314611379565b6000606555005b503461000e57608036600319011261000e57610ebf610444565b610ec761045a565b606435916001600160401b03831161000e573660238401121561000e57610efb6104de9336906024816004013591016109d4565b9160443591611608565b90600182811c92168015610f35575b6020831014610f1f57565b634e487b7160e01b600052602260045260246000fd5b91607f1691610f14565b9060405191826000825492610f5384610f05565b908184526001948581169081600014610fc05750600114610f7d575b50506109a89250038361097a565b9093915060005260209081600020936000915b818310610fa85750506109a893508201013880610f6f565b85548884018501529485019487945091830191610f90565b9150506109a894506020925060ff191682840152151560051b8201013880610f6f565b503461000e576000806003193601126104105760405190806101929081549061100b82610f05565b8086529260019280841690811561107d5750600114611035575b6103878661037b8188038261097a565b815292506000805160206129a18339815191525b82841061106557505050810160200161037b8261038738611025565b80546020858701810191909152909301928101611049565b90508695506103879693506020925061037b94915060ff191682840152151560051b820101929338611025565b503461000e57602036600319011261000e576103876110ca6004356126f9565b6040519182916020835260208301906102f4565b503461000e57606036600319011261000e576110f8610444565b604435906024356001600160401b03831161000e5761113e816111226104de953690600401610a0b565b9361113960018060a01b0361015f54163314611379565b6123f0565b61252d565b503461000e57604036600319011261000e5761115d610444565b6024356001600160401b03811161000e5761117c903690600401610a0b565b61119260018060a01b0361015f54163314611379565b6000908192600180805b6111b1575b8461078b858861113e81886123f0565b949094156111ce575b50610191805480860190915593838161119c565b6000818152609960205260409020546001600160a01b03166111ba5793806111a1565b503461000e5760c036600319011261000e576001600160401b0360043581811161000e57611223903690600401610a0b565b60243582811161000e5761123b903690600401610a0b565b9160443590811161000e57611254903690600401610a0b565b916064356001600160a01b038116810361000e576104de9361127461083e565b9261127d610470565b94611e81565b503461000e57604036600319011261000e57602060ff6112d56112a4610444565b6112ac61045a565b6001600160a01b039182166000908152609c865260408082209290931681526020919091522090565b54166040519015158152f35b503461000e57602036600319011261000e576112fb610444565b61015f546001600160a01b03906113159082163314611379565b811615611325576104de906113c4565b60405162461bcd60e51b815260206004820152602660248201527f4f776e61626c653a206e6577206f776e657220697320746865207a65726f206160448201526564647265737360d01b6064820152608490fd5b1561138057565b606460405162461bcd60e51b815260206004820152602060248201527f4f776e61626c653a2063616c6c6572206973206e6f7420746865206f776e65726044820152fd5b61015f80546001600160a01b039283166001600160a01b031982168117909255604051919216907f8be0079c531659141344cd1fd0a4f28419497f9722a3daafe3b4186f6b6457e090600090a3565b6000908152609960205260409020546001600160a01b031680156114345790565b60405162461bcd60e51b815260206004820152602960248201527f4552433732313a206f776e657220717565727920666f72206e6f6e657869737460448201526832b73a103a37b5b2b760b91b6064820152608490fd5b1561149257565b60405162461bcd60e51b815260206004820152603860248201527f4552433732313a20617070726f76652063616c6c6572206973206e6f74206f7760448201527f6e6572206e6f7220617070726f76656420666f7220616c6c00000000000000006064820152608490fd5b6000818152609960205260409020546001600160a01b031615611535576000908152609b60205260409020546001600160a01b031690565b60405162461bcd60e51b815260206004820152602c60248201527f4552433732313a20617070726f76656420717565727920666f72206e6f6e657860448201526b34b9ba32b73a103a37b5b2b760a11b6064820152608490fd5b1561159657565b60405162461bcd60e51b815260206004820152603160248201527f4552433732313a207472616e736665722063616c6c6572206973206e6f74206f6044820152701ddb995c881b9bdc88185c1c1c9bdd9959607a1b6064820152608490fd5b604051906116028261095f565b60008252565b916109a8939161162f9361161f6105cb84336116ab565b61162a838383611860565b611bb6565b611687565b60809060208152603260208201527f4552433732313a207472616e7366657220746f206e6f6e20455243373231526560408201527131b2b4bb32b91034b6b83632b6b2b73a32b960711b60608201520190565b1561168e57565b60405162461bcd60e51b8152806116a760048201611634565b0390fd5b6000828152609960205260409020546001600160a01b031615611741576116d182611413565b9160018060a01b0390818316928285168414948515611710575b505083156116fa575b50505090565b611706919293506114fd565b16143880806116f4565b6001600160a01b03166000908152609c6020526040902091945060ff916117379190610503565b54169238806116eb565b60405162461bcd60e51b815260206004820152602c60248201527f4552433732313a206f70657261746f7220717565727920666f72206e6f6e657860448201526b34b9ba32b73a103a37b5b2b760a11b6064820152608490fd5b156117a257565b60405162461bcd60e51b8152602060048201526024808201527f4552433732313a207472616e7366657220746f20746865207a65726f206164646044820152637265737360e01b6064820152608490fd5b50634e487b7160e01b600052601160045260246000fd5b6001811061181a575b6000190190565b6118226117f3565b611813565b6001906001198111611837570190565b61183f6117f3565b0190565b8019603011611853575b60300190565b61185b6117f3565b61184d565b9061186a83611413565b6001600160a01b038381169290918216839003611945576118b961191c9282169461189686151561179b565b61189f87611998565b6001600160a01b03166000908152609a6020526040902090565b6118c3815461180a565b90556001600160a01b0381166000908152609a602052604090206118e78154611827565b90556118fd856000526099602052604060002090565b80546001600160a01b0319166001600160a01b03909216919091179055565b7fddf252ad1be2c89b69c2b068fc378daa952ba7f163c4a11628f55a4df523b3ef6000604051a4565b60405162461bcd60e51b815260206004820152602560248201527f4552433732313a207472616e736665722066726f6d20696e636f72726563742060448201526437bbb732b960d91b6064820152608490fd5b6000818152609b6020526040812080546001600160a01b03191690556001600160a01b036119c583611413565b167f8c5be1e5ebec7d5bd14f71427d1e84f3dd0314c0f7b2291e5b200ac8c7c3b92582604051a4565b6000828152609b6020526040902080546001600160a01b0319166001600160a01b0383161790556001600160a01b0380611a2784611413565b169116907f8c5be1e5ebec7d5bd14f71427d1e84f3dd0314c0f7b2291e5b200ac8c7c3b9256000604051a4565b9081602091031261000e575161032a81610224565b61032a939260809260018060a01b0316825260006020830152604082015281606082015201906102f4565b6001600160a01b03918216815291166020820152604081019190915260806060820181905261032a929101906102f4565b3d15611af0573d90611ad6826109aa565b91611ae4604051938461097a565b82523d6000602084013e565b606090565b909190803b15611bae57611b27602091600093604051948580948193630a85bd0160e11b998a84523360048501611a69565b03926001600160a01b03165af160009181611b7e575b50611b7057611b4a611ac5565b80519081611b6b5760405162461bcd60e51b8152806116a760048201611634565b602001fd5b6001600160e01b0319161490565b611ba091925060203d8111611ba7575b611b98818361097a565b810190611a54565b9038611b3d565b503d611b8e565b505050600190565b92909190823b15611be957611b27926020926000604051809681958294630a85bd0160e11b9a8b85523360048601611a94565b50505050600190565b60405190611bff82610937565b6065546001600160a01b038116835260a01c6020830152565b90604051611c2581610937565b91546001600160a01b038116835260a01c6020830152565b818110611c48575050565b60008155600101611c3d565b90601f8211611c61575050565b6109a8916101926000526000805160206129a1833981519152906020601f840160051c83019310611c9a575b601f0160051c0190611c3d565b9091508190611c8d565b90601f8211611cb1575050565b6109a89160976000527f354a83ed9988f79f6038d4c7a7dadbad8af32f4ad6df893e0e5807a1b1944ff9906020601f840160051c83019310611c9a57601f0160051c0190611c3d565b90601f8211611d07575050565b6109a89160986000527f2237a976fa961f5921fd19f2b03c925c725d77b20ce8f790c19709c03de4d814906020601f840160051c83019310611c9a57601f0160051c0190611c3d565b9190601f8111611d5f57505050565b6109a8926000526020600020906020601f840160051c83019310611c9a57601f0160051c0190611c3d565b9081516001600160401b038111611e74575b611db081611dab609854610f05565b611cfa565b602080601f8311600114611dec5750819293600092611de1575b50508160011b916000199060031b1c191617609855565b015190503880611dca565b90601f19831694611e1f60986000527f2237a976fa961f5921fd19f2b03c925c725d77b20ce8f790c19709c03de4d81490565b926000905b878210611e5c575050836001959610611e43575b505050811b01609855565b015160001960f88460031b161c19169055388080611e38565b80600185968294968601518155019501930190611e24565b611e7c610920565b611d9c565b9493929190611e8e612167565b958661201e575b80516001600160401b038111612011575b61019291611eb882610a8d8554610f05565b60209081601f8411600114611f9157509180611f0c97969492611ef79694600092611f86575b50508160011b916000199060031b1c19161790556121a7565b611eff6122c9565b611f076122c9565b6120ea565b6001600160601b038116611f62575b5050611f2357565b611f3361ff001960005416600055565b604051600181527f7f26b83ff96e1f2b6a682f133852f6798a09c465da95921460cefb384740249890602090a1565b611f7f91611f7a6001600160a01b0382161515612032565b6122da565b3880611f1b565b015190503880611ede565b6101926000529190601f1984166000805160206129a1833981519152936000905b828210611ff9575050926001928592611ef79896611f0c9b9a989610611fe0575b505050811b0190556121a7565b015160001960f88460031b161c19169055388080611fd3565b80600186978294978701518155019601940190611fb2565b612019610920565b611ea6565b61010061ff00196000541617600055611e95565b1561203957565b60405162461bcd60e51b8152602060048201526024808201527f436f6c6c656374696f6e3a20496e76616c696420526f79616c7479207265636560448201526334bb32b960e11b6064820152608490fd5b1561209157565b60405162461bcd60e51b815260206004820152602b60248201527f496e697469616c697a61626c653a20636f6e7472616374206973206e6f74206960448201526a6e697469616c697a696e6760a81b6064820152608490fd5b6109a8906120ff60ff60005460081c1661208a565b6113c4565b1561210b57565b60405162461bcd60e51b815260206004820152602e60248201527f496e697469616c697a61626c653a20636f6e747261637420697320616c72656160448201526d191e481a5b9a5d1a585b1a5e995960921b6064820152608490fd5b60005460ff8160081c166000146121895750612184303b15612104565b600090565b8061219a600160ff81941610612104565b60ff191617600055600190565b906121c260ff60005460081c166121bd8161208a565b61208a565b81516001600160401b0381116122bc575b6121e7816121e2609754610f05565b611ca4565b602080601f8311600114612229575081906109a89460009261221e575b50508160011b916000199060031b1c191617609755611d8a565b015190503880612204565b919293601f19841661225d60976000527f354a83ed9988f79f6038d4c7a7dadbad8af32f4ad6df893e0e5807a1b1944ff990565b936000905b8282106122a45750509160019391856109a89796941061228b575b505050811b01609755611d8a565b015160001960f88460031b161c1916905538808061227d565b80600186978294978701518155019601940190612262565b6122c4610920565b6121d3565b6109a860ff60005460081c1661208a565b6127106001600160601b03831611612398576001600160a01b038116156123535761232c6109a89261231c61230d61099b565b6001600160a01b039094168452565b6001600160601b03166020830152565b805160209091015160a01b6001600160a01b0319166001600160a01b039190911617606555565b60405162461bcd60e51b815260206004820152601960248201527f455243323938313a20696e76616c6964207265636569766572000000000000006044820152606490fd5b60405162461bcd60e51b815260206004820152602a60248201527f455243323938313a20726f79616c7479206665652077696c6c206578636565646044820152692073616c65507269636560b01b6064820152608490fd5b906040516123fd8161095f565b600081526001600160a01b0383169182156124e9576000818152609960205260409020546001600160a01b03166124a457838161162f946124536109a89760018060a01b0316600052609a602052604060002090565b61245d8154611827565b9055612477836118fd846000526099602052604060002090565b60007fddf252ad1be2c89b69c2b068fc378daa952ba7f163c4a11628f55a4df523b3ef81604051a4611af5565b60405162461bcd60e51b815260206004820152601c60248201527f4552433732313a20746f6b656e20616c7265616479206d696e746564000000006044820152606490fd5b606460405162461bcd60e51b815260206004820152602060248201527f4552433732313a206d696e7420746f20746865207a65726f20616464726573736044820152fd5b6000818152609960205260409020549192916001600160a01b03161561263457600052602060c981526040600020908351906001600160401b038211612627575b6125828261257c8554610f05565b85611d50565b80601f83116001146125bc5750819293946000926125b1575b50508160011b916000199060031b1c1916179055565b01519050388061259b565b90601f198316956125d285600052602060002090565b926000905b88821061260f575050836001959697106125f6575b505050811b019055565b015160001960f88460031b161c191690553880806125ec565b806001859682949686015181550195019301906125d7565b61262f610920565b61256e565b60405162461bcd60e51b815260206004820152602e60248201527f45524337323155524953746f726167653a2055524920736574206f66206e6f6e60448201526d32bc34b9ba32b73a103a37b5b2b760911b6064820152608490fd5b61032a9054610f05565b6126a48154610f05565b90816126ae575050565b81601f600093116001146126c0575055565b818352602083206126dc91601f0160051c810190600101611c3d565b8160208120915555565b9061183f602092828151948592016102bf565b6000818152609960205260409020546001600160a01b0316156127885761273261272d8260005260c9602052604060002090565b610f3f565b9061273b6115f5565b805115612783578251612753575061032a91506127e7565b61032a915061277561276f9360405194859360208501906126e6565b906126e6565b03601f19810183528261097a565b505090565b60405162461bcd60e51b815260206004820152603160248201527f45524337323155524953746f726167653a2055524920717565727920666f72206044820152703737b732bc34b9ba32b73a103a37b5b2b760791b6064820152608490fd5b6000818152609960205260409020546001600160a01b0316156128435761280c6115f5565b8051909190156128395761276f9161277561282961032a936128c7565b60405194859360208501906126e6565b505061032a6115f5565b60405162461bcd60e51b815260206004820152602f60248201527f4552433732314d657461646174613a2055524920717565727920666f72206e6f60448201526e3732bc34b9ba32b73a103a37b5b2b760891b6064820152608490fd5b9081518110156128b1570160200190565b634e487b7160e01b600052603260045260246000fd5b801561298257806000908282935b61295c57506128e3836109aa565b926128f1604051948561097a565b80845281601f19612901836109aa565b013660208701375b6129135750505090565b61291c9061180a565b90600a90612947612937612931848406611843565b60ff1690565b60f81b6001600160f81b03191690565b841a61295384876128a0565b53049081612909565b926001600a916000198114612975575b019304806128d5565b61297d6117f3565b61296c565b5060405161298f81610937565b60018152600360fc1b60208201529056fefcfced99f9d921eebdc59aa6f7a664084bd564a3d2d54ebc1a5c057c99c67abaa2646970667358221220adfc8f53c01857ee28e8f3f3adcbca2718c5da2b64ecb9ec4f9cf736a468c53164736f6c634300080f0033496e697469616c697a61626c653a20636f6e747261637420697320616c726561",
  "linkReferences": {},
  "deployedLinkReferences": {}
}