{
  "_format": "hh-sol-artifact-1",
  "contractName": "Factory4",
  "sourceName": "contracts/collection-factory/collection-4-factory/Factory4.sol",
  "abi": [
    {
      "anonymous": false,
      "inputs": [
        {
          "indexed": false,
          "internalType": "string",
          "name": "creatorName",
          "type": "string"
        },
        {
          "indexed": false,
          "internalType": "string",
          "name": "tokenName",
          "type": "string"
        },
        {
          "indexed": false,
          "internalType": "string",
          "name": "tokenSymbol",
          "type": "string"
        },
        {
          "indexed": false,
          "internalType": "uint256",
          "name": "totalSupply",
          "type": "uint256"
        },
        {
          "indexed": false,
          "internalType": "address",
          "name": "creatorAddress",
          "type": "address"
        },
        {
          "indexed": false,
          "internalType": "address",
          "name": "contractAddress",
          "type": "address"
        },
        {
          "indexed": false,
          "internalType": "uint96",
          "name": "defaultRoyalty",
          "type": "uint96"
        }
      ],
      "name": "NewCollection",
      "type": "event"
    },
    {
      "inputs": [
        {
          "internalType": "address",
          "name": "",
          "type": "address"
        },
        {
          "internalType": "uint256",
          "name": "",
          "type": "uint256"
        }
      ],
      "name": "_userCollections",
      "outputs": [
        {
          "internalType": "address",
          "name": "",
          "type": "address"
        }
      ],
      "stateMutability": "view",
      "type": "function"
    },
    {
      "inputs": [],
      "name": "implementation",
      "outputs": [
        {
          "internalType": "contract Collection4",
          "name": "",
          "type": "address"
        }
      ],
      "stateMutability": "view",
      "type": "function"
    },
    {
      "inputs": [
        {
          "internalType": "string",
          "name": "creatorName",
          "type": "string"
        },
        {
          "internalType": "string",
          "name": "tokenName",
          "type": "string"
        },
        {
          "internalType": "string",
          "name": "tokenSymbol",
          "type": "string"
        },
        {
          "internalType": "string",
          "name": "baseURI",
          "type": "string"
        },
        {
          "internalType": "bool",
          "name": "_sameURIForAllTokens",
          "type": "bool"
        },
        {
          "internalType": "uint256",
          "name": "totalSupply",
          "type": "uint256"
        },
        {
          "internalType": "uint96",
          "name": "royaltyNumerator",
          "type": "uint96"
        },
        {
          "internalType": "address",
          "name": "royaltyReciever",
          "type": "address"
        }
      ],
      "name": "newCollection",
      "outputs": [],
      "stateMutability": "nonpayable",
      "type": "function"
    },
    {
      "inputs": [
        {
          "internalType": "address",
          "name": "creatorAddr",
          "type": "address"
        }
      ],
      "name": "nextCollectionAddr",
      "outputs": [
        {
          "internalType": "address",
          "name": "",
          "type": "address"
        }
      ],
      "stateMutability": "view",
      "type": "function"
    },
    {
      "inputs": [
        {
          "internalType": "address",
          "name": "user",
          "type": "address"
        }
      ],
      "name": "userCollections",
      "outputs": [
        {
          "internalType": "address[]",
          "name": "addrs",
          "type": "address[]"
        },
        {
          "internalType": "string[]",
          "name": "names",
          "type": "string[]"
        }
      ],
      "stateMutability": "view",
      "type": "function"
    }
  ],
  "bytecode": "0x60808060405234610085576136ef8181016001600160401b0381118382101761006f578291610b94833903906000f0801561006357600180546001600160a01b0319166001600160a01b0392909216919091179055604051610b09908161008b8239f35b6040513d6000823e3d90fd5b634e487b7160e01b600052604160045260246000fd5b600080fdfe60806040526004361015610013575b600080fd5b6000803560e01c90816354934be21461007a575080635c60da1b146100715780637e598c7214610068578063941ec8641461005f5763dc19fb221461005757600080fd5b61000e6105f1565b5061000e61036e565b5061000e610217565b5061000e6101b0565b346101765760203660031901126101765760556037610172926100e76100d66100a1610179565b6001546001600160a01b0382168552602085905260409094205460609190911b6001600160601b03191660a05260b45260d490565b609f198101608052607f19016104f4565b6100ef610698565b60408051733d602d80600a3d3981f3363d3d373d3d3d363d7360601b8152606093841b6001600160601b03191660148201526f5af43d82803e903d91602b57fd5bf3ff60801b60288201523090931b6038840152604c830191909152828220606c83015291019190912090516001600160a01b0390911681529081906020820190565b0390f35b80fd5b600435906001600160a01b038216820361000e57565b60e435906001600160a01b038216820361000e57565b600091031261000e57565b503461000e57600036600319011261000e576001546040516001600160a01b039091168152602090f35b50634e487b7160e01b600052603260045260246000fd5b805482101561020a575b60005260206000200190600090565b6102126101da565b6101fb565b503461000e57604036600319011261000e57610231610179565b6024359060018060a01b0380911660005260006020526040600020805483101561000e57602092610261916101f1565b9190546040519260031b1c168152f35b918091926000905b82821061029157501161028a575050565b6000910152565b91508060209183015181860152018291610279565b906020916102bf81518092818552858086019101610271565b601f01601f1916010190565b906040820191604081528151809352606081019260208093019060005b81811061035157505050818184039101528251908183528083019281808460051b8301019501936000915b8483106103235750505050505090565b9091929394958480610341600193601f198682030187528a516102a6565b9801930193019194939290610313565b82516001600160a01b0316865294840194918401916001016102e8565b503461000e57602036600319011261000e57610388610179565b6001600160a01b0381166000908152602081905260409020546103aa816109aa565b906103b4816109dc565b9260005b61ffff811690838210156104ce5761049561049b9261042661040d6103f8856103f38960018060a01b03166000526000602052604060002090565b6101f1565b905460039190911b1c6001600160a01b031690565b610417838a610a4f565b6001600160a01b039091169052565b6004600061045f6104536104536103f8886103f38c60018060a01b03166000526000602052604060002090565b6001600160a01b031690565b6040516306fdde0360e01b815292839182905afa9081156104c1575b6000916104a0575b5061048e828a610a4f565b5287610a4f565b50610a26565b6103b8565b6104bb913d8091833e6104b38183610538565b810190610a71565b38610483565b6104c9610753565b61047b565b604051806101728888836102cb565b50634e487b7160e01b600052604160045260246000fd5b601f80199101166080016080811067ffffffffffffffff82111761051757604052565b61051f6104dd565b604052565b67ffffffffffffffff811161051757604052565b90601f8019910116810190811067ffffffffffffffff82111761051757604052565b60209067ffffffffffffffff8111610578575b601f01601f19160190565b6105806104dd565b61056d565b81601f8201121561000e5780359061059c8261055a565b926105aa6040519485610538565b8284526020838301011161000e57816000926020809301838601378301015290565b60843590811515820361000e57565b60c435906001600160601b038216820361000e57565b503461000e5761010036600319011261000e5767ffffffffffffffff60043581811161000e57610625903690600401610585565b60243582811161000e5761063d903690600401610585565b9060443583811161000e57610656903690600401610585565b9060643593841161000e57610672610696943690600401610585565b61067a6105cc565b906106836105db565b9361068c61018f565b9560a435946107ca565b005b60805160a05190602081106106ab575090565b6000199060200360031b1b1690565b6020815191015190602081106106ab575090565b97929361071c6001600160601b039561070e6101009a9995610700999e9d9961072a968e6101209081815201906102a6565b8d810360208f0152906102a6565b908b820360408d01526102a6565b9089820360608b01526102a6565b981515608088015260a08701526001600160a01b0393841660c08701521660e085015216910152565b506040513d6000823e3d90fd5b95906001600160601b039498979361079860c0979461078a6107a69460e08c5260e08c01906102a6565b908a820360208c01526102a6565b9088820360408a01526102a6565b60608701989098526001600160a01b0391821660808701521660a085015216910152565b90949693919592966108366107e961045360015460018060a01b031690565b336000818152602081815260409182902054915160609390931b6001600160601b0319169083015260348083019190915281526108309061082b605482610538565b6106ba565b906108e6565b6001600160a01b03811695909390863b1561000e577f92f2bc38db5b0fcb7ee8737fb757a827b49bf595586eae09e6218f670a97a3c3996108bb978a60008b61089c82968c8b8b6040519b8c9a8b998a98632df5980d60e01b8a52339560048b016106ce565b03925af180156108d9575b6108c0575b50604051968796339388610760565b0390a1565b806108cd6108d392610524565b806101a5565b386108ac565b6108e1610753565b6108a7565b604051733d602d80600a3d3981f3363d3d373d3d3d363d7360601b815260609190911b60148201526e5af43d82803e903d91602b57fd5bf360881b60288201526037906000f5906001600160a01b0382161561093e57565b60405162461bcd60e51b815260206004820152601760248201527f455243313136373a2063726561746532206661696c65640000000000000000006044820152606490fd5b60209067ffffffffffffffff811161099d575b60051b0190565b6109a56104dd565b610996565b906109b482610983565b6109c16040519182610538565b82815280926109d2601f1991610983565b0190602036910137565b906109e682610983565b6109f36040519182610538565b8281528092610a04601f1991610983565b019060005b828110610a1557505050565b806060602080938501015201610a09565b61ffff809116908114610a395760010190565b634e487b7160e01b600052601160045260246000fd5b6020918151811015610a64575b60051b010190565b610a6c6101da565b610a5c565b60208183031261000e5780519067ffffffffffffffff821161000e570181601f8201121561000e578051610aa48161055a565b92610ab26040519485610538565b8184526020828401011161000e57610ad09160208085019101610271565b9056fea264697066735822122028b3787258c186aa84e9c186b35f35428c374c397c7d03178de1a333dd64107064736f6c634300080f00336080604052346200002557620000146200002a565b506040516135e19081620000ee8239f35b600080fd5b60005460ff8160081c16600014620000875760405162461bcd60e51b815260206004820152602e6024820152600080516020620036cf83398151915260448201526d191e481a5b9a5d1a585b1a5e995960921b6064820152608490fd5b60ff8082161015620000a25760ff191660ff17600055600190565b60405162461bcd60e51b815260206004820152602e6024820152600080516020620036cf83398151915260448201526d191e481a5b9a5d1a585b1a5e995960921b6064820152608490fdfe60806040526004361015610013575b600080fd5b60003560e01c806301ffc9a71461030b57806306fdde0314610302578063081812fc146102f9578063095ea7b3146102f057806318160ddd146102e757806323b872dd146102de57806326552278146102d55780632a55205a146102cc5780632df5980d146102c35780632f745c59146102ba57806340d097c3146102b157806342842e0e146102a857806342966c681461029f5780634f6ccce714610296578063539b2ba41461028d5780635944c7531461028457806360eb94851461027b5780636352211e146102725780636871ee40146102695780636c0360eb1461026057806370a0823114610257578063715018a61461024e578063740d73f3146102455780638a616bc01461023c5780638da5cb5b1461023357806395d89b411461022a578063a22cb46514610221578063aa1b103f14610218578063b11560c51461020f578063b64b21ca14610206578063b88d4fde146101fd578063bb99e701146101f4578063c4397115146101eb578063c87b56dd146101e2578063d5abeb01146101d9578063dcd83616146101d0578063e985e9c5146101c75763f2fde38b146101bf57600080fd5b61000e611cce565b5061000e611c70565b5061000e611c3b565b5061000e611c1b565b5061000e611a9f565b5061000e611a7a565b5061000e6119e1565b5061000e611981565b5061000e6117e9565b5061000e611782565b5061000e611753565b5061000e61166a565b5061000e6115c2565b5061000e611597565b5061000e611558565b5061000e6114e8565b5061000e611481565b5061000e611455565b5061000e61138e565b5061000e6111d5565b5061000e6111b6565b5061000e61108e565b5061000e610ef9565b5061000e610ec1565b5061000e610e15565b5061000e610bf9565b5061000e610bd0565b5061000e610b8b565b5061000e610ad7565b5061000e610a2a565b5061000e6108ad565b5061000e610849565b5061000e6106ff565b5061000e6106ab565b5061000e6105bb565b5061000e61051d565b5061000e610437565b5061000e610326565b6001600160e01b031981160361000e57565b503461000e57602036600319011261000e57602060043561034681610314565b63ffffffff60e01b1663780e9d6360e01b811490811561036c575b506040519015158152f35b6380ac58cd60e01b8114915081156103b8575b811561038d575b5038610361565b63152a902d60e11b8114915081156103a7575b5038610386565b6301ffc9a760e01b149050386103a0565b635b5e139f60e01b8114915061037f565b918091926000905b8282106103e95750116103e2575050565b6000910152565b915080602091830151818601520182916103d1565b90602091610417815180928185528580860191016103c9565b601f01601f1916010190565b9060206104349281815201906103fe565b90565b503461000e5760008060031936011261051a57604051908060975461045b816112a6565b808552916001918083169081156104f05750600114610495575b6104918561048581870382610783565b60405191829182610423565b0390f35b9250609783527f354a83ed9988f79f6038d4c7a7dadbad8af32f4ad6df893e0e5807a1b1944ff95b8284106104d857505050810160200161048582610491610475565b805460208587018101919091529093019281016104bd565b8695506104919693506020925061048594915060ff191682840152151560051b8201019293610475565b80fd5b503461000e57602036600319011261000e57602061053c600435611f62565b6040516001600160a01b039091168152f35b600435906001600160a01b038216820361000e57565b60c435906001600160a01b038216820361000e57565b61010435906001600160a01b038216820361000e57565b602435906001600160a01b038216820361000e57565b35906001600160a01b038216820361000e57565b503461000e57604036600319011261000e576105d561054e565b6024356105e181611e78565b916001600160a01b03808416908216811461065c576106139361060e913314908115610615575b50611ef0565b612414565b005b6001600160a01b03166000908152609c60205260409020610656915061064f9033905b9060018060a01b0316600052602052604060002090565b5460ff1690565b38610608565b60405162461bcd60e51b815260206004820152602160248201527f4552433732313a20617070726f76616c20746f2063757272656e74206f776e656044820152603960f91b6064820152608490fd5b503461000e57600036600319011261000e57602060cb54604051908152f35b606090600319011261000e576001600160a01b0390600435828116810361000e5791602435908116810361000e579060443590565b503461000e57610613610711366106ca565b9161072461071f84336120fd565b611ff4565b612295565b50634e487b7160e01b600052604160045260246000fd5b604081019081106001600160401b0382111761075b57604052565b610763610729565b604052565b602081019081106001600160401b0382111761075b57604052565b90601f801991011681019081106001600160401b0382111761075b57604052565b604051906107b182610740565b565b60208060031983011261000e576001600160401b039160043583811161000e578160238201121561000e57806004013593841161083c575b8360051b906040519461080085840187610783565b855260248486019282010192831161000e57602401905b828210610825575050505090565b838091610831846105a7565b815201910190610817565b610844610729565b6107eb565b503461000e57610858366107b3565b61015f546001600160a01b03906108729082163314611d66565b60005b8251811015610613576108a8906108a36101918054906001820190558461089c84886130a7565b51166130c9565b612a2a565b610875565b503461000e57604036600319011261000e5760243560043560005260666020526108da6040600020612655565b80519091906001600160a01b031615610954575b6104916109206001600160601b03602085015116938360001904851184151516610947575b516001600160a01b031690565b6127106040519485940204908360209093929193604081019460018060a01b031681520152565b61094f612245565b610913565b905061095e61262f565b906108ee565b6020906001600160401b038111610981575b601f01601f19160190565b610989610729565b610976565b92919261099a82610964565b916109a86040519384610783565b82948184528183011161000e578281602093846000960137010152565b9080601f8301121561000e578160206104349335910161098e565b60843590811515820361000e57565b60243590811515820361000e57565b60e435906001600160601b038216820361000e57565b604435906001600160601b038216820361000e57565b503461000e5761012036600319011261000e576001600160401b0360043581811161000e57610a5d9036906004016109c5565b60243582811161000e57610a759036906004016109c5565b9060443583811161000e57610a8e9036906004016109c5565b9060643593841161000e57610aaa6106139436906004016109c5565b90610ab36109e0565b610abb610564565b92610ac46109fe565b94610acd61057a565b9660a43594612b22565b503461000e57604036600319011261000e57610af161054e565b60243590610afe81611e00565b821015610b32576001600160a01b0316600090815260c9602090815260408083209383529281529082902054915191825290f35b60405162461bcd60e51b815260206004820152602b60248201527f455243373231456e756d657261626c653a206f776e657220696e646578206f7560448201526a74206f6620626f756e647360a81b6064820152608490fd5b503461000e57602036600319011261000e57610613610ba861054e565b610bbe60018060a01b0361015f54163314611d66565b610191908154916001830190556130c9565b503461000e57610613610be2366106ca565b9060405192610bf084610768565b6000845261205a565b503461000e57602036600319011261000e57600435610c1881336120fd565b15610db75780806000610c2d61061394611e78565b6001600160a01b03811690610c799082158414610ce357610c4d856133dd565b610c5685613456565b610c5f856123be565b6001600160a01b03166000908152609a6020526040902090565b610c83815461225c565b9055610cac610c9c846000526099602052604060002090565b80546001600160a01b0319169055565b7fddf252ad1be2c89b69c2b068fc378daa952ba7f163c4a11628f55a4df523b3ef82604051a4600052606660205260006040812055565b610cec81611e00565b60018110610daa575b841901610d51859187835260ca6020526040832054818103610d57575b5082610d288960005260ca602052604060002090565b556001600160a01b038416600090815260c9602052604090205b90600052602052604060002090565b55610c4d565b86845260c960205260408420828552602052610da3604085205480610d9284610d428a60018060a01b031660005260c9602052604060002090565b5560005260ca602052604060002090565b5538610d12565b610db2612245565b610cf5565b60405162461bcd60e51b815260206004820152603060248201527f4552433732314275726e61626c653a2063616c6c6572206973206e6f74206f7760448201526f1b995c881b9bdc88185c1c1c9bdd995960821b6064820152608490fd5b503461000e57602036600319011261000e5760043560cb54811015610e675760cb6000527fa7ce836d032b2bf62b7e2097a8e0a6d8aeb35405ad15271e96d3b0188a1d06fb0154604051908152602090f35b60405162461bcd60e51b815260206004820152602c60248201527f455243373231456e756d657261626c653a20676c6f62616c20696e646578206f60448201526b7574206f6620626f756e647360a01b6064820152608490fd5b503461000e57600036600319011261000e57610ee960018060a01b0361015f54163314611d66565b610197805460ff19166001179055005b503461000e57606036600319011261000e57600435610f16610591565b610f1e610a14565b61015f546001600160a01b0390610f389082163314611d66565b80610f4285611e78565b16330361101957610f606127106001600160601b0384161115612fb3565b821615610fd45761061392610f9c610fac92610f8c610f7d6107a4565b6001600160a01b039096168652565b6001600160601b03166020850152565b6000526066602052604060002090565b815160209092015160a01b6001600160a01b0319166001600160a01b03909216919091179055565b60405162461bcd60e51b815260206004820152601b60248201527f455243323938313a20496e76616c696420706172616d657465727300000000006044820152606490fd5b60405162461bcd60e51b815260206004820152604160248201527f436f6c6c656374696f6e3a20796f75206d75737420626520746865206f776e6560448201527f72206f662074686520746f6b656e20746f207365742074686520726f79616c746064820152607960f81b608482015260a490fd5b503461000e5760208060031936011261000e576001600160401b039060043582811161000e576110c29036906004016109c5565b916110d960018060a01b0361015f54163314611d66565b82519081116111a9575b610193916110fa826110f585546112a6565b61267a565b80601f83116001146111335750819293600092611128575b50508160011b916000199060031b1c1916179055005b015190503880611112565b90601f1983169461115561019360005260008051602061356c83398151915290565b926000905b878210611191575050836001959610611178575b505050811b019055005b015160001960f88460031b161c1916905538808061116e565b8060018596829496860151815501950193019061115a565b6111b1610729565b6110e3565b503461000e57602036600319011261000e57602061053c600435611e78565b503461000e5760008060031936011261051a5760ff6101975416611215575b6112106101915461120a61019160018154019055565b336130c9565b604051f35b33815261019260205260ff604082205416156112485733600090815261019260205260409020805460ff191690556111f4565b60405162461bcd60e51b815260206004820152603060248201527f436f6c6c656374696f6e3a2061646472657373206e6f7420726567697374657260448201526f1959081a5b881dda1a5d19481b1a5cdd60821b6064820152608490fd5b90600182811c921680156112d6575b60208310146112c057565b634e487b7160e01b600052602260045260246000fd5b91607f16916112b5565b604051906000826101949182546112f6816112a6565b8084529360019180831690811561136a575060011461131e575b50506107b192500383610783565b6000908152915060008051602061358c8339815191525b84831061134f57506107b193505081016020013880611310565b81935090816020925483858a01015201910190918592611335565b915050602092506107b194915060ff191682840152151560051b8201013880611310565b503461000e5760008060031936011261051a576040519080610194908154906113b6826112a6565b8086529260019280841690811561142857506001146113e0575b6104918661048581880382610783565b8152925060008051602061358c8339815191525b82841061141057505050810160200161048582610491386113d0565b805460208587018101919091529093019281016113f4565b90508695506104919693506020925061048594915060ff191682840152151560051b8201019293386113d0565b503461000e57602036600319011261000e57602061147961147461054e565b611e00565b604051908152f35b503461000e5760008060031936011261051a5761015f80546001600160a01b03811691906114b0338414611d66565b6001600160a01b03191690556040519082907f8be0079c531659141344cd1fd0a4f28419497f9722a3daafe3b4186f6b6457e08284a3f35b503461000e576114f7366107b3565b61015f546001600160a01b0391906115129083163314611d66565b600091825b825181101561155257808261152f61154d93866130a7565b5116855261019260205260408520805460ff19166001179055612a2a565b611517565b83604051f35b503461000e57602036600319011261000e5761158060018060a01b0361015f54163314611d66565b610613600435600052606660205260006040812055565b503461000e57600036600319011261000e5761015f546040516001600160a01b039091168152602090f35b503461000e5760008060031936011261051a5760405190806098546115e6816112a6565b808552916001918083169081156104f0575060011461160f576104918561048581870382610783565b9250609883527f2237a976fa961f5921fd19f2b03c925c725d77b20ce8f790c19709c03de4d8145b82841061165257505050810160200161048582610491610475565b80546020858701810191909152909301928101611637565b503461000e57604036600319011261000e5761168461054e565b61168c6109ef565b6001600160a01b0382169133831461170e57816116cb6116dc9233600052609c60205260406000209060018060a01b0316600052602052604060002090565b9060ff801983541691151516179055565b604051901515815233907f17307eab39ab6107e8899845ad3d59bd9653f200f220920489ca2b5937696c3190602090a3005b60405162461bcd60e51b815260206004820152601960248201527f4552433732313a20617070726f766520746f2063616c6c6572000000000000006044820152606490fd5b503461000e57600036600319011261000e5761177b60018060a01b0361015f54163314611d66565b6000606555005b503461000e57611791366107b3565b61015f546001600160a01b0391906117ac9083163314611d66565b600091825b82518110156115525780826117c96117e493866130a7565b5116855261019260205260408520805460ff19169055612a2a565b6117b1565b503461000e57604036600319011261000e576001600160401b0360043581811161000e5761181b9036906004016109c5565b6118236109ef565b9061183a60018060a01b0361015f54163314611d66565b8051928311611974575b61019461185a8461185583546112a6565b6126da565b602080601f86116001146118e0575093807fb939e4eec1be4c65f209c823721a954c35bd434a61d9e058d7fa1c1ffbfc8bb8956000916118d5575b508160011b916000199060031b1c19161790555b6118c1826101959060ff801983541691151516179055565b6118d0604051928392836129f7565b0390a1005b905083015138611895565b61019460005290601f19861660008051602061358c833981519152926000905b82821061195c5750509186917fb939e4eec1be4c65f209c823721a954c35bd434a61d9e058d7fa1c1ffbfc8bb89760019410611943575b5050811b0190556118a9565b85015160001960f88460031b161c191690553880611937565b80600185968294968a01518155019501930190611900565b61197c610729565b611844565b503461000e57608036600319011261000e5761199b61054e565b6119a3610591565b606435916001600160401b03831161000e573660238401121561000e576119d761061393369060248160040135910161098e565b916044359161205a565b503461000e5760008060031936011261051a57604051908061019390815490611a09826112a6565b808652926001928084169081156114285750600114611a32576104918661048581880382610783565b8152925060008051602061356c8339815191525b828410611a6257505050810160200161048582610491386113d0565b80546020858701810191909152909301928101611a46565b503461000e57600036600319011261000e57602060ff61019554166040519015158152f35b503461000e5760208060031936011261000e576004356000818152609960205260409020549091906001600160a01b031615611bbf57610195546000929060ff1615611af3575050506104916104856112e0565b611afc90612a59565b6040519183610194908154611b10816112a6565b92600191808316908115611b9a5750600114611b50575b505050505081611b3d61049194611b4b93612a17565b03601f198101835282610783565b610485565b8252929550909160008051602061358c8339815191525b838310611b875750505082019092019181611b3d82610491611b4b611b27565b8054868401880152918601918101611b67565b60ff1916868901525050505080151502830101925081611b3d82610491611b4b611b27565b6084906040519062461bcd60e51b82526004820152602f60248201527f4552433732314d657461646174613a2055524920717565727920666f72206e6f60448201526e3732bc34b9ba32b73a103a37b5b2b760891b6064820152fd5b503461000e57600036600319011261000e57602061019654604051908152f35b503461000e57600036600319011261000e57611c6360018060a01b0361015f54163314611d66565b610197805460ff19169055005b503461000e57604036600319011261000e57602060ff611cc2611c9161054e565b611c99610591565b6001600160a01b039182166000908152609c865260408082209290931681526020919091522090565b54166040519015158152f35b503461000e57602036600319011261000e57611ce861054e565b61015f546001600160a01b0390611d029082163314611d66565b811615611d125761061390611db1565b60405162461bcd60e51b815260206004820152602660248201527f4f776e61626c653a206e6577206f776e657220697320746865207a65726f206160448201526564647265737360d01b6064820152608490fd5b15611d6d57565b606460405162461bcd60e51b815260206004820152602060248201527f4f776e61626c653a2063616c6c6572206973206e6f7420746865206f776e65726044820152fd5b61015f80546001600160a01b039283166001600160a01b031982168117909255604051919216907f8be0079c531659141344cd1fd0a4f28419497f9722a3daafe3b4186f6b6457e090600090a3565b6001600160a01b03168015611e2057600052609a60205260406000205490565b60405162461bcd60e51b815260206004820152602a60248201527f4552433732313a2062616c616e636520717565727920666f7220746865207a65604482015269726f206164647265737360b01b6064820152608490fd5b6000908152609960205260409020546001600160a01b03168015611e995790565b60405162461bcd60e51b815260206004820152602960248201527f4552433732313a206f776e657220717565727920666f72206e6f6e657869737460448201526832b73a103a37b5b2b760b91b6064820152608490fd5b15611ef757565b60405162461bcd60e51b815260206004820152603860248201527f4552433732313a20617070726f76652063616c6c6572206973206e6f74206f7760448201527f6e6572206e6f7220617070726f76656420666f7220616c6c00000000000000006064820152608490fd5b6000818152609960205260409020546001600160a01b031615611f9a576000908152609b60205260409020546001600160a01b031690565b60405162461bcd60e51b815260206004820152602c60248201527f4552433732313a20617070726f76656420717565727920666f72206e6f6e657860448201526b34b9ba32b73a103a37b5b2b760a11b6064820152608490fd5b15611ffb57565b60405162461bcd60e51b815260206004820152603160248201527f4552433732313a207472616e736665722063616c6c6572206973206e6f74206f6044820152701ddb995c881b9bdc88185c1c1c9bdd9959607a1b6064820152608490fd5b916107b193916120819361207161071f84336120fd565b61207c838383612295565b6125dc565b6120d9565b60809060208152603260208201527f4552433732313a207472616e7366657220746f206e6f6e20455243373231526560408201527131b2b4bb32b91034b6b83632b6b2b73a32b960711b60608201520190565b156120e057565b60405162461bcd60e51b8152806120f960048201612086565b0390fd5b6000828152609960205260409020546001600160a01b0316156121935761212382611e78565b9160018060a01b0390818316928285168414948515612162575b5050831561214c575b50505090565b61215891929350611f62565b1614388080612146565b6001600160a01b03166000908152609c6020526040902091945060ff916121899190610638565b541692388061213d565b60405162461bcd60e51b815260206004820152602c60248201527f4552433732313a206f70657261746f7220717565727920666f72206e6f6e657860448201526b34b9ba32b73a103a37b5b2b760a11b6064820152608490fd5b156121f457565b60405162461bcd60e51b8152602060048201526024808201527f4552433732313a207472616e7366657220746f20746865207a65726f206164646044820152637265737360e01b6064820152608490fd5b50634e487b7160e01b600052601160045260246000fd5b6001811061226c575b6000190190565b612274612245565b612265565b6001906001198111612289570190565b612291612245565b0190565b9061229f83611e78565b6001600160a01b03838116929091821683900361236b576122df612342928216946122cb8615156121ed565b6122d68784836132a0565b610c5f876123be565b6122e9815461225c565b90556001600160a01b0381166000908152609a6020526040902061230d8154612279565b9055612323856000526099602052604060002090565b80546001600160a01b0319166001600160a01b03909216919091179055565b7fddf252ad1be2c89b69c2b068fc378daa952ba7f163c4a11628f55a4df523b3ef6000604051a4565b60405162461bcd60e51b815260206004820152602560248201527f4552433732313a207472616e736665722066726f6d20696e636f72726563742060448201526437bbb732b960d91b6064820152608490fd5b6000818152609b6020526040812080546001600160a01b03191690556001600160a01b036123eb83611e78565b167f8c5be1e5ebec7d5bd14f71427d1e84f3dd0314c0f7b2291e5b200ac8c7c3b92582604051a4565b6000828152609b6020526040902080546001600160a01b0319166001600160a01b0383161790556001600160a01b038061244d84611e78565b169116907f8c5be1e5ebec7d5bd14f71427d1e84f3dd0314c0f7b2291e5b200ac8c7c3b9256000604051a4565b9081602091031261000e575161043481610314565b610434939260809260018060a01b0316825260006020830152604082015281606082015201906103fe565b6001600160a01b039182168152911660208201526040810191909152608060608201819052610434929101906103fe565b3d15612516573d906124fc82610964565b9161250a6040519384610783565b82523d6000602084013e565b606090565b909190803b156125d45761254d602091600093604051948580948193630a85bd0160e11b998a8452336004850161248f565b03926001600160a01b03165af1600091816125a4575b50612596576125706124eb565b805190816125915760405162461bcd60e51b8152806120f960048201612086565b602001fd5b6001600160e01b0319161490565b6125c691925060203d81116125cd575b6125be8183610783565b81019061247a565b9038612563565b503d6125b4565b505050600190565b92909190823b1561260f5761254d926020926000604051809681958294630a85bd0160e11b9a8b855233600486016124ba565b50505050600190565b50634e487b7160e01b600052603260045260246000fd5b6040519061263c82610740565b6065546001600160a01b038116835260a01c6020830152565b9060405161266281610740565b91546001600160a01b038116835260a01c6020830152565b601f8111612686575050565b600090610193825260008051602061356c833981519152906020601f850160051c830194106126d0575b601f0160051c01915b8281106126c557505050565b8181556001016126b9565b90925082906126b0565b601f81116126e6575050565b600090610194825260008051602061358c833981519152906020601f850160051c83019410612730575b601f0160051c01915b82811061272557505050565b818155600101612719565b9092508290612710565b601f8111612746575050565b600090609782527f354a83ed9988f79f6038d4c7a7dadbad8af32f4ad6df893e0e5807a1b1944ff9906020601f850160051c830194106127a1575b601f0160051c01915b82811061279657505050565b81815560010161278a565b9092508290612781565b601f81116127b7575050565b600090609882527f2237a976fa961f5921fd19f2b03c925c725d77b20ce8f790c19709c03de4d814906020601f850160051c83019410612812575b601f0160051c01915b82811061280757505050565b8181556001016127fb565b90925082906127f2565b9081516001600160401b0381116128f3575b610194906128408161185584546112a6565b602080601f831160011461287c575081929394600092612871575b50508160011b916000199060031b1c1916179055565b01519050388061285b565b90601f1983169561289e61019460005260008051602061358c83398151915290565b926000905b8882106128db575050836001959697106128c2575b505050811b019055565b015160001960f88460031b161c191690553880806128b8565b806001859682949686015181550195019301906128a3565b6128fb610729565b61282e565b9081516001600160401b0381116129ea575b612926816129216098546112a6565b6127ab565b602080601f83116001146129625750819293600092612957575b50508160011b916000199060031b1c191617609855565b015190503880612940565b90601f1983169461299560986000527f2237a976fa961f5921fd19f2b03c925c725d77b20ce8f790c19709c03de4d81490565b926000905b8782106129d25750508360019596106129b9575b505050811b01609855565b015160001960f88460031b161c191690553880806129ae565b8060018596829496860151815501950193019061299a565b6129f2610729565b612912565b90612a0f6020919493946040845260408401906103fe565b931515910152565b90612291602092828151948592016103c9565b6001906000198114612289570190565b906020918051821015612a4c57010190565b612a54612618565b010190565b8015612b0457806000908282935b612af05750612a7583610964565b92612a836040519485610783565b80845281601f19612a9383610964565b013660208701375b612aa55750505090565b612aae9061225c565b90600a90603082820680198211612ae3575b0160f81b6001600160f81b031916841a612ada8487612a3a565b53049081612a9b565b612aeb612245565b612ac0565b92612afc600a91612a2a565b930480612a67565b50604051612b1181610740565b60018152600360fc1b602082015290565b9796959190612b2f612e40565b9889612cf7575b80516001600160401b038111612cea575b61019391612b59826110f585546112a6565b60209081601f8411600114612c5d575094612bd29794612bb99484612bd89c9b9995612ba495612bbe9a600092612c52575b50508160011b916000199060031b1c1916179055612e80565b612bac612fa2565b612bb4612fa2565b612dc3565b61281c565b6101959060ff801983541691151516179055565b61019655565b6001600160601b038116612c2e575b5050612bef57565b612bff61ff001960005416600055565b604051600181527f7f26b83ff96e1f2b6a682f133852f6798a09c465da95921460cefb384740249890602090a1565b612c4b91612c466001600160a01b0382161515612d0b565b613012565b3880612be7565b015190503880612b8b565b6101936000529190601f19841660008051602061356c833981519152936000905b828210612cd257505094600185612ba495612bbe9a95612bd89f9e9c9895612bd29e9b96612bb99b10612cb9575b505050811b019055612e80565b015160001960f88460031b161c19169055388080612cac565b80600186978294978701518155019601940190612c7e565b612cf2610729565b612b47565b61010061ff00196000541617600055612b36565b15612d1257565b60405162461bcd60e51b8152602060048201526024808201527f436f6c6c656374696f6e3a20496e76616c696420526f79616c7479207265636560448201526334bb32b960e11b6064820152608490fd5b15612d6a57565b60405162461bcd60e51b815260206004820152602b60248201527f496e697469616c697a61626c653a20636f6e7472616374206973206e6f74206960448201526a6e697469616c697a696e6760a81b6064820152608490fd5b6107b190612dd860ff60005460081c16612d63565b611db1565b15612de457565b60405162461bcd60e51b815260206004820152602e60248201527f496e697469616c697a61626c653a20636f6e747261637420697320616c72656160448201526d191e481a5b9a5d1a585b1a5e995960921b6064820152608490fd5b60005460ff8160081c16600014612e625750612e5d303b15612ddd565b600090565b80612e73600160ff81941610612ddd565b60ff191617600055600190565b90612e9b60ff60005460081c16612e9681612d63565b612d63565b81516001600160401b038111612f95575b612ec081612ebb6097546112a6565b61273a565b602080601f8311600114612f02575081906107b194600092612ef7575b50508160011b916000199060031b1c191617609755612900565b015190503880612edd565b919293601f198416612f3660976000527f354a83ed9988f79f6038d4c7a7dadbad8af32f4ad6df893e0e5807a1b1944ff990565b936000905b828210612f7d5750509160019391856107b197969410612f64575b505050811b01609755612900565b015160001960f88460031b161c19169055388080612f56565b80600186978294978701518155019601940190612f3b565b612f9d610729565b612eac565b6107b160ff60005460081c16612d63565b15612fba57565b60405162461bcd60e51b815260206004820152602a60248201527f455243323938313a20726f79616c7479206665652077696c6c206578636565646044820152692073616c65507269636560b01b6064820152608490fd5b906001600160601b0381169161302c612710841115612fb3565b6001600160a01b031691821561306257602060405161304a81610740565b848152015260a01b6001600160a01b03191617606555565b60405162461bcd60e51b815260206004820152601960248201527f455243323938313a20696e76616c6964207265636569766572000000000000006044820152606490fd5b60209181518110156130bc575b60051b010190565b6130c4612618565b6130b4565b906040516130d681610768565b60008152610196548210156131e4576001600160a01b0383169182156131a0576107b193816120819461312d61312861312484600052609960205260018060a01b0360406000205416151590565b1590565b613229565b6131378284613275565b6001600160a01b0383166000908152609a602052604090206131598154612279565b905561317383612323846000526099602052604060002090565b60007fddf252ad1be2c89b69c2b068fc378daa952ba7f163c4a11628f55a4df523b3ef81604051a461251b565b606460405162461bcd60e51b815260206004820152602060248201527f4552433732313a206d696e7420746f20746865207a65726f20616464726573736044820152fd5b60405162461bcd60e51b815260206004820152601c60248201527f436f6c6c656374696f6e3a20496e76616c696420746f6b656e204964000000006044820152606490fd5b1561323057565b60405162461bcd60e51b815260206004820152601c60248201527f4552433732313a20746f6b656e20616c7265616479206d696e746564000000006044820152606490fd5b9061327f816133dd565b6001600160a01b038216613297576107b19150613456565b6107b1916133a5565b9091906001600160a01b0380821691826132da57506132be836133dd565b8316806132d15750506107b19150613456565b03613297575050565b81851683036132ea575b506132be565b61334f6132f682611e00565b60018110613398575b60001901610d4260009387855260ca6020526040852054838103613356575b50846133348960005260ca602052604060002090565b556001600160a01b0316600090815260c96020526040902090565b55386132e4565b87865260c960205260408620848752602052613391604087205480610d9284610d428760018060a01b031660005260c9602052604060002090565b553861331e565b6133a0612245565b6132ff565b6040906133b181611e00565b9260009160018060a01b0316825260c96020528282208483526020528083832055815260ca6020522055565b60cb548160005260cc6020528060406000205568010000000000000000811015613449575b600181018060cb5581101561343c575b60cb6000527fa7ce836d032b2bf62b7e2097a8e0a6d8aeb35405ad15271e96d3b0188a1d06fb0155565b613444612618565b613412565b613451610729565b613402565b60cb80546001811061355e575b60009083825260cc6020528161350560408220549560001996848881011015613551575b8684526134f47fa7ce836d032b2bf62b7e2097a8e0a6d8aeb35405ad15271e96d3b0188a1d06fa958681015490831015613544575b88865280837fa7ce836d032b2bf62b7e2097a8e0a6d8aeb35405ad15271e96d3b0188a1d06fb015560005260cc602052604060002090565b5560005260cc602052604060002090565b5582549384156135305784019380851015613523575b838352015555565b61352b612618565b61351b565b634e487b7160e01b83526031600452602483fd5b61354c612618565b6134bc565b613559612618565b613487565b613566612245565b61346356fefc8af01f449989052b52093a58fc9f42d0b11f0c6dd5dca0463dab62346ccc68a6f1ac7ad7b125ba5a5e1c96b00ad6914f90a503b1ac3d85a9dadbb4c639df92a2646970667358221220d21392c86f680164cbaa621a21ec83f0a4f99bdf552939b90cfe682b86ee157c64736f6c634300080f0033496e697469616c697a61626c653a20636f6e747261637420697320616c726561",
  "linkReferences": {},
  "deployedLinkReferences": {}
}