{
  "_format": "hh-sol-artifact-1",
  "contractName": "Gallery",
  "sourceName": "contracts/Gallery.sol",
  "abi": [
    {
      "anonymous": false,
      "inputs": [
        {
          "indexed": true,
          "internalType": "address",
          "name": "owner",
          "type": "address"
        },
        {
          "indexed": true,
          "internalType": "address",
          "name": "approved",
          "type": "address"
        },
        {
          "indexed": true,
          "internalType": "uint256",
          "name": "tokenId",
          "type": "uint256"
        }
      ],
      "name": "Approval",
      "type": "event"
    },
    {
      "anonymous": false,
      "inputs": [
        {
          "indexed": true,
          "internalType": "address",
          "name": "owner",
          "type": "address"
        },
        {
          "indexed": true,
          "internalType": "address",
          "name": "operator",
          "type": "address"
        },
        {
          "indexed": false,
          "internalType": "bool",
          "name": "approved",
          "type": "bool"
        }
      ],
      "name": "ApprovalForAll",
      "type": "event"
    },
    {
      "anonymous": false,
      "inputs": [
        {
          "indexed": false,
          "internalType": "uint8",
          "name": "version",
          "type": "uint8"
        }
      ],
      "name": "Initialized",
      "type": "event"
    },
    {
      "anonymous": false,
      "inputs": [
        {
          "indexed": true,
          "internalType": "address",
          "name": "previousOwner",
          "type": "address"
        },
        {
          "indexed": true,
          "internalType": "address",
          "name": "newOwner",
          "type": "address"
        }
      ],
      "name": "OwnershipTransferred",
      "type": "event"
    },
    {
      "anonymous": false,
      "inputs": [
        {
          "indexed": true,
          "internalType": "address",
          "name": "from",
          "type": "address"
        },
        {
          "indexed": true,
          "internalType": "address",
          "name": "to",
          "type": "address"
        },
        {
          "indexed": true,
          "internalType": "uint256",
          "name": "tokenId",
          "type": "uint256"
        }
      ],
      "name": "Transfer",
      "type": "event"
    },
    {
      "inputs": [
        {
          "internalType": "address",
          "name": "to",
          "type": "address"
        },
        {
          "internalType": "uint256",
          "name": "tokenId",
          "type": "uint256"
        }
      ],
      "name": "approve",
      "outputs": [],
      "stateMutability": "nonpayable",
      "type": "function"
    },
    {
      "inputs": [
        {
          "internalType": "address",
          "name": "owner",
          "type": "address"
        }
      ],
      "name": "balanceOf",
      "outputs": [
        {
          "internalType": "uint256",
          "name": "",
          "type": "uint256"
        }
      ],
      "stateMutability": "view",
      "type": "function"
    },
    {
      "inputs": [
        {
          "internalType": "uint256",
          "name": "tokenId",
          "type": "uint256"
        }
      ],
      "name": "burn",
      "outputs": [],
      "stateMutability": "nonpayable",
      "type": "function"
    },
    {
      "inputs": [],
      "name": "creator",
      "outputs": [
        {
          "internalType": "string",
          "name": "",
          "type": "string"
        }
      ],
      "stateMutability": "view",
      "type": "function"
    },
    {
      "inputs": [],
      "name": "deleteDefaultRoyalty",
      "outputs": [],
      "stateMutability": "nonpayable",
      "type": "function"
    },
    {
      "inputs": [
        {
          "internalType": "uint256",
          "name": "tokenId",
          "type": "uint256"
        }
      ],
      "name": "getApproved",
      "outputs": [
        {
          "internalType": "address",
          "name": "",
          "type": "address"
        }
      ],
      "stateMutability": "view",
      "type": "function"
    },
    {
      "inputs": [
        {
          "internalType": "string",
          "name": "_creator",
          "type": "string"
        },
        {
          "internalType": "string",
          "name": "_name",
          "type": "string"
        },
        {
          "internalType": "string",
          "name": "_symbol",
          "type": "string"
        },
        {
          "internalType": "uint96",
          "name": "_royaltyNumerator",
          "type": "uint96"
        },
        {
          "internalType": "address",
          "name": "_royaltyReciever",
          "type": "address"
        }
      ],
      "name": "initialize",
      "outputs": [],
      "stateMutability": "nonpayable",
      "type": "function"
    },
    {
      "inputs": [
        {
          "internalType": "address",
          "name": "owner",
          "type": "address"
        },
        {
          "internalType": "address",
          "name": "operator",
          "type": "address"
        }
      ],
      "name": "isApprovedForAll",
      "outputs": [
        {
          "internalType": "bool",
          "name": "",
          "type": "bool"
        }
      ],
      "stateMutability": "view",
      "type": "function"
    },
    {
      "inputs": [],
      "name": "name",
      "outputs": [
        {
          "internalType": "string",
          "name": "",
          "type": "string"
        }
      ],
      "stateMutability": "view",
      "type": "function"
    },
    {
      "inputs": [],
      "name": "owner",
      "outputs": [
        {
          "internalType": "address",
          "name": "",
          "type": "address"
        }
      ],
      "stateMutability": "view",
      "type": "function"
    },
    {
      "inputs": [
        {
          "internalType": "uint256",
          "name": "tokenId",
          "type": "uint256"
        }
      ],
      "name": "ownerOf",
      "outputs": [
        {
          "internalType": "address",
          "name": "",
          "type": "address"
        }
      ],
      "stateMutability": "view",
      "type": "function"
    },
    {
      "inputs": [],
      "name": "renounceOwnership",
      "outputs": [],
      "stateMutability": "nonpayable",
      "type": "function"
    },
    {
      "inputs": [
        {
          "internalType": "uint256",
          "name": "tokenId",
          "type": "uint256"
        }
      ],
      "name": "resetTokenRoyalty",
      "outputs": [],
      "stateMutability": "nonpayable",
      "type": "function"
    },
    {
      "inputs": [
        {
          "internalType": "uint256",
          "name": "_tokenId",
          "type": "uint256"
        },
        {
          "internalType": "uint256",
          "name": "_salePrice",
          "type": "uint256"
        }
      ],
      "name": "royaltyInfo",
      "outputs": [
        {
          "internalType": "address",
          "name": "",
          "type": "address"
        },
        {
          "internalType": "uint256",
          "name": "",
          "type": "uint256"
        }
      ],
      "stateMutability": "view",
      "type": "function"
    },
    {
      "inputs": [
        {
          "internalType": "address",
          "name": "to",
          "type": "address"
        },
        {
          "internalType": "string",
          "name": "uri",
          "type": "string"
        },
        {
          "internalType": "uint96",
          "name": "royaltyNumerator",
          "type": "uint96"
        },
        {
          "internalType": "address",
          "name": "_royaltyReciever",
          "type": "address"
        }
      ],
      "name": "safeMint",
      "outputs": [],
      "stateMutability": "nonpayable",
      "type": "function"
    },
    {
      "inputs": [
        {
          "internalType": "address",
          "name": "from",
          "type": "address"
        },
        {
          "internalType": "address",
          "name": "to",
          "type": "address"
        },
        {
          "internalType": "uint256",
          "name": "tokenId",
          "type": "uint256"
        }
      ],
      "name": "safeTransferFrom",
      "outputs": [],
      "stateMutability": "nonpayable",
      "type": "function"
    },
    {
      "inputs": [
        {
          "internalType": "address",
          "name": "from",
          "type": "address"
        },
        {
          "internalType": "address",
          "name": "to",
          "type": "address"
        },
        {
          "internalType": "uint256",
          "name": "tokenId",
          "type": "uint256"
        },
        {
          "internalType": "bytes",
          "name": "_data",
          "type": "bytes"
        }
      ],
      "name": "safeTransferFrom",
      "outputs": [],
      "stateMutability": "nonpayable",
      "type": "function"
    },
    {
      "inputs": [
        {
          "internalType": "address",
          "name": "operator",
          "type": "address"
        },
        {
          "internalType": "bool",
          "name": "approved",
          "type": "bool"
        }
      ],
      "name": "setApprovalForAll",
      "outputs": [],
      "stateMutability": "nonpayable",
      "type": "function"
    },
    {
      "inputs": [
        {
          "internalType": "string",
          "name": "_creatorName",
          "type": "string"
        }
      ],
      "name": "setCreatorName",
      "outputs": [],
      "stateMutability": "nonpayable",
      "type": "function"
    },
    {
      "inputs": [
        {
          "internalType": "bytes4",
          "name": "interfaceId",
          "type": "bytes4"
        }
      ],
      "name": "supportsInterface",
      "outputs": [
        {
          "internalType": "bool",
          "name": "",
          "type": "bool"
        }
      ],
      "stateMutability": "view",
      "type": "function"
    },
    {
      "inputs": [],
      "name": "symbol",
      "outputs": [
        {
          "internalType": "string",
          "name": "",
          "type": "string"
        }
      ],
      "stateMutability": "view",
      "type": "function"
    },
    {
      "inputs": [
        {
          "internalType": "uint256",
          "name": "tokenId",
          "type": "uint256"
        }
      ],
      "name": "tokenURI",
      "outputs": [
        {
          "internalType": "string",
          "name": "",
          "type": "string"
        }
      ],
      "stateMutability": "view",
      "type": "function"
    },
    {
      "inputs": [
        {
          "internalType": "address",
          "name": "from",
          "type": "address"
        },
        {
          "internalType": "address",
          "name": "to",
          "type": "address"
        },
        {
          "internalType": "uint256",
          "name": "tokenId",
          "type": "uint256"
        }
      ],
      "name": "transferFrom",
      "outputs": [],
      "stateMutability": "nonpayable",
      "type": "function"
    },
    {
      "inputs": [
        {
          "internalType": "address",
          "name": "newOwner",
          "type": "address"
        }
      ],
      "name": "transferOwnership",
      "outputs": [],
      "stateMutability": "nonpayable",
      "type": "function"
    }
  ],
  "bytecode": "0x608060405234801561001057600080fd5b5061239b806100206000396000f3fe608060405234801561001057600080fd5b50600436106101585760003560e01c80636352211e116100c3578063a22cb4651161007c578063a22cb465146102ef578063aa1b103f14610302578063b88d4fde1461030a578063c87b56dd1461031d578063e985e9c514610330578063f2fde38b1461036c57600080fd5b80636352211e1461028657806370a0823114610299578063715018a6146102ba5780638a616bc0146102c25780638da5cb5b146102d557806395d89b41146102e757600080fd5b806323b872dd1161011557806323b872dd146101f55780632a55205a1461020857806342842e0e1461023a57806342966c681461024d57806357dfd01f1461026057806360eb94851461027357600080fd5b806301ffc9a71461015d57806302d05d3f1461018557806306fdde031461019a578063081812fc146101a2578063095ea7b3146101cd578063143045b5146101e2575b600080fd5b61017061016b366004611bc8565b61037f565b60405190151581526020015b60405180910390f35b61018d610390565b60405161017c9190611c3d565b61018d61041f565b6101b56101b0366004611c50565b6104b1565b6040516001600160a01b03909116815260200161017c565b6101e06101db366004611c80565b61053e565b005b6101e06101f0366004611d6d565b610653565b6101e0610203366004611e17565b61073b565b61021b610216366004611e53565b61076d565b604080516001600160a01b03909316835260208301919091520161017c565b6101e0610248366004611e17565b610819565b6101e061025b366004611c50565b610834565b6101e061026e366004611e75565b6108ae565b6101e0610281366004611ee4565b610950565b6101b5610294366004611c50565b610993565b6102ac6102a7366004611f19565b610a0a565b60405190815260200161017c565b6101e0610a91565b6101e06102d0366004611c50565b610ac8565b61015f546001600160a01b03166101b5565b61018d610b04565b6101e06102fd366004611f34565b610b13565b6101e0610b1e565b6101e0610318366004611f70565b610b53565b61018d61032b366004611c50565b610b8b565b61017061033e366004611fec565b6001600160a01b039182166000908152609c6020908152604080832093909416825291909152205460ff1690565b6101e061037a366004611f19565b610b96565b600061038a82610c2f565b92915050565b610192805461039e9061201f565b80601f01602080910402602001604051908101604052809291908181526020018280546103ca9061201f565b80156104175780601f106103ec57610100808354040283529160200191610417565b820191906000526020600020905b8154815290600101906020018083116103fa57829003601f168201915b505050505081565b60606097805461042e9061201f565b80601f016020809104026020016040519081016040528092919081815260200182805461045a9061201f565b80156104a75780601f1061047c576101008083540402835291602001916104a7565b820191906000526020600020905b81548152906001019060200180831161048a57829003601f168201915b5050505050905090565b60006104bc82610c3a565b6105225760405162461bcd60e51b815260206004820152602c60248201527f4552433732313a20617070726f76656420717565727920666f72206e6f6e657860448201526b34b9ba32b73a103a37b5b2b760a11b60648201526084015b60405180910390fd5b506000908152609b60205260409020546001600160a01b031690565b600061054982610993565b9050806001600160a01b0316836001600160a01b0316036105b65760405162461bcd60e51b815260206004820152602160248201527f4552433732313a20617070726f76616c20746f2063757272656e74206f776e656044820152603960f91b6064820152608401610519565b336001600160a01b03821614806105d257506105d2813361033e565b6106445760405162461bcd60e51b815260206004820152603860248201527f4552433732313a20617070726f76652063616c6c6572206973206e6f74206f7760448201527f6e6572206e6f7220617070726f76656420666f7220616c6c00000000000000006064820152608401610519565b61064e8383610c57565b505050565b600061065f6001610cc5565b90508015610677576000805461ff0019166101001790555b855161068b90610192906020890190611ae3565b506106968585610d52565b61069e610d83565b6106a6610d83565b6106ae610daa565b6001600160601b038316156106ed576001600160a01b0382166106e35760405162461bcd60e51b815260040161051990612059565b6106ed8284610dd9565b8015610733576000805461ff0019169055604051600181527f7f26b83ff96e1f2b6a682f133852f6798a09c465da95921460cefb38474024989060200160405180910390a15b505050505050565b610746335b82610ed6565b6107625760405162461bcd60e51b81526004016105199061209a565b61064e838383610fc0565b60008281526066602090815260408083208151808301909252546001600160a01b038116808352600160a01b9091046001600160601b03169282019290925282916107e25750604080518082019091526065546001600160a01b0381168252600160a01b90046001600160601b031660208201525b602081015160009061271090610801906001600160601b031687612101565b61080b9190612136565b915196919550909350505050565b61064e83838360405180602001604052806000815250610b53565b61083d33610740565b6108a25760405162461bcd60e51b815260206004820152603060248201527f4552433732314275726e61626c653a2063616c6c6572206973206e6f74206f7760448201526f1b995c881b9bdc88185c1c1c9bdd995960821b6064820152608401610519565b6108ab8161115c565b50565b61015f546001600160a01b031633146108d95760405162461bcd60e51b81526004016105199061214a565b60006108e56101915490565b90506108f661019180546001019055565b6109008582611165565b61090a818561117f565b6001600160601b03831615610949576001600160a01b03821661093f5760405162461bcd60e51b815260040161051990612059565b6109498284610dd9565b5050505050565b61015f546001600160a01b0316331461097b5760405162461bcd60e51b81526004016105199061214a565b805161098f90610192906020840190611ae3565b5050565b6000818152609960205260408120546001600160a01b03168061038a5760405162461bcd60e51b815260206004820152602960248201527f4552433732313a206f776e657220717565727920666f72206e6f6e657869737460448201526832b73a103a37b5b2b760b91b6064820152608401610519565b60006001600160a01b038216610a755760405162461bcd60e51b815260206004820152602a60248201527f4552433732313a2062616c616e636520717565727920666f7220746865207a65604482015269726f206164647265737360b01b6064820152608401610519565b506001600160a01b03166000908152609a602052604090205490565b61015f546001600160a01b03163314610abc5760405162461bcd60e51b81526004016105199061214a565b610ac6600061120a565b565b61015f546001600160a01b03163314610af35760405162461bcd60e51b81526004016105199061214a565b600090815260666020526040812055565b60606098805461042e9061201f565b61098f33838361125d565b61015f546001600160a01b03163314610b495760405162461bcd60e51b81526004016105199061214a565b610ac66000606555565b610b5d3383610ed6565b610b795760405162461bcd60e51b81526004016105199061209a565b610b858484848461132b565b50505050565b606061038a8261135e565b61015f546001600160a01b03163314610bc15760405162461bcd60e51b81526004016105199061214a565b6001600160a01b038116610c265760405162461bcd60e51b815260206004820152602660248201527f4f776e61626c653a206e6577206f776e657220697320746865207a65726f206160448201526564647265737360d01b6064820152608401610519565b6108ab8161120a565b600061038a826114cc565b6000908152609960205260409020546001600160a01b0316151590565b6000818152609b6020526040902080546001600160a01b0319166001600160a01b0384169081179091558190610c8c82610993565b6001600160a01b03167f8c5be1e5ebec7d5bd14f71427d1e84f3dd0314c0f7b2291e5b200ac8c7c3b92560405160405180910390a45050565b60008054610100900460ff1615610d0c578160ff166001148015610ce85750303b155b610d045760405162461bcd60e51b81526004016105199061217f565b506000919050565b60005460ff808416911610610d335760405162461bcd60e51b81526004016105199061217f565b506000805460ff191660ff92909216919091179055600190565b919050565b600054610100900460ff16610d795760405162461bcd60e51b8152600401610519906121cd565b61098f828261150c565b600054610100900460ff16610ac65760405162461bcd60e51b8152600401610519906121cd565b600054610100900460ff16610dd15760405162461bcd60e51b8152600401610519906121cd565b610ac661155a565b6127106001600160601b0382161115610e475760405162461bcd60e51b815260206004820152602a60248201527f455243323938313a20726f79616c7479206665652077696c6c206578636565646044820152692073616c65507269636560b01b6064820152608401610519565b6001600160a01b038216610e9d5760405162461bcd60e51b815260206004820152601960248201527f455243323938313a20696e76616c6964207265636569766572000000000000006044820152606401610519565b604080518082019091526001600160a01b039092168083526001600160601b039091166020909201829052600160a01b90910217606555565b6000610ee182610c3a565b610f425760405162461bcd60e51b815260206004820152602c60248201527f4552433732313a206f70657261746f7220717565727920666f72206e6f6e657860448201526b34b9ba32b73a103a37b5b2b760a11b6064820152608401610519565b6000610f4d83610993565b9050806001600160a01b0316846001600160a01b03161480610f9457506001600160a01b038082166000908152609c602090815260408083209388168352929052205460ff165b80610fb85750836001600160a01b0316610fad846104b1565b6001600160a01b0316145b949350505050565b826001600160a01b0316610fd382610993565b6001600160a01b0316146110375760405162461bcd60e51b815260206004820152602560248201527f4552433732313a207472616e736665722066726f6d20696e636f72726563742060448201526437bbb732b960d91b6064820152608401610519565b6001600160a01b0382166110995760405162461bcd60e51b8152602060048201526024808201527f4552433732313a207472616e7366657220746f20746865207a65726f206164646044820152637265737360e01b6064820152608401610519565b6110a4600082610c57565b6001600160a01b0383166000908152609a602052604081208054600192906110cd908490612218565b90915550506001600160a01b0382166000908152609a602052604081208054600192906110fb90849061222f565b909155505060008181526099602052604080822080546001600160a01b0319166001600160a01b0386811691821790925591518493918716917fddf252ad1be2c89b69c2b068fc378daa952ba7f163c4a11628f55a4df523b3ef91a4505050565b6108ab8161158a565b61098f828260405180602001604052806000815250611593565b61118882610c3a565b6111eb5760405162461bcd60e51b815260206004820152602e60248201527f45524337323155524953746f726167653a2055524920736574206f66206e6f6e60448201526d32bc34b9ba32b73a103a37b5b2b760911b6064820152608401610519565b600082815260c960209081526040909120825161064e92840190611ae3565b61015f80546001600160a01b038381166001600160a01b0319831681179093556040519116919082907f8be0079c531659141344cd1fd0a4f28419497f9722a3daafe3b4186f6b6457e090600090a35050565b816001600160a01b0316836001600160a01b0316036112be5760405162461bcd60e51b815260206004820152601960248201527f4552433732313a20617070726f766520746f2063616c6c6572000000000000006044820152606401610519565b6001600160a01b038381166000818152609c6020908152604080832094871680845294825291829020805460ff191686151590811790915591519182527f17307eab39ab6107e8899845ad3d59bd9653f200f220920489ca2b5937696c31910160405180910390a3505050565b611336848484610fc0565b611342848484846115c6565b610b855760405162461bcd60e51b815260040161051990612247565b606061136982610c3a565b6113cf5760405162461bcd60e51b815260206004820152603160248201527f45524337323155524953746f726167653a2055524920717565727920666f72206044820152703737b732bc34b9ba32b73a103a37b5b2b760791b6064820152608401610519565b600082815260c96020526040812080546113e89061201f565b80601f01602080910402602001604051908101604052809291908181526020018280546114149061201f565b80156114615780601f1061143657610100808354040283529160200191611461565b820191906000526020600020905b81548152906001019060200180831161144457829003601f168201915b50505050509050600061147f60408051602081019091526000815290565b90508051600003611491575092915050565b8151156114c35780826040516020016114ab929190612299565b60405160208183030381529060405292505050919050565b610fb8846116c7565b60006001600160e01b031982166380ac58cd60e01b14806114fd57506001600160e01b03198216635b5e139f60e01b145b8061038a575061038a8261179f565b600054610100900460ff166115335760405162461bcd60e51b8152600401610519906121cd565b8151611546906097906020850190611ae3565b50805161064e906098906020840190611ae3565b600054610100900460ff166115815760405162461bcd60e51b8152600401610519906121cd565b610ac63361120a565b610af3816117d4565b61159d8383611814565b6115aa60008484846115c6565b61064e5760405162461bcd60e51b815260040161051990612247565b60006001600160a01b0384163b156116bc57604051630a85bd0160e11b81526001600160a01b0385169063150b7a029061160a9033908990889088906004016122c8565b6020604051808303816000875af1925050508015611645575060408051601f3d908101601f1916820190925261164291810190612305565b60015b6116a2573d808015611673576040519150601f19603f3d011682016040523d82523d6000602084013e611678565b606091505b50805160000361169a5760405162461bcd60e51b815260040161051990612247565b805181602001fd5b6001600160e01b031916630a85bd0160e11b149050610fb8565b506001949350505050565b60606116d282610c3a565b6117365760405162461bcd60e51b815260206004820152602f60248201527f4552433732314d657461646174613a2055524920717565727920666f72206e6f60448201526e3732bc34b9ba32b73a103a37b5b2b760891b6064820152608401610519565b600061174d60408051602081019091526000815290565b9050600081511161176d5760405180602001604052806000815250611798565b8061177784611947565b604051602001611788929190612299565b6040516020818303038152906040525b9392505050565b60006001600160e01b0319821663152a902d60e11b148061038a57506301ffc9a760e01b6001600160e01b031983161461038a565b6117dd81611a48565b600081815260c96020526040902080546117f69061201f565b1590506108ab57600081815260c9602052604081206108ab91611b67565b6001600160a01b03821661186a5760405162461bcd60e51b815260206004820181905260248201527f4552433732313a206d696e7420746f20746865207a65726f20616464726573736044820152606401610519565b61187381610c3a565b156118c05760405162461bcd60e51b815260206004820152601c60248201527f4552433732313a20746f6b656e20616c7265616479206d696e746564000000006044820152606401610519565b6001600160a01b0382166000908152609a602052604081208054600192906118e990849061222f565b909155505060008181526099602052604080822080546001600160a01b0319166001600160a01b03861690811790915590518392907fddf252ad1be2c89b69c2b068fc378daa952ba7f163c4a11628f55a4df523b3ef908290a45050565b60608160000361196e5750506040805180820190915260018152600360fc1b602082015290565b8160005b8115611998578061198281612322565b91506119919050600a83612136565b9150611972565b60008167ffffffffffffffff8111156119b3576119b3611caa565b6040519080825280601f01601f1916602001820160405280156119dd576020820181803683370190505b5090505b8415610fb8576119f2600183612218565b91506119ff600a8661233b565b611a0a90603061222f565b60f81b818381518110611a1f57611a1f61234f565b60200101906001600160f81b031916908160001a905350611a41600a86612136565b94506119e1565b6000611a5382610993565b9050611a60600083610c57565b6001600160a01b0381166000908152609a60205260408120805460019290611a89908490612218565b909155505060008281526099602052604080822080546001600160a01b0319169055518391906001600160a01b038416907fddf252ad1be2c89b69c2b068fc378daa952ba7f163c4a11628f55a4df523b3ef908390a45050565b828054611aef9061201f565b90600052602060002090601f016020900481019282611b115760008555611b57565b82601f10611b2a57805160ff1916838001178555611b57565b82800160010185558215611b57579182015b82811115611b57578251825591602001919060010190611b3c565b50611b63929150611b9d565b5090565b508054611b739061201f565b6000825580601f10611b83575050565b601f0160209004906000526020600020908101906108ab91905b5b80821115611b635760008155600101611b9e565b6001600160e01b0319811681146108ab57600080fd5b600060208284031215611bda57600080fd5b813561179881611bb2565b60005b83811015611c00578181015183820152602001611be8565b83811115610b855750506000910152565b60008151808452611c29816020860160208601611be5565b601f01601f19169290920160200192915050565b6020815260006117986020830184611c11565b600060208284031215611c6257600080fd5b5035919050565b80356001600160a01b0381168114610d4d57600080fd5b60008060408385031215611c9357600080fd5b611c9c83611c69565b946020939093013593505050565b634e487b7160e01b600052604160045260246000fd5b600067ffffffffffffffff80841115611cdb57611cdb611caa565b604051601f8501601f19908116603f01168101908282118183101715611d0357611d03611caa565b81604052809350858152868686011115611d1c57600080fd5b858560208301376000602087830101525050509392505050565b600082601f830112611d4757600080fd5b61179883833560208501611cc0565b80356001600160601b0381168114610d4d57600080fd5b600080600080600060a08688031215611d8557600080fd5b853567ffffffffffffffff80821115611d9d57600080fd5b611da989838a01611d36565b96506020880135915080821115611dbf57600080fd5b611dcb89838a01611d36565b95506040880135915080821115611de157600080fd5b50611dee88828901611d36565b935050611dfd60608701611d56565b9150611e0b60808701611c69565b90509295509295909350565b600080600060608486031215611e2c57600080fd5b611e3584611c69565b9250611e4360208501611c69565b9150604084013590509250925092565b60008060408385031215611e6657600080fd5b50508035926020909101359150565b60008060008060808587031215611e8b57600080fd5b611e9485611c69565b9350602085013567ffffffffffffffff811115611eb057600080fd5b611ebc87828801611d36565b935050611ecb60408601611d56565b9150611ed960608601611c69565b905092959194509250565b600060208284031215611ef657600080fd5b813567ffffffffffffffff811115611f0d57600080fd5b610fb884828501611d36565b600060208284031215611f2b57600080fd5b61179882611c69565b60008060408385031215611f4757600080fd5b611f5083611c69565b915060208301358015158114611f6557600080fd5b809150509250929050565b60008060008060808587031215611f8657600080fd5b611f8f85611c69565b9350611f9d60208601611c69565b925060408501359150606085013567ffffffffffffffff811115611fc057600080fd5b8501601f81018713611fd157600080fd5b611fe087823560208401611cc0565b91505092959194509250565b60008060408385031215611fff57600080fd5b61200883611c69565b915061201660208401611c69565b90509250929050565b600181811c9082168061203357607f821691505b60208210810361205357634e487b7160e01b600052602260045260246000fd5b50919050565b60208082526021908201527f47616c6c6572793a20496e76616c696420526f79616c747920726563656976656040820152603960f91b606082015260800190565b60208082526031908201527f4552433732313a207472616e736665722063616c6c6572206973206e6f74206f6040820152701ddb995c881b9bdc88185c1c1c9bdd9959607a1b606082015260800190565b634e487b7160e01b600052601160045260246000fd5b600081600019048311821515161561211b5761211b6120eb565b500290565b634e487b7160e01b600052601260045260246000fd5b60008261214557612145612120565b500490565b6020808252818101527f4f776e61626c653a2063616c6c6572206973206e6f7420746865206f776e6572604082015260600190565b6020808252602e908201527f496e697469616c697a61626c653a20636f6e747261637420697320616c72656160408201526d191e481a5b9a5d1a585b1a5e995960921b606082015260800190565b6020808252602b908201527f496e697469616c697a61626c653a20636f6e7472616374206973206e6f74206960408201526a6e697469616c697a696e6760a81b606082015260800190565b60008282101561222a5761222a6120eb565b500390565b60008219821115612242576122426120eb565b500190565b60208082526032908201527f4552433732313a207472616e7366657220746f206e6f6e20455243373231526560408201527131b2b4bb32b91034b6b83632b6b2b73a32b960711b606082015260800190565b600083516122ab818460208801611be5565b8351908301906122bf818360208801611be5565b01949350505050565b6001600160a01b03858116825284166020820152604081018390526080606082018190526000906122fb90830184611c11565b9695505050505050565b60006020828403121561231757600080fd5b815161179881611bb2565b600060018201612334576123346120eb565b5060010190565b60008261234a5761234a612120565b500690565b634e487b7160e01b600052603260045260246000fdfea264697066735822122092e94016387a8106a7b035e5a308de65172842487651707a16e64c886625d80664736f6c634300080d0033",
  "linkReferences": {},
  "deployedLinkReferences": {}
}