{
  "_format": "hh-sol-artifact-1",
  "contractName": "DonationGov",
  "sourceName": "contracts/comunityERC20/DonationGov.sol",
  "abi": [
    {
      "inputs": [],
      "stateMutability": "nonpayable",
      "type": "constructor"
    },
    {
      "anonymous": false,
      "inputs": [
        {
          "indexed": true,
          "internalType": "address",
          "name": "owner",
          "type": "address"
        },
        {
          "indexed": true,
          "internalType": "address",
          "name": "spender",
          "type": "address"
        },
        {
          "indexed": false,
          "internalType": "uint256",
          "name": "value",
          "type": "uint256"
        }
      ],
      "name": "Approval",
      "type": "event"
    },
    {
      "anonymous": false,
      "inputs": [
        {
          "indexed": true,
          "internalType": "address",
          "name": "delegator",
          "type": "address"
        },
        {
          "indexed": true,
          "internalType": "address",
          "name": "fromDelegate",
          "type": "address"
        },
        {
          "indexed": true,
          "internalType": "address",
          "name": "toDelegate",
          "type": "address"
        }
      ],
      "name": "DelegateChanged",
      "type": "event"
    },
    {
      "anonymous": false,
      "inputs": [
        {
          "indexed": true,
          "internalType": "address",
          "name": "delegate",
          "type": "address"
        },
        {
          "indexed": false,
          "internalType": "uint256",
          "name": "previousBalance",
          "type": "uint256"
        },
        {
          "indexed": false,
          "internalType": "uint256",
          "name": "newBalance",
          "type": "uint256"
        }
      ],
      "name": "DelegateVotesChanged",
      "type": "event"
    },
    {
      "anonymous": false,
      "inputs": [
        {
          "indexed": true,
          "internalType": "address",
          "name": "previousOwner",
          "type": "address"
        },
        {
          "indexed": true,
          "internalType": "address",
          "name": "newOwner",
          "type": "address"
        }
      ],
      "name": "OwnershipTransferred",
      "type": "event"
    },
    {
      "anonymous": false,
      "inputs": [
        {
          "indexed": false,
          "internalType": "uint256",
          "name": "id",
          "type": "uint256"
        }
      ],
      "name": "Snapshot",
      "type": "event"
    },
    {
      "anonymous": false,
      "inputs": [
        {
          "indexed": true,
          "internalType": "address",
          "name": "from",
          "type": "address"
        },
        {
          "indexed": true,
          "internalType": "address",
          "name": "to",
          "type": "address"
        },
        {
          "indexed": false,
          "internalType": "uint256",
          "name": "value",
          "type": "uint256"
        }
      ],
      "name": "Transfer",
      "type": "event"
    },
    {
      "inputs": [],
      "name": "DOMAIN_SEPARATOR",
      "outputs": [
        {
          "internalType": "bytes32",
          "name": "",
          "type": "bytes32"
        }
      ],
      "stateMutability": "view",
      "type": "function"
    },
    {
      "inputs": [
        {
          "internalType": "address",
          "name": "owner",
          "type": "address"
        },
        {
          "internalType": "address",
          "name": "spender",
          "type": "address"
        }
      ],
      "name": "allowance",
      "outputs": [
        {
          "internalType": "uint256",
          "name": "",
          "type": "uint256"
        }
      ],
      "stateMutability": "view",
      "type": "function"
    },
    {
      "inputs": [
        {
          "internalType": "address",
          "name": "spender",
          "type": "address"
        },
        {
          "internalType": "uint256",
          "name": "amount",
          "type": "uint256"
        }
      ],
      "name": "approve",
      "outputs": [
        {
          "internalType": "bool",
          "name": "",
          "type": "bool"
        }
      ],
      "stateMutability": "nonpayable",
      "type": "function"
    },
    {
      "inputs": [
        {
          "internalType": "address",
          "name": "account",
          "type": "address"
        }
      ],
      "name": "balanceOf",
      "outputs": [
        {
          "internalType": "uint256",
          "name": "",
          "type": "uint256"
        }
      ],
      "stateMutability": "view",
      "type": "function"
    },
    {
      "inputs": [
        {
          "internalType": "address",
          "name": "account",
          "type": "address"
        },
        {
          "internalType": "uint256",
          "name": "snapshotId",
          "type": "uint256"
        }
      ],
      "name": "balanceOfAt",
      "outputs": [
        {
          "internalType": "uint256",
          "name": "",
          "type": "uint256"
        }
      ],
      "stateMutability": "view",
      "type": "function"
    },
    {
      "inputs": [
        {
          "internalType": "uint256",
          "name": "amount",
          "type": "uint256"
        }
      ],
      "name": "burn",
      "outputs": [],
      "stateMutability": "nonpayable",
      "type": "function"
    },
    {
      "inputs": [
        {
          "internalType": "address",
          "name": "account",
          "type": "address"
        },
        {
          "internalType": "uint256",
          "name": "amount",
          "type": "uint256"
        }
      ],
      "name": "burnFrom",
      "outputs": [],
      "stateMutability": "nonpayable",
      "type": "function"
    },
    {
      "inputs": [
        {
          "internalType": "address",
          "name": "account",
          "type": "address"
        },
        {
          "internalType": "uint32",
          "name": "pos",
          "type": "uint32"
        }
      ],
      "name": "checkpoints",
      "outputs": [
        {
          "components": [
            {
              "internalType": "uint32",
              "name": "fromBlock",
              "type": "uint32"
            },
            {
              "internalType": "uint224",
              "name": "votes",
              "type": "uint224"
            }
          ],
          "internalType": "struct ERC20Votes.Checkpoint",
          "name": "",
          "type": "tuple"
        }
      ],
      "stateMutability": "view",
      "type": "function"
    },
    {
      "inputs": [],
      "name": "decimals",
      "outputs": [
        {
          "internalType": "uint8",
          "name": "",
          "type": "uint8"
        }
      ],
      "stateMutability": "view",
      "type": "function"
    },
    {
      "inputs": [
        {
          "internalType": "address",
          "name": "spender",
          "type": "address"
        },
        {
          "internalType": "uint256",
          "name": "subtractedValue",
          "type": "uint256"
        }
      ],
      "name": "decreaseAllowance",
      "outputs": [
        {
          "internalType": "bool",
          "name": "",
          "type": "bool"
        }
      ],
      "stateMutability": "nonpayable",
      "type": "function"
    },
    {
      "inputs": [
        {
          "internalType": "address",
          "name": "delegatee",
          "type": "address"
        }
      ],
      "name": "delegate",
      "outputs": [],
      "stateMutability": "nonpayable",
      "type": "function"
    },
    {
      "inputs": [
        {
          "internalType": "address",
          "name": "delegatee",
          "type": "address"
        },
        {
          "internalType": "uint256",
          "name": "nonce",
          "type": "uint256"
        },
        {
          "internalType": "uint256",
          "name": "expiry",
          "type": "uint256"
        },
        {
          "internalType": "uint8",
          "name": "v",
          "type": "uint8"
        },
        {
          "internalType": "bytes32",
          "name": "r",
          "type": "bytes32"
        },
        {
          "internalType": "bytes32",
          "name": "s",
          "type": "bytes32"
        }
      ],
      "name": "delegateBySig",
      "outputs": [],
      "stateMutability": "nonpayable",
      "type": "function"
    },
    {
      "inputs": [
        {
          "internalType": "address",
          "name": "account",
          "type": "address"
        }
      ],
      "name": "delegates",
      "outputs": [
        {
          "internalType": "address",
          "name": "",
          "type": "address"
        }
      ],
      "stateMutability": "view",
      "type": "function"
    },
    {
      "inputs": [
        {
          "internalType": "uint256",
          "name": "blockNumber",
          "type": "uint256"
        }
      ],
      "name": "getPastTotalSupply",
      "outputs": [
        {
          "internalType": "uint256",
          "name": "",
          "type": "uint256"
        }
      ],
      "stateMutability": "view",
      "type": "function"
    },
    {
      "inputs": [
        {
          "internalType": "address",
          "name": "account",
          "type": "address"
        },
        {
          "internalType": "uint256",
          "name": "blockNumber",
          "type": "uint256"
        }
      ],
      "name": "getPastVotes",
      "outputs": [
        {
          "internalType": "uint256",
          "name": "",
          "type": "uint256"
        }
      ],
      "stateMutability": "view",
      "type": "function"
    },
    {
      "inputs": [
        {
          "internalType": "address",
          "name": "account",
          "type": "address"
        }
      ],
      "name": "getVotes",
      "outputs": [
        {
          "internalType": "uint256",
          "name": "",
          "type": "uint256"
        }
      ],
      "stateMutability": "view",
      "type": "function"
    },
    {
      "inputs": [
        {
          "internalType": "address",
          "name": "spender",
          "type": "address"
        },
        {
          "internalType": "uint256",
          "name": "addedValue",
          "type": "uint256"
        }
      ],
      "name": "increaseAllowance",
      "outputs": [
        {
          "internalType": "bool",
          "name": "",
          "type": "bool"
        }
      ],
      "stateMutability": "nonpayable",
      "type": "function"
    },
    {
      "inputs": [
        {
          "internalType": "address",
          "name": "to",
          "type": "address"
        },
        {
          "internalType": "uint256",
          "name": "amount",
          "type": "uint256"
        }
      ],
      "name": "mint",
      "outputs": [],
      "stateMutability": "nonpayable",
      "type": "function"
    },
    {
      "inputs": [],
      "name": "name",
      "outputs": [
        {
          "internalType": "string",
          "name": "",
          "type": "string"
        }
      ],
      "stateMutability": "view",
      "type": "function"
    },
    {
      "inputs": [
        {
          "internalType": "address",
          "name": "owner",
          "type": "address"
        }
      ],
      "name": "nonces",
      "outputs": [
        {
          "internalType": "uint256",
          "name": "",
          "type": "uint256"
        }
      ],
      "stateMutability": "view",
      "type": "function"
    },
    {
      "inputs": [
        {
          "internalType": "address",
          "name": "account",
          "type": "address"
        }
      ],
      "name": "numCheckpoints",
      "outputs": [
        {
          "internalType": "uint32",
          "name": "",
          "type": "uint32"
        }
      ],
      "stateMutability": "view",
      "type": "function"
    },
    {
      "inputs": [],
      "name": "owner",
      "outputs": [
        {
          "internalType": "address",
          "name": "",
          "type": "address"
        }
      ],
      "stateMutability": "view",
      "type": "function"
    },
    {
      "inputs": [
        {
          "internalType": "address",
          "name": "owner",
          "type": "address"
        },
        {
          "internalType": "address",
          "name": "spender",
          "type": "address"
        },
        {
          "internalType": "uint256",
          "name": "value",
          "type": "uint256"
        },
        {
          "internalType": "uint256",
          "name": "deadline",
          "type": "uint256"
        },
        {
          "internalType": "uint8",
          "name": "v",
          "type": "uint8"
        },
        {
          "internalType": "bytes32",
          "name": "r",
          "type": "bytes32"
        },
        {
          "internalType": "bytes32",
          "name": "s",
          "type": "bytes32"
        }
      ],
      "name": "permit",
      "outputs": [],
      "stateMutability": "nonpayable",
      "type": "function"
    },
    {
      "inputs": [],
      "name": "renounceOwnership",
      "outputs": [],
      "stateMutability": "nonpayable",
      "type": "function"
    },
    {
      "inputs": [],
      "name": "snapshot",
      "outputs": [],
      "stateMutability": "nonpayable",
      "type": "function"
    },
    {
      "inputs": [],
      "name": "symbol",
      "outputs": [
        {
          "internalType": "string",
          "name": "",
          "type": "string"
        }
      ],
      "stateMutability": "view",
      "type": "function"
    },
    {
      "inputs": [],
      "name": "totalSupply",
      "outputs": [
        {
          "internalType": "uint256",
          "name": "",
          "type": "uint256"
        }
      ],
      "stateMutability": "view",
      "type": "function"
    },
    {
      "inputs": [
        {
          "internalType": "uint256",
          "name": "snapshotId",
          "type": "uint256"
        }
      ],
      "name": "totalSupplyAt",
      "outputs": [
        {
          "internalType": "uint256",
          "name": "",
          "type": "uint256"
        }
      ],
      "stateMutability": "view",
      "type": "function"
    },
    {
      "inputs": [
        {
          "internalType": "address",
          "name": "to",
          "type": "address"
        },
        {
          "internalType": "uint256",
          "name": "amount",
          "type": "uint256"
        }
      ],
      "name": "transfer",
      "outputs": [
        {
          "internalType": "bool",
          "name": "",
          "type": "bool"
        }
      ],
      "stateMutability": "nonpayable",
      "type": "function"
    },
    {
      "inputs": [
        {
          "internalType": "address",
          "name": "from",
          "type": "address"
        },
        {
          "internalType": "address",
          "name": "to",
          "type": "address"
        },
        {
          "internalType": "uint256",
          "name": "amount",
          "type": "uint256"
        }
      ],
      "name": "transferFrom",
      "outputs": [
        {
          "internalType": "bool",
          "name": "",
          "type": "bool"
        }
      ],
      "stateMutability": "nonpayable",
      "type": "function"
    },
    {
      "inputs": [
        {
          "internalType": "address",
          "name": "newOwner",
          "type": "address"
        }
      ],
      "name": "transferOwnership",
      "outputs": [],
      "stateMutability": "nonpayable",
      "type": "function"
    }
  ],
  "bytecode": "0x6101606040527f6e71edae12b1b97f4d1f60370fef10105fa2faae0126114a169c64845d6126c9610140523480156200003757600080fd5b506040518060400160405280600b81526020016a2237b730ba34b7b723b7bb60a91b81525080604051806040016040528060018152602001603160f81b8152506040518060400160405280600b81526020016a2237b730ba34b7b723b7bb60a91b81525060405180604001604052806002815260200161444760f01b8152508160039080519060200190620000ce929190620001ed565b508051620000e4906004906020840190620001ed565b50505062000101620000fb6200019760201b60201c565b6200019b565b815160209283012081519183019190912060e08290526101008190524660a0818152604080517f8b73c3c69bb8fe3d512ecc4cf759cc79239f7b179b0ffacaa9a75d522b39400f818801819052818301969096526060810194909452608080850193909352308483018190528151808603909301835260c0948501909152815191909501209052919091526101205250620002cf565b3390565b600980546001600160a01b038381166001600160a01b0319831681179093556040519116919082907f8be0079c531659141344cd1fd0a4f28419497f9722a3daafe3b4186f6b6457e090600090a35050565b828054620001fb9062000293565b90600052602060002090601f0160209004810192826200021f57600085556200026a565b82601f106200023a57805160ff19168380011785556200026a565b828001600101855582156200026a579182015b828111156200026a5782518255916020019190600101906200024d565b50620002789291506200027c565b5090565b5b808211156200027857600081556001016200027d565b600181811c90821680620002a857607f821691505b602082108103620002c957634e487b7160e01b600052602260045260246000fd5b50919050565b60805160a05160c05160e0516101005161012051610140516125c86200032a6000396000610c200152600061126b015260006112ba01526000611295015260006111ee015260006112180152600061124201526125c86000f3fe608060405234801561001057600080fd5b50600436106101e55760003560e01c8063715018a61161010f5780639ab24eb0116100a2578063d505accf11610071578063d505accf1461041f578063dd62ed3e14610432578063f1127ed81461046b578063f2fde38b146104a857600080fd5b80639ab24eb0146103d3578063a457c2d7146103e6578063a9059cbb146103f9578063c3cda5201461040c57600080fd5b80638e539e8c116100de5780638e539e8c1461039d57806395d89b41146103b05780639711715a146103b8578063981b24d0146103c057600080fd5b8063715018a61461035e57806379cc6790146103665780637ecebe00146103795780638da5cb5b1461038c57600080fd5b80633a46b1a811610187578063587cde1e11610156578063587cde1e146102cc5780635c19a95c146103105780636fcfff451461032357806370a082311461034b57600080fd5b80633a46b1a81461027e57806340c10f191461029157806342966c68146102a65780634ee2cd7e146102b957600080fd5b806323b872dd116101c357806323b872dd14610241578063313ce567146102545780633644e51514610263578063395093511461026b57600080fd5b806306fdde03146101ea578063095ea7b31461020857806318160ddd1461022b575b600080fd5b6101f26104bb565b6040516101ff9190612231565b60405180910390f35b61021b61021636600461229d565b61054d565b60405190151581526020016101ff565b610233610567565b6040519081526020016101ff565b61021b61024f3660046122c7565b6105f1565b604051601281526020016101ff565b610233610615565b61021b61027936600461229d565b61061f565b61023361028c36600461229d565b61065e565b6102a461029f36600461229d565b6106dd565b005b6102a46102b4366004612303565b610715565b6102336102c736600461229d565b610722565b6102f86102da36600461231c565b6001600160a01b039081166000908152600b60205260409020541690565b6040516001600160a01b0390911681526020016101ff565b6102a461031e36600461231c565b61076b565b61033661033136600461231c565b610775565b60405163ffffffff90911681526020016101ff565b61023361035936600461231c565b610797565b6102a4610839565b6102a461037436600461229d565b61086f565b61023361038736600461231c565b610884565b6009546001600160a01b03166102f8565b6102336103ab366004612303565b6108a2565b6101f26108fe565b6102a461090d565b6102336103ce366004612303565b61093f565b6102336103e136600461231c565b61096f565b61021b6103f436600461229d565b6109f6565b61021b61040736600461229d565b610a88565b6102a461041a366004612348565b610a96565b6102a461042d3660046123a0565b610bcc565b61023361044036600461240a565b6001600160a01b03918216600090815260016020908152604080832093909416825291909152205490565b61047e61047936600461243d565b610d30565b60408051825163ffffffff1681526020928301516001600160e01b031692810192909252016101ff565b6102a46104b636600461231c565b610db4565b6060600380546104ca9061247d565b80601f01602080910402602001604051908101604052809291908181526020018280546104f69061247d565b80156105435780601f1061051857610100808354040283529160200191610543565b820191906000526020600020905b81548152906001019060200180831161052657829003601f168201915b5050505050905090565b60003361055b818585610e4c565b60019150505b92915050565b6000739f5c41da4dbdd0c59f663053ac79364d02a5381d6001600160a01b031663db3ad22c6040518163ffffffff1660e01b8152600401602060405180830381865afa1580156105bb573d6000803e3d6000fd5b505050506040513d601f19601f820116820180604052508101906105df91906124b1565b6002546105ec91906124e0565b905090565b6000336105ff858285610f70565b61060a858585611002565b506001949350505050565b60006105ec6111e1565b3360008181526001602090815260408083206001600160a01b038716845290915281205490919061055b90829086906106599087906124e0565b610e4c565b60004382106106b45760405162461bcd60e51b815260206004820152601f60248201527f4552433230566f7465733a20626c6f636b206e6f7420796574206d696e65640060448201526064015b60405180910390fd5b6001600160a01b0383166000908152600c602052604090206106d69083611308565b9392505050565b6009546001600160a01b031633146107075760405162461bcd60e51b81526004016106ab906124f8565b61071182826113c5565b5050565b61071f33826113cf565b50565b6001600160a01b0382166000908152600560205260408120819081906107499085906113d9565b91509150816107605761075b85610797565b610762565b805b95945050505050565b61071f33826114cf565b6001600160a01b0381166000908152600c60205260408120546105619061155e565b6040516326b71a2960e11b81526001600160a01b0382166004820152600090739f5c41da4dbdd0c59f663053ac79364d02a5381d90634d6e345290602401602060405180830381865afa1580156107f2573d6000803e3d6000fd5b505050506040513d601f19601f8201168201806040525081019061081691906124b1565b6001600160a01b03831660009081526020819052604090205461056191906124e0565b6009546001600160a01b031633146108635760405162461bcd60e51b81526004016106ab906124f8565b61086d60006115c7565b565b61087a823383610f70565b61071182826113cf565b6001600160a01b0381166000908152600a6020526040812054610561565b60004382106108f35760405162461bcd60e51b815260206004820152601f60248201527f4552433230566f7465733a20626c6f636b206e6f7420796574206d696e65640060448201526064016106ab565b610561600d83611308565b6060600480546104ca9061247d565b6009546001600160a01b031633146109375760405162461bcd60e51b81526004016106ab906124f8565b61071f611619565b600080600061094f8460066113d9565b915091508161096557610960610567565b610967565b805b949350505050565b6001600160a01b0381166000908152600c602052604081205480156109e3576001600160a01b0383166000908152600c602052604090206109b160018361252d565b815481106109c1576109c1612544565b60009182526020909120015464010000000090046001600160e01b03166109e6565b60005b6001600160e01b03169392505050565b3360008181526001602090815260408083206001600160a01b038716845290915281205490919083811015610a7b5760405162461bcd60e51b815260206004820152602560248201527f45524332303a2064656372656173656420616c6c6f77616e63652062656c6f77604482015264207a65726f60d81b60648201526084016106ab565b61060a8286868403610e4c565b60003361055b818585611002565b83421115610ae65760405162461bcd60e51b815260206004820152601d60248201527f4552433230566f7465733a207369676e6174757265206578706972656400000060448201526064016106ab565b604080517fe48329057bfd03d55e49b547132e39cffd9c1820ad7b9d4c5307691425d15adf60208201526001600160a01b038816918101919091526060810186905260808101859052600090610b6090610b589060a00160405160208183030381529060405280519060200120611673565b8585856116c1565b9050610b6b816116e9565b8614610bb95760405162461bcd60e51b815260206004820152601960248201527f4552433230566f7465733a20696e76616c6964206e6f6e63650000000000000060448201526064016106ab565b610bc381886114cf565b50505050505050565b83421115610c1c5760405162461bcd60e51b815260206004820152601d60248201527f45524332305065726d69743a206578706972656420646561646c696e6500000060448201526064016106ab565b60007f0000000000000000000000000000000000000000000000000000000000000000888888610c4b8c6116e9565b6040805160208101969096526001600160a01b0394851690860152929091166060840152608083015260a082015260c0810186905260e0016040516020818303038152906040528051906020012090506000610ca682611673565b90506000610cb6828787876116c1565b9050896001600160a01b0316816001600160a01b031614610d195760405162461bcd60e51b815260206004820152601e60248201527f45524332305065726d69743a20696e76616c6964207369676e6174757265000060448201526064016106ab565b610d248a8a8a610e4c565b50505050505050505050565b60408051808201909152600080825260208201526001600160a01b0383166000908152600c60205260409020805463ffffffff8416908110610d7457610d74612544565b60009182526020918290206040805180820190915291015463ffffffff8116825264010000000090046001600160e01b0316918101919091529392505050565b6009546001600160a01b03163314610dde5760405162461bcd60e51b81526004016106ab906124f8565b6001600160a01b038116610e435760405162461bcd60e51b815260206004820152602660248201527f4f776e61626c653a206e6577206f776e657220697320746865207a65726f206160448201526564647265737360d01b60648201526084016106ab565b61071f816115c7565b6001600160a01b038316610eae5760405162461bcd60e51b8152602060048201526024808201527f45524332303a20617070726f76652066726f6d20746865207a65726f206164646044820152637265737360e01b60648201526084016106ab565b6001600160a01b038216610f0f5760405162461bcd60e51b815260206004820152602260248201527f45524332303a20617070726f766520746f20746865207a65726f206164647265604482015261737360f01b60648201526084016106ab565b6001600160a01b0383811660008181526001602090815260408083209487168084529482529182902085905590518481527f8c5be1e5ebec7d5bd14f71427d1e84f3dd0314c0f7b2291e5b200ac8c7c3b925910160405180910390a3505050565b6001600160a01b038381166000908152600160209081526040808320938616835292905220546000198114610ffc5781811015610fef5760405162461bcd60e51b815260206004820152601d60248201527f45524332303a20696e73756666696369656e7420616c6c6f77616e636500000060448201526064016106ab565b610ffc8484848403610e4c565b50505050565b6001600160a01b0383166110665760405162461bcd60e51b815260206004820152602560248201527f45524332303a207472616e736665722066726f6d20746865207a65726f206164604482015264647265737360d81b60648201526084016106ab565b6001600160a01b0382166110c85760405162461bcd60e51b815260206004820152602360248201527f45524332303a207472616e7366657220746f20746865207a65726f206164647260448201526265737360e81b60648201526084016106ab565b6110d3838383611711565b6001600160a01b0383166000908152602081905260409020548181101561114b5760405162461bcd60e51b815260206004820152602660248201527f45524332303a207472616e7366657220616d6f756e7420657863656564732062604482015265616c616e636560d01b60648201526084016106ab565b6001600160a01b038085166000908152602081905260408082208585039055918516815290812080548492906111829084906124e0565b92505081905550826001600160a01b0316846001600160a01b03167fddf252ad1be2c89b69c2b068fc378daa952ba7f163c4a11628f55a4df523b3ef846040516111ce91815260200190565b60405180910390a3610ffc848484611721565b6000306001600160a01b037f00000000000000000000000000000000000000000000000000000000000000001614801561123a57507f000000000000000000000000000000000000000000000000000000000000000046145b1561126457507f000000000000000000000000000000000000000000000000000000000000000090565b50604080517f00000000000000000000000000000000000000000000000000000000000000006020808301919091527f0000000000000000000000000000000000000000000000000000000000000000828401527f000000000000000000000000000000000000000000000000000000000000000060608301524660808301523060a0808401919091528351808403909101815260c0909201909252805191012090565b8154600090815b8181101561136c576000611323828461172c565b90508486828154811061133857611338612544565b60009182526020909120015463ffffffff16111561135857809250611366565b6113638160016124e0565b91505b5061130f565b81156113b0578461137e60018461252d565b8154811061138e5761138e612544565b60009182526020909120015464010000000090046001600160e01b03166113b3565b60005b6001600160e01b031695945050505050565b6107118282611747565b61071182826117d6565b600080600084116114255760405162461bcd60e51b815260206004820152601660248201527504552433230536e617073686f743a20696420697320360541b60448201526064016106ab565b61142d6117ee565b84111561147c5760405162461bcd60e51b815260206004820152601d60248201527f4552433230536e617073686f743a206e6f6e6578697374656e7420696400000060448201526064016106ab565b600061148884866117f9565b845490915081036114a05760008092509250506114c8565b60018460010182815481106114b7576114b7612544565b906000526020600020015492509250505b9250929050565b6001600160a01b038281166000908152600b6020526040812054909116906114f684610797565b6001600160a01b038581166000818152600b602052604080822080546001600160a01b031916898616908117909155905194955093928616927f3134e8a2e6d97e929a7e54011ea5485d7d196dd5f0ba4d4ef95803e8e3fc257f9190a4610ffc8284836118be565b600063ffffffff8211156115c35760405162461bcd60e51b815260206004820152602660248201527f53616665436173743a2076616c756520646f65736e27742066697420696e203360448201526532206269747360d01b60648201526084016106ab565b5090565b600980546001600160a01b038381166001600160a01b0319831681179093556040519116919082907f8be0079c531659141344cd1fd0a4f28419497f9722a3daafe3b4186f6b6457e090600090a35050565b6000611629600880546001019055565b60006116336117ee565b90507f8030e83b04d87bef53480e26263266d6ca66863aa8506aca6f2559d18aa1cb678160405161166691815260200190565b60405180910390a1919050565b60006105616116806111e1565b8360405161190160f01b6020820152602281018390526042810182905260009060620160405160208183030381529060405280519060200120905092915050565b60008060006116d2878787876119fb565b915091506116df81611ae8565b5095945050505050565b6001600160a01b0381166000908152600a602052604090208054600181018255905b50919050565b61171c838383611c9e565b505050565b61171c838383611ce6565b600061173b600284841861255a565b6106d6908484166124e0565b6117518282611d18565b6001600160e01b03611761610567565b11156117c85760405162461bcd60e51b815260206004820152603060248201527f4552433230566f7465733a20746f74616c20737570706c79207269736b73206f60448201526f766572666c6f77696e6720766f74657360801b60648201526084016106ab565b610ffc600d611e0b83611e17565b6117e08282611f90565b610ffc600d6120f183611e17565b60006105ec60085490565b8154600090810361180c57506000610561565b82546000905b80821015611868576000611826838361172c565b90508486828154811061183b5761183b612544565b9060005260206000200154111561185457809150611862565b61185f8160016124e0565b92505b50611812565b60008211801561189d5750838561188060018561252d565b8154811061189057611890612544565b9060005260206000200154145b156118b6576118ad60018361252d565b92505050610561565b509050610561565b816001600160a01b0316836001600160a01b0316141580156118e05750600081115b1561171c576001600160a01b0383161561196e576001600160a01b0383166000908152600c60205260408120819061191b906120f185611e17565b91509150846001600160a01b03167fdec2bacdd2f05b59de34da9b523dff8be42e5e38e818c82fdb0bae774387a7248383604051611963929190918252602082015260400190565b60405180910390a250505b6001600160a01b0382161561171c576001600160a01b0382166000908152600c6020526040812081906119a490611e0b85611e17565b91509150836001600160a01b03167fdec2bacdd2f05b59de34da9b523dff8be42e5e38e818c82fdb0bae774387a72483836040516119ec929190918252602082015260400190565b60405180910390a25050505050565b6000807f7fffffffffffffffffffffffffffffff5d576e7357a4501ddfe92f46681b20a0831115611a325750600090506003611adf565b8460ff16601b14158015611a4a57508460ff16601c14155b15611a5b5750600090506004611adf565b6040805160008082526020820180845289905260ff881692820192909252606081018690526080810185905260019060a0016020604051602081039080840390855afa158015611aaf573d6000803e3d6000fd5b5050604051601f1901519150506001600160a01b038116611ad857600060019250925050611adf565b9150600090505b94509492505050565b6000816004811115611afc57611afc61257c565b03611b045750565b6001816004811115611b1857611b1861257c565b03611b655760405162461bcd60e51b815260206004820152601860248201527f45434453413a20696e76616c6964207369676e6174757265000000000000000060448201526064016106ab565b6002816004811115611b7957611b7961257c565b03611bc65760405162461bcd60e51b815260206004820152601f60248201527f45434453413a20696e76616c6964207369676e6174757265206c656e6774680060448201526064016106ab565b6003816004811115611bda57611bda61257c565b03611c325760405162461bcd60e51b815260206004820152602260248201527f45434453413a20696e76616c6964207369676e6174757265202773272076616c604482015261756560f01b60648201526084016106ab565b6004816004811115611c4657611c4661257c565b0361071f5760405162461bcd60e51b815260206004820152602260248201527f45434453413a20696e76616c6964207369676e6174757265202776272076616c604482015261756560f01b60648201526084016106ab565b6001600160a01b038316611cbd57611cb5826120fd565b61171c612127565b6001600160a01b038216611cd457611cb5836120fd565b611cdd836120fd565b61171c826120fd565b6001600160a01b038381166000908152600b602052604080822054858416835291205461171c929182169116836118be565b6001600160a01b038216611d6e5760405162461bcd60e51b815260206004820152601f60248201527f45524332303a206d696e7420746f20746865207a65726f20616464726573730060448201526064016106ab565b611d7a60008383611711565b8060026000828254611d8c91906124e0565b90915550506001600160a01b03821660009081526020819052604081208054839290611db99084906124e0565b90915550506040518181526001600160a01b038316906000907fddf252ad1be2c89b69c2b068fc378daa952ba7f163c4a11628f55a4df523b3ef9060200160405180910390a361071160008383611721565b60006106d682846124e0565b825460009081908015611e625785611e3060018361252d565b81548110611e4057611e40612544565b60009182526020909120015464010000000090046001600160e01b0316611e65565b60005b6001600160e01b03169250611e7e83858763ffffffff16565b9150600081118015611ebc57504386611e9860018461252d565b81548110611ea857611ea8612544565b60009182526020909120015463ffffffff16145b15611f1c57611eca82612134565b86611ed660018461252d565b81548110611ee657611ee6612544565b9060005260206000200160000160046101000a8154816001600160e01b0302191690836001600160e01b03160217905550611f87565b856040518060400160405280611f314361155e565b63ffffffff168152602001611f4585612134565b6001600160e01b0390811690915282546001810184556000938452602093849020835194909301519091166401000000000263ffffffff909316929092179101555b50935093915050565b6001600160a01b038216611ff05760405162461bcd60e51b815260206004820152602160248201527f45524332303a206275726e2066726f6d20746865207a65726f206164647265736044820152607360f81b60648201526084016106ab565b611ffc82600083611711565b6001600160a01b038216600090815260208190526040902054818110156120705760405162461bcd60e51b815260206004820152602260248201527f45524332303a206275726e20616d6f756e7420657863656564732062616c616e604482015261636560f01b60648201526084016106ab565b6001600160a01b038316600090815260208190526040812083830390556002805484929061209f90849061252d565b90915550506040518281526000906001600160a01b038516907fddf252ad1be2c89b69c2b068fc378daa952ba7f163c4a11628f55a4df523b3ef9060200160405180910390a361171c83600084611721565b60006106d6828461252d565b6001600160a01b038116600090815260056020526040902061071f9061212283610797565b61219d565b61086d6006612122610567565b60006001600160e01b038211156115c35760405162461bcd60e51b815260206004820152602760248201527f53616665436173743a2076616c756520646f65736e27742066697420696e20326044820152663234206269747360c81b60648201526084016106ab565b60006121a76117ee565b9050806121b3846121e7565b101561171c578254600180820185556000858152602080822090930193909355938401805494850181558252902090910155565b805460009081036121fa57506000919050565b8154829061220a9060019061252d565b8154811061221a5761221a612544565b90600052602060002001549050919050565b919050565b600060208083528351808285015260005b8181101561225e57858101830151858201604001528201612242565b81811115612270576000604083870101525b50601f01601f1916929092016040019392505050565b80356001600160a01b038116811461222c57600080fd5b600080604083850312156122b057600080fd5b6122b983612286565b946020939093013593505050565b6000806000606084860312156122dc57600080fd5b6122e584612286565b92506122f360208501612286565b9150604084013590509250925092565b60006020828403121561231557600080fd5b5035919050565b60006020828403121561232e57600080fd5b6106d682612286565b803560ff8116811461222c57600080fd5b60008060008060008060c0878903121561236157600080fd5b61236a87612286565b9550602087013594506040870135935061238660608801612337565b92506080870135915060a087013590509295509295509295565b600080600080600080600060e0888a0312156123bb57600080fd5b6123c488612286565b96506123d260208901612286565b955060408801359450606088013593506123ee60808901612337565b925060a0880135915060c0880135905092959891949750929550565b6000806040838503121561241d57600080fd5b61242683612286565b915061243460208401612286565b90509250929050565b6000806040838503121561245057600080fd5b61245983612286565b9150602083013563ffffffff8116811461247257600080fd5b809150509250929050565b600181811c9082168061249157607f821691505b60208210810361170b57634e487b7160e01b600052602260045260246000fd5b6000602082840312156124c357600080fd5b5051919050565b634e487b7160e01b600052601160045260246000fd5b600082198211156124f3576124f36124ca565b500190565b6020808252818101527f4f776e61626c653a2063616c6c6572206973206e6f7420746865206f776e6572604082015260600190565b60008282101561253f5761253f6124ca565b500390565b634e487b7160e01b600052603260045260246000fd5b60008261257757634e487b7160e01b600052601260045260246000fd5b500490565b634e487b7160e01b600052602160045260246000fdfea2646970667358221220007cf882afcb8afc12f584bb501bf78fdfcc450ad1e9e9e8ccc17c0a4813b24c64736f6c634300080d0033",
  "linkReferences": {},
  "deployedLinkReferences": {}
}