{
  "_format": "hh-sol-artifact-1",
  "contractName": "TagGov",
  "sourceName": "contracts/comunityERC20/DonationGov.sol",
  "abi": [
    {
      "inputs": [],
      "stateMutability": "nonpayable",
      "type": "constructor"
    },
    {
      "anonymous": false,
      "inputs": [
        {
          "indexed": true,
          "internalType": "address",
          "name": "owner",
          "type": "address"
        },
        {
          "indexed": true,
          "internalType": "address",
          "name": "spender",
          "type": "address"
        },
        {
          "indexed": false,
          "internalType": "uint256",
          "name": "value",
          "type": "uint256"
        }
      ],
      "name": "Approval",
      "type": "event"
    },
    {
      "anonymous": false,
      "inputs": [
        {
          "indexed": true,
          "internalType": "address",
          "name": "delegator",
          "type": "address"
        },
        {
          "indexed": true,
          "internalType": "address",
          "name": "fromDelegate",
          "type": "address"
        },
        {
          "indexed": true,
          "internalType": "address",
          "name": "toDelegate",
          "type": "address"
        }
      ],
      "name": "DelegateChanged",
      "type": "event"
    },
    {
      "anonymous": false,
      "inputs": [
        {
          "indexed": true,
          "internalType": "address",
          "name": "delegate",
          "type": "address"
        },
        {
          "indexed": false,
          "internalType": "uint256",
          "name": "previousBalance",
          "type": "uint256"
        },
        {
          "indexed": false,
          "internalType": "uint256",
          "name": "newBalance",
          "type": "uint256"
        }
      ],
      "name": "DelegateVotesChanged",
      "type": "event"
    },
    {
      "anonymous": false,
      "inputs": [
        {
          "indexed": true,
          "internalType": "address",
          "name": "previousOwner",
          "type": "address"
        },
        {
          "indexed": true,
          "internalType": "address",
          "name": "newOwner",
          "type": "address"
        }
      ],
      "name": "OwnershipTransferred",
      "type": "event"
    },
    {
      "anonymous": false,
      "inputs": [
        {
          "indexed": false,
          "internalType": "uint256",
          "name": "id",
          "type": "uint256"
        }
      ],
      "name": "Snapshot",
      "type": "event"
    },
    {
      "anonymous": false,
      "inputs": [
        {
          "indexed": true,
          "internalType": "address",
          "name": "from",
          "type": "address"
        },
        {
          "indexed": true,
          "internalType": "address",
          "name": "to",
          "type": "address"
        },
        {
          "indexed": false,
          "internalType": "uint256",
          "name": "value",
          "type": "uint256"
        }
      ],
      "name": "Transfer",
      "type": "event"
    },
    {
      "inputs": [],
      "name": "DOMAIN_SEPARATOR",
      "outputs": [
        {
          "internalType": "bytes32",
          "name": "",
          "type": "bytes32"
        }
      ],
      "stateMutability": "view",
      "type": "function"
    },
    {
      "inputs": [
        {
          "internalType": "address",
          "name": "owner",
          "type": "address"
        },
        {
          "internalType": "address",
          "name": "spender",
          "type": "address"
        }
      ],
      "name": "allowance",
      "outputs": [
        {
          "internalType": "uint256",
          "name": "",
          "type": "uint256"
        }
      ],
      "stateMutability": "view",
      "type": "function"
    },
    {
      "inputs": [
        {
          "internalType": "address",
          "name": "spender",
          "type": "address"
        },
        {
          "internalType": "uint256",
          "name": "amount",
          "type": "uint256"
        }
      ],
      "name": "approve",
      "outputs": [
        {
          "internalType": "bool",
          "name": "",
          "type": "bool"
        }
      ],
      "stateMutability": "nonpayable",
      "type": "function"
    },
    {
      "inputs": [
        {
          "internalType": "address",
          "name": "account",
          "type": "address"
        }
      ],
      "name": "balanceOf",
      "outputs": [
        {
          "internalType": "uint256",
          "name": "",
          "type": "uint256"
        }
      ],
      "stateMutability": "view",
      "type": "function"
    },
    {
      "inputs": [
        {
          "internalType": "address",
          "name": "account",
          "type": "address"
        },
        {
          "internalType": "uint256",
          "name": "snapshotId",
          "type": "uint256"
        }
      ],
      "name": "balanceOfAt",
      "outputs": [
        {
          "internalType": "uint256",
          "name": "",
          "type": "uint256"
        }
      ],
      "stateMutability": "view",
      "type": "function"
    },
    {
      "inputs": [
        {
          "internalType": "uint256",
          "name": "amount",
          "type": "uint256"
        }
      ],
      "name": "burn",
      "outputs": [],
      "stateMutability": "nonpayable",
      "type": "function"
    },
    {
      "inputs": [
        {
          "internalType": "address",
          "name": "account",
          "type": "address"
        },
        {
          "internalType": "uint256",
          "name": "amount",
          "type": "uint256"
        }
      ],
      "name": "burnFrom",
      "outputs": [],
      "stateMutability": "nonpayable",
      "type": "function"
    },
    {
      "inputs": [
        {
          "internalType": "address",
          "name": "account",
          "type": "address"
        },
        {
          "internalType": "uint32",
          "name": "pos",
          "type": "uint32"
        }
      ],
      "name": "checkpoints",
      "outputs": [
        {
          "components": [
            {
              "internalType": "uint32",
              "name": "fromBlock",
              "type": "uint32"
            },
            {
              "internalType": "uint224",
              "name": "votes",
              "type": "uint224"
            }
          ],
          "internalType": "struct ERC20Votes.Checkpoint",
          "name": "",
          "type": "tuple"
        }
      ],
      "stateMutability": "view",
      "type": "function"
    },
    {
      "inputs": [],
      "name": "decimals",
      "outputs": [
        {
          "internalType": "uint8",
          "name": "",
          "type": "uint8"
        }
      ],
      "stateMutability": "view",
      "type": "function"
    },
    {
      "inputs": [
        {
          "internalType": "address",
          "name": "spender",
          "type": "address"
        },
        {
          "internalType": "uint256",
          "name": "subtractedValue",
          "type": "uint256"
        }
      ],
      "name": "decreaseAllowance",
      "outputs": [
        {
          "internalType": "bool",
          "name": "",
          "type": "bool"
        }
      ],
      "stateMutability": "nonpayable",
      "type": "function"
    },
    {
      "inputs": [
        {
          "internalType": "address",
          "name": "delegatee",
          "type": "address"
        }
      ],
      "name": "delegate",
      "outputs": [],
      "stateMutability": "nonpayable",
      "type": "function"
    },
    {
      "inputs": [
        {
          "internalType": "address",
          "name": "delegatee",
          "type": "address"
        },
        {
          "internalType": "uint256",
          "name": "nonce",
          "type": "uint256"
        },
        {
          "internalType": "uint256",
          "name": "expiry",
          "type": "uint256"
        },
        {
          "internalType": "uint8",
          "name": "v",
          "type": "uint8"
        },
        {
          "internalType": "bytes32",
          "name": "r",
          "type": "bytes32"
        },
        {
          "internalType": "bytes32",
          "name": "s",
          "type": "bytes32"
        }
      ],
      "name": "delegateBySig",
      "outputs": [],
      "stateMutability": "nonpayable",
      "type": "function"
    },
    {
      "inputs": [
        {
          "internalType": "address",
          "name": "account",
          "type": "address"
        }
      ],
      "name": "delegates",
      "outputs": [
        {
          "internalType": "address",
          "name": "",
          "type": "address"
        }
      ],
      "stateMutability": "view",
      "type": "function"
    },
    {
      "inputs": [
        {
          "internalType": "uint256",
          "name": "blockNumber",
          "type": "uint256"
        }
      ],
      "name": "getPastTotalSupply",
      "outputs": [
        {
          "internalType": "uint256",
          "name": "",
          "type": "uint256"
        }
      ],
      "stateMutability": "view",
      "type": "function"
    },
    {
      "inputs": [
        {
          "internalType": "address",
          "name": "account",
          "type": "address"
        },
        {
          "internalType": "uint256",
          "name": "blockNumber",
          "type": "uint256"
        }
      ],
      "name": "getPastVotes",
      "outputs": [
        {
          "internalType": "uint256",
          "name": "",
          "type": "uint256"
        }
      ],
      "stateMutability": "view",
      "type": "function"
    },
    {
      "inputs": [
        {
          "internalType": "address",
          "name": "account",
          "type": "address"
        }
      ],
      "name": "getVotes",
      "outputs": [
        {
          "internalType": "uint256",
          "name": "",
          "type": "uint256"
        }
      ],
      "stateMutability": "view",
      "type": "function"
    },
    {
      "inputs": [
        {
          "internalType": "address",
          "name": "spender",
          "type": "address"
        },
        {
          "internalType": "uint256",
          "name": "addedValue",
          "type": "uint256"
        }
      ],
      "name": "increaseAllowance",
      "outputs": [
        {
          "internalType": "bool",
          "name": "",
          "type": "bool"
        }
      ],
      "stateMutability": "nonpayable",
      "type": "function"
    },
    {
      "inputs": [
        {
          "internalType": "address",
          "name": "to",
          "type": "address"
        },
        {
          "internalType": "uint256",
          "name": "amount",
          "type": "uint256"
        }
      ],
      "name": "mint",
      "outputs": [],
      "stateMutability": "nonpayable",
      "type": "function"
    },
    {
      "inputs": [],
      "name": "name",
      "outputs": [
        {
          "internalType": "string",
          "name": "",
          "type": "string"
        }
      ],
      "stateMutability": "view",
      "type": "function"
    },
    {
      "inputs": [
        {
          "internalType": "address",
          "name": "owner",
          "type": "address"
        }
      ],
      "name": "nonces",
      "outputs": [
        {
          "internalType": "uint256",
          "name": "",
          "type": "uint256"
        }
      ],
      "stateMutability": "view",
      "type": "function"
    },
    {
      "inputs": [
        {
          "internalType": "address",
          "name": "account",
          "type": "address"
        }
      ],
      "name": "numCheckpoints",
      "outputs": [
        {
          "internalType": "uint32",
          "name": "",
          "type": "uint32"
        }
      ],
      "stateMutability": "view",
      "type": "function"
    },
    {
      "inputs": [],
      "name": "owner",
      "outputs": [
        {
          "internalType": "address",
          "name": "",
          "type": "address"
        }
      ],
      "stateMutability": "view",
      "type": "function"
    },
    {
      "inputs": [
        {
          "internalType": "address",
          "name": "owner",
          "type": "address"
        },
        {
          "internalType": "address",
          "name": "spender",
          "type": "address"
        },
        {
          "internalType": "uint256",
          "name": "value",
          "type": "uint256"
        },
        {
          "internalType": "uint256",
          "name": "deadline",
          "type": "uint256"
        },
        {
          "internalType": "uint8",
          "name": "v",
          "type": "uint8"
        },
        {
          "internalType": "bytes32",
          "name": "r",
          "type": "bytes32"
        },
        {
          "internalType": "bytes32",
          "name": "s",
          "type": "bytes32"
        }
      ],
      "name": "permit",
      "outputs": [],
      "stateMutability": "nonpayable",
      "type": "function"
    },
    {
      "inputs": [],
      "name": "renounceOwnership",
      "outputs": [],
      "stateMutability": "nonpayable",
      "type": "function"
    },
    {
      "inputs": [],
      "name": "snapshot",
      "outputs": [],
      "stateMutability": "nonpayable",
      "type": "function"
    },
    {
      "inputs": [],
      "name": "symbol",
      "outputs": [
        {
          "internalType": "string",
          "name": "",
          "type": "string"
        }
      ],
      "stateMutability": "view",
      "type": "function"
    },
    {
      "inputs": [],
      "name": "totalSupply",
      "outputs": [
        {
          "internalType": "uint256",
          "name": "",
          "type": "uint256"
        }
      ],
      "stateMutability": "view",
      "type": "function"
    },
    {
      "inputs": [
        {
          "internalType": "uint256",
          "name": "snapshotId",
          "type": "uint256"
        }
      ],
      "name": "totalSupplyAt",
      "outputs": [
        {
          "internalType": "uint256",
          "name": "",
          "type": "uint256"
        }
      ],
      "stateMutability": "view",
      "type": "function"
    },
    {
      "inputs": [
        {
          "internalType": "address",
          "name": "to",
          "type": "address"
        },
        {
          "internalType": "uint256",
          "name": "amount",
          "type": "uint256"
        }
      ],
      "name": "transfer",
      "outputs": [
        {
          "internalType": "bool",
          "name": "",
          "type": "bool"
        }
      ],
      "stateMutability": "nonpayable",
      "type": "function"
    },
    {
      "inputs": [
        {
          "internalType": "address",
          "name": "from",
          "type": "address"
        },
        {
          "internalType": "address",
          "name": "to",
          "type": "address"
        },
        {
          "internalType": "uint256",
          "name": "amount",
          "type": "uint256"
        }
      ],
      "name": "transferFrom",
      "outputs": [
        {
          "internalType": "bool",
          "name": "",
          "type": "bool"
        }
      ],
      "stateMutability": "nonpayable",
      "type": "function"
    },
    {
      "inputs": [
        {
          "internalType": "address",
          "name": "newOwner",
          "type": "address"
        }
      ],
      "name": "transferOwnership",
      "outputs": [],
      "stateMutability": "nonpayable",
      "type": "function"
    }
  ],
  "bytecode": "0x6101608060405234620004895762000017816200048e565b60068152602090818101652a30b3a3b7bb60d11b91828252604051926200003e846200048e565b60068452848401526040519062000055826200048e565b6002825261444760f01b858301526040519262000072846200048e565b6001808552603160f81b87860190815286516001600160401b0397919392919088811162000383576003908154928484811c941680156200047e575b8c851014620004685781908c601f958681116200040f575b50508c908d868411600114620003a5575060009262000399575b505060001982841b1c191690841b1781555b865191898311620003835760049788548581811c9116801562000378575b8d821014620003635780838e921162000316575b50508b918411600114620002a7579383949184926000956200029b575b50501b92600019911b1c19161784555b60098054336001600160a01b0319821681179092556040519491906001600160a01b03167f8be0079c531659141344cd1fd0a4f28419497f9722a3daafe3b4186f6b6457e0600087a351902093519020918360e052610100958387524660a0528201927f8b73c3c69bb8fe3d512ecc4cf759cc79239f7b179b0ffacaa9a75d522b39400f94858552604084015260608301524660808301523060a083015260a0825260c082019482861090861117620002865750836040525190206080523060c052610120908152610140907f6e71edae12b1b97f4d1f60370fef10105fa2faae0126114a169c64845d6126c982526129179384620004ab853960805184612405015260a051846124d1015260c051846123cf015260e051846124540152518361247a01525182612431015251816103920152f35b604190634e487b7160e01b6000525260246000fd5b01519350388062000141565b908b929184601f1981168b60005285600020956000905b89838310620002fb5750505010620002e0575b50505050811b01845562000151565b01519060f884600019921b161c1916905538808080620002d1565b858701518955909701969485019488935090810190620002be565b8a60005283826000209181880160051c830193881062000359575b0160051c019086905b8281106200034c57508d915062000124565b600081550186906200033a565b9250819262000331565b60228a634e487b7160e01b6000525260246000fd5b90607f169062000110565b634e487b7160e01b600052604160045260246000fd5b015190503880620000e0565b9190879450601f1984168660005283600020936000905b828210620003f55750508411620003dc575b505050811b018155620000f2565b015160001983861b60f8161c19169055388080620003ce565b8484015186558a97909501949384019390810190620003bc565b909192508460005285826000209181860160051c83019386106200045e575b918891869594930160051c01915b8281106200044e57508e9150620000c6565b600081558594508891016200043c565b925081926200042e565b634e487b7160e01b600052602260045260246000fd5b93607f1693620000ae565b600080fd5b604081019081106001600160401b03821117620003835760405256fe6080604081815260048036101561001557600080fd5b600092833560e01c90816306fdde03146113a457508063095ea7b31461137a57806318160ddd1461135d57806323b872dd14611320578063313ce567146113045780633644e515146112e757806339509351146112975780633a46b1a81461119e57806340c10f1914610eb957806342966c6814610d795780634ee2cd7e14610d24578063587cde1e14610ce95780635c19a95c14610cc55780636fcfff4514610c7d57806370a0823114610c50578063715018a614610bee57806379cc679014610a8d5780637ecebe0014610a555780638da5cb5b14610a2c5780638e539e8c1461095657806395d89b41146108525780639711715a146107f5578063981b24d0146107b85780639ab24eb014610730578063a457c2d71461068c578063a9059cbb1461065b578063c3cda520146104d5578063d505accf14610327578063dd62ed3e146102de578063f1127ed8146102425763f2fde38b1461017857600080fd5b3461023e57602036600319011261023e576101916114ed565b6009546001600160a01b0380821694926101ac33871461151e565b169283156101ec57506001600160a01b031916821760095551917f8be0079c531659141344cd1fd0a4f28419497f9722a3daafe3b4186f6b6457e08484a3f35b608490602084519162461bcd60e51b8352820152602660248201527f4f776e61626c653a206e6577206f776e657220697320746865207a65726f206160448201526564647265737360d01b6064820152fd5b8280fd5b8284346102db57816003193601126102db5761025c6114ed565b63ffffffff916024359183831683036102d75781859161029f94936020845161028481611569565b82815201526001600160a01b03168152600c602052206119cc565b509060208351926102af84611569565b54918216808452602092831c919093019081528351928352516001600160e01b031690820152f35b5080fd5b80fd5b5050346102d757806003193601126102d757806020926102fc6114ed565b610304611508565b6001600160a01b0391821683526001865283832091168252845220549051908152f35b509190346102d75760e03660031901126102d7576103436114ed565b9261034c611508565b6044359160843560643560ff821682036104d15780421161048e576001600160a01b0388166000908152600a6020526040902080546001810190915591865160208101917f0000000000000000000000000000000000000000000000000000000000000000835260018060a01b0393848c1695868b850152858916606085015289608085015260a084015260c083015260c0825260e0820182811067ffffffffffffffff82111761047b5791610423939161041b938b5261041660c4359360a435935190206124f7565b612317565b9190916121a5565b16036104385750610435929394611777565b51f35b606490602085519162461bcd60e51b8352820152601e60248201527f45524332305065726d69743a20696e76616c6964207369676e617475726500006044820152fd5b634e487b7160e01b8b526041875260248bfd5b855162461bcd60e51b8152602081850152601d60248201527f45524332305065726d69743a206578706972656420646561646c696e650000006044820152606490fd5b8680fd5b503461023e5760c036600319011261023e576104ef6114ed565b9060243560443560643560ff811681036104d1578142116106185785519060208201927fe48329057bfd03d55e49b547132e39cffd9c1820ad7b9d4c5307691425d15adf845260018060a01b0387168884015284606084015260808301526080825260a0820182811067ffffffffffffffff82111761060557916105919594939161058993895261041660a43593608435935190206124f7565b9390936121a5565b6001600160a01b0383166000908152600a60205260409020805460018101909155036105c257509061043591611b36565b606490602085519162461bcd60e51b8352820152601960248201527f4552433230566f7465733a20696e76616c6964206e6f6e6365000000000000006044820152fd5b634e487b7160e01b895260418652602489fd5b855162461bcd60e51b8152602081860152601d60248201527f4552433230566f7465733a207369676e617475726520657870697265640000006044820152606490fd5b5050346102d757806003193601126102d75760209061068561067b6114ed565b60243590336115df565b5160018152f35b5082346102db57826003193601126102db576106a66114ed565b918360243592338152600160205281812060018060a01b03861682526020522054908282106106df576020856106858585038733611777565b608490602086519162461bcd60e51b8352820152602560248201527f45524332303a2064656372656173656420616c6c6f77616e63652062656c6f77604482015264207a65726f60d81b6064820152fd5b5091346102db5760203660031901126102db576001600160a01b036107536114ed565b168152600c602052818120548061077b575060209250905b516001600160e01b039091168152f35b82822091600182106107a55750602093509061079b9160001901906119cc565b5054821c9061076b565b634e487b7160e01b815260118552602490fd5b503461023e57602036600319011261023e57916107d7602093356119e4565b9150156107e657905b51908152f35b506107ef6126b4565b906107e0565b5050346102d757816003193601126102d75761081c60018060a01b0360095416331461151e565b7f8030e83b04d87bef53480e26263266d6ca66863aa8506aca6f2559d18aa1cb676020600160085401806008558351908152a151f35b509190346102d757816003193601126102d757805191809380549160019083821c9282851694851561094c575b60209586861081146109395785895290811561091557506001146108bd575b6108b987876108af828c038361159b565b5191829182611496565b0390f35b81529295507f8a35acfbc15ff81a39ae7d344fd709f28e8600b4aa8c65c6b64bfe7fe36bd19b5b82841061090257505050826108b9946108af9282010194388061089e565b80548685018801529286019281016108e4565b60ff19168887015250505050151560051b83010192506108af826108b9388061089e565b634e487b7160e01b845260228352602484fd5b93607f169361087f565b5091346102db5760203660031901126102db57823592610977438510611aea565b600d549382905b8582106109ce575050836109a257506020925090516001600160e01b039091168152f35b600184106109bb57505061079b60209260001901611911565b634e487b7160e01b825260119052602490fd5b90946001906109e3818818831c8289166115bd565b918363ffffffff6109f385611911565b5054161115610a06575050945b9061097e565b909650906001198111610a195701610a00565b634e487b7160e01b855260118452602485fd5b5050346102d757816003193601126102d75760095490516001600160a01b039091168152602090f35b5050346102d75760203660031901126102d75760209181906001600160a01b03610a7d6114ed565b168152600a845220549051908152f35b503461023e578160031936011261023e57610aa66114ed565b9060243591610ab6833383611879565b6001600160a01b0391818316918215610ba157610ad29061273d565b610ada61278c565b818652856020528486205490848210610b5357509280928282610b4e96610b49958a52896020520387892055610b1283600254611adf565b60025587816000805160206128a283398151915260208a51878152a38752600b602052858720548780528688205482169116611bb3565b611f1e565b505051f35b608490602087519162461bcd60e51b8352820152602260248201527f45524332303a206275726e20616d6f756e7420657863656564732062616c616e604482015261636560f01b6064820152fd5b855162461bcd60e51b8152602081840152602160248201527f45524332303a206275726e2066726f6d20746865207a65726f206164647265736044820152607360f81b6064820152608490fd5b5050346102d757816003193601126102d7576009546001600160a01b038116918391610c1b33851461151e565b6001600160a01b03191660095551917f8be0079c531659141344cd1fd0a4f28419497f9722a3daafe3b4186f6b6457e08284a3f35b5050346102d75760203660031901126102d757602090610c76610c716114ed565b61260d565b9051908152f35b5050346102d75760203660031901126102d75760209163ffffffff90610cbd9083906001600160a01b03610caf6114ed565b168152600c865220546125a8565b915191168152f35b5050346102d75760203660031901126102d757610435610ce36114ed565b33611b36565b5050346102d75760203660031901126102d7576020916001600160a01b0390829082610d136114ed565b168152600b85522054169051908152f35b5050346102d757806003193601126102d757602091610d416114ed565b6001600160a01b038116825260058452828220610d6090602435611aa8565b925015610d6f57509051908152f35b6107ef915061260d565b503461023e57602080600319360112610eb5578135913315610e6a57610d9e3361273d565b610da661278c565b3385528482528385205490838210610e1c57508291610b4e93600b923388528783520385872055610dd983600254611adf565b6002558585518481526000805160206128a2833981519152833392a3338652528284205484805283852054610b499183916001600160a01b039081169116611bb3565b845162461bcd60e51b8152908101839052602260248201527f45524332303a206275726e20616d6f756e7420657863656564732062616c616e604482015261636560f01b6064820152608490fd5b60849184519162461bcd60e51b8352820152602160248201527f45524332303a206275726e2066726f6d20746865207a65726f206164647265736044820152607360f81b6064820152fd5b8380fd5b503461023e578160031936011261023e57610ed26114ed565b6024803560018060a01b0392610eed8460095416331461151e565b83811690811561115c57610f6891610f05849261273d565b610f0d61278c565b610f19826002546115bd565b600255808952602095898752888a20610f338482546115bd565b9055818a6000805160206128a2833981519152898c51878152a3898052600b875280898b205416918a52888a20541690611bb3565b6001600160e01b0380610f796126b4565b1161110257600d549384159283156110cd57610f9890838a5b166115bd565b921580611096575b15610ff5575050610fb09061253f565b9260018310610fe457505090610fcc6104359260001901611911565b509063ffffffff82549181199060201b169116179055565b634e487b7160e01b86526011905284fd5b61100f6110099897969593929498436125a8565b9261253f565b928487519261101d84611569565b63ffffffff8095168452830194168452600160401b811015611084578060016110499201600d55611911565b959095611073575051915163ffffffff9190921616911660201b63ffffffff191617905590915051f35b634e487b7160e01b88528790528787fd5b634e487b7160e01b8852604186528888fd5b50600185106110bb5763ffffffff6110b16000198701611911565b5054164314610fa0565b634e487b7160e01b8852601186528388fd5b600186106110f057610f9890836110e76000198901611911565b5054841c610f92565b634e487b7160e01b8952601187528489fd5b5050603091608494519362461bcd60e51b85528401528201527f4552433230566f7465733a20746f74616c20737570706c79207269736b73206f60448201526f766572666c6f77696e6720766f74657360801b6064820152fd5b865162461bcd60e51b8152602081880152601f818601527f45524332303a206d696e7420746f20746865207a65726f2061646472657373006044820152606490fd5b5091346102db57816003193601126102db576111b86114ed565b60248035916111c8438410611aea565b6001600160a01b03168352600c60205283832080549095909284905b8482106112395750508261120a575050506020925090516001600160e01b039091168152f35b600183949293106112295750505060209261079b9160001901906119cc565b634e487b7160e01b825260119052fd5b909360019061124e818718831c8288166115bd565b918363ffffffff61125f858d6119cc565b5054161115611272575050935b906111e4565b909550906001198111611285570161126c565b634e487b7160e01b8752601184528487fd5b5050346102d757806003193601126102d7576106856020926112e06112ba6114ed565b338352600186528483206001600160a01b038216845286529184902054602435906115bd565b9033611777565b5050346102d757816003193601126102d757602090610c766123cc565b5050346102d757816003193601126102d7576020905160128152f35b5050346102d75760603660031901126102d7576020906106856113416114ed565b611349611508565b60443591611358833383611879565b6115df565b5050346102d757816003193601126102d757602090610c766126b4565b5050346102d757806003193601126102d75760209061068561139a6114ed565b6024359033611777565b9291905034610eb55783600319360112610eb557600354600181811c918690828116801561148c575b6020958686108214611479575084885290811561145757506001146113fe575b6108b986866108af828b038361159b565b929550600383527fc2575a0e9e593c00f959f8c92f12db2869c3395a3b0502d05e2516446f71f85b5b82841061144457505050826108b9946108af9282010194386113ed565b8054868501880152928601928101611427565b60ff191687860152505050151560051b83010192506108af826108b9386113ed565b634e487b7160e01b845260229052602483fd5b93607f16936113cd565b919091602080825283519081818401526000945b8286106114d75750508060409394116114ca575b601f01601f1916010190565b60008382840101526114be565b85810182015184870160400152948101946114aa565b600435906001600160a01b038216820361150357565b600080fd5b602435906001600160a01b038216820361150357565b1561152557565b606460405162461bcd60e51b815260206004820152602060248201527f4f776e61626c653a2063616c6c6572206973206e6f7420746865206f776e65726044820152fd5b6040810190811067ffffffffffffffff82111761158557604052565b634e487b7160e01b600052604160045260246000fd5b90601f8019910116810190811067ffffffffffffffff82111761158557604052565b811981116115c9570190565b634e487b7160e01b600052601160045260246000fd5b6001600160a01b03808216949392918515611724578183169283156116d35761160a61160f9261273d565b61273d565b6000858152806020526040908181205496858810611680578561167e979882845283602052038383205584825282822061164a8782546115bd565b905584816000805160206128a2833981519152602086518a8152a38152600b60205282828220541693815220541690611bb3565b565b825162461bcd60e51b815260206004820152602660248201527f45524332303a207472616e7366657220616d6f756e7420657863656564732062604482015265616c616e636560d01b6064820152608490fd5b60405162461bcd60e51b815260206004820152602360248201527f45524332303a207472616e7366657220746f20746865207a65726f206164647260448201526265737360e81b6064820152608490fd5b60405162461bcd60e51b815260206004820152602560248201527f45524332303a207472616e736665722066726f6d20746865207a65726f206164604482015264647265737360d81b6064820152608490fd5b6001600160a01b0390811691821561182857169182156117d85760207f8c5be1e5ebec7d5bd14f71427d1e84f3dd0314c0f7b2291e5b200ac8c7c3b925918360005260018252604060002085600052825280604060002055604051908152a3565b60405162461bcd60e51b815260206004820152602260248201527f45524332303a20617070726f766520746f20746865207a65726f206164647265604482015261737360f01b6064820152608490fd5b60405162461bcd60e51b8152602060048201526024808201527f45524332303a20617070726f76652066726f6d20746865207a65726f206164646044820152637265737360e01b6064820152608490fd5b9060018060a01b03808316600052600160205260406000209082166000526020526040600020549260001984036118b1575b50505050565b8084106118cc576118c3930391611777565b388080806118ab565b60405162461bcd60e51b815260206004820152601d60248201527f45524332303a20696e73756666696369656e7420616c6c6f77616e63650000006044820152606490fd5b600d5481101561194857600d6000527fd7b6990105719101dabeb77144f2a3385c8033acd3af97e9423a695e81ad1eb50190600090565b634e487b7160e01b600052603260045260246000fd5b6007548110156119485760076000527fa66cc928b5edb82af9bd49922954155ab7b0942694bea4ce44661d9a8736c6880190600090565b6006548110156119485760066000527ff652222313e28459528d920b65115c16c04f3efc82aaedc97be59f3f377c0d3f0190600090565b80548210156119485760005260206000200190600090565b8015611a6a576008548111611a25576119fc9061204a565b6006548103611a0e5750600090600090565b611a179061195e565b90549060031b1c9060019190565b60405162461bcd60e51b815260206004820152601d60248201527f4552433230536e617073686f743a206e6f6e6578697374656e742069640000006044820152606490fd5b60405162461bcd60e51b815260206004820152601660248201527504552433230536e617073686f743a20696420697320360541b6044820152606490fd5b8015611a6a576008548111611a2557611ac190826120f6565b81548103611ad3575050600090600090565b6001611a1792016119cc565b8181106115c9570390565b15611af157565b60405162461bcd60e51b815260206004820152601f60248201527f4552433230566f7465733a20626c6f636b206e6f7420796574206d696e6564006044820152606490fd5b61167e91611b6160018060a01b038084169384600052600b602052816040600020541692839161260d565b9480600052600b602052604060002092851692836bffffffffffffffffffffffff60a01b8254161790557f3134e8a2e6d97e929a7e54011ea5485d7d196dd5f0ba4d4ef95803e8e3fc257f6000604051a45b6001600160a01b039182169291168083141580611f15575b611bd457505050565b80611da2575b5081611be4575050565b6000828152600c60205260408120805480159291908315611d6e57825b6001600160e01b0390811695611c1790876115bd565b941580611d34575b15611c7f5750611c2e8461253f565b9260018210611c6b57506000805160206128c28339815191529492610fcc60409593611c5e9360001901906119cc565b82519182526020820152a2565b634e487b7160e01b81526011600452602490fd5b91611c89436125a8565b90611c938661253f565b9260405191611ca183611569565b63ffffffff8094168352856020840195168552600160401b821015611d205790611cd0916001820181556119cc565b959095611d0c575051915163ffffffff9190921616911660201b63ffffffff19161790556000805160206128c283398151915291604091611c5e565b634e487b7160e01b81526004819052602490fd5b634e487b7160e01b87526041600452602487fd5b5060018210611d5a5763ffffffff611d506000198401856119cc565b5054164314611c1f565b634e487b7160e01b84526011600452602484fd5b60018110611d8e57611d846000198201836119cc565b505460201c611c01565b634e487b7160e01b83526011600452602483fd5b6000818152600c602052604081208054918215918215611ee05781935b6001600160e01b0394851694611dd58887611adf565b941580611eba575b15611e2d5750611dec8461253f565b9260018210611c6b57506000805160206128c28339815191529492610fcc60409593611e1c9360001901906119cc565b82519182526020820152a238611bda565b91611e37436125a8565b90611e418661253f565b9260405191611e4f83611569565b63ffffffff8094168352856020840195168552600160401b821015611d205790611e7e916001820181556119cc565b959095611d0c575051915163ffffffff9190921616911660201b63ffffffff19161790556000805160206128c283398151915291604091611e1c565b5060018210611d5a5763ffffffff611ed66000198401856119cc565b5054164314611ddd565b60018410611f0157611ef66000198501826119cc565b505460201c93611dbf565b634e487b7160e01b82526011600452602482fd5b50811515611bcb565b600d5490918115916000831561202a575060005b6001600160e01b0390811694611f489086611adf565b931580612005575b15611f775750611f5f8361253f565b600182106115c957610fcc61167e9260001901611911565b611f80436125a8565b90611f8a8561253f565b60405193611f9785611569565b63ffffffff8094168552826020860192168252600160401b81101561158557806001611fc69201600d55611911565b939093611fef579351905163ffffffff9190941616921660201b63ffffffff1916919091179055565b634e487b7160e01b600052600060045260246000fd5b50600182106115c95763ffffffff6120206000198401611911565b5054164314611f50565b60018210611c6b57506120406000198201611911565b505460201c611f32565b6006549081156120ef576000915b8083106120a757508115159081612082575b501561207f57600181106115c9576000190190565b90565b9050600182106115c9576120996000198301611995565b90549060031b1c143861206a565b6001906120ba818518831c8286166115bd565b91836120c584611995565b90549060031b1c116000146120db575050612058565b9093509060011981116115c9570191612058565b5050600090565b805491821561219d576000925b8084106121545750821515918261212b575b50501561207f57600181106115c9576000190190565b909150600183106115c957612145906000198401906119cc565b90549060031b1c143880612115565b600190612167818618831c8287166115bd565b918361217384876119cc565b90549060031b1c11600014612189575050612103565b9094509060011981116115c9570192612103565b505050600090565b600581101561230157806121b65750565b600181036122035760405162461bcd60e51b815260206004820152601860248201527f45434453413a20696e76616c6964207369676e617475726500000000000000006044820152606490fd5b600281036122505760405162461bcd60e51b815260206004820152601f60248201527f45434453413a20696e76616c6964207369676e6174757265206c656e677468006044820152606490fd5b600381036122a85760405162461bcd60e51b815260206004820152602260248201527f45434453413a20696e76616c6964207369676e6174757265202773272076616c604482015261756560f01b6064820152608490fd5b6004146122b157565b60405162461bcd60e51b815260206004820152602260248201527f45434453413a20696e76616c6964207369676e6174757265202776272076616c604482015261756560f01b6064820152608490fd5b634e487b7160e01b600052602160045260246000fd5b9291907f7fffffffffffffffffffffffffffffff5d576e7357a4501ddfe92f46681b20a083116123c05760ff16601b811415806123b5575b6123a9579160809493916020936040519384528484015260408301526060820152600093849182805260015afa1561239c5781516001600160a01b03811615612396579190565b50600190565b50604051903d90823e3d90fd5b50505050600090600490565b50601c81141561234f565b50505050600090600390565b307f00000000000000000000000000000000000000000000000000000000000000006001600160a01b031614806124ce575b15612427577f000000000000000000000000000000000000000000000000000000000000000090565b60405160208101907f000000000000000000000000000000000000000000000000000000000000000082527f000000000000000000000000000000000000000000000000000000000000000060408201527f000000000000000000000000000000000000000000000000000000000000000060608201524660808201523060a082015260a0815260c0810181811067ffffffffffffffff8211176115855760405251902090565b507f000000000000000000000000000000000000000000000000000000000000000046146123fe565b6124ff6123cc565b9060405190602082019261190160f01b845260228301526042820152604281526080810181811067ffffffffffffffff8211176115855760405251902090565b6001600160e01b0390818111612553571690565b60405162461bcd60e51b815260206004820152602760248201527f53616665436173743a2076616c756520646f65736e27742066697420696e20326044820152663234206269747360c81b6064820152608490fd5b63ffffffff908181116125b9571690565b60405162461bcd60e51b815260206004820152602660248201527f53616665436173743a2076616c756520646f65736e27742066697420696e203360448201526532206269747360d01b6064820152608490fd5b60018060a01b031690600091808352826020526040832054604051916326b71a2960e11b83526004830152602082602481739f5c41da4dbdd0c59f663053ac79364d02a5381d5afa9182156126a957849261266f575b5061207f9293506115bd565b9091506020813d82116126a1575b8161268a6020938361159b565b81010312610eb55761207f92935051908392612663565b3d915061267d565b6040513d86823e3d90fd5b6002546040516336ceb48b60e21b81529190602083600481739f5c41da4dbdd0c59f663053ac79364d02a5381d5afa928315612731576000936126fe575b509161207f91926115bd565b6020813d8211612729575b816127166020938361159b565b81010312610eb55751925061207f6126f2565b3d9150612709565b6040513d6000823e3d90fd5b6001600160a01b03811660009081526005602052604090209061275f9061260d565b6008548061276c8461287c565b1061277657505050565b8261278660019261167e95612818565b01612818565b6127946126b4565b60085490816127a161284f565b106127aa575050565b600654600160401b9081811015611585578060016127cb9201600655611995565b9381549460031b946000199586811b9283911b169119161790556007549081101561158557806001612800920160075561195e565b909283549160031b90811b9283911b16911916179055565b8054600160401b81101561158557612835916001820181556119cc565b819291549060031b600019811b9283911b16911916179055565b6006548061285d5750600090565b600181106115c9576128729060001901611995565b90549060031b1c90565b8054908161288b575050600090565b600182106115c9576128729160001901906119cc56feddf252ad1be2c89b69c2b068fc378daa952ba7f163c4a11628f55a4df523b3efdec2bacdd2f05b59de34da9b523dff8be42e5e38e818c82fdb0bae774387a724a26469706673582212206722bf098c84825ac37a5540c3daf3e1ee86adb29183f49d583321437bd1d92264736f6c634300080f0033",
  "linkReferences": {},
  "deployedLinkReferences": {}
}