{
  "_format": "hh-sol-artifact-1",
  "contractName": "Factory2",
  "sourceName": "contracts/collection-2-factory/Factory2.sol",
  "abi": [
    {
      "anonymous": false,
      "inputs": [
        {
          "indexed": false,
          "internalType": "string",
          "name": "creatorName",
          "type": "string"
        },
        {
          "indexed": false,
          "internalType": "string",
          "name": "tokenName",
          "type": "string"
        },
        {
          "indexed": false,
          "internalType": "string",
          "name": "tokenSymbol",
          "type": "string"
        },
        {
          "indexed": false,
          "internalType": "string",
          "name": "baseURI",
          "type": "string"
        },
        {
          "indexed": false,
          "internalType": "uint256",
          "name": "maxSupply",
          "type": "uint256"
        },
        {
          "indexed": false,
          "internalType": "address",
          "name": "creatorAddress",
          "type": "address"
        },
        {
          "indexed": false,
          "internalType": "address",
          "name": "contractAddress",
          "type": "address"
        },
        {
          "indexed": false,
          "internalType": "uint96",
          "name": "defaultRoyalty",
          "type": "uint96"
        }
      ],
      "name": "NewCollection",
      "type": "event"
    },
    {
      "inputs": [],
      "name": "CollectionCont",
      "outputs": [
        {
          "internalType": "contract Collection2",
          "name": "",
          "type": "address"
        }
      ],
      "stateMutability": "view",
      "type": "function"
    },
    {
      "inputs": [
        {
          "internalType": "string",
          "name": "creatorName",
          "type": "string"
        },
        {
          "internalType": "string",
          "name": "tokenName",
          "type": "string"
        },
        {
          "internalType": "string",
          "name": "tokenSymbol",
          "type": "string"
        },
        {
          "internalType": "string",
          "name": "baseURI",
          "type": "string"
        },
        {
          "internalType": "uint256",
          "name": "maxSupply",
          "type": "uint256"
        },
        {
          "internalType": "uint96",
          "name": "royaltyNumerator",
          "type": "uint96"
        },
        {
          "internalType": "address",
          "name": "royaltyReciever",
          "type": "address"
        }
      ],
      "name": "newCollection",
      "outputs": [],
      "stateMutability": "nonpayable",
      "type": "function"
    }
  ],
  "bytecode": "0x60808060405234610085576130a18181016001600160401b0381118382101761006f57829161053f833903906000f0801561006357600080546001600160a01b0319166001600160a01b03929092169190911790556040516104b4908161008b8239f35b6040513d6000823e3d90fd5b634e487b7160e01b600052604160045260246000fd5b600080fdfe608060405260048036101561001357600080fd5b600090813560e01c80638ab1b7f2146100e05763ea326f6b1461003557600080fd5b346100dc5760e03660031901126100dc5767ffffffffffffffff81358181116100d8576100659036908401610150565b906024358181116100d45761007d9036908501610150565b916044358281116100d0576100959036908601610150565b916064359081116100d0576100cb946100b091369101610150565b6100b86101cf565b926100c16101e5565b9460843593610329565b604051f35b8580fd5b8480fd5b8380fd5b5080fd5b8234610105578060031936011261010557546001600160a01b03166080908152602090f35b80fd5b600091031261011357565b600080fd5b50634e487b7160e01b600052604160045260246000fd5b67ffffffffffffffff811161014357604052565b61014b610118565b604052565b81601f820112156101135780359067ffffffffffffffff928383116101c2575b60405193601f8401601f19908116603f01168501908111858210176101b5575b6040528284526020838301011161011357816000926020809301838601378301015290565b6101bd610118565b610190565b6101ca610118565b610170565b60a435906001600160601b038216820361011357565b60c435906001600160a01b038216820361011357565b91908251928382526000905b848210610234575092806020939411610227575b601f01601f1916010190565b600083828401015261021b565b90602090818082850101519082860101520190610207565b9691936102976001600160601b039461028960e099989c9b9761027b6102a5968d6101009081815201906101fb565b8c810360208e0152906101fb565b908a820360408c01526101fb565b9088820360608a01526101fb565b60808701989098526001600160a01b0393841660a08701521660c085015216910152565b506040513d6000823e3d90fd5b96919361029760e097946102896001600160601b03989c9b9761027b610305968d6101009081815201906101fb565b60808701989098526001600160a01b0391821660a08701521660c085015216910152565b90939695919492966000976037895460405190733d602d80600a3d3981f3363d3d373d3d3d363d7360601b82526001600160601b03199060601b1660148201526e5af43d82803e903d91602b57fd5bf360881b60288201528af0936001600160a01b03851690811561044057813b1561043c57928a838294938b7f38cf77567eaaf7459f861e2b3b7b01fc51d2a662ba4839d74563e5b3b5bc160d9d9e8c6103f28b9a8e6104119f9e9d6040519a8b998a9889976352c9f04160e01b8952339460048a0161024c565b03925af1801561042f575b610416575b506040519788973394896102d6565b0390a1565b806104236104299261012f565b80610108565b38610402565b6104376102c9565b6103fd565b8a80fd5b60405162461bcd60e51b8152602060048201526016602482015275115490cc4c4d8dce8818dc99585d194819985a5b195960521b6044820152606490fdfea264697066735822122051c5d3d4722ab8b8e1a0d839cef5568e857216e1f7cd630df4bd9046ec60ea4a64736f6c634300080f00336080604052346200002557620000146200002a565b50604051612f939081620000ee8239f35b600080fd5b60005460ff8160081c16600014620000875760405162461bcd60e51b815260206004820152602e60248201526000805160206200308183398151915260448201526d191e481a5b9a5d1a585b1a5e995960921b6064820152608490fd5b60ff8082161015620000a25760ff191660ff17600055600190565b60405162461bcd60e51b815260206004820152602e60248201526000805160206200308183398151915260448201526d191e481a5b9a5d1a585b1a5e995960921b6064820152608490fdfe60806040526004361015610013575b600080fd5b60003560e01c806301ffc9a71461027f57806306fdde0314610276578063081812fc1461026d578063095ea7b3146102645780631805c5231461025b57806318160ddd1461025257806323b872dd146102495780632a55205a146102405780632f745c591461023757806340d097c31461022e57806342842e0e1461022557806342966c681461021c5780634f6ccce71461021357806352c9f0411461020a5780635944c7531461020157806360eb9485146101f85780636352211e146101ef57806370a08231146101e6578063715018a6146101dd5780638a616bc0146101d45780638da5cb5b146101cb57806395d89b41146101c2578063a1448194146101b9578063a22cb465146101b0578063aa1b103f146101a7578063b88d4fde1461019e578063bb99e70114610195578063c87b56dd1461018c578063d5abeb0114610183578063e985e9c51461017a5763f2fde38b1461017257600080fd5b61000e611675565b5061000e611617565b5061000e6115f7565b5061000e61150d565b5061000e611446565b5061000e6112ec565b5061000e6112bd565b5061000e6111d0565b5061000e611194565b5061000e6110ec565b5061000e6110c1565b5061000e611082565b5061000e61101b565b5061000e610fef565b5061000e610fd0565b5061000e610ea8565b5061000e610ddc565b5061000e610d37565b5061000e610c5f565b5061000e610a43565b5061000e610a1a565b5061000e61098c565b5061000e6108d8565b5061000e610821565b5061000e6107f7565b5061000e6107a3565b5061000e610710565b5061000e61051a565b5061000e610491565b5061000e6103ab565b5061000e61029a565b6001600160e01b031981160361000e57565b503461000e57602036600319011261000e5760206004356102ba81610288565b63ffffffff60e01b1663780e9d6360e01b81149081156102e0575b506040519015158152f35b6380ac58cd60e01b81149150811561032c575b8115610301575b50386102d5565b63152a902d60e11b81149150811561031b575b50386102fa565b6301ffc9a760e01b14905038610314565b635b5e139f60e01b811491506102f3565b918091926000905b82821061035d575011610356575050565b6000910152565b91508060209183015181860152018291610345565b9060209161038b8151809281855285808601910161033d565b601f01601f1916010190565b9060206103a8928181520190610372565b90565b503461000e5760008060031936011261048e5760405190806097546103cf8161134c565b808552916001918083169081156104645750600114610409575b610405856103f981870382610664565b60405191829182610397565b0390f35b9250609783527f354a83ed9988f79f6038d4c7a7dadbad8af32f4ad6df893e0e5807a1b1944ff95b82841061044c5750505081016020016103f9826104056103e9565b80546020858701810191909152909301928101610431565b869550610405969350602092506103f994915060ff191682840152151560051b82010192936103e9565b80fd5b503461000e57602036600319011261000e5760206104b0600435611951565b6040516001600160a01b039091168152f35b600435906001600160a01b038216820361000e57565b60a435906001600160a01b038216820361000e57565b60e435906001600160a01b038216820361000e57565b602435906001600160a01b038216820361000e57565b503461000e57604036600319011261000e576105346104c2565b6024356105408161181f565b916001600160a01b0380841690821681146105bb576105729361056d913314908115610574575b506118df565b611e1c565b005b6001600160a01b03166000908152609c602052604090206105b591506105ae9033905b9060018060a01b0316600052602052604060002090565b5460ff1690565b38610567565b60405162461bcd60e51b815260206004820152602160248201527f4552433732313a20617070726f76616c20746f2063757272656e74206f776e656044820152603960f91b6064820152608490fd5b50634e487b7160e01b600052604160045260246000fd5b604081019081106001600160401b0382111761063c57604052565b61064461060a565b604052565b602081019081106001600160401b0382111761063c57604052565b90601f801991011681019081106001600160401b0382111761063c57604052565b6040519061069282610621565b565b6020906001600160401b0381116106b1575b601f01601f19160190565b6106b961060a565b6106a6565b9291926106ca82610694565b916106d86040519384610664565b82948184528183011161000e578281602093846000960137010152565b9080601f8301121561000e578160206103a8933591016106be565b503461000e57604036600319011261000e576004356024356001600160401b03811161000e5761079e6107687f34cb3b6db5c6f119ea41d420623c37f7af48a826c0fa0d5f851ec4a45d99ab039236906004016106f5565b6107846001600160a01b0361077c8661181f565b163314612bfb565b604051918291338352604060208401526040830190610372565b0390a2005b503461000e57600036600319011261000e57602060cb54604051908152f35b606090600319011261000e576001600160a01b0390600435828116810361000e5791602435908116810361000e579060443590565b503461000e57610572610809366107c2565b9161081c6108178433611aec565b6119e3565b611c9d565b503461000e57604036600319011261000e57602435600435600052606660205261084e604060002061205d565b80519091906001600160a01b0316156108c8575b6104056108946001600160601b036020850151169383600019048511841515166108bb575b516001600160a01b031690565b6127106040519485940204908360209093929193604081019460018060a01b031681520152565b6108c3611c34565b610887565b90506108d2612037565b90610862565b503461000e57604036600319011261000e576108f26104c2565b602435906108ff816117a7565b821015610933576001600160a01b0316600090815260c9602090815260408083209383529281529082902054915191825290f35b60405162461bcd60e51b815260206004820152602b60248201527f455243373231456e756d657261626c653a206f776e657220696e646578206f7560448201526a74206f6620626f756e647360a81b6064820152608490fd5b503461000e57602036600319011261000e576109a66104c2565b6109bc60018060a01b0361015f5416331461170d565b60008060019283805b6109da575b50906109d591612aaa565b604051f35b919091156109f7575b5061019180548085019091559082846109c5565b6000818152609960205260409020546001600160a01b03166109e35790836109ca565b503461000e57610572610a2c366107c2565b9060405192610a3a84610649565b60008452611a49565b503461000e57602036600319011261000e57600435610a628133611aec565b15610c015780806000610a776105729461181f565b6001600160a01b03811690610ac39082158414610b2d57610a9785612daf565b610aa085612e28565b610aa985611dc6565b6001600160a01b03166000908152609a6020526040902090565b610acd8154611c4b565b9055610af6610ae6846000526099602052604060002090565b80546001600160a01b0319169055565b7fddf252ad1be2c89b69c2b068fc378daa952ba7f163c4a11628f55a4df523b3ef82604051a4600052606660205260006040812055565b610b36816117a7565b60018110610bf4575b841901610b9b859187835260ca6020526040832054818103610ba1575b5082610b728960005260ca602052604060002090565b556001600160a01b038416600090815260c9602052604090205b90600052602052604060002090565b55610a97565b86845260c960205260408420828552602052610bed604085205480610bdc84610b8c8a60018060a01b031660005260c9602052604060002090565b5560005260ca602052604060002090565b5538610b5c565b610bfc611c34565b610b3f565b60405162461bcd60e51b815260206004820152603060248201527f4552433732314275726e61626c653a2063616c6c6572206973206e6f74206f7760448201526f1b995c881b9bdc88185c1c1c9bdd995960821b6064820152608490fd5b503461000e57602036600319011261000e5760043560cb54811015610cb15760cb6000527fa7ce836d032b2bf62b7e2097a8e0a6d8aeb35405ad15271e96d3b0188a1d06fb0154604051908152602090f35b60405162461bcd60e51b815260206004820152602c60248201527f455243373231456e756d657261626c653a20676c6f62616c20696e646578206f60448201526b7574206f6620626f756e647360a01b6064820152608490fd5b60c435906001600160601b038216820361000e57565b604435906001600160601b038216820361000e57565b503461000e5761010036600319011261000e576001600160401b0360043581811161000e57610d6a9036906004016106f5565b60243582811161000e57610d829036906004016106f5565b9060443583811161000e57610d9b9036906004016106f5565b9060643593841161000e57610db76105729436906004016106f5565b90610dc06104d8565b91610dc9610d0b565b93610dd26104ee565b9560843593612520565b503461000e57606036600319011261000e57610df6610504565b610dfe610d21565b61015f546001600160a01b0390610e18908216331461170d565b610e2360043561181f565b163303610e335761057291612994565b60405162461bcd60e51b815260206004820152604160248201527f436f6c6c656374696f6e3a20796f75206d75737420626520746865206f776e6560448201527f72206f662074686520746f6b656e20746f207365742074686520726f79616c746064820152607960f81b608482015260a490fd5b503461000e5760208060031936011261000e576001600160401b039060043582811161000e57610edc9036906004016106f5565b91610ef360018060a01b0361015f5416331461170d565b8251908111610fc3575b61019291610f1482610f0f855461134c565b61217a565b80601f8311600114610f4d5750819293600092610f42575b50508160011b916000199060031b1c1916179055005b015190503880610f2c565b90601f19831694610f6f610192600052600080516020612f3e83398151915290565b926000905b878210610fab575050836001959610610f92575b505050811b019055005b015160001960f88460031b161c19169055388080610f88565b80600185968294968601518155019501930190610f74565b610fcb61060a565b610efd565b503461000e57602036600319011261000e5760206104b060043561181f565b503461000e57602036600319011261000e57602061101361100e6104c2565b6117a7565b604051908152f35b503461000e5760008060031936011261048e5761015f80546001600160a01b038116919061104a33841461170d565b6001600160a01b03191690556040519082907f8be0079c531659141344cd1fd0a4f28419497f9722a3daafe3b4186f6b6457e08284a3f35b503461000e57602036600319011261000e576110aa60018060a01b0361015f5416331461170d565b610572600435600052606660205260006040812055565b503461000e57600036600319011261000e5761015f546040516001600160a01b039091168152602090f35b503461000e5760008060031936011261048e5760405190806098546111108161134c565b80855291600191808316908115610464575060011461113957610405856103f981870382610664565b9250609883527f2237a976fa961f5921fd19f2b03c925c725d77b20ce8f790c19709c03de4d8145b82841061117c5750505081016020016103f9826104056103e9565b80546020858701810191909152909301928101611161565b503461000e57604036600319011261000e576105726111b16104c2565b6111c760018060a01b0361015f5416331461170d565b60243590612aaa565b503461000e57604036600319011261000e576111ea6104c2565b602435801515810361000e576001600160a01b0382169133831461127857816112356112469233600052609c60205260406000209060018060a01b0316600052602052604060002090565b9060ff801983541691151516179055565b604051901515815233907f17307eab39ab6107e8899845ad3d59bd9653f200f220920489ca2b5937696c3190602090a3005b60405162461bcd60e51b815260206004820152601960248201527f4552433732313a20617070726f766520746f2063616c6c6572000000000000006044820152606490fd5b503461000e57600036600319011261000e576112e560018060a01b0361015f5416331461170d565b6000606555005b503461000e57608036600319011261000e576113066104c2565b61130e610504565b606435916001600160401b03831161000e573660238401121561000e576113426105729336906024816004013591016106be565b9160443591611a49565b90600182811c9216801561137c575b602083101461136657565b634e487b7160e01b600052602260045260246000fd5b91607f169161135b565b6040519060008261019391825461139c8161134c565b8084529360019180831690811561142257506001146113c4575b505061069292500383610664565b600090815291507ffc8af01f449989052b52093a58fc9f42d0b11f0c6dd5dca0463dab62346ccc685b8483106114075750610692935050810160200138806113b6565b81935090816020925483858a010152019101909185926113ed565b9150506020925061069294915060ff191682840152151560051b82010138806113b6565b503461000e5760008060031936011261048e5760405190806101929081549061146e8261134c565b808652926001928084169081156114e05750600114611498575b610405866103f981880382610664565b81529250600080516020612f3e8339815191525b8284106114c85750505081016020016103f98261040538611488565b805460208587018101919091529093019281016114ac565b9050869550610405969350602092506103f994915060ff191682840152151560051b820101929338611488565b503461000e57602036600319011261000e576004356000818152609960205260409020546001600160a01b03161561159a57611547611386565b805115611588576103f96115749161157a611564610405956120a1565b60405194859360208501906118c8565b906118c8565b03601f198101835282610664565b5050610405611595611897565b6103f9565b60405162461bcd60e51b815260206004820152602f60248201527f4552433732314d657461646174613a2055524920717565727920666f72206e6f60448201526e3732bc34b9ba32b73a103a37b5b2b760891b6064820152608490fd5b503461000e57600036600319011261000e57602061019454604051908152f35b503461000e57604036600319011261000e57602060ff6116696116386104c2565b611640610504565b6001600160a01b039182166000908152609c865260408082209290931681526020919091522090565b54166040519015158152f35b503461000e57602036600319011261000e5761168f6104c2565b61015f546001600160a01b03906116a9908216331461170d565b8116156116b95761057290611758565b60405162461bcd60e51b815260206004820152602660248201527f4f776e61626c653a206e6577206f776e657220697320746865207a65726f206160448201526564647265737360d01b6064820152608490fd5b1561171457565b606460405162461bcd60e51b815260206004820152602060248201527f4f776e61626c653a2063616c6c6572206973206e6f7420746865206f776e65726044820152fd5b61015f80546001600160a01b039283166001600160a01b031982168117909255604051919216907f8be0079c531659141344cd1fd0a4f28419497f9722a3daafe3b4186f6b6457e090600090a3565b6001600160a01b031680156117c757600052609a60205260406000205490565b60405162461bcd60e51b815260206004820152602a60248201527f4552433732313a2062616c616e636520717565727920666f7220746865207a65604482015269726f206164647265737360b01b6064820152608490fd5b6000908152609960205260409020546001600160a01b031680156118405790565b60405162461bcd60e51b815260206004820152602960248201527f4552433732313a206f776e657220717565727920666f72206e6f6e657869737460448201526832b73a103a37b5b2b760b91b6064820152608490fd5b60405190602082018281106001600160401b038211176118bb575b60405260008252565b6118c361060a565b6118b2565b906118db6020928281519485920161033d565b0190565b156118e657565b60405162461bcd60e51b815260206004820152603860248201527f4552433732313a20617070726f76652063616c6c6572206973206e6f74206f7760448201527f6e6572206e6f7220617070726f76656420666f7220616c6c00000000000000006064820152608490fd5b6000818152609960205260409020546001600160a01b031615611989576000908152609b60205260409020546001600160a01b031690565b60405162461bcd60e51b815260206004820152602c60248201527f4552433732313a20617070726f76656420717565727920666f72206e6f6e657860448201526b34b9ba32b73a103a37b5b2b760a11b6064820152608490fd5b156119ea57565b60405162461bcd60e51b815260206004820152603160248201527f4552433732313a207472616e736665722063616c6c6572206973206e6f74206f6044820152701ddb995c881b9bdc88185c1c1c9bdd9959607a1b6064820152608490fd5b916106929391611a7093611a606108178433611aec565b611a6b838383611c9d565b611fe4565b611ac8565b60809060208152603260208201527f4552433732313a207472616e7366657220746f206e6f6e20455243373231526560408201527131b2b4bb32b91034b6b83632b6b2b73a32b960711b60608201520190565b15611acf57565b60405162461bcd60e51b815280611ae860048201611a75565b0390fd5b6000828152609960205260409020546001600160a01b031615611b8257611b128261181f565b9160018060a01b0390818316928285168414948515611b51575b50508315611b3b575b50505090565b611b4791929350611951565b1614388080611b35565b6001600160a01b03166000908152609c6020526040902091945060ff91611b789190610597565b5416923880611b2c565b60405162461bcd60e51b815260206004820152602c60248201527f4552433732313a206f70657261746f7220717565727920666f72206e6f6e657860448201526b34b9ba32b73a103a37b5b2b760a11b6064820152608490fd5b15611be357565b60405162461bcd60e51b8152602060048201526024808201527f4552433732313a207472616e7366657220746f20746865207a65726f206164646044820152637265737360e01b6064820152608490fd5b50634e487b7160e01b600052601160045260246000fd5b60018110611c5b575b6000190190565b611c63611c34565b611c54565b6001906001198111611c78570190565b6118db611c34565b8019603011611c90575b60300190565b611c98611c34565b611c8a565b90611ca78361181f565b6001600160a01b038381169290918216839003611d7357611ce7611d4a92821694611cd3861515611bdc565b611cde878483612c72565b610aa987611dc6565b611cf18154611c4b565b90556001600160a01b0381166000908152609a60205260409020611d158154611c68565b9055611d2b856000526099602052604060002090565b80546001600160a01b0319166001600160a01b03909216919091179055565b7fddf252ad1be2c89b69c2b068fc378daa952ba7f163c4a11628f55a4df523b3ef6000604051a4565b60405162461bcd60e51b815260206004820152602560248201527f4552433732313a207472616e736665722066726f6d20696e636f72726563742060448201526437bbb732b960d91b6064820152608490fd5b6000818152609b6020526040812080546001600160a01b03191690556001600160a01b03611df38361181f565b167f8c5be1e5ebec7d5bd14f71427d1e84f3dd0314c0f7b2291e5b200ac8c7c3b92582604051a4565b6000828152609b6020526040902080546001600160a01b0319166001600160a01b0383161790556001600160a01b0380611e558461181f565b169116907f8c5be1e5ebec7d5bd14f71427d1e84f3dd0314c0f7b2291e5b200ac8c7c3b9256000604051a4565b9081602091031261000e57516103a881610288565b6103a8939260809260018060a01b031682526000602083015260408201528160608201520190610372565b6001600160a01b0391821681529116602082015260408101919091526080606082018190526103a892910190610372565b3d15611f1e573d90611f0482610694565b91611f126040519384610664565b82523d6000602084013e565b606090565b909190803b15611fdc57611f55602091600093604051948580948193630a85bd0160e11b998a84523360048501611e97565b03926001600160a01b03165af160009181611fac575b50611f9e57611f78611ef3565b80519081611f995760405162461bcd60e51b815280611ae860048201611a75565b602001fd5b6001600160e01b0319161490565b611fce91925060203d8111611fd5575b611fc68183610664565b810190611e82565b9038611f6b565b503d611fbc565b505050600190565b92909190823b1561201757611f55926020926000604051809681958294630a85bd0160e11b9a8b85523360048601611ec2565b50505050600190565b50634e487b7160e01b600052603260045260246000fd5b6040519061204482610621565b6065546001600160a01b038116835260a01c6020830152565b9060405161206a81610621565b91546001600160a01b038116835260a01c6020830152565b90602091805182101561209457010190565b61209c612020565b010190565b801561215c57806000908282935b61213657506120bd83610694565b926120cb6040519485610664565b80845281601f196120db83610694565b013660208701375b6120ed5750505090565b6120f690611c4b565b90600a9061212161211161210b848406611c80565b60ff1690565b60f81b6001600160f81b03191690565b841a61212d8487612082565b530490816120e3565b926001600a91600019811461214f575b019304806120af565b612157611c34565b612146565b5060405161216981610621565b60018152600360fc1b602082015290565b601f8111612186575050565b6000906101928252600080516020612f3e833981519152906020601f850160051c830194106121d0575b601f0160051c01915b8281106121c557505050565b8181556001016121b9565b90925082906121b0565b601f81116121e6575050565b600090609782527f354a83ed9988f79f6038d4c7a7dadbad8af32f4ad6df893e0e5807a1b1944ff9906020601f850160051c83019410612241575b601f0160051c01915b82811061223657505050565b81815560010161222a565b9092508290612221565b601f8111612257575050565b60009061019382527ffc8af01f449989052b52093a58fc9f42d0b11f0c6dd5dca0463dab62346ccc68906020601f850160051c830194106122b3575b601f0160051c01915b8281106122a857505050565b81815560010161229c565b9092508290612293565b601f81116122c9575050565b600090609882527f2237a976fa961f5921fd19f2b03c925c725d77b20ce8f790c19709c03de4d814906020601f850160051c83019410612324575b601f0160051c01915b82811061231957505050565b81815560010161230d565b9092508290612304565b9081516001600160401b03811161241c575b6101939061235781612352845461134c565b61224b565b602080601f8311600114612393575081929394600092612388575b50508160011b916000199060031b1c1916179055565b015190503880612372565b90601f198316956123c76101936000527ffc8af01f449989052b52093a58fc9f42d0b11f0c6dd5dca0463dab62346ccc6890565b926000905b888210612404575050836001959697106123eb575b505050811b019055565b015160001960f88460031b161c191690553880806123e1565b806001859682949686015181550195019301906123cc565b61242461060a565b612340565b9081516001600160401b038111612513575b61244f8161244a60985461134c565b6122bd565b602080601f831160011461248b5750819293600092612480575b50508160011b916000199060031b1c191617609855565b015190503880612469565b90601f198316946124be60986000527f2237a976fa961f5921fd19f2b03c925c725d77b20ce8f790c19709c03de4d81490565b926000905b8782106124fb5750508360019596106124e2575b505050811b01609855565b015160001960f88460031b161c191690553880806124d7565b806001859682949686015181550195019301906124c3565b61251b61060a565b61243b565b969594919061252d612821565b97886126d8575b80516001600160401b0381116126cb575b6101929161255782610f0f855461134c565b60209081601f84116001146126435750936125b896938361259e946125be9b9a98946125b398600092612638575b50508160011b916000199060031b1c1916179055612861565b6125a6612983565b6125ae612983565b6127a4565b61232e565b61019455565b6001600160601b038116612614575b50506125d557565b6125e561ff001960005416600055565b604051600181527f7f26b83ff96e1f2b6a682f133852f6798a09c465da95921460cefb384740249890602090a1565b6126319161262c6001600160a01b03821615156126ec565b612994565b38806125cd565b015190503880612585565b6101926000529190601f198416600080516020612f3e833981519152936000905b8282106126b3575050846125be9b9a98946125b398946125b89b989461259e986001951061269a575b505050811b019055612861565b015160001960f88460031b161c1916905538808061268d565b80600186978294978701518155019601940190612664565b6126d361060a565b612545565b61010061ff00196000541617600055612534565b156126f357565b60405162461bcd60e51b8152602060048201526024808201527f436f6c6c656374696f6e3a20496e76616c696420526f79616c7479207265636560448201526334bb32b960e11b6064820152608490fd5b1561274b57565b60405162461bcd60e51b815260206004820152602b60248201527f496e697469616c697a61626c653a20636f6e7472616374206973206e6f74206960448201526a6e697469616c697a696e6760a81b6064820152608490fd5b610692906127b960ff60005460081c16612744565b611758565b156127c557565b60405162461bcd60e51b815260206004820152602e60248201527f496e697469616c697a61626c653a20636f6e747261637420697320616c72656160448201526d191e481a5b9a5d1a585b1a5e995960921b6064820152608490fd5b60005460ff8160081c16600014612843575061283e303b156127be565b600090565b80612854600160ff819416106127be565b60ff191617600055600190565b9061287c60ff60005460081c1661287781612744565b612744565b81516001600160401b038111612976575b6128a18161289c60975461134c565b6121da565b602080601f83116001146128e357508190610692946000926128d8575b50508160011b916000199060031b1c191617609755612429565b0151905038806128be565b919293601f19841661291760976000527f354a83ed9988f79f6038d4c7a7dadbad8af32f4ad6df893e0e5807a1b1944ff990565b936000905b82821061295e57505091600193918561069297969410612945575b505050811b01609755612429565b015160001960f88460031b161c19169055388080612937565b8060018697829497870151815501960194019061291c565b61297e61060a565b61288d565b61069260ff60005460081c16612744565b6127106001600160601b03831611612a52576001600160a01b03811615612a0d576129e6610692926129d66129c7610685565b6001600160a01b039094168452565b6001600160601b03166020830152565b805160209091015160a01b6001600160a01b0319166001600160a01b039190911617606555565b60405162461bcd60e51b815260206004820152601960248201527f455243323938313a20696e76616c6964207265636569766572000000000000006044820152606490fd5b60405162461bcd60e51b815260206004820152602a60248201527f455243323938313a20726f79616c7479206665652077696c6c206578636565646044820152692073616c65507269636560b01b6064820152608490fd5b90604051612ab781610649565b60008152612ac9610194548310612bfb565b6001600160a01b038316918215612bb7576000818152609960205260409020546001600160a01b0316612b72578381611a7094612b098261069298612c47565b6001600160a01b0383166000908152609a60205260409020612b2b8154611c68565b9055612b4583611d2b846000526099602052604060002090565b60007fddf252ad1be2c89b69c2b068fc378daa952ba7f163c4a11628f55a4df523b3ef81604051a4611f23565b60405162461bcd60e51b815260206004820152601c60248201527f4552433732313a20746f6b656e20616c7265616479206d696e746564000000006044820152606490fd5b606460405162461bcd60e51b815260206004820152602060248201527f4552433732313a206d696e7420746f20746865207a65726f20616464726573736044820152fd5b15612c0257565b60405162461bcd60e51b815260206004820152601c60248201527f436f6c6c656374696f6e3a20496e76616c696420746f6b656e204964000000006044820152606490fd5b90612c5181612daf565b6001600160a01b038216612c69576106929150612e28565b61069291612d77565b9091906001600160a01b038082169182612cac5750612c9083612daf565b831680612ca35750506106929150612e28565b03612c69575050565b8185168303612cbc575b50612c90565b612d21612cc8826117a7565b60018110612d6a575b60001901610b8c60009387855260ca6020526040852054838103612d28575b5084612d068960005260ca602052604060002090565b556001600160a01b0316600090815260c96020526040902090565b5538612cb6565b87865260c960205260408620848752602052612d63604087205480610bdc84610b8c8760018060a01b031660005260c9602052604060002090565b5538612cf0565b612d72611c34565b612cd1565b604090612d83816117a7565b9260009160018060a01b0316825260c96020528282208483526020528083832055815260ca6020522055565b60cb548160005260cc6020528060406000205568010000000000000000811015612e1b575b600181018060cb55811015612e0e575b60cb6000527fa7ce836d032b2bf62b7e2097a8e0a6d8aeb35405ad15271e96d3b0188a1d06fb0155565b612e16612020565b612de4565b612e2361060a565b612dd4565b60cb805460018110612f30575b60009083825260cc60205281612ed760408220549560001996848881011015612f23575b868452612ec67fa7ce836d032b2bf62b7e2097a8e0a6d8aeb35405ad15271e96d3b0188a1d06fa958681015490831015612f16575b88865280837fa7ce836d032b2bf62b7e2097a8e0a6d8aeb35405ad15271e96d3b0188a1d06fb015560005260cc602052604060002090565b5560005260cc602052604060002090565b558254938415612f025784019380851015612ef5575b838352015555565b612efd612020565b612eed565b634e487b7160e01b83526031600452602483fd5b612f1e612020565b612e8e565b612f2b612020565b612e59565b612f38611c34565b612e3556fefcfced99f9d921eebdc59aa6f7a664084bd564a3d2d54ebc1a5c057c99c67abaa26469706673582212205ccd6aaec3cf286a02fbeef5af075ef6b5af7889c75ba671a640e93c3375800e64736f6c634300080f0033496e697469616c697a61626c653a20636f6e747261637420697320616c726561",
  "linkReferences": {},
  "deployedLinkReferences": {}
}