{
  "_format": "hh-sol-artifact-1",
  "contractName": "Donation",
  "sourceName": "contracts/2_donation/Donation.sol",
  "abi": [
    {
      "anonymous": false,
      "inputs": [
        {
          "indexed": true,
          "internalType": "address",
          "name": "owner",
          "type": "address"
        },
        {
          "indexed": true,
          "internalType": "address",
          "name": "operator",
          "type": "address"
        },
        {
          "indexed": true,
          "internalType": "uint256",
          "name": "tokenId",
          "type": "uint256"
        }
      ],
      "name": "Approval",
      "type": "event"
    },
    {
      "anonymous": false,
      "inputs": [
        {
          "indexed": true,
          "internalType": "address",
          "name": "owner",
          "type": "address"
        },
        {
          "indexed": true,
          "internalType": "address",
          "name": "operator",
          "type": "address"
        },
        {
          "indexed": false,
          "internalType": "bool",
          "name": "approved",
          "type": "bool"
        }
      ],
      "name": "ApprovalForAll",
      "type": "event"
    },
    {
      "anonymous": false,
      "inputs": [
        {
          "indexed": true,
          "internalType": "address",
          "name": "from",
          "type": "address"
        },
        {
          "indexed": true,
          "internalType": "address",
          "name": "to",
          "type": "address"
        },
        {
          "indexed": true,
          "internalType": "uint256",
          "name": "tokenId",
          "type": "uint256"
        }
      ],
      "name": "Transfer",
      "type": "event"
    },
    {
      "inputs": [],
      "name": "contractBalance",
      "outputs": [
        {
          "internalType": "uint256",
          "name": "",
          "type": "uint256"
        }
      ],
      "stateMutability": "view",
      "type": "function"
    },
    {
      "inputs": [
        {
          "internalType": "string",
          "name": "tag",
          "type": "string"
        }
      ],
      "name": "donate",
      "outputs": [],
      "stateMutability": "payable",
      "type": "function"
    },
    {
      "inputs": [],
      "name": "init",
      "outputs": [],
      "stateMutability": "nonpayable",
      "type": "function"
    },
    {
      "inputs": [
        {
          "internalType": "string",
          "name": "notification",
          "type": "string"
        }
      ],
      "name": "newNotification",
      "outputs": [],
      "stateMutability": "nonpayable",
      "type": "function"
    },
    {
      "inputs": [
        {
          "internalType": "uint256",
          "name": "amount",
          "type": "uint256"
        }
      ],
      "name": "setMinDonation",
      "outputs": [],
      "stateMutability": "nonpayable",
      "type": "function"
    },
    {
      "inputs": [
        {
          "internalType": "uint256",
          "name": "amount",
          "type": "uint256"
        }
      ],
      "name": "withdraw",
      "outputs": [],
      "stateMutability": "nonpayable",
      "type": "function"
    }
  ],
  "bytecode": "0x608060405234801561001057600080fd5b50610ee8806100206000396000f3fe6080604052600436106100555760003560e01c80632e1a7d4d1461005a57806383a6595f1461007c5780638b7afe2e1461009c578063b5aebc80146100bc578063e1c7392a146100cf578063fdaee8a5146100e4575b600080fd5b34801561006657600080fd5b5061007a610075366004610baa565b610104565b005b34801561008857600080fd5b5061007a610097366004610baa565b61013d565b3480156100a857600080fd5b504760405190815260200160405180910390f35b61007a6100ca366004610bd9565b610170565b3480156100db57600080fd5b5061007a610221565b3480156100f057600080fd5b5061007a6100ff366004610bd9565b61027e565b61010c61028f565b604051339082156108fc029083906000818181858888f19350505050158015610139573d6000803e3d6000fd5b5050565b61014561028f565b61016d817f8b1e34c06a0926cd4f4dec6712395936ddf06c5177eba09c7581fc2f39f19f4855565b50565b805134906014116101ee5760405162461bcd60e51b815260206004820152603860248201527f446f6e6174696f6e3a20706c6561736520696e73657274206120746167206c6560448201527f73736572207468616e20343020636861726163746572732e000000000000000060648201526084015b60405180910390fd5b60006101f8610316565b9050336102058183610350565b61021b818386866102158861036a565b43610393565b50505050565b61024c629896807f8b1e34c06a0926cd4f4dec6712395936ddf06c5177eba09c7581fc2f39f19f4955565b61027c670de0b6b3a76400007f8b1e34c06a0926cd4f4dec6712395936ddf06c5177eba09c7581fc2f39f19f4855565b565b61028661028f565b61016d816104d9565b7fc8fcad8db84d3cc18b4c41d551ea0ee66dd599cde068d998e57d5e09332c131c600401546001600160a01b0316331461027c5760405162461bcd60e51b815260206004820152602260248201527f4c69624469616d6f6e643a204d75737420626520636f6e7472616374206f776e60448201526132b960f11b60648201526084016101e5565b60007f8b1e34c06a0926cd4f4dec6712395936ddf06c5177eba09c7581fc2f39f19f47805490600061034783610ca0565b91905055905090565b61013982826040518060200160405280600081525061050b565b60006305f5e10061037961058e565b6103839084610cb9565b61038d9190610cd8565b92915050565b7f8b1e34c06a0926cd4f4dec6712395936ddf06c5177eba09c7581fc2f39f19f47670de0b6b3a76400008410156104235760405162461bcd60e51b815260206004820152602e60248201527f446f6e6174696f6e496e7465726e616c3a206d696e696d756d20646f6e61746960448201526d37b71034b990189026a0aa24a19760911b60648201526084016101e5565b6040518060a001604052808681526020018581526020018481526020016104498661060b565b8152602090810184905260008881526003840182526040902082518051919261047792849290910190610b11565b5060208281015160018301556040808401516002840155606084015160038401556080909301516004928301556001600160a01b038a166000908152918401905290812080548592906104cb908490610cfa565b909155505050505050505050565b8051610139907f8b1e34c06a0926cd4f4dec6712395936ddf06c5177eba09c7581fc2f39f19f4c906020840190610b11565b61051583836106b9565b61052260008484846107f5565b6105895760405162461bcd60e51b815260206004820152603260248201527f4552433732313a207472616e7366657220746f206e6f6e20455243373231526560448201527131b2b4bb32b91034b6b83632b6b2b73a32b960711b60648201526084016101e5565b505050565b600073ab594600376ec9fd91f8e885dadf0ce036862de06001600160a01b03166350d25bcd6040518163ffffffff1660e01b8152600401602060405180830381865afa1580156105e2573d6000803e3d6000fd5b505050506040513d601f19601f820116820180604052508101906106069190610d12565b905090565b6000620f42407f8b1e34c06a0926cd4f4dec6712395936ddf06c5177eba09c7581fc2f39f19f47600201546106409084610cb9565b61064a9190610cd8565b7f8b1e34c06a0926cd4f4dec6712395936ddf06c5177eba09c7581fc2f39f19f495490915061067d90620186a090610cd8565b7f8b1e34c06a0926cd4f4dec6712395936ddf06c5177eba09c7581fc2f39f19f4980546000906106ae908490610d2b565b909155509092915050565b6001600160a01b03821661070f5760405162461bcd60e51b815260206004820181905260248201527f4552433732313a206d696e7420746f20746865207a65726f206164647265737360448201526064016101e5565b7f3c7bf052874fa81625121783266a03507bd2cd48b16e571c01a04e8dd3fb07a661073a81836108c7565b156107875760405162461bcd60e51b815260206004820152601c60248201527f4552433732313a20746f6b656e20616c7265616479206d696e7465640000000060448201526064016101e5565b6001600160a01b038316600090815260028201602052604090206107ab90836108da565b506107b78183856108e6565b5060405182906001600160a01b038516906000907fddf252ad1be2c89b69c2b068fc378daa952ba7f163c4a11628f55a4df523b3ef908290a4505050565b60006001600160a01b0384163b61080e575060016108bf565b600061088f63150b7a0260e01b338887876040516024016108329493929190610d9a565b604051602081830303815290604052906001600160e01b0319166020820180516001600160e01b038381831617835250505050604051806060016040528060328152602001610e81603291396001600160a01b03881691906108fc565b90506000818060200190518101906108a79190610dd7565b6001600160e01b031916630a85bd0160e11b14925050505b949350505050565b60006108d3838361090b565b9392505050565b60006108d38383610923565b60006108bf84846001600160a01b038516610972565b60606108bf8484600085610a11565b600081815260018301602052604081205415156108d3565b600081815260018301602052604081205461096a5750815460018181018455600084815260208082209093018490558454848252828601909352604090209190915561038d565b50600061038d565b60008281526001840160205260408120548082036109d95750506040805180820182528381526020808201848152865460018181018955600089815284812095516002909302909501918255915190820155865486845281880190925292909120556108d3565b828560000160018303815481106109f2576109f2610e01565b90600052602060002090600202016001018190555060009150506108d3565b6060843b610a755760405162461bcd60e51b815260206004820152602b60248201527f416464726573735574696c733a2066756e6374696f6e2063616c6c20746f206e60448201526a1bdb8b58dbdb9d1c9858dd60aa1b60648201526084016101e5565b600080866001600160a01b03168587604051610a919190610e17565b60006040518083038185875af1925050503d8060008114610ace576040519150601f19603f3d011682016040523d82523d6000602084013e610ad3565b606091505b50915091508115610ae75791506108bf9050565b805115610af75780518082602001fd5b8360405162461bcd60e51b81526004016101e59190610e33565b828054610b1d90610e46565b90600052602060002090601f016020900481019282610b3f5760008555610b85565b82601f10610b5857805160ff1916838001178555610b85565b82800160010185558215610b85579182015b82811115610b85578251825591602001919060010190610b6a565b50610b91929150610b95565b5090565b5b80821115610b915760008155600101610b96565b600060208284031215610bbc57600080fd5b5035919050565b634e487b7160e01b600052604160045260246000fd5b600060208284031215610beb57600080fd5b813567ffffffffffffffff80821115610c0357600080fd5b818401915084601f830112610c1757600080fd5b813581811115610c2957610c29610bc3565b604051601f8201601f19908116603f01168101908382118183101715610c5157610c51610bc3565b81604052828152876020848701011115610c6a57600080fd5b826020860160208301376000928101602001929092525095945050505050565b634e487b7160e01b600052601160045260246000fd5b600060018201610cb257610cb2610c8a565b5060010190565b6000816000190483118215151615610cd357610cd3610c8a565b500290565b600082610cf557634e487b7160e01b600052601260045260246000fd5b500490565b60008219821115610d0d57610d0d610c8a565b500190565b600060208284031215610d2457600080fd5b5051919050565b600082821015610d3d57610d3d610c8a565b500390565b60005b83811015610d5d578181015183820152602001610d45565b8381111561021b5750506000910152565b60008151808452610d86816020860160208601610d42565b601f01601f19169290920160200192915050565b6001600160a01b0385811682528416602082015260408101839052608060608201819052600090610dcd90830184610d6e565b9695505050505050565b600060208284031215610de957600080fd5b81516001600160e01b0319811681146108d357600080fd5b634e487b7160e01b600052603260045260246000fd5b60008251610e29818460208701610d42565b9190910192915050565b6020815260006108d36020830184610d6e565b600181811c90821680610e5a57607f821691505b602082108103610e7a57634e487b7160e01b600052602260045260246000fd5b5091905056fe4552433732313a207472616e7366657220746f206e6f6e20455243373231526563656976657220696d706c656d656e746572a2646970667358221220556356fef1782a3db3db43fe1057ee87d58b813926880225b4e8ba9a533ca78b64736f6c634300080d0033",
  "linkReferences": {},
  "deployedLinkReferences": {}
}