{
  "_format": "hh-sol-artifact-1",
  "contractName": "Donation",
  "sourceName": "contracts/2_donation/Donation.sol",
  "abi": [
    {
      "anonymous": false,
      "inputs": [
        {
          "indexed": true,
          "internalType": "address",
          "name": "owner",
          "type": "address"
        },
        {
          "indexed": true,
          "internalType": "address",
          "name": "operator",
          "type": "address"
        },
        {
          "indexed": true,
          "internalType": "uint256",
          "name": "tokenId",
          "type": "uint256"
        }
      ],
      "name": "Approval",
      "type": "event"
    },
    {
      "anonymous": false,
      "inputs": [
        {
          "indexed": true,
          "internalType": "address",
          "name": "owner",
          "type": "address"
        },
        {
          "indexed": true,
          "internalType": "address",
          "name": "operator",
          "type": "address"
        },
        {
          "indexed": false,
          "internalType": "bool",
          "name": "approved",
          "type": "bool"
        }
      ],
      "name": "ApprovalForAll",
      "type": "event"
    },
    {
      "anonymous": false,
      "inputs": [
        {
          "indexed": true,
          "internalType": "address",
          "name": "from",
          "type": "address"
        },
        {
          "indexed": true,
          "internalType": "address",
          "name": "to",
          "type": "address"
        },
        {
          "indexed": true,
          "internalType": "uint256",
          "name": "tokenId",
          "type": "uint256"
        }
      ],
      "name": "Transfer",
      "type": "event"
    },
    {
      "inputs": [
        {
          "internalType": "uint256",
          "name": "tokenId",
          "type": "uint256"
        }
      ],
      "name": "changePattern",
      "outputs": [],
      "stateMutability": "nonpayable",
      "type": "function"
    },
    {
      "inputs": [],
      "name": "contractBalance",
      "outputs": [
        {
          "internalType": "uint256",
          "name": "",
          "type": "uint256"
        }
      ],
      "stateMutability": "view",
      "type": "function"
    },
    {
      "inputs": [
        {
          "internalType": "string",
          "name": "tag",
          "type": "string"
        }
      ],
      "name": "donate",
      "outputs": [],
      "stateMutability": "payable",
      "type": "function"
    },
    {
      "inputs": [],
      "name": "init",
      "outputs": [],
      "stateMutability": "nonpayable",
      "type": "function"
    },
    {
      "inputs": [
        {
          "internalType": "string",
          "name": "notification",
          "type": "string"
        }
      ],
      "name": "newNotification",
      "outputs": [],
      "stateMutability": "nonpayable",
      "type": "function"
    },
    {
      "inputs": [
        {
          "internalType": "uint256",
          "name": "amount",
          "type": "uint256"
        }
      ],
      "name": "setMinDonation",
      "outputs": [],
      "stateMutability": "nonpayable",
      "type": "function"
    },
    {
      "inputs": [],
      "name": "totalPower",
      "outputs": [
        {
          "internalType": "uint256",
          "name": "",
          "type": "uint256"
        }
      ],
      "stateMutability": "view",
      "type": "function"
    },
    {
      "inputs": [
        {
          "internalType": "address",
          "name": "userAddr",
          "type": "address"
        }
      ],
      "name": "userPower",
      "outputs": [
        {
          "internalType": "uint256",
          "name": "",
          "type": "uint256"
        }
      ],
      "stateMutability": "view",
      "type": "function"
    },
    {
      "inputs": [
        {
          "internalType": "uint256",
          "name": "amount",
          "type": "uint256"
        },
        {
          "internalType": "address",
          "name": "receiver",
          "type": "address"
        }
      ],
      "name": "withdraw",
      "outputs": [],
      "stateMutability": "nonpayable",
      "type": "function"
    }
  ],
  "bytecode": "0x608060405234801561001057600080fd5b50612526806100206000396000f3fe6080604052600436106100855760003560e01c80638b7afe2e116100595780638b7afe2e14610142578063b5aebc801461016d578063db3ad22c14610189578063e1c7392a146101b4578063fdaee8a5146101cb57610085565b8062f714ce1461008a57806301cb2b9c146100b35780634d6e3452146100dc57806383a6595f14610119575b600080fd5b34801561009657600080fd5b506100b160048036038101906100ac9190611631565b6101f4565b005b3480156100bf57600080fd5b506100da60048036038101906100d59190611671565b610247565b005b3480156100e857600080fd5b5061010360048036038101906100fe919061169e565b61029c565b60405161011091906116da565b60405180910390f35b34801561012557600080fd5b50610140600480360381019061013b9190611671565b6102ae565b005b34801561014e57600080fd5b506101576102c2565b60405161016491906116da565b60405180910390f35b6101876004803603810190610182919061175a565b6102ca565b005b34801561019557600080fd5b5061019e610308565b6040516101ab91906116da565b60405180910390f35b3480156101c057600080fd5b506101c9610317565b005b3480156101d757600080fd5b506101f260048036038101906101ed91906118e8565b610319565b005b6101fc61032d565b8073ffffffffffffffffffffffffffffffffffffffff166108fc839081150290604051600060405180830381858888f19350505050158015610242573d6000803e3d6000fd5b505050565b61025133826103c8565b610290576040517f08c379a0000000000000000000000000000000000000000000000000000000008152600401610287906119b4565b60405180910390fd5b610299816104b7565b50565b60006102a7826104ef565b9050919050565b6102b661032d565b6102bf81610541565b50565b600047905090565b6000349050600033905060006102de610554565b90506102ea828261057b565b61030182828787876102fb89610599565b436105c4565b5050505050565b6000610312610933565b905090565b565b61032161032d565b61032a81610946565b50565b610335610969565b60040160009054906101000a900473ffffffffffffffffffffffffffffffffffffffff1673ffffffffffffffffffffffffffffffffffffffff163373ffffffffffffffffffffffffffffffffffffffff16146103c6576040517f08c379a00000000000000000000000000000000000000000000000000000000081526004016103bd90611a46565b60405180910390fd5b565b60006103e4826103d6610996565b6109c390919063ffffffff16565b610423576040517f08c379a000000000000000000000000000000000000000000000000000000000815260040161041a90611ad8565b60405180910390fd5b600061042e836109e3565b90508073ffffffffffffffffffffffffffffffffffffffff168473ffffffffffffffffffffffffffffffffffffffff16148061049d57508373ffffffffffffffffffffffffffffffffffffffff1661048584610a7d565b73ffffffffffffffffffffffffffffffffffffffff16145b806104ae57506104ad8185610b1a565b5b91505092915050565b6104bf610bb7565b600301600082815260200190815260200160002060060160008154809291906104e790611b27565b919050555050565b60006104f9610bb7565b60040160008373ffffffffffffffffffffffffffffffffffffffff1673ffffffffffffffffffffffffffffffffffffffff168152602001908152602001600020549050919050565b8061054a610bb7565b6001018190555050565b600061055e610bb7565b600001600081548092919061057290611b27565b91905055905090565b610595828260405180602001604052806000815250610be4565b5050565b60006305f5e1006105a8610c3f565b836105b39190611b6f565b6105bd9190611bf8565b9050919050565b60006105ce610bb7565b90508060010154841015610617576040517f08c379a000000000000000000000000000000000000000000000000000000000815260040161060e90611c9b565b60405180910390fd5b600086868080601f016020809104026020016040519081016040528093929190818152602001838380828437600081840152601f19601f82011690508083019250505050505050905060008151905060608060218311156107f2576000602290505b60008111156106db57808061068d90611cbb565b915050602060f81b8582815181106106a8576106a7611ce4565b5b602001015160f81c60f81b7effffffffffffffffffffffffffffffffffffffffffffffffffffffffffffff191603610679575b600081036106ea5760216106ec565b805b9050602181856106fc9190611d13565b111561073d576040517f08c379a000000000000000000000000000000000000000000000000000000000815260040161073490611db9565b60405180910390fd5b8a8a600090839261075093929190611de3565b8080601f016020809104026020016040519081016040528093929190818152602001838380828437600081840152601f19601f8201169050808301925050505050505092508a8a829086926107a793929190611de3565b8080601f016020809104026020016040519081016040528093929190818152602001838380828437600081840152601f19601f8201169050808301925050505050505091505061083a565b89898080601f016020809104026020016040519081016040528093929190818152602001838380828437600081840152601f19601f8201169050808301925050505050505091505b600061084589610cc9565b90506040518060e001604052808481526020018a815260200189815260200182815260200188815260200183815260200160008152508660030160008e815260200190815260200160002060008201518160000190805190602001906108ac9291906114e6565b506020820151816001015560408201518160020155606082015181600301556080820151816004015560a08201518160050190805190602001906108f19291906114e6565b5060c082015181600601559050506109098d82610d31565b8886600601600082825461091d9190611e1e565b9250508190555050505050505050505050505050565b600061093d610bb7565b60070154905090565b8061094f610bb7565b60050190805190602001906109659291906114e6565b5050565b6000807fc8fcad8db84d3cc18b4c41d551ea0ee66dd599cde068d998e57d5e09332c131c90508091505090565b6000807f3c7bf052874fa81625121783266a03507bd2cd48b16e571c01a04e8dd3fb07a690508091505090565b60006109db8284600001610db590919063ffffffff16565b905092915050565b600080610a03836109f2610996565b600001610dcf90919063ffffffff16565b9050600073ffffffffffffffffffffffffffffffffffffffff168173ffffffffffffffffffffffffffffffffffffffff1603610a74576040517f08c379a0000000000000000000000000000000000000000000000000000000008152600401610a6b90611ec0565b60405180910390fd5b80915050919050565b600080610a88610996565b9050610a9d83826109c390919063ffffffff16565b610adc576040517f08c379a0000000000000000000000000000000000000000000000000000000008152600401610ad390611f52565b60405180910390fd5b80600301600084815260200190815260200160002060009054906101000a900473ffffffffffffffffffffffffffffffffffffffff16915050919050565b6000610b24610996565b60040160008473ffffffffffffffffffffffffffffffffffffffff1673ffffffffffffffffffffffffffffffffffffffff16815260200190815260200160002060008373ffffffffffffffffffffffffffffffffffffffff1673ffffffffffffffffffffffffffffffffffffffff16815260200190815260200160002060009054906101000a900460ff16905092915050565b6000807f8b1e34c06a0926cd4f4dec6712395936ddf06c5177eba09c7581fc2f39f19f4790508091505090565b610bee8383610dec565b610bfb6000848484610fa0565b610c3a576040517f08c379a0000000000000000000000000000000000000000000000000000000008152600401610c3190611fe4565b60405180910390fd5b505050565b600073ab594600376ec9fd91f8e885dadf0ce036862de073ffffffffffffffffffffffffffffffffffffffff166350d25bcd6040518163ffffffff1660e01b8152600401602060405180830381865afa158015610ca0573d6000803e3d6000fd5b505050506040513d601f19601f82011682018060405250810190610cc4919061203a565b905090565b6000610cd3610bb7565b60020154620f424083610ce69190611bf8565b610cf09190611b6f565b905061012c610cfd610bb7565b60020154610d0b9190611bf8565b610d13610bb7565b6002016000828254610d259190611d13565b92505081905550919050565b6000610d3b610bb7565b9050818160040160008573ffffffffffffffffffffffffffffffffffffffff1673ffffffffffffffffffffffffffffffffffffffff1681526020019081526020016000206000828254610d8e9190611e1e565b9250508190555081816007016000828254610da99190611e1e565b92505081905550505050565b6000610dc7836000018360001b611116565b905092915050565b6000610de1836000018360001b611139565b60001c905092915050565b600073ffffffffffffffffffffffffffffffffffffffff168273ffffffffffffffffffffffffffffffffffffffff1603610e5b576040517f08c379a0000000000000000000000000000000000000000000000000000000008152600401610e52906120b3565b60405180910390fd5b6000610e65610996565b9050610e7a82826109c390919063ffffffff16565b15610eba576040517f08c379a0000000000000000000000000000000000000000000000000000000008152600401610eb19061211f565b60405180910390fd5b610ec6600084846111cb565b610f19828260020160008673ffffffffffffffffffffffffffffffffffffffff1673ffffffffffffffffffffffffffffffffffffffff1681526020019081526020016000206111d090919063ffffffff16565b50610f328284836000016111ea9092919063ffffffff16565b50610f3f6000848461121f565b818373ffffffffffffffffffffffffffffffffffffffff16600073ffffffffffffffffffffffffffffffffffffffff167fddf252ad1be2c89b69c2b068fc378daa952ba7f163c4a11628f55a4df523b3ef60405160405180910390a4505050565b6000610fc18473ffffffffffffffffffffffffffffffffffffffff16611224565b610fce576001905061110e565b600061108e63150b7a0260e01b33888787604051602401610ff294939291906121d6565b604051602081830303815290604052907bffffffffffffffffffffffffffffffffffffffffffffffffffffffff19166020820180517bffffffffffffffffffffffffffffffffffffffffffffffffffffffff83818316178352505050506040518060600160405280603281526020016124bf603291398773ffffffffffffffffffffffffffffffffffffffff166112379092919063ffffffff16565b90506000818060200190518101906110a6919061227a565b90507f150b7a02000000000000000000000000000000000000000000000000000000007bffffffffffffffffffffffffffffffffffffffffffffffffffffffff1916817bffffffffffffffffffffffffffffffffffffffffffffffffffffffff191614925050505b949350505050565b600080836001016000848152602001908152602001600020541415905092915050565b60008083600101600084815260200190815260200160002054905060008103611197576040517f08c379a000000000000000000000000000000000000000000000000000000000815260040161118e906122f3565b60405180910390fd5b8360000160018203815481106111b0576111af611ce4565b5b90600052602060002090600202016001015491505092915050565b505050565b60006111e2836000018360001b61124f565b905092915050565b6000611216846000018460001b8473ffffffffffffffffffffffffffffffffffffffff1660001b6112bf565b90509392505050565b505050565b600080823b905060008111915050919050565b606061124684846000856113a1565b90509392505050565b600061125b83836114c3565b6112b45782600001829080600181540180825580915050600190039060005260206000200160009091909190915055826000018054905083600101600084815260200190815260200160002081905550600190506112b9565b600090505b92915050565b600080846001016000858152602001908152602001600020549050600081036113655784600001604051806040016040528086815260200185815250908060018154018082558091505060019003906000526020600020906002020160009091909190915060008201518160000155602082015181600101555050846000018054905085600101600086815260200190815260200160002081905550600191505061139a565b8285600001600183038154811061137f5761137e611ce4565b5b90600052602060002090600202016001018190555060009150505b9392505050565b60606113ac85611224565b6113eb576040517f08c379a00000000000000000000000000000000000000000000000000000000081526004016113e290612385565b60405180910390fd5b6000808673ffffffffffffffffffffffffffffffffffffffff16858760405161141491906123e1565b60006040518083038185875af1925050503d8060008114611451576040519150601f19603f3d011682016040523d82523d6000602084013e611456565b606091505b5091509150811561146b5780925050506114bb565b60008151111561147e5780518082602001fd5b836040517f08c379a00000000000000000000000000000000000000000000000000000000081526004016114b2919061243c565b60405180910390fd5b949350505050565b600080836001016000848152602001908152602001600020541415905092915050565b8280546114f29061248d565b90600052602060002090601f016020900481019282611514576000855561155b565b82601f1061152d57805160ff191683800117855561155b565b8280016001018555821561155b579182015b8281111561155a57825182559160200191906001019061153f565b5b509050611568919061156c565b5090565b5b8082111561158557600081600090555060010161156d565b5090565b6000604051905090565b600080fd5b600080fd5b6000819050919050565b6115b08161159d565b81146115bb57600080fd5b50565b6000813590506115cd816115a7565b92915050565b600073ffffffffffffffffffffffffffffffffffffffff82169050919050565b60006115fe826115d3565b9050919050565b61160e816115f3565b811461161957600080fd5b50565b60008135905061162b81611605565b92915050565b6000806040838503121561164857611647611593565b5b6000611656858286016115be565b92505060206116678582860161161c565b9150509250929050565b60006020828403121561168757611686611593565b5b6000611695848285016115be565b91505092915050565b6000602082840312156116b4576116b3611593565b5b60006116c28482850161161c565b91505092915050565b6116d48161159d565b82525050565b60006020820190506116ef60008301846116cb565b92915050565b600080fd5b600080fd5b600080fd5b60008083601f84011261171a576117196116f5565b5b8235905067ffffffffffffffff811115611737576117366116fa565b5b602083019150836001820283011115611753576117526116ff565b5b9250929050565b6000806020838503121561177157611770611593565b5b600083013567ffffffffffffffff81111561178f5761178e611598565b5b61179b85828601611704565b92509250509250929050565b600080fd5b6000601f19601f8301169050919050565b7f4e487b7100000000000000000000000000000000000000000000000000000000600052604160045260246000fd5b6117f5826117ac565b810181811067ffffffffffffffff82111715611814576118136117bd565b5b80604052505050565b6000611827611589565b905061183382826117ec565b919050565b600067ffffffffffffffff821115611853576118526117bd565b5b61185c826117ac565b9050602081019050919050565b82818337600083830152505050565b600061188b61188684611838565b61181d565b9050828152602081018484840111156118a7576118a66117a7565b5b6118b2848285611869565b509392505050565b600082601f8301126118cf576118ce6116f5565b5b81356118df848260208601611878565b91505092915050565b6000602082840312156118fe576118fd611593565b5b600082013567ffffffffffffffff81111561191c5761191b611598565b5b611928848285016118ba565b91505092915050565b600082825260208201905092915050565b7f446f6e6174696f6e3a2063616c6c6572206973206e6f7420617070726f76656460008201527f206e6f72206f776e657200000000000000000000000000000000000000000000602082015250565b600061199e602a83611931565b91506119a982611942565b604082019050919050565b600060208201905081810360008301526119cd81611991565b9050919050565b7f4c69624469616d6f6e643a204d75737420626520636f6e7472616374206f776e60008201527f6572000000000000000000000000000000000000000000000000000000000000602082015250565b6000611a30602283611931565b9150611a3b826119d4565b604082019050919050565b60006020820190508181036000830152611a5f81611a23565b9050919050565b7f4552433732313a20717565727920666f72206e6f6e6578697374656e7420746f60008201527f6b656e0000000000000000000000000000000000000000000000000000000000602082015250565b6000611ac2602383611931565b9150611acd82611a66565b604082019050919050565b60006020820190508181036000830152611af181611ab5565b9050919050565b7f4e487b7100000000000000000000000000000000000000000000000000000000600052601160045260246000fd5b6000611b328261159d565b91507fffffffffffffffffffffffffffffffffffffffffffffffffffffffffffffffff8203611b6457611b63611af8565b5b600182019050919050565b6000611b7a8261159d565b9150611b858361159d565b9250817fffffffffffffffffffffffffffffffffffffffffffffffffffffffffffffffff0483118215151615611bbe57611bbd611af8565b5b828202905092915050565b7f4e487b7100000000000000000000000000000000000000000000000000000000600052601260045260246000fd5b6000611c038261159d565b9150611c0e8361159d565b925082611c1e57611c1d611bc9565b5b828204905092915050565b7f446f6e6174696f6e496e7465726e616c3a206d696e696d756d20646f6e61746960008201527f6f6e206572726f722e0000000000000000000000000000000000000000000000602082015250565b6000611c85602983611931565b9150611c9082611c29565b604082019050919050565b60006020820190508181036000830152611cb481611c78565b9050919050565b6000611cc68261159d565b915060008203611cd957611cd8611af8565b5b600182039050919050565b7f4e487b7100000000000000000000000000000000000000000000000000000000600052603260045260246000fd5b6000611d1e8261159d565b9150611d298361159d565b925082821015611d3c57611d3b611af8565b5b828203905092915050565b7f446f6e6174696f6e496e7465726e616c3a2074616720737472696e67206f766560008201527f72666c6f77000000000000000000000000000000000000000000000000000000602082015250565b6000611da3602583611931565b9150611dae82611d47565b604082019050919050565b60006020820190508181036000830152611dd281611d96565b9050919050565b600080fd5b600080fd5b60008085851115611df757611df6611dd9565b5b83861115611e0857611e07611dde565b5b6001850283019150848603905094509492505050565b6000611e298261159d565b9150611e348361159d565b9250827fffffffffffffffffffffffffffffffffffffffffffffffffffffffffffffffff03821115611e6957611e68611af8565b5b828201905092915050565b7f4552433732313a20696e76616c6964206f776e65720000000000000000000000600082015250565b6000611eaa601583611931565b9150611eb582611e74565b602082019050919050565b60006020820190508181036000830152611ed981611e9d565b9050919050565b7f4552433732313a20617070726f76656420717565727920666f72206e6f6e657860008201527f697374656e7420746f6b656e0000000000000000000000000000000000000000602082015250565b6000611f3c602c83611931565b9150611f4782611ee0565b604082019050919050565b60006020820190508181036000830152611f6b81611f2f565b9050919050565b7f4552433732313a207472616e7366657220746f206e6f6e20455243373231526560008201527f63656976657220696d706c656d656e7465720000000000000000000000000000602082015250565b6000611fce603283611931565b9150611fd982611f72565b604082019050919050565b60006020820190508181036000830152611ffd81611fc1565b9050919050565b6000819050919050565b61201781612004565b811461202257600080fd5b50565b6000815190506120348161200e565b92915050565b6000602082840312156120505761204f611593565b5b600061205e84828501612025565b91505092915050565b7f4552433732313a206d696e7420746f20746865207a65726f2061646472657373600082015250565b600061209d602083611931565b91506120a882612067565b602082019050919050565b600060208201905081810360008301526120cc81612090565b9050919050565b7f4552433732313a20746f6b656e20616c7265616479206d696e74656400000000600082015250565b6000612109601c83611931565b9150612114826120d3565b602082019050919050565b60006020820190508181036000830152612138816120fc565b9050919050565b612148816115f3565b82525050565b600081519050919050565b600082825260208201905092915050565b60005b8381101561218857808201518184015260208101905061216d565b83811115612197576000848401525b50505050565b60006121a88261214e565b6121b28185612159565b93506121c281856020860161216a565b6121cb816117ac565b840191505092915050565b60006080820190506121eb600083018761213f565b6121f8602083018661213f565b61220560408301856116cb565b8181036060830152612217818461219d565b905095945050505050565b60007fffffffff0000000000000000000000000000000000000000000000000000000082169050919050565b61225781612222565b811461226257600080fd5b50565b6000815190506122748161224e565b92915050565b6000602082840312156122905761228f611593565b5b600061229e84828501612265565b91505092915050565b7f456e756d657261626c654d61703a206e6f6e6578697374656e74206b65790000600082015250565b60006122dd601e83611931565b91506122e8826122a7565b602082019050919050565b6000602082019050818103600083015261230c816122d0565b9050919050565b7f416464726573735574696c733a2066756e6374696f6e2063616c6c20746f206e60008201527f6f6e2d636f6e7472616374000000000000000000000000000000000000000000602082015250565b600061236f602b83611931565b915061237a82612313565b604082019050919050565b6000602082019050818103600083015261239e81612362565b9050919050565b600081905092915050565b60006123bb8261214e565b6123c581856123a5565b93506123d581856020860161216a565b80840191505092915050565b60006123ed82846123b0565b915081905092915050565b600081519050919050565b600061240e826123f8565b6124188185611931565b935061242881856020860161216a565b612431816117ac565b840191505092915050565b600060208201905081810360008301526124568184612403565b905092915050565b7f4e487b7100000000000000000000000000000000000000000000000000000000600052602260045260246000fd5b600060028204905060018216806124a557607f821691505b6020821081036124b8576124b761245e565b5b5091905056fe4552433732313a207472616e7366657220746f206e6f6e20455243373231526563656976657220696d706c656d656e746572a2646970667358221220fb854521e0e9c6959a9c800636b6bafacbddaeb332427f01321a26a6491f362b64736f6c634300080d0033",
  "linkReferences": {},
  "deployedLinkReferences": {}
}