{
  "_format": "hh-sol-artifact-1",
  "contractName": "Donation",
  "sourceName": "contracts/2_donation/Donation.sol",
  "abi": [
    {
      "anonymous": false,
      "inputs": [
        {
          "indexed": true,
          "internalType": "address",
          "name": "owner",
          "type": "address"
        },
        {
          "indexed": true,
          "internalType": "address",
          "name": "operator",
          "type": "address"
        },
        {
          "indexed": true,
          "internalType": "uint256",
          "name": "tokenId",
          "type": "uint256"
        }
      ],
      "name": "Approval",
      "type": "event"
    },
    {
      "anonymous": false,
      "inputs": [
        {
          "indexed": true,
          "internalType": "address",
          "name": "owner",
          "type": "address"
        },
        {
          "indexed": true,
          "internalType": "address",
          "name": "operator",
          "type": "address"
        },
        {
          "indexed": false,
          "internalType": "bool",
          "name": "approved",
          "type": "bool"
        }
      ],
      "name": "ApprovalForAll",
      "type": "event"
    },
    {
      "anonymous": false,
      "inputs": [
        {
          "indexed": true,
          "internalType": "address",
          "name": "from",
          "type": "address"
        },
        {
          "indexed": true,
          "internalType": "address",
          "name": "to",
          "type": "address"
        },
        {
          "indexed": true,
          "internalType": "uint256",
          "name": "tokenId",
          "type": "uint256"
        }
      ],
      "name": "Transfer",
      "type": "event"
    },
    {
      "inputs": [],
      "name": "contractBalance",
      "outputs": [
        {
          "internalType": "uint256",
          "name": "",
          "type": "uint256"
        }
      ],
      "stateMutability": "view",
      "type": "function"
    },
    {
      "inputs": [
        {
          "internalType": "string",
          "name": "tag",
          "type": "string"
        }
      ],
      "name": "donate",
      "outputs": [],
      "stateMutability": "payable",
      "type": "function"
    },
    {
      "inputs": [],
      "name": "init",
      "outputs": [],
      "stateMutability": "nonpayable",
      "type": "function"
    },
    {
      "inputs": [
        {
          "internalType": "string",
          "name": "notification",
          "type": "string"
        }
      ],
      "name": "newNotification",
      "outputs": [],
      "stateMutability": "nonpayable",
      "type": "function"
    },
    {
      "inputs": [
        {
          "internalType": "uint256",
          "name": "amount",
          "type": "uint256"
        }
      ],
      "name": "setMinDonation",
      "outputs": [],
      "stateMutability": "nonpayable",
      "type": "function"
    },
    {
      "inputs": [],
      "name": "totalPower",
      "outputs": [
        {
          "internalType": "uint256",
          "name": "",
          "type": "uint256"
        }
      ],
      "stateMutability": "view",
      "type": "function"
    },
    {
      "inputs": [
        {
          "internalType": "address",
          "name": "userAddr",
          "type": "address"
        }
      ],
      "name": "userPower",
      "outputs": [
        {
          "internalType": "uint256",
          "name": "",
          "type": "uint256"
        }
      ],
      "stateMutability": "view",
      "type": "function"
    },
    {
      "inputs": [
        {
          "internalType": "uint256",
          "name": "amount",
          "type": "uint256"
        },
        {
          "internalType": "address",
          "name": "receiver",
          "type": "address"
        }
      ],
      "name": "withdraw",
      "outputs": [],
      "stateMutability": "nonpayable",
      "type": "function"
    }
  ],
  "bytecode": "0x608060405234801561001057600080fd5b50611da4806100206000396000f3fe60806040526004361061007a5760003560e01c8063b5aebc801161004e578063b5aebc8014610139578063db3ad22c14610155578063e1c7392a14610180578063fdaee8a5146101975761007a565b8062f714ce1461007f5780634d6e3452146100a857806383a6595f146100e55780638b7afe2e1461010e575b600080fd5b34801561008b57600080fd5b506100a660048036038101906100a19190611180565b6101c0565b005b3480156100b457600080fd5b506100cf60048036038101906100ca91906111c0565b610213565b6040516100dc91906111fc565b60405180910390f35b3480156100f157600080fd5b5061010c60048036038101906101079190611217565b610225565b005b34801561011a57600080fd5b50610123610239565b60405161013091906111fc565b60405180910390f35b610153600480360381019061014e919061138a565b610241565b005b34801561016157600080fd5b5061016a6102c1565b60405161017791906111fc565b60405180910390f35b34801561018c57600080fd5b506101956102d0565b005b3480156101a357600080fd5b506101be60048036038101906101b9919061138a565b610324565b005b6101c8610338565b8073ffffffffffffffffffffffffffffffffffffffff166108fc839081150290604051600060405180830381858888f1935050505015801561020e573d6000803e3d6000fd5b505050565b600061021e826103d3565b9050919050565b61022d610338565b61023681610425565b50565b600047905090565b6000349050601482511061028a576040517f08c379a000000000000000000000000000000000000000000000000000000000815260040161028190611456565b60405180910390fd5b6000610294610438565b905060003390506102a5818361045f565b6102bb818386866102b58861047d565b436104a8565b50505050565b60006102cb6105bb565b905090565b60005b600a811015610321576102ed6102e8826105ce565b6103d3565b6102f5610668565b600701600082825461030791906114a5565b925050819055508080610319906114fb565b9150506102d3565b50565b61032c610338565b61033581610695565b50565b6103406106b8565b60040160009054906101000a900473ffffffffffffffffffffffffffffffffffffffff1673ffffffffffffffffffffffffffffffffffffffff163373ffffffffffffffffffffffffffffffffffffffff16146103d1576040517f08c379a00000000000000000000000000000000000000000000000000000000081526004016103c8906115b5565b60405180910390fd5b565b60006103dd610668565b60040160008373ffffffffffffffffffffffffffffffffffffffff1673ffffffffffffffffffffffffffffffffffffffff168152602001908152602001600020549050919050565b8061042e610668565b6001018190555050565b6000610442610668565b6000016000815480929190610456906114fb565b91905055905090565b6104798282604051806020016040528060008152506106e5565b5050565b60006305f5e10061048c610740565b8361049791906115d5565b6104a1919061165e565b9050919050565b60006104b2610668565b905080600101548410156104fb576040517f08c379a00000000000000000000000000000000000000000000000000000000081526004016104f290611701565b60405180910390fd5b6000610506856107ca565b90506040518060a00160405280878152602001868152602001858152602001828152602001848152508260030160008981526020019081526020016000206000820151816000019080519060200190610560929190611035565b50602082015181600101556040820151816002015560608201518160030155608082015181600401559050506105968882610833565b848260060160008282546105aa91906114a5565b925050819055505050505050505050565b60006105c5610668565b60070154905090565b6000806105ee836105dd6108b7565b6000016108e490919063ffffffff16565b9050600073ffffffffffffffffffffffffffffffffffffffff168173ffffffffffffffffffffffffffffffffffffffff160361065f576040517f08c379a00000000000000000000000000000000000000000000000000000000081526004016106569061176d565b60405180910390fd5b80915050919050565b6000807f8b1e34c06a0926cd4f4dec6712395936ddf06c5177eba09c7581fc2f39f19f4790508091505090565b8061069e610668565b60050190805190602001906106b4929190611035565b5050565b6000807fc8fcad8db84d3cc18b4c41d551ea0ee66dd599cde068d998e57d5e09332c131c90508091505090565b6106ef8383610901565b6106fc6000848484610ab5565b61073b576040517f08c379a0000000000000000000000000000000000000000000000000000000008152600401610732906117ff565b60405180910390fd5b505050565b600073ab594600376ec9fd91f8e885dadf0ce036862de073ffffffffffffffffffffffffffffffffffffffff166350d25bcd6040518163ffffffff1660e01b8152600401602060405180830381865afa1580156107a1573d6000803e3d6000fd5b505050506040513d601f19601f820116820180604052508101906107c59190611855565b905090565b60006107d4610668565b600201546305f5e100836107e8919061165e565b6107f291906115d5565b905061012c6107ff610668565b6002015461080d919061165e565b610815610668565b60020160008282546108279190611882565b92505081905550919050565b600061083d610668565b9050818160040160008573ffffffffffffffffffffffffffffffffffffffff1673ffffffffffffffffffffffffffffffffffffffff168152602001908152602001600020600082825461089091906114a5565b92505081905550818160070160008282546108ab91906114a5565b92505081905550505050565b6000807f3c7bf052874fa81625121783266a03507bd2cd48b16e571c01a04e8dd3fb07a690508091505090565b60006108f6836000018360001b610c2b565b60001c905092915050565b600073ffffffffffffffffffffffffffffffffffffffff168273ffffffffffffffffffffffffffffffffffffffff1603610970576040517f08c379a000000000000000000000000000000000000000000000000000000000815260040161096790611902565b60405180910390fd5b600061097a6108b7565b905061098f8282610cbd90919063ffffffff16565b156109cf576040517f08c379a00000000000000000000000000000000000000000000000000000000081526004016109c69061196e565b60405180910390fd5b6109db60008484610cdd565b610a2e828260020160008673ffffffffffffffffffffffffffffffffffffffff1673ffffffffffffffffffffffffffffffffffffffff168152602001908152602001600020610ce290919063ffffffff16565b50610a47828483600001610cfc9092919063ffffffff16565b50610a5460008484610d31565b818373ffffffffffffffffffffffffffffffffffffffff16600073ffffffffffffffffffffffffffffffffffffffff167fddf252ad1be2c89b69c2b068fc378daa952ba7f163c4a11628f55a4df523b3ef60405160405180910390a4505050565b6000610ad68473ffffffffffffffffffffffffffffffffffffffff16610d36565b610ae35760019050610c23565b6000610ba363150b7a0260e01b33888787604051602401610b079493929190611a25565b604051602081830303815290604052907bffffffffffffffffffffffffffffffffffffffffffffffffffffffff19166020820180517bffffffffffffffffffffffffffffffffffffffffffffffffffffffff8381831617835250505050604051806060016040528060328152602001611d3d603291398773ffffffffffffffffffffffffffffffffffffffff16610d499092919063ffffffff16565b9050600081806020019051810190610bbb9190611ac9565b90507f150b7a02000000000000000000000000000000000000000000000000000000007bffffffffffffffffffffffffffffffffffffffffffffffffffffffff1916817bffffffffffffffffffffffffffffffffffffffffffffffffffffffff191614925050505b949350505050565b60008083600101600084815260200190815260200160002054905060008103610c89576040517f08c379a0000000000000000000000000000000000000000000000000000000008152600401610c8090611b42565b60405180910390fd5b836000016001820381548110610ca257610ca1611b62565b5b90600052602060002090600202016001015491505092915050565b6000610cd58284600001610d6190919063ffffffff16565b905092915050565b505050565b6000610cf4836000018360001b610d7b565b905092915050565b6000610d28846000018460001b8473ffffffffffffffffffffffffffffffffffffffff1660001b610deb565b90509392505050565b505050565b600080823b905060008111915050919050565b6060610d588484600085610ecd565b90509392505050565b6000610d73836000018360001b610fef565b905092915050565b6000610d878383611012565b610de0578260000182908060018154018082558091505060019003906000526020600020016000909190919091505582600001805490508360010160008481526020019081526020016000208190555060019050610de5565b600090505b92915050565b60008084600101600085815260200190815260200160002054905060008103610e9157846000016040518060400160405280868152602001858152509080600181540180825580915050600190039060005260206000209060020201600090919091909150600082015181600001556020820151816001015550508460000180549050856001016000868152602001908152602001600020819055506001915050610ec6565b82856000016001830381548110610eab57610eaa611b62565b5b90600052602060002090600202016001018190555060009150505b9392505050565b6060610ed885610d36565b610f17576040517f08c379a0000000000000000000000000000000000000000000000000000000008152600401610f0e90611c03565b60405180910390fd5b6000808673ffffffffffffffffffffffffffffffffffffffff168587604051610f409190611c5f565b60006040518083038185875af1925050503d8060008114610f7d576040519150601f19603f3d011682016040523d82523d6000602084013e610f82565b606091505b50915091508115610f97578092505050610fe7565b600081511115610faa5780518082602001fd5b836040517f08c379a0000000000000000000000000000000000000000000000000000000008152600401610fde9190611cba565b60405180910390fd5b949350505050565b600080836001016000848152602001908152602001600020541415905092915050565b600080836001016000848152602001908152602001600020541415905092915050565b82805461104190611d0b565b90600052602060002090601f01602090048101928261106357600085556110aa565b82601f1061107c57805160ff19168380011785556110aa565b828001600101855582156110aa579182015b828111156110a957825182559160200191906001019061108e565b5b5090506110b791906110bb565b5090565b5b808211156110d45760008160009055506001016110bc565b5090565b6000604051905090565b600080fd5b600080fd5b6000819050919050565b6110ff816110ec565b811461110a57600080fd5b50565b60008135905061111c816110f6565b92915050565b600073ffffffffffffffffffffffffffffffffffffffff82169050919050565b600061114d82611122565b9050919050565b61115d81611142565b811461116857600080fd5b50565b60008135905061117a81611154565b92915050565b60008060408385031215611197576111966110e2565b5b60006111a58582860161110d565b92505060206111b68582860161116b565b9150509250929050565b6000602082840312156111d6576111d56110e2565b5b60006111e48482850161116b565b91505092915050565b6111f6816110ec565b82525050565b600060208201905061121160008301846111ed565b92915050565b60006020828403121561122d5761122c6110e2565b5b600061123b8482850161110d565b91505092915050565b600080fd5b600080fd5b6000601f19601f8301169050919050565b7f4e487b7100000000000000000000000000000000000000000000000000000000600052604160045260246000fd5b6112978261124e565b810181811067ffffffffffffffff821117156112b6576112b561125f565b5b80604052505050565b60006112c96110d8565b90506112d5828261128e565b919050565b600067ffffffffffffffff8211156112f5576112f461125f565b5b6112fe8261124e565b9050602081019050919050565b82818337600083830152505050565b600061132d611328846112da565b6112bf565b90508281526020810184848401111561134957611348611249565b5b61135484828561130b565b509392505050565b600082601f83011261137157611370611244565b5b813561138184826020860161131a565b91505092915050565b6000602082840312156113a05761139f6110e2565b5b600082013567ffffffffffffffff8111156113be576113bd6110e7565b5b6113ca8482850161135c565b91505092915050565b600082825260208201905092915050565b7f446f6e6174696f6e3a20706c6561736520696e73657274206120746167206c6560008201527f73736572207468616e20323020636861726163746572732e0000000000000000602082015250565b60006114406038836113d3565b915061144b826113e4565b604082019050919050565b6000602082019050818103600083015261146f81611433565b9050919050565b7f4e487b7100000000000000000000000000000000000000000000000000000000600052601160045260246000fd5b60006114b0826110ec565b91506114bb836110ec565b9250827fffffffffffffffffffffffffffffffffffffffffffffffffffffffffffffffff038211156114f0576114ef611476565b5b828201905092915050565b6000611506826110ec565b91507fffffffffffffffffffffffffffffffffffffffffffffffffffffffffffffffff820361153857611537611476565b5b600182019050919050565b7f4c69624469616d6f6e643a204d75737420626520636f6e7472616374206f776e60008201527f6572000000000000000000000000000000000000000000000000000000000000602082015250565b600061159f6022836113d3565b91506115aa82611543565b604082019050919050565b600060208201905081810360008301526115ce81611592565b9050919050565b60006115e0826110ec565b91506115eb836110ec565b9250817fffffffffffffffffffffffffffffffffffffffffffffffffffffffffffffffff048311821515161561162457611623611476565b5b828202905092915050565b7f4e487b7100000000000000000000000000000000000000000000000000000000600052601260045260246000fd5b6000611669826110ec565b9150611674836110ec565b9250826116845761168361162f565b5b828204905092915050565b7f446f6e6174696f6e496e7465726e616c3a206d696e696d756d20646f6e61746960008201527f6f6e206572726f722e0000000000000000000000000000000000000000000000602082015250565b60006116eb6029836113d3565b91506116f68261168f565b604082019050919050565b6000602082019050818103600083015261171a816116de565b9050919050565b7f4552433732313a20696e76616c6964206f776e65720000000000000000000000600082015250565b60006117576015836113d3565b915061176282611721565b602082019050919050565b600060208201905081810360008301526117868161174a565b9050919050565b7f4552433732313a207472616e7366657220746f206e6f6e20455243373231526560008201527f63656976657220696d706c656d656e7465720000000000000000000000000000602082015250565b60006117e96032836113d3565b91506117f48261178d565b604082019050919050565b60006020820190508181036000830152611818816117dc565b9050919050565b6000819050919050565b6118328161181f565b811461183d57600080fd5b50565b60008151905061184f81611829565b92915050565b60006020828403121561186b5761186a6110e2565b5b600061187984828501611840565b91505092915050565b600061188d826110ec565b9150611898836110ec565b9250828210156118ab576118aa611476565b5b828203905092915050565b7f4552433732313a206d696e7420746f20746865207a65726f2061646472657373600082015250565b60006118ec6020836113d3565b91506118f7826118b6565b602082019050919050565b6000602082019050818103600083015261191b816118df565b9050919050565b7f4552433732313a20746f6b656e20616c7265616479206d696e74656400000000600082015250565b6000611958601c836113d3565b915061196382611922565b602082019050919050565b600060208201905081810360008301526119878161194b565b9050919050565b61199781611142565b82525050565b600081519050919050565b600082825260208201905092915050565b60005b838110156119d75780820151818401526020810190506119bc565b838111156119e6576000848401525b50505050565b60006119f78261199d565b611a0181856119a8565b9350611a118185602086016119b9565b611a1a8161124e565b840191505092915050565b6000608082019050611a3a600083018761198e565b611a47602083018661198e565b611a5460408301856111ed565b8181036060830152611a6681846119ec565b905095945050505050565b60007fffffffff0000000000000000000000000000000000000000000000000000000082169050919050565b611aa681611a71565b8114611ab157600080fd5b50565b600081519050611ac381611a9d565b92915050565b600060208284031215611adf57611ade6110e2565b5b6000611aed84828501611ab4565b91505092915050565b7f456e756d657261626c654d61703a206e6f6e6578697374656e74206b65790000600082015250565b6000611b2c601e836113d3565b9150611b3782611af6565b602082019050919050565b60006020820190508181036000830152611b5b81611b1f565b9050919050565b7f4e487b7100000000000000000000000000000000000000000000000000000000600052603260045260246000fd5b7f416464726573735574696c733a2066756e6374696f6e2063616c6c20746f206e60008201527f6f6e2d636f6e7472616374000000000000000000000000000000000000000000602082015250565b6000611bed602b836113d3565b9150611bf882611b91565b604082019050919050565b60006020820190508181036000830152611c1c81611be0565b9050919050565b600081905092915050565b6000611c398261199d565b611c438185611c23565b9350611c538185602086016119b9565b80840191505092915050565b6000611c6b8284611c2e565b915081905092915050565b600081519050919050565b6000611c8c82611c76565b611c9681856113d3565b9350611ca68185602086016119b9565b611caf8161124e565b840191505092915050565b60006020820190508181036000830152611cd48184611c81565b905092915050565b7f4e487b7100000000000000000000000000000000000000000000000000000000600052602260045260246000fd5b60006002820490506001821680611d2357607f821691505b602082108103611d3657611d35611cdc565b5b5091905056fe4552433732313a207472616e7366657220746f206e6f6e20455243373231526563656976657220696d706c656d656e746572a2646970667358221220d8ec50323dded898d5c01659460a64914a71c3a5f1b579726b328bcd4aa0db1d64736f6c634300080d0033",
  "linkReferences": {},
  "deployedLinkReferences": {}
}