{
  "_format": "hh-sol-artifact-1",
  "contractName": "Donation",
  "sourceName": "contracts/2_donation/Donation.sol",
  "abi": [
    {
      "anonymous": false,
      "inputs": [
        {
          "indexed": true,
          "internalType": "address",
          "name": "owner",
          "type": "address"
        },
        {
          "indexed": true,
          "internalType": "address",
          "name": "operator",
          "type": "address"
        },
        {
          "indexed": true,
          "internalType": "uint256",
          "name": "tokenId",
          "type": "uint256"
        }
      ],
      "name": "Approval",
      "type": "event"
    },
    {
      "anonymous": false,
      "inputs": [
        {
          "indexed": true,
          "internalType": "address",
          "name": "owner",
          "type": "address"
        },
        {
          "indexed": true,
          "internalType": "address",
          "name": "operator",
          "type": "address"
        },
        {
          "indexed": false,
          "internalType": "bool",
          "name": "approved",
          "type": "bool"
        }
      ],
      "name": "ApprovalForAll",
      "type": "event"
    },
    {
      "anonymous": false,
      "inputs": [
        {
          "indexed": true,
          "internalType": "address",
          "name": "from",
          "type": "address"
        },
        {
          "indexed": true,
          "internalType": "address",
          "name": "to",
          "type": "address"
        },
        {
          "indexed": true,
          "internalType": "uint256",
          "name": "tokenId",
          "type": "uint256"
        }
      ],
      "name": "Transfer",
      "type": "event"
    },
    {
      "inputs": [],
      "name": "contractBalance",
      "outputs": [
        {
          "internalType": "uint256",
          "name": "",
          "type": "uint256"
        }
      ],
      "stateMutability": "view",
      "type": "function"
    },
    {
      "inputs": [
        {
          "internalType": "string",
          "name": "tag",
          "type": "string"
        }
      ],
      "name": "donate",
      "outputs": [],
      "stateMutability": "payable",
      "type": "function"
    },
    {
      "inputs": [],
      "name": "init",
      "outputs": [],
      "stateMutability": "nonpayable",
      "type": "function"
    },
    {
      "inputs": [
        {
          "internalType": "string",
          "name": "notification",
          "type": "string"
        }
      ],
      "name": "newNotification",
      "outputs": [],
      "stateMutability": "nonpayable",
      "type": "function"
    },
    {
      "inputs": [
        {
          "internalType": "uint256",
          "name": "amount",
          "type": "uint256"
        }
      ],
      "name": "setMinDonation",
      "outputs": [],
      "stateMutability": "nonpayable",
      "type": "function"
    },
    {
      "inputs": [
        {
          "internalType": "uint256",
          "name": "amount",
          "type": "uint256"
        },
        {
          "internalType": "address",
          "name": "receiver",
          "type": "address"
        }
      ],
      "name": "withdraw",
      "outputs": [],
      "stateMutability": "nonpayable",
      "type": "function"
    }
  ],
  "bytecode": "0x608060405234801561001057600080fd5b50610f3c806100206000396000f3fe6080604052600436106100545760003560e01c8062f714ce1461005957806383a6595f1461007b5780638b7afe2e1461009b578063b5aebc80146100bb578063e1c7392a146100ce578063fdaee8a5146100e3575b600080fd5b34801561006557600080fd5b50610079610074366004610ba2565b610103565b005b34801561008757600080fd5b50610079610096366004610bde565b610146565b3480156100a757600080fd5b504760405190815260200160405180910390f35b6100796100c9366004610c0d565b610179565b3480156100da57600080fd5b5061007961022a565b3480156100ef57600080fd5b506100796100fe366004610c0d565b610277565b61010b610288565b6040516001600160a01b0382169083156108fc029084906000818181858888f19350505050158015610141573d6000803e3d6000fd5b505050565b61014e610288565b610176817f8b1e34c06a0926cd4f4dec6712395936ddf06c5177eba09c7581fc2f39f19f4855565b50565b805134906014116101f75760405162461bcd60e51b815260206004820152603860248201527f446f6e6174696f6e3a20706c6561736520696e73657274206120746167206c6560448201527f73736572207468616e20323020636861726163746572732e000000000000000060648201526084015b60405180910390fd5b600061020161030f565b90503361020e8183610349565b6102248183868661021e88610367565b43610390565b50505050565b6102456402540be400600080516020610ee783398151915255565b610275670de0b6b3a76400007f8b1e34c06a0926cd4f4dec6712395936ddf06c5177eba09c7581fc2f39f19f4855565b565b61027f610288565b6101768161050f565b7fc8fcad8db84d3cc18b4c41d551ea0ee66dd599cde068d998e57d5e09332c131c600401546001600160a01b031633146102755760405162461bcd60e51b815260206004820152602260248201527f4c69624469616d6f6e643a204d75737420626520636f6e7472616374206f776e60448201526132b960f11b60648201526084016101ee565b60007f8b1e34c06a0926cd4f4dec6712395936ddf06c5177eba09c7581fc2f39f19f47805490600061034083610cd4565b91905055905090565b610363828260405180602001604052806000815250610541565b5050565b60006305f5e1006103766105bf565b6103809084610ced565b61038a9190610d0c565b92915050565b7f8b1e34c06a0926cd4f4dec6712395936ddf06c5177eba09c7581fc2f39f19f48547f8b1e34c06a0926cd4f4dec6712395936ddf06c5177eba09c7581fc2f39f19f47908410156104355760405162461bcd60e51b815260206004820152602960248201527f446f6e6174696f6e496e7465726e616c3a206d696e696d756d20646f6e61746960448201526837b71032b93937b91760b91b60648201526084016101ee565b60006104408561063c565b6040805160a0810182528881526020808201899052818301889052606082018490526080820187905260008b8152600387018252929092208151805194955091939092610491928492910190610b09565b5060208281015160018301556040808401516002840155606084015160038401556080909301516004928301556001600160a01b038b166000908152918501905290812080548392906104e5908490610d2e565b92505081905550848260060160008282546105009190610d2e565b90915550505050505050505050565b8051610363907f8b1e34c06a0926cd4f4dec6712395936ddf06c5177eba09c7581fc2f39f19f4c906020840190610b09565b61054b83836106b1565b61055860008484846107ed565b6101415760405162461bcd60e51b815260206004820152603260248201527f4552433732313a207472616e7366657220746f206e6f6e20455243373231526560448201527131b2b4bb32b91034b6b83632b6b2b73a32b960711b60648201526084016101ee565b600073ab594600376ec9fd91f8e885dadf0ce036862de06001600160a01b03166350d25bcd6040518163ffffffff1660e01b8152600401602060405180830381865afa158015610613573d6000803e3d6000fd5b505050506040513d601f19601f820116820180604052508101906106379190610d46565b905090565b600080516020610ee78339815191525460009061065d6305f5e10084610d0c565b6106679190610ced565b600080516020610ee7833981519152549091506106879061012c90610d0c565b600080516020610ee783398151915280546000906106a6908490610d5f565b909155509092915050565b6001600160a01b0382166107075760405162461bcd60e51b815260206004820181905260248201527f4552433732313a206d696e7420746f20746865207a65726f206164647265737360448201526064016101ee565b7f3c7bf052874fa81625121783266a03507bd2cd48b16e571c01a04e8dd3fb07a661073281836108bf565b1561077f5760405162461bcd60e51b815260206004820152601c60248201527f4552433732313a20746f6b656e20616c7265616479206d696e7465640000000060448201526064016101ee565b6001600160a01b038316600090815260028201602052604090206107a390836108d2565b506107af8183856108de565b5060405182906001600160a01b038516906000907fddf252ad1be2c89b69c2b068fc378daa952ba7f163c4a11628f55a4df523b3ef908290a4505050565b60006001600160a01b0384163b610806575060016108b7565b600061088763150b7a0260e01b3388878760405160240161082a9493929190610dce565b604051602081830303815290604052906001600160e01b0319166020820180516001600160e01b038381831617835250505050604051806060016040528060328152602001610eb5603291396001600160a01b03881691906108f4565b905060008180602001905181019061089f9190610e0b565b6001600160e01b031916630a85bd0160e11b14925050505b949350505050565b60006108cb8383610903565b9392505050565b60006108cb838361091b565b60006108b784846001600160a01b03851661096a565b60606108b78484600085610a09565b600081815260018301602052604081205415156108cb565b60008181526001830160205260408120546109625750815460018181018455600084815260208082209093018490558454848252828601909352604090209190915561038a565b50600061038a565b60008281526001840160205260408120548082036109d15750506040805180820182528381526020808201848152865460018181018955600089815284812095516002909302909501918255915190820155865486845281880190925292909120556108cb565b828560000160018303815481106109ea576109ea610e35565b90600052602060002090600202016001018190555060009150506108cb565b6060843b610a6d5760405162461bcd60e51b815260206004820152602b60248201527f416464726573735574696c733a2066756e6374696f6e2063616c6c20746f206e60448201526a1bdb8b58dbdb9d1c9858dd60aa1b60648201526084016101ee565b600080866001600160a01b03168587604051610a899190610e4b565b60006040518083038185875af1925050503d8060008114610ac6576040519150601f19603f3d011682016040523d82523d6000602084013e610acb565b606091505b50915091508115610adf5791506108b79050565b805115610aef5780518082602001fd5b8360405162461bcd60e51b81526004016101ee9190610e67565b828054610b1590610e7a565b90600052602060002090601f016020900481019282610b375760008555610b7d565b82601f10610b5057805160ff1916838001178555610b7d565b82800160010185558215610b7d579182015b82811115610b7d578251825591602001919060010190610b62565b50610b89929150610b8d565b5090565b5b80821115610b895760008155600101610b8e565b60008060408385031215610bb557600080fd5b8235915060208301356001600160a01b0381168114610bd357600080fd5b809150509250929050565b600060208284031215610bf057600080fd5b5035919050565b634e487b7160e01b600052604160045260246000fd5b600060208284031215610c1f57600080fd5b813567ffffffffffffffff80821115610c3757600080fd5b818401915084601f830112610c4b57600080fd5b813581811115610c5d57610c5d610bf7565b604051601f8201601f19908116603f01168101908382118183101715610c8557610c85610bf7565b81604052828152876020848701011115610c9e57600080fd5b826020860160208301376000928101602001929092525095945050505050565b634e487b7160e01b600052601160045260246000fd5b600060018201610ce657610ce6610cbe565b5060010190565b6000816000190483118215151615610d0757610d07610cbe565b500290565b600082610d2957634e487b7160e01b600052601260045260246000fd5b500490565b60008219821115610d4157610d41610cbe565b500190565b600060208284031215610d5857600080fd5b5051919050565b600082821015610d7157610d71610cbe565b500390565b60005b83811015610d91578181015183820152602001610d79565b838111156102245750506000910152565b60008151808452610dba816020860160208601610d76565b601f01601f19169290920160200192915050565b6001600160a01b0385811682528416602082015260408101839052608060608201819052600090610e0190830184610da2565b9695505050505050565b600060208284031215610e1d57600080fd5b81516001600160e01b0319811681146108cb57600080fd5b634e487b7160e01b600052603260045260246000fd5b60008251610e5d818460208701610d76565b9190910192915050565b6020815260006108cb6020830184610da2565b600181811c90821680610e8e57607f821691505b602082108103610eae57634e487b7160e01b600052602260045260246000fd5b5091905056fe4552433732313a207472616e7366657220746f206e6f6e20455243373231526563656976657220696d706c656d656e7465728b1e34c06a0926cd4f4dec6712395936ddf06c5177eba09c7581fc2f39f19f49a2646970667358221220321f5b9a261c050f12d0a0426b35c0e089fd7ab0bf93519ebc06732618ce3b6e64736f6c634300080d0033",
  "linkReferences": {},
  "deployedLinkReferences": {}
}