{
  "_format": "hh-sol-artifact-1",
  "contractName": "Donation",
  "sourceName": "contracts/2_donation/Donation.sol",
  "abi": [
    {
      "anonymous": false,
      "inputs": [
        {
          "indexed": true,
          "internalType": "address",
          "name": "owner",
          "type": "address"
        },
        {
          "indexed": true,
          "internalType": "address",
          "name": "operator",
          "type": "address"
        },
        {
          "indexed": true,
          "internalType": "uint256",
          "name": "tokenId",
          "type": "uint256"
        }
      ],
      "name": "Approval",
      "type": "event"
    },
    {
      "anonymous": false,
      "inputs": [
        {
          "indexed": true,
          "internalType": "address",
          "name": "owner",
          "type": "address"
        },
        {
          "indexed": true,
          "internalType": "address",
          "name": "operator",
          "type": "address"
        },
        {
          "indexed": false,
          "internalType": "bool",
          "name": "approved",
          "type": "bool"
        }
      ],
      "name": "ApprovalForAll",
      "type": "event"
    },
    {
      "anonymous": false,
      "inputs": [
        {
          "indexed": true,
          "internalType": "address",
          "name": "from",
          "type": "address"
        },
        {
          "indexed": true,
          "internalType": "address",
          "name": "to",
          "type": "address"
        },
        {
          "indexed": true,
          "internalType": "uint256",
          "name": "tokenId",
          "type": "uint256"
        }
      ],
      "name": "Transfer",
      "type": "event"
    },
    {
      "inputs": [],
      "name": "contractBalance",
      "outputs": [
        {
          "internalType": "uint256",
          "name": "",
          "type": "uint256"
        }
      ],
      "stateMutability": "view",
      "type": "function"
    },
    {
      "inputs": [
        {
          "internalType": "string",
          "name": "tag",
          "type": "string"
        }
      ],
      "name": "donate",
      "outputs": [],
      "stateMutability": "payable",
      "type": "function"
    },
    {
      "inputs": [],
      "name": "init",
      "outputs": [],
      "stateMutability": "nonpayable",
      "type": "function"
    },
    {
      "inputs": [
        {
          "internalType": "string",
          "name": "notification",
          "type": "string"
        }
      ],
      "name": "newNotification",
      "outputs": [],
      "stateMutability": "nonpayable",
      "type": "function"
    },
    {
      "inputs": [
        {
          "internalType": "uint256",
          "name": "amount",
          "type": "uint256"
        }
      ],
      "name": "setMinDonation",
      "outputs": [],
      "stateMutability": "nonpayable",
      "type": "function"
    },
    {
      "inputs": [
        {
          "internalType": "uint256",
          "name": "amount",
          "type": "uint256"
        },
        {
          "internalType": "address",
          "name": "receiver",
          "type": "address"
        }
      ],
      "name": "withdraw",
      "outputs": [],
      "stateMutability": "nonpayable",
      "type": "function"
    }
  ],
  "bytecode": "0x608060405234801561001057600080fd5b506119ec806100206000396000f3fe6080604052600436106100545760003560e01c8062f714ce1461005957806383a6595f146100825780638b7afe2e146100ab578063b5aebc80146100d6578063e1c7392a146100f2578063fdaee8a514610109575b600080fd5b34801561006557600080fd5b50610080600480360381019061007b9190610ecd565b610132565b005b34801561008e57600080fd5b506100a960048036038101906100a49190610f0d565b610185565b005b3480156100b757600080fd5b506100c0610199565b6040516100cd9190610f49565b60405180910390f35b6100f060048036038101906100eb91906110aa565b6101a1565b005b3480156100fe57600080fd5b50610107610221565b005b34801561011557600080fd5b50610130600480360381019061012b91906110aa565b610242565b005b61013a610256565b8073ffffffffffffffffffffffffffffffffffffffff166108fc839081150290604051600060405180830381858888f19350505050158015610180573d6000803e3d6000fd5b505050565b61018d610256565b610196816102f1565b50565b600047905090565b600034905060148251106101ea576040517f08c379a00000000000000000000000000000000000000000000000000000000081526004016101e190611176565b60405180910390fd5b60006101f4610304565b90506000339050610205818361032b565b61021b8183868661021588610349565b43610374565b50505050565b61022f6402540be4006104d5565b610240670de0b6b3a76400006102f1565b565b61024a610256565b610253816104e8565b50565b61025e61050b565b60040160009054906101000a900473ffffffffffffffffffffffffffffffffffffffff1673ffffffffffffffffffffffffffffffffffffffff163373ffffffffffffffffffffffffffffffffffffffff16146102ef576040517f08c379a00000000000000000000000000000000000000000000000000000000081526004016102e690611208565b60405180910390fd5b565b806102fa610538565b6001018190555050565b600061030e610538565b600001600081548092919061032290611257565b91905055905090565b610345828260405180602001604052806000815250610565565b5050565b60006305f5e1006103586105c0565b83610363919061129f565b61036d9190611328565b9050919050565b600061037e610538565b905080600101548410156103c7576040517f08c379a00000000000000000000000000000000000000000000000000000000081526004016103be906113cb565b60405180910390fd5b60006103d28561064a565b90506040518060a0016040528087815260200186815260200185815260200182815260200184815250826003016000898152602001908152602001600020600082015181600001908051906020019061042c929190610d82565b5060208201518160010155604082015181600201556060820151816003015560808201518160040155905050808260040160008a73ffffffffffffffffffffffffffffffffffffffff1673ffffffffffffffffffffffffffffffffffffffff16815260200190815260200160002060008282546104a991906113eb565b92505081905550848260060160008282546104c491906113eb565b925050819055505050505050505050565b806104de610538565b6002018190555050565b806104f1610538565b6005019080519060200190610507929190610d82565b5050565b6000807fc8fcad8db84d3cc18b4c41d551ea0ee66dd599cde068d998e57d5e09332c131c90508091505090565b6000807f8b1e34c06a0926cd4f4dec6712395936ddf06c5177eba09c7581fc2f39f19f4790508091505090565b61056f83836106b3565b61057c6000848484610867565b6105bb576040517f08c379a00000000000000000000000000000000000000000000000000000000081526004016105b2906114b3565b60405180910390fd5b505050565b600073ab594600376ec9fd91f8e885dadf0ce036862de073ffffffffffffffffffffffffffffffffffffffff166350d25bcd6040518163ffffffff1660e01b8152600401602060405180830381865afa158015610621573d6000803e3d6000fd5b505050506040513d601f19601f820116820180604052508101906106459190611509565b905090565b6000610654610538565b600201546305f5e100836106689190611328565b610672919061129f565b905061012c61067f610538565b6002015461068d9190611328565b610695610538565b60020160008282546106a79190611536565b92505081905550919050565b600073ffffffffffffffffffffffffffffffffffffffff168273ffffffffffffffffffffffffffffffffffffffff1603610722576040517f08c379a0000000000000000000000000000000000000000000000000000000008152600401610719906115b6565b60405180910390fd5b600061072c6109dd565b90506107418282610a0a90919063ffffffff16565b15610781576040517f08c379a000000000000000000000000000000000000000000000000000000000815260040161077890611622565b60405180910390fd5b61078d60008484610a2a565b6107e0828260020160008673ffffffffffffffffffffffffffffffffffffffff1673ffffffffffffffffffffffffffffffffffffffff168152602001908152602001600020610a2f90919063ffffffff16565b506107f9828483600001610a499092919063ffffffff16565b5061080660008484610a7e565b818373ffffffffffffffffffffffffffffffffffffffff16600073ffffffffffffffffffffffffffffffffffffffff167fddf252ad1be2c89b69c2b068fc378daa952ba7f163c4a11628f55a4df523b3ef60405160405180910390a4505050565b60006108888473ffffffffffffffffffffffffffffffffffffffff16610a83565b61089557600190506109d5565b600061095563150b7a0260e01b338887876040516024016108b994939291906116d9565b604051602081830303815290604052907bffffffffffffffffffffffffffffffffffffffffffffffffffffffff19166020820180517bffffffffffffffffffffffffffffffffffffffffffffffffffffffff8381831617835250505050604051806060016040528060328152602001611985603291398773ffffffffffffffffffffffffffffffffffffffff16610a969092919063ffffffff16565b905060008180602001905181019061096d919061177d565b90507f150b7a02000000000000000000000000000000000000000000000000000000007bffffffffffffffffffffffffffffffffffffffffffffffffffffffff1916817bffffffffffffffffffffffffffffffffffffffffffffffffffffffff191614925050505b949350505050565b6000807f3c7bf052874fa81625121783266a03507bd2cd48b16e571c01a04e8dd3fb07a690508091505090565b6000610a228284600001610aae90919063ffffffff16565b905092915050565b505050565b6000610a41836000018360001b610ac8565b905092915050565b6000610a75846000018460001b8473ffffffffffffffffffffffffffffffffffffffff1660001b610b38565b90509392505050565b505050565b600080823b905060008111915050919050565b6060610aa58484600085610c1a565b90509392505050565b6000610ac0836000018360001b610d3c565b905092915050565b6000610ad48383610d5f565b610b2d578260000182908060018154018082558091505060019003906000526020600020016000909190919091505582600001805490508360010160008481526020019081526020016000208190555060019050610b32565b600090505b92915050565b60008084600101600085815260200190815260200160002054905060008103610bde57846000016040518060400160405280868152602001858152509080600181540180825580915050600190039060005260206000209060020201600090919091909150600082015181600001556020820151816001015550508460000180549050856001016000868152602001908152602001600020819055506001915050610c13565b82856000016001830381548110610bf857610bf76117aa565b5b90600052602060002090600202016001018190555060009150505b9392505050565b6060610c2585610a83565b610c64576040517f08c379a0000000000000000000000000000000000000000000000000000000008152600401610c5b9061184b565b60405180910390fd5b6000808673ffffffffffffffffffffffffffffffffffffffff168587604051610c8d91906118a7565b60006040518083038185875af1925050503d8060008114610cca576040519150601f19603f3d011682016040523d82523d6000602084013e610ccf565b606091505b50915091508115610ce4578092505050610d34565b600081511115610cf75780518082602001fd5b836040517f08c379a0000000000000000000000000000000000000000000000000000000008152600401610d2b9190611902565b60405180910390fd5b949350505050565b600080836001016000848152602001908152602001600020541415905092915050565b600080836001016000848152602001908152602001600020541415905092915050565b828054610d8e90611953565b90600052602060002090601f016020900481019282610db05760008555610df7565b82601f10610dc957805160ff1916838001178555610df7565b82800160010185558215610df7579182015b82811115610df6578251825591602001919060010190610ddb565b5b509050610e049190610e08565b5090565b5b80821115610e21576000816000905550600101610e09565b5090565b6000604051905090565b600080fd5b600080fd5b6000819050919050565b610e4c81610e39565b8114610e5757600080fd5b50565b600081359050610e6981610e43565b92915050565b600073ffffffffffffffffffffffffffffffffffffffff82169050919050565b6000610e9a82610e6f565b9050919050565b610eaa81610e8f565b8114610eb557600080fd5b50565b600081359050610ec781610ea1565b92915050565b60008060408385031215610ee457610ee3610e2f565b5b6000610ef285828601610e5a565b9250506020610f0385828601610eb8565b9150509250929050565b600060208284031215610f2357610f22610e2f565b5b6000610f3184828501610e5a565b91505092915050565b610f4381610e39565b82525050565b6000602082019050610f5e6000830184610f3a565b92915050565b600080fd5b600080fd5b6000601f19601f8301169050919050565b7f4e487b7100000000000000000000000000000000000000000000000000000000600052604160045260246000fd5b610fb782610f6e565b810181811067ffffffffffffffff82111715610fd657610fd5610f7f565b5b80604052505050565b6000610fe9610e25565b9050610ff58282610fae565b919050565b600067ffffffffffffffff82111561101557611014610f7f565b5b61101e82610f6e565b9050602081019050919050565b82818337600083830152505050565b600061104d61104884610ffa565b610fdf565b90508281526020810184848401111561106957611068610f69565b5b61107484828561102b565b509392505050565b600082601f83011261109157611090610f64565b5b81356110a184826020860161103a565b91505092915050565b6000602082840312156110c0576110bf610e2f565b5b600082013567ffffffffffffffff8111156110de576110dd610e34565b5b6110ea8482850161107c565b91505092915050565b600082825260208201905092915050565b7f446f6e6174696f6e3a20706c6561736520696e73657274206120746167206c6560008201527f73736572207468616e20323020636861726163746572732e0000000000000000602082015250565b60006111606038836110f3565b915061116b82611104565b604082019050919050565b6000602082019050818103600083015261118f81611153565b9050919050565b7f4c69624469616d6f6e643a204d75737420626520636f6e7472616374206f776e60008201527f6572000000000000000000000000000000000000000000000000000000000000602082015250565b60006111f26022836110f3565b91506111fd82611196565b604082019050919050565b60006020820190508181036000830152611221816111e5565b9050919050565b7f4e487b7100000000000000000000000000000000000000000000000000000000600052601160045260246000fd5b600061126282610e39565b91507fffffffffffffffffffffffffffffffffffffffffffffffffffffffffffffffff820361129457611293611228565b5b600182019050919050565b60006112aa82610e39565b91506112b583610e39565b9250817fffffffffffffffffffffffffffffffffffffffffffffffffffffffffffffffff04831182151516156112ee576112ed611228565b5b828202905092915050565b7f4e487b7100000000000000000000000000000000000000000000000000000000600052601260045260246000fd5b600061133382610e39565b915061133e83610e39565b92508261134e5761134d6112f9565b5b828204905092915050565b7f446f6e6174696f6e496e7465726e616c3a206d696e696d756d20646f6e61746960008201527f6f6e206572726f722e0000000000000000000000000000000000000000000000602082015250565b60006113b56029836110f3565b91506113c082611359565b604082019050919050565b600060208201905081810360008301526113e4816113a8565b9050919050565b60006113f682610e39565b915061140183610e39565b9250827fffffffffffffffffffffffffffffffffffffffffffffffffffffffffffffffff0382111561143657611435611228565b5b828201905092915050565b7f4552433732313a207472616e7366657220746f206e6f6e20455243373231526560008201527f63656976657220696d706c656d656e7465720000000000000000000000000000602082015250565b600061149d6032836110f3565b91506114a882611441565b604082019050919050565b600060208201905081810360008301526114cc81611490565b9050919050565b6000819050919050565b6114e6816114d3565b81146114f157600080fd5b50565b600081519050611503816114dd565b92915050565b60006020828403121561151f5761151e610e2f565b5b600061152d848285016114f4565b91505092915050565b600061154182610e39565b915061154c83610e39565b92508282101561155f5761155e611228565b5b828203905092915050565b7f4552433732313a206d696e7420746f20746865207a65726f2061646472657373600082015250565b60006115a06020836110f3565b91506115ab8261156a565b602082019050919050565b600060208201905081810360008301526115cf81611593565b9050919050565b7f4552433732313a20746f6b656e20616c7265616479206d696e74656400000000600082015250565b600061160c601c836110f3565b9150611617826115d6565b602082019050919050565b6000602082019050818103600083015261163b816115ff565b9050919050565b61164b81610e8f565b82525050565b600081519050919050565b600082825260208201905092915050565b60005b8381101561168b578082015181840152602081019050611670565b8381111561169a576000848401525b50505050565b60006116ab82611651565b6116b5818561165c565b93506116c581856020860161166d565b6116ce81610f6e565b840191505092915050565b60006080820190506116ee6000830187611642565b6116fb6020830186611642565b6117086040830185610f3a565b818103606083015261171a81846116a0565b905095945050505050565b60007fffffffff0000000000000000000000000000000000000000000000000000000082169050919050565b61175a81611725565b811461176557600080fd5b50565b60008151905061177781611751565b92915050565b60006020828403121561179357611792610e2f565b5b60006117a184828501611768565b91505092915050565b7f4e487b7100000000000000000000000000000000000000000000000000000000600052603260045260246000fd5b7f416464726573735574696c733a2066756e6374696f6e2063616c6c20746f206e60008201527f6f6e2d636f6e7472616374000000000000000000000000000000000000000000602082015250565b6000611835602b836110f3565b9150611840826117d9565b604082019050919050565b6000602082019050818103600083015261186481611828565b9050919050565b600081905092915050565b600061188182611651565b61188b818561186b565b935061189b81856020860161166d565b80840191505092915050565b60006118b38284611876565b915081905092915050565b600081519050919050565b60006118d4826118be565b6118de81856110f3565b93506118ee81856020860161166d565b6118f781610f6e565b840191505092915050565b6000602082019050818103600083015261191c81846118c9565b905092915050565b7f4e487b7100000000000000000000000000000000000000000000000000000000600052602260045260246000fd5b6000600282049050600182168061196b57607f821691505b60208210810361197e5761197d611924565b5b5091905056fe4552433732313a207472616e7366657220746f206e6f6e20455243373231526563656976657220696d706c656d656e746572a2646970667358221220376cffce064fa286740535d706c56176e207a33e2c4af3cedf95acd46098544664736f6c634300080d0033",
  "linkReferences": {},
  "deployedLinkReferences": {}
}