{
  "_format": "hh-sol-artifact-1",
  "contractName": "Donation",
  "sourceName": "contracts/2_donation/Donation.sol",
  "abi": [
    {
      "anonymous": false,
      "inputs": [
        {
          "indexed": true,
          "internalType": "address",
          "name": "owner",
          "type": "address"
        },
        {
          "indexed": true,
          "internalType": "address",
          "name": "operator",
          "type": "address"
        },
        {
          "indexed": true,
          "internalType": "uint256",
          "name": "tokenId",
          "type": "uint256"
        }
      ],
      "name": "Approval",
      "type": "event"
    },
    {
      "anonymous": false,
      "inputs": [
        {
          "indexed": true,
          "internalType": "address",
          "name": "owner",
          "type": "address"
        },
        {
          "indexed": true,
          "internalType": "address",
          "name": "operator",
          "type": "address"
        },
        {
          "indexed": false,
          "internalType": "bool",
          "name": "approved",
          "type": "bool"
        }
      ],
      "name": "ApprovalForAll",
      "type": "event"
    },
    {
      "anonymous": false,
      "inputs": [
        {
          "indexed": true,
          "internalType": "address",
          "name": "from",
          "type": "address"
        },
        {
          "indexed": true,
          "internalType": "address",
          "name": "to",
          "type": "address"
        },
        {
          "indexed": true,
          "internalType": "uint256",
          "name": "tokenId",
          "type": "uint256"
        }
      ],
      "name": "Transfer",
      "type": "event"
    },
    {
      "inputs": [],
      "name": "contractBalance",
      "outputs": [
        {
          "internalType": "uint256",
          "name": "",
          "type": "uint256"
        }
      ],
      "stateMutability": "view",
      "type": "function"
    },
    {
      "inputs": [
        {
          "internalType": "string",
          "name": "tag",
          "type": "string"
        }
      ],
      "name": "donate",
      "outputs": [],
      "stateMutability": "payable",
      "type": "function"
    },
    {
      "inputs": [],
      "name": "init",
      "outputs": [],
      "stateMutability": "nonpayable",
      "type": "function"
    },
    {
      "inputs": [
        {
          "internalType": "string",
          "name": "notification",
          "type": "string"
        }
      ],
      "name": "newNotification",
      "outputs": [],
      "stateMutability": "nonpayable",
      "type": "function"
    },
    {
      "inputs": [
        {
          "internalType": "uint256",
          "name": "amount",
          "type": "uint256"
        }
      ],
      "name": "setMinDonation",
      "outputs": [],
      "stateMutability": "nonpayable",
      "type": "function"
    },
    {
      "inputs": [],
      "name": "totalPower",
      "outputs": [
        {
          "internalType": "uint256",
          "name": "",
          "type": "uint256"
        }
      ],
      "stateMutability": "view",
      "type": "function"
    },
    {
      "inputs": [
        {
          "internalType": "address",
          "name": "userAddr",
          "type": "address"
        }
      ],
      "name": "userPower",
      "outputs": [
        {
          "internalType": "uint256",
          "name": "",
          "type": "uint256"
        }
      ],
      "stateMutability": "view",
      "type": "function"
    },
    {
      "inputs": [
        {
          "internalType": "uint256",
          "name": "amount",
          "type": "uint256"
        },
        {
          "internalType": "address",
          "name": "receiver",
          "type": "address"
        }
      ],
      "name": "withdraw",
      "outputs": [],
      "stateMutability": "nonpayable",
      "type": "function"
    }
  ],
  "bytecode": "0x608060405234801561001057600080fd5b50611c09806100206000396000f3fe60806040526004361061007a5760003560e01c8063b5aebc801161004e578063b5aebc8014610139578063db3ad22c14610155578063e1c7392a14610180578063fdaee8a5146101975761007a565b8062f714ce1461007f5780634d6e3452146100a857806383a6595f146100e55780638b7afe2e1461010e575b600080fd5b34801561008b57600080fd5b506100a660048036038101906100a191906110bd565b6101c0565b005b3480156100b457600080fd5b506100cf60048036038101906100ca91906110fd565b610213565b6040516100dc9190611139565b60405180910390f35b3480156100f157600080fd5b5061010c60048036038101906101079190611154565b610225565b005b34801561011a57600080fd5b50610123610239565b6040516101309190611139565b60405180910390f35b610153600480360381019061014e91906112c7565b610241565b005b34801561016157600080fd5b5061016a6102c1565b6040516101779190611139565b60405180910390f35b34801561018c57600080fd5b506101956102d0565b005b3480156101a357600080fd5b506101be60048036038101906101b991906112c7565b610398565b005b6101c86103ac565b8073ffffffffffffffffffffffffffffffffffffffff166108fc839081150290604051600060405180830381858888f1935050505015801561020e573d6000803e3d6000fd5b505050565b600061021e82610447565b9050919050565b61022d6103ac565b61023681610499565b50565b600047905090565b6000349050601482511061028a576040517f08c379a000000000000000000000000000000000000000000000000000000000815260040161028190611393565b60405180910390fd5b60006102946104ac565b905060003390506102a581836104d3565b6102bb818386866102b5886104f1565b4361051c565b50505050565b60006102cb61062f565b905090565b6102de6402540be400610642565b6102ef670de0b6b3a7640000610499565b6102f7610655565b6007016000905560005b600a811015610395576064610314610655565b6003016000838152602001908152602001600020600301600082825461033a9190611411565b92505081905550610349610655565b600301600082815260200190815260200160002060030154610369610655565b600701600082825461037b9190611442565b92505081905550808061038d90611498565b915050610301565b50565b6103a06103ac565b6103a981610682565b50565b6103b46106a5565b60040160009054906101000a900473ffffffffffffffffffffffffffffffffffffffff1673ffffffffffffffffffffffffffffffffffffffff163373ffffffffffffffffffffffffffffffffffffffff1614610445576040517f08c379a000000000000000000000000000000000000000000000000000000000815260040161043c90611552565b60405180910390fd5b565b6000610451610655565b60040160008373ffffffffffffffffffffffffffffffffffffffff1673ffffffffffffffffffffffffffffffffffffffff168152602001908152602001600020549050919050565b806104a2610655565b6001018190555050565b60006104b6610655565b60000160008154809291906104ca90611498565b91905055905090565b6104ed8282604051806020016040528060008152506106d2565b5050565b60006305f5e10061050061072d565b8361050b9190611572565b6105159190611411565b9050919050565b6000610526610655565b9050806001015484101561056f576040517f08c379a00000000000000000000000000000000000000000000000000000000081526004016105669061163e565b60405180910390fd5b600061057a856107b7565b90506040518060a001604052808781526020018681526020018581526020018281526020018481525082600301600089815260200190815260200160002060008201518160000190805190602001906105d4929190610f72565b506020820151816001015560408201518160020155606082015181600301556080820151816004015590505061060a888261081f565b8482600601600082825461061e9190611442565b925050819055505050505050505050565b6000610639610655565b60070154905090565b8061064b610655565b6002018190555050565b6000807f8b1e34c06a0926cd4f4dec6712395936ddf06c5177eba09c7581fc2f39f19f4790508091505090565b8061068b610655565b60050190805190602001906106a1929190610f72565b5050565b6000807fc8fcad8db84d3cc18b4c41d551ea0ee66dd599cde068d998e57d5e09332c131c90508091505090565b6106dc83836108a3565b6106e96000848484610a57565b610728576040517f08c379a000000000000000000000000000000000000000000000000000000000815260040161071f906116d0565b60405180910390fd5b505050565b600073ab594600376ec9fd91f8e885dadf0ce036862de073ffffffffffffffffffffffffffffffffffffffff166350d25bcd6040518163ffffffff1660e01b8152600401602060405180830381865afa15801561078e573d6000803e3d6000fd5b505050506040513d601f19601f820116820180604052508101906107b29190611726565b905090565b60006107c1610655565b60020154620f4240836107d49190611411565b6107de9190611572565b905061012c6107eb610655565b600201546107f99190611411565b610801610655565b60020160008282546108139190611753565b92505081905550919050565b6000610829610655565b9050818160040160008573ffffffffffffffffffffffffffffffffffffffff1673ffffffffffffffffffffffffffffffffffffffff168152602001908152602001600020600082825461087c9190611442565b92505081905550818160070160008282546108979190611442565b92505081905550505050565b600073ffffffffffffffffffffffffffffffffffffffff168273ffffffffffffffffffffffffffffffffffffffff1603610912576040517f08c379a0000000000000000000000000000000000000000000000000000000008152600401610909906117d3565b60405180910390fd5b600061091c610bcd565b90506109318282610bfa90919063ffffffff16565b15610971576040517f08c379a00000000000000000000000000000000000000000000000000000000081526004016109689061183f565b60405180910390fd5b61097d60008484610c1a565b6109d0828260020160008673ffffffffffffffffffffffffffffffffffffffff1673ffffffffffffffffffffffffffffffffffffffff168152602001908152602001600020610c1f90919063ffffffff16565b506109e9828483600001610c399092919063ffffffff16565b506109f660008484610c6e565b818373ffffffffffffffffffffffffffffffffffffffff16600073ffffffffffffffffffffffffffffffffffffffff167fddf252ad1be2c89b69c2b068fc378daa952ba7f163c4a11628f55a4df523b3ef60405160405180910390a4505050565b6000610a788473ffffffffffffffffffffffffffffffffffffffff16610c73565b610a855760019050610bc5565b6000610b4563150b7a0260e01b33888787604051602401610aa994939291906118f6565b604051602081830303815290604052907bffffffffffffffffffffffffffffffffffffffffffffffffffffffff19166020820180517bffffffffffffffffffffffffffffffffffffffffffffffffffffffff8381831617835250505050604051806060016040528060328152602001611ba2603291398773ffffffffffffffffffffffffffffffffffffffff16610c869092919063ffffffff16565b9050600081806020019051810190610b5d919061199a565b90507f150b7a02000000000000000000000000000000000000000000000000000000007bffffffffffffffffffffffffffffffffffffffffffffffffffffffff1916817bffffffffffffffffffffffffffffffffffffffffffffffffffffffff191614925050505b949350505050565b6000807f3c7bf052874fa81625121783266a03507bd2cd48b16e571c01a04e8dd3fb07a690508091505090565b6000610c128284600001610c9e90919063ffffffff16565b905092915050565b505050565b6000610c31836000018360001b610cb8565b905092915050565b6000610c65846000018460001b8473ffffffffffffffffffffffffffffffffffffffff1660001b610d28565b90509392505050565b505050565b600080823b905060008111915050919050565b6060610c958484600085610e0a565b90509392505050565b6000610cb0836000018360001b610f2c565b905092915050565b6000610cc48383610f4f565b610d1d578260000182908060018154018082558091505060019003906000526020600020016000909190919091505582600001805490508360010160008481526020019081526020016000208190555060019050610d22565b600090505b92915050565b60008084600101600085815260200190815260200160002054905060008103610dce57846000016040518060400160405280868152602001858152509080600181540180825580915050600190039060005260206000209060020201600090919091909150600082015181600001556020820151816001015550508460000180549050856001016000868152602001908152602001600020819055506001915050610e03565b82856000016001830381548110610de857610de76119c7565b5b90600052602060002090600202016001018190555060009150505b9392505050565b6060610e1585610c73565b610e54576040517f08c379a0000000000000000000000000000000000000000000000000000000008152600401610e4b90611a68565b60405180910390fd5b6000808673ffffffffffffffffffffffffffffffffffffffff168587604051610e7d9190611ac4565b60006040518083038185875af1925050503d8060008114610eba576040519150601f19603f3d011682016040523d82523d6000602084013e610ebf565b606091505b50915091508115610ed4578092505050610f24565b600081511115610ee75780518082602001fd5b836040517f08c379a0000000000000000000000000000000000000000000000000000000008152600401610f1b9190611b1f565b60405180910390fd5b949350505050565b600080836001016000848152602001908152602001600020541415905092915050565b600080836001016000848152602001908152602001600020541415905092915050565b828054610f7e90611b70565b90600052602060002090601f016020900481019282610fa05760008555610fe7565b82601f10610fb957805160ff1916838001178555610fe7565b82800160010185558215610fe7579182015b82811115610fe6578251825591602001919060010190610fcb565b5b509050610ff49190610ff8565b5090565b5b80821115611011576000816000905550600101610ff9565b5090565b6000604051905090565b600080fd5b600080fd5b6000819050919050565b61103c81611029565b811461104757600080fd5b50565b60008135905061105981611033565b92915050565b600073ffffffffffffffffffffffffffffffffffffffff82169050919050565b600061108a8261105f565b9050919050565b61109a8161107f565b81146110a557600080fd5b50565b6000813590506110b781611091565b92915050565b600080604083850312156110d4576110d361101f565b5b60006110e28582860161104a565b92505060206110f3858286016110a8565b9150509250929050565b6000602082840312156111135761111261101f565b5b6000611121848285016110a8565b91505092915050565b61113381611029565b82525050565b600060208201905061114e600083018461112a565b92915050565b60006020828403121561116a5761116961101f565b5b60006111788482850161104a565b91505092915050565b600080fd5b600080fd5b6000601f19601f8301169050919050565b7f4e487b7100000000000000000000000000000000000000000000000000000000600052604160045260246000fd5b6111d48261118b565b810181811067ffffffffffffffff821117156111f3576111f261119c565b5b80604052505050565b6000611206611015565b905061121282826111cb565b919050565b600067ffffffffffffffff8211156112325761123161119c565b5b61123b8261118b565b9050602081019050919050565b82818337600083830152505050565b600061126a61126584611217565b6111fc565b90508281526020810184848401111561128657611285611186565b5b611291848285611248565b509392505050565b600082601f8301126112ae576112ad611181565b5b81356112be848260208601611257565b91505092915050565b6000602082840312156112dd576112dc61101f565b5b600082013567ffffffffffffffff8111156112fb576112fa611024565b5b61130784828501611299565b91505092915050565b600082825260208201905092915050565b7f446f6e6174696f6e3a20706c6561736520696e73657274206120746167206c6560008201527f73736572207468616e20323020636861726163746572732e0000000000000000602082015250565b600061137d603883611310565b915061138882611321565b604082019050919050565b600060208201905081810360008301526113ac81611370565b9050919050565b7f4e487b7100000000000000000000000000000000000000000000000000000000600052601260045260246000fd5b7f4e487b7100000000000000000000000000000000000000000000000000000000600052601160045260246000fd5b600061141c82611029565b915061142783611029565b925082611437576114366113b3565b5b828204905092915050565b600061144d82611029565b915061145883611029565b9250827fffffffffffffffffffffffffffffffffffffffffffffffffffffffffffffffff0382111561148d5761148c6113e2565b5b828201905092915050565b60006114a382611029565b91507fffffffffffffffffffffffffffffffffffffffffffffffffffffffffffffffff82036114d5576114d46113e2565b5b600182019050919050565b7f4c69624469616d6f6e643a204d75737420626520636f6e7472616374206f776e60008201527f6572000000000000000000000000000000000000000000000000000000000000602082015250565b600061153c602283611310565b9150611547826114e0565b604082019050919050565b6000602082019050818103600083015261156b8161152f565b9050919050565b600061157d82611029565b915061158883611029565b9250817fffffffffffffffffffffffffffffffffffffffffffffffffffffffffffffffff04831182151516156115c1576115c06113e2565b5b828202905092915050565b7f446f6e6174696f6e496e7465726e616c3a206d696e696d756d20646f6e61746960008201527f6f6e206572726f722e0000000000000000000000000000000000000000000000602082015250565b6000611628602983611310565b9150611633826115cc565b604082019050919050565b600060208201905081810360008301526116578161161b565b9050919050565b7f4552433732313a207472616e7366657220746f206e6f6e20455243373231526560008201527f63656976657220696d706c656d656e7465720000000000000000000000000000602082015250565b60006116ba603283611310565b91506116c58261165e565b604082019050919050565b600060208201905081810360008301526116e9816116ad565b9050919050565b6000819050919050565b611703816116f0565b811461170e57600080fd5b50565b600081519050611720816116fa565b92915050565b60006020828403121561173c5761173b61101f565b5b600061174a84828501611711565b91505092915050565b600061175e82611029565b915061176983611029565b92508282101561177c5761177b6113e2565b5b828203905092915050565b7f4552433732313a206d696e7420746f20746865207a65726f2061646472657373600082015250565b60006117bd602083611310565b91506117c882611787565b602082019050919050565b600060208201905081810360008301526117ec816117b0565b9050919050565b7f4552433732313a20746f6b656e20616c7265616479206d696e74656400000000600082015250565b6000611829601c83611310565b9150611834826117f3565b602082019050919050565b600060208201905081810360008301526118588161181c565b9050919050565b6118688161107f565b82525050565b600081519050919050565b600082825260208201905092915050565b60005b838110156118a857808201518184015260208101905061188d565b838111156118b7576000848401525b50505050565b60006118c88261186e565b6118d28185611879565b93506118e281856020860161188a565b6118eb8161118b565b840191505092915050565b600060808201905061190b600083018761185f565b611918602083018661185f565b611925604083018561112a565b818103606083015261193781846118bd565b905095945050505050565b60007fffffffff0000000000000000000000000000000000000000000000000000000082169050919050565b61197781611942565b811461198257600080fd5b50565b6000815190506119948161196e565b92915050565b6000602082840312156119b0576119af61101f565b5b60006119be84828501611985565b91505092915050565b7f4e487b7100000000000000000000000000000000000000000000000000000000600052603260045260246000fd5b7f416464726573735574696c733a2066756e6374696f6e2063616c6c20746f206e60008201527f6f6e2d636f6e7472616374000000000000000000000000000000000000000000602082015250565b6000611a52602b83611310565b9150611a5d826119f6565b604082019050919050565b60006020820190508181036000830152611a8181611a45565b9050919050565b600081905092915050565b6000611a9e8261186e565b611aa88185611a88565b9350611ab881856020860161188a565b80840191505092915050565b6000611ad08284611a93565b915081905092915050565b600081519050919050565b6000611af182611adb565b611afb8185611310565b9350611b0b81856020860161188a565b611b148161118b565b840191505092915050565b60006020820190508181036000830152611b398184611ae6565b905092915050565b7f4e487b7100000000000000000000000000000000000000000000000000000000600052602260045260246000fd5b60006002820490506001821680611b8857607f821691505b602082108103611b9b57611b9a611b41565b5b5091905056fe4552433732313a207472616e7366657220746f206e6f6e20455243373231526563656976657220696d706c656d656e746572a2646970667358221220c9ffb7e1f2b4fd35c20bde475fe0357c82ee4ad2edd4417a57b8ec13c7e4fb6864736f6c634300080d0033",
  "linkReferences": {},
  "deployedLinkReferences": {}
}