{
  "_format": "hh-sol-artifact-1",
  "contractName": "Donation",
  "sourceName": "contracts/2_donation/Donation.sol",
  "abi": [
    {
      "anonymous": false,
      "inputs": [
        {
          "indexed": true,
          "internalType": "address",
          "name": "owner",
          "type": "address"
        },
        {
          "indexed": true,
          "internalType": "address",
          "name": "operator",
          "type": "address"
        },
        {
          "indexed": true,
          "internalType": "uint256",
          "name": "tokenId",
          "type": "uint256"
        }
      ],
      "name": "Approval",
      "type": "event"
    },
    {
      "anonymous": false,
      "inputs": [
        {
          "indexed": true,
          "internalType": "address",
          "name": "owner",
          "type": "address"
        },
        {
          "indexed": true,
          "internalType": "address",
          "name": "operator",
          "type": "address"
        },
        {
          "indexed": false,
          "internalType": "bool",
          "name": "approved",
          "type": "bool"
        }
      ],
      "name": "ApprovalForAll",
      "type": "event"
    },
    {
      "anonymous": false,
      "inputs": [
        {
          "indexed": true,
          "internalType": "address",
          "name": "from",
          "type": "address"
        },
        {
          "indexed": true,
          "internalType": "address",
          "name": "to",
          "type": "address"
        },
        {
          "indexed": true,
          "internalType": "uint256",
          "name": "tokenId",
          "type": "uint256"
        }
      ],
      "name": "Transfer",
      "type": "event"
    },
    {
      "inputs": [
        {
          "internalType": "uint256",
          "name": "tokenId",
          "type": "uint256"
        }
      ],
      "name": "changePattern",
      "outputs": [],
      "stateMutability": "nonpayable",
      "type": "function"
    },
    {
      "inputs": [],
      "name": "contractBalance",
      "outputs": [
        {
          "internalType": "uint256",
          "name": "",
          "type": "uint256"
        }
      ],
      "stateMutability": "view",
      "type": "function"
    },
    {
      "inputs": [
        {
          "internalType": "string",
          "name": "tag",
          "type": "string"
        }
      ],
      "name": "donate",
      "outputs": [],
      "stateMutability": "payable",
      "type": "function"
    },
    {
      "inputs": [],
      "name": "init",
      "outputs": [],
      "stateMutability": "nonpayable",
      "type": "function"
    },
    {
      "inputs": [
        {
          "internalType": "uint256",
          "name": "amount",
          "type": "uint256"
        }
      ],
      "name": "setMinDonation",
      "outputs": [],
      "stateMutability": "nonpayable",
      "type": "function"
    },
    {
      "inputs": [
        {
          "internalType": "string",
          "name": "notification1",
          "type": "string"
        },
        {
          "internalType": "string",
          "name": "notification2",
          "type": "string"
        }
      ],
      "name": "setNotification",
      "outputs": [],
      "stateMutability": "nonpayable",
      "type": "function"
    },
    {
      "inputs": [],
      "name": "totalPower",
      "outputs": [
        {
          "internalType": "uint256",
          "name": "",
          "type": "uint256"
        }
      ],
      "stateMutability": "view",
      "type": "function"
    },
    {
      "inputs": [
        {
          "internalType": "address",
          "name": "userAddr",
          "type": "address"
        }
      ],
      "name": "userPower",
      "outputs": [
        {
          "internalType": "uint256",
          "name": "",
          "type": "uint256"
        }
      ],
      "stateMutability": "view",
      "type": "function"
    },
    {
      "inputs": [
        {
          "internalType": "uint256",
          "name": "amount",
          "type": "uint256"
        },
        {
          "internalType": "address",
          "name": "receiver",
          "type": "address"
        }
      ],
      "name": "withdraw",
      "outputs": [],
      "stateMutability": "nonpayable",
      "type": "function"
    }
  ],
  "bytecode": "0x608060405234801561001057600080fd5b506125a3806100206000396000f3fe6080604052600436106100855760003560e01c80638b7afe2e116100595780638b7afe2e14610142578063b5aebc801461016d578063db3ad22c14610189578063e1c7392a146101b4578063e656619a146101cb57610085565b8062f714ce1461008a57806301cb2b9c146100b35780634d6e3452146100dc57806383a6595f14610119575b600080fd5b34801561009657600080fd5b506100b160048036038101906100ac919061167f565b6101f4565b005b3480156100bf57600080fd5b506100da60048036038101906100d591906116bf565b610247565b005b3480156100e857600080fd5b5061010360048036038101906100fe91906116ec565b61029c565b6040516101109190611728565b60405180910390f35b34801561012557600080fd5b50610140600480360381019061013b91906116bf565b6102ae565b005b34801561014e57600080fd5b506101576102c2565b6040516101649190611728565b60405180910390f35b610187600480360381019061018291906117a8565b6102ca565b005b34801561019557600080fd5b5061019e610308565b6040516101ab9190611728565b60405180910390f35b3480156101c057600080fd5b506101c9610317565b005b3480156101d757600080fd5b506101f260048036038101906101ed9190611936565b610338565b005b6101fc61034e565b8073ffffffffffffffffffffffffffffffffffffffff166108fc839081150290604051600060405180830381858888f19350505050158015610242573d6000803e3d6000fd5b505050565b61025133826103e9565b610290576040517f08c379a000000000000000000000000000000000000000000000000000000000815260040161028790611a31565b60405180910390fd5b610299816104d8565b50565b60006102a782610510565b9050919050565b6102b661034e565b6102bf81610562565b50565b600047905090565b6000349050600033905060006102de610575565b90506102ea828261059c565b61030182828787876102fb896105ba565b436105e5565b5050505050565b6000610312610954565b905090565b6103256402540be400610967565b610336670de0b6b3a7640000610562565b565b61034061034e565b61034a828261097a565b5050565b6103566109be565b60040160009054906101000a900473ffffffffffffffffffffffffffffffffffffffff1673ffffffffffffffffffffffffffffffffffffffff163373ffffffffffffffffffffffffffffffffffffffff16146103e7576040517f08c379a00000000000000000000000000000000000000000000000000000000081526004016103de90611ac3565b60405180910390fd5b565b6000610405826103f76109eb565b610a1890919063ffffffff16565b610444576040517f08c379a000000000000000000000000000000000000000000000000000000000815260040161043b90611b55565b60405180910390fd5b600061044f83610a38565b90508073ffffffffffffffffffffffffffffffffffffffff168473ffffffffffffffffffffffffffffffffffffffff1614806104be57508373ffffffffffffffffffffffffffffffffffffffff166104a684610ad2565b73ffffffffffffffffffffffffffffffffffffffff16145b806104cf57506104ce8185610b6f565b5b91505092915050565b6104e0610c0c565b6003016000828152602001908152602001600020600601600081548092919061050890611ba4565b919050555050565b600061051a610c0c565b60040160008373ffffffffffffffffffffffffffffffffffffffff1673ffffffffffffffffffffffffffffffffffffffff168152602001908152602001600020549050919050565b8061056b610c0c565b6001018190555050565b600061057f610c0c565b600001600081548092919061059390611ba4565b91905055905090565b6105b6828260405180602001604052806000815250610c39565b5050565b60006305f5e1006105c9610c94565b836105d49190611bec565b6105de9190611c75565b9050919050565b60006105ef610c0c565b90508060010154841015610638576040517f08c379a000000000000000000000000000000000000000000000000000000000815260040161062f90611d18565b60405180910390fd5b600086868080601f016020809104026020016040519081016040528093929190818152602001838380828437600081840152601f19601f8201169050808301925050505050505090506000815190506060806021831115610813576000602290505b60008111156106fc5780806106ae90611d38565b915050602060f81b8582815181106106c9576106c8611d61565b5b602001015160f81c60f81b7effffffffffffffffffffffffffffffffffffffffffffffffffffffffffffff19160361069a575b6000810361070b57602161070d565b805b90506021818561071d9190611d90565b111561075e576040517f08c379a000000000000000000000000000000000000000000000000000000000815260040161075590611e36565b60405180910390fd5b8a8a600090839261077193929190611e60565b8080601f016020809104026020016040519081016040528093929190818152602001838380828437600081840152601f19601f8201169050808301925050505050505092508a8a829086926107c893929190611e60565b8080601f016020809104026020016040519081016040528093929190818152602001838380828437600081840152601f19601f8201169050808301925050505050505091505061085b565b89898080601f016020809104026020016040519081016040528093929190818152602001838380828437600081840152601f19601f8201169050808301925050505050505091505b600061086689610d1e565b90506040518060e001604052808481526020018381526020018a815260200189815260200182815260200188815260200160008152508660030160008e815260200190815260200160002060008201518160000190805190602001906108cd929190611534565b5060208201518160010190805190602001906108ea929190611534565b5060408201518160020155606082015181600301556080820151816004015560a0820151816005015560c0820151816006015590505061092a8d82610d7f565b8886600501600082825461093e9190611e9b565b9250508190555050505050505050505050505050565b600061095e610c0c565b60060154905090565b80610970610c0c565b6002018190555050565b81610983610c0c565b6007019080519060200190610999929190611534565b50806109a3610c0c565b60080190805190602001906109b9929190611534565b505050565b6000807fc8fcad8db84d3cc18b4c41d551ea0ee66dd599cde068d998e57d5e09332c131c90508091505090565b6000807f3c7bf052874fa81625121783266a03507bd2cd48b16e571c01a04e8dd3fb07a690508091505090565b6000610a308284600001610e0390919063ffffffff16565b905092915050565b600080610a5883610a476109eb565b600001610e1d90919063ffffffff16565b9050600073ffffffffffffffffffffffffffffffffffffffff168173ffffffffffffffffffffffffffffffffffffffff1603610ac9576040517f08c379a0000000000000000000000000000000000000000000000000000000008152600401610ac090611f3d565b60405180910390fd5b80915050919050565b600080610add6109eb565b9050610af28382610a1890919063ffffffff16565b610b31576040517f08c379a0000000000000000000000000000000000000000000000000000000008152600401610b2890611fcf565b60405180910390fd5b80600301600084815260200190815260200160002060009054906101000a900473ffffffffffffffffffffffffffffffffffffffff16915050919050565b6000610b796109eb565b60040160008473ffffffffffffffffffffffffffffffffffffffff1673ffffffffffffffffffffffffffffffffffffffff16815260200190815260200160002060008373ffffffffffffffffffffffffffffffffffffffff1673ffffffffffffffffffffffffffffffffffffffff16815260200190815260200160002060009054906101000a900460ff16905092915050565b6000807f8b1e34c06a0926cd4f4dec6712395936ddf06c5177eba09c7581fc2f39f19f4790508091505090565b610c438383610e3a565b610c506000848484610fee565b610c8f576040517f08c379a0000000000000000000000000000000000000000000000000000000008152600401610c8690612061565b60405180910390fd5b505050565b600073ab594600376ec9fd91f8e885dadf0ce036862de073ffffffffffffffffffffffffffffffffffffffff166350d25bcd6040518163ffffffff1660e01b8152600401602060405180830381865afa158015610cf5573d6000803e3d6000fd5b505050506040513d601f19601f82011682018060405250810190610d1991906120b7565b905090565b600080610d29610c0c565b905080600201546402540be40084610d419190611c75565b610d4b9190611bec565b915061014a8160020154610d5f9190611c75565b816002016000828254610d729190611d90565b9250508190555050919050565b6000610d89610c0c565b9050818160040160008573ffffffffffffffffffffffffffffffffffffffff1673ffffffffffffffffffffffffffffffffffffffff1681526020019081526020016000206000828254610ddc9190611e9b565b9250508190555081816006016000828254610df79190611e9b565b92505081905550505050565b6000610e15836000018360001b611164565b905092915050565b6000610e2f836000018360001b611187565b60001c905092915050565b600073ffffffffffffffffffffffffffffffffffffffff168273ffffffffffffffffffffffffffffffffffffffff1603610ea9576040517f08c379a0000000000000000000000000000000000000000000000000000000008152600401610ea090612130565b60405180910390fd5b6000610eb36109eb565b9050610ec88282610a1890919063ffffffff16565b15610f08576040517f08c379a0000000000000000000000000000000000000000000000000000000008152600401610eff9061219c565b60405180910390fd5b610f1460008484611219565b610f67828260020160008673ffffffffffffffffffffffffffffffffffffffff1673ffffffffffffffffffffffffffffffffffffffff16815260200190815260200160002061121e90919063ffffffff16565b50610f808284836000016112389092919063ffffffff16565b50610f8d6000848461126d565b818373ffffffffffffffffffffffffffffffffffffffff16600073ffffffffffffffffffffffffffffffffffffffff167fddf252ad1be2c89b69c2b068fc378daa952ba7f163c4a11628f55a4df523b3ef60405160405180910390a4505050565b600061100f8473ffffffffffffffffffffffffffffffffffffffff16611272565b61101c576001905061115c565b60006110dc63150b7a0260e01b338887876040516024016110409493929190612253565b604051602081830303815290604052907bffffffffffffffffffffffffffffffffffffffffffffffffffffffff19166020820180517bffffffffffffffffffffffffffffffffffffffffffffffffffffffff838183161783525050505060405180606001604052806032815260200161253c603291398773ffffffffffffffffffffffffffffffffffffffff166112859092919063ffffffff16565b90506000818060200190518101906110f491906122f7565b90507f150b7a02000000000000000000000000000000000000000000000000000000007bffffffffffffffffffffffffffffffffffffffffffffffffffffffff1916817bffffffffffffffffffffffffffffffffffffffffffffffffffffffff191614925050505b949350505050565b600080836001016000848152602001908152602001600020541415905092915050565b600080836001016000848152602001908152602001600020549050600081036111e5576040517f08c379a00000000000000000000000000000000000000000000000000000000081526004016111dc90612370565b60405180910390fd5b8360000160018203815481106111fe576111fd611d61565b5b90600052602060002090600202016001015491505092915050565b505050565b6000611230836000018360001b61129d565b905092915050565b6000611264846000018460001b8473ffffffffffffffffffffffffffffffffffffffff1660001b61130d565b90509392505050565b505050565b600080823b905060008111915050919050565b606061129484846000856113ef565b90509392505050565b60006112a98383611511565b611302578260000182908060018154018082558091505060019003906000526020600020016000909190919091505582600001805490508360010160008481526020019081526020016000208190555060019050611307565b600090505b92915050565b600080846001016000858152602001908152602001600020549050600081036113b3578460000160405180604001604052808681526020018581525090806001815401808255809150506001900390600052602060002090600202016000909190919091506000820151816000015560208201518160010155505084600001805490508560010160008681526020019081526020016000208190555060019150506113e8565b828560000160018303815481106113cd576113cc611d61565b5b90600052602060002090600202016001018190555060009150505b9392505050565b60606113fa85611272565b611439576040517f08c379a000000000000000000000000000000000000000000000000000000000815260040161143090612402565b60405180910390fd5b6000808673ffffffffffffffffffffffffffffffffffffffff168587604051611462919061245e565b60006040518083038185875af1925050503d806000811461149f576040519150601f19603f3d011682016040523d82523d6000602084013e6114a4565b606091505b509150915081156114b9578092505050611509565b6000815111156114cc5780518082602001fd5b836040517f08c379a000000000000000000000000000000000000000000000000000000000815260040161150091906124b9565b60405180910390fd5b949350505050565b600080836001016000848152602001908152602001600020541415905092915050565b8280546115409061250a565b90600052602060002090601f01602090048101928261156257600085556115a9565b82601f1061157b57805160ff19168380011785556115a9565b828001600101855582156115a9579182015b828111156115a857825182559160200191906001019061158d565b5b5090506115b691906115ba565b5090565b5b808211156115d35760008160009055506001016115bb565b5090565b6000604051905090565b600080fd5b600080fd5b6000819050919050565b6115fe816115eb565b811461160957600080fd5b50565b60008135905061161b816115f5565b92915050565b600073ffffffffffffffffffffffffffffffffffffffff82169050919050565b600061164c82611621565b9050919050565b61165c81611641565b811461166757600080fd5b50565b60008135905061167981611653565b92915050565b60008060408385031215611696576116956115e1565b5b60006116a48582860161160c565b92505060206116b58582860161166a565b9150509250929050565b6000602082840312156116d5576116d46115e1565b5b60006116e38482850161160c565b91505092915050565b600060208284031215611702576117016115e1565b5b60006117108482850161166a565b91505092915050565b611722816115eb565b82525050565b600060208201905061173d6000830184611719565b92915050565b600080fd5b600080fd5b600080fd5b60008083601f84011261176857611767611743565b5b8235905067ffffffffffffffff81111561178557611784611748565b5b6020830191508360018202830111156117a1576117a061174d565b5b9250929050565b600080602083850312156117bf576117be6115e1565b5b600083013567ffffffffffffffff8111156117dd576117dc6115e6565b5b6117e985828601611752565b92509250509250929050565b600080fd5b6000601f19601f8301169050919050565b7f4e487b7100000000000000000000000000000000000000000000000000000000600052604160045260246000fd5b611843826117fa565b810181811067ffffffffffffffff821117156118625761186161180b565b5b80604052505050565b60006118756115d7565b9050611881828261183a565b919050565b600067ffffffffffffffff8211156118a1576118a061180b565b5b6118aa826117fa565b9050602081019050919050565b82818337600083830152505050565b60006118d96118d484611886565b61186b565b9050828152602081018484840111156118f5576118f46117f5565b5b6119008482856118b7565b509392505050565b600082601f83011261191d5761191c611743565b5b813561192d8482602086016118c6565b91505092915050565b6000806040838503121561194d5761194c6115e1565b5b600083013567ffffffffffffffff81111561196b5761196a6115e6565b5b61197785828601611908565b925050602083013567ffffffffffffffff811115611998576119976115e6565b5b6119a485828601611908565b9150509250929050565b600082825260208201905092915050565b7f446f6e6174696f6e3a2063616c6c6572206973206e6f7420617070726f76656460008201527f206e6f72206f776e657200000000000000000000000000000000000000000000602082015250565b6000611a1b602a836119ae565b9150611a26826119bf565b604082019050919050565b60006020820190508181036000830152611a4a81611a0e565b9050919050565b7f4c69624469616d6f6e643a204d75737420626520636f6e7472616374206f776e60008201527f6572000000000000000000000000000000000000000000000000000000000000602082015250565b6000611aad6022836119ae565b9150611ab882611a51565b604082019050919050565b60006020820190508181036000830152611adc81611aa0565b9050919050565b7f4552433732313a20717565727920666f72206e6f6e6578697374656e7420746f60008201527f6b656e0000000000000000000000000000000000000000000000000000000000602082015250565b6000611b3f6023836119ae565b9150611b4a82611ae3565b604082019050919050565b60006020820190508181036000830152611b6e81611b32565b9050919050565b7f4e487b7100000000000000000000000000000000000000000000000000000000600052601160045260246000fd5b6000611baf826115eb565b91507fffffffffffffffffffffffffffffffffffffffffffffffffffffffffffffffff8203611be157611be0611b75565b5b600182019050919050565b6000611bf7826115eb565b9150611c02836115eb565b9250817fffffffffffffffffffffffffffffffffffffffffffffffffffffffffffffffff0483118215151615611c3b57611c3a611b75565b5b828202905092915050565b7f4e487b7100000000000000000000000000000000000000000000000000000000600052601260045260246000fd5b6000611c80826115eb565b9150611c8b836115eb565b925082611c9b57611c9a611c46565b5b828204905092915050565b7f446f6e6174696f6e496e7465726e616c3a206d696e696d756d20646f6e61746960008201527f6f6e206572726f722e0000000000000000000000000000000000000000000000602082015250565b6000611d026029836119ae565b9150611d0d82611ca6565b604082019050919050565b60006020820190508181036000830152611d3181611cf5565b9050919050565b6000611d43826115eb565b915060008203611d5657611d55611b75565b5b600182039050919050565b7f4e487b7100000000000000000000000000000000000000000000000000000000600052603260045260246000fd5b6000611d9b826115eb565b9150611da6836115eb565b925082821015611db957611db8611b75565b5b828203905092915050565b7f446f6e6174696f6e496e7465726e616c3a2074616720737472696e67206f766560008201527f72666c6f77000000000000000000000000000000000000000000000000000000602082015250565b6000611e206025836119ae565b9150611e2b82611dc4565b604082019050919050565b60006020820190508181036000830152611e4f81611e13565b9050919050565b600080fd5b600080fd5b60008085851115611e7457611e73611e56565b5b83861115611e8557611e84611e5b565b5b6001850283019150848603905094509492505050565b6000611ea6826115eb565b9150611eb1836115eb565b9250827fffffffffffffffffffffffffffffffffffffffffffffffffffffffffffffffff03821115611ee657611ee5611b75565b5b828201905092915050565b7f4552433732313a20696e76616c6964206f776e65720000000000000000000000600082015250565b6000611f276015836119ae565b9150611f3282611ef1565b602082019050919050565b60006020820190508181036000830152611f5681611f1a565b9050919050565b7f4552433732313a20617070726f76656420717565727920666f72206e6f6e657860008201527f697374656e7420746f6b656e0000000000000000000000000000000000000000602082015250565b6000611fb9602c836119ae565b9150611fc482611f5d565b604082019050919050565b60006020820190508181036000830152611fe881611fac565b9050919050565b7f4552433732313a207472616e7366657220746f206e6f6e20455243373231526560008201527f63656976657220696d706c656d656e7465720000000000000000000000000000602082015250565b600061204b6032836119ae565b915061205682611fef565b604082019050919050565b6000602082019050818103600083015261207a8161203e565b9050919050565b6000819050919050565b61209481612081565b811461209f57600080fd5b50565b6000815190506120b18161208b565b92915050565b6000602082840312156120cd576120cc6115e1565b5b60006120db848285016120a2565b91505092915050565b7f4552433732313a206d696e7420746f20746865207a65726f2061646472657373600082015250565b600061211a6020836119ae565b9150612125826120e4565b602082019050919050565b600060208201905081810360008301526121498161210d565b9050919050565b7f4552433732313a20746f6b656e20616c7265616479206d696e74656400000000600082015250565b6000612186601c836119ae565b915061219182612150565b602082019050919050565b600060208201905081810360008301526121b581612179565b9050919050565b6121c581611641565b82525050565b600081519050919050565b600082825260208201905092915050565b60005b838110156122055780820151818401526020810190506121ea565b83811115612214576000848401525b50505050565b6000612225826121cb565b61222f81856121d6565b935061223f8185602086016121e7565b612248816117fa565b840191505092915050565b600060808201905061226860008301876121bc565b61227560208301866121bc565b6122826040830185611719565b8181036060830152612294818461221a565b905095945050505050565b60007fffffffff0000000000000000000000000000000000000000000000000000000082169050919050565b6122d48161229f565b81146122df57600080fd5b50565b6000815190506122f1816122cb565b92915050565b60006020828403121561230d5761230c6115e1565b5b600061231b848285016122e2565b91505092915050565b7f456e756d657261626c654d61703a206e6f6e6578697374656e74206b65790000600082015250565b600061235a601e836119ae565b915061236582612324565b602082019050919050565b600060208201905081810360008301526123898161234d565b9050919050565b7f416464726573735574696c733a2066756e6374696f6e2063616c6c20746f206e60008201527f6f6e2d636f6e7472616374000000000000000000000000000000000000000000602082015250565b60006123ec602b836119ae565b91506123f782612390565b604082019050919050565b6000602082019050818103600083015261241b816123df565b9050919050565b600081905092915050565b6000612438826121cb565b6124428185612422565b93506124528185602086016121e7565b80840191505092915050565b600061246a828461242d565b915081905092915050565b600081519050919050565b600061248b82612475565b61249581856119ae565b93506124a58185602086016121e7565b6124ae816117fa565b840191505092915050565b600060208201905081810360008301526124d38184612480565b905092915050565b7f4e487b7100000000000000000000000000000000000000000000000000000000600052602260045260246000fd5b6000600282049050600182168061252257607f821691505b602082108103612535576125346124db565b5b5091905056fe4552433732313a207472616e7366657220746f206e6f6e20455243373231526563656976657220696d706c656d656e746572a26469706673582212203d9ed07356e0b177ab55ea25911df07f9c898d4b26ba72f7b6eeff5ae867c0af64736f6c634300080d0033",
  "linkReferences": {},
  "deployedLinkReferences": {}
}