{
  "_format": "hh-sol-artifact-1",
  "contractName": "NFTFactory",
  "sourceName": "contracts/NFTCollectionFactory.sol",
  "abi": [
    {
      "anonymous": false,
      "inputs": [
        {
          "indexed": false,
          "internalType": "address",
          "name": "collectionAddr",
          "type": "address"
        },
        {
          "indexed": false,
          "internalType": "address",
          "name": "collectionOwner",
          "type": "address"
        },
        {
          "indexed": false,
          "internalType": "string",
          "name": "name",
          "type": "string"
        },
        {
          "indexed": false,
          "internalType": "string",
          "name": "symbol",
          "type": "string"
        }
      ],
      "name": "NewNFTCollection",
      "type": "event"
    },
    {
      "inputs": [],
      "name": "NFTLib",
      "outputs": [
        {
          "internalType": "contract NFTCollection",
          "name": "",
          "type": "address"
        }
      ],
      "stateMutability": "view",
      "type": "function"
    },
    {
      "inputs": [
        {
          "internalType": "string",
          "name": "name",
          "type": "string"
        },
        {
          "internalType": "string",
          "name": "symbol",
          "type": "string"
        }
      ],
      "name": "newNFTCollection",
      "outputs": [],
      "stateMutability": "nonpayable",
      "type": "function"
    },
    {
      "inputs": [],
      "name": "version",
      "outputs": [
        {
          "internalType": "string",
          "name": "V_",
          "type": "string"
        }
      ],
      "stateMutability": "pure",
      "type": "function"
    }
  ],
  "bytecode": "0x60806040526040516100109061007e565b604051809103906000f08015801561002c573d6000803e3d6000fd5b506000806101000a81548173ffffffffffffffffffffffffffffffffffffffff021916908373ffffffffffffffffffffffffffffffffffffffff16021790555034801561007857600080fd5b5061008b565b613514806107d383390190565b6107398061009a6000396000f3fe608060405234801561001057600080fd5b50600436106100415760003560e01c806354fd4d50146100465780635e6d461e146100645780636211c82a14610082575b600080fd5b61004e61009e565b60405161005b9190610361565b60405180910390f35b61006c6100db565b6040516100799190610402565b60405180910390f35b61009c60048036038101906100979190610566565b6100ff565b005b60606040518060400160405280600381526020017f302e310000000000000000000000000000000000000000000000000000000000815250905090565b60008054906101000a900473ffffffffffffffffffffffffffffffffffffffff1681565b600061014060008054906101000a900473ffffffffffffffffffffffffffffffffffffffff1673ffffffffffffffffffffffffffffffffffffffff166101f3565b90508073ffffffffffffffffffffffffffffffffffffffff1663906571473385856040518463ffffffff1660e01b815260040161017f939291906105ff565b600060405180830381600087803b15801561019957600080fd5b505af11580156101ad573d6000803e3d6000fd5b505050507fd5fbfa647adbc8451c5df77c36167774b33268014673ca90fcc0f29fb9a91947813385856040516101e69493929190610644565b60405180910390a1505050565b60006040517f3d602d80600a3d3981f3363d3d373d3d3d363d7300000000000000000000000081528260601b60148201527f5af43d82803e903d91602b57fd5bf3000000000000000000000000000000000060288201526037816000f0915050600073ffffffffffffffffffffffffffffffffffffffff168173ffffffffffffffffffffffffffffffffffffffff1614156102c3576040517f08c379a00000000000000000000000000000000000000000000000000000000081526004016102ba906106e3565b60405180910390fd5b919050565b600081519050919050565b600082825260208201905092915050565b60005b838110156103025780820151818401526020810190506102e7565b83811115610311576000848401525b50505050565b6000601f19601f8301169050919050565b6000610333826102c8565b61033d81856102d3565b935061034d8185602086016102e4565b61035681610317565b840191505092915050565b6000602082019050818103600083015261037b8184610328565b905092915050565b600073ffffffffffffffffffffffffffffffffffffffff82169050919050565b6000819050919050565b60006103c86103c36103be84610383565b6103a3565b610383565b9050919050565b60006103da826103ad565b9050919050565b60006103ec826103cf565b9050919050565b6103fc816103e1565b82525050565b600060208201905061041760008301846103f3565b92915050565b6000604051905090565b600080fd5b600080fd5b600080fd5b600080fd5b7f4e487b7100000000000000000000000000000000000000000000000000000000600052604160045260246000fd5b61047382610317565b810181811067ffffffffffffffff821117156104925761049161043b565b5b80604052505050565b60006104a561041d565b90506104b1828261046a565b919050565b600067ffffffffffffffff8211156104d1576104d061043b565b5b6104da82610317565b9050602081019050919050565b82818337600083830152505050565b6000610509610504846104b6565b61049b565b90508281526020810184848401111561052557610524610436565b5b6105308482856104e7565b509392505050565b600082601f83011261054d5761054c610431565b5b813561055d8482602086016104f6565b91505092915050565b6000806040838503121561057d5761057c610427565b5b600083013567ffffffffffffffff81111561059b5761059a61042c565b5b6105a785828601610538565b925050602083013567ffffffffffffffff8111156105c8576105c761042c565b5b6105d485828601610538565b9150509250929050565b60006105e982610383565b9050919050565b6105f9816105de565b82525050565b600060608201905061061460008301866105f0565b81810360208301526106268185610328565b9050818103604083015261063a8184610328565b9050949350505050565b600060808201905061065960008301876105f0565b61066660208301866105f0565b81810360408301526106788185610328565b9050818103606083015261068c8184610328565b905095945050505050565b7f455243313136373a20637265617465206661696c656400000000000000000000600082015250565b60006106cd6016836102d3565b91506106d882610697565b602082019050919050565b600060208201905081810360008301526106fc816106c0565b905091905056fea26469706673582212201ebeb2d5249c1d57bcb688c300d728305a5df9da85a5fe08f50467fd9c36c1d664736f6c634300080b0033608060405234801561001057600080fd5b506134f4806100206000396000f3fe608060405234801561001057600080fd5b50600436106101165760003560e01c80638da5cb5b116100a2578063b88d4fde11610071578063b88d4fde146102cb578063c87b56dd146102e7578063d204c45e14610317578063e985e9c514610333578063f2fde38b1461036357610116565b80638da5cb5b14610257578063906571471461027557806395d89b4114610291578063a22cb465146102af57610116565b806323b872dd116100e957806323b872dd146101b557806342842e0e146101d15780636352211e146101ed57806370a082311461021d578063715018a61461024d57610116565b806301ffc9a71461011b57806306fdde031461014b578063081812fc14610169578063095ea7b314610199575b600080fd5b61013560048036038101906101309190611fa9565b61037f565b6040516101429190611ff1565b60405180910390f35b610153610461565b60405161016091906120a5565b60405180910390f35b610183600480360381019061017e91906120fd565b6104f3565b604051610190919061216b565b60405180910390f35b6101b360048036038101906101ae91906121b2565b610578565b005b6101cf60048036038101906101ca91906121f2565b610690565b005b6101eb60048036038101906101e691906121f2565b6106f0565b005b610207600480360381019061020291906120fd565b610710565b604051610214919061216b565b60405180910390f35b61023760048036038101906102329190612245565b6107c2565b6040516102449190612281565b60405180910390f35b61025561087a565b005b61025f610902565b60405161026c919061216b565b60405180910390f35b61028f600480360381019061028a91906123d1565b61092c565b005b610299610a2e565b6040516102a691906120a5565b60405180910390f35b6102c960048036038101906102c49190612488565b610ac0565b005b6102e560048036038101906102e09190612569565b610ad6565b005b61030160048036038101906102fc91906120fd565b610b38565b60405161030e91906120a5565b60405180910390f35b610331600480360381019061032c91906125ec565b610b4a565b005b61034d60048036038101906103489190612648565b610bf7565b60405161035a9190611ff1565b60405180910390f35b61037d60048036038101906103789190612245565b610c8b565b005b60007f80ac58cd000000000000000000000000000000000000000000000000000000007bffffffffffffffffffffffffffffffffffffffffffffffffffffffff1916827bffffffffffffffffffffffffffffffffffffffffffffffffffffffff1916148061044a57507f5b5e139f000000000000000000000000000000000000000000000000000000007bffffffffffffffffffffffffffffffffffffffffffffffffffffffff1916827bffffffffffffffffffffffffffffffffffffffffffffffffffffffff1916145b8061045a575061045982610d83565b5b9050919050565b606060658054610470906126b7565b80601f016020809104026020016040519081016040528092919081815260200182805461049c906126b7565b80156104e95780601f106104be576101008083540402835291602001916104e9565b820191906000526020600020905b8154815290600101906020018083116104cc57829003601f168201915b5050505050905090565b60006104fe82610ded565b61053d576040517f08c379a00000000000000000000000000000000000000000000000000000000081526004016105349061275b565b60405180910390fd5b6069600083815260200190815260200160002060009054906101000a900473ffffffffffffffffffffffffffffffffffffffff169050919050565b600061058382610710565b90508073ffffffffffffffffffffffffffffffffffffffff168373ffffffffffffffffffffffffffffffffffffffff1614156105f4576040517f08c379a00000000000000000000000000000000000000000000000000000000081526004016105eb906127ed565b60405180910390fd5b8073ffffffffffffffffffffffffffffffffffffffff16610613610e59565b73ffffffffffffffffffffffffffffffffffffffff16148061064257506106418161063c610e59565b610bf7565b5b610681576040517f08c379a00000000000000000000000000000000000000000000000000000000081526004016106789061287f565b60405180910390fd5b61068b8383610e61565b505050565b6106a161069b610e59565b82610f1a565b6106e0576040517f08c379a00000000000000000000000000000000000000000000000000000000081526004016106d790612911565b60405180910390fd5b6106eb838383610ff8565b505050565b61070b83838360405180602001604052806000815250610ad6565b505050565b6000806067600084815260200190815260200160002060009054906101000a900473ffffffffffffffffffffffffffffffffffffffff169050600073ffffffffffffffffffffffffffffffffffffffff168173ffffffffffffffffffffffffffffffffffffffff1614156107b9576040517f08c379a00000000000000000000000000000000000000000000000000000000081526004016107b0906129a3565b60405180910390fd5b80915050919050565b60008073ffffffffffffffffffffffffffffffffffffffff168273ffffffffffffffffffffffffffffffffffffffff161415610833576040517f08c379a000000000000000000000000000000000000000000000000000000000815260040161082a90612a35565b60405180910390fd5b606860008373ffffffffffffffffffffffffffffffffffffffff1673ffffffffffffffffffffffffffffffffffffffff168152602001908152602001600020549050919050565b610882610e59565b73ffffffffffffffffffffffffffffffffffffffff166108a0610902565b73ffffffffffffffffffffffffffffffffffffffff16146108f6576040517f08c379a00000000000000000000000000000000000000000000000000000000081526004016108ed90612aa1565b60405180910390fd5b610900600061125f565b565b600060c960009054906101000a900473ffffffffffffffffffffffffffffffffffffffff16905090565b600060019054906101000a900460ff166109545760008054906101000a900460ff161561095d565b61095c611325565b5b61099c576040517f08c379a000000000000000000000000000000000000000000000000000000000815260040161099390612b33565b60405180910390fd5b60008060019054906101000a900460ff1615905080156109ec576001600060016101000a81548160ff02191690831515021790555060016000806101000a81548160ff0219169083151502179055505b6109f68383611336565b6109fe611393565b610a07846113e4565b8015610a285760008060016101000a81548160ff0219169083151502179055505b50505050565b606060668054610a3d906126b7565b80601f0160208091040260200160405190810160405280929190818152602001828054610a69906126b7565b8015610ab65780601f10610a8b57610100808354040283529160200191610ab6565b820191906000526020600020905b815481529060010190602001808311610a9957829003601f168201915b5050505050905090565b610ad2610acb610e59565b838361143f565b5050565b610ae7610ae1610e59565b83610f1a565b610b26576040517f08c379a0000000000000000000000000000000000000000000000000000000008152600401610b1d90612911565b60405180910390fd5b610b32848484846115ac565b50505050565b6060610b4382611608565b9050919050565b610b52610e59565b73ffffffffffffffffffffffffffffffffffffffff16610b70610902565b73ffffffffffffffffffffffffffffffffffffffff1614610bc6576040517f08c379a0000000000000000000000000000000000000000000000000000000008152600401610bbd90612aa1565b60405180910390fd5b6000610bd260fb61175a565b9050610bde60fb611768565b610be8838261177e565b610bf2818361179c565b505050565b6000606a60008473ffffffffffffffffffffffffffffffffffffffff1673ffffffffffffffffffffffffffffffffffffffff16815260200190815260200160002060008373ffffffffffffffffffffffffffffffffffffffff1673ffffffffffffffffffffffffffffffffffffffff16815260200190815260200160002060009054906101000a900460ff16905092915050565b610c93610e59565b73ffffffffffffffffffffffffffffffffffffffff16610cb1610902565b73ffffffffffffffffffffffffffffffffffffffff1614610d07576040517f08c379a0000000000000000000000000000000000000000000000000000000008152600401610cfe90612aa1565b60405180910390fd5b600073ffffffffffffffffffffffffffffffffffffffff168173ffffffffffffffffffffffffffffffffffffffff161415610d77576040517f08c379a0000000000000000000000000000000000000000000000000000000008152600401610d6e90612bc5565b60405180910390fd5b610d808161125f565b50565b60007f01ffc9a7000000000000000000000000000000000000000000000000000000007bffffffffffffffffffffffffffffffffffffffffffffffffffffffff1916827bffffffffffffffffffffffffffffffffffffffffffffffffffffffff1916149050919050565b60008073ffffffffffffffffffffffffffffffffffffffff166067600084815260200190815260200160002060009054906101000a900473ffffffffffffffffffffffffffffffffffffffff1673ffffffffffffffffffffffffffffffffffffffff1614159050919050565b600033905090565b816069600083815260200190815260200160002060006101000a81548173ffffffffffffffffffffffffffffffffffffffff021916908373ffffffffffffffffffffffffffffffffffffffff160217905550808273ffffffffffffffffffffffffffffffffffffffff16610ed483610710565b73ffffffffffffffffffffffffffffffffffffffff167f8c5be1e5ebec7d5bd14f71427d1e84f3dd0314c0f7b2291e5b200ac8c7c3b92560405160405180910390a45050565b6000610f2582610ded565b610f64576040517f08c379a0000000000000000000000000000000000000000000000000000000008152600401610f5b90612c57565b60405180910390fd5b6000610f6f83610710565b90508073ffffffffffffffffffffffffffffffffffffffff168473ffffffffffffffffffffffffffffffffffffffff161480610fde57508373ffffffffffffffffffffffffffffffffffffffff16610fc6846104f3565b73ffffffffffffffffffffffffffffffffffffffff16145b80610fef5750610fee8185610bf7565b5b91505092915050565b8273ffffffffffffffffffffffffffffffffffffffff1661101882610710565b73ffffffffffffffffffffffffffffffffffffffff161461106e576040517f08c379a000000000000000000000000000000000000000000000000000000000815260040161106590612ce9565b60405180910390fd5b600073ffffffffffffffffffffffffffffffffffffffff168273ffffffffffffffffffffffffffffffffffffffff1614156110de576040517f08c379a00000000000000000000000000000000000000000000000000000000081526004016110d590612d7b565b60405180910390fd5b6110e9838383611810565b6110f4600082610e61565b6001606860008573ffffffffffffffffffffffffffffffffffffffff1673ffffffffffffffffffffffffffffffffffffffff16815260200190815260200160002060008282546111449190612dca565b925050819055506001606860008473ffffffffffffffffffffffffffffffffffffffff1673ffffffffffffffffffffffffffffffffffffffff168152602001908152602001600020600082825461119b9190612dfe565b92505081905550816067600083815260200190815260200160002060006101000a81548173ffffffffffffffffffffffffffffffffffffffff021916908373ffffffffffffffffffffffffffffffffffffffff160217905550808273ffffffffffffffffffffffffffffffffffffffff168473ffffffffffffffffffffffffffffffffffffffff167fddf252ad1be2c89b69c2b068fc378daa952ba7f163c4a11628f55a4df523b3ef60405160405180910390a461125a838383611815565b505050565b600060c960009054906101000a900473ffffffffffffffffffffffffffffffffffffffff1690508160c960006101000a81548173ffffffffffffffffffffffffffffffffffffffff021916908373ffffffffffffffffffffffffffffffffffffffff1602179055508173ffffffffffffffffffffffffffffffffffffffff168173ffffffffffffffffffffffffffffffffffffffff167f8be0079c531659141344cd1fd0a4f28419497f9722a3daafe3b4186f6b6457e060405160405180910390a35050565b60006113303061181a565b15905090565b600060019054906101000a900460ff16611385576040517f08c379a000000000000000000000000000000000000000000000000000000000815260040161137c90612ec6565b60405180910390fd5b61138f828261183d565b5050565b600060019054906101000a900460ff166113e2576040517f08c379a00000000000000000000000000000000000000000000000000000000081526004016113d990612ec6565b60405180910390fd5b565b600060019054906101000a900460ff16611433576040517f08c379a000000000000000000000000000000000000000000000000000000000815260040161142a90612ec6565b60405180910390fd5b61143c8161125f565b50565b8173ffffffffffffffffffffffffffffffffffffffff168373ffffffffffffffffffffffffffffffffffffffff1614156114ae576040517f08c379a00000000000000000000000000000000000000000000000000000000081526004016114a590612f32565b60405180910390fd5b80606a60008573ffffffffffffffffffffffffffffffffffffffff1673ffffffffffffffffffffffffffffffffffffffff16815260200190815260200160002060008473ffffffffffffffffffffffffffffffffffffffff1673ffffffffffffffffffffffffffffffffffffffff16815260200190815260200160002060006101000a81548160ff0219169083151502179055508173ffffffffffffffffffffffffffffffffffffffff168373ffffffffffffffffffffffffffffffffffffffff167f17307eab39ab6107e8899845ad3d59bd9653f200f220920489ca2b5937696c318360405161159f9190611ff1565b60405180910390a3505050565b6115b7848484610ff8565b6115c3848484846118be565b611602576040517f08c379a00000000000000000000000000000000000000000000000000000000081526004016115f990612fc4565b60405180910390fd5b50505050565b606061161382610ded565b611652576040517f08c379a000000000000000000000000000000000000000000000000000000000815260040161164990613056565b60405180910390fd5b6000609760008481526020019081526020016000208054611672906126b7565b80601f016020809104026020016040519081016040528092919081815260200182805461169e906126b7565b80156116eb5780601f106116c0576101008083540402835291602001916116eb565b820191906000526020600020905b8154815290600101906020018083116116ce57829003601f168201915b5050505050905060006116fc611a46565b9050600081511415611712578192505050611755565b60008251111561174757808260405160200161172f9291906130b2565b60405160208183030381529060405292505050611755565b61175084611a5d565b925050505b919050565b600081600001549050919050565b6001816000016000828254019250508190555050565b611798828260405180602001604052806000815250611b04565b5050565b6117a582610ded565b6117e4576040517f08c379a00000000000000000000000000000000000000000000000000000000081526004016117db90613148565b60405180910390fd5b8060976000848152602001908152602001600020908051906020019061180b929190611e9a565b505050565b505050565b505050565b6000808273ffffffffffffffffffffffffffffffffffffffff163b119050919050565b600060019054906101000a900460ff1661188c576040517f08c379a000000000000000000000000000000000000000000000000000000000815260040161188390612ec6565b60405180910390fd5b81606590805190602001906118a2929190611e9a565b5080606690805190602001906118b9929190611e9a565b505050565b60006118df8473ffffffffffffffffffffffffffffffffffffffff1661181a565b15611a39578373ffffffffffffffffffffffffffffffffffffffff1663150b7a02611908610e59565b8786866040518563ffffffff1660e01b815260040161192a94939291906131bd565b6020604051808303816000875af192505050801561196657506040513d601f19601f82011682018060405250810190611963919061321e565b60015b6119e9573d8060008114611996576040519150601f19603f3d011682016040523d82523d6000602084013e61199b565b606091505b506000815114156119e1576040517f08c379a00000000000000000000000000000000000000000000000000000000081526004016119d890612fc4565b60405180910390fd5b805181602001fd5b63150b7a0260e01b7bffffffffffffffffffffffffffffffffffffffffffffffffffffffff1916817bffffffffffffffffffffffffffffffffffffffffffffffffffffffff191614915050611a3e565b600190505b949350505050565b606060405180602001604052806000815250905090565b6060611a6882610ded565b611aa7576040517f08c379a0000000000000000000000000000000000000000000000000000000008152600401611a9e906132bd565b60405180910390fd5b6000611ab1611a46565b90506000815111611ad15760405180602001604052806000815250611afc565b80611adb84611b5f565b604051602001611aec9291906130b2565b6040516020818303038152906040525b915050919050565b611b0e8383611cc0565b611b1b60008484846118be565b611b5a576040517f08c379a0000000000000000000000000000000000000000000000000000000008152600401611b5190612fc4565b60405180910390fd5b505050565b60606000821415611ba7576040518060400160405280600181526020017f30000000000000000000000000000000000000000000000000000000000000008152509050611cbb565b600082905060005b60008214611bd9578080611bc2906132dd565b915050600a82611bd29190613355565b9150611baf565b60008167ffffffffffffffff811115611bf557611bf46122a6565b5b6040519080825280601f01601f191660200182016040528015611c275781602001600182028036833780820191505090505b5090505b60008514611cb457600182611c409190612dca565b9150600a85611c4f9190613386565b6030611c5b9190612dfe565b60f81b818381518110611c7157611c706133b7565b5b60200101907effffffffffffffffffffffffffffffffffffffffffffffffffffffffffffff1916908160001a905350600a85611cad9190613355565b9450611c2b565b8093505050505b919050565b600073ffffffffffffffffffffffffffffffffffffffff168273ffffffffffffffffffffffffffffffffffffffff161415611d30576040517f08c379a0000000000000000000000000000000000000000000000000000000008152600401611d2790613432565b60405180910390fd5b611d3981610ded565b15611d79576040517f08c379a0000000000000000000000000000000000000000000000000000000008152600401611d709061349e565b60405180910390fd5b611d8560008383611810565b6001606860008473ffffffffffffffffffffffffffffffffffffffff1673ffffffffffffffffffffffffffffffffffffffff1681526020019081526020016000206000828254611dd59190612dfe565b92505081905550816067600083815260200190815260200160002060006101000a81548173ffffffffffffffffffffffffffffffffffffffff021916908373ffffffffffffffffffffffffffffffffffffffff160217905550808273ffffffffffffffffffffffffffffffffffffffff16600073ffffffffffffffffffffffffffffffffffffffff167fddf252ad1be2c89b69c2b068fc378daa952ba7f163c4a11628f55a4df523b3ef60405160405180910390a4611e9660008383611815565b5050565b828054611ea6906126b7565b90600052602060002090601f016020900481019282611ec85760008555611f0f565b82601f10611ee157805160ff1916838001178555611f0f565b82800160010185558215611f0f579182015b82811115611f0e578251825591602001919060010190611ef3565b5b509050611f1c9190611f20565b5090565b5b80821115611f39576000816000905550600101611f21565b5090565b6000604051905090565b600080fd5b600080fd5b60007fffffffff0000000000000000000000000000000000000000000000000000000082169050919050565b611f8681611f51565b8114611f9157600080fd5b50565b600081359050611fa381611f7d565b92915050565b600060208284031215611fbf57611fbe611f47565b5b6000611fcd84828501611f94565b91505092915050565b60008115159050919050565b611feb81611fd6565b82525050565b60006020820190506120066000830184611fe2565b92915050565b600081519050919050565b600082825260208201905092915050565b60005b8381101561204657808201518184015260208101905061202b565b83811115612055576000848401525b50505050565b6000601f19601f8301169050919050565b60006120778261200c565b6120818185612017565b9350612091818560208601612028565b61209a8161205b565b840191505092915050565b600060208201905081810360008301526120bf818461206c565b905092915050565b6000819050919050565b6120da816120c7565b81146120e557600080fd5b50565b6000813590506120f7816120d1565b92915050565b60006020828403121561211357612112611f47565b5b6000612121848285016120e8565b91505092915050565b600073ffffffffffffffffffffffffffffffffffffffff82169050919050565b60006121558261212a565b9050919050565b6121658161214a565b82525050565b6000602082019050612180600083018461215c565b92915050565b61218f8161214a565b811461219a57600080fd5b50565b6000813590506121ac81612186565b92915050565b600080604083850312156121c9576121c8611f47565b5b60006121d78582860161219d565b92505060206121e8858286016120e8565b9150509250929050565b60008060006060848603121561220b5761220a611f47565b5b60006122198682870161219d565b935050602061222a8682870161219d565b925050604061223b868287016120e8565b9150509250925092565b60006020828403121561225b5761225a611f47565b5b60006122698482850161219d565b91505092915050565b61227b816120c7565b82525050565b60006020820190506122966000830184612272565b92915050565b600080fd5b600080fd5b7f4e487b7100000000000000000000000000000000000000000000000000000000600052604160045260246000fd5b6122de8261205b565b810181811067ffffffffffffffff821117156122fd576122fc6122a6565b5b80604052505050565b6000612310611f3d565b905061231c82826122d5565b919050565b600067ffffffffffffffff82111561233c5761233b6122a6565b5b6123458261205b565b9050602081019050919050565b82818337600083830152505050565b600061237461236f84612321565b612306565b9050828152602081018484840111156123905761238f6122a1565b5b61239b848285612352565b509392505050565b600082601f8301126123b8576123b761229c565b5b81356123c8848260208601612361565b91505092915050565b6000806000606084860312156123ea576123e9611f47565b5b60006123f88682870161219d565b935050602084013567ffffffffffffffff81111561241957612418611f4c565b5b612425868287016123a3565b925050604084013567ffffffffffffffff81111561244657612445611f4c565b5b612452868287016123a3565b9150509250925092565b61246581611fd6565b811461247057600080fd5b50565b6000813590506124828161245c565b92915050565b6000806040838503121561249f5761249e611f47565b5b60006124ad8582860161219d565b92505060206124be85828601612473565b9150509250929050565b600067ffffffffffffffff8211156124e3576124e26122a6565b5b6124ec8261205b565b9050602081019050919050565b600061250c612507846124c8565b612306565b905082815260208101848484011115612528576125276122a1565b5b612533848285612352565b509392505050565b600082601f8301126125505761254f61229c565b5b81356125608482602086016124f9565b91505092915050565b6000806000806080858703121561258357612582611f47565b5b60006125918782880161219d565b94505060206125a28782880161219d565b93505060406125b3878288016120e8565b925050606085013567ffffffffffffffff8111156125d4576125d3611f4c565b5b6125e08782880161253b565b91505092959194509250565b6000806040838503121561260357612602611f47565b5b60006126118582860161219d565b925050602083013567ffffffffffffffff81111561263257612631611f4c565b5b61263e858286016123a3565b9150509250929050565b6000806040838503121561265f5761265e611f47565b5b600061266d8582860161219d565b925050602061267e8582860161219d565b9150509250929050565b7f4e487b7100000000000000000000000000000000000000000000000000000000600052602260045260246000fd5b600060028204905060018216806126cf57607f821691505b602082108114156126e3576126e2612688565b5b50919050565b7f4552433732313a20617070726f76656420717565727920666f72206e6f6e657860008201527f697374656e7420746f6b656e0000000000000000000000000000000000000000602082015250565b6000612745602c83612017565b9150612750826126e9565b604082019050919050565b6000602082019050818103600083015261277481612738565b9050919050565b7f4552433732313a20617070726f76616c20746f2063757272656e74206f776e6560008201527f7200000000000000000000000000000000000000000000000000000000000000602082015250565b60006127d7602183612017565b91506127e28261277b565b604082019050919050565b60006020820190508181036000830152612806816127ca565b9050919050565b7f4552433732313a20617070726f76652063616c6c6572206973206e6f74206f7760008201527f6e6572206e6f7220617070726f76656420666f7220616c6c0000000000000000602082015250565b6000612869603883612017565b91506128748261280d565b604082019050919050565b600060208201905081810360008301526128988161285c565b9050919050565b7f4552433732313a207472616e736665722063616c6c6572206973206e6f74206f60008201527f776e6572206e6f7220617070726f766564000000000000000000000000000000602082015250565b60006128fb603183612017565b91506129068261289f565b604082019050919050565b6000602082019050818103600083015261292a816128ee565b9050919050565b7f4552433732313a206f776e657220717565727920666f72206e6f6e657869737460008201527f656e7420746f6b656e0000000000000000000000000000000000000000000000602082015250565b600061298d602983612017565b915061299882612931565b604082019050919050565b600060208201905081810360008301526129bc81612980565b9050919050565b7f4552433732313a2062616c616e636520717565727920666f7220746865207a6560008201527f726f206164647265737300000000000000000000000000000000000000000000602082015250565b6000612a1f602a83612017565b9150612a2a826129c3565b604082019050919050565b60006020820190508181036000830152612a4e81612a12565b9050919050565b7f4f776e61626c653a2063616c6c6572206973206e6f7420746865206f776e6572600082015250565b6000612a8b602083612017565b9150612a9682612a55565b602082019050919050565b60006020820190508181036000830152612aba81612a7e565b9050919050565b7f496e697469616c697a61626c653a20636f6e747261637420697320616c72656160008201527f647920696e697469616c697a6564000000000000000000000000000000000000602082015250565b6000612b1d602e83612017565b9150612b2882612ac1565b604082019050919050565b60006020820190508181036000830152612b4c81612b10565b9050919050565b7f4f776e61626c653a206e6577206f776e657220697320746865207a65726f206160008201527f6464726573730000000000000000000000000000000000000000000000000000602082015250565b6000612baf602683612017565b9150612bba82612b53565b604082019050919050565b60006020820190508181036000830152612bde81612ba2565b9050919050565b7f4552433732313a206f70657261746f7220717565727920666f72206e6f6e657860008201527f697374656e7420746f6b656e0000000000000000000000000000000000000000602082015250565b6000612c41602c83612017565b9150612c4c82612be5565b604082019050919050565b60006020820190508181036000830152612c7081612c34565b9050919050565b7f4552433732313a207472616e736665722066726f6d20696e636f72726563742060008201527f6f776e6572000000000000000000000000000000000000000000000000000000602082015250565b6000612cd3602583612017565b9150612cde82612c77565b604082019050919050565b60006020820190508181036000830152612d0281612cc6565b9050919050565b7f4552433732313a207472616e7366657220746f20746865207a65726f2061646460008201527f7265737300000000000000000000000000000000000000000000000000000000602082015250565b6000612d65602483612017565b9150612d7082612d09565b604082019050919050565b60006020820190508181036000830152612d9481612d58565b9050919050565b7f4e487b7100000000000000000000000000000000000000000000000000000000600052601160045260246000fd5b6000612dd5826120c7565b9150612de0836120c7565b925082821015612df357612df2612d9b565b5b828203905092915050565b6000612e09826120c7565b9150612e14836120c7565b9250827fffffffffffffffffffffffffffffffffffffffffffffffffffffffffffffffff03821115612e4957612e48612d9b565b5b828201905092915050565b7f496e697469616c697a61626c653a20636f6e7472616374206973206e6f74206960008201527f6e697469616c697a696e67000000000000000000000000000000000000000000602082015250565b6000612eb0602b83612017565b9150612ebb82612e54565b604082019050919050565b60006020820190508181036000830152612edf81612ea3565b9050919050565b7f4552433732313a20617070726f766520746f2063616c6c657200000000000000600082015250565b6000612f1c601983612017565b9150612f2782612ee6565b602082019050919050565b60006020820190508181036000830152612f4b81612f0f565b9050919050565b7f4552433732313a207472616e7366657220746f206e6f6e20455243373231526560008201527f63656976657220696d706c656d656e7465720000000000000000000000000000602082015250565b6000612fae603283612017565b9150612fb982612f52565b604082019050919050565b60006020820190508181036000830152612fdd81612fa1565b9050919050565b7f45524337323155524953746f726167653a2055524920717565727920666f722060008201527f6e6f6e6578697374656e7420746f6b656e000000000000000000000000000000602082015250565b6000613040603183612017565b915061304b82612fe4565b604082019050919050565b6000602082019050818103600083015261306f81613033565b9050919050565b600081905092915050565b600061308c8261200c565b6130968185613076565b93506130a6818560208601612028565b80840191505092915050565b60006130be8285613081565b91506130ca8284613081565b91508190509392505050565b7f45524337323155524953746f726167653a2055524920736574206f66206e6f6e60008201527f6578697374656e7420746f6b656e000000000000000000000000000000000000602082015250565b6000613132602e83612017565b915061313d826130d6565b604082019050919050565b6000602082019050818103600083015261316181613125565b9050919050565b600081519050919050565b600082825260208201905092915050565b600061318f82613168565b6131998185613173565b93506131a9818560208601612028565b6131b28161205b565b840191505092915050565b60006080820190506131d2600083018761215c565b6131df602083018661215c565b6131ec6040830185612272565b81810360608301526131fe8184613184565b905095945050505050565b60008151905061321881611f7d565b92915050565b60006020828403121561323457613233611f47565b5b600061324284828501613209565b91505092915050565b7f4552433732314d657461646174613a2055524920717565727920666f72206e6f60008201527f6e6578697374656e7420746f6b656e0000000000000000000000000000000000602082015250565b60006132a7602f83612017565b91506132b28261324b565b604082019050919050565b600060208201905081810360008301526132d68161329a565b9050919050565b60006132e8826120c7565b91507fffffffffffffffffffffffffffffffffffffffffffffffffffffffffffffffff82141561331b5761331a612d9b565b5b600182019050919050565b7f4e487b7100000000000000000000000000000000000000000000000000000000600052601260045260246000fd5b6000613360826120c7565b915061336b836120c7565b92508261337b5761337a613326565b5b828204905092915050565b6000613391826120c7565b915061339c836120c7565b9250826133ac576133ab613326565b5b828206905092915050565b7f4e487b7100000000000000000000000000000000000000000000000000000000600052603260045260246000fd5b7f4552433732313a206d696e7420746f20746865207a65726f2061646472657373600082015250565b600061341c602083612017565b9150613427826133e6565b602082019050919050565b6000602082019050818103600083015261344b8161340f565b9050919050565b7f4552433732313a20746f6b656e20616c7265616479206d696e74656400000000600082015250565b6000613488601c83612017565b915061349382613452565b602082019050919050565b600060208201905081810360008301526134b78161347b565b905091905056fea26469706673582212202c2a692fa7daea2f9ac6e46cb7b44072a83d536a78f94f51685815242da54f8264736f6c634300080b0033",
  "linkReferences": {},
  "deployedLinkReferences": {}
}