{
  "_format": "hh-sol-artifact-1",
  "contractName": "ComunityERC20",
  "sourceName": "contracts/ComunityERC20/ComunityERC20.sol",
  "abi": [
    {
      "inputs": [],
      "stateMutability": "nonpayable",
      "type": "constructor"
    },
    {
      "anonymous": false,
      "inputs": [
        {
          "indexed": true,
          "internalType": "address",
          "name": "owner",
          "type": "address"
        },
        {
          "indexed": true,
          "internalType": "address",
          "name": "spender",
          "type": "address"
        },
        {
          "indexed": false,
          "internalType": "uint256",
          "name": "value",
          "type": "uint256"
        }
      ],
      "name": "Approval",
      "type": "event"
    },
    {
      "anonymous": false,
      "inputs": [
        {
          "indexed": true,
          "internalType": "address",
          "name": "delegator",
          "type": "address"
        },
        {
          "indexed": true,
          "internalType": "address",
          "name": "fromDelegate",
          "type": "address"
        },
        {
          "indexed": true,
          "internalType": "address",
          "name": "toDelegate",
          "type": "address"
        }
      ],
      "name": "DelegateChanged",
      "type": "event"
    },
    {
      "anonymous": false,
      "inputs": [
        {
          "indexed": true,
          "internalType": "address",
          "name": "delegate",
          "type": "address"
        },
        {
          "indexed": false,
          "internalType": "uint256",
          "name": "previousBalance",
          "type": "uint256"
        },
        {
          "indexed": false,
          "internalType": "uint256",
          "name": "newBalance",
          "type": "uint256"
        }
      ],
      "name": "DelegateVotesChanged",
      "type": "event"
    },
    {
      "anonymous": false,
      "inputs": [
        {
          "indexed": true,
          "internalType": "address",
          "name": "previousOwner",
          "type": "address"
        },
        {
          "indexed": true,
          "internalType": "address",
          "name": "newOwner",
          "type": "address"
        }
      ],
      "name": "OwnershipTransferred",
      "type": "event"
    },
    {
      "anonymous": false,
      "inputs": [
        {
          "indexed": true,
          "internalType": "address",
          "name": "from",
          "type": "address"
        },
        {
          "indexed": true,
          "internalType": "address",
          "name": "to",
          "type": "address"
        },
        {
          "indexed": false,
          "internalType": "uint256",
          "name": "value",
          "type": "uint256"
        }
      ],
      "name": "Transfer",
      "type": "event"
    },
    {
      "inputs": [],
      "name": "DOMAIN_SEPARATOR",
      "outputs": [
        {
          "internalType": "bytes32",
          "name": "",
          "type": "bytes32"
        }
      ],
      "stateMutability": "view",
      "type": "function"
    },
    {
      "inputs": [
        {
          "internalType": "address",
          "name": "owner",
          "type": "address"
        },
        {
          "internalType": "address",
          "name": "spender",
          "type": "address"
        }
      ],
      "name": "allowance",
      "outputs": [
        {
          "internalType": "uint256",
          "name": "",
          "type": "uint256"
        }
      ],
      "stateMutability": "view",
      "type": "function"
    },
    {
      "inputs": [
        {
          "internalType": "address",
          "name": "spender",
          "type": "address"
        },
        {
          "internalType": "uint256",
          "name": "amount",
          "type": "uint256"
        }
      ],
      "name": "approve",
      "outputs": [
        {
          "internalType": "bool",
          "name": "",
          "type": "bool"
        }
      ],
      "stateMutability": "nonpayable",
      "type": "function"
    },
    {
      "inputs": [
        {
          "internalType": "address",
          "name": "account",
          "type": "address"
        }
      ],
      "name": "balanceOf",
      "outputs": [
        {
          "internalType": "uint256",
          "name": "",
          "type": "uint256"
        }
      ],
      "stateMutability": "view",
      "type": "function"
    },
    {
      "inputs": [
        {
          "internalType": "uint256",
          "name": "amount",
          "type": "uint256"
        }
      ],
      "name": "burn",
      "outputs": [],
      "stateMutability": "nonpayable",
      "type": "function"
    },
    {
      "inputs": [
        {
          "internalType": "address",
          "name": "account",
          "type": "address"
        },
        {
          "internalType": "uint256",
          "name": "amount",
          "type": "uint256"
        }
      ],
      "name": "burnFrom",
      "outputs": [],
      "stateMutability": "nonpayable",
      "type": "function"
    },
    {
      "inputs": [
        {
          "internalType": "address",
          "name": "account",
          "type": "address"
        },
        {
          "internalType": "uint32",
          "name": "pos",
          "type": "uint32"
        }
      ],
      "name": "checkpoints",
      "outputs": [
        {
          "components": [
            {
              "internalType": "uint32",
              "name": "fromBlock",
              "type": "uint32"
            },
            {
              "internalType": "uint224",
              "name": "votes",
              "type": "uint224"
            }
          ],
          "internalType": "struct ERC20Votes.Checkpoint",
          "name": "",
          "type": "tuple"
        }
      ],
      "stateMutability": "view",
      "type": "function"
    },
    {
      "inputs": [],
      "name": "decimals",
      "outputs": [
        {
          "internalType": "uint8",
          "name": "",
          "type": "uint8"
        }
      ],
      "stateMutability": "view",
      "type": "function"
    },
    {
      "inputs": [
        {
          "internalType": "address",
          "name": "spender",
          "type": "address"
        },
        {
          "internalType": "uint256",
          "name": "subtractedValue",
          "type": "uint256"
        }
      ],
      "name": "decreaseAllowance",
      "outputs": [
        {
          "internalType": "bool",
          "name": "",
          "type": "bool"
        }
      ],
      "stateMutability": "nonpayable",
      "type": "function"
    },
    {
      "inputs": [
        {
          "internalType": "address",
          "name": "delegatee",
          "type": "address"
        }
      ],
      "name": "delegate",
      "outputs": [],
      "stateMutability": "nonpayable",
      "type": "function"
    },
    {
      "inputs": [
        {
          "internalType": "address",
          "name": "delegatee",
          "type": "address"
        },
        {
          "internalType": "uint256",
          "name": "nonce",
          "type": "uint256"
        },
        {
          "internalType": "uint256",
          "name": "expiry",
          "type": "uint256"
        },
        {
          "internalType": "uint8",
          "name": "v",
          "type": "uint8"
        },
        {
          "internalType": "bytes32",
          "name": "r",
          "type": "bytes32"
        },
        {
          "internalType": "bytes32",
          "name": "s",
          "type": "bytes32"
        }
      ],
      "name": "delegateBySig",
      "outputs": [],
      "stateMutability": "nonpayable",
      "type": "function"
    },
    {
      "inputs": [
        {
          "internalType": "address",
          "name": "account",
          "type": "address"
        }
      ],
      "name": "delegates",
      "outputs": [
        {
          "internalType": "address",
          "name": "",
          "type": "address"
        }
      ],
      "stateMutability": "view",
      "type": "function"
    },
    {
      "inputs": [
        {
          "internalType": "uint256",
          "name": "blockNumber",
          "type": "uint256"
        }
      ],
      "name": "getPastTotalSupply",
      "outputs": [
        {
          "internalType": "uint256",
          "name": "",
          "type": "uint256"
        }
      ],
      "stateMutability": "view",
      "type": "function"
    },
    {
      "inputs": [
        {
          "internalType": "address",
          "name": "account",
          "type": "address"
        },
        {
          "internalType": "uint256",
          "name": "blockNumber",
          "type": "uint256"
        }
      ],
      "name": "getPastVotes",
      "outputs": [
        {
          "internalType": "uint256",
          "name": "",
          "type": "uint256"
        }
      ],
      "stateMutability": "view",
      "type": "function"
    },
    {
      "inputs": [
        {
          "internalType": "address",
          "name": "account",
          "type": "address"
        }
      ],
      "name": "getVotes",
      "outputs": [
        {
          "internalType": "uint256",
          "name": "",
          "type": "uint256"
        }
      ],
      "stateMutability": "view",
      "type": "function"
    },
    {
      "inputs": [
        {
          "internalType": "address",
          "name": "spender",
          "type": "address"
        },
        {
          "internalType": "uint256",
          "name": "addedValue",
          "type": "uint256"
        }
      ],
      "name": "increaseAllowance",
      "outputs": [
        {
          "internalType": "bool",
          "name": "",
          "type": "bool"
        }
      ],
      "stateMutability": "nonpayable",
      "type": "function"
    },
    {
      "inputs": [
        {
          "internalType": "address",
          "name": "to",
          "type": "address"
        },
        {
          "internalType": "uint256",
          "name": "amount",
          "type": "uint256"
        }
      ],
      "name": "mint",
      "outputs": [],
      "stateMutability": "nonpayable",
      "type": "function"
    },
    {
      "inputs": [],
      "name": "name",
      "outputs": [
        {
          "internalType": "string",
          "name": "",
          "type": "string"
        }
      ],
      "stateMutability": "view",
      "type": "function"
    },
    {
      "inputs": [
        {
          "internalType": "address",
          "name": "owner",
          "type": "address"
        }
      ],
      "name": "nonces",
      "outputs": [
        {
          "internalType": "uint256",
          "name": "",
          "type": "uint256"
        }
      ],
      "stateMutability": "view",
      "type": "function"
    },
    {
      "inputs": [
        {
          "internalType": "address",
          "name": "account",
          "type": "address"
        }
      ],
      "name": "numCheckpoints",
      "outputs": [
        {
          "internalType": "uint32",
          "name": "",
          "type": "uint32"
        }
      ],
      "stateMutability": "view",
      "type": "function"
    },
    {
      "inputs": [],
      "name": "owner",
      "outputs": [
        {
          "internalType": "address",
          "name": "",
          "type": "address"
        }
      ],
      "stateMutability": "view",
      "type": "function"
    },
    {
      "inputs": [
        {
          "internalType": "address",
          "name": "owner",
          "type": "address"
        },
        {
          "internalType": "address",
          "name": "spender",
          "type": "address"
        },
        {
          "internalType": "uint256",
          "name": "value",
          "type": "uint256"
        },
        {
          "internalType": "uint256",
          "name": "deadline",
          "type": "uint256"
        },
        {
          "internalType": "uint8",
          "name": "v",
          "type": "uint8"
        },
        {
          "internalType": "bytes32",
          "name": "r",
          "type": "bytes32"
        },
        {
          "internalType": "bytes32",
          "name": "s",
          "type": "bytes32"
        }
      ],
      "name": "permit",
      "outputs": [],
      "stateMutability": "nonpayable",
      "type": "function"
    },
    {
      "inputs": [],
      "name": "renounceOwnership",
      "outputs": [],
      "stateMutability": "nonpayable",
      "type": "function"
    },
    {
      "inputs": [],
      "name": "symbol",
      "outputs": [
        {
          "internalType": "string",
          "name": "",
          "type": "string"
        }
      ],
      "stateMutability": "view",
      "type": "function"
    },
    {
      "inputs": [],
      "name": "totalSupply",
      "outputs": [
        {
          "internalType": "uint256",
          "name": "",
          "type": "uint256"
        }
      ],
      "stateMutability": "view",
      "type": "function"
    },
    {
      "inputs": [
        {
          "internalType": "address",
          "name": "to",
          "type": "address"
        },
        {
          "internalType": "uint256",
          "name": "amount",
          "type": "uint256"
        }
      ],
      "name": "transfer",
      "outputs": [
        {
          "internalType": "bool",
          "name": "",
          "type": "bool"
        }
      ],
      "stateMutability": "nonpayable",
      "type": "function"
    },
    {
      "inputs": [
        {
          "internalType": "address",
          "name": "from",
          "type": "address"
        },
        {
          "internalType": "address",
          "name": "to",
          "type": "address"
        },
        {
          "internalType": "uint256",
          "name": "amount",
          "type": "uint256"
        }
      ],
      "name": "transferFrom",
      "outputs": [
        {
          "internalType": "bool",
          "name": "",
          "type": "bool"
        }
      ],
      "stateMutability": "nonpayable",
      "type": "function"
    },
    {
      "inputs": [
        {
          "internalType": "address",
          "name": "newOwner",
          "type": "address"
        }
      ],
      "name": "transferOwnership",
      "outputs": [],
      "stateMutability": "nonpayable",
      "type": "function"
    }
  ],
  "bytecode": "0x6101606040527f6e71edae12b1b97f4d1f60370fef10105fa2faae0126114a169c64845d6126c9610140908152503480156200003a57600080fd5b506040518060400160405280600d81526020017f436f6d756e697479455243323000000000000000000000000000000000000000815250806040518060400160405280600181526020017f31000000000000000000000000000000000000000000000000000000000000008152506040518060400160405280600d81526020017f436f6d756e6974794552433230000000000000000000000000000000000000008152506040518060400160405280600381526020017f433230000000000000000000000000000000000000000000000000000000000081525081600390805190602001906200012c9291906200032b565b508060049080519060200190620001459291906200032b565b505050620001686200015c6200022160201b60201c565b6200022960201b60201c565b60008280519060200120905060008280519060200120905060007f8b73c3c69bb8fe3d512ecc4cf759cc79239f7b179b0ffacaa9a75d522b39400f90508260e081815250508161010081815250504660a08181525050620001d1818484620002ef60201b60201c565b608081815250503073ffffffffffffffffffffffffffffffffffffffff1660c08173ffffffffffffffffffffffffffffffffffffffff168152505080610120818152505050505050505062000517565b600033905090565b6000600560009054906101000a900473ffffffffffffffffffffffffffffffffffffffff16905081600560006101000a81548173ffffffffffffffffffffffffffffffffffffffff021916908373ffffffffffffffffffffffffffffffffffffffff1602179055508173ffffffffffffffffffffffffffffffffffffffff168173ffffffffffffffffffffffffffffffffffffffff167f8be0079c531659141344cd1fd0a4f28419497f9722a3daafe3b4186f6b6457e060405160405180910390a35050565b600083838346306040516020016200030c95949392919062000456565b6040516020818303038152906040528051906020012090509392505050565b8280546200033990620004e2565b90600052602060002090601f0160209004810192826200035d5760008555620003a9565b82601f106200037857805160ff1916838001178555620003a9565b82800160010185558215620003a9579182015b82811115620003a85782518255916020019190600101906200038b565b5b509050620003b89190620003bc565b5090565b5b80821115620003d7576000816000905550600101620003bd565b5090565b6000819050919050565b620003f081620003db565b82525050565b6000819050919050565b6200040b81620003f6565b82525050565b600073ffffffffffffffffffffffffffffffffffffffff82169050919050565b60006200043e8262000411565b9050919050565b620004508162000431565b82525050565b600060a0820190506200046d6000830188620003e5565b6200047c6020830187620003e5565b6200048b6040830186620003e5565b6200049a606083018562000400565b620004a9608083018462000445565b9695505050505050565b7f4e487b7100000000000000000000000000000000000000000000000000000000600052602260045260246000fd5b60006002820490506001821680620004fb57607f821691505b602082108103620005115762000510620004b3565b5b50919050565b60805160a05160c05160e05161010051610120516101405161416a620005726000396000610fbb015260006118ce01526000611910015260006118ef015260006118240152600061187a015260006118a3015261416a6000f3fe608060405234801561001057600080fd5b50600436106101c45760003560e01c8063715018a6116100f9578063a457c2d711610097578063d505accf11610071578063d505accf14610553578063dd62ed3e1461056f578063f1127ed81461059f578063f2fde38b146105cf576101c4565b8063a457c2d7146104d7578063a9059cbb14610507578063c3cda52014610537576101c4565b80638da5cb5b116100d35780638da5cb5b1461043b5780638e539e8c1461045957806395d89b41146104895780639ab24eb0146104a7576101c4565b8063715018a6146103e557806379cc6790146103ef5780637ecebe001461040b576101c4565b80633a46b1a811610166578063587cde1e11610140578063587cde1e146103395780635c19a95c146103695780636fcfff451461038557806370a08231146103b5576101c4565b80633a46b1a8146102d157806340c10f191461030157806342966c681461031d576101c4565b806323b872dd116101a257806323b872dd14610235578063313ce567146102655780633644e5151461028357806339509351146102a1576101c4565b806306fdde03146101c9578063095ea7b3146101e757806318160ddd14610217575b600080fd5b6101d16105eb565b6040516101de9190612b37565b60405180910390f35b61020160048036038101906101fc9190612bf2565b61067d565b60405161020e9190612c4d565b60405180910390f35b61021f6106a0565b60405161022c9190612c77565b60405180910390f35b61024f600480360381019061024a9190612c92565b6106aa565b60405161025c9190612c4d565b60405180910390f35b61026d6106d9565b60405161027a9190612d01565b60405180910390f35b61028b6106e2565b6040516102989190612d35565b60405180910390f35b6102bb60048036038101906102b69190612bf2565b6106f1565b6040516102c89190612c4d565b60405180910390f35b6102eb60048036038101906102e69190612bf2565b61079b565b6040516102f89190612c77565b60405180910390f35b61031b60048036038101906103169190612bf2565b61082f565b005b61033760048036038101906103329190612d50565b6108b9565b005b610353600480360381019061034e9190612d7d565b6108cd565b6040516103609190612db9565b60405180910390f35b610383600480360381019061037e9190612d7d565b610936565b005b61039f600480360381019061039a9190612d7d565b61094a565b6040516103ac9190612df3565b60405180910390f35b6103cf60048036038101906103ca9190612d7d565b61099e565b6040516103dc9190612c77565b60405180910390f35b6103ed610a48565b005b61040960048036038101906104049190612bf2565b610ad0565b005b61042560048036038101906104209190612d7d565b610af0565b6040516104329190612c77565b60405180910390f35b610443610b40565b6040516104509190612db9565b60405180910390f35b610473600480360381019061046e9190612d50565b610b6a565b6040516104809190612c77565b60405180910390f35b610491610bc0565b60405161049e9190612b37565b60405180910390f35b6104c160048036038101906104bc9190612d7d565b610c52565b6040516104ce9190612c77565b60405180910390f35b6104f160048036038101906104ec9190612bf2565b610d63565b6040516104fe9190612c4d565b60405180910390f35b610521600480360381019061051c9190612bf2565b610e4d565b60405161052e9190612c4d565b60405180910390f35b610551600480360381019061054c9190612e66565b610e70565b005b61056d60048036038101906105689190612ef3565b610f74565b005b61058960048036038101906105849190612f95565b6110b6565b6040516105969190612c77565b60405180910390f35b6105b960048036038101906105b49190613001565b61113d565b6040516105c691906130b6565b60405180910390f35b6105e960048036038101906105e49190612d7d565b61124d565b005b6060600380546105fa90613100565b80601f016020809104026020016040519081016040528092919081815260200182805461062690613100565b80156106735780601f1061064857610100808354040283529160200191610673565b820191906000526020600020905b81548152906001019060200180831161065657829003601f168201915b5050505050905090565b600080610688611344565b905061069581858561134c565b600191505092915050565b6000600254905090565b6000806106b5611344565b90506106c2858285611515565b6106cd8585856115a1565b60019150509392505050565b60006012905090565b60006106ec611820565b905090565b6000806106fc611344565b9050610790818585600160008673ffffffffffffffffffffffffffffffffffffffff1673ffffffffffffffffffffffffffffffffffffffff16815260200190815260200160002060008973ffffffffffffffffffffffffffffffffffffffff1673ffffffffffffffffffffffffffffffffffffffff1681526020019081526020016000205461078b9190613160565b61134c565b600191505092915050565b60004382106107df576040517f08c379a00000000000000000000000000000000000000000000000000000000081526004016107d690613202565b60405180910390fd5b610827600860008573ffffffffffffffffffffffffffffffffffffffff1673ffffffffffffffffffffffffffffffffffffffff1681526020019081526020016000208361193a565b905092915050565b610837611344565b73ffffffffffffffffffffffffffffffffffffffff16610855610b40565b73ffffffffffffffffffffffffffffffffffffffff16146108ab576040517f08c379a00000000000000000000000000000000000000000000000000000000081526004016108a29061326e565b60405180910390fd5b6108b58282611a46565b5050565b6108ca6108c4611344565b82611a54565b50565b6000600760008373ffffffffffffffffffffffffffffffffffffffff1673ffffffffffffffffffffffffffffffffffffffff16815260200190815260200160002060009054906101000a900473ffffffffffffffffffffffffffffffffffffffff169050919050565b610947610941611344565b82611a62565b50565b6000610997600860008473ffffffffffffffffffffffffffffffffffffffff1673ffffffffffffffffffffffffffffffffffffffff16815260200190815260200160002080549050611b7c565b9050919050565b600073b42ce907d99b74578b9913a560b9c5c1a237356b73ffffffffffffffffffffffffffffffffffffffff16634d6e3452836040518263ffffffff1660e01b81526004016109ed9190612db9565b602060405180830381865afa158015610a0a573d6000803e3d6000fd5b505050506040513d601f19601f82011682018060405250810190610a2e91906132a3565b610a3783611bcf565b610a419190613160565b9050919050565b610a50611344565b73ffffffffffffffffffffffffffffffffffffffff16610a6e610b40565b73ffffffffffffffffffffffffffffffffffffffff1614610ac4576040517f08c379a0000000000000000000000000000000000000000000000000000000008152600401610abb9061326e565b60405180910390fd5b610ace6000611c17565b565b610ae282610adc611344565b83611515565b610aec8282611a54565b5050565b6000610b39600660008473ffffffffffffffffffffffffffffffffffffffff1673ffffffffffffffffffffffffffffffffffffffff168152602001908152602001600020611cdd565b9050919050565b6000600560009054906101000a900473ffffffffffffffffffffffffffffffffffffffff16905090565b6000438210610bae576040517f08c379a0000000000000000000000000000000000000000000000000000000008152600401610ba590613202565b60405180910390fd5b610bb960098361193a565b9050919050565b606060048054610bcf90613100565b80601f0160208091040260200160405190810160405280929190818152602001828054610bfb90613100565b8015610c485780601f10610c1d57610100808354040283529160200191610c48565b820191906000526020600020905b815481529060010190602001808311610c2b57829003601f168201915b5050505050905090565b600080600860008473ffffffffffffffffffffffffffffffffffffffff1673ffffffffffffffffffffffffffffffffffffffff16815260200190815260200160002080549050905060008114610d3a57600860008473ffffffffffffffffffffffffffffffffffffffff1673ffffffffffffffffffffffffffffffffffffffff168152602001908152602001600020600182610cee91906132d0565b81548110610cff57610cfe613304565b5b9060005260206000200160000160049054906101000a90047bffffffffffffffffffffffffffffffffffffffffffffffffffffffff16610d3d565b60005b7bffffffffffffffffffffffffffffffffffffffffffffffffffffffff16915050919050565b600080610d6e611344565b90506000600160008373ffffffffffffffffffffffffffffffffffffffff1673ffffffffffffffffffffffffffffffffffffffff16815260200190815260200160002060008673ffffffffffffffffffffffffffffffffffffffff1673ffffffffffffffffffffffffffffffffffffffff16815260200190815260200160002054905083811015610e34576040517f08c379a0000000000000000000000000000000000000000000000000000000008152600401610e2b906133a5565b60405180910390fd5b610e41828686840361134c565b60019250505092915050565b600080610e58611344565b9050610e658185856115a1565b600191505092915050565b83421115610eb3576040517f08c379a0000000000000000000000000000000000000000000000000000000008152600401610eaa90613411565b60405180910390fd5b6000610f15610f0d7fe48329057bfd03d55e49b547132e39cffd9c1820ad7b9d4c5307691425d15adf898989604051602001610ef29493929190613431565b60405160208183030381529060405280519060200120611ceb565b858585611d05565b9050610f2081611d30565b8614610f61576040517f08c379a0000000000000000000000000000000000000000000000000000000008152600401610f58906134c2565b60405180910390fd5b610f6b8188611a62565b50505050505050565b83421115610fb7576040517f08c379a0000000000000000000000000000000000000000000000000000000008152600401610fae9061352e565b60405180910390fd5b60007f0000000000000000000000000000000000000000000000000000000000000000888888610fe68c611d30565b89604051602001610ffc9695949392919061354e565b604051602081830303815290604052805190602001209050600061101f82611ceb565b9050600061102f82878787611d05565b90508973ffffffffffffffffffffffffffffffffffffffff168173ffffffffffffffffffffffffffffffffffffffff161461109f576040517f08c379a0000000000000000000000000000000000000000000000000000000008152600401611096906135fb565b60405180910390fd5b6110aa8a8a8a61134c565b50505050505050505050565b6000600160008473ffffffffffffffffffffffffffffffffffffffff1673ffffffffffffffffffffffffffffffffffffffff16815260200190815260200160002060008373ffffffffffffffffffffffffffffffffffffffff1673ffffffffffffffffffffffffffffffffffffffff16815260200190815260200160002054905092915050565b611145612a60565b600860008473ffffffffffffffffffffffffffffffffffffffff1673ffffffffffffffffffffffffffffffffffffffff1681526020019081526020016000208263ffffffff168154811061119c5761119b613304565b5b906000526020600020016040518060400160405290816000820160009054906101000a900463ffffffff1663ffffffff1663ffffffff1681526020016000820160049054906101000a90047bffffffffffffffffffffffffffffffffffffffffffffffffffffffff167bffffffffffffffffffffffffffffffffffffffffffffffffffffffff167bffffffffffffffffffffffffffffffffffffffffffffffffffffffff1681525050905092915050565b611255611344565b73ffffffffffffffffffffffffffffffffffffffff16611273610b40565b73ffffffffffffffffffffffffffffffffffffffff16146112c9576040517f08c379a00000000000000000000000000000000000000000000000000000000081526004016112c09061326e565b60405180910390fd5b600073ffffffffffffffffffffffffffffffffffffffff168173ffffffffffffffffffffffffffffffffffffffff1603611338576040517f08c379a000000000000000000000000000000000000000000000000000000000815260040161132f9061368d565b60405180910390fd5b61134181611c17565b50565b600033905090565b600073ffffffffffffffffffffffffffffffffffffffff168373ffffffffffffffffffffffffffffffffffffffff16036113bb576040517f08c379a00000000000000000000000000000000000000000000000000000000081526004016113b29061371f565b60405180910390fd5b600073ffffffffffffffffffffffffffffffffffffffff168273ffffffffffffffffffffffffffffffffffffffff160361142a576040517f08c379a0000000000000000000000000000000000000000000000000000000008152600401611421906137b1565b60405180910390fd5b80600160008573ffffffffffffffffffffffffffffffffffffffff1673ffffffffffffffffffffffffffffffffffffffff16815260200190815260200160002060008473ffffffffffffffffffffffffffffffffffffffff1673ffffffffffffffffffffffffffffffffffffffff168152602001908152602001600020819055508173ffffffffffffffffffffffffffffffffffffffff168373ffffffffffffffffffffffffffffffffffffffff167f8c5be1e5ebec7d5bd14f71427d1e84f3dd0314c0f7b2291e5b200ac8c7c3b925836040516115089190612c77565b60405180910390a3505050565b600061152184846110b6565b90507fffffffffffffffffffffffffffffffffffffffffffffffffffffffffffffffff811461159b578181101561158d576040517f08c379a00000000000000000000000000000000000000000000000000000000081526004016115849061381d565b60405180910390fd5b61159a848484840361134c565b5b50505050565b600073ffffffffffffffffffffffffffffffffffffffff168373ffffffffffffffffffffffffffffffffffffffff1603611610576040517f08c379a0000000000000000000000000000000000000000000000000000000008152600401611607906138af565b60405180910390fd5b600073ffffffffffffffffffffffffffffffffffffffff168273ffffffffffffffffffffffffffffffffffffffff160361167f576040517f08c379a000000000000000000000000000000000000000000000000000000000815260040161167690613941565b60405180910390fd5b61168a838383611d8e565b60008060008573ffffffffffffffffffffffffffffffffffffffff1673ffffffffffffffffffffffffffffffffffffffff16815260200190815260200160002054905081811015611710576040517f08c379a0000000000000000000000000000000000000000000000000000000008152600401611707906139d3565b60405180910390fd5b8181036000808673ffffffffffffffffffffffffffffffffffffffff1673ffffffffffffffffffffffffffffffffffffffff16815260200190815260200160002081905550816000808573ffffffffffffffffffffffffffffffffffffffff1673ffffffffffffffffffffffffffffffffffffffff16815260200190815260200160002060008282546117a39190613160565b925050819055508273ffffffffffffffffffffffffffffffffffffffff168473ffffffffffffffffffffffffffffffffffffffff167fddf252ad1be2c89b69c2b068fc378daa952ba7f163c4a11628f55a4df523b3ef846040516118079190612c77565b60405180910390a361181a848484611d93565b50505050565b60007f000000000000000000000000000000000000000000000000000000000000000073ffffffffffffffffffffffffffffffffffffffff163073ffffffffffffffffffffffffffffffffffffffff1614801561189c57507f000000000000000000000000000000000000000000000000000000000000000046145b156118c9577f00000000000000000000000000000000000000000000000000000000000000009050611937565b6119347f00000000000000000000000000000000000000000000000000000000000000007f00000000000000000000000000000000000000000000000000000000000000007f0000000000000000000000000000000000000000000000000000000000000000611da3565b90505b90565b6000808380549050905060005b818110156119b957600061195b8284611ddd565b90508486828154811061197157611970613304565b5b9060005260206000200160000160009054906101000a900463ffffffff1663ffffffff1611156119a3578092506119b3565b6001816119b09190613160565b91505b50611947565b60008214611a1b57846001836119cf91906132d0565b815481106119e0576119df613304565b5b9060005260206000200160000160049054906101000a90047bffffffffffffffffffffffffffffffffffffffffffffffffffffffff16611a1e565b60005b7bffffffffffffffffffffffffffffffffffffffffffffffffffffffff169250505092915050565b611a508282611e03565b5050565b611a5e8282611e90565b5050565b6000611a6d836108cd565b90506000611a7a8461099e565b905082600760008673ffffffffffffffffffffffffffffffffffffffff1673ffffffffffffffffffffffffffffffffffffffff16815260200190815260200160002060006101000a81548173ffffffffffffffffffffffffffffffffffffffff021916908373ffffffffffffffffffffffffffffffffffffffff1602179055508273ffffffffffffffffffffffffffffffffffffffff168273ffffffffffffffffffffffffffffffffffffffff168573ffffffffffffffffffffffffffffffffffffffff167f3134e8a2e6d97e929a7e54011ea5485d7d196dd5f0ba4d4ef95803e8e3fc257f60405160405180910390a4611b76828483611eae565b50505050565b600063ffffffff8016821115611bc7576040517f08c379a0000000000000000000000000000000000000000000000000000000008152600401611bbe90613a65565b60405180910390fd5b819050919050565b60008060008373ffffffffffffffffffffffffffffffffffffffff1673ffffffffffffffffffffffffffffffffffffffff168152602001908152602001600020549050919050565b6000600560009054906101000a900473ffffffffffffffffffffffffffffffffffffffff16905081600560006101000a81548173ffffffffffffffffffffffffffffffffffffffff021916908373ffffffffffffffffffffffffffffffffffffffff1602179055508173ffffffffffffffffffffffffffffffffffffffff168173ffffffffffffffffffffffffffffffffffffffff167f8be0079c531659141344cd1fd0a4f28419497f9722a3daafe3b4186f6b6457e060405160405180910390a35050565b600081600001549050919050565b6000611cfe611cf8611820565b836120a7565b9050919050565b6000806000611d16878787876120da565b91509150611d23816121e6565b8192505050949350505050565b600080600660008473ffffffffffffffffffffffffffffffffffffffff1673ffffffffffffffffffffffffffffffffffffffff1681526020019081526020016000209050611d7d81611cdd565b9150611d88816123b2565b50919050565b505050565b611d9e8383836123c8565b505050565b60008383834630604051602001611dbe959493929190613a85565b6040516020818303038152906040528051906020012090509392505050565b60006002828418611dee9190613b07565b828416611dfb9190613160565b905092915050565b611e0d82826123f3565b611e15612552565b7bffffffffffffffffffffffffffffffffffffffffffffffffffffffff16611e3b6106a0565b1115611e7c576040517f08c379a0000000000000000000000000000000000000000000000000000000008152600401611e7390613baa565b60405180910390fd5b611e8a60096125768361258c565b50505050565b611e9a8282612804565b611ea860096129da8361258c565b50505050565b8173ffffffffffffffffffffffffffffffffffffffff168373ffffffffffffffffffffffffffffffffffffffff1614158015611eea5750600081115b156120a257600073ffffffffffffffffffffffffffffffffffffffff168373ffffffffffffffffffffffffffffffffffffffff1614611fc857600080611f71600860008773ffffffffffffffffffffffffffffffffffffffff1673ffffffffffffffffffffffffffffffffffffffff1681526020019081526020016000206129da8561258c565b915091508473ffffffffffffffffffffffffffffffffffffffff167fdec2bacdd2f05b59de34da9b523dff8be42e5e38e818c82fdb0bae774387a7248383604051611fbd929190613bca565b60405180910390a250505b600073ffffffffffffffffffffffffffffffffffffffff168273ffffffffffffffffffffffffffffffffffffffff16146120a15760008061204a600860008673ffffffffffffffffffffffffffffffffffffffff1673ffffffffffffffffffffffffffffffffffffffff1681526020019081526020016000206125768561258c565b915091508373ffffffffffffffffffffffffffffffffffffffff167fdec2bacdd2f05b59de34da9b523dff8be42e5e38e818c82fdb0bae774387a7248383604051612096929190613bca565b60405180910390a250505b5b505050565b600082826040516020016120bc929190613c6b565b60405160208183030381529060405280519060200120905092915050565b6000807f7fffffffffffffffffffffffffffffff5d576e7357a4501ddfe92f46681b20a08360001c11156121155760006003915091506121dd565b601b8560ff161415801561212d5750601c8560ff1614155b1561213f5760006004915091506121dd565b6000600187878787604051600081526020016040526040516121649493929190613ca2565b6020604051602081039080840390855afa158015612186573d6000803e3d6000fd5b505050602060405103519050600073ffffffffffffffffffffffffffffffffffffffff168173ffffffffffffffffffffffffffffffffffffffff16036121d4576000600192509250506121dd565b80600092509250505b94509492505050565b600060048111156121fa576121f9613ce7565b5b81600481111561220d5761220c613ce7565b5b03156123af576001600481111561222757612226613ce7565b5b81600481111561223a57612239613ce7565b5b0361227a576040517f08c379a000000000000000000000000000000000000000000000000000000000815260040161227190613d62565b60405180910390fd5b6002600481111561228e5761228d613ce7565b5b8160048111156122a1576122a0613ce7565b5b036122e1576040517f08c379a00000000000000000000000000000000000000000000000000000000081526004016122d890613dce565b60405180910390fd5b600360048111156122f5576122f4613ce7565b5b81600481111561230857612307613ce7565b5b03612348576040517f08c379a000000000000000000000000000000000000000000000000000000000815260040161233f90613e60565b60405180910390fd5b60048081111561235b5761235a613ce7565b5b81600481111561236e5761236d613ce7565b5b036123ae576040517f08c379a00000000000000000000000000000000000000000000000000000000081526004016123a590613ef2565b60405180910390fd5b5b50565b6001816000016000828254019250508190555050565b6123d38383836129f0565b6123ee6123df846108cd565b6123e8846108cd565b83611eae565b505050565b600073ffffffffffffffffffffffffffffffffffffffff168273ffffffffffffffffffffffffffffffffffffffff1603612462576040517f08c379a000000000000000000000000000000000000000000000000000000000815260040161245990613f5e565b60405180910390fd5b61246e60008383611d8e565b80600260008282546124809190613160565b92505081905550806000808473ffffffffffffffffffffffffffffffffffffffff1673ffffffffffffffffffffffffffffffffffffffff16815260200190815260200160002060008282546124d59190613160565b925050819055508173ffffffffffffffffffffffffffffffffffffffff16600073ffffffffffffffffffffffffffffffffffffffff167fddf252ad1be2c89b69c2b068fc378daa952ba7f163c4a11628f55a4df523b3ef8360405161253a9190612c77565b60405180910390a361254e60008383611d93565b5050565b60007bffffffffffffffffffffffffffffffffffffffffffffffffffffffff905090565b600081836125849190613160565b905092915050565b600080600085805490509050600081146125fa57856001826125ae91906132d0565b815481106125bf576125be613304565b5b9060005260206000200160000160049054906101000a90047bffffffffffffffffffffffffffffffffffffffffffffffffffffffff166125fd565b60005b7bffffffffffffffffffffffffffffffffffffffffffffffffffffffff16925061262b83858763ffffffff16565b915060008111801561267e5750438660018361264791906132d0565b8154811061265857612657613304565b5b9060005260206000200160000160009054906101000a900463ffffffff1663ffffffff16145b1561270b5761268c826129f5565b8660018361269a91906132d0565b815481106126ab576126aa613304565b5b9060005260206000200160000160046101000a8154817bffffffffffffffffffffffffffffffffffffffffffffffffffffffff02191690837bffffffffffffffffffffffffffffffffffffffffffffffffffffffff1602179055506127fb565b85604051806040016040528061272043611b7c565b63ffffffff168152602001612734856129f5565b7bffffffffffffffffffffffffffffffffffffffffffffffffffffffff168152509080600181540180825580915050600190039060005260206000200160009091909190915060008201518160000160006101000a81548163ffffffff021916908363ffffffff16021790555060208201518160000160046101000a8154817bffffffffffffffffffffffffffffffffffffffffffffffffffffffff02191690837bffffffffffffffffffffffffffffffffffffffffffffffffffffffff16021790555050505b50935093915050565b600073ffffffffffffffffffffffffffffffffffffffff168273ffffffffffffffffffffffffffffffffffffffff1603612873576040517f08c379a000000000000000000000000000000000000000000000000000000000815260040161286a90613ff0565b60405180910390fd5b61287f82600083611d8e565b60008060008473ffffffffffffffffffffffffffffffffffffffff1673ffffffffffffffffffffffffffffffffffffffff16815260200190815260200160002054905081811015612905576040517f08c379a00000000000000000000000000000000000000000000000000000000081526004016128fc90614082565b60405180910390fd5b8181036000808573ffffffffffffffffffffffffffffffffffffffff1673ffffffffffffffffffffffffffffffffffffffff16815260200190815260200160002081905550816002600082825461295c91906132d0565b92505081905550600073ffffffffffffffffffffffffffffffffffffffff168373ffffffffffffffffffffffffffffffffffffffff167fddf252ad1be2c89b69c2b068fc378daa952ba7f163c4a11628f55a4df523b3ef846040516129c19190612c77565b60405180910390a36129d583600084611d93565b505050565b600081836129e891906132d0565b905092915050565b505050565b60007bffffffffffffffffffffffffffffffffffffffffffffffffffffffff8016821115612a58576040517f08c379a0000000000000000000000000000000000000000000000000000000008152600401612a4f90614114565b60405180910390fd5b819050919050565b6040518060400160405280600063ffffffff16815260200160007bffffffffffffffffffffffffffffffffffffffffffffffffffffffff1681525090565b600081519050919050565b600082825260208201905092915050565b60005b83811015612ad8578082015181840152602081019050612abd565b83811115612ae7576000848401525b50505050565b6000601f19601f8301169050919050565b6000612b0982612a9e565b612b138185612aa9565b9350612b23818560208601612aba565b612b2c81612aed565b840191505092915050565b60006020820190508181036000830152612b518184612afe565b905092915050565b600080fd5b600073ffffffffffffffffffffffffffffffffffffffff82169050919050565b6000612b8982612b5e565b9050919050565b612b9981612b7e565b8114612ba457600080fd5b50565b600081359050612bb681612b90565b92915050565b6000819050919050565b612bcf81612bbc565b8114612bda57600080fd5b50565b600081359050612bec81612bc6565b92915050565b60008060408385031215612c0957612c08612b59565b5b6000612c1785828601612ba7565b9250506020612c2885828601612bdd565b9150509250929050565b60008115159050919050565b612c4781612c32565b82525050565b6000602082019050612c626000830184612c3e565b92915050565b612c7181612bbc565b82525050565b6000602082019050612c8c6000830184612c68565b92915050565b600080600060608486031215612cab57612caa612b59565b5b6000612cb986828701612ba7565b9350506020612cca86828701612ba7565b9250506040612cdb86828701612bdd565b9150509250925092565b600060ff82169050919050565b612cfb81612ce5565b82525050565b6000602082019050612d166000830184612cf2565b92915050565b6000819050919050565b612d2f81612d1c565b82525050565b6000602082019050612d4a6000830184612d26565b92915050565b600060208284031215612d6657612d65612b59565b5b6000612d7484828501612bdd565b91505092915050565b600060208284031215612d9357612d92612b59565b5b6000612da184828501612ba7565b91505092915050565b612db381612b7e565b82525050565b6000602082019050612dce6000830184612daa565b92915050565b600063ffffffff82169050919050565b612ded81612dd4565b82525050565b6000602082019050612e086000830184612de4565b92915050565b612e1781612ce5565b8114612e2257600080fd5b50565b600081359050612e3481612e0e565b92915050565b612e4381612d1c565b8114612e4e57600080fd5b50565b600081359050612e6081612e3a565b92915050565b60008060008060008060c08789031215612e8357612e82612b59565b5b6000612e9189828a01612ba7565b9650506020612ea289828a01612bdd565b9550506040612eb389828a01612bdd565b9450506060612ec489828a01612e25565b9350506080612ed589828a01612e51565b92505060a0612ee689828a01612e51565b9150509295509295509295565b600080600080600080600060e0888a031215612f1257612f11612b59565b5b6000612f208a828b01612ba7565b9750506020612f318a828b01612ba7565b9650506040612f428a828b01612bdd565b9550506060612f538a828b01612bdd565b9450506080612f648a828b01612e25565b93505060a0612f758a828b01612e51565b92505060c0612f868a828b01612e51565b91505092959891949750929550565b60008060408385031215612fac57612fab612b59565b5b6000612fba85828601612ba7565b9250506020612fcb85828601612ba7565b9150509250929050565b612fde81612dd4565b8114612fe957600080fd5b50565b600081359050612ffb81612fd5565b92915050565b6000806040838503121561301857613017612b59565b5b600061302685828601612ba7565b925050602061303785828601612fec565b9150509250929050565b61304a81612dd4565b82525050565b60007bffffffffffffffffffffffffffffffffffffffffffffffffffffffff82169050919050565b61308181613050565b82525050565b60408201600082015161309d6000850182613041565b5060208201516130b06020850182613078565b50505050565b60006040820190506130cb6000830184613087565b92915050565b7f4e487b7100000000000000000000000000000000000000000000000000000000600052602260045260246000fd5b6000600282049050600182168061311857607f821691505b60208210810361312b5761312a6130d1565b5b50919050565b7f4e487b7100000000000000000000000000000000000000000000000000000000600052601160045260246000fd5b600061316b82612bbc565b915061317683612bbc565b9250827fffffffffffffffffffffffffffffffffffffffffffffffffffffffffffffffff038211156131ab576131aa613131565b5b828201905092915050565b7f4552433230566f7465733a20626c6f636b206e6f7420796574206d696e656400600082015250565b60006131ec601f83612aa9565b91506131f7826131b6565b602082019050919050565b6000602082019050818103600083015261321b816131df565b9050919050565b7f4f776e61626c653a2063616c6c6572206973206e6f7420746865206f776e6572600082015250565b6000613258602083612aa9565b915061326382613222565b602082019050919050565b600060208201905081810360008301526132878161324b565b9050919050565b60008151905061329d81612bc6565b92915050565b6000602082840312156132b9576132b8612b59565b5b60006132c78482850161328e565b91505092915050565b60006132db82612bbc565b91506132e683612bbc565b9250828210156132f9576132f8613131565b5b828203905092915050565b7f4e487b7100000000000000000000000000000000000000000000000000000000600052603260045260246000fd5b7f45524332303a2064656372656173656420616c6c6f77616e63652062656c6f7760008201527f207a65726f000000000000000000000000000000000000000000000000000000602082015250565b600061338f602583612aa9565b915061339a82613333565b604082019050919050565b600060208201905081810360008301526133be81613382565b9050919050565b7f4552433230566f7465733a207369676e61747572652065787069726564000000600082015250565b60006133fb601d83612aa9565b9150613406826133c5565b602082019050919050565b6000602082019050818103600083015261342a816133ee565b9050919050565b60006080820190506134466000830187612d26565b6134536020830186612daa565b6134606040830185612c68565b61346d6060830184612c68565b95945050505050565b7f4552433230566f7465733a20696e76616c6964206e6f6e636500000000000000600082015250565b60006134ac601983612aa9565b91506134b782613476565b602082019050919050565b600060208201905081810360008301526134db8161349f565b9050919050565b7f45524332305065726d69743a206578706972656420646561646c696e65000000600082015250565b6000613518601d83612aa9565b9150613523826134e2565b602082019050919050565b600060208201905081810360008301526135478161350b565b9050919050565b600060c0820190506135636000830189612d26565b6135706020830188612daa565b61357d6040830187612daa565b61358a6060830186612c68565b6135976080830185612c68565b6135a460a0830184612c68565b979650505050505050565b7f45524332305065726d69743a20696e76616c6964207369676e61747572650000600082015250565b60006135e5601e83612aa9565b91506135f0826135af565b602082019050919050565b60006020820190508181036000830152613614816135d8565b9050919050565b7f4f776e61626c653a206e6577206f776e657220697320746865207a65726f206160008201527f6464726573730000000000000000000000000000000000000000000000000000602082015250565b6000613677602683612aa9565b91506136828261361b565b604082019050919050565b600060208201905081810360008301526136a68161366a565b9050919050565b7f45524332303a20617070726f76652066726f6d20746865207a65726f2061646460008201527f7265737300000000000000000000000000000000000000000000000000000000602082015250565b6000613709602483612aa9565b9150613714826136ad565b604082019050919050565b60006020820190508181036000830152613738816136fc565b9050919050565b7f45524332303a20617070726f766520746f20746865207a65726f20616464726560008201527f7373000000000000000000000000000000000000000000000000000000000000602082015250565b600061379b602283612aa9565b91506137a68261373f565b604082019050919050565b600060208201905081810360008301526137ca8161378e565b9050919050565b7f45524332303a20696e73756666696369656e7420616c6c6f77616e6365000000600082015250565b6000613807601d83612aa9565b9150613812826137d1565b602082019050919050565b60006020820190508181036000830152613836816137fa565b9050919050565b7f45524332303a207472616e736665722066726f6d20746865207a65726f20616460008201527f6472657373000000000000000000000000000000000000000000000000000000602082015250565b6000613899602583612aa9565b91506138a48261383d565b604082019050919050565b600060208201905081810360008301526138c88161388c565b9050919050565b7f45524332303a207472616e7366657220746f20746865207a65726f206164647260008201527f6573730000000000000000000000000000000000000000000000000000000000602082015250565b600061392b602383612aa9565b9150613936826138cf565b604082019050919050565b6000602082019050818103600083015261395a8161391e565b9050919050565b7f45524332303a207472616e7366657220616d6f756e742065786365656473206260008201527f616c616e63650000000000000000000000000000000000000000000000000000602082015250565b60006139bd602683612aa9565b91506139c882613961565b604082019050919050565b600060208201905081810360008301526139ec816139b0565b9050919050565b7f53616665436173743a2076616c756520646f65736e27742066697420696e203360008201527f3220626974730000000000000000000000000000000000000000000000000000602082015250565b6000613a4f602683612aa9565b9150613a5a826139f3565b604082019050919050565b60006020820190508181036000830152613a7e81613a42565b9050919050565b600060a082019050613a9a6000830188612d26565b613aa76020830187612d26565b613ab46040830186612d26565b613ac16060830185612c68565b613ace6080830184612daa565b9695505050505050565b7f4e487b7100000000000000000000000000000000000000000000000000000000600052601260045260246000fd5b6000613b1282612bbc565b9150613b1d83612bbc565b925082613b2d57613b2c613ad8565b5b828204905092915050565b7f4552433230566f7465733a20746f74616c20737570706c79207269736b73206f60008201527f766572666c6f77696e6720766f74657300000000000000000000000000000000602082015250565b6000613b94603083612aa9565b9150613b9f82613b38565b604082019050919050565b60006020820190508181036000830152613bc381613b87565b9050919050565b6000604082019050613bdf6000830185612c68565b613bec6020830184612c68565b9392505050565b600081905092915050565b7f1901000000000000000000000000000000000000000000000000000000000000600082015250565b6000613c34600283613bf3565b9150613c3f82613bfe565b600282019050919050565b6000819050919050565b613c65613c6082612d1c565b613c4a565b82525050565b6000613c7682613c27565b9150613c828285613c54565b602082019150613c928284613c54565b6020820191508190509392505050565b6000608082019050613cb76000830187612d26565b613cc46020830186612cf2565b613cd16040830185612d26565b613cde6060830184612d26565b95945050505050565b7f4e487b7100000000000000000000000000000000000000000000000000000000600052602160045260246000fd5b7f45434453413a20696e76616c6964207369676e61747572650000000000000000600082015250565b6000613d4c601883612aa9565b9150613d5782613d16565b602082019050919050565b60006020820190508181036000830152613d7b81613d3f565b9050919050565b7f45434453413a20696e76616c6964207369676e6174757265206c656e67746800600082015250565b6000613db8601f83612aa9565b9150613dc382613d82565b602082019050919050565b60006020820190508181036000830152613de781613dab565b9050919050565b7f45434453413a20696e76616c6964207369676e6174757265202773272076616c60008201527f7565000000000000000000000000000000000000000000000000000000000000602082015250565b6000613e4a602283612aa9565b9150613e5582613dee565b604082019050919050565b60006020820190508181036000830152613e7981613e3d565b9050919050565b7f45434453413a20696e76616c6964207369676e6174757265202776272076616c60008201527f7565000000000000000000000000000000000000000000000000000000000000602082015250565b6000613edc602283612aa9565b9150613ee782613e80565b604082019050919050565b60006020820190508181036000830152613f0b81613ecf565b9050919050565b7f45524332303a206d696e7420746f20746865207a65726f206164647265737300600082015250565b6000613f48601f83612aa9565b9150613f5382613f12565b602082019050919050565b60006020820190508181036000830152613f7781613f3b565b9050919050565b7f45524332303a206275726e2066726f6d20746865207a65726f2061646472657360008201527f7300000000000000000000000000000000000000000000000000000000000000602082015250565b6000613fda602183612aa9565b9150613fe582613f7e565b604082019050919050565b6000602082019050818103600083015261400981613fcd565b9050919050565b7f45524332303a206275726e20616d6f756e7420657863656564732062616c616e60008201527f6365000000000000000000000000000000000000000000000000000000000000602082015250565b600061406c602283612aa9565b915061407782614010565b604082019050919050565b6000602082019050818103600083015261409b8161405f565b9050919050565b7f53616665436173743a2076616c756520646f65736e27742066697420696e203260008201527f3234206269747300000000000000000000000000000000000000000000000000602082015250565b60006140fe602783612aa9565b9150614109826140a2565b604082019050919050565b6000602082019050818103600083015261412d816140f1565b905091905056fea2646970667358221220af6cf5aa66d1653370fe87a8cd3039938205369b3a54021a06a4fbf01f8d3e5d64736f6c634300080d0033",
  "linkReferences": {},
  "deployedLinkReferences": {}
}