{
  "_format": "hh-sol-artifact-1",
  "contractName": "Factory2",
  "sourceName": "contracts/collection-factory/collection-2-factory/Factory2.sol",
  "abi": [
    {
      "anonymous": false,
      "inputs": [
        {
          "indexed": false,
          "internalType": "string",
          "name": "creatorName",
          "type": "string"
        },
        {
          "indexed": false,
          "internalType": "string",
          "name": "tokenName",
          "type": "string"
        },
        {
          "indexed": false,
          "internalType": "string",
          "name": "tokenSymbol",
          "type": "string"
        },
        {
          "indexed": false,
          "internalType": "string",
          "name": "baseURI",
          "type": "string"
        },
        {
          "indexed": false,
          "internalType": "uint256",
          "name": "maxSupply",
          "type": "uint256"
        },
        {
          "indexed": false,
          "internalType": "address",
          "name": "creatorAddress",
          "type": "address"
        },
        {
          "indexed": false,
          "internalType": "address",
          "name": "contractAddress",
          "type": "address"
        },
        {
          "indexed": false,
          "internalType": "uint96",
          "name": "defaultRoyalty",
          "type": "uint96"
        }
      ],
      "name": "NewCollection",
      "type": "event"
    },
    {
      "inputs": [
        {
          "internalType": "address",
          "name": "",
          "type": "address"
        },
        {
          "internalType": "uint256",
          "name": "",
          "type": "uint256"
        }
      ],
      "name": "_userCollections",
      "outputs": [
        {
          "internalType": "address",
          "name": "",
          "type": "address"
        }
      ],
      "stateMutability": "view",
      "type": "function"
    },
    {
      "inputs": [],
      "name": "implementation",
      "outputs": [
        {
          "internalType": "contract Collection2",
          "name": "",
          "type": "address"
        }
      ],
      "stateMutability": "view",
      "type": "function"
    },
    {
      "inputs": [
        {
          "internalType": "string",
          "name": "creatorName",
          "type": "string"
        },
        {
          "internalType": "string",
          "name": "tokenName",
          "type": "string"
        },
        {
          "internalType": "string",
          "name": "tokenSymbol",
          "type": "string"
        },
        {
          "internalType": "string",
          "name": "baseURI",
          "type": "string"
        },
        {
          "internalType": "uint256",
          "name": "maxSupply",
          "type": "uint256"
        },
        {
          "internalType": "uint96",
          "name": "royaltyNumerator",
          "type": "uint96"
        },
        {
          "internalType": "address",
          "name": "royaltyReciever",
          "type": "address"
        }
      ],
      "name": "newCollection",
      "outputs": [],
      "stateMutability": "nonpayable",
      "type": "function"
    },
    {
      "inputs": [
        {
          "internalType": "address",
          "name": "creatorAddr",
          "type": "address"
        }
      ],
      "name": "nextCollectionAddr",
      "outputs": [
        {
          "internalType": "address",
          "name": "",
          "type": "address"
        }
      ],
      "stateMutability": "view",
      "type": "function"
    },
    {
      "inputs": [
        {
          "internalType": "address",
          "name": "user",
          "type": "address"
        }
      ],
      "name": "userCollections",
      "outputs": [
        {
          "internalType": "address[]",
          "name": "addrs",
          "type": "address[]"
        },
        {
          "internalType": "string[]",
          "name": "names",
          "type": "string[]"
        }
      ],
      "stateMutability": "view",
      "type": "function"
    }
  ],
  "bytecode": "0x60808060405234610085576131488181016001600160401b0381118382101761006f578291610b5d833903906000f0801561006357600180546001600160a01b0319166001600160a01b0392909216919091179055604051610ad2908161008b8239f35b6040513d6000823e3d90fd5b634e487b7160e01b600052604160045260246000fd5b600080fdfe60806040526004361015610013575b600080fd5b6000803560e01c90816354934be21461007a575080635c60da1b146100715780637e598c7214610068578063941ec8641461005f5763ea326f6b1461005757600080fd5b61000e6105e2565b5061000e61036e565b5061000e610217565b5061000e6101b0565b346101765760203660031901126101765760556037610172926100e76100d66100a1610179565b6001546001600160a01b0382168552602085905260409094205460609190911b6001600160601b03191660a05260b45260d490565b609f198101608052607f19016104f4565b6100ef61067f565b60408051733d602d80600a3d3981f3363d3d373d3d3d363d7360601b8152606093841b6001600160601b03191660148201526f5af43d82803e903d91602b57fd5bf3ff60801b60288201523090931b6038840152604c830191909152828220606c83015291019190912090516001600160a01b0390911681529081906020820190565b0390f35b80fd5b600435906001600160a01b038216820361000e57565b60c435906001600160a01b038216820361000e57565b600091031261000e57565b503461000e57600036600319011261000e576001546040516001600160a01b039091168152602090f35b50634e487b7160e01b600052603260045260246000fd5b805482101561020a575b60005260206000200190600090565b6102126101da565b6101fb565b503461000e57604036600319011261000e57610231610179565b6024359060018060a01b0380911660005260006020526040600020805483101561000e57602092610261916101f1565b9190546040519260031b1c168152f35b918091926000905b82821061029157501161028a575050565b6000910152565b91508060209183015181860152018291610279565b906020916102bf81518092818552858086019101610271565b601f01601f1916010190565b906040820191604081528151809352606081019260208093019060005b81811061035157505050818184039101528251908183528083019281808460051b8301019501936000915b8483106103235750505050505090565b9091929394958480610341600193601f198682030187528a516102a6565b9801930193019194939290610313565b82516001600160a01b0316865294840194918401916001016102e8565b503461000e57602036600319011261000e57610388610179565b6001600160a01b0381166000908152602081905260409020546103aa81610973565b906103b4816109a5565b9260005b61ffff811690838210156104ce5761049561049b9261042661040d6103f8856103f38960018060a01b03166000526000602052604060002090565b6101f1565b905460039190911b1c6001600160a01b031690565b610417838a610a18565b6001600160a01b039091169052565b6004600061045f6104536104536103f8886103f38c60018060a01b03166000526000602052604060002090565b6001600160a01b031690565b6040516306fdde0360e01b815292839182905afa9081156104c1575b6000916104a0575b5061048e828a610a18565b5287610a18565b506109ef565b6103b8565b6104bb913d8091833e6104b38183610538565b810190610a3a565b38610483565b6104c9610732565b61047b565b604051806101728888836102cb565b50634e487b7160e01b600052604160045260246000fd5b601f80199101166080016080811067ffffffffffffffff82111761051757604052565b61051f6104dd565b604052565b67ffffffffffffffff811161051757604052565b90601f8019910116810190811067ffffffffffffffff82111761051757604052565b60209067ffffffffffffffff8111610578575b601f01601f19160190565b6105806104dd565b61056d565b81601f8201121561000e5780359061059c8261055a565b926105aa6040519485610538565b8284526020838301011161000e57816000926020809301838601378301015290565b60a435906001600160601b038216820361000e57565b503461000e5760e036600319011261000e5767ffffffffffffffff60043581811161000e57610615903690600401610585565b60243582811161000e5761062d903690600401610585565b9060443583811161000e57610646903690600401610585565b9060643593841161000e5761066261067d943690600401610585565b61066a6105cc565b9261067361018f565b9460843593610792565b005b60805160a0519060208110610692575090565b6000199060200360031b1b1690565b602081519101519060208110610692575090565b9691936107006001600160601b03946106f260e099989c9b976106e461070e968d6101009081815201906102a6565b8c810360208e0152906102a6565b908a820360408c01526102a6565b9088820360608a01526102a6565b60808701989098526001600160a01b0393841660a08701521660c085015216910152565b506040513d6000823e3d90fd5b96919361070060e097946106f26001600160601b03989c9b976106e461076e968d6101009081815201906102a6565b60808701989098526001600160a01b0391821660a08701521660c085015216910152565b6001549295919491926107fe906107b1906001600160a01b0316610453565b336000818152602081815260409182902054915160609390931b6001600160601b0319169083015260348083019190915281526107f8906107f3605482610538565b6106a1565b906108af565b6001600160a01b03811694909290853b1561000e5781600082610884988b838c7f38cf77567eaaf7459f861e2b3b7b01fc51d2a662ba4839d74563e5b3b5bc160d9f610865908d8c6040519a8b998a9889976352c9f04160e01b8952339460048a016106b5565b03925af180156108a2575b610889575b5060405197889733948961073f565b0390a1565b8061089661089c92610524565b806101a5565b38610875565b6108aa610732565b610870565b604051733d602d80600a3d3981f3363d3d373d3d3d363d7360601b815260609190911b60148201526e5af43d82803e903d91602b57fd5bf360881b60288201526037906000f5906001600160a01b0382161561090757565b60405162461bcd60e51b815260206004820152601760248201527f455243313136373a2063726561746532206661696c65640000000000000000006044820152606490fd5b60209067ffffffffffffffff8111610966575b60051b0190565b61096e6104dd565b61095f565b9061097d8261094c565b61098a6040519182610538565b828152809261099b601f199161094c565b0190602036910137565b906109af8261094c565b6109bc6040519182610538565b82815280926109cd601f199161094c565b019060005b8281106109de57505050565b8060606020809385010152016109d2565b61ffff809116908114610a025760010190565b634e487b7160e01b600052601160045260246000fd5b6020918151811015610a2d575b60051b010190565b610a356101da565b610a25565b60208183031261000e5780519067ffffffffffffffff821161000e570181601f8201121561000e578051610a6d8161055a565b92610a7b6040519485610538565b8184526020828401011161000e57610a999160208085019101610271565b9056fea26469706673582212206be9d82eb450ceac5458756d5450c33c2b116e35f827310349e207428c77b6dc64736f6c634300080f00336080604052346200002557620000146200002a565b5060405161303a9081620000ee8239f35b600080fd5b60005460ff8160081c16600014620000875760405162461bcd60e51b815260206004820152602e60248201526000805160206200312883398151915260448201526d191e481a5b9a5d1a585b1a5e995960921b6064820152608490fd5b60ff8082161015620000a25760ff191660ff17600055600190565b60405162461bcd60e51b815260206004820152602e60248201526000805160206200312883398151915260448201526d191e481a5b9a5d1a585b1a5e995960921b6064820152608490fdfe60806040526004361015610013575b600080fd5b60003560e01c806301ffc9a71461027f57806306fdde0314610276578063081812fc1461026d578063095ea7b3146102645780631805c5231461025b57806318160ddd1461025257806323b872dd146102495780632a55205a146102405780632f745c591461023757806340d097c31461022e57806342842e0e1461022557806342966c681461021c5780634f6ccce71461021357806352c9f0411461020a5780635944c7531461020157806360eb9485146101f85780636352211e146101ef57806370a08231146101e6578063715018a6146101dd5780638a616bc0146101d45780638da5cb5b146101cb57806395d89b41146101c2578063a1448194146101b9578063a22cb465146101b0578063aa1b103f146101a7578063b88d4fde1461019e578063bb99e70114610195578063c87b56dd1461018c578063d5abeb0114610183578063e985e9c51461017a5763f2fde38b1461017257600080fd5b61000e61173e565b5061000e6116e0565b5061000e6116c0565b5061000e6115d6565b5061000e61150f565b5061000e6113b5565b5061000e611386565b5061000e611299565b5061000e61125d565b5061000e6111b5565b5061000e61118a565b5061000e61114b565b5061000e6110e4565b5061000e6110b8565b5061000e611099565b5061000e610f71565b5061000e610ddc565b5061000e610d37565b5061000e610c5f565b5061000e610a43565b5061000e610a1a565b5061000e61098c565b5061000e6108d8565b5061000e610821565b5061000e6107f7565b5061000e6107a3565b5061000e610710565b5061000e61051a565b5061000e610491565b5061000e6103ab565b5061000e61029a565b6001600160e01b031981160361000e57565b503461000e57602036600319011261000e5760206004356102ba81610288565b63ffffffff60e01b1663780e9d6360e01b81149081156102e0575b506040519015158152f35b6380ac58cd60e01b81149150811561032c575b8115610301575b50386102d5565b63152a902d60e11b81149150811561031b575b50386102fa565b6301ffc9a760e01b14905038610314565b635b5e139f60e01b811491506102f3565b918091926000905b82821061035d575011610356575050565b6000910152565b91508060209183015181860152018291610345565b9060209161038b8151809281855285808601910161033d565b601f01601f1916010190565b9060206103a8928181520190610372565b90565b503461000e5760008060031936011261048e5760405190806097546103cf81611415565b808552916001918083169081156104645750600114610409575b610405856103f981870382610664565b60405191829182610397565b0390f35b9250609783527f354a83ed9988f79f6038d4c7a7dadbad8af32f4ad6df893e0e5807a1b1944ff95b82841061044c5750505081016020016103f9826104056103e9565b80546020858701810191909152909301928101610431565b869550610405969350602092506103f994915060ff191682840152151560051b82010192936103e9565b80fd5b503461000e57602036600319011261000e5760206104b0600435611a1a565b6040516001600160a01b039091168152f35b600435906001600160a01b038216820361000e57565b60a435906001600160a01b038216820361000e57565b60e435906001600160a01b038216820361000e57565b602435906001600160a01b038216820361000e57565b503461000e57604036600319011261000e576105346104c2565b602435610540816118e8565b916001600160a01b0380841690821681146105bb576105729361056d913314908115610574575b506119a8565b611ee5565b005b6001600160a01b03166000908152609c602052604090206105b591506105ae9033905b9060018060a01b0316600052602052604060002090565b5460ff1690565b38610567565b60405162461bcd60e51b815260206004820152602160248201527f4552433732313a20617070726f76616c20746f2063757272656e74206f776e656044820152603960f91b6064820152608490fd5b50634e487b7160e01b600052604160045260246000fd5b604081019081106001600160401b0382111761063c57604052565b61064461060a565b604052565b602081019081106001600160401b0382111761063c57604052565b90601f801991011681019081106001600160401b0382111761063c57604052565b6040519061069282610621565b565b6020906001600160401b0381116106b1575b601f01601f19160190565b6106b961060a565b6106a6565b9291926106ca82610694565b916106d86040519384610664565b82948184528183011161000e578281602093846000960137010152565b9080601f8301121561000e578160206103a8933591016106be565b503461000e57604036600319011261000e576004356024356001600160401b03811161000e5761079e6107687f34cb3b6db5c6f119ea41d420623c37f7af48a826c0fa0d5f851ec4a45d99ab039236906004016106f5565b6107846001600160a01b0361077c866118e8565b163314612ca2565b604051918291338352604060208401526040830190610372565b0390a2005b503461000e57600036600319011261000e57602060cb54604051908152f35b606090600319011261000e576001600160a01b0390600435828116810361000e5791602435908116810361000e579060443590565b503461000e57610572610809366107c2565b9161081c6108178433611bb5565b611aac565b611d66565b503461000e57604036600319011261000e57602435600435600052606660205261084e6040600020612126565b80519091906001600160a01b0316156108c8575b6104056108946001600160601b036020850151169383600019048511841515166108bb575b516001600160a01b031690565b6127106040519485940204908360209093929193604081019460018060a01b031681520152565b6108c3611cfd565b610887565b90506108d2612100565b90610862565b503461000e57604036600319011261000e576108f26104c2565b602435906108ff81611870565b821015610933576001600160a01b0316600090815260c9602090815260408083209383529281529082902054915191825290f35b60405162461bcd60e51b815260206004820152602b60248201527f455243373231456e756d657261626c653a206f776e657220696e646578206f7560448201526a74206f6620626f756e647360a81b6064820152608490fd5b503461000e57602036600319011261000e576109a66104c2565b6109bc60018060a01b0361015f541633146117d6565b60008060019283805b6109da575b50906109d591612b51565b604051f35b919091156109f7575b5061019180548085019091559082846109c5565b6000818152609960205260409020546001600160a01b03166109e35790836109ca565b503461000e57610572610a2c366107c2565b9060405192610a3a84610649565b60008452611b12565b503461000e57602036600319011261000e57600435610a628133611bb5565b15610c015780806000610a77610572946118e8565b6001600160a01b03811690610ac39082158414610b2d57610a9785612e56565b610aa085612ecf565b610aa985611e8f565b6001600160a01b03166000908152609a6020526040902090565b610acd8154611d14565b9055610af6610ae6846000526099602052604060002090565b80546001600160a01b0319169055565b7fddf252ad1be2c89b69c2b068fc378daa952ba7f163c4a11628f55a4df523b3ef82604051a4600052606660205260006040812055565b610b3681611870565b60018110610bf4575b841901610b9b859187835260ca6020526040832054818103610ba1575b5082610b728960005260ca602052604060002090565b556001600160a01b038416600090815260c9602052604090205b90600052602052604060002090565b55610a97565b86845260c960205260408420828552602052610bed604085205480610bdc84610b8c8a60018060a01b031660005260c9602052604060002090565b5560005260ca602052604060002090565b5538610b5c565b610bfc611cfd565b610b3f565b60405162461bcd60e51b815260206004820152603060248201527f4552433732314275726e61626c653a2063616c6c6572206973206e6f74206f7760448201526f1b995c881b9bdc88185c1c1c9bdd995960821b6064820152608490fd5b503461000e57602036600319011261000e5760043560cb54811015610cb15760cb6000527fa7ce836d032b2bf62b7e2097a8e0a6d8aeb35405ad15271e96d3b0188a1d06fb0154604051908152602090f35b60405162461bcd60e51b815260206004820152602c60248201527f455243373231456e756d657261626c653a20676c6f62616c20696e646578206f60448201526b7574206f6620626f756e647360a01b6064820152608490fd5b60c435906001600160601b038216820361000e57565b604435906001600160601b038216820361000e57565b503461000e5761010036600319011261000e576001600160401b0360043581811161000e57610d6a9036906004016106f5565b60243582811161000e57610d829036906004016106f5565b9060443583811161000e57610d9b9036906004016106f5565b9060643593841161000e57610db76105729436906004016106f5565b90610dc06104d8565b91610dc9610d0b565b93610dd26104ee565b95608435936125e9565b503461000e57606036600319011261000e57600435610df9610504565b610e01610d21565b61015f546001600160a01b0390610e1b90821633146117d6565b80610e25856118e8565b163303610efc57610e436127106001600160601b0384161115612a5d565b821615610eb75761057292610e7f610e8f92610e6f610e60610685565b6001600160a01b039096168652565b6001600160601b03166020850152565b6000526066602052604060002090565b815160209092015160a01b6001600160a01b0319166001600160a01b03909216919091179055565b60405162461bcd60e51b815260206004820152601b60248201527f455243323938313a20496e76616c696420706172616d657465727300000000006044820152606490fd5b60405162461bcd60e51b815260206004820152604160248201527f436f6c6c656374696f6e3a20796f75206d75737420626520746865206f776e6560448201527f72206f662074686520746f6b656e20746f207365742074686520726f79616c746064820152607960f81b608482015260a490fd5b503461000e5760208060031936011261000e576001600160401b039060043582811161000e57610fa59036906004016106f5565b91610fbc60018060a01b0361015f541633146117d6565b825190811161108c575b61019291610fdd82610fd88554611415565b612243565b80601f8311600114611016575081929360009261100b575b50508160011b916000199060031b1c1916179055005b015190503880610ff5565b90601f19831694611038610192600052600080516020612fe583398151915290565b926000905b87821061107457505083600195961061105b575b505050811b019055005b015160001960f88460031b161c19169055388080611051565b8060018596829496860151815501950193019061103d565b61109461060a565b610fc6565b503461000e57602036600319011261000e5760206104b06004356118e8565b503461000e57602036600319011261000e5760206110dc6110d76104c2565b611870565b604051908152f35b503461000e5760008060031936011261048e5761015f80546001600160a01b03811691906111133384146117d6565b6001600160a01b03191690556040519082907f8be0079c531659141344cd1fd0a4f28419497f9722a3daafe3b4186f6b6457e08284a3f35b503461000e57602036600319011261000e5761117360018060a01b0361015f541633146117d6565b610572600435600052606660205260006040812055565b503461000e57600036600319011261000e5761015f546040516001600160a01b039091168152602090f35b503461000e5760008060031936011261048e5760405190806098546111d981611415565b80855291600191808316908115610464575060011461120257610405856103f981870382610664565b9250609883527f2237a976fa961f5921fd19f2b03c925c725d77b20ce8f790c19709c03de4d8145b8284106112455750505081016020016103f9826104056103e9565b8054602085870181019190915290930192810161122a565b503461000e57604036600319011261000e5761057261127a6104c2565b61129060018060a01b0361015f541633146117d6565b60243590612b51565b503461000e57604036600319011261000e576112b36104c2565b602435801515810361000e576001600160a01b0382169133831461134157816112fe61130f9233600052609c60205260406000209060018060a01b0316600052602052604060002090565b9060ff801983541691151516179055565b604051901515815233907f17307eab39ab6107e8899845ad3d59bd9653f200f220920489ca2b5937696c3190602090a3005b60405162461bcd60e51b815260206004820152601960248201527f4552433732313a20617070726f766520746f2063616c6c6572000000000000006044820152606490fd5b503461000e57600036600319011261000e576113ae60018060a01b0361015f541633146117d6565b6000606555005b503461000e57608036600319011261000e576113cf6104c2565b6113d7610504565b606435916001600160401b03831161000e573660238401121561000e5761140b6105729336906024816004013591016106be565b9160443591611b12565b90600182811c92168015611445575b602083101461142f57565b634e487b7160e01b600052602260045260246000fd5b91607f1691611424565b6040519060008261019391825461146581611415565b808452936001918083169081156114eb575060011461148d575b505061069292500383610664565b600090815291507ffc8af01f449989052b52093a58fc9f42d0b11f0c6dd5dca0463dab62346ccc685b8483106114d057506106929350508101602001388061147f565b81935090816020925483858a010152019101909185926114b6565b9150506020925061069294915060ff191682840152151560051b820101388061147f565b503461000e5760008060031936011261048e5760405190806101929081549061153782611415565b808652926001928084169081156115a95750600114611561575b610405866103f981880382610664565b81529250600080516020612fe58339815191525b8284106115915750505081016020016103f98261040538611551565b80546020858701810191909152909301928101611575565b9050869550610405969350602092506103f994915060ff191682840152151560051b820101929338611551565b503461000e57602036600319011261000e576004356000818152609960205260409020546001600160a01b0316156116635761161061144f565b805115611651576103f961163d9161164361162d6104059561216a565b6040519485936020850190611991565b90611991565b03601f198101835282610664565b505061040561165e611960565b6103f9565b60405162461bcd60e51b815260206004820152602f60248201527f4552433732314d657461646174613a2055524920717565727920666f72206e6f60448201526e3732bc34b9ba32b73a103a37b5b2b760891b6064820152608490fd5b503461000e57600036600319011261000e57602061019454604051908152f35b503461000e57604036600319011261000e57602060ff6117326117016104c2565b611709610504565b6001600160a01b039182166000908152609c865260408082209290931681526020919091522090565b54166040519015158152f35b503461000e57602036600319011261000e576117586104c2565b61015f546001600160a01b039061177290821633146117d6565b8116156117825761057290611821565b60405162461bcd60e51b815260206004820152602660248201527f4f776e61626c653a206e6577206f776e657220697320746865207a65726f206160448201526564647265737360d01b6064820152608490fd5b156117dd57565b606460405162461bcd60e51b815260206004820152602060248201527f4f776e61626c653a2063616c6c6572206973206e6f7420746865206f776e65726044820152fd5b61015f80546001600160a01b039283166001600160a01b031982168117909255604051919216907f8be0079c531659141344cd1fd0a4f28419497f9722a3daafe3b4186f6b6457e090600090a3565b6001600160a01b0316801561189057600052609a60205260406000205490565b60405162461bcd60e51b815260206004820152602a60248201527f4552433732313a2062616c616e636520717565727920666f7220746865207a65604482015269726f206164647265737360b01b6064820152608490fd5b6000908152609960205260409020546001600160a01b031680156119095790565b60405162461bcd60e51b815260206004820152602960248201527f4552433732313a206f776e657220717565727920666f72206e6f6e657869737460448201526832b73a103a37b5b2b760b91b6064820152608490fd5b60405190602082018281106001600160401b03821117611984575b60405260008252565b61198c61060a565b61197b565b906119a46020928281519485920161033d565b0190565b156119af57565b60405162461bcd60e51b815260206004820152603860248201527f4552433732313a20617070726f76652063616c6c6572206973206e6f74206f7760448201527f6e6572206e6f7220617070726f76656420666f7220616c6c00000000000000006064820152608490fd5b6000818152609960205260409020546001600160a01b031615611a52576000908152609b60205260409020546001600160a01b031690565b60405162461bcd60e51b815260206004820152602c60248201527f4552433732313a20617070726f76656420717565727920666f72206e6f6e657860448201526b34b9ba32b73a103a37b5b2b760a11b6064820152608490fd5b15611ab357565b60405162461bcd60e51b815260206004820152603160248201527f4552433732313a207472616e736665722063616c6c6572206973206e6f74206f6044820152701ddb995c881b9bdc88185c1c1c9bdd9959607a1b6064820152608490fd5b916106929391611b3993611b296108178433611bb5565b611b34838383611d66565b6120ad565b611b91565b60809060208152603260208201527f4552433732313a207472616e7366657220746f206e6f6e20455243373231526560408201527131b2b4bb32b91034b6b83632b6b2b73a32b960711b60608201520190565b15611b9857565b60405162461bcd60e51b815280611bb160048201611b3e565b0390fd5b6000828152609960205260409020546001600160a01b031615611c4b57611bdb826118e8565b9160018060a01b0390818316928285168414948515611c1a575b50508315611c04575b50505090565b611c1091929350611a1a565b1614388080611bfe565b6001600160a01b03166000908152609c6020526040902091945060ff91611c419190610597565b5416923880611bf5565b60405162461bcd60e51b815260206004820152602c60248201527f4552433732313a206f70657261746f7220717565727920666f72206e6f6e657860448201526b34b9ba32b73a103a37b5b2b760a11b6064820152608490fd5b15611cac57565b60405162461bcd60e51b8152602060048201526024808201527f4552433732313a207472616e7366657220746f20746865207a65726f206164646044820152637265737360e01b6064820152608490fd5b50634e487b7160e01b600052601160045260246000fd5b60018110611d24575b6000190190565b611d2c611cfd565b611d1d565b6001906001198111611d41570190565b6119a4611cfd565b8019603011611d59575b60300190565b611d61611cfd565b611d53565b90611d70836118e8565b6001600160a01b038381169290918216839003611e3c57611db0611e1392821694611d9c861515611ca5565b611da7878483612d19565b610aa987611e8f565b611dba8154611d14565b90556001600160a01b0381166000908152609a60205260409020611dde8154611d31565b9055611df4856000526099602052604060002090565b80546001600160a01b0319166001600160a01b03909216919091179055565b7fddf252ad1be2c89b69c2b068fc378daa952ba7f163c4a11628f55a4df523b3ef6000604051a4565b60405162461bcd60e51b815260206004820152602560248201527f4552433732313a207472616e736665722066726f6d20696e636f72726563742060448201526437bbb732b960d91b6064820152608490fd5b6000818152609b6020526040812080546001600160a01b03191690556001600160a01b03611ebc836118e8565b167f8c5be1e5ebec7d5bd14f71427d1e84f3dd0314c0f7b2291e5b200ac8c7c3b92582604051a4565b6000828152609b6020526040902080546001600160a01b0319166001600160a01b0383161790556001600160a01b0380611f1e846118e8565b169116907f8c5be1e5ebec7d5bd14f71427d1e84f3dd0314c0f7b2291e5b200ac8c7c3b9256000604051a4565b9081602091031261000e57516103a881610288565b6103a8939260809260018060a01b031682526000602083015260408201528160608201520190610372565b6001600160a01b0391821681529116602082015260408101919091526080606082018190526103a892910190610372565b3d15611fe7573d90611fcd82610694565b91611fdb6040519384610664565b82523d6000602084013e565b606090565b909190803b156120a55761201e602091600093604051948580948193630a85bd0160e11b998a84523360048501611f60565b03926001600160a01b03165af160009181612075575b5061206757612041611fbc565b805190816120625760405162461bcd60e51b815280611bb160048201611b3e565b602001fd5b6001600160e01b0319161490565b61209791925060203d811161209e575b61208f8183610664565b810190611f4b565b9038612034565b503d612085565b505050600190565b92909190823b156120e05761201e926020926000604051809681958294630a85bd0160e11b9a8b85523360048601611f8b565b50505050600190565b50634e487b7160e01b600052603260045260246000fd5b6040519061210d82610621565b6065546001600160a01b038116835260a01c6020830152565b9060405161213381610621565b91546001600160a01b038116835260a01c6020830152565b90602091805182101561215d57010190565b6121656120e9565b010190565b801561222557806000908282935b6121ff575061218683610694565b926121946040519485610664565b80845281601f196121a483610694565b013660208701375b6121b65750505090565b6121bf90611d14565b90600a906121ea6121da6121d4848406611d49565b60ff1690565b60f81b6001600160f81b03191690565b841a6121f6848761214b565b530490816121ac565b926001600a916000198114612218575b01930480612178565b612220611cfd565b61220f565b5060405161223281610621565b60018152600360fc1b602082015290565b601f811161224f575050565b6000906101928252600080516020612fe5833981519152906020601f850160051c83019410612299575b601f0160051c01915b82811061228e57505050565b818155600101612282565b9092508290612279565b601f81116122af575050565b600090609782527f354a83ed9988f79f6038d4c7a7dadbad8af32f4ad6df893e0e5807a1b1944ff9906020601f850160051c8301941061230a575b601f0160051c01915b8281106122ff57505050565b8181556001016122f3565b90925082906122ea565b601f8111612320575050565b60009061019382527ffc8af01f449989052b52093a58fc9f42d0b11f0c6dd5dca0463dab62346ccc68906020601f850160051c8301941061237c575b601f0160051c01915b82811061237157505050565b818155600101612365565b909250829061235c565b601f8111612392575050565b600090609882527f2237a976fa961f5921fd19f2b03c925c725d77b20ce8f790c19709c03de4d814906020601f850160051c830194106123ed575b601f0160051c01915b8281106123e257505050565b8181556001016123d6565b90925082906123cd565b9081516001600160401b0381116124e5575b610193906124208161241b8454611415565b612314565b602080601f831160011461245c575081929394600092612451575b50508160011b916000199060031b1c1916179055565b01519050388061243b565b90601f198316956124906101936000527ffc8af01f449989052b52093a58fc9f42d0b11f0c6dd5dca0463dab62346ccc6890565b926000905b8882106124cd575050836001959697106124b4575b505050811b019055565b015160001960f88460031b161c191690553880806124aa565b80600185968294968601518155019501930190612495565b6124ed61060a565b612409565b9081516001600160401b0381116125dc575b61251881612513609854611415565b612386565b602080601f83116001146125545750819293600092612549575b50508160011b916000199060031b1c191617609855565b015190503880612532565b90601f1983169461258760986000527f2237a976fa961f5921fd19f2b03c925c725d77b20ce8f790c19709c03de4d81490565b926000905b8782106125c45750508360019596106125ab575b505050811b01609855565b015160001960f88460031b161c191690553880806125a0565b8060018596829496860151815501950193019061258c565b6125e461060a565b612504565b96959491906125f66128ea565b97886127a1575b80516001600160401b038111612794575b6101929161262082610fd88554611415565b60209081601f841160011461270c575093612681969383612667946126879b9a989461267c98600092612701575b50508160011b916000199060031b1c191617905561292a565b61266f612a4c565b612677612a4c565b61286d565b6123f7565b61019455565b6001600160601b0381166126dd575b505061269e57565b6126ae61ff001960005416600055565b604051600181527f7f26b83ff96e1f2b6a682f133852f6798a09c465da95921460cefb384740249890602090a1565b6126fa916126f56001600160a01b03821615156127b5565b612abc565b3880612696565b01519050388061264e565b6101926000529190601f198416600080516020612fe5833981519152936000905b82821061277c575050846126879b9a989461267c98946126819b98946126679860019510612763575b505050811b01905561292a565b015160001960f88460031b161c19169055388080612756565b8060018697829497870151815501960194019061272d565b61279c61060a565b61260e565b61010061ff001960005416176000556125fd565b156127bc57565b60405162461bcd60e51b8152602060048201526024808201527f436f6c6c656374696f6e3a20496e76616c696420526f79616c7479207265636560448201526334bb32b960e11b6064820152608490fd5b1561281457565b60405162461bcd60e51b815260206004820152602b60248201527f496e697469616c697a61626c653a20636f6e7472616374206973206e6f74206960448201526a6e697469616c697a696e6760a81b6064820152608490fd5b6106929061288260ff60005460081c1661280d565b611821565b1561288e57565b60405162461bcd60e51b815260206004820152602e60248201527f496e697469616c697a61626c653a20636f6e747261637420697320616c72656160448201526d191e481a5b9a5d1a585b1a5e995960921b6064820152608490fd5b60005460ff8160081c1660001461290c5750612907303b15612887565b600090565b8061291d600160ff81941610612887565b60ff191617600055600190565b9061294560ff60005460081c166129408161280d565b61280d565b81516001600160401b038111612a3f575b61296a81612965609754611415565b6122a3565b602080601f83116001146129ac57508190610692946000926129a1575b50508160011b916000199060031b1c1916176097556124f2565b015190503880612987565b919293601f1984166129e060976000527f354a83ed9988f79f6038d4c7a7dadbad8af32f4ad6df893e0e5807a1b1944ff990565b936000905b828210612a2757505091600193918561069297969410612a0e575b505050811b016097556124f2565b015160001960f88460031b161c19169055388080612a00565b806001869782949787015181550196019401906129e5565b612a4761060a565b612956565b61069260ff60005460081c1661280d565b15612a6457565b60405162461bcd60e51b815260206004820152602a60248201527f455243323938313a20726f79616c7479206665652077696c6c206578636565646044820152692073616c65507269636560b01b6064820152608490fd5b906001600160601b03811691612ad6612710841115612a5d565b6001600160a01b0316918215612b0c576020604051612af481610621565b848152015260a01b6001600160a01b03191617606555565b60405162461bcd60e51b815260206004820152601960248201527f455243323938313a20696e76616c6964207265636569766572000000000000006044820152606490fd5b90604051612b5e81610649565b60008152612b70610194548310612ca2565b6001600160a01b038316918215612c5e576000818152609960205260409020546001600160a01b0316612c19578381611b3994612bb08261069298612cee565b6001600160a01b0383166000908152609a60205260409020612bd28154611d31565b9055612bec83611df4846000526099602052604060002090565b60007fddf252ad1be2c89b69c2b068fc378daa952ba7f163c4a11628f55a4df523b3ef81604051a4611fec565b60405162461bcd60e51b815260206004820152601c60248201527f4552433732313a20746f6b656e20616c7265616479206d696e746564000000006044820152606490fd5b606460405162461bcd60e51b815260206004820152602060248201527f4552433732313a206d696e7420746f20746865207a65726f20616464726573736044820152fd5b15612ca957565b60405162461bcd60e51b815260206004820152601c60248201527f436f6c6c656374696f6e3a20496e76616c696420746f6b656e204964000000006044820152606490fd5b90612cf881612e56565b6001600160a01b038216612d10576106929150612ecf565b61069291612e1e565b9091906001600160a01b038082169182612d535750612d3783612e56565b831680612d4a5750506106929150612ecf565b03612d10575050565b8185168303612d63575b50612d37565b612dc8612d6f82611870565b60018110612e11575b60001901610b8c60009387855260ca6020526040852054838103612dcf575b5084612dad8960005260ca602052604060002090565b556001600160a01b0316600090815260c96020526040902090565b5538612d5d565b87865260c960205260408620848752602052612e0a604087205480610bdc84610b8c8760018060a01b031660005260c9602052604060002090565b5538612d97565b612e19611cfd565b612d78565b604090612e2a81611870565b9260009160018060a01b0316825260c96020528282208483526020528083832055815260ca6020522055565b60cb548160005260cc6020528060406000205568010000000000000000811015612ec2575b600181018060cb55811015612eb5575b60cb6000527fa7ce836d032b2bf62b7e2097a8e0a6d8aeb35405ad15271e96d3b0188a1d06fb0155565b612ebd6120e9565b612e8b565b612eca61060a565b612e7b565b60cb805460018110612fd7575b60009083825260cc60205281612f7e60408220549560001996848881011015612fca575b868452612f6d7fa7ce836d032b2bf62b7e2097a8e0a6d8aeb35405ad15271e96d3b0188a1d06fa958681015490831015612fbd575b88865280837fa7ce836d032b2bf62b7e2097a8e0a6d8aeb35405ad15271e96d3b0188a1d06fb015560005260cc602052604060002090565b5560005260cc602052604060002090565b558254938415612fa95784019380851015612f9c575b838352015555565b612fa46120e9565b612f94565b634e487b7160e01b83526031600452602483fd5b612fc56120e9565b612f35565b612fd26120e9565b612f00565b612fdf611cfd565b612edc56fefcfced99f9d921eebdc59aa6f7a664084bd564a3d2d54ebc1a5c057c99c67abaa2646970667358221220825c85671698a33b64aa158ab63fac9e6281dc30156619cacb2b10923bc2a91b64736f6c634300080f0033496e697469616c697a61626c653a20636f6e747261637420697320616c726561",
  "linkReferences": {},
  "deployedLinkReferences": {}
}