{
  "_format": "hh-sol-artifact-1",
  "contractName": "Donation",
  "sourceName": "contracts/community/2_donation/Donation.sol",
  "abi": [
    {
      "anonymous": false,
      "inputs": [
        {
          "indexed": true,
          "internalType": "address",
          "name": "owner",
          "type": "address"
        },
        {
          "indexed": true,
          "internalType": "address",
          "name": "operator",
          "type": "address"
        },
        {
          "indexed": true,
          "internalType": "uint256",
          "name": "tokenId",
          "type": "uint256"
        }
      ],
      "name": "Approval",
      "type": "event"
    },
    {
      "anonymous": false,
      "inputs": [
        {
          "indexed": true,
          "internalType": "address",
          "name": "owner",
          "type": "address"
        },
        {
          "indexed": true,
          "internalType": "address",
          "name": "operator",
          "type": "address"
        },
        {
          "indexed": false,
          "internalType": "bool",
          "name": "approved",
          "type": "bool"
        }
      ],
      "name": "ApprovalForAll",
      "type": "event"
    },
    {
      "anonymous": false,
      "inputs": [
        {
          "indexed": true,
          "internalType": "address",
          "name": "from",
          "type": "address"
        },
        {
          "indexed": true,
          "internalType": "address",
          "name": "to",
          "type": "address"
        },
        {
          "indexed": true,
          "internalType": "uint256",
          "name": "tokenId",
          "type": "uint256"
        }
      ],
      "name": "Transfer",
      "type": "event"
    },
    {
      "inputs": [
        {
          "internalType": "uint256",
          "name": "tokenId",
          "type": "uint256"
        }
      ],
      "name": "changePattern",
      "outputs": [],
      "stateMutability": "nonpayable",
      "type": "function"
    },
    {
      "inputs": [],
      "name": "contractBalance",
      "outputs": [
        {
          "internalType": "uint256",
          "name": "",
          "type": "uint256"
        }
      ],
      "stateMutability": "view",
      "type": "function"
    },
    {
      "inputs": [
        {
          "internalType": "string",
          "name": "tag",
          "type": "string"
        }
      ],
      "name": "donate",
      "outputs": [],
      "stateMutability": "payable",
      "type": "function"
    },
    {
      "inputs": [],
      "name": "init",
      "outputs": [],
      "stateMutability": "nonpayable",
      "type": "function"
    },
    {
      "inputs": [
        {
          "internalType": "uint256",
          "name": "amount",
          "type": "uint256"
        }
      ],
      "name": "setMinDonation",
      "outputs": [],
      "stateMutability": "nonpayable",
      "type": "function"
    },
    {
      "inputs": [
        {
          "internalType": "string",
          "name": "notification1",
          "type": "string"
        },
        {
          "internalType": "string",
          "name": "notification2",
          "type": "string"
        }
      ],
      "name": "setNotification",
      "outputs": [],
      "stateMutability": "nonpayable",
      "type": "function"
    },
    {
      "inputs": [],
      "name": "totalPower",
      "outputs": [
        {
          "internalType": "uint256",
          "name": "",
          "type": "uint256"
        }
      ],
      "stateMutability": "view",
      "type": "function"
    },
    {
      "inputs": [
        {
          "internalType": "address",
          "name": "userAddr",
          "type": "address"
        }
      ],
      "name": "userPower",
      "outputs": [
        {
          "internalType": "uint256",
          "name": "",
          "type": "uint256"
        }
      ],
      "stateMutability": "view",
      "type": "function"
    },
    {
      "inputs": [
        {
          "internalType": "uint256",
          "name": "amount",
          "type": "uint256"
        },
        {
          "internalType": "address",
          "name": "receiver",
          "type": "address"
        }
      ],
      "name": "withdraw",
      "outputs": [],
      "stateMutability": "nonpayable",
      "type": "function"
    }
  ],
  "bytecode": "0x608060405234801561001057600080fd5b50611678806100206000396000f3fe6080604052600436106100855760003560e01c80638b7afe2e116100595780638b7afe2e1461011e578063b5aebc8014610131578063db3ad22c14610144578063e1c7392a14610159578063e656619a1461016557600080fd5b8062f714ce1461008a57806301cb2b9c146100ac5780634d6e3452146100cc57806383a6595f146100fe575b600080fd5b34801561009657600080fd5b506100aa6100a53660046111bc565b610185565b005b3480156100b857600080fd5b506100aa6100c73660046111e8565b6101c8565b3480156100d857600080fd5b506100ec6100e7366004611201565b610242565b60405190815260200160405180910390f35b34801561010a57600080fd5b506100aa6101193660046111e8565b610281565b34801561012a57600080fd5b50476100ec565b6100aa61013f36600461121c565b6102b1565b34801561015057600080fd5b506100ec6102e7565b3480156100aa57600080fd5b34801561017157600080fd5b506100aa610180366004611331565b610318565b61018d61032e565b6040516001600160a01b0382169083156108fc029084906000818181858888f193505050501580156101c3573d6000803e3d6000fd5b505050565b6101d233826103b5565b6102365760405162461bcd60e51b815260206004820152602a60248201527f446f6e6174696f6e3a2063616c6c6572206973206e6f7420617070726f766564604482015269103737b91037bbb732b960b11b60648201526084015b60405180910390fd5b61023f816104c4565b50565b6001600160a01b03811660009081527f8b1e34c06a0926cd4f4dec6712395936ddf06c5177eba09c7581fc2f39f19f4b60205260408120545b92915050565b61028961032e565b61023f817f8b1e34c06a0926cd4f4dec6712395936ddf06c5177eba09c7581fc2f39f19f4855565b343360006102bd610508565b90506102c98282610530565b6102e082828787876102da8961054a565b4361056d565b5050505050565b60006103117f8b1e34c06a0926cd4f4dec6712395936ddf06c5177eba09c7581fc2f39f19f4d5490565b905090565b565b61032061032e565b61032a82826108c7565b5050565b7fc8fcad8db84d3cc18b4c41d551ea0ee66dd599cde068d998e57d5e09332c131c600401546001600160a01b031633146103165760405162461bcd60e51b815260206004820152602260248201527f4c69624469616d6f6e643a204d75737420626520636f6e7472616374206f776e60448201526132b960f11b606482015260840161022d565b60006103cf6000805160206116238339815191528361092c565b6104275760405162461bcd60e51b815260206004820152602360248201527f4552433732313a20717565727920666f72206e6f6e6578697374656e7420746f60448201526235b2b760e91b606482015260840161022d565b60006104328361093f565b9050806001600160a01b0316846001600160a01b0316148061046d5750836001600160a01b0316610462846109aa565b6001600160a01b0316145b806104bc57506001600160a01b0380821660009081527f3c7bf052874fa81625121783266a03507bd2cd48b16e571c01a04e8dd3fb07aa602090815260408083209388168352929052205460ff165b949350505050565b60008181527f8b1e34c06a0926cd4f4dec6712395936ddf06c5177eba09c7581fc2f39f19f4a60205260408120600601805491610500836113ab565b919050555050565b60006000805160206116038339815191528054906000610527836113ab565b91905055905090565b61032a828260405180602001604052806000815250610a43565b60006305f5e100610559610ac1565b61056390846113c4565b61027b91906113e3565b7f8b1e34c06a0926cd4f4dec6712395936ddf06c5177eba09c7581fc2f39f19f4854600080516020611603833981519152908410156106005760405162461bcd60e51b815260206004820152602960248201527f446f6e6174696f6e496e7465726e616c3a206d696e696d756d20646f6e61746960448201526837b71032b93937b91760b91b606482015260840161022d565b600086868080601f01602080910402602001604051908101604052809392919081815260200183838082843760009201919091525050825192935060609150819050602183111561079b5760225b801561068f578061065e81611405565b9150508481815181106106735761067361141c565b0160200151600160fd1b6001600160f81b03199091160361064e575b8060000361069e5760216106a0565b805b905060216106ae8286611432565b111561070a5760405162461bcd60e51b815260206004820152602560248201527f446f6e6174696f6e496e7465726e616c3a2074616720737472696e67206f766560448201526472666c6f7760d81b606482015260840161022d565b6107178160008c8e611449565b8080601f01602080910402602001604051908101604052809392919081815260200183838082843760009201919091525092955061075d92508691508390508c8e611449565b8080601f0160208091040260200160405190810160405280939291908181526020018383808284376000920191909152509294506107d59350505050565b89898080601f0160208091040260200160405190810160405280939291908181526020018383808284376000920191909152509294505050505b60006107e089610b39565b90506040518060e001604052808481526020018381526020018a815260200189815260200182815260200188815260200160008152508660030160008e81526020019081526020016000206000820151816000019080519060200190610847929190611107565b5060208281015180516108609260018501920190611107565b5060408201516002820155606082015160038201556080820151600482015560a0820151600582015560c09091015160069091015561089f8d82610bba565b888660050160008282546108b39190611473565b909155505050505050505050505050505050565b81516108f9907f8b1e34c06a0926cd4f4dec6712395936ddf06c5177eba09c7581fc2f39f19f4e906020850190611107565b5080516101c3907f8b1e34c06a0926cd4f4dec6712395936ddf06c5177eba09c7581fc2f39f19f4f906020840190611107565b60006109388383610c36565b9392505050565b60008061095a60008051602061162383398151915284610c4e565b90506001600160a01b03811661027b5760405162461bcd60e51b815260206004820152601560248201527422a9219b99189d1034b73b30b634b21037bbb732b960591b604482015260640161022d565b60006000805160206116238339815191526109c5818461092c565b610a265760405162461bcd60e51b815260206004820152602c60248201527f4552433732313a20617070726f76656420717565727920666f72206e6f6e657860448201526b34b9ba32b73a103a37b5b2b760a11b606482015260840161022d565b60009283526003016020525060409020546001600160a01b031690565b610a4d8383610c5a565b610a5a6000848484610d84565b6101c35760405162461bcd60e51b815260206004820152603260248201527f4552433732313a207472616e7366657220746f206e6f6e20455243373231526560448201527131b2b4bb32b91034b6b83632b6b2b73a32b960711b606482015260840161022d565b600073ab594600376ec9fd91f8e885dadf0ce036862de06001600160a01b03166350d25bcd6040518163ffffffff1660e01b8152600401602060405180830381865afa158015610b15573d6000803e3d6000fd5b505050506040513d601f19601f82011682018060405250810190610311919061148b565b7f8b1e34c06a0926cd4f4dec6712395936ddf06c5177eba09c7581fc2f39f19f495460009060008051602061160383398151915290610b7d6402540be400856113e3565b610b8791906113c4565b915061014a8160020154610b9b91906113e3565b816002016000828254610bae9190611432565b90915550919392505050565b6001600160a01b03821660009081527f8b1e34c06a0926cd4f4dec6712395936ddf06c5177eba09c7581fc2f39f19f4b60205260408120805460008051602061160383398151915292849291610c11908490611473565b9250508190555081816006016000828254610c2c9190611473565b9091555050505050565b60008181526001830160205260408120541515610938565b60006109388383610e55565b6001600160a01b038216610cb05760405162461bcd60e51b815260206004820181905260248201527f4552433732313a206d696e7420746f20746865207a65726f2061646472657373604482015260640161022d565b600080516020611623833981519152610cc9818361092c565b15610d165760405162461bcd60e51b815260206004820152601c60248201527f4552433732313a20746f6b656e20616c7265616479206d696e74656400000000604482015260640161022d565b6001600160a01b03831660009081526002820160205260409020610d3a9083610ee8565b50610d46818385610ef4565b5060405182906001600160a01b038516906000907fddf252ad1be2c89b69c2b068fc378daa952ba7f163c4a11628f55a4df523b3ef908290a4505050565b60006001600160a01b0384163b610d9d575060016104bc565b6000610e1e63150b7a0260e01b33888787604051602401610dc19493929190611500565b604051602081830303815290604052906001600160e01b0319166020820180516001600160e01b0383818316178352505050506040518060600160405280603281526020016115d1603291396001600160a01b0388169190610f0a565b9050600081806020019051810190610e36919061153d565b6001600160e01b031916630a85bd0160e11b1492505050949350505050565b6000818152600183016020526040812054808203610eb55760405162461bcd60e51b815260206004820152601e60248201527f456e756d657261626c654d61703a206e6f6e6578697374656e74206b65790000604482015260640161022d565b836000016001820381548110610ecd57610ecd61141c565b90600052602060002090600202016001015491505092915050565b60006109388383610f19565b60006104bc84846001600160a01b038516610f68565b60606104bc8484600085611007565b6000818152600183016020526040812054610f605750815460018181018455600084815260208082209093018490558454848252828601909352604090209190915561027b565b50600061027b565b6000828152600184016020526040812054808203610fcf575050604080518082018252838152602080820184815286546001818101895560008981528481209551600290930290950191825591519082015586548684528188019092529290912055610938565b82856000016001830381548110610fe857610fe861141c565b9060005260206000209060020201600101819055506000915050610938565b6060843b61106b5760405162461bcd60e51b815260206004820152602b60248201527f416464726573735574696c733a2066756e6374696f6e2063616c6c20746f206e60448201526a1bdb8b58dbdb9d1c9858dd60aa1b606482015260840161022d565b600080866001600160a01b031685876040516110879190611567565b60006040518083038185875af1925050503d80600081146110c4576040519150601f19603f3d011682016040523d82523d6000602084013e6110c9565b606091505b509150915081156110dd5791506104bc9050565b8051156110ed5780518082602001fd5b8360405162461bcd60e51b815260040161022d9190611583565b82805461111390611596565b90600052602060002090601f016020900481019282611135576000855561117b565b82601f1061114e57805160ff191683800117855561117b565b8280016001018555821561117b579182015b8281111561117b578251825591602001919060010190611160565b5061118792915061118b565b5090565b5b80821115611187576000815560010161118c565b80356001600160a01b03811681146111b757600080fd5b919050565b600080604083850312156111cf57600080fd5b823591506111df602084016111a0565b90509250929050565b6000602082840312156111fa57600080fd5b5035919050565b60006020828403121561121357600080fd5b610938826111a0565b6000806020838503121561122f57600080fd5b823567ffffffffffffffff8082111561124757600080fd5b818501915085601f83011261125b57600080fd5b81358181111561126a57600080fd5b86602082850101111561127c57600080fd5b60209290920196919550909350505050565b634e487b7160e01b600052604160045260246000fd5b600082601f8301126112b557600080fd5b813567ffffffffffffffff808211156112d0576112d061128e565b604051601f8301601f19908116603f011681019082821181831017156112f8576112f861128e565b8160405283815286602085880101111561131157600080fd5b836020870160208301376000602085830101528094505050505092915050565b6000806040838503121561134457600080fd5b823567ffffffffffffffff8082111561135c57600080fd5b611368868387016112a4565b9350602085013591508082111561137e57600080fd5b5061138b858286016112a4565b9150509250929050565b634e487b7160e01b600052601160045260246000fd5b6000600182016113bd576113bd611395565b5060010190565b60008160001904831182151516156113de576113de611395565b500290565b60008261140057634e487b7160e01b600052601260045260246000fd5b500490565b60008161141457611414611395565b506000190190565b634e487b7160e01b600052603260045260246000fd5b60008282101561144457611444611395565b500390565b6000808585111561145957600080fd5b8386111561146657600080fd5b5050820193919092039150565b6000821982111561148657611486611395565b500190565b60006020828403121561149d57600080fd5b5051919050565b60005b838110156114bf5781810151838201526020016114a7565b838111156114ce576000848401525b50505050565b600081518084526114ec8160208601602086016114a4565b601f01601f19169290920160200192915050565b6001600160a01b0385811682528416602082015260408101839052608060608201819052600090611533908301846114d4565b9695505050505050565b60006020828403121561154f57600080fd5b81516001600160e01b03198116811461093857600080fd5b600082516115798184602087016114a4565b9190910192915050565b60208152600061093860208301846114d4565b600181811c908216806115aa57607f821691505b6020821081036115ca57634e487b7160e01b600052602260045260246000fd5b5091905056fe4552433732313a207472616e7366657220746f206e6f6e20455243373231526563656976657220696d706c656d656e7465728b1e34c06a0926cd4f4dec6712395936ddf06c5177eba09c7581fc2f39f19f473c7bf052874fa81625121783266a03507bd2cd48b16e571c01a04e8dd3fb07a6a2646970667358221220a0fe3aa9d294a75d5b70b765d2778089df35ea91bd4910185f155f6e349683ae64736f6c634300080d0033",
  "linkReferences": {},
  "deployedLinkReferences": {}
}