{
  "_format": "hh-sol-artifact-1",
  "contractName": "Collection2",
  "sourceName": "contracts/collection-2-factory/Collection2.sol",
  "abi": [
    {
      "inputs": [],
      "stateMutability": "nonpayable",
      "type": "constructor"
    },
    {
      "anonymous": false,
      "inputs": [
        {
          "indexed": true,
          "internalType": "address",
          "name": "owner",
          "type": "address"
        },
        {
          "indexed": true,
          "internalType": "address",
          "name": "approved",
          "type": "address"
        },
        {
          "indexed": true,
          "internalType": "uint256",
          "name": "tokenId",
          "type": "uint256"
        }
      ],
      "name": "Approval",
      "type": "event"
    },
    {
      "anonymous": false,
      "inputs": [
        {
          "indexed": true,
          "internalType": "address",
          "name": "owner",
          "type": "address"
        },
        {
          "indexed": true,
          "internalType": "address",
          "name": "operator",
          "type": "address"
        },
        {
          "indexed": false,
          "internalType": "bool",
          "name": "approved",
          "type": "bool"
        }
      ],
      "name": "ApprovalForAll",
      "type": "event"
    },
    {
      "anonymous": false,
      "inputs": [
        {
          "indexed": true,
          "internalType": "uint256",
          "name": "tokenId",
          "type": "uint256"
        },
        {
          "indexed": false,
          "internalType": "address",
          "name": "userAddr",
          "type": "address"
        },
        {
          "indexed": false,
          "internalType": "string",
          "name": "text",
          "type": "string"
        }
      ],
      "name": "Comment",
      "type": "event"
    },
    {
      "anonymous": false,
      "inputs": [
        {
          "indexed": false,
          "internalType": "uint8",
          "name": "version",
          "type": "uint8"
        }
      ],
      "name": "Initialized",
      "type": "event"
    },
    {
      "anonymous": false,
      "inputs": [
        {
          "indexed": true,
          "internalType": "address",
          "name": "previousOwner",
          "type": "address"
        },
        {
          "indexed": true,
          "internalType": "address",
          "name": "newOwner",
          "type": "address"
        }
      ],
      "name": "OwnershipTransferred",
      "type": "event"
    },
    {
      "anonymous": false,
      "inputs": [
        {
          "indexed": true,
          "internalType": "address",
          "name": "from",
          "type": "address"
        },
        {
          "indexed": true,
          "internalType": "address",
          "name": "to",
          "type": "address"
        },
        {
          "indexed": true,
          "internalType": "uint256",
          "name": "tokenId",
          "type": "uint256"
        }
      ],
      "name": "Transfer",
      "type": "event"
    },
    {
      "inputs": [],
      "name": "_creator_",
      "outputs": [
        {
          "internalType": "string",
          "name": "",
          "type": "string"
        }
      ],
      "stateMutability": "view",
      "type": "function"
    },
    {
      "inputs": [
        {
          "internalType": "address",
          "name": "to",
          "type": "address"
        },
        {
          "internalType": "uint256",
          "name": "tokenId",
          "type": "uint256"
        }
      ],
      "name": "approve",
      "outputs": [],
      "stateMutability": "nonpayable",
      "type": "function"
    },
    {
      "inputs": [
        {
          "internalType": "address",
          "name": "owner",
          "type": "address"
        }
      ],
      "name": "balanceOf",
      "outputs": [
        {
          "internalType": "uint256",
          "name": "",
          "type": "uint256"
        }
      ],
      "stateMutability": "view",
      "type": "function"
    },
    {
      "inputs": [
        {
          "internalType": "uint256",
          "name": "tokenId",
          "type": "uint256"
        }
      ],
      "name": "burn",
      "outputs": [],
      "stateMutability": "nonpayable",
      "type": "function"
    },
    {
      "inputs": [
        {
          "internalType": "uint256",
          "name": "tokenId",
          "type": "uint256"
        },
        {
          "internalType": "string",
          "name": "text",
          "type": "string"
        }
      ],
      "name": "comment",
      "outputs": [],
      "stateMutability": "nonpayable",
      "type": "function"
    },
    {
      "inputs": [],
      "name": "deleteDefaultRoyalty",
      "outputs": [],
      "stateMutability": "nonpayable",
      "type": "function"
    },
    {
      "inputs": [
        {
          "internalType": "uint256",
          "name": "tokenId",
          "type": "uint256"
        }
      ],
      "name": "getApproved",
      "outputs": [
        {
          "internalType": "address",
          "name": "",
          "type": "address"
        }
      ],
      "stateMutability": "view",
      "type": "function"
    },
    {
      "inputs": [
        {
          "internalType": "string",
          "name": "_creator",
          "type": "string"
        },
        {
          "internalType": "string",
          "name": "_name",
          "type": "string"
        },
        {
          "internalType": "string",
          "name": "_symbol",
          "type": "string"
        },
        {
          "internalType": "string",
          "name": "_uri",
          "type": "string"
        },
        {
          "internalType": "uint256",
          "name": "_maxSupply",
          "type": "uint256"
        },
        {
          "internalType": "address",
          "name": "_owner",
          "type": "address"
        },
        {
          "internalType": "uint96",
          "name": "_royaltyNumerator",
          "type": "uint96"
        },
        {
          "internalType": "address",
          "name": "_royaltyReciever",
          "type": "address"
        }
      ],
      "name": "initialize",
      "outputs": [],
      "stateMutability": "nonpayable",
      "type": "function"
    },
    {
      "inputs": [
        {
          "internalType": "address",
          "name": "owner",
          "type": "address"
        },
        {
          "internalType": "address",
          "name": "operator",
          "type": "address"
        }
      ],
      "name": "isApprovedForAll",
      "outputs": [
        {
          "internalType": "bool",
          "name": "",
          "type": "bool"
        }
      ],
      "stateMutability": "view",
      "type": "function"
    },
    {
      "inputs": [],
      "name": "maxSupply",
      "outputs": [
        {
          "internalType": "uint256",
          "name": "",
          "type": "uint256"
        }
      ],
      "stateMutability": "view",
      "type": "function"
    },
    {
      "inputs": [],
      "name": "name",
      "outputs": [
        {
          "internalType": "string",
          "name": "",
          "type": "string"
        }
      ],
      "stateMutability": "view",
      "type": "function"
    },
    {
      "inputs": [],
      "name": "owner",
      "outputs": [
        {
          "internalType": "address",
          "name": "",
          "type": "address"
        }
      ],
      "stateMutability": "view",
      "type": "function"
    },
    {
      "inputs": [
        {
          "internalType": "uint256",
          "name": "tokenId",
          "type": "uint256"
        }
      ],
      "name": "ownerOf",
      "outputs": [
        {
          "internalType": "address",
          "name": "",
          "type": "address"
        }
      ],
      "stateMutability": "view",
      "type": "function"
    },
    {
      "inputs": [],
      "name": "renounceOwnership",
      "outputs": [],
      "stateMutability": "nonpayable",
      "type": "function"
    },
    {
      "inputs": [
        {
          "internalType": "uint256",
          "name": "tokenId",
          "type": "uint256"
        }
      ],
      "name": "resetTokenRoyalty",
      "outputs": [],
      "stateMutability": "nonpayable",
      "type": "function"
    },
    {
      "inputs": [
        {
          "internalType": "uint256",
          "name": "_tokenId",
          "type": "uint256"
        },
        {
          "internalType": "uint256",
          "name": "_salePrice",
          "type": "uint256"
        }
      ],
      "name": "royaltyInfo",
      "outputs": [
        {
          "internalType": "address",
          "name": "",
          "type": "address"
        },
        {
          "internalType": "uint256",
          "name": "",
          "type": "uint256"
        }
      ],
      "stateMutability": "view",
      "type": "function"
    },
    {
      "inputs": [
        {
          "internalType": "address",
          "name": "to",
          "type": "address"
        }
      ],
      "name": "safeMint",
      "outputs": [],
      "stateMutability": "nonpayable",
      "type": "function"
    },
    {
      "inputs": [
        {
          "internalType": "address",
          "name": "to",
          "type": "address"
        },
        {
          "internalType": "uint256",
          "name": "tokenId",
          "type": "uint256"
        }
      ],
      "name": "safeMint",
      "outputs": [],
      "stateMutability": "nonpayable",
      "type": "function"
    },
    {
      "inputs": [
        {
          "internalType": "address",
          "name": "from",
          "type": "address"
        },
        {
          "internalType": "address",
          "name": "to",
          "type": "address"
        },
        {
          "internalType": "uint256",
          "name": "tokenId",
          "type": "uint256"
        }
      ],
      "name": "safeTransferFrom",
      "outputs": [],
      "stateMutability": "nonpayable",
      "type": "function"
    },
    {
      "inputs": [
        {
          "internalType": "address",
          "name": "from",
          "type": "address"
        },
        {
          "internalType": "address",
          "name": "to",
          "type": "address"
        },
        {
          "internalType": "uint256",
          "name": "tokenId",
          "type": "uint256"
        },
        {
          "internalType": "bytes",
          "name": "_data",
          "type": "bytes"
        }
      ],
      "name": "safeTransferFrom",
      "outputs": [],
      "stateMutability": "nonpayable",
      "type": "function"
    },
    {
      "inputs": [
        {
          "internalType": "address",
          "name": "operator",
          "type": "address"
        },
        {
          "internalType": "bool",
          "name": "approved",
          "type": "bool"
        }
      ],
      "name": "setApprovalForAll",
      "outputs": [],
      "stateMutability": "nonpayable",
      "type": "function"
    },
    {
      "inputs": [
        {
          "internalType": "string",
          "name": "_creatorName",
          "type": "string"
        }
      ],
      "name": "setCreatorName",
      "outputs": [],
      "stateMutability": "nonpayable",
      "type": "function"
    },
    {
      "inputs": [
        {
          "internalType": "uint256",
          "name": "tokenId",
          "type": "uint256"
        },
        {
          "internalType": "address",
          "name": "receiver",
          "type": "address"
        },
        {
          "internalType": "uint96",
          "name": "feeNumerator",
          "type": "uint96"
        }
      ],
      "name": "setTokenRoyalty",
      "outputs": [],
      "stateMutability": "nonpayable",
      "type": "function"
    },
    {
      "inputs": [
        {
          "internalType": "bytes4",
          "name": "interfaceId",
          "type": "bytes4"
        }
      ],
      "name": "supportsInterface",
      "outputs": [
        {
          "internalType": "bool",
          "name": "",
          "type": "bool"
        }
      ],
      "stateMutability": "view",
      "type": "function"
    },
    {
      "inputs": [],
      "name": "symbol",
      "outputs": [
        {
          "internalType": "string",
          "name": "",
          "type": "string"
        }
      ],
      "stateMutability": "view",
      "type": "function"
    },
    {
      "inputs": [
        {
          "internalType": "uint256",
          "name": "index",
          "type": "uint256"
        }
      ],
      "name": "tokenByIndex",
      "outputs": [
        {
          "internalType": "uint256",
          "name": "",
          "type": "uint256"
        }
      ],
      "stateMutability": "view",
      "type": "function"
    },
    {
      "inputs": [
        {
          "internalType": "address",
          "name": "owner",
          "type": "address"
        },
        {
          "internalType": "uint256",
          "name": "index",
          "type": "uint256"
        }
      ],
      "name": "tokenOfOwnerByIndex",
      "outputs": [
        {
          "internalType": "uint256",
          "name": "",
          "type": "uint256"
        }
      ],
      "stateMutability": "view",
      "type": "function"
    },
    {
      "inputs": [
        {
          "internalType": "uint256",
          "name": "tokenId",
          "type": "uint256"
        }
      ],
      "name": "tokenURI",
      "outputs": [
        {
          "internalType": "string",
          "name": "",
          "type": "string"
        }
      ],
      "stateMutability": "view",
      "type": "function"
    },
    {
      "inputs": [],
      "name": "totalSupply",
      "outputs": [
        {
          "internalType": "uint256",
          "name": "",
          "type": "uint256"
        }
      ],
      "stateMutability": "view",
      "type": "function"
    },
    {
      "inputs": [
        {
          "internalType": "address",
          "name": "from",
          "type": "address"
        },
        {
          "internalType": "address",
          "name": "to",
          "type": "address"
        },
        {
          "internalType": "uint256",
          "name": "tokenId",
          "type": "uint256"
        }
      ],
      "name": "transferFrom",
      "outputs": [],
      "stateMutability": "nonpayable",
      "type": "function"
    },
    {
      "inputs": [
        {
          "internalType": "address",
          "name": "newOwner",
          "type": "address"
        }
      ],
      "name": "transferOwnership",
      "outputs": [],
      "stateMutability": "nonpayable",
      "type": "function"
    }
  ],
  "bytecode": "0x60806040523480156200001157600080fd5b506200001c62000022565b62000152565b6200002e60ff62000031565b50565b60008054610100900460ff1615620000ca578160ff1660011480156200006a575062000068306200014360201b620010f31760201c565b155b620000c25760405162461bcd60e51b815260206004820152602e6024820152600080516020620029a383398151915260448201526d191e481a5b9a5d1a585b1a5e995960921b60648201526084015b60405180910390fd5b506000919050565b60005460ff808416911610620001295760405162461bcd60e51b815260206004820152602e6024820152600080516020620029a383398151915260448201526d191e481a5b9a5d1a585b1a5e995960921b6064820152608401620000b9565b506000805460ff191660ff92909216919091179055600190565b6001600160a01b03163b151590565b61284180620001626000396000f3fe608060405234801561001057600080fd5b50600436106101e55760003560e01c806360eb94851161010f578063a22cb465116100a2578063c87b56dd11610071578063c87b56dd1461040d578063d5abeb0114610420578063e985e9c51461042a578063f2fde38b1461046657600080fd5b8063a22cb465146103d7578063aa1b103f146103ea578063b88d4fde146103f2578063bb99e7011461040557600080fd5b80638a616bc0116100de5780638a616bc0146103975780638da5cb5b146103aa57806395d89b41146103bc578063a1448194146103c457600080fd5b806360eb9485146103565780636352211e1461036957806370a082311461037c578063715018a61461038f57600080fd5b80632a55205a1161018757806342966c681161015657806342966c681461030a5780634f6ccce71461031d57806352c9f041146103305780635944c7531461034357600080fd5b80632a55205a1461029f5780632f745c59146102d157806340d097c3146102e457806342842e0e146102f757600080fd5b8063095ea7b3116101c3578063095ea7b3146102525780631805c5231461026757806318160ddd1461027a57806323b872dd1461028c57600080fd5b806301ffc9a7146101ea57806306fdde0314610212578063081812fc14610227575b600080fd5b6101fd6101f8366004612022565b610479565b60405190151581526020015b60405180910390f35b61021a61048a565b6040516102099190612097565b61023a6102353660046120aa565b61051c565b6040516001600160a01b039091168152602001610209565b6102656102603660046120da565b6105b6565b005b6102656102753660046121b0565b6106cb565b60cb545b604051908152602001610209565b61026561029a3660046121f7565b610772565b6102b26102ad366004612233565b6107a4565b604080516001600160a01b039093168352602083019190915201610209565b61027e6102df3660046120da565b610850565b6102656102f2366004612255565b6108e6565b6102656103053660046121f7565b61094b565b6102656103183660046120aa565b610966565b61027e61032b3660046120aa565b6109e0565b61026561033e366004612287565b610a73565b610265610351366004612370565b610bb6565b6102656103643660046123ac565b610c84565b61023a6103773660046120aa565b610cc3565b61027e61038a366004612255565b610d3a565b610265610dc1565b6102656103a53660046120aa565b610df8565b61015f546001600160a01b031661023a565b61021a610e34565b6102656103d23660046120da565b610e43565b6102656103e53660046123e1565b610e78565b610265610e83565b61026561040036600461241d565b610eb8565b61021a610ef0565b61021a61041b3660046120aa565b610f7f565b61027e6101945481565b6101fd610438366004612499565b6001600160a01b039182166000908152609c6020908152604080832093909416825291909152205460ff1690565b610265610474366004612255565b61105a565b600061048482611102565b92915050565b606060978054610499906124cc565b80601f01602080910402602001604051908101604052809291908181526020018280546104c5906124cc565b80156105125780601f106104e757610100808354040283529160200191610512565b820191906000526020600020905b8154815290600101906020018083116104f557829003601f168201915b5050505050905090565b6000818152609960205260408120546001600160a01b031661059a5760405162461bcd60e51b815260206004820152602c60248201527f4552433732313a20617070726f76656420717565727920666f72206e6f6e657860448201526b34b9ba32b73a103a37b5b2b760a11b60648201526084015b60405180910390fd5b506000908152609b60205260409020546001600160a01b031690565b60006105c182610cc3565b9050806001600160a01b0316836001600160a01b03160361062e5760405162461bcd60e51b815260206004820152602160248201527f4552433732313a20617070726f76616c20746f2063757272656e74206f776e656044820152603960f91b6064820152608401610591565b336001600160a01b038216148061064a575061064a8133610438565b6106bc5760405162461bcd60e51b815260206004820152603860248201527f4552433732313a20617070726f76652063616c6c6572206973206e6f74206f7760448201527f6e6572206e6f7220617070726f76656420666f7220616c6c00000000000000006064820152608401610591565b6106c6838361110d565b505050565b6106d482610cc3565b6001600160a01b0316336001600160a01b0316146107345760405162461bcd60e51b815260206004820152601c60248201527f436f6c6c656374696f6e3a20496e76616c696420746f6b656e204964000000006044820152606401610591565b817f34cb3b6db5c6f119ea41d420623c37f7af48a826c0fa0d5f851ec4a45d99ab033383604051610766929190612506565b60405180910390a25050565b61077d335b8261117b565b6107995760405162461bcd60e51b81526004016105919061252a565b6106c6838383611272565b60008281526066602090815260408083208151808301909252546001600160a01b038116808352600160a01b9091046001600160601b03169282019290925282916108195750604080518082019091526065546001600160a01b0381168252600160a01b90046001600160601b031660208201525b602081015160009061271090610838906001600160601b031687612591565b61084291906125c6565b915196919550909350505050565b600061085b83610d3a565b82106108bd5760405162461bcd60e51b815260206004820152602b60248201527f455243373231456e756d657261626c653a206f776e657220696e646578206f7560448201526a74206f6620626f756e647360a81b6064820152608401610591565b506001600160a01b0391909116600090815260c960209081526040808320938352929052205490565b61015f546001600160a01b031633146109115760405162461bcd60e51b8152600401610591906125da565b60005b506101918054600181019091556000818152609960205260409020546001600160a01b0316610914576109478282611419565b5050565b6106c683838360405180602001604052806000815250610eb8565b61096f33610777565b6109d45760405162461bcd60e51b815260206004820152603060248201527f4552433732314275726e61626c653a2063616c6c6572206973206e6f74206f7760448201526f1b995c881b9bdc88185c1c1c9bdd995960821b6064820152608401610591565b6109dd81611433565b50565b60006109eb60cb5490565b8210610a4e5760405162461bcd60e51b815260206004820152602c60248201527f455243373231456e756d657261626c653a20676c6f62616c20696e646578206f60448201526b7574206f6620626f756e647360a01b6064820152608401610591565b60cb8281548110610a6157610a6161260f565b90600052602060002001549050919050565b6000610a7f600161143c565b90508015610a97576000805461ff0019166101001790555b8851610aab906101929060208c0190611f73565b50610ab688886114c9565b610abe6114fa565b610ac66114fa565b610acf84611521565b8551610ae390610193906020890190611f73565b506101948590556001600160601b03831615610b65576001600160a01b038216610b5b5760405162461bcd60e51b8152602060048201526024808201527f436f6c6c656374696f6e3a20496e76616c696420526f79616c7479207265636560448201526334bb32b960e11b6064820152608401610591565b610b658284611548565b8015610bab576000805461ff0019169055604051600181527f7f26b83ff96e1f2b6a682f133852f6798a09c465da95921460cefb38474024989060200160405180910390a15b505050505050505050565b61015f546001600160a01b03163314610be15760405162461bcd60e51b8152600401610591906125da565b610bea83610cc3565b6001600160a01b0316336001600160a01b031614610c7a5760405162461bcd60e51b815260206004820152604160248201527f436f6c6c656374696f6e3a20796f75206d75737420626520746865206f776e6560448201527f72206f662074686520746f6b656e20746f207365742074686520726f79616c746064820152607960f81b608482015260a401610591565b6106c68282611548565b61015f546001600160a01b03163314610caf5760405162461bcd60e51b8152600401610591906125da565b805161094790610192906020840190611f73565b6000818152609960205260408120546001600160a01b0316806104845760405162461bcd60e51b815260206004820152602960248201527f4552433732313a206f776e657220717565727920666f72206e6f6e657869737460448201526832b73a103a37b5b2b760b91b6064820152608401610591565b60006001600160a01b038216610da55760405162461bcd60e51b815260206004820152602a60248201527f4552433732313a2062616c616e636520717565727920666f7220746865207a65604482015269726f206164647265737360b01b6064820152608401610591565b506001600160a01b03166000908152609a602052604090205490565b61015f546001600160a01b03163314610dec5760405162461bcd60e51b8152600401610591906125da565b610df66000611645565b565b61015f546001600160a01b03163314610e235760405162461bcd60e51b8152600401610591906125da565b600090815260666020526040812055565b606060988054610499906124cc565b61015f546001600160a01b03163314610e6e5760405162461bcd60e51b8152600401610591906125da565b6109478282611419565b610947338383611698565b61015f546001600160a01b03163314610eae5760405162461bcd60e51b8152600401610591906125da565b610df66000606555565b610ec2338361117b565b610ede5760405162461bcd60e51b81526004016105919061252a565b610eea84848484611766565b50505050565b6101928054610efe906124cc565b80601f0160208091040260200160405190810160405280929190818152602001828054610f2a906124cc565b8015610f775780601f10610f4c57610100808354040283529160200191610f77565b820191906000526020600020905b815481529060010190602001808311610f5a57829003601f168201915b505050505081565b6000818152609960205260409020546060906001600160a01b0316610ffe5760405162461bcd60e51b815260206004820152602f60248201527f4552433732314d657461646174613a2055524920717565727920666f72206e6f60448201526e3732bc34b9ba32b73a103a37b5b2b760891b6064820152608401610591565b6000611008611799565b905060008151116110285760405180602001604052806000815250611053565b80611032846117a9565b604051602001611043929190612625565b6040516020818303038152906040525b9392505050565b61015f546001600160a01b031633146110855760405162461bcd60e51b8152600401610591906125da565b6001600160a01b0381166110ea5760405162461bcd60e51b815260206004820152602660248201527f4f776e61626c653a206e6577206f776e657220697320746865207a65726f206160448201526564647265737360d01b6064820152608401610591565b6109dd81611645565b6001600160a01b03163b151590565b6000610484826118aa565b6000818152609b6020526040902080546001600160a01b0319166001600160a01b038416908117909155819061114282610cc3565b6001600160a01b03167f8c5be1e5ebec7d5bd14f71427d1e84f3dd0314c0f7b2291e5b200ac8c7c3b92560405160405180910390a45050565b6000818152609960205260408120546001600160a01b03166111f45760405162461bcd60e51b815260206004820152602c60248201527f4552433732313a206f70657261746f7220717565727920666f72206e6f6e657860448201526b34b9ba32b73a103a37b5b2b760a11b6064820152608401610591565b60006111ff83610cc3565b9050806001600160a01b0316846001600160a01b0316148061124657506001600160a01b038082166000908152609c602090815260408083209388168352929052205460ff165b8061126a5750836001600160a01b031661125f8461051c565b6001600160a01b0316145b949350505050565b826001600160a01b031661128582610cc3565b6001600160a01b0316146112e95760405162461bcd60e51b815260206004820152602560248201527f4552433732313a207472616e736665722066726f6d20696e636f72726563742060448201526437bbb732b960d91b6064820152608401610591565b6001600160a01b03821661134b5760405162461bcd60e51b8152602060048201526024808201527f4552433732313a207472616e7366657220746f20746865207a65726f206164646044820152637265737360e01b6064820152608401610591565b6113568383836118cf565b61136160008261110d565b6001600160a01b0383166000908152609a6020526040812080546001929061138a908490612654565b90915550506001600160a01b0382166000908152609a602052604081208054600192906113b890849061266b565b909155505060008181526099602052604080822080546001600160a01b0319166001600160a01b0386811691821790925591518493918716917fddf252ad1be2c89b69c2b068fc378daa952ba7f163c4a11628f55a4df523b3ef91a4505050565b6109478282604051806020016040528060008152506118da565b6109dd8161190d565b60008054610100900460ff1615611483578160ff16600114801561145f5750303b155b61147b5760405162461bcd60e51b815260040161059190612683565b506000919050565b60005460ff8084169116106114aa5760405162461bcd60e51b815260040161059190612683565b506000805460ff191660ff92909216919091179055600190565b919050565b600054610100900460ff166114f05760405162461bcd60e51b8152600401610591906126d1565b6109478282611916565b600054610100900460ff16610df65760405162461bcd60e51b8152600401610591906126d1565b600054610100900460ff166110ea5760405162461bcd60e51b8152600401610591906126d1565b6127106001600160601b03821611156115b65760405162461bcd60e51b815260206004820152602a60248201527f455243323938313a20726f79616c7479206665652077696c6c206578636565646044820152692073616c65507269636560b01b6064820152608401610591565b6001600160a01b03821661160c5760405162461bcd60e51b815260206004820152601960248201527f455243323938313a20696e76616c6964207265636569766572000000000000006044820152606401610591565b604080518082019091526001600160a01b039092168083526001600160601b039091166020909201829052600160a01b90910217606555565b61015f80546001600160a01b038381166001600160a01b0319831681179093556040519116919082907f8be0079c531659141344cd1fd0a4f28419497f9722a3daafe3b4186f6b6457e090600090a35050565b816001600160a01b0316836001600160a01b0316036116f95760405162461bcd60e51b815260206004820152601960248201527f4552433732313a20617070726f766520746f2063616c6c6572000000000000006044820152606401610591565b6001600160a01b038381166000818152609c6020908152604080832094871680845294825291829020805460ff191686151590811790915591519182527f17307eab39ab6107e8899845ad3d59bd9653f200f220920489ca2b5937696c31910160405180910390a3505050565b611771848484611272565b61177d84848484611964565b610eea5760405162461bcd60e51b81526004016105919061271c565b60606101938054610499906124cc565b6060816000036117d05750506040805180820190915260018152600360fc1b602082015290565b8160005b81156117fa57806117e48161276e565b91506117f39050600a836125c6565b91506117d4565b60008167ffffffffffffffff81111561181557611815612104565b6040519080825280601f01601f19166020018201604052801561183f576020820181803683370190505b5090505b841561126a57611854600183612654565b9150611861600a86612787565b61186c90603061266b565b60f81b8183815181106118815761188161260f565b60200101906001600160f81b031916908160001a9053506118a3600a866125c6565b9450611843565b60006001600160e01b0319821663780e9d6360e01b1480610484575061048482611a65565b6106c6838383611aa5565b6118e48383611b5d565b6118f16000848484611964565b6106c65760405162461bcd60e51b81526004016105919061271c565b610e2381611bb9565b600054610100900460ff1661193d5760405162461bcd60e51b8152600401610591906126d1565b8151611950906097906020850190611f73565b5080516106c6906098906020840190611f73565b60006001600160a01b0384163b15611a5a57604051630a85bd0160e11b81526001600160a01b0385169063150b7a02906119a890339089908890889060040161279b565b6020604051808303816000875af19250505080156119e3575060408051601f3d908101601f191682019092526119e0918101906127d8565b60015b611a40573d808015611a11576040519150601f19603f3d011682016040523d82523d6000602084013e611a16565b606091505b508051600003611a385760405162461bcd60e51b81526004016105919061271c565b805181602001fd5b6001600160e01b031916630a85bd0160e11b14905061126a565b506001949350505050565b60006001600160e01b031982166380ac58cd60e01b1480611a9657506001600160e01b03198216635b5e139f60e01b145b80610484575061048482611c60565b6001600160a01b038316611b0057611afb8160cb8054600083815260cc60205260408120829055600182018355919091527fa7ce836d032b2bf62b7e2097a8e0a6d8aeb35405ad15271e96d3b0188a1d06fb0155565b611b23565b816001600160a01b0316836001600160a01b031614611b2357611b238382611c95565b6001600160a01b038216611b3a576106c681611d32565b826001600160a01b0316826001600160a01b0316146106c6576106c68282611de1565b610194548110611baf5760405162461bcd60e51b815260206004820152601c60248201527f436f6c6c656374696f6e3a20496e76616c696420746f6b656e204964000000006044820152606401610591565b6109478282611e25565b6000611bc482610cc3565b9050611bd2816000846118cf565b611bdd60008361110d565b6001600160a01b0381166000908152609a60205260408120805460019290611c06908490612654565b909155505060008281526099602052604080822080546001600160a01b0319169055518391906001600160a01b038416907fddf252ad1be2c89b69c2b068fc378daa952ba7f163c4a11628f55a4df523b3ef908390a45050565b60006001600160e01b0319821663152a902d60e11b148061048457506301ffc9a760e01b6001600160e01b0319831614610484565b60006001611ca284610d3a565b611cac9190612654565b600083815260ca6020526040902054909150808214611cff576001600160a01b038416600090815260c960209081526040808320858452825280832054848452818420819055835260ca90915290208190555b50600091825260ca602090815260408084208490556001600160a01b03909416835260c981528383209183525290812055565b60cb54600090611d4490600190612654565b600083815260cc602052604081205460cb8054939450909284908110611d6c57611d6c61260f565b906000526020600020015490508060cb8381548110611d8d57611d8d61260f565b600091825260208083209091019290925582815260cc909152604080822084905585825281205560cb805480611dc557611dc56127f5565b6001900381819060005260206000200160009055905550505050565b6000611dec83610d3a565b6001600160a01b03909316600090815260c960209081526040808320868452825280832085905593825260ca9052919091209190915550565b6001600160a01b038216611e7b5760405162461bcd60e51b815260206004820181905260248201527f4552433732313a206d696e7420746f20746865207a65726f20616464726573736044820152606401610591565b6000818152609960205260409020546001600160a01b031615611ee05760405162461bcd60e51b815260206004820152601c60248201527f4552433732313a20746f6b656e20616c7265616479206d696e746564000000006044820152606401610591565b611eec600083836118cf565b6001600160a01b0382166000908152609a60205260408120805460019290611f1590849061266b565b909155505060008181526099602052604080822080546001600160a01b0319166001600160a01b03861690811790915590518392907fddf252ad1be2c89b69c2b068fc378daa952ba7f163c4a11628f55a4df523b3ef908290a45050565b828054611f7f906124cc565b90600052602060002090601f016020900481019282611fa15760008555611fe7565b82601f10611fba57805160ff1916838001178555611fe7565b82800160010185558215611fe7579182015b82811115611fe7578251825591602001919060010190611fcc565b50611ff3929150611ff7565b5090565b5b80821115611ff35760008155600101611ff8565b6001600160e01b0319811681146109dd57600080fd5b60006020828403121561203457600080fd5b81356110538161200c565b60005b8381101561205a578181015183820152602001612042565b83811115610eea5750506000910152565b6000815180845261208381602086016020860161203f565b601f01601f19169290920160200192915050565b602081526000611053602083018461206b565b6000602082840312156120bc57600080fd5b5035919050565b80356001600160a01b03811681146114c457600080fd5b600080604083850312156120ed57600080fd5b6120f6836120c3565b946020939093013593505050565b634e487b7160e01b600052604160045260246000fd5b600067ffffffffffffffff8084111561213557612135612104565b604051601f8501601f19908116603f0116810190828211818310171561215d5761215d612104565b8160405280935085815286868601111561217657600080fd5b858560208301376000602087830101525050509392505050565b600082601f8301126121a157600080fd5b6110538383356020850161211a565b600080604083850312156121c357600080fd5b82359150602083013567ffffffffffffffff8111156121e157600080fd5b6121ed85828601612190565b9150509250929050565b60008060006060848603121561220c57600080fd5b612215846120c3565b9250612223602085016120c3565b9150604084013590509250925092565b6000806040838503121561224657600080fd5b50508035926020909101359150565b60006020828403121561226757600080fd5b611053826120c3565b80356001600160601b03811681146114c457600080fd5b600080600080600080600080610100898b0312156122a457600080fd5b883567ffffffffffffffff808211156122bc57600080fd5b6122c88c838d01612190565b995060208b01359150808211156122de57600080fd5b6122ea8c838d01612190565b985060408b013591508082111561230057600080fd5b61230c8c838d01612190565b975060608b013591508082111561232257600080fd5b5061232f8b828c01612190565b9550506080890135935061234560a08a016120c3565b925061235360c08a01612270565b915061236160e08a016120c3565b90509295985092959890939650565b60008060006060848603121561238557600080fd5b83359250612395602085016120c3565b91506123a360408501612270565b90509250925092565b6000602082840312156123be57600080fd5b813567ffffffffffffffff8111156123d557600080fd5b61126a84828501612190565b600080604083850312156123f457600080fd5b6123fd836120c3565b91506020830135801515811461241257600080fd5b809150509250929050565b6000806000806080858703121561243357600080fd5b61243c856120c3565b935061244a602086016120c3565b925060408501359150606085013567ffffffffffffffff81111561246d57600080fd5b8501601f8101871361247e57600080fd5b61248d8782356020840161211a565b91505092959194509250565b600080604083850312156124ac57600080fd5b6124b5836120c3565b91506124c3602084016120c3565b90509250929050565b600181811c908216806124e057607f821691505b60208210810361250057634e487b7160e01b600052602260045260246000fd5b50919050565b6001600160a01b038316815260406020820181905260009061126a9083018461206b565b60208082526031908201527f4552433732313a207472616e736665722063616c6c6572206973206e6f74206f6040820152701ddb995c881b9bdc88185c1c1c9bdd9959607a1b606082015260800190565b634e487b7160e01b600052601160045260246000fd5b60008160001904831182151516156125ab576125ab61257b565b500290565b634e487b7160e01b600052601260045260246000fd5b6000826125d5576125d56125b0565b500490565b6020808252818101527f4f776e61626c653a2063616c6c6572206973206e6f7420746865206f776e6572604082015260600190565b634e487b7160e01b600052603260045260246000fd5b6000835161263781846020880161203f565b83519083019061264b81836020880161203f565b01949350505050565b6000828210156126665761266661257b565b500390565b6000821982111561267e5761267e61257b565b500190565b6020808252602e908201527f496e697469616c697a61626c653a20636f6e747261637420697320616c72656160408201526d191e481a5b9a5d1a585b1a5e995960921b606082015260800190565b6020808252602b908201527f496e697469616c697a61626c653a20636f6e7472616374206973206e6f74206960408201526a6e697469616c697a696e6760a81b606082015260800190565b60208082526032908201527f4552433732313a207472616e7366657220746f206e6f6e20455243373231526560408201527131b2b4bb32b91034b6b83632b6b2b73a32b960711b606082015260800190565b6000600182016127805761278061257b565b5060010190565b600082612796576127966125b0565b500690565b6001600160a01b03858116825284166020820152604081018390526080606082018190526000906127ce9083018461206b565b9695505050505050565b6000602082840312156127ea57600080fd5b81516110538161200c565b634e487b7160e01b600052603160045260246000fdfea264697066735822122014d5fdf76b8733bfc63a21d36bebff9825d70ebb2c785d06f666114e4934188a64736f6c634300080d0033496e697469616c697a61626c653a20636f6e747261637420697320616c726561",
  "linkReferences": {},
  "deployedLinkReferences": {}
}