{
  "_format": "hh-sol-artifact-1",
  "contractName": "BanTheBanNFT",
  "sourceName": "contracts/BanTheBanNFT.sol",
  "abi": [
    {
      "inputs": [],
      "stateMutability": "nonpayable",
      "type": "constructor"
    },
    {
      "anonymous": false,
      "inputs": [
        {
          "indexed": true,
          "internalType": "address",
          "name": "owner",
          "type": "address"
        },
        {
          "indexed": true,
          "internalType": "address",
          "name": "approved",
          "type": "address"
        },
        {
          "indexed": true,
          "internalType": "uint256",
          "name": "tokenId",
          "type": "uint256"
        }
      ],
      "name": "Approval",
      "type": "event"
    },
    {
      "anonymous": false,
      "inputs": [
        {
          "indexed": true,
          "internalType": "address",
          "name": "owner",
          "type": "address"
        },
        {
          "indexed": true,
          "internalType": "address",
          "name": "operator",
          "type": "address"
        },
        {
          "indexed": false,
          "internalType": "bool",
          "name": "approved",
          "type": "bool"
        }
      ],
      "name": "ApprovalForAll",
      "type": "event"
    },
    {
      "anonymous": false,
      "inputs": [
        {
          "indexed": true,
          "internalType": "bytes32",
          "name": "role",
          "type": "bytes32"
        },
        {
          "indexed": true,
          "internalType": "bytes32",
          "name": "previousAdminRole",
          "type": "bytes32"
        },
        {
          "indexed": true,
          "internalType": "bytes32",
          "name": "newAdminRole",
          "type": "bytes32"
        }
      ],
      "name": "RoleAdminChanged",
      "type": "event"
    },
    {
      "anonymous": false,
      "inputs": [
        {
          "indexed": true,
          "internalType": "bytes32",
          "name": "role",
          "type": "bytes32"
        },
        {
          "indexed": true,
          "internalType": "address",
          "name": "account",
          "type": "address"
        },
        {
          "indexed": true,
          "internalType": "address",
          "name": "sender",
          "type": "address"
        }
      ],
      "name": "RoleGranted",
      "type": "event"
    },
    {
      "anonymous": false,
      "inputs": [
        {
          "indexed": true,
          "internalType": "bytes32",
          "name": "role",
          "type": "bytes32"
        },
        {
          "indexed": true,
          "internalType": "address",
          "name": "account",
          "type": "address"
        },
        {
          "indexed": true,
          "internalType": "address",
          "name": "sender",
          "type": "address"
        }
      ],
      "name": "RoleRevoked",
      "type": "event"
    },
    {
      "anonymous": false,
      "inputs": [
        {
          "indexed": true,
          "internalType": "address",
          "name": "from",
          "type": "address"
        },
        {
          "indexed": true,
          "internalType": "address",
          "name": "to",
          "type": "address"
        },
        {
          "indexed": true,
          "internalType": "uint256",
          "name": "tokenId",
          "type": "uint256"
        }
      ],
      "name": "Transfer",
      "type": "event"
    },
    {
      "inputs": [],
      "name": "BURNER_ROLE",
      "outputs": [
        {
          "internalType": "bytes32",
          "name": "",
          "type": "bytes32"
        }
      ],
      "stateMutability": "view",
      "type": "function"
    },
    {
      "inputs": [],
      "name": "DEFAULT_ADMIN_ROLE",
      "outputs": [
        {
          "internalType": "bytes32",
          "name": "",
          "type": "bytes32"
        }
      ],
      "stateMutability": "view",
      "type": "function"
    },
    {
      "inputs": [],
      "name": "SUPPLY_ACCESS",
      "outputs": [
        {
          "internalType": "bytes32",
          "name": "",
          "type": "bytes32"
        }
      ],
      "stateMutability": "view",
      "type": "function"
    },
    {
      "inputs": [
        {
          "internalType": "uint256",
          "name": "_maxSupply",
          "type": "uint256"
        }
      ],
      "name": "adjustMaxSupply",
      "outputs": [],
      "stateMutability": "nonpayable",
      "type": "function"
    },
    {
      "inputs": [
        {
          "internalType": "address",
          "name": "to",
          "type": "address"
        },
        {
          "internalType": "uint256",
          "name": "tokenId",
          "type": "uint256"
        }
      ],
      "name": "approve",
      "outputs": [],
      "stateMutability": "nonpayable",
      "type": "function"
    },
    {
      "inputs": [
        {
          "internalType": "address",
          "name": "owner",
          "type": "address"
        }
      ],
      "name": "balanceOf",
      "outputs": [
        {
          "internalType": "uint256",
          "name": "",
          "type": "uint256"
        }
      ],
      "stateMutability": "view",
      "type": "function"
    },
    {
      "inputs": [
        {
          "internalType": "uint256",
          "name": "tokenId",
          "type": "uint256"
        }
      ],
      "name": "burn",
      "outputs": [],
      "stateMutability": "nonpayable",
      "type": "function"
    },
    {
      "inputs": [
        {
          "internalType": "uint256",
          "name": "tokenId",
          "type": "uint256"
        }
      ],
      "name": "getApproved",
      "outputs": [
        {
          "internalType": "address",
          "name": "",
          "type": "address"
        }
      ],
      "stateMutability": "view",
      "type": "function"
    },
    {
      "inputs": [
        {
          "internalType": "bytes32",
          "name": "role",
          "type": "bytes32"
        }
      ],
      "name": "getRoleAdmin",
      "outputs": [
        {
          "internalType": "bytes32",
          "name": "",
          "type": "bytes32"
        }
      ],
      "stateMutability": "view",
      "type": "function"
    },
    {
      "inputs": [
        {
          "internalType": "bytes32",
          "name": "role",
          "type": "bytes32"
        },
        {
          "internalType": "address",
          "name": "account",
          "type": "address"
        }
      ],
      "name": "grantRole",
      "outputs": [],
      "stateMutability": "nonpayable",
      "type": "function"
    },
    {
      "inputs": [
        {
          "internalType": "bytes32",
          "name": "role",
          "type": "bytes32"
        },
        {
          "internalType": "address",
          "name": "account",
          "type": "address"
        }
      ],
      "name": "hasRole",
      "outputs": [
        {
          "internalType": "bool",
          "name": "",
          "type": "bool"
        }
      ],
      "stateMutability": "view",
      "type": "function"
    },
    {
      "inputs": [
        {
          "internalType": "address",
          "name": "owner",
          "type": "address"
        },
        {
          "internalType": "address",
          "name": "operator",
          "type": "address"
        }
      ],
      "name": "isApprovedForAll",
      "outputs": [
        {
          "internalType": "bool",
          "name": "",
          "type": "bool"
        }
      ],
      "stateMutability": "view",
      "type": "function"
    },
    {
      "inputs": [],
      "name": "maxSupply",
      "outputs": [
        {
          "internalType": "uint256",
          "name": "",
          "type": "uint256"
        }
      ],
      "stateMutability": "view",
      "type": "function"
    },
    {
      "inputs": [],
      "name": "name",
      "outputs": [
        {
          "internalType": "string",
          "name": "",
          "type": "string"
        }
      ],
      "stateMutability": "view",
      "type": "function"
    },
    {
      "inputs": [
        {
          "internalType": "uint256",
          "name": "tokenId",
          "type": "uint256"
        }
      ],
      "name": "ownerOf",
      "outputs": [
        {
          "internalType": "address",
          "name": "",
          "type": "address"
        }
      ],
      "stateMutability": "view",
      "type": "function"
    },
    {
      "inputs": [
        {
          "internalType": "bytes32",
          "name": "role",
          "type": "bytes32"
        },
        {
          "internalType": "address",
          "name": "account",
          "type": "address"
        }
      ],
      "name": "renounceRole",
      "outputs": [],
      "stateMutability": "nonpayable",
      "type": "function"
    },
    {
      "inputs": [
        {
          "internalType": "bytes32",
          "name": "role",
          "type": "bytes32"
        },
        {
          "internalType": "address",
          "name": "account",
          "type": "address"
        }
      ],
      "name": "revokeRole",
      "outputs": [],
      "stateMutability": "nonpayable",
      "type": "function"
    },
    {
      "inputs": [
        {
          "internalType": "uint256",
          "name": "_tokenId",
          "type": "uint256"
        },
        {
          "internalType": "uint256",
          "name": "_salePrice",
          "type": "uint256"
        }
      ],
      "name": "royaltyInfo",
      "outputs": [
        {
          "internalType": "address",
          "name": "",
          "type": "address"
        },
        {
          "internalType": "uint256",
          "name": "",
          "type": "uint256"
        }
      ],
      "stateMutability": "view",
      "type": "function"
    },
    {
      "inputs": [
        {
          "internalType": "address",
          "name": "to",
          "type": "address"
        },
        {
          "internalType": "string",
          "name": "uri",
          "type": "string"
        }
      ],
      "name": "safeMint",
      "outputs": [],
      "stateMutability": "nonpayable",
      "type": "function"
    },
    {
      "inputs": [
        {
          "internalType": "address",
          "name": "from",
          "type": "address"
        },
        {
          "internalType": "address",
          "name": "to",
          "type": "address"
        },
        {
          "internalType": "uint256",
          "name": "tokenId",
          "type": "uint256"
        }
      ],
      "name": "safeTransferFrom",
      "outputs": [],
      "stateMutability": "nonpayable",
      "type": "function"
    },
    {
      "inputs": [
        {
          "internalType": "address",
          "name": "from",
          "type": "address"
        },
        {
          "internalType": "address",
          "name": "to",
          "type": "address"
        },
        {
          "internalType": "uint256",
          "name": "tokenId",
          "type": "uint256"
        },
        {
          "internalType": "bytes",
          "name": "_data",
          "type": "bytes"
        }
      ],
      "name": "safeTransferFrom",
      "outputs": [],
      "stateMutability": "nonpayable",
      "type": "function"
    },
    {
      "inputs": [
        {
          "internalType": "address",
          "name": "operator",
          "type": "address"
        },
        {
          "internalType": "bool",
          "name": "approved",
          "type": "bool"
        }
      ],
      "name": "setApprovalForAll",
      "outputs": [],
      "stateMutability": "nonpayable",
      "type": "function"
    },
    {
      "inputs": [
        {
          "internalType": "bytes4",
          "name": "interfaceId",
          "type": "bytes4"
        }
      ],
      "name": "supportsInterface",
      "outputs": [
        {
          "internalType": "bool",
          "name": "",
          "type": "bool"
        }
      ],
      "stateMutability": "view",
      "type": "function"
    },
    {
      "inputs": [],
      "name": "symbol",
      "outputs": [
        {
          "internalType": "string",
          "name": "",
          "type": "string"
        }
      ],
      "stateMutability": "view",
      "type": "function"
    },
    {
      "inputs": [
        {
          "internalType": "uint256",
          "name": "index",
          "type": "uint256"
        }
      ],
      "name": "tokenByIndex",
      "outputs": [
        {
          "internalType": "uint256",
          "name": "",
          "type": "uint256"
        }
      ],
      "stateMutability": "view",
      "type": "function"
    },
    {
      "inputs": [
        {
          "internalType": "address",
          "name": "owner",
          "type": "address"
        },
        {
          "internalType": "uint256",
          "name": "index",
          "type": "uint256"
        }
      ],
      "name": "tokenOfOwnerByIndex",
      "outputs": [
        {
          "internalType": "uint256",
          "name": "",
          "type": "uint256"
        }
      ],
      "stateMutability": "view",
      "type": "function"
    },
    {
      "inputs": [
        {
          "internalType": "uint256",
          "name": "tokenId",
          "type": "uint256"
        }
      ],
      "name": "tokenURI",
      "outputs": [
        {
          "internalType": "string",
          "name": "",
          "type": "string"
        }
      ],
      "stateMutability": "view",
      "type": "function"
    },
    {
      "inputs": [],
      "name": "totalSupply",
      "outputs": [
        {
          "internalType": "uint256",
          "name": "",
          "type": "uint256"
        }
      ],
      "stateMutability": "view",
      "type": "function"
    },
    {
      "inputs": [
        {
          "internalType": "address",
          "name": "from",
          "type": "address"
        },
        {
          "internalType": "address",
          "name": "to",
          "type": "address"
        },
        {
          "internalType": "uint256",
          "name": "tokenId",
          "type": "uint256"
        }
      ],
      "name": "transferFrom",
      "outputs": [],
      "stateMutability": "nonpayable",
      "type": "function"
    }
  ],
  "bytecode": "0x60806040523480156200001157600080fd5b506040518060400160405280600c81526020017f42616e54686542616e4e465400000000000000000000000000000000000000008152506040518060400160405280600381526020017f42544200000000000000000000000000000000000000000000000000000000008152508160029080519060200190620000969291906200029e565b508060039080519060200190620000af9291906200029e565b505050620000c76000801b336200013960201b60201c565b620000f97f3c11d16cbaffd01df69ce1c404f6340ee057498f5f00246190ea54220576a848336200013960201b60201c565b6200012b7f64c822f54690a8774ef976b9a7e80771b0eeffb7d8d6af78555e2903c7c9a56a336200013960201b60201c565b6064600e81905550620003b3565b6200014b82826200022b60201b60201c565b62000227576001600d600084815260200190815260200160002060000160008373ffffffffffffffffffffffffffffffffffffffff1673ffffffffffffffffffffffffffffffffffffffff16815260200190815260200160002060006101000a81548160ff021916908315150217905550620001cc6200029660201b60201c565b73ffffffffffffffffffffffffffffffffffffffff168173ffffffffffffffffffffffffffffffffffffffff16837f2f8788117e7eff1d82e926ec794901d17c78024a50270940304540a733656f0d60405160405180910390a45b5050565b6000600d600084815260200190815260200160002060000160008373ffffffffffffffffffffffffffffffffffffffff1673ffffffffffffffffffffffffffffffffffffffff16815260200190815260200160002060009054906101000a900460ff16905092915050565b600033905090565b828054620002ac906200037d565b90600052602060002090601f016020900481019282620002d057600085556200031c565b82601f10620002eb57805160ff19168380011785556200031c565b828001600101855582156200031c579182015b828111156200031b578251825591602001919060010190620002fe565b5b5090506200032b91906200032f565b5090565b5b808211156200034a57600081600090555060010162000330565b5090565b7f4e487b7100000000000000000000000000000000000000000000000000000000600052602260045260246000fd5b600060028204905060018216806200039657607f821691505b60208210811415620003ad57620003ac6200034e565b5b50919050565b614a0d80620003c36000396000f3fe608060405234801561001057600080fd5b50600436106101cf5760003560e01c80634f6ccce711610104578063a22cb465116100a2578063d547741f11610071578063d547741f14610565578063d5abeb0114610581578063e30de15e1461059f578063e985e9c5146105bb576101cf565b8063a22cb465146104e1578063b88d4fde146104fd578063c87b56dd14610519578063d204c45e14610549576101cf565b806370a08231116100de57806370a082311461044557806391d148541461047557806395d89b41146104a5578063a217fddf146104c3576101cf565b80634f6ccce7146103c75780636352211e146103f75780636c19291f14610427576101cf565b8063282c51f3116101715780632f745c591161014b5780632f745c591461034357806336568abe1461037357806342842e0e1461038f57806342966c68146103ab576101cf565b8063282c51f3146102d85780632a55205a146102f65780632f2ff15d14610327576101cf565b8063095ea7b3116101ad578063095ea7b31461025257806318160ddd1461026e57806323b872dd1461028c578063248a9ca3146102a8576101cf565b806301ffc9a7146101d457806306fdde0314610204578063081812fc14610222575b600080fd5b6101ee60048036038101906101e99190613194565b6105eb565b6040516101fb91906131dc565b60405180910390f35b61020c6105fd565b6040516102199190613290565b60405180910390f35b61023c600480360381019061023791906132e8565b61068f565b6040516102499190613356565b60405180910390f35b61026c6004803603810190610267919061339d565b610714565b005b61027661082c565b60405161028391906133ec565b60405180910390f35b6102a660048036038101906102a19190613407565b610839565b005b6102c260048036038101906102bd9190613490565b610899565b6040516102cf91906134cc565b60405180910390f35b6102e06108b9565b6040516102ed91906134cc565b60405180910390f35b610310600480360381019061030b91906134e7565b6108dd565b60405161031e929190613527565b60405180910390f35b610341600480360381019061033c9190613550565b610ac8565b005b61035d6004803603810190610358919061339d565b610af1565b60405161036a91906133ec565b60405180910390f35b61038d60048036038101906103889190613550565b610b96565b005b6103a960048036038101906103a49190613407565b610c19565b005b6103c560048036038101906103c091906132e8565b610c39565b005b6103e160048036038101906103dc91906132e8565b610c8d565b6040516103ee91906133ec565b60405180910390f35b610411600480360381019061040c91906132e8565b610cfe565b60405161041e9190613356565b60405180910390f35b61042f610db0565b60405161043c91906134cc565b60405180910390f35b61045f600480360381019061045a9190613590565b610dd4565b60405161046c91906133ec565b60405180910390f35b61048f600480360381019061048a9190613550565b610e8c565b60405161049c91906131dc565b60405180910390f35b6104ad610ef7565b6040516104ba9190613290565b60405180910390f35b6104cb610f89565b6040516104d891906134cc565b60405180910390f35b6104fb60048036038101906104f691906135e9565b610f90565b005b6105176004803603810190610512919061375e565b610fa6565b005b610533600480360381019061052e91906132e8565b611008565b6040516105409190613290565b60405180910390f35b610563600480360381019061055e9190613882565b61101a565b005b61057f600480360381019061057a9190613550565b6110db565b005b610589611104565b60405161059691906133ec565b60405180910390f35b6105b960048036038101906105b491906132e8565b61110a565b005b6105d560048036038101906105d091906138de565b611193565b6040516105e291906131dc565b60405180910390f35b60006105f682611227565b9050919050565b60606002805461060c9061394d565b80601f01602080910402602001604051908101604052809291908181526020018280546106389061394d565b80156106855780601f1061065a57610100808354040283529160200191610685565b820191906000526020600020905b81548152906001019060200180831161066857829003601f168201915b5050505050905090565b600061069a826112a1565b6106d9576040517f08c379a00000000000000000000000000000000000000000000000000000000081526004016106d0906139f1565b60405180910390fd5b6006600083815260200190815260200160002060009054906101000a900473ffffffffffffffffffffffffffffffffffffffff169050919050565b600061071f82610cfe565b90508073ffffffffffffffffffffffffffffffffffffffff168373ffffffffffffffffffffffffffffffffffffffff161415610790576040517f08c379a000000000000000000000000000000000000000000000000000000000815260040161078790613a83565b60405180910390fd5b8073ffffffffffffffffffffffffffffffffffffffff166107af61130d565b73ffffffffffffffffffffffffffffffffffffffff1614806107de57506107dd816107d861130d565b611193565b5b61081d576040517f08c379a000000000000000000000000000000000000000000000000000000000815260040161081490613b15565b60405180910390fd5b6108278383611315565b505050565b6000600a80549050905090565b61084a61084461130d565b826113ce565b610889576040517f08c379a000000000000000000000000000000000000000000000000000000000815260040161088090613ba7565b60405180910390fd5b6108948383836114ac565b505050565b6000600d6000838152602001908152602001600020600101549050919050565b7f3c11d16cbaffd01df69ce1c404f6340ee057498f5f00246190ea54220576a84881565b6000806000600160008681526020019081526020016000206040518060400160405290816000820160009054906101000a900473ffffffffffffffffffffffffffffffffffffffff1673ffffffffffffffffffffffffffffffffffffffff1673ffffffffffffffffffffffffffffffffffffffff1681526020016000820160149054906101000a90046bffffffffffffffffffffffff166bffffffffffffffffffffffff166bffffffffffffffffffffffff16815250509050600073ffffffffffffffffffffffffffffffffffffffff16816000015173ffffffffffffffffffffffffffffffffffffffff161415610a735760006040518060400160405290816000820160009054906101000a900473ffffffffffffffffffffffffffffffffffffffff1673ffffffffffffffffffffffffffffffffffffffff1673ffffffffffffffffffffffffffffffffffffffff1681526020016000820160149054906101000a90046bffffffffffffffffffffffff166bffffffffffffffffffffffff166bffffffffffffffffffffffff168152505090505b6000610a7d611713565b6bffffffffffffffffffffffff1682602001516bffffffffffffffffffffffff1686610aa99190613bf6565b610ab39190613c7f565b90508160000151819350935050509250929050565b610ad182610899565b610ae281610add61130d565b61171d565b610aec83836117ba565b505050565b6000610afc83610dd4565b8210610b3d576040517f08c379a0000000000000000000000000000000000000000000000000000000008152600401610b3490613d22565b60405180910390fd5b600860008473ffffffffffffffffffffffffffffffffffffffff1673ffffffffffffffffffffffffffffffffffffffff168152602001908152602001600020600083815260200190815260200160002054905092915050565b610b9e61130d565b73ffffffffffffffffffffffffffffffffffffffff168173ffffffffffffffffffffffffffffffffffffffff1614610c0b576040517f08c379a0000000000000000000000000000000000000000000000000000000008152600401610c0290613db4565b60405180910390fd5b610c15828261189b565b5050565b610c3483838360405180602001604052806000815250610fa6565b505050565b7f3c11d16cbaffd01df69ce1c404f6340ee057498f5f00246190ea54220576a848610c6b81610c6661130d565b61171d565b610c748261197d565b610c8882601061198990919063ffffffff16565b505050565b6000610c9761082c565b8210610cd8576040517f08c379a0000000000000000000000000000000000000000000000000000000008152600401610ccf90613e46565b60405180910390fd5b600a8281548110610cec57610ceb613e66565b5b90600052602060002001549050919050565b6000806004600084815260200190815260200160002060009054906101000a900473ffffffffffffffffffffffffffffffffffffffff169050600073ffffffffffffffffffffffffffffffffffffffff168173ffffffffffffffffffffffffffffffffffffffff161415610da7576040517f08c379a0000000000000000000000000000000000000000000000000000000008152600401610d9e90613f07565b60405180910390fd5b80915050919050565b7f64c822f54690a8774ef976b9a7e80771b0eeffb7d8d6af78555e2903c7c9a56a81565b60008073ffffffffffffffffffffffffffffffffffffffff168273ffffffffffffffffffffffffffffffffffffffff161415610e45576040517f08c379a0000000000000000000000000000000000000000000000000000000008152600401610e3c90613f99565b60405180910390fd5b600560008373ffffffffffffffffffffffffffffffffffffffff1673ffffffffffffffffffffffffffffffffffffffff168152602001908152602001600020549050919050565b6000600d600084815260200190815260200160002060000160008373ffffffffffffffffffffffffffffffffffffffff1673ffffffffffffffffffffffffffffffffffffffff16815260200190815260200160002060009054906101000a900460ff16905092915050565b606060038054610f069061394d565b80601f0160208091040260200160405190810160405280929190818152602001828054610f329061394d565b8015610f7f5780601f10610f5457610100808354040283529160200191610f7f565b820191906000526020600020905b815481529060010190602001808311610f6257829003601f168201915b5050505050905090565b6000801b81565b610fa2610f9b61130d565b83836119a3565b5050565b610fb7610fb161130d565b836113ce565b610ff6576040517f08c379a0000000000000000000000000000000000000000000000000000000008152600401610fed90613ba7565b60405180910390fd5b61100284848484611b10565b50505050565b606061101382611b6c565b9050919050565b6000806110276010611cbe565b111561105e5761104260006010611cd390919063ffffffff16565b9050611058816010611ced90919063ffffffff16565b506110c2565b600e5461106b600f611d07565b106110ab576040517f08c379a00000000000000000000000000000000000000000000000000000000081526004016110a290614005565b60405180910390fd5b6110b5600f611d07565b90506110c1600f611d15565b5b6110cc8382611d2b565b6110d68183611d49565b505050565b6110e482610899565b6110f5816110f061130d565b61171d565b6110ff838361189b565b505050565b600e5481565b7f64c822f54690a8774ef976b9a7e80771b0eeffb7d8d6af78555e2903c7c9a56a61113c8161113761130d565b61171d565b611146600f611d07565b821015611188576040517f08c379a000000000000000000000000000000000000000000000000000000000815260040161117f90614097565b60405180910390fd5b81600e819055505050565b6000600760008473ffffffffffffffffffffffffffffffffffffffff1673ffffffffffffffffffffffffffffffffffffffff16815260200190815260200160002060008373ffffffffffffffffffffffffffffffffffffffff1673ffffffffffffffffffffffffffffffffffffffff16815260200190815260200160002060009054906101000a900460ff16905092915050565b60007f7965db0b000000000000000000000000000000000000000000000000000000007bffffffffffffffffffffffffffffffffffffffffffffffffffffffff1916827bffffffffffffffffffffffffffffffffffffffffffffffffffffffff1916148061129a575061129982611dbd565b5b9050919050565b60008073ffffffffffffffffffffffffffffffffffffffff166004600084815260200190815260200160002060009054906101000a900473ffffffffffffffffffffffffffffffffffffffff1673ffffffffffffffffffffffffffffffffffffffff1614159050919050565b600033905090565b816006600083815260200190815260200160002060006101000a81548173ffffffffffffffffffffffffffffffffffffffff021916908373ffffffffffffffffffffffffffffffffffffffff160217905550808273ffffffffffffffffffffffffffffffffffffffff1661138883610cfe565b73ffffffffffffffffffffffffffffffffffffffff167f8c5be1e5ebec7d5bd14f71427d1e84f3dd0314c0f7b2291e5b200ac8c7c3b92560405160405180910390a45050565b60006113d9826112a1565b611418576040517f08c379a000000000000000000000000000000000000000000000000000000000815260040161140f90614129565b60405180910390fd5b600061142383610cfe565b90508073ffffffffffffffffffffffffffffffffffffffff168473ffffffffffffffffffffffffffffffffffffffff16148061149257508373ffffffffffffffffffffffffffffffffffffffff1661147a8461068f565b73ffffffffffffffffffffffffffffffffffffffff16145b806114a357506114a28185611193565b5b91505092915050565b8273ffffffffffffffffffffffffffffffffffffffff166114cc82610cfe565b73ffffffffffffffffffffffffffffffffffffffff1614611522576040517f08c379a0000000000000000000000000000000000000000000000000000000008152600401611519906141bb565b60405180910390fd5b600073ffffffffffffffffffffffffffffffffffffffff168273ffffffffffffffffffffffffffffffffffffffff161415611592576040517f08c379a00000000000000000000000000000000000000000000000000000000081526004016115899061424d565b60405180910390fd5b61159d838383611dcf565b6115a8600082611315565b6001600560008573ffffffffffffffffffffffffffffffffffffffff1673ffffffffffffffffffffffffffffffffffffffff16815260200190815260200160002060008282546115f8919061426d565b925050819055506001600560008473ffffffffffffffffffffffffffffffffffffffff1673ffffffffffffffffffffffffffffffffffffffff168152602001908152602001600020600082825461164f91906142a1565b92505081905550816004600083815260200190815260200160002060006101000a81548173ffffffffffffffffffffffffffffffffffffffff021916908373ffffffffffffffffffffffffffffffffffffffff160217905550808273ffffffffffffffffffffffffffffffffffffffff168473ffffffffffffffffffffffffffffffffffffffff167fddf252ad1be2c89b69c2b068fc378daa952ba7f163c4a11628f55a4df523b3ef60405160405180910390a461170e838383611ddf565b505050565b6000612710905090565b6117278282610e8c565b6117b65761174c8173ffffffffffffffffffffffffffffffffffffffff166014611de4565b61175a8360001c6020611de4565b60405160200161176b9291906143cb565b6040516020818303038152906040526040517f08c379a00000000000000000000000000000000000000000000000000000000081526004016117ad9190613290565b60405180910390fd5b5050565b6117c48282610e8c565b611897576001600d600084815260200190815260200160002060000160008373ffffffffffffffffffffffffffffffffffffffff1673ffffffffffffffffffffffffffffffffffffffff16815260200190815260200160002060006101000a81548160ff02191690831515021790555061183c61130d565b73ffffffffffffffffffffffffffffffffffffffff168173ffffffffffffffffffffffffffffffffffffffff16837f2f8788117e7eff1d82e926ec794901d17c78024a50270940304540a733656f0d60405160405180910390a45b5050565b6118a58282610e8c565b15611979576000600d600084815260200190815260200160002060000160008373ffffffffffffffffffffffffffffffffffffffff1673ffffffffffffffffffffffffffffffffffffffff16815260200190815260200160002060006101000a81548160ff02191690831515021790555061191e61130d565b73ffffffffffffffffffffffffffffffffffffffff168173ffffffffffffffffffffffffffffffffffffffff16837ff6391f5c32d9c69d2a47ea670b442974b53935d1edc7fd64eb21e047a839171b60405160405180910390a45b5050565b61198681612020565b50565b600061199b836000018360001b612035565b905092915050565b8173ffffffffffffffffffffffffffffffffffffffff168373ffffffffffffffffffffffffffffffffffffffff161415611a12576040517f08c379a0000000000000000000000000000000000000000000000000000000008152600401611a0990614451565b60405180910390fd5b80600760008573ffffffffffffffffffffffffffffffffffffffff1673ffffffffffffffffffffffffffffffffffffffff16815260200190815260200160002060008473ffffffffffffffffffffffffffffffffffffffff1673ffffffffffffffffffffffffffffffffffffffff16815260200190815260200160002060006101000a81548160ff0219169083151502179055508173ffffffffffffffffffffffffffffffffffffffff168373ffffffffffffffffffffffffffffffffffffffff167f17307eab39ab6107e8899845ad3d59bd9653f200f220920489ca2b5937696c3183604051611b0391906131dc565b60405180910390a3505050565b611b1b8484846114ac565b611b27848484846120a5565b611b66576040517f08c379a0000000000000000000000000000000000000000000000000000000008152600401611b5d906144e3565b60405180910390fd5b50505050565b6060611b77826112a1565b611bb6576040517f08c379a0000000000000000000000000000000000000000000000000000000008152600401611bad90614575565b60405180910390fd5b6000600c60008481526020019081526020016000208054611bd69061394d565b80601f0160208091040260200160405190810160405280929190818152602001828054611c029061394d565b8015611c4f5780601f10611c2457610100808354040283529160200191611c4f565b820191906000526020600020905b815481529060010190602001808311611c3257829003601f168201915b505050505090506000611c6061222d565b9050600081511415611c76578192505050611cb9565b600082511115611cab578082604051602001611c93929190614595565b60405160208183030381529060405292505050611cb9565b611cb484612244565b925050505b919050565b6000611ccc826000016122eb565b9050919050565b6000611ce283600001836122fc565b60001c905092915050565b6000611cff836000018360001b612327565b905092915050565b600081600001549050919050565b6001816000016000828254019250508190555050565b611d4582826040518060200160405280600081525061243b565b5050565b611d52826112a1565b611d91576040517f08c379a0000000000000000000000000000000000000000000000000000000008152600401611d889061462b565b60405180910390fd5b80600c60008481526020019081526020016000209080519060200190611db8929190613045565b505050565b6000611dc882612496565b9050919050565b611dda838383612510565b505050565b505050565b606060006002836002611df79190613bf6565b611e0191906142a1565b67ffffffffffffffff811115611e1a57611e19613633565b5b6040519080825280601f01601f191660200182016040528015611e4c5781602001600182028036833780820191505090505b5090507f300000000000000000000000000000000000000000000000000000000000000081600081518110611e8457611e83613e66565b5b60200101907effffffffffffffffffffffffffffffffffffffffffffffffffffffffffffff1916908160001a9053507f780000000000000000000000000000000000000000000000000000000000000081600181518110611ee857611ee7613e66565b5b60200101907effffffffffffffffffffffffffffffffffffffffffffffffffffffffffffff1916908160001a90535060006001846002611f289190613bf6565b611f3291906142a1565b90505b6001811115611fd2577f3031323334353637383961626364656600000000000000000000000000000000600f861660108110611f7457611f73613e66565b5b1a60f81b828281518110611f8b57611f8a613e66565b5b60200101907effffffffffffffffffffffffffffffffffffffffffffffffffffffffffffff1916908160001a905350600485901c945080611fcb9061464b565b9050611f35565b5060008414612016576040517f08c379a000000000000000000000000000000000000000000000000000000000815260040161200d906146c1565b60405180910390fd5b8091505092915050565b61202981612624565b61203281612677565b50565b600061204183836126d6565b61209a57826000018290806001815401808255809150506001900390600052602060002001600090919091909150558260000180549050836001016000848152602001908152602001600020819055506001905061209f565b600090505b92915050565b60006120c68473ffffffffffffffffffffffffffffffffffffffff166126f9565b15612220578373ffffffffffffffffffffffffffffffffffffffff1663150b7a026120ef61130d565b8786866040518563ffffffff1660e01b81526004016121119493929190614736565b6020604051808303816000875af192505050801561214d57506040513d601f19601f8201168201806040525081019061214a9190614797565b60015b6121d0573d806000811461217d576040519150601f19603f3d011682016040523d82523d6000602084013e612182565b606091505b506000815114156121c8576040517f08c379a00000000000000000000000000000000000000000000000000000000081526004016121bf906144e3565b60405180910390fd5b805181602001fd5b63150b7a0260e01b7bffffffffffffffffffffffffffffffffffffffffffffffffffffffff1916817bffffffffffffffffffffffffffffffffffffffffffffffffffffffff191614915050612225565b600190505b949350505050565b606060405180602001604052806000815250905090565b606061224f826112a1565b61228e576040517f08c379a000000000000000000000000000000000000000000000000000000000815260040161228590614836565b60405180910390fd5b600061229861222d565b905060008151116122b857604051806020016040528060008152506122e3565b806122c28461271c565b6040516020016122d3929190614595565b6040516020818303038152906040525b915050919050565b600081600001805490509050919050565b600082600001828154811061231457612313613e66565b5b9060005260206000200154905092915050565b6000808360010160008481526020019081526020016000205490506000811461242f576000600182612359919061426d565b9050600060018660000180549050612371919061426d565b90508181146123e057600086600001828154811061239257612391613e66565b5b90600052602060002001549050808760000184815481106123b6576123b5613e66565b5b90600052602060002001819055508387600101600083815260200190815260200160002081905550505b856000018054806123f4576123f3614856565b5b600190038181906000526020600020016000905590558560010160008681526020019081526020016000206000905560019350505050612435565b60009150505b92915050565b612445838361287d565b61245260008484846120a5565b612491576040517f08c379a0000000000000000000000000000000000000000000000000000000008152600401612488906144e3565b60405180910390fd5b505050565b60007f780e9d63000000000000000000000000000000000000000000000000000000007bffffffffffffffffffffffffffffffffffffffffffffffffffffffff1916827bffffffffffffffffffffffffffffffffffffffffffffffffffffffff19161480612509575061250882612a57565b5b9050919050565b61251b838383612b39565b600073ffffffffffffffffffffffffffffffffffffffff168373ffffffffffffffffffffffffffffffffffffffff16141561255e5761255981612b3e565b61259d565b8173ffffffffffffffffffffffffffffffffffffffff168373ffffffffffffffffffffffffffffffffffffffff161461259c5761259b8382612b87565b5b5b600073ffffffffffffffffffffffffffffffffffffffff168273ffffffffffffffffffffffffffffffffffffffff1614156125e0576125db81612cf4565b61261f565b8273ffffffffffffffffffffffffffffffffffffffff168273ffffffffffffffffffffffffffffffffffffffff161461261e5761261d8282612dc5565b5b5b505050565b61262d81612e44565b6000600c6000838152602001908152602001600020805461264d9061394d565b90501461267457600c6000828152602001908152602001600020600061267391906130cb565b5b50565b60016000828152602001908152602001600020600080820160006101000a81549073ffffffffffffffffffffffffffffffffffffffff02191690556000820160146101000a8154906bffffffffffffffffffffffff0219169055505050565b600080836001016000848152602001908152602001600020541415905092915050565b6000808273ffffffffffffffffffffffffffffffffffffffff163b119050919050565b60606000821415612764576040518060400160405280600181526020017f30000000000000000000000000000000000000000000000000000000000000008152509050612878565b600082905060005b6000821461279657808061277f90614885565b915050600a8261278f9190613c7f565b915061276c565b60008167ffffffffffffffff8111156127b2576127b1613633565b5b6040519080825280601f01601f1916602001820160405280156127e45781602001600182028036833780820191505090505b5090505b60008514612871576001826127fd919061426d565b9150600a8561280c91906148ce565b603061281891906142a1565b60f81b81838151811061282e5761282d613e66565b5b60200101907effffffffffffffffffffffffffffffffffffffffffffffffffffffffffffff1916908160001a905350600a8561286a9190613c7f565b94506127e8565b8093505050505b919050565b600073ffffffffffffffffffffffffffffffffffffffff168273ffffffffffffffffffffffffffffffffffffffff1614156128ed576040517f08c379a00000000000000000000000000000000000000000000000000000000081526004016128e49061494b565b60405180910390fd5b6128f6816112a1565b15612936576040517f08c379a000000000000000000000000000000000000000000000000000000000815260040161292d906149b7565b60405180910390fd5b61294260008383611dcf565b6001600560008473ffffffffffffffffffffffffffffffffffffffff1673ffffffffffffffffffffffffffffffffffffffff168152602001908152602001600020600082825461299291906142a1565b92505081905550816004600083815260200190815260200160002060006101000a81548173ffffffffffffffffffffffffffffffffffffffff021916908373ffffffffffffffffffffffffffffffffffffffff160217905550808273ffffffffffffffffffffffffffffffffffffffff16600073ffffffffffffffffffffffffffffffffffffffff167fddf252ad1be2c89b69c2b068fc378daa952ba7f163c4a11628f55a4df523b3ef60405160405180910390a4612a5360008383611ddf565b5050565b60007f80ac58cd000000000000000000000000000000000000000000000000000000007bffffffffffffffffffffffffffffffffffffffffffffffffffffffff1916827bffffffffffffffffffffffffffffffffffffffffffffffffffffffff19161480612b2257507f5b5e139f000000000000000000000000000000000000000000000000000000007bffffffffffffffffffffffffffffffffffffffffffffffffffffffff1916827bffffffffffffffffffffffffffffffffffffffffffffffffffffffff1916145b80612b325750612b3182612f61565b5b9050919050565b505050565b600a80549050600b600083815260200190815260200160002081905550600a81908060018154018082558091505060019003906000526020600020016000909190919091505550565b60006001612b9484610dd4565b612b9e919061426d565b9050600060096000848152602001908152602001600020549050818114612c83576000600860008673ffffffffffffffffffffffffffffffffffffffff1673ffffffffffffffffffffffffffffffffffffffff168152602001908152602001600020600084815260200190815260200160002054905080600860008773ffffffffffffffffffffffffffffffffffffffff1673ffffffffffffffffffffffffffffffffffffffff168152602001908152602001600020600084815260200190815260200160002081905550816009600083815260200190815260200160002081905550505b6009600084815260200190815260200160002060009055600860008573ffffffffffffffffffffffffffffffffffffffff1673ffffffffffffffffffffffffffffffffffffffff16815260200190815260200160002060008381526020019081526020016000206000905550505050565b60006001600a80549050612d08919061426d565b90506000600b60008481526020019081526020016000205490506000600a8381548110612d3857612d37613e66565b5b9060005260206000200154905080600a8381548110612d5a57612d59613e66565b5b906000526020600020018190555081600b600083815260200190815260200160002081905550600b600085815260200190815260200160002060009055600a805480612da957612da8614856565b5b6001900381819060005260206000200160009055905550505050565b6000612dd083610dd4565b905081600860008573ffffffffffffffffffffffffffffffffffffffff1673ffffffffffffffffffffffffffffffffffffffff168152602001908152602001600020600083815260200190815260200160002081905550806009600084815260200190815260200160002081905550505050565b6000612e4f82610cfe565b9050612e5d81600084611dcf565b612e68600083611315565b6001600560008373ffffffffffffffffffffffffffffffffffffffff1673ffffffffffffffffffffffffffffffffffffffff1681526020019081526020016000206000828254612eb8919061426d565b925050819055506004600083815260200190815260200160002060006101000a81549073ffffffffffffffffffffffffffffffffffffffff021916905581600073ffffffffffffffffffffffffffffffffffffffff168273ffffffffffffffffffffffffffffffffffffffff167fddf252ad1be2c89b69c2b068fc378daa952ba7f163c4a11628f55a4df523b3ef60405160405180910390a4612f5d81600084611ddf565b5050565b60007f2a55205a000000000000000000000000000000000000000000000000000000007bffffffffffffffffffffffffffffffffffffffffffffffffffffffff1916827bffffffffffffffffffffffffffffffffffffffffffffffffffffffff19161480612fd45750612fd382612fdb565b5b9050919050565b60007f01ffc9a7000000000000000000000000000000000000000000000000000000007bffffffffffffffffffffffffffffffffffffffffffffffffffffffff1916827bffffffffffffffffffffffffffffffffffffffffffffffffffffffff1916149050919050565b8280546130519061394d565b90600052602060002090601f01602090048101928261307357600085556130ba565b82601f1061308c57805160ff19168380011785556130ba565b828001600101855582156130ba579182015b828111156130b957825182559160200191906001019061309e565b5b5090506130c7919061310b565b5090565b5080546130d79061394d565b6000825580601f106130e95750613108565b601f016020900490600052602060002090810190613107919061310b565b5b50565b5b8082111561312457600081600090555060010161310c565b5090565b6000604051905090565b600080fd5b600080fd5b60007fffffffff0000000000000000000000000000000000000000000000000000000082169050919050565b6131718161313c565b811461317c57600080fd5b50565b60008135905061318e81613168565b92915050565b6000602082840312156131aa576131a9613132565b5b60006131b88482850161317f565b91505092915050565b60008115159050919050565b6131d6816131c1565b82525050565b60006020820190506131f160008301846131cd565b92915050565b600081519050919050565b600082825260208201905092915050565b60005b83811015613231578082015181840152602081019050613216565b83811115613240576000848401525b50505050565b6000601f19601f8301169050919050565b6000613262826131f7565b61326c8185613202565b935061327c818560208601613213565b61328581613246565b840191505092915050565b600060208201905081810360008301526132aa8184613257565b905092915050565b6000819050919050565b6132c5816132b2565b81146132d057600080fd5b50565b6000813590506132e2816132bc565b92915050565b6000602082840312156132fe576132fd613132565b5b600061330c848285016132d3565b91505092915050565b600073ffffffffffffffffffffffffffffffffffffffff82169050919050565b600061334082613315565b9050919050565b61335081613335565b82525050565b600060208201905061336b6000830184613347565b92915050565b61337a81613335565b811461338557600080fd5b50565b60008135905061339781613371565b92915050565b600080604083850312156133b4576133b3613132565b5b60006133c285828601613388565b92505060206133d3858286016132d3565b9150509250929050565b6133e6816132b2565b82525050565b600060208201905061340160008301846133dd565b92915050565b6000806000606084860312156134205761341f613132565b5b600061342e86828701613388565b935050602061343f86828701613388565b9250506040613450868287016132d3565b9150509250925092565b6000819050919050565b61346d8161345a565b811461347857600080fd5b50565b60008135905061348a81613464565b92915050565b6000602082840312156134a6576134a5613132565b5b60006134b48482850161347b565b91505092915050565b6134c68161345a565b82525050565b60006020820190506134e160008301846134bd565b92915050565b600080604083850312156134fe576134fd613132565b5b600061350c858286016132d3565b925050602061351d858286016132d3565b9150509250929050565b600060408201905061353c6000830185613347565b61354960208301846133dd565b9392505050565b6000806040838503121561356757613566613132565b5b60006135758582860161347b565b925050602061358685828601613388565b9150509250929050565b6000602082840312156135a6576135a5613132565b5b60006135b484828501613388565b91505092915050565b6135c6816131c1565b81146135d157600080fd5b50565b6000813590506135e3816135bd565b92915050565b60008060408385031215613600576135ff613132565b5b600061360e85828601613388565b925050602061361f858286016135d4565b9150509250929050565b600080fd5b600080fd5b7f4e487b7100000000000000000000000000000000000000000000000000000000600052604160045260246000fd5b61366b82613246565b810181811067ffffffffffffffff8211171561368a57613689613633565b5b80604052505050565b600061369d613128565b90506136a98282613662565b919050565b600067ffffffffffffffff8211156136c9576136c8613633565b5b6136d282613246565b9050602081019050919050565b82818337600083830152505050565b60006137016136fc846136ae565b613693565b90508281526020810184848401111561371d5761371c61362e565b5b6137288482856136df565b509392505050565b600082601f83011261374557613744613629565b5b81356137558482602086016136ee565b91505092915050565b6000806000806080858703121561377857613777613132565b5b600061378687828801613388565b945050602061379787828801613388565b93505060406137a8878288016132d3565b925050606085013567ffffffffffffffff8111156137c9576137c8613137565b5b6137d587828801613730565b91505092959194509250565b600067ffffffffffffffff8211156137fc576137fb613633565b5b61380582613246565b9050602081019050919050565b6000613825613820846137e1565b613693565b9050828152602081018484840111156138415761384061362e565b5b61384c8482856136df565b509392505050565b600082601f83011261386957613868613629565b5b8135613879848260208601613812565b91505092915050565b6000806040838503121561389957613898613132565b5b60006138a785828601613388565b925050602083013567ffffffffffffffff8111156138c8576138c7613137565b5b6138d485828601613854565b9150509250929050565b600080604083850312156138f5576138f4613132565b5b600061390385828601613388565b925050602061391485828601613388565b9150509250929050565b7f4e487b7100000000000000000000000000000000000000000000000000000000600052602260045260246000fd5b6000600282049050600182168061396557607f821691505b602082108114156139795761397861391e565b5b50919050565b7f4552433732313a20617070726f76656420717565727920666f72206e6f6e657860008201527f697374656e7420746f6b656e0000000000000000000000000000000000000000602082015250565b60006139db602c83613202565b91506139e68261397f565b604082019050919050565b60006020820190508181036000830152613a0a816139ce565b9050919050565b7f4552433732313a20617070726f76616c20746f2063757272656e74206f776e6560008201527f7200000000000000000000000000000000000000000000000000000000000000602082015250565b6000613a6d602183613202565b9150613a7882613a11565b604082019050919050565b60006020820190508181036000830152613a9c81613a60565b9050919050565b7f4552433732313a20617070726f76652063616c6c6572206973206e6f74206f7760008201527f6e6572206e6f7220617070726f76656420666f7220616c6c0000000000000000602082015250565b6000613aff603883613202565b9150613b0a82613aa3565b604082019050919050565b60006020820190508181036000830152613b2e81613af2565b9050919050565b7f4552433732313a207472616e736665722063616c6c6572206973206e6f74206f60008201527f776e6572206e6f7220617070726f766564000000000000000000000000000000602082015250565b6000613b91603183613202565b9150613b9c82613b35565b604082019050919050565b60006020820190508181036000830152613bc081613b84565b9050919050565b7f4e487b7100000000000000000000000000000000000000000000000000000000600052601160045260246000fd5b6000613c01826132b2565b9150613c0c836132b2565b9250817fffffffffffffffffffffffffffffffffffffffffffffffffffffffffffffffff0483118215151615613c4557613c44613bc7565b5b828202905092915050565b7f4e487b7100000000000000000000000000000000000000000000000000000000600052601260045260246000fd5b6000613c8a826132b2565b9150613c95836132b2565b925082613ca557613ca4613c50565b5b828204905092915050565b7f455243373231456e756d657261626c653a206f776e657220696e646578206f7560008201527f74206f6620626f756e6473000000000000000000000000000000000000000000602082015250565b6000613d0c602b83613202565b9150613d1782613cb0565b604082019050919050565b60006020820190508181036000830152613d3b81613cff565b9050919050565b7f416363657373436f6e74726f6c3a2063616e206f6e6c792072656e6f756e636560008201527f20726f6c657320666f722073656c660000000000000000000000000000000000602082015250565b6000613d9e602f83613202565b9150613da982613d42565b604082019050919050565b60006020820190508181036000830152613dcd81613d91565b9050919050565b7f455243373231456e756d657261626c653a20676c6f62616c20696e646578206f60008201527f7574206f6620626f756e64730000000000000000000000000000000000000000602082015250565b6000613e30602c83613202565b9150613e3b82613dd4565b604082019050919050565b60006020820190508181036000830152613e5f81613e23565b9050919050565b7f4e487b7100000000000000000000000000000000000000000000000000000000600052603260045260246000fd5b7f4552433732313a206f776e657220717565727920666f72206e6f6e657869737460008201527f656e7420746f6b656e0000000000000000000000000000000000000000000000602082015250565b6000613ef1602983613202565b9150613efc82613e95565b604082019050919050565b60006020820190508181036000830152613f2081613ee4565b9050919050565b7f4552433732313a2062616c616e636520717565727920666f7220746865207a6560008201527f726f206164647265737300000000000000000000000000000000000000000000602082015250565b6000613f83602a83613202565b9150613f8e82613f27565b604082019050919050565b60006020820190508181036000830152613fb281613f76565b9050919050565b7f6d6178537570706c792066696c6c656400000000000000000000000000000000600082015250565b6000613fef601083613202565b9150613ffa82613fb9565b602082019050919050565b6000602082019050818103600083015261401e81613fe2565b9050919050565b7f42616e54686542616e4e46543a20456e7465722061206e756d6265722067726560008201527f61746572207468616e2063757272656e7420737570706c792e00000000000000602082015250565b6000614081603983613202565b915061408c82614025565b604082019050919050565b600060208201905081810360008301526140b081614074565b9050919050565b7f4552433732313a206f70657261746f7220717565727920666f72206e6f6e657860008201527f697374656e7420746f6b656e0000000000000000000000000000000000000000602082015250565b6000614113602c83613202565b915061411e826140b7565b604082019050919050565b6000602082019050818103600083015261414281614106565b9050919050565b7f4552433732313a207472616e736665722066726f6d20696e636f72726563742060008201527f6f776e6572000000000000000000000000000000000000000000000000000000602082015250565b60006141a5602583613202565b91506141b082614149565b604082019050919050565b600060208201905081810360008301526141d481614198565b9050919050565b7f4552433732313a207472616e7366657220746f20746865207a65726f2061646460008201527f7265737300000000000000000000000000000000000000000000000000000000602082015250565b6000614237602483613202565b9150614242826141db565b604082019050919050565b600060208201905081810360008301526142668161422a565b9050919050565b6000614278826132b2565b9150614283836132b2565b92508282101561429657614295613bc7565b5b828203905092915050565b60006142ac826132b2565b91506142b7836132b2565b9250827fffffffffffffffffffffffffffffffffffffffffffffffffffffffffffffffff038211156142ec576142eb613bc7565b5b828201905092915050565b600081905092915050565b7f416363657373436f6e74726f6c3a206163636f756e7420000000000000000000600082015250565b60006143386017836142f7565b915061434382614302565b601782019050919050565b6000614359826131f7565b61436381856142f7565b9350614373818560208601613213565b80840191505092915050565b7f206973206d697373696e6720726f6c6520000000000000000000000000000000600082015250565b60006143b56011836142f7565b91506143c08261437f565b601182019050919050565b60006143d68261432b565b91506143e2828561434e565b91506143ed826143a8565b91506143f9828461434e565b91508190509392505050565b7f4552433732313a20617070726f766520746f2063616c6c657200000000000000600082015250565b600061443b601983613202565b915061444682614405565b602082019050919050565b6000602082019050818103600083015261446a8161442e565b9050919050565b7f4552433732313a207472616e7366657220746f206e6f6e20455243373231526560008201527f63656976657220696d706c656d656e7465720000000000000000000000000000602082015250565b60006144cd603283613202565b91506144d882614471565b604082019050919050565b600060208201905081810360008301526144fc816144c0565b9050919050565b7f45524337323155524953746f726167653a2055524920717565727920666f722060008201527f6e6f6e6578697374656e7420746f6b656e000000000000000000000000000000602082015250565b600061455f603183613202565b915061456a82614503565b604082019050919050565b6000602082019050818103600083015261458e81614552565b9050919050565b60006145a1828561434e565b91506145ad828461434e565b91508190509392505050565b7f45524337323155524953746f726167653a2055524920736574206f66206e6f6e60008201527f6578697374656e7420746f6b656e000000000000000000000000000000000000602082015250565b6000614615602e83613202565b9150614620826145b9565b604082019050919050565b6000602082019050818103600083015261464481614608565b9050919050565b6000614656826132b2565b9150600082141561466a57614669613bc7565b5b600182039050919050565b7f537472696e67733a20686578206c656e67746820696e73756666696369656e74600082015250565b60006146ab602083613202565b91506146b682614675565b602082019050919050565b600060208201905081810360008301526146da8161469e565b9050919050565b600081519050919050565b600082825260208201905092915050565b6000614708826146e1565b61471281856146ec565b9350614722818560208601613213565b61472b81613246565b840191505092915050565b600060808201905061474b6000830187613347565b6147586020830186613347565b61476560408301856133dd565b818103606083015261477781846146fd565b905095945050505050565b60008151905061479181613168565b92915050565b6000602082840312156147ad576147ac613132565b5b60006147bb84828501614782565b91505092915050565b7f4552433732314d657461646174613a2055524920717565727920666f72206e6f60008201527f6e6578697374656e7420746f6b656e0000000000000000000000000000000000602082015250565b6000614820602f83613202565b915061482b826147c4565b604082019050919050565b6000602082019050818103600083015261484f81614813565b9050919050565b7f4e487b7100000000000000000000000000000000000000000000000000000000600052603160045260246000fd5b6000614890826132b2565b91507fffffffffffffffffffffffffffffffffffffffffffffffffffffffffffffffff8214156148c3576148c2613bc7565b5b600182019050919050565b60006148d9826132b2565b91506148e4836132b2565b9250826148f4576148f3613c50565b5b828206905092915050565b7f4552433732313a206d696e7420746f20746865207a65726f2061646472657373600082015250565b6000614935602083613202565b9150614940826148ff565b602082019050919050565b6000602082019050818103600083015261496481614928565b9050919050565b7f4552433732313a20746f6b656e20616c7265616479206d696e74656400000000600082015250565b60006149a1601c83613202565b91506149ac8261496b565b602082019050919050565b600060208201905081810360008301526149d081614994565b905091905056fea26469706673582212209f2a0aeb822fe42bcc541b33f8037cbe59b7a1880788728d4372b694c6b4162064736f6c634300080b0033",
  "linkReferences": {},
  "deployedLinkReferences": {}
}