{
  "_format": "hh-sol-artifact-1",
  "contractName": "BanTheBanNFT",
  "sourceName": "contracts/BanTheBanNFT.sol",
  "abi": [
    {
      "inputs": [],
      "stateMutability": "nonpayable",
      "type": "constructor"
    },
    {
      "anonymous": false,
      "inputs": [
        {
          "indexed": true,
          "internalType": "address",
          "name": "owner",
          "type": "address"
        },
        {
          "indexed": true,
          "internalType": "address",
          "name": "approved",
          "type": "address"
        },
        {
          "indexed": true,
          "internalType": "uint256",
          "name": "tokenId",
          "type": "uint256"
        }
      ],
      "name": "Approval",
      "type": "event"
    },
    {
      "anonymous": false,
      "inputs": [
        {
          "indexed": true,
          "internalType": "address",
          "name": "owner",
          "type": "address"
        },
        {
          "indexed": true,
          "internalType": "address",
          "name": "operator",
          "type": "address"
        },
        {
          "indexed": false,
          "internalType": "bool",
          "name": "approved",
          "type": "bool"
        }
      ],
      "name": "ApprovalForAll",
      "type": "event"
    },
    {
      "anonymous": false,
      "inputs": [
        {
          "indexed": true,
          "internalType": "bytes32",
          "name": "role",
          "type": "bytes32"
        },
        {
          "indexed": true,
          "internalType": "bytes32",
          "name": "previousAdminRole",
          "type": "bytes32"
        },
        {
          "indexed": true,
          "internalType": "bytes32",
          "name": "newAdminRole",
          "type": "bytes32"
        }
      ],
      "name": "RoleAdminChanged",
      "type": "event"
    },
    {
      "anonymous": false,
      "inputs": [
        {
          "indexed": true,
          "internalType": "bytes32",
          "name": "role",
          "type": "bytes32"
        },
        {
          "indexed": true,
          "internalType": "address",
          "name": "account",
          "type": "address"
        },
        {
          "indexed": true,
          "internalType": "address",
          "name": "sender",
          "type": "address"
        }
      ],
      "name": "RoleGranted",
      "type": "event"
    },
    {
      "anonymous": false,
      "inputs": [
        {
          "indexed": true,
          "internalType": "bytes32",
          "name": "role",
          "type": "bytes32"
        },
        {
          "indexed": true,
          "internalType": "address",
          "name": "account",
          "type": "address"
        },
        {
          "indexed": true,
          "internalType": "address",
          "name": "sender",
          "type": "address"
        }
      ],
      "name": "RoleRevoked",
      "type": "event"
    },
    {
      "anonymous": false,
      "inputs": [
        {
          "indexed": true,
          "internalType": "address",
          "name": "from",
          "type": "address"
        },
        {
          "indexed": true,
          "internalType": "address",
          "name": "to",
          "type": "address"
        },
        {
          "indexed": true,
          "internalType": "uint256",
          "name": "tokenId",
          "type": "uint256"
        }
      ],
      "name": "Transfer",
      "type": "event"
    },
    {
      "inputs": [],
      "name": "BURNER_ROLE",
      "outputs": [
        {
          "internalType": "bytes32",
          "name": "",
          "type": "bytes32"
        }
      ],
      "stateMutability": "view",
      "type": "function"
    },
    {
      "inputs": [],
      "name": "DEFAULT_ADMIN_ROLE",
      "outputs": [
        {
          "internalType": "bytes32",
          "name": "",
          "type": "bytes32"
        }
      ],
      "stateMutability": "view",
      "type": "function"
    },
    {
      "inputs": [],
      "name": "SUPPLY_ACCESS",
      "outputs": [
        {
          "internalType": "bytes32",
          "name": "",
          "type": "bytes32"
        }
      ],
      "stateMutability": "view",
      "type": "function"
    },
    {
      "inputs": [
        {
          "internalType": "uint256",
          "name": "_maxSupply",
          "type": "uint256"
        }
      ],
      "name": "adjustMaxSupply",
      "outputs": [],
      "stateMutability": "nonpayable",
      "type": "function"
    },
    {
      "inputs": [
        {
          "internalType": "address",
          "name": "to",
          "type": "address"
        },
        {
          "internalType": "uint256",
          "name": "tokenId",
          "type": "uint256"
        }
      ],
      "name": "approve",
      "outputs": [],
      "stateMutability": "nonpayable",
      "type": "function"
    },
    {
      "inputs": [
        {
          "internalType": "address",
          "name": "owner",
          "type": "address"
        }
      ],
      "name": "balanceOf",
      "outputs": [
        {
          "internalType": "uint256",
          "name": "",
          "type": "uint256"
        }
      ],
      "stateMutability": "view",
      "type": "function"
    },
    {
      "inputs": [
        {
          "internalType": "uint256",
          "name": "tokenId",
          "type": "uint256"
        }
      ],
      "name": "burn",
      "outputs": [],
      "stateMutability": "nonpayable",
      "type": "function"
    },
    {
      "inputs": [
        {
          "internalType": "uint256",
          "name": "tokenId",
          "type": "uint256"
        }
      ],
      "name": "getApproved",
      "outputs": [
        {
          "internalType": "address",
          "name": "",
          "type": "address"
        }
      ],
      "stateMutability": "view",
      "type": "function"
    },
    {
      "inputs": [
        {
          "internalType": "bytes32",
          "name": "role",
          "type": "bytes32"
        }
      ],
      "name": "getRoleAdmin",
      "outputs": [
        {
          "internalType": "bytes32",
          "name": "",
          "type": "bytes32"
        }
      ],
      "stateMutability": "view",
      "type": "function"
    },
    {
      "inputs": [
        {
          "internalType": "bytes32",
          "name": "role",
          "type": "bytes32"
        },
        {
          "internalType": "address",
          "name": "account",
          "type": "address"
        }
      ],
      "name": "grantRole",
      "outputs": [],
      "stateMutability": "nonpayable",
      "type": "function"
    },
    {
      "inputs": [
        {
          "internalType": "bytes32",
          "name": "role",
          "type": "bytes32"
        },
        {
          "internalType": "address",
          "name": "account",
          "type": "address"
        }
      ],
      "name": "hasRole",
      "outputs": [
        {
          "internalType": "bool",
          "name": "",
          "type": "bool"
        }
      ],
      "stateMutability": "view",
      "type": "function"
    },
    {
      "inputs": [
        {
          "internalType": "address",
          "name": "owner",
          "type": "address"
        },
        {
          "internalType": "address",
          "name": "operator",
          "type": "address"
        }
      ],
      "name": "isApprovedForAll",
      "outputs": [
        {
          "internalType": "bool",
          "name": "",
          "type": "bool"
        }
      ],
      "stateMutability": "view",
      "type": "function"
    },
    {
      "inputs": [],
      "name": "maxSupply",
      "outputs": [
        {
          "internalType": "uint256",
          "name": "",
          "type": "uint256"
        }
      ],
      "stateMutability": "view",
      "type": "function"
    },
    {
      "inputs": [],
      "name": "name",
      "outputs": [
        {
          "internalType": "string",
          "name": "",
          "type": "string"
        }
      ],
      "stateMutability": "view",
      "type": "function"
    },
    {
      "inputs": [
        {
          "internalType": "uint256",
          "name": "tokenId",
          "type": "uint256"
        }
      ],
      "name": "ownerOf",
      "outputs": [
        {
          "internalType": "address",
          "name": "",
          "type": "address"
        }
      ],
      "stateMutability": "view",
      "type": "function"
    },
    {
      "inputs": [
        {
          "internalType": "bytes32",
          "name": "role",
          "type": "bytes32"
        },
        {
          "internalType": "address",
          "name": "account",
          "type": "address"
        }
      ],
      "name": "renounceRole",
      "outputs": [],
      "stateMutability": "nonpayable",
      "type": "function"
    },
    {
      "inputs": [
        {
          "internalType": "bytes32",
          "name": "role",
          "type": "bytes32"
        },
        {
          "internalType": "address",
          "name": "account",
          "type": "address"
        }
      ],
      "name": "revokeRole",
      "outputs": [],
      "stateMutability": "nonpayable",
      "type": "function"
    },
    {
      "inputs": [
        {
          "internalType": "uint256",
          "name": "_tokenId",
          "type": "uint256"
        },
        {
          "internalType": "uint256",
          "name": "_salePrice",
          "type": "uint256"
        }
      ],
      "name": "royaltyInfo",
      "outputs": [
        {
          "internalType": "address",
          "name": "",
          "type": "address"
        },
        {
          "internalType": "uint256",
          "name": "",
          "type": "uint256"
        }
      ],
      "stateMutability": "view",
      "type": "function"
    },
    {
      "inputs": [
        {
          "internalType": "address",
          "name": "to",
          "type": "address"
        },
        {
          "internalType": "string",
          "name": "uri",
          "type": "string"
        }
      ],
      "name": "safeMint",
      "outputs": [],
      "stateMutability": "nonpayable",
      "type": "function"
    },
    {
      "inputs": [
        {
          "internalType": "address",
          "name": "from",
          "type": "address"
        },
        {
          "internalType": "address",
          "name": "to",
          "type": "address"
        },
        {
          "internalType": "uint256",
          "name": "tokenId",
          "type": "uint256"
        }
      ],
      "name": "safeTransferFrom",
      "outputs": [],
      "stateMutability": "nonpayable",
      "type": "function"
    },
    {
      "inputs": [
        {
          "internalType": "address",
          "name": "from",
          "type": "address"
        },
        {
          "internalType": "address",
          "name": "to",
          "type": "address"
        },
        {
          "internalType": "uint256",
          "name": "tokenId",
          "type": "uint256"
        },
        {
          "internalType": "bytes",
          "name": "_data",
          "type": "bytes"
        }
      ],
      "name": "safeTransferFrom",
      "outputs": [],
      "stateMutability": "nonpayable",
      "type": "function"
    },
    {
      "inputs": [
        {
          "internalType": "address",
          "name": "operator",
          "type": "address"
        },
        {
          "internalType": "bool",
          "name": "approved",
          "type": "bool"
        }
      ],
      "name": "setApprovalForAll",
      "outputs": [],
      "stateMutability": "nonpayable",
      "type": "function"
    },
    {
      "inputs": [
        {
          "internalType": "bytes4",
          "name": "interfaceId",
          "type": "bytes4"
        }
      ],
      "name": "supportsInterface",
      "outputs": [
        {
          "internalType": "bool",
          "name": "",
          "type": "bool"
        }
      ],
      "stateMutability": "view",
      "type": "function"
    },
    {
      "inputs": [],
      "name": "symbol",
      "outputs": [
        {
          "internalType": "string",
          "name": "",
          "type": "string"
        }
      ],
      "stateMutability": "view",
      "type": "function"
    },
    {
      "inputs": [
        {
          "internalType": "uint256",
          "name": "index",
          "type": "uint256"
        }
      ],
      "name": "tokenByIndex",
      "outputs": [
        {
          "internalType": "uint256",
          "name": "",
          "type": "uint256"
        }
      ],
      "stateMutability": "view",
      "type": "function"
    },
    {
      "inputs": [
        {
          "internalType": "address",
          "name": "owner",
          "type": "address"
        },
        {
          "internalType": "uint256",
          "name": "index",
          "type": "uint256"
        }
      ],
      "name": "tokenOfOwnerByIndex",
      "outputs": [
        {
          "internalType": "uint256",
          "name": "",
          "type": "uint256"
        }
      ],
      "stateMutability": "view",
      "type": "function"
    },
    {
      "inputs": [
        {
          "internalType": "uint256",
          "name": "tokenId",
          "type": "uint256"
        }
      ],
      "name": "tokenURI",
      "outputs": [
        {
          "internalType": "string",
          "name": "",
          "type": "string"
        }
      ],
      "stateMutability": "view",
      "type": "function"
    },
    {
      "inputs": [],
      "name": "totalSupply",
      "outputs": [
        {
          "internalType": "uint256",
          "name": "",
          "type": "uint256"
        }
      ],
      "stateMutability": "view",
      "type": "function"
    },
    {
      "inputs": [
        {
          "internalType": "address",
          "name": "from",
          "type": "address"
        },
        {
          "internalType": "address",
          "name": "to",
          "type": "address"
        },
        {
          "internalType": "uint256",
          "name": "tokenId",
          "type": "uint256"
        }
      ],
      "name": "transferFrom",
      "outputs": [],
      "stateMutability": "nonpayable",
      "type": "function"
    }
  ],
  "bytecode": "0x60806040523480156200001157600080fd5b50604080518082018252600c81526b10985b951a1950985b93919560a21b602080830191825283518085019094526003845262212a2160e91b908401528151919291620000619160029162000191565b5080516200007790600390602084019062000191565b506200008991506000905033620000ec565b620000b57f3c11d16cbaffd01df69ce1c404f6340ee057498f5f00246190ea54220576a84833620000ec565b620000e17f64c822f54690a8774ef976b9a7e80771b0eeffb7d8d6af78555e2903c7c9a56a33620000ec565b6064600e5562000274565b6000828152600d602090815260408083206001600160a01b038516845290915290205460ff166200018d576000828152600d602090815260408083206001600160a01b03851684529091529020805460ff191660011790556200014c3390565b6001600160a01b0316816001600160a01b0316837f2f8788117e7eff1d82e926ec794901d17c78024a50270940304540a733656f0d60405160405180910390a45b5050565b8280546200019f9062000237565b90600052602060002090601f016020900481019282620001c357600085556200020e565b82601f10620001de57805160ff19168380011785556200020e565b828001600101855582156200020e579182015b828111156200020e578251825591602001919060010190620001f1565b506200021c92915062000220565b5090565b5b808211156200021c576000815560010162000221565b600181811c908216806200024c57607f821691505b602082108114156200026e57634e487b7160e01b600052602260045260246000fd5b50919050565b61274580620002846000396000f3fe608060405234801561001057600080fd5b50600436106101cf5760003560e01c80634f6ccce711610104578063a22cb465116100a2578063d547741f11610071578063d547741f14610420578063d5abeb0114610433578063e30de15e1461043c578063e985e9c51461044f57600080fd5b8063a22cb465146103d4578063b88d4fde146103e7578063c87b56dd146103fa578063d204c45e1461040d57600080fd5b806370a08231116100de57806370a082311461039e57806391d14854146103b157806395d89b41146103c4578063a217fddf146103cc57600080fd5b80634f6ccce7146103515780636352211e146103645780636c19291f1461037757600080fd5b8063282c51f3116101715780632f745c591161014b5780632f745c591461030557806336568abe1461031857806342842e0e1461032b57806342966c681461033e57600080fd5b8063282c51f3146102995780632a55205a146102c05780632f2ff15d146102f257600080fd5b8063095ea7b3116101ad578063095ea7b31461023c57806318160ddd1461025157806323b872dd14610263578063248a9ca31461027657600080fd5b806301ffc9a7146101d457806306fdde03146101fc578063081812fc14610211575b600080fd5b6101e76101e23660046120d7565b61048b565b60405190151581526020015b60405180910390f35b61020461049c565b6040516101f3919061214c565b61022461021f36600461215f565b61052e565b6040516001600160a01b0390911681526020016101f3565b61024f61024a366004612194565b6105bb565b005b600a545b6040519081526020016101f3565b61024f6102713660046121be565b6106d1565b61025561028436600461215f565b6000908152600d602052604090206001015490565b6102557f3c11d16cbaffd01df69ce1c404f6340ee057498f5f00246190ea54220576a84881565b6102d36102ce3660046121fa565b610702565b604080516001600160a01b0390931683526020830191909152016101f3565b61024f61030036600461221c565b6107ae565b610255610313366004612194565b6107d4565b61024f61032636600461221c565b61086a565b61024f6103393660046121be565b6108e8565b61024f61034c36600461215f565b610903565b61025561035f36600461215f565b610942565b61022461037236600461215f565b6109d5565b6102557f64c822f54690a8774ef976b9a7e80771b0eeffb7d8d6af78555e2903c7c9a56a81565b6102556103ac366004612248565b610a4c565b6101e76103bf36600461221c565b610ad3565b610204610afe565b610255600081565b61024f6103e2366004612263565b610b0d565b61024f6103f536600461232b565b610b18565b61020461040836600461215f565b610b50565b61024f61041b3660046123a7565b610b5b565b61024f61042e36600461221c565b610bf4565b610255600e5481565b61024f61044a36600461215f565b610c1a565b6101e761045d366004612409565b6001600160a01b03918216600090815260076020908152604080832093909416825291909152205460ff1690565b600061049682610cc3565b92915050565b6060600280546104ab90612433565b80601f01602080910402602001604051908101604052809291908181526020018280546104d790612433565b80156105245780601f106104f957610100808354040283529160200191610524565b820191906000526020600020905b81548152906001019060200180831161050757829003601f168201915b5050505050905090565b600061053982610ce8565b61059f5760405162461bcd60e51b815260206004820152602c60248201527f4552433732313a20617070726f76656420717565727920666f72206e6f6e657860448201526b34b9ba32b73a103a37b5b2b760a11b60648201526084015b60405180910390fd5b506000908152600660205260409020546001600160a01b031690565b60006105c6826109d5565b9050806001600160a01b0316836001600160a01b031614156106345760405162461bcd60e51b815260206004820152602160248201527f4552433732313a20617070726f76616c20746f2063757272656e74206f776e656044820152603960f91b6064820152608401610596565b336001600160a01b03821614806106505750610650813361045d565b6106c25760405162461bcd60e51b815260206004820152603860248201527f4552433732313a20617070726f76652063616c6c6572206973206e6f74206f7760448201527f6e6572206e6f7220617070726f76656420666f7220616c6c00000000000000006064820152608401610596565b6106cc8383610d05565b505050565b6106db3382610d73565b6106f75760405162461bcd60e51b81526004016105969061246e565b6106cc838383610e5d565b60008281526001602090815260408083208151808301909252546001600160a01b038116808352600160a01b9091046001600160601b03169282019290925282916107775750604080518082019091526000546001600160a01b0381168252600160a01b90046001600160601b031660208201525b602081015160009061271090610796906001600160601b0316876124d5565b6107a0919061250a565b915196919550909350505050565b6000828152600d60205260409020600101546107ca8133611004565b6106cc8383611068565b60006107df83610a4c565b82106108415760405162461bcd60e51b815260206004820152602b60248201527f455243373231456e756d657261626c653a206f776e657220696e646578206f7560448201526a74206f6620626f756e647360a81b6064820152608401610596565b506001600160a01b03919091166000908152600860209081526040808320938352929052205490565b6001600160a01b03811633146108da5760405162461bcd60e51b815260206004820152602f60248201527f416363657373436f6e74726f6c3a2063616e206f6e6c792072656e6f756e636560448201526e103937b632b9903337b91039b2b63360891b6064820152608401610596565b6108e482826110ee565b5050565b6106cc83838360405180602001604052806000815250610b18565b7f3c11d16cbaffd01df69ce1c404f6340ee057498f5f00246190ea54220576a84861092e8133611004565b61093782611155565b6106cc601083611161565b600061094d600a5490565b82106109b05760405162461bcd60e51b815260206004820152602c60248201527f455243373231456e756d657261626c653a20676c6f62616c20696e646578206f60448201526b7574206f6620626f756e647360a01b6064820152608401610596565b600a82815481106109c3576109c361251e565b90600052602060002001549050919050565b6000818152600460205260408120546001600160a01b0316806104965760405162461bcd60e51b815260206004820152602960248201527f4552433732313a206f776e657220717565727920666f72206e6f6e657869737460448201526832b73a103a37b5b2b760b91b6064820152608401610596565b60006001600160a01b038216610ab75760405162461bcd60e51b815260206004820152602a60248201527f4552433732313a2062616c616e636520717565727920666f7220746865207a65604482015269726f206164647265737360b01b6064820152608401610596565b506001600160a01b031660009081526005602052604090205490565b6000918252600d602090815260408084206001600160a01b0393909316845291905290205460ff1690565b6060600380546104ab90612433565b6108e4338383611174565b610b223383610d73565b610b3e5760405162461bcd60e51b81526004016105969061246e565b610b4a84848484611243565b50505050565b606061049682611276565b600080610b6860106113e5565b1115610b8d57610b7a601060006113ef565b9050610b876010826113fb565b50610be0565b600e54600f5410610bd35760405162461bcd60e51b815260206004820152601060248201526f1b585e14dd5c1c1b1e48199a5b1b195960821b6044820152606401610596565b50600f8054600181019091555b610bea8382611407565b6106cc8183611421565b6000828152600d6020526040902060010154610c108133611004565b6106cc83836110ee565b7f64c822f54690a8774ef976b9a7e80771b0eeffb7d8d6af78555e2903c7c9a56a610c458133611004565b600f54821015610cbd5760405162461bcd60e51b815260206004820152603960248201527f42616e54686542616e4e46543a20456e7465722061206e756d6265722067726560448201527f61746572207468616e2063757272656e7420737570706c792e000000000000006064820152608401610596565b50600e55565b60006001600160e01b03198216637965db0b60e01b14806104965750610496826114ac565b6000908152600460205260409020546001600160a01b0316151590565b600081815260066020526040902080546001600160a01b0319166001600160a01b0384169081179091558190610d3a826109d5565b6001600160a01b03167f8c5be1e5ebec7d5bd14f71427d1e84f3dd0314c0f7b2291e5b200ac8c7c3b92560405160405180910390a45050565b6000610d7e82610ce8565b610ddf5760405162461bcd60e51b815260206004820152602c60248201527f4552433732313a206f70657261746f7220717565727920666f72206e6f6e657860448201526b34b9ba32b73a103a37b5b2b760a11b6064820152608401610596565b6000610dea836109d5565b9050806001600160a01b0316846001600160a01b03161480610e255750836001600160a01b0316610e1a8461052e565b6001600160a01b0316145b80610e5557506001600160a01b0380821660009081526007602090815260408083209388168352929052205460ff165b949350505050565b826001600160a01b0316610e70826109d5565b6001600160a01b031614610ed45760405162461bcd60e51b815260206004820152602560248201527f4552433732313a207472616e736665722066726f6d20696e636f72726563742060448201526437bbb732b960d91b6064820152608401610596565b6001600160a01b038216610f365760405162461bcd60e51b8152602060048201526024808201527f4552433732313a207472616e7366657220746f20746865207a65726f206164646044820152637265737360e01b6064820152608401610596565b610f418383836114b7565b610f4c600082610d05565b6001600160a01b0383166000908152600560205260408120805460019290610f75908490612534565b90915550506001600160a01b0382166000908152600560205260408120805460019290610fa390849061254b565b909155505060008181526004602052604080822080546001600160a01b0319166001600160a01b0386811691821790925591518493918716917fddf252ad1be2c89b69c2b068fc378daa952ba7f163c4a11628f55a4df523b3ef91a4505050565b61100e8282610ad3565b6108e457611026816001600160a01b031660146114c2565b6110318360206114c2565b604051602001611042929190612563565b60408051601f198184030181529082905262461bcd60e51b82526105969160040161214c565b6110728282610ad3565b6108e4576000828152600d602090815260408083206001600160a01b03851684529091529020805460ff191660011790556110aa3390565b6001600160a01b0316816001600160a01b0316837f2f8788117e7eff1d82e926ec794901d17c78024a50270940304540a733656f0d60405160405180910390a45050565b6110f88282610ad3565b156108e4576000828152600d602090815260408083206001600160a01b0385168085529252808320805460ff1916905551339285917ff6391f5c32d9c69d2a47ea670b442974b53935d1edc7fd64eb21e047a839171b9190a45050565b61115e8161165e565b50565b600061116d8383611678565b9392505050565b816001600160a01b0316836001600160a01b031614156111d65760405162461bcd60e51b815260206004820152601960248201527f4552433732313a20617070726f766520746f2063616c6c6572000000000000006044820152606401610596565b6001600160a01b03838116600081815260076020908152604080832094871680845294825291829020805460ff191686151590811790915591519182527f17307eab39ab6107e8899845ad3d59bd9653f200f220920489ca2b5937696c31910160405180910390a3505050565b61124e848484610e5d565b61125a848484846116c7565b610b4a5760405162461bcd60e51b8152600401610596906125d8565b606061128182610ce8565b6112e75760405162461bcd60e51b815260206004820152603160248201527f45524337323155524953746f726167653a2055524920717565727920666f72206044820152703737b732bc34b9ba32b73a103a37b5b2b760791b6064820152608401610596565b6000828152600c60205260408120805461130090612433565b80601f016020809104026020016040519081016040528092919081815260200182805461132c90612433565b80156113795780601f1061134e57610100808354040283529160200191611379565b820191906000526020600020905b81548152906001019060200180831161135c57829003601f168201915b50505050509050600061139760408051602081019091526000815290565b90508051600014156113aa575092915050565b8151156113dc5780826040516020016113c492919061262a565b60405160208183030381529060405292505050919050565b610e55846117c5565b6000610496825490565b600061116d838361189c565b600061116d83836118c6565b6108e48282604051806020016040528060008152506119b9565b61142a82610ce8565b61148d5760405162461bcd60e51b815260206004820152602e60248201527f45524337323155524953746f726167653a2055524920736574206f66206e6f6e60448201526d32bc34b9ba32b73a103a37b5b2b760911b6064820152608401610596565b6000828152600c6020908152604090912082516106cc92840190611ff2565b6000610496826119ec565b6106cc838383611a11565b606060006114d18360026124d5565b6114dc90600261254b565b67ffffffffffffffff8111156114f4576114f461229f565b6040519080825280601f01601f19166020018201604052801561151e576020820181803683370190505b509050600360fc1b816000815181106115395761153961251e565b60200101906001600160f81b031916908160001a905350600f60fb1b816001815181106115685761156861251e565b60200101906001600160f81b031916908160001a905350600061158c8460026124d5565b61159790600161254b565b90505b600181111561160f576f181899199a1a9b1b9c1cb0b131b232b360811b85600f16601081106115cb576115cb61251e565b1a60f81b8282815181106115e1576115e161251e565b60200101906001600160f81b031916908160001a90535060049490941c9361160881612659565b905061159a565b50831561116d5760405162461bcd60e51b815260206004820181905260248201527f537472696e67733a20686578206c656e67746820696e73756666696369656e746044820152606401610596565b61166781611ac9565b600090815260016020526040812055565b60008181526001830160205260408120546116bf57508154600181810184556000848152602080822090930184905584548482528286019093526040902091909155610496565b506000610496565b60006001600160a01b0384163b156117ba57604051630a85bd0160e11b81526001600160a01b0385169063150b7a029061170b903390899088908890600401612670565b6020604051808303816000875af1925050508015611746575060408051601f3d908101601f19168201909252611743918101906126ad565b60015b6117a0573d808015611774576040519150601f19603f3d011682016040523d82523d6000602084013e611779565b606091505b5080516117985760405162461bcd60e51b8152600401610596906125d8565b805181602001fd5b6001600160e01b031916630a85bd0160e11b149050610e55565b506001949350505050565b60606117d082610ce8565b6118345760405162461bcd60e51b815260206004820152602f60248201527f4552433732314d657461646174613a2055524920717565727920666f72206e6f60448201526e3732bc34b9ba32b73a103a37b5b2b760891b6064820152608401610596565b600061184b60408051602081019091526000815290565b9050600081511161186b576040518060200160405280600081525061116d565b8061187584611b09565b60405160200161188692919061262a565b6040516020818303038152906040529392505050565b60008260000182815481106118b3576118b361251e565b9060005260206000200154905092915050565b600081815260018301602052604081205480156119af5760006118ea600183612534565b85549091506000906118fe90600190612534565b905081811461196357600086600001828154811061191e5761191e61251e565b90600052602060002001549050808760000184815481106119415761194161251e565b6000918252602080832090910192909255918252600188019052604090208390555b8554869080611974576119746126ca565b600190038181906000526020600020016000905590558560010160008681526020019081526020016000206000905560019350505050610496565b6000915050610496565b6119c38383611c07565b6119d060008484846116c7565b6106cc5760405162461bcd60e51b8152600401610596906125d8565b60006001600160e01b0319821663780e9d6360e01b1480610496575061049682611d46565b6001600160a01b038316611a6c57611a6781600a80546000838152600b60205260408120829055600182018355919091527fc65a7bb8d6351c1cf70c95a316cc6a92839c986682d98bc35f958f4883f9d2a80155565b611a8f565b816001600160a01b0316836001600160a01b031614611a8f57611a8f8382611d86565b6001600160a01b038216611aa6576106cc81611e23565b826001600160a01b0316826001600160a01b0316146106cc576106cc8282611ed2565b611ad281611f16565b6000818152600c602052604090208054611aeb90612433565b15905061115e576000818152600c6020526040812061115e91612076565b606081611b2d5750506040805180820190915260018152600360fc1b602082015290565b8160005b8115611b575780611b41816126e0565b9150611b509050600a8361250a565b9150611b31565b60008167ffffffffffffffff811115611b7257611b7261229f565b6040519080825280601f01601f191660200182016040528015611b9c576020820181803683370190505b5090505b8415610e5557611bb1600183612534565b9150611bbe600a866126fb565b611bc990603061254b565b60f81b818381518110611bde57611bde61251e565b60200101906001600160f81b031916908160001a905350611c00600a8661250a565b9450611ba0565b6001600160a01b038216611c5d5760405162461bcd60e51b815260206004820181905260248201527f4552433732313a206d696e7420746f20746865207a65726f20616464726573736044820152606401610596565b611c6681610ce8565b15611cb35760405162461bcd60e51b815260206004820152601c60248201527f4552433732313a20746f6b656e20616c7265616479206d696e746564000000006044820152606401610596565b611cbf600083836114b7565b6001600160a01b0382166000908152600560205260408120805460019290611ce890849061254b565b909155505060008181526004602052604080822080546001600160a01b0319166001600160a01b03861690811790915590518392907fddf252ad1be2c89b69c2b068fc378daa952ba7f163c4a11628f55a4df523b3ef908290a45050565b60006001600160e01b031982166380ac58cd60e01b1480611d7757506001600160e01b03198216635b5e139f60e01b145b80610496575061049682611fbd565b60006001611d9384610a4c565b611d9d9190612534565b600083815260096020526040902054909150808214611df0576001600160a01b03841660009081526008602090815260408083208584528252808320548484528184208190558352600990915290208190555b5060009182526009602090815260408084208490556001600160a01b039094168352600881528383209183525290812055565b600a54600090611e3590600190612534565b6000838152600b6020526040812054600a8054939450909284908110611e5d57611e5d61251e565b9060005260206000200154905080600a8381548110611e7e57611e7e61251e565b6000918252602080832090910192909255828152600b9091526040808220849055858252812055600a805480611eb657611eb66126ca565b6001900381819060005260206000200160009055905550505050565b6000611edd83610a4c565b6001600160a01b039093166000908152600860209081526040808320868452825280832085905593825260099052919091209190915550565b6000611f21826109d5565b9050611f2f816000846114b7565b611f3a600083610d05565b6001600160a01b0381166000908152600560205260408120805460019290611f63908490612534565b909155505060008281526004602052604080822080546001600160a01b0319169055518391906001600160a01b038416907fddf252ad1be2c89b69c2b068fc378daa952ba7f163c4a11628f55a4df523b3ef908390a45050565b60006001600160e01b0319821663152a902d60e11b148061049657506301ffc9a760e01b6001600160e01b0319831614610496565b828054611ffe90612433565b90600052602060002090601f0160209004810192826120205760008555612066565b82601f1061203957805160ff1916838001178555612066565b82800160010185558215612066579182015b8281111561206657825182559160200191906001019061204b565b506120729291506120ac565b5090565b50805461208290612433565b6000825580601f10612092575050565b601f01602090049060005260206000209081019061115e91905b5b8082111561207257600081556001016120ad565b6001600160e01b03198116811461115e57600080fd5b6000602082840312156120e957600080fd5b813561116d816120c1565b60005b8381101561210f5781810151838201526020016120f7565b83811115610b4a5750506000910152565b600081518084526121388160208601602086016120f4565b601f01601f19169290920160200192915050565b60208152600061116d6020830184612120565b60006020828403121561217157600080fd5b5035919050565b80356001600160a01b038116811461218f57600080fd5b919050565b600080604083850312156121a757600080fd5b6121b083612178565b946020939093013593505050565b6000806000606084860312156121d357600080fd5b6121dc84612178565b92506121ea60208501612178565b9150604084013590509250925092565b6000806040838503121561220d57600080fd5b50508035926020909101359150565b6000806040838503121561222f57600080fd5b8235915061223f60208401612178565b90509250929050565b60006020828403121561225a57600080fd5b61116d82612178565b6000806040838503121561227657600080fd5b61227f83612178565b91506020830135801515811461229457600080fd5b809150509250929050565b634e487b7160e01b600052604160045260246000fd5b600067ffffffffffffffff808411156122d0576122d061229f565b604051601f8501601f19908116603f011681019082821181831017156122f8576122f861229f565b8160405280935085815286868601111561231157600080fd5b858560208301376000602087830101525050509392505050565b6000806000806080858703121561234157600080fd5b61234a85612178565b935061235860208601612178565b925060408501359150606085013567ffffffffffffffff81111561237b57600080fd5b8501601f8101871361238c57600080fd5b61239b878235602084016122b5565b91505092959194509250565b600080604083850312156123ba57600080fd5b6123c383612178565b9150602083013567ffffffffffffffff8111156123df57600080fd5b8301601f810185136123f057600080fd5b6123ff858235602084016122b5565b9150509250929050565b6000806040838503121561241c57600080fd5b61242583612178565b915061223f60208401612178565b600181811c9082168061244757607f821691505b6020821081141561246857634e487b7160e01b600052602260045260246000fd5b50919050565b60208082526031908201527f4552433732313a207472616e736665722063616c6c6572206973206e6f74206f6040820152701ddb995c881b9bdc88185c1c1c9bdd9959607a1b606082015260800190565b634e487b7160e01b600052601160045260246000fd5b60008160001904831182151516156124ef576124ef6124bf565b500290565b634e487b7160e01b600052601260045260246000fd5b600082612519576125196124f4565b500490565b634e487b7160e01b600052603260045260246000fd5b600082821015612546576125466124bf565b500390565b6000821982111561255e5761255e6124bf565b500190565b7f416363657373436f6e74726f6c3a206163636f756e742000000000000000000081526000835161259b8160178501602088016120f4565b7001034b99036b4b9b9b4b733903937b6329607d1b60179184019182015283516125cc8160288401602088016120f4565b01602801949350505050565b60208082526032908201527f4552433732313a207472616e7366657220746f206e6f6e20455243373231526560408201527131b2b4bb32b91034b6b83632b6b2b73a32b960711b606082015260800190565b6000835161263c8184602088016120f4565b8351908301906126508183602088016120f4565b01949350505050565b600081612668576126686124bf565b506000190190565b6001600160a01b03858116825284166020820152604081018390526080606082018190526000906126a390830184612120565b9695505050505050565b6000602082840312156126bf57600080fd5b815161116d816120c1565b634e487b7160e01b600052603160045260246000fd5b60006000198214156126f4576126f46124bf565b5060010190565b60008261270a5761270a6124f4565b50069056fea2646970667358221220528954001c79fd0a28fbe1128b4e73f95b1512838b480c81a53151df5624358b64736f6c634300080c0033",
  "linkReferences": {},
  "deployedLinkReferences": {}
}