{
  "_format": "hh-sol-artifact-1",
  "contractName": "OnchainMetadata",
  "sourceName": "contracts/3_onchain_metadata/OnchainMetadata.sol",
  "abi": [
    {
      "anonymous": false,
      "inputs": [
        {
          "indexed": true,
          "internalType": "address",
          "name": "owner",
          "type": "address"
        },
        {
          "indexed": true,
          "internalType": "address",
          "name": "operator",
          "type": "address"
        },
        {
          "indexed": true,
          "internalType": "uint256",
          "name": "tokenId",
          "type": "uint256"
        }
      ],
      "name": "Approval",
      "type": "event"
    },
    {
      "anonymous": false,
      "inputs": [
        {
          "indexed": true,
          "internalType": "address",
          "name": "owner",
          "type": "address"
        },
        {
          "indexed": true,
          "internalType": "address",
          "name": "operator",
          "type": "address"
        },
        {
          "indexed": false,
          "internalType": "bool",
          "name": "approved",
          "type": "bool"
        }
      ],
      "name": "ApprovalForAll",
      "type": "event"
    },
    {
      "anonymous": false,
      "inputs": [
        {
          "indexed": true,
          "internalType": "address",
          "name": "from",
          "type": "address"
        },
        {
          "indexed": true,
          "internalType": "address",
          "name": "to",
          "type": "address"
        },
        {
          "indexed": true,
          "internalType": "uint256",
          "name": "tokenId",
          "type": "uint256"
        }
      ],
      "name": "Transfer",
      "type": "event"
    },
    {
      "inputs": [
        {
          "internalType": "uint256",
          "name": "tokenId",
          "type": "uint256"
        }
      ],
      "name": "tokenURI",
      "outputs": [
        {
          "internalType": "string",
          "name": "",
          "type": "string"
        }
      ],
      "stateMutability": "view",
      "type": "function"
    }
  ],
  "bytecode": "0x608060405234801561001057600080fd5b506117fe806100206000396000f3fe608060405234801561001057600080fd5b506004361061002b5760003560e01c8063c87b56dd14610030575b600080fd5b61004361003e3660046108cf565b610059565b6040516100509190610918565b60405180910390f35b60606100857f3c7bf052874fa81625121783266a03507bd2cd48b16e571c01a04e8dd3fb07a683610383565b6100ed5760405162461bcd60e51b815260206004820152602f60248201527f4552433732314d657461646174613a2055524920717565727920666f72206e6f60448201526e3732bc34b9ba32b73a103a37b5b2b760891b606482015260840160405180910390fd5b60008281527f8b1e34c06a0926cd4f4dec6712395936ddf06c5177eba09c7581fc2f39f19f4a6020526040902080547f8b1e34c06a0926cd4f4dec6712395936ddf06c5177eba09c7581fc2f39f19f479161035c91610338916101d6916101539061094b565b80601f016020809104026020016040519081016040528092919081815260200182805461017f9061094b565b80156101cc5780601f106101a1576101008083540402835291602001916101cc565b820191906000526020600020905b8154815290600101906020018083116101af57829003601f168201915b50505050506103a7565b6000868152600385810160205260409091208101546101f7916014906104d2565b60008560050180546102089061094b565b90501161024557600685015461022190601260026104d2565b60405160200161023191906109a1565b6040516020818303038152906040526102d3565b8460050180546102549061094b565b80601f01602080910402602001604051908101604052809291908181526020018280546102809061094b565b80156102cd5780601f106102a2576101008083540402835291602001916102cd565b820191906000526020600020905b8154815290600101906020018083116102b057829003601f168201915b50505050505b60008881526003870160205260409020600401546102f090610603565b600089815260038801602052604090206001015461031190601260026104d2565b60008a81526003890160205260409020600290810154610333916012906104d2565b61070c565b60405160200161034891906109ee565b60405160208183030381529060405261077c565b60405160200161036c9190610a9d565b604051602081830303815290604052915050919050565b600061039e8383600081815260018301602052604081205415155b90505b92915050565b6060816000805b82518161ffff16101561040157828161ffff16815181106103d1576103d1610ae2565b01602001516001600160f81b031916601360f91b036103ef57600191505b806103f981610b0e565b9150506103ae565b508061040f57509192915050565b606060005b83518161ffff1610156104c95781848261ffff168151811061043857610438610ae2565b602001015160f81c60f81b604051602001610454929190610b2f565b6040516020818303038152906040529150838161ffff168151811061047b5761047b610ae2565b01602001516001600160f81b031916601360f91b036104b757816040516020016104a59190610b5e565b60405160208183030381529060405291505b806104c181610b0e565b915050610414565b50949350505050565b60606104f16104e284600a610c6a565b6104ec9086610c8f565b610603565b60008360ff1611610511576040518060200160405280600081525061052c565b604051806040016040528060018152602001601760f91b8152505b60405160200161053d929190610ca3565b60405160208183030381529060405290505b60ff8216156105fc578060008460ff161161058357604051806040016040528060018152602001600360fc1b8152506105c7565b6105c7610591600186610cd2565b61059c90600a610c6a565b856105a681610cf5565b96506105b390600a610c6a565b6105bd9088610d12565b6104ec9190610c8f565b6040516020016105d8929190610ca3565b604051602081830303815290604052905081806105f490610cf5565b92505061054f565b9392505050565b60608160000361062a5750506040805180820190915260018152600360fc1b602082015290565b8160005b8115610654578061063e81610d26565b915061064d9050600a83610c8f565b915061062e565b60008167ffffffffffffffff81111561066f5761066f610d3f565b6040519080825280601f01601f191660200182016040528015610699576020820181803683370190505b5090505b8415610704576106ae600183610d55565b91506106bb600a86610d12565b6106c6906030610d6c565b60f81b8183815181106106db576106db610ae2565b60200101906001600160f81b031916908160001a9053506106fd600a86610c8f565b945061069d565b949350505050565b6060600083838689898c60405160200161072b96959493929190610d84565b6040516020818303038152906040529050610750816040516020016103489190611708565b6040516020016107609190611724565b6040516020818303038152906040529150509695505050505050565b6060815160000361079b57505060408051602081019091526000815290565b600060405180606001604052806040815260200161178960409139905060006003845160026107ca9190610d6c565b6107d49190610c8f565b6107df906004611769565b67ffffffffffffffff8111156107f7576107f7610d3f565b6040519080825280601f01601f191660200182016040528015610821576020820181803683370190505b509050600182016020820185865187015b8082101561088d576003820191508151603f8160121c168501518453600184019350603f81600c1c168501518453600184019350603f8160061c168501518453600184019350603f8116850151845350600183019250610832565b50506003865106600181146108a957600281146108bc576108c4565b603d6001830353603d60028303536108c4565b603d60018303535b509195945050505050565b6000602082840312156108e157600080fd5b5035919050565b60005b838110156109035781810151838201526020016108eb565b83811115610912576000848401525b50505050565b60208152600082518060208401526109378160408501602087016108e8565b601f01601f19169190910160400192915050565b600181811c9082168061095f57607f821691505b60208210810361097f57634e487b7160e01b600052602260045260246000fd5b50919050565b600081516109978185602086016108e8565b9290920192915050565b6c02334b939ba1023b7b0b6101d1609d1b8152600082516109c981600d8501602087016108e8565b6d206f662038303030204d4154494360901b600d939091019283015250601b01919050565b607b60f81b81527f226e616d65223a2022646f6e6174696f6e2063617264222c200000000000000060018201527f226465736372697074696f6e223a2022646f6e6174696f6e2072656365697074601a8201526701031b0b9321116160c51b603a820152691134b6b0b3b2911d101160b11b60428201528151600090610a7b81604c8501602087016108e8565b601160f91b604c939091019283015250607d60f81b604d820152604e01919050565b7f646174613a6170706c69636174696f6e2f6a736f6e3b6261736536342c000000815260008251610ad581601d8501602087016108e8565b91909101601d0192915050565b634e487b7160e01b600052603260045260246000fd5b634e487b7160e01b600052601160045260246000fd5b600061ffff808316818103610b2557610b25610af8565b6001019392505050565b60008351610b418184602088016108e8565b6001600160f81b0319939093169190920190815260010192915050565b60008251610b708184602087016108e8565b63616d703b60e01b920191825250600401919050565b600181815b80851115610bc1578160001904821115610ba757610ba7610af8565b80851615610bb457918102915b93841c9390800290610b8b565b509250929050565b600082610bd8575060016103a1565b81610be5575060006103a1565b8160018114610bfb5760028114610c0557610c21565b60019150506103a1565b60ff841115610c1657610c16610af8565b50506001821b6103a1565b5060208310610133831016604e8410600b8410161715610c44575081810a6103a1565b610c4e8383610b86565b8060001904821115610c6257610c62610af8565b029392505050565b600061039e60ff841683610bc9565b634e487b7160e01b600052601260045260246000fd5b600082610c9e57610c9e610c79565b500490565b60008351610cb58184602088016108e8565b835190830190610cc98183602088016108e8565b01949350505050565b600060ff821660ff841680821015610cec57610cec610af8565b90039392505050565b600060ff821680610d0857610d08610af8565b6000190192915050565b600082610d2157610d21610c79565b500690565b600060018201610d3857610d38610af8565b5060010190565b634e487b7160e01b600052604160045260246000fd5b600082821015610d6757610d67610af8565b500390565b60008219821115610d7f57610d7f610af8565b500190565b7f3c7376672069643d224c617965725f312220646174612d6e616d653d224c617981527f657220312220786d6c6e733d22687474703a2f2f7777772e77332e6f72672f3260208201527f3030302f7376672220786d6c6e733a786c696e6b3d22687474703a2f2f77777760408201527f2e77332e6f72672f313939392f786c696e6b222076696577426f783d2230203060608201527f2034393320383430223e3c646566733e3c7374796c653e2e636c732d317b666960808201527f6c6c3a6e6f6e653b7d2e636c732d327b636c69702d706174683a75726c28236360a08201527f6c69702d70617468293b7d2e636c732d332c2e636c732d377b66696c6c3a236660c08201527f66663b7d2e636c732d347b66696c6c3a236638663866383b7d2e636c732d357b60e08201527f666f6e742d73697a653a333270783b7d2e636c732d352c2e636c732d387b666f6101008201527f6e742d66616d696c793a506f7070696e732d53656d69426f6c642c20506f70706101208201527f696e733b666f6e742d7765696768743a3630303b7d2e636c732d362c2e636c736101408201527f2d377b666f6e742d73697a653a323470783b666f6e742d66616d696c793a506f6101608201527f7070696e732d526567756c61722c20506f7070696e733b7d2e636c732d387b666101808201527f6f6e742d73697a653a343070783b7d2e636c732d397b66696c6c3a23383665666101a08201527f61633b7d2e636c732d31307b66696c6c3a236135663366633b7d2e636c732d316101c08201527f317b66696c6c3a236663613561353b7d2e636c732d31327b66696c6c3a2366656101e08201527f663038613b7d3c2f7374796c653e3c636c6970506174682069643d22636c69706102008201527f2d7061746822207472616e73666f726d3d227472616e736c617465283629223e6102208201527f3c7265637420636c6173733d22636c732d31222077696474683d2234383022206102408201527f6865696768743d22383430222072783d223438222f3e3c2f636c6970506174686102608201527f3e3c2f646566733e3c6720636c6173733d22636c732d32223e3c7265637420636102808201527f6c6173733d22636c732d332220783d2236222077696474683d223438302220686102a08201527f65696768743d22383430222072783d223438222f3e3c7265637420636c6173736102c08201527f3d22636c732d342220783d2234312220793d223831222077696474683d2233346102e08201527f3122206865696768743d223833222072783d223130222f3e3c7265637420636c6103008201527f6173733d22636c732d342220783d2234312220793d22343038222077696474686103208201527f3d2234313022206865696768743d22313831222072783d223130222f3e3c72656103408201527f637420793d22373631222077696474683d2234393322206865696768743d22376103608201527f39222f3e3c2f673e3c7465787420636c6173733d22636c732d3522207472616e6103808201527f73666f726d3d227472616e736c6174652835342034363229223e0000000000006103a0820152600061121b6103ba830189610985565b670409a82a8928640560c31b81526112366008820189610985565b6220242960e81b815290507f3c2f746578743e3c7465787420636c6173733d22636c732d3522207472616e7360038201527f666f726d3d227472616e736c6174652835342035313629223e20446f6e61746560238201527f3c2f746578743e3c7465787420636c6173733d22636c732d3622207472616e7360438201527f666f726d3d227472616e736c6174652835342035363029223e20426c6f636b206063820152680273ab6b132b9101d160bd1b60838201526116fb61142361141d6113ce6113c861137961137361130d608c89018f610985565b7f3c2f746578743e3c7465787420636c6173733d22636c732d3622207472616e7381527f666f726d3d227472616e736c6174652835342037303829223e2063617264207660208201526d037ba34b733903837bbb2b9101d160951b6040820152604e0190565b8c610985565b7f3c2f746578743e3c7465787420636c6173733d22636c732d3722207472616e7381527f666f726d3d227472616e736c6174652835342038303629223e00000000000000602082015260390190565b89610985565b7f3c2f746578743e3c7465787420636c6173733d22636c732d3822207472616e7381527f666f726d3d227472616e736c6174652835342032323329223e200000000000006020820152603a0190565b86610985565b7f3c2f746578743e3c7465787420636c6173733d22636c732d3822207472616e7381527f666f726d3d227472616e736c6174652835342e3934203133382e323329223e2060208201527f4d696e7465722e526f636b733c2f746578743e3c636972636c6520636c61737360408201527f3d22636c732d39222063783d223133312e3636222063793d223338352e34222060608201527f723d223135222f3e3c636972636c6520636c6173733d22636c732d392220637860808201527f3d223232332e3638222063793d223332322e31352220723d22342e3336222f3e60a08201527f3c636972636c6520636c6173733d22636c732d3130222063783d223330392e3360c08201527f36222063793d223333362e34372220723d2231322e3634222f3e3c636972636c60e08201527f6520636c6173733d22636c732d3130222063783d2236302e3937222063793d226101008201527f3336332e34342220723d22362e3937222f3e3c636972636c6520636c6173733d6101208201527f22636c732d3131222063783d223137322e3639222063793d223334362e3736226101408201527f20723d22352e3836222f3e3c636972636c6520636c6173733d22636c732d31316101608201527f222063783d223336362e3035222063793d223337352e37322220723d22372e326101808201527f34222f3e3c636972636c6520636c6173733d22636c732d3132222063783d22326101a08201527f33352e3633222063793d223337382e33392220723d22372e3539222f3e3c63696101c08201527f72636c6520636c6173733d22636c732d3132222063783d223433302e303122206101e08201527f63793d223334392e31312220723d2231302e3031222f3e3c636972636c6520636102008201527f6c6173733d22636c732d3132222063783d2239372e3736222063793d22333230610220820152731718199110391e9119971c11179f1e17b9bb339f60611b6102408201526102540190565b9998505050505050505050565b6000825161171a8184602087016108e8565b9190910192915050565b7f646174613a696d6167652f7376672b786d6c3b6261736536342c00000000000081526000825161175c81601a8501602087016108e8565b91909101601a0192915050565b600081600019048311821515161561178357611783610af8565b50029056fe4142434445464748494a4b4c4d4e4f505152535455565758595a6162636465666768696a6b6c6d6e6f707172737475767778797a303132333435363738392b2fa26469706673582212209b37f2f7b1cc82b31d577c92702efb3eb13d8f5ca55e675b75cfd737d610d12a64736f6c634300080d0033",
  "linkReferences": {},
  "deployedLinkReferences": {}
}