{
  "_format": "hh-sol-artifact-1",
  "contractName": "Tag",
  "sourceName": "contracts/community/2_tag/Tag.sol",
  "abi": [
    {
      "anonymous": false,
      "inputs": [
        {
          "indexed": true,
          "internalType": "address",
          "name": "owner",
          "type": "address"
        },
        {
          "indexed": true,
          "internalType": "address",
          "name": "operator",
          "type": "address"
        },
        {
          "indexed": true,
          "internalType": "uint256",
          "name": "tokenId",
          "type": "uint256"
        }
      ],
      "name": "Approval",
      "type": "event"
    },
    {
      "anonymous": false,
      "inputs": [
        {
          "indexed": true,
          "internalType": "address",
          "name": "owner",
          "type": "address"
        },
        {
          "indexed": true,
          "internalType": "address",
          "name": "operator",
          "type": "address"
        },
        {
          "indexed": false,
          "internalType": "bool",
          "name": "approved",
          "type": "bool"
        }
      ],
      "name": "ApprovalForAll",
      "type": "event"
    },
    {
      "anonymous": false,
      "inputs": [
        {
          "indexed": true,
          "internalType": "address",
          "name": "from",
          "type": "address"
        },
        {
          "indexed": true,
          "internalType": "address",
          "name": "to",
          "type": "address"
        },
        {
          "indexed": true,
          "internalType": "uint256",
          "name": "tokenId",
          "type": "uint256"
        }
      ],
      "name": "Transfer",
      "type": "event"
    },
    {
      "inputs": [],
      "name": "contractBalance",
      "outputs": [
        {
          "internalType": "uint256",
          "name": "",
          "type": "uint256"
        }
      ],
      "stateMutability": "view",
      "type": "function"
    },
    {
      "inputs": [],
      "name": "init",
      "outputs": [],
      "stateMutability": "nonpayable",
      "type": "function"
    },
    {
      "inputs": [
        {
          "internalType": "uint256",
          "name": "tokenId",
          "type": "uint256"
        },
        {
          "internalType": "string",
          "name": "mention",
          "type": "string"
        }
      ],
      "name": "levelup",
      "outputs": [],
      "stateMutability": "payable",
      "type": "function"
    },
    {
      "inputs": [
        {
          "internalType": "uint256",
          "name": "amount",
          "type": "uint256"
        }
      ],
      "name": "setMinLevelup",
      "outputs": [],
      "stateMutability": "nonpayable",
      "type": "function"
    },
    {
      "inputs": [
        {
          "internalType": "uint256",
          "name": "amount",
          "type": "uint256"
        }
      ],
      "name": "setMinValue",
      "outputs": [],
      "stateMutability": "nonpayable",
      "type": "function"
    },
    {
      "inputs": [
        {
          "internalType": "string",
          "name": "notification1",
          "type": "string"
        },
        {
          "internalType": "string",
          "name": "notification2",
          "type": "string"
        }
      ],
      "name": "setNotification",
      "outputs": [],
      "stateMutability": "nonpayable",
      "type": "function"
    },
    {
      "inputs": [
        {
          "internalType": "string",
          "name": "notion",
          "type": "string"
        }
      ],
      "name": "tag",
      "outputs": [],
      "stateMutability": "payable",
      "type": "function"
    },
    {
      "inputs": [],
      "name": "totalPower",
      "outputs": [
        {
          "internalType": "uint256",
          "name": "",
          "type": "uint256"
        }
      ],
      "stateMutability": "view",
      "type": "function"
    },
    {
      "inputs": [
        {
          "internalType": "address",
          "name": "userAddr",
          "type": "address"
        }
      ],
      "name": "userPower",
      "outputs": [
        {
          "internalType": "uint256",
          "name": "",
          "type": "uint256"
        }
      ],
      "stateMutability": "view",
      "type": "function"
    },
    {
      "inputs": [
        {
          "internalType": "uint256",
          "name": "amount",
          "type": "uint256"
        },
        {
          "internalType": "address",
          "name": "receiver",
          "type": "address"
        }
      ],
      "name": "withdraw",
      "outputs": [],
      "stateMutability": "nonpayable",
      "type": "function"
    }
  ],
  "bytecode": "0x6080806040523461001657611981908161001c8239f35b600080fdfe60806040526004361015610013575b600080fd5b6000803560e01c908162f714ce146100dd575080634d6e3452146100d45780637518d35c146100cb578063778faf81146100c25780638b7afe2e146100b95780639c1e8eaa146100b0578063db3ad22c146100a7578063db91774c1461009e578063e1c7392a146100955763e656619a1461008d57600080fd5b61000e6106be565b5061000e61062c565b5061000e6105eb565b5061000e6105ad565b5061000e61056c565b5061000e61054f565b5061000e610469565b5061000e6101b9565b5061000e610152565b3461013957604036600319011261013957808080806004356100fd61013c565b610105610d62565b8290821561012f575b6001600160a01b031690f11561012357604051f35b604051903d90823e3d90fd5b6108fc915061010e565b80fd5b602435906001600160a01b038216820361000e57565b503461000e57602036600319011261000e576004356001600160a01b038116810361000e576001600160a01b031660009081527f8b1e34c06a0926cd4f4dec6712395936ddf06c5177eba09c7581fc2f39f19f4b6020908152604090912054604051908152f35b50602036600319011261000e5767ffffffffffffffff60043581811161000e573660238201121561000e57806004013591821161000e57366024838301011161000e577f8b1e34c06a0926cd4f4dec6712395936ddf06c5177eba09c7581fc2f39f19f479081549161022a83610dfc565b9055604051926102398461038f565b60008452331561030b576102fb6102f66103099561028061027b6102778860005260008051602061192c833981519152602052604060002054151590565b1590565b6108bb565b3360009081527f3c7bf052874fa81625121783266a03507bd2cd48b16e571c01a04e8dd3fb07a8602052604090206102b9908790610a9e565b506102c433876109b3565b50853360007fddf252ad1be2c89b69c2b068fc378daa952ba7f163c4a11628f55a4df523b3ef81604051a48533610b86565b610889565b439260243493019033611227565b005b606460405162461bcd60e51b815260206004820152602060248201527f4552433732313a206d696e7420746f20746865207a65726f20616464726573736044820152fd5b50634e487b7160e01b600052604160045260246000fd5b6040810190811067ffffffffffffffff82111761038257604052565b61038a61034f565b604052565b6020810190811067ffffffffffffffff82111761038257604052565b6060810190811067ffffffffffffffff82111761038257604052565b90601f8019910116810190811067ffffffffffffffff82111761038257604052565b60209067ffffffffffffffff8111610407575b601f01601f19160190565b61040f61034f565b6103fc565b929192610420826103e9565b9161042e60405193846103c7565b82948184528183011161000e578281602093846000960137010152565b9080601f8301121561000e5781602061046693359101610414565b90565b50604036600319011261000e5760043560243567ffffffffffffffff811161000e5761049990369060040161044b565b8160005260008051602061192c83398151915260205260406000205491821561050a576104ef6104e360016104d4610309966000190161094d565b5001546001600160a01b031690565b6001600160a01b031690565b6105036001600160a01b0382161515610d1e565b34916116e9565b60405162461bcd60e51b815260206004820152601e60248201527f456e756d657261626c654d61703a206e6f6e6578697374656e74206b657900006044820152606490fd5b503461000e57600036600319011261000e57602047604051908152f35b503461000e57602036600319011261000e57610586610d62565b6004357f8b1e34c06a0926cd4f4dec6712395936ddf06c5177eba09c7581fc2f39f19f4e55005b503461000e57600036600319011261000e5760207f8b1e34c06a0926cd4f4dec6712395936ddf06c5177eba09c7581fc2f39f19f4d54604051908152f35b503461000e57602036600319011261000e57610605610d62565b6004357f8b1e34c06a0926cd4f4dec6712395936ddf06c5177eba09c7581fc2f39f19f4855005b503461000e57600036600319011261000e576402540be4007f8b1e34c06a0926cd4f4dec6712395936ddf06c5177eba09c7581fc2f39f19f4955670de0b6b3a76400007f8b1e34c06a0926cd4f4dec6712395936ddf06c5177eba09c7581fc2f39f19f485567016345785d8a00007f8b1e34c06a0926cd4f4dec6712395936ddf06c5177eba09c7581fc2f39f19f4e55005b503461000e57604036600319011261000e5767ffffffffffffffff60043581811161000e576106f190369060040161044b565b9060243581811161000e5761070a90369060040161044b565b90610713610d62565b825190811161083c575b7f8b1e34c06a0926cd4f4dec6712395936ddf06c5177eba09c7581fc2f39f19f4f906107528161074d8454610e6e565b610ea8565b602080601f83116001146107935750819061030995600092610788575b50508160011b916000199060031b1c191617905561101c565b01519050388061076f565b7f8b1e34c06a0926cd4f4dec6712395936ddf06c5177eba09c7581fc2f39f19f4f6000529194601f1986167fcc1fe7173d3f3b7ce5019b9db119237c0260ba0805c313a42542070edf6997e4936000905b82821061082457505091600193918761030998941061080b575b505050811b01905561101c565b015160001960f88460031b161c191690553880806107fe565b806001869782949787015181550196019401906107e4565b61084461034f565b61071d565b60207131b2b4bb32b91034b6b83632b6b2b73a32b960711b917f4552433732313a207472616e7366657220746f206e6f6e20455243373231526581520152565b1561089057565b60405162461bcd60e51b815260206004820152603260248201526084906108b960448201610849565bfd5b156108c257565b60405162461bcd60e51b815260206004820152601c60248201527f4552433732313a20746f6b656e20616c7265616479206d696e746564000000006044820152606490fd5b6000527f8b1e34c06a0926cd4f4dec6712395936ddf06c5177eba09c7581fc2f39f19f4a602052604060002090565b50634e487b7160e01b600052603260045260246000fd5b7f3c7bf052874fa81625121783266a03507bd2cd48b16e571c01a04e8dd3fb07a680548210156109a6575b60005260011b7f709a16c9caeafb61409212be896356f281c91d5c5b5cccb959477d20bb6240fb0190600090565b6109ae610936565b610978565b90600082815260008051602061192c83398151915260205260408120548015600014610a865750604051916109e783610366565b838352602083019081527f3c7bf052874fa81625121783266a03507bd2cd48b16e571c01a04e8dd3fb07a692610a308454600160401b811015610a79575b60018101865561094d565b939093610a6557505182555160019091015554600091825260008051602061192c833981519152602052604090912055600190565b634e487b7160e01b81526004819052602490fd5b610a8161034f565b610a25565b6001919350610a98906000190161094d565b50015590565b906001820160009082825280602052604082205415600014610b0e5783836040949554600160401b811015610b01575b60018101808455811015610af4575b828552602085200155549382526020522055600190565b610afc610936565b610add565b610b0961034f565b610ace565b5091505090565b91908251928382526000905b848210610b4e575092806020939411610b41575b601f01601f1916010190565b6000838284010152610b35565b90602090818082850101519082860101520190610b21565b9081602091031261000e57516001600160e01b03198116810361000e5790565b919091803b15610c2257610bd2610be0610c0293604051928391630a85bd0160e11b978860208501523360248501526000604485015260648401526080608484015260a4830190610b15565b03601f1981018352826103c7565b60405191610bed836103ab565b60328352610bfd60208401610849565b610c6b565b610c1d63ffffffff60e01b9160208082518301019101610b66565b161490565b505050600190565b3d15610c55573d90610c3b826103e9565b91610c4960405193846103c7565b82523d6000602084013e565b606090565b906020610466928181520190610b15565b803b15610cc55781600092918360208194519301915af190610c8b610c2a565b9115610c95575090565b815115610ca55750805190602001fd5b60405162461bcd60e51b8152908190610cc19060048301610c5a565b0390fd5b60405162461bcd60e51b815260206004820152602b60248201527f416464726573735574696c733a2066756e6374696f6e2063616c6c20746f206e60448201526a1bdb8b58dbdb9d1c9858dd60aa1b6064820152608490fd5b15610d2557565b60405162461bcd60e51b815260206004820152601560248201527422a9219b99189d1034b73b30b634b21037bbb732b960591b6044820152606490fd5b7fc8fcad8db84d3cc18b4c41d551ea0ee66dd599cde068d998e57d5e09332c1320546001600160a01b03163303610d9557565b60405162461bcd60e51b815260206004820152602260248201527f4c69624469616d6f6e643a204d75737420626520636f6e7472616374206f776e60448201526132b960f11b6064820152608490fd5b50634e487b7160e01b600052601160045260246000fd5b6001906000198114610e0c570190565b610e14610de5565b0190565b15610e1f57565b60405162461bcd60e51b815260206004820152602160248201527f546167496e7465726e616c3a206d696e696d756d2076616c7565206572726f726044820152601760f91b6064820152608490fd5b90600182811c92168015610e9e575b6020831014610e8857565b634e487b7160e01b600052602260045260246000fd5b91607f1691610e7d565b601f8111610eb4575050565b6000907f8b1e34c06a0926cd4f4dec6712395936ddf06c5177eba09c7581fc2f39f19f4f82527fcc1fe7173d3f3b7ce5019b9db119237c0260ba0805c313a42542070edf6997e4906020601f850160051c83019410610f2e575b601f0160051c01915b828110610f2357505050565b818155600101610f17565b9092508290610f0e565b601f8111610f44575050565b6000907f8b1e34c06a0926cd4f4dec6712395936ddf06c5177eba09c7581fc2f39f19f5082527f39bc84a6f3fd6651d7e520c851b226ddc703ed288d6ba295f5e799cd02e8d994906020601f850160051c83019410610fbe575b601f0160051c01915b828110610fb357505050565b818155600101610fa7565b9092508290610f9e565b90601f8111610fd657505050565b600091825260208220906020601f850160051c83019410611012575b601f0160051c01915b82811061100757505050565b818155600101610ffb565b9092508290610ff2565b90815167ffffffffffffffff8111611147575b7f8b1e34c06a0926cd4f4dec6712395936ddf06c5177eba09c7581fc2f39f19f50906110648161105f8454610e6e565b610f38565b602080601f83116001146110a0575081929394600092611095575b50508160011b916000199060031b1c1916179055565b01519050388061107f565b90601f198316956110f27f8b1e34c06a0926cd4f4dec6712395936ddf06c5177eba09c7581fc2f39f19f506000527f39bc84a6f3fd6651d7e520c851b226ddc703ed288d6ba295f5e799cd02e8d99490565b926000905b88821061112f57505083600195969710611116575b505050811b019055565b015160001960f88460031b161c1916905538808061110c565b806001859682949686015181550195019301906110f7565b61114f61034f565b61102f565b919091825167ffffffffffffffff81116111fe575b61117d816111778454610e6e565b84610fc8565b602080601f83116001146111ad5750819293946000926110955750508160011b916000199060031b1c1916179055565b90601f198316956111c385600052602060002090565b926000905b8882106111e65750508360019596971061111657505050811b019055565b806001859682949686015181550195019301906111c8565b61120661034f565b611169565b6002906002198111610e0c570190565b81198111610e0c570190565b9491929395909560009687527f8b1e34c06a0926cd4f4dec6712395936ddf06c5177eba09c7581fc2f39f19f4a60205260408720956112897f8b1e34c06a0926cd4f4dec6712395936ddf06c5177eba09c7581fc2f39f19f4854831015610e18565b611292826117ca565b9060609589988a968b998c996112a9368387610414565b9a5b8b51811015611494578c8f91806112f48f926112db6112cd6112e79286611836565b516001600160f81b03191690565b60071c600160f81b1690565b6001600160f81b03191690565b6113df576001925b15809281936113b7575b50611385575b9061133060429f9e9d9c9b9a99989796959493928361132a9161121b565b9d61120b565b9e8f1161134c575b5050509091929394959697989a999a6112ab565b90929d50929e9261135e919e50611855565b60019c50811561137557505b9b8d9a8e3880611338565b6113809150896117b3565b61136a565b9d9c9b9a9998979695949392919f508f906113a18f839061121b565b9150909f9192939495969798999a9b9c9d61130c565b600160fd1b91506001600160f81b0319906113d7906112cd908590611836565b16148f611306565b6001600160f81b0319600360f91b8161140a6113fe6112cd8688611836565b60051c600760f81b1690565b160361141957506002926112fc565b929d92600760f91b8161143e6114326112cd8688611836565b60041c600f60f81b1690565b16036114565750611450600393610dfc565b9d6112fc565b600f60f91b9061147861146c6112cd8587611836565b60031c601f60f81b1690565b16036114895761145060049361120b565b60019d929d926112fc565b9161151497999e93949596989b506115199a6115649e926115409e600014611566575092826114e1926114d36114ee9561150f99989760011c106118ad565b6114e86114e183838d611905565b3691610414565b99611913565b915b6005850155876004850155600384015588600284015560018301611154565b611154565b611582565b7f8b1e34c06a0926cd4f4dec6712395936ddf06c5177eba09c7581fc2f39f19f4c5461121b565b7f8b1e34c06a0926cd4f4dec6712395936ddf06c5177eba09c7581fc2f39f19f4c55565b565b9493505061157c91509561150f94963691610414565b946114f0565b6001600160a01b031660009081527f8b1e34c06a0926cd4f4dec6712395936ddf06c5177eba09c7581fc2f39f19f4b602052604090206115c382825461121b565b90556115f17f8b1e34c06a0926cd4f4dec6712395936ddf06c5177eba09c7581fc2f39f19f4d91825461121b565b9055565b60018060a01b038251166bffffffffffffffffffffffff60a01b825416178155602060406002828501519360019485820155019301519081519167ffffffffffffffff83116116dc575b6116538361164d8754610e6e565b87610fc8565b81601f841160011461168c5750928293918392600094611681575b50501b916000199060031b1c1916179055565b01519250388061166e565b919083601f1981166116a388600052602060002090565b946000905b888383106116c2575050501061111657505050811b019055565b8587015188559096019594850194879350908101906116a8565b6116e461034f565b61163f565b611519906115409392611514611564966117267f8b1e34c06a0926cd4f4dec6712395936ddf06c5177eba09c7581fc2f39f19f4e54871015610e18565b61172f866117ca565b93600261173b82610907565b0161174788825461121b565b9055600461175482610907565b0161176086825461121b565b90556040519161176f836103ab565b33835287602084015260408301526006611794600761178d84610907565b0192610907565b018054906117a182610dfc565b905560005260205260406000206115f5565b8181106117be570390565b6117c6610de5565b0390565b6402540be4009004907f8b1e34c06a0926cd4f4dec6712395936ddf06c5177eba09c7581fc2f39f19f49805483819460001904821181151516611829575b029261029a81049081811061181c57039055565b611824610de5565b039055565b611831610de5565b611808565b90602091805182101561184857010190565b611850610936565b010190565b1561185c57565b60405162461bcd60e51b815260206004820152602360248201527f546167496e7465726e616c3a20696e70757420737472696e67206f766572666c6044820152626f773160e81b6064820152608490fd5b156118b457565b60405162461bcd60e51b815260206004820152602360248201527f546167496e7465726e616c3a20696e70757420737472696e67206f766572666c60448201526237bb9960e91b6064820152608490fd5b90929192831161000e579190565b9093929384831161000e57841161000e57810192039056fe3c7bf052874fa81625121783266a03507bd2cd48b16e571c01a04e8dd3fb07a7a2646970667358221220736c63d15559c2b4be868dd38aecefe2242610e0c6a2fff19ce061fb98a2f8cb64736f6c634300080f0033",
  "linkReferences": {},
  "deployedLinkReferences": {}
}