{
  "_format": "hh-sol-artifact-1",
  "contractName": "Tag",
  "sourceName": "contracts/community/2_tag/Tag.sol",
  "abi": [
    {
      "anonymous": false,
      "inputs": [
        {
          "indexed": true,
          "internalType": "address",
          "name": "owner",
          "type": "address"
        },
        {
          "indexed": true,
          "internalType": "address",
          "name": "operator",
          "type": "address"
        },
        {
          "indexed": true,
          "internalType": "uint256",
          "name": "tokenId",
          "type": "uint256"
        }
      ],
      "name": "Approval",
      "type": "event"
    },
    {
      "anonymous": false,
      "inputs": [
        {
          "indexed": true,
          "internalType": "address",
          "name": "owner",
          "type": "address"
        },
        {
          "indexed": true,
          "internalType": "address",
          "name": "operator",
          "type": "address"
        },
        {
          "indexed": false,
          "internalType": "bool",
          "name": "approved",
          "type": "bool"
        }
      ],
      "name": "ApprovalForAll",
      "type": "event"
    },
    {
      "anonymous": false,
      "inputs": [
        {
          "indexed": true,
          "internalType": "address",
          "name": "from",
          "type": "address"
        },
        {
          "indexed": true,
          "internalType": "address",
          "name": "to",
          "type": "address"
        },
        {
          "indexed": true,
          "internalType": "uint256",
          "name": "tokenId",
          "type": "uint256"
        }
      ],
      "name": "Transfer",
      "type": "event"
    },
    {
      "inputs": [],
      "name": "contractBalance",
      "outputs": [
        {
          "internalType": "uint256",
          "name": "",
          "type": "uint256"
        }
      ],
      "stateMutability": "view",
      "type": "function"
    },
    {
      "inputs": [],
      "name": "init",
      "outputs": [],
      "stateMutability": "nonpayable",
      "type": "function"
    },
    {
      "inputs": [
        {
          "internalType": "uint256",
          "name": "tokenId",
          "type": "uint256"
        },
        {
          "internalType": "string",
          "name": "mention",
          "type": "string"
        }
      ],
      "name": "levelup",
      "outputs": [],
      "stateMutability": "payable",
      "type": "function"
    },
    {
      "inputs": [
        {
          "internalType": "string",
          "name": "notion",
          "type": "string"
        }
      ],
      "name": "newTag",
      "outputs": [],
      "stateMutability": "payable",
      "type": "function"
    },
    {
      "inputs": [
        {
          "internalType": "uint256",
          "name": "amount",
          "type": "uint256"
        }
      ],
      "name": "setMinLevelup",
      "outputs": [],
      "stateMutability": "nonpayable",
      "type": "function"
    },
    {
      "inputs": [
        {
          "internalType": "uint256",
          "name": "amount",
          "type": "uint256"
        }
      ],
      "name": "setMinValue",
      "outputs": [],
      "stateMutability": "nonpayable",
      "type": "function"
    },
    {
      "inputs": [
        {
          "internalType": "string",
          "name": "notification1",
          "type": "string"
        },
        {
          "internalType": "string",
          "name": "notification2",
          "type": "string"
        }
      ],
      "name": "setNotification",
      "outputs": [],
      "stateMutability": "nonpayable",
      "type": "function"
    },
    {
      "inputs": [],
      "name": "totalPower",
      "outputs": [
        {
          "internalType": "uint256",
          "name": "",
          "type": "uint256"
        }
      ],
      "stateMutability": "view",
      "type": "function"
    },
    {
      "inputs": [
        {
          "internalType": "address",
          "name": "userAddr",
          "type": "address"
        }
      ],
      "name": "userPower",
      "outputs": [
        {
          "internalType": "uint256",
          "name": "",
          "type": "uint256"
        }
      ],
      "stateMutability": "view",
      "type": "function"
    },
    {
      "inputs": [
        {
          "internalType": "uint256",
          "name": "amount",
          "type": "uint256"
        },
        {
          "internalType": "address",
          "name": "receiver",
          "type": "address"
        }
      ],
      "name": "withdraw",
      "outputs": [],
      "stateMutability": "nonpayable",
      "type": "function"
    },
    {
      "inputs": [
        {
          "internalType": "uint256",
          "name": "tokenId",
          "type": "uint256"
        }
      ],
      "name": "withdrawTag",
      "outputs": [],
      "stateMutability": "nonpayable",
      "type": "function"
    }
  ],
  "bytecode": "0x608080604052346100165761206a908161001c8239f35b600080fdfe60806040526004361015610013575b600080fd5b60003560e01c8062f714ce146100ee5780631b77f73a146100e5578063233d8c03146100dc5780634d6e3452146100d3578063778faf81146100ca5780638b7afe2e146100c15780639c1e8eaa146100b8578063db3ad22c146100af578063db91774c146100a6578063e1c7392a1461009d5763e656619a1461009557600080fd5b61000e61081a565b5061000e6107ca565b5061000e610789565b5061000e61075d565b5061000e61071c565b5061000e6106ff565b5061000e6105c4565b5061000e610462565b5061000e6102ce565b5061000e610149565b503461000e57604036600319011261000e576004356024356001600160a01b0381169081900361000e57600080809381936101276113bd565b828215610140575bf115610138575b005b610136611440565b506108fc61012f565b503461000e57602036600319011261000e5760043561018281600052600080516020611fd5833981519152602052604060002054151590565b1561027d57806101c161019761013693610f58565b6001600160a01b03818116331491821561025b575b821561020e575b5081156101d8575b50610ed3565b6101d36101cd82610f58565b82611c79565b6110f5565b7fc8fcad8db84d3cc18b4c41d551ea0ee66dd599cde068d998e57d5e09332c132054166001600160a01b031690503314386101bb565b6001600160a01b031660009081527f3c7bf052874fa81625121783266a03507bd2cd48b16e571c01a04e8dd3fb07aa6020908152604080832033845290915290205460ff169150386101b3565b91503361027661026a86611038565b6001600160a01b031690565b14916101ac565b60405162461bcd60e51b815260206004820152602360248201527f4552433732313a20717565727920666f72206e6f6e6578697374656e7420746f60448201526235b2b760e91b6064820152608490fd5b50602036600319011261000e5767ffffffffffffffff60043581811161000e573660238201121561000e57806004013591821161000e57366024838301011161000e577f8b1e34c06a0926cd4f4dec6712395936ddf06c5177eba09c7581fc2f39f19f479081549161033f83611464565b90556040519261034e846104db565b60008452331561041e5761041061040b6101369561039561039061038c88600052600080516020611fd5833981519152602052604060002054151590565b1590565b610a17565b3360009081527f3c7bf052874fa81625121783266a03507bd2cd48b16e571c01a04e8dd3fb07a8602052604090206103ce908790610c4a565b506103d93387610b4d565b50853360007fddf252ad1be2c89b69c2b068fc378daa952ba7f163c4a11628f55a4df523b3ef81604051a48533610d3b565b6109e5565b4392602434930190336118e5565b606460405162461bcd60e51b815260206004820152602060248201527f4552433732313a206d696e7420746f20746865207a65726f20616464726573736044820152fd5b503461000e57602036600319011261000e576004356001600160a01b038116810361000e57610492602091610a63565b54604051908152f35b50634e487b7160e01b600052604160045260246000fd5b6040810190811067ffffffffffffffff8211176104ce57604052565b6104d661049b565b604052565b6020810190811067ffffffffffffffff8211176104ce57604052565b6060810190811067ffffffffffffffff8211176104ce57604052565b90601f8019910116810190811067ffffffffffffffff8211176104ce57604052565b60405190610542826104f7565b565b60209067ffffffffffffffff8111610562575b601f01601f19160190565b61056a61049b565b610557565b92919261057b82610544565b916105896040519384610513565b82948184528183011161000e578281602093846000960137010152565b9080601f8301121561000e578160206105c19335910161056f565b90565b50604036600319011261000e5760243560043567ffffffffffffffff821161000e576105f76106d19236906004016105a6565b6106cc61060383610f58565b916106317f8b1e34c06a0926cd4f4dec6712395936ddf06c5177eba09c7581fc2f39f19f4e54341015611480565b6106c761064761064034611e53565b6005900490565b94600261065382610a9c565b0161065f348254611883565b9055600461066c82610a9c565b01610678878254611883565b9055610682610535565b33815292346020850152604084015260066106a860076106a184610a9c565b0192610a9c565b01908154916106b683611464565b905590600052602052604060002090565b611d62565b611c2e565b6101366106ed34600080516020611ff583398151915254611883565b600080516020611ff583398151915255565b503461000e57600036600319011261000e57602047604051908152f35b503461000e57602036600319011261000e576107366113bd565b6004357f8b1e34c06a0926cd4f4dec6712395936ddf06c5177eba09c7581fc2f39f19f4e55005b503461000e57600036600319011261000e57602060008051602061201583398151915254604051908152f35b503461000e57602036600319011261000e576107a36113bd565b6004357f8b1e34c06a0926cd4f4dec6712395936ddf06c5177eba09c7581fc2f39f19f4855005b503461000e5760008060031936011261081757600381527f8b1e34c06a0926cd4f4dec6712395936ddf06c5177eba09c7581fc2f39f19f4a6020526301e5c46c6005604083200155604051f35b80fd5b503461000e57604036600319011261000e5767ffffffffffffffff60043581811161000e5761084d9036906004016105a6565b9060243581811161000e576108669036906004016105a6565b9061086f6113bd565b8251908111610998575b7f8b1e34c06a0926cd4f4dec6712395936ddf06c5177eba09c7581fc2f39f19f4f906108ae816108a984546114d6565b611510565b602080601f83116001146108ef57508190610136956000926108e4575b50508160011b916000199060031b1c1916179055611684565b0151905038806108cb565b7f8b1e34c06a0926cd4f4dec6712395936ddf06c5177eba09c7581fc2f39f19f4f6000529194601f1986167fcc1fe7173d3f3b7ce5019b9db119237c0260ba0805c313a42542070edf6997e4936000905b828210610980575050916001939187610136989410610967575b505050811b019055611684565b015160001960f88460031b161c1916905538808061095a565b80600186978294978701518155019601940190610940565b6109a061049b565b610879565b60207131b2b4bb32b91034b6b83632b6b2b73a32b960711b917f4552433732313a207472616e7366657220746f206e6f6e20455243373231526581520152565b156109ec57565b60405162461bcd60e51b81526020600482015260326024820152608490610a15604482016109a5565bfd5b15610a1e57565b60405162461bcd60e51b815260206004820152601c60248201527f4552433732313a20746f6b656e20616c7265616479206d696e746564000000006044820152606490fd5b6001600160a01b031660009081527f8b1e34c06a0926cd4f4dec6712395936ddf06c5177eba09c7581fc2f39f19f4b6020526040902090565b6000527f8b1e34c06a0926cd4f4dec6712395936ddf06c5177eba09c7581fc2f39f19f4a602052604060002090565b50634e487b7160e01b600052603260045260246000fd5b600080516020611fb58339815191528054821015610b29575b60005260011b7f709a16c9caeafb61409212be896356f281c91d5c5b5cccb959477d20bb6240fb0190600090565b610b31610acb565b610afb565b50634e487b7160e01b600052600060045260246000fd5b9081600052600080516020611fd58339815191526020526040600020548015600014610c0a5750610bea90604051610b84816104b2565b838152602081019182526001600080516020611fb583398151915292610bbc8454600160401b811015610bfd575b8381018655610ae2565b939093610bf0575b518355519101555491600052600080516020611fd5833981519152602052604060002090565b55600190565b610bf8610b36565b610bc4565b610c0561049b565b610bb2565b6001919250610c1c9060001901610ae2565b500155600090565b8054821015610c3d575b60005260206000200190600090565b610c45610acb565b610c2e565b6001810190826000528160205260406000205415600014610cc25782610ca0610c878354600160401b811015610cb5575b60018101855584610c24565b819391549060031b600019811b9283911b169119161790565b90555491600052602052604060002055600190565b610cbd61049b565b610c7b565b505050600090565b91908251928382526000905b848210610d03575092806020939411610cf6575b601f01601f1916010190565b6000838284010152610cea565b90602090818082850101519082860101520190610cd6565b9081602091031261000e57516001600160e01b03198116810361000e5790565b919091803b15610dd757610d87610d95610db793604051928391630a85bd0160e11b978860208501523360248501526000604485015260648401526080608484015260a4830190610cca565b03601f198101835282610513565b60405191610da2836104f7565b60328352610db2602084016109a5565b610e20565b610dd263ffffffff60e01b9160208082518301019101610d1b565b161490565b505050600190565b3d15610e0a573d90610df082610544565b91610dfe6040519384610513565b82523d6000602084013e565b606090565b9060206105c1928181520190610cca565b803b15610e7a5781600092918360208194519301915af190610e40610ddf565b9115610e4a575090565b815115610e5a5750805190602001fd5b60405162461bcd60e51b8152908190610e769060048301610e0f565b0390fd5b60405162461bcd60e51b815260206004820152602b60248201527f416464726573735574696c733a2066756e6374696f6e2063616c6c20746f206e60448201526a1bdb8b58dbdb9d1c9858dd60aa1b6064820152608490fd5b15610eda57565b60405162461bcd60e51b8152602060048201526012602482015271151859ce881858d8d95cdcc819195b9e595960721b6044820152606490fd5b15610f1b57565b60405162461bcd60e51b815260206004820152601560248201527422a9219b99189d1034b73b30b634b21037bbb732b960591b6044820152606490fd5b600052600080516020611fd58339815191526020526040600020548015610ff35761026a7f709a16c9caeafb61409212be896356f281c91d5c5b5cccb959477d20bb6240fc610fd29260001901600080516020611fb58339815191528054821015610fe6575b60005260011b01546001600160a01b031690565b6105c16001600160a01b0382161515610f14565b610fee610acb565b610fbe565b60405162461bcd60e51b815260206004820152601e60248201527f456e756d657261626c654d61703a206e6f6e6578697374656e74206b657900006044820152606490fd5b61105c81600052600080516020611fd5833981519152602052604060002054151590565b1561109b5760009081527f3c7bf052874fa81625121783266a03507bd2cd48b16e571c01a04e8dd3fb07a960205260409020546001600160a01b031690565b60405162461bcd60e51b815260206004820152602c60248201527f4552433732313a20617070726f76656420717565727920666f72206e6f6e657860448201526b34b9ba32b73a103a37b5b2b760a11b6064820152608490fd5b6110fe81610f58565b60008281527f3c7bf052874fa81625121783266a03507bd2cd48b16e571c01a04e8dd3fb07a96020526040812080546001600160a01b0319169055906001600160a01b039083838361114f83610f58565b167f8c5be1e5ebec7d5bd14f71427d1e84f3dd0314c0f7b2291e5b200ac8c7c3b92582604051a46001600160a01b03811660009081527f3c7bf052874fa81625121783266a03507bd2cd48b16e571c01a04e8dd3fb07a8602052604090206111b8908590611321565b506111c284611254565b50167fddf252ad1be2c89b69c2b068fc378daa952ba7f163c4a11628f55a4df523b3ef82604051a4565b50634e487b7160e01b600052603160045260246000fd5b600080516020611fb583398151915280548015611247575b60001901906000600161122d84610ae2565b61123a575b828155015555565b611242610b36565b611232565b61124f6111ec565b61121b565b6000818152600080516020611fd58339815191526020526040902054801561131a57600091610bea916112d484196112a861129f82600080516020611fb58339815191525401610ae2565b50918401610ae2565b61130d575b8181036112fa575b5054600052600080516020611fd5833981519152602052604060002090565b556112dd611203565b600052600080516020611fd5833981519152602052604060002090565b81548155600180830154910155386112b5565b611315610b36565b6112ad565b5050600090565b6000828152600182016020819052604082205491939180156113b657610bea93600019916113528383540183610c24565b90549060031b1c80611369610c8786850186610c24565b9055875283602052604087205581815480156113a9575b019161138c8383610c24565b909182549160031b1b191690555590600052602052604060002090565b6113b16111ec565b611380565b5050505090565b7fc8fcad8db84d3cc18b4c41d551ea0ee66dd599cde068d998e57d5e09332c1320546001600160a01b031633036113f057565b60405162461bcd60e51b815260206004820152602260248201527f4c69624469616d6f6e643a204d75737420626520636f6e7472616374206f776e60448201526132b960f11b6064820152608490fd5b506040513d6000823e3d90fd5b50634e487b7160e01b600052601160045260246000fd5b6001906000198114611474570190565b61147c61144d565b0190565b1561148757565b60405162461bcd60e51b815260206004820152602160248201527f546167496e7465726e616c3a206d696e696d756d2076616c7565206572726f726044820152601760f91b6064820152608490fd5b90600182811c92168015611506575b60208310146114f057565b634e487b7160e01b600052602260045260246000fd5b91607f16916114e5565b601f811161151c575050565b6000907f8b1e34c06a0926cd4f4dec6712395936ddf06c5177eba09c7581fc2f39f19f4f82527fcc1fe7173d3f3b7ce5019b9db119237c0260ba0805c313a42542070edf6997e4906020601f850160051c83019410611596575b601f0160051c01915b82811061158b57505050565b81815560010161157f565b9092508290611576565b601f81116115ac575050565b6000907f8b1e34c06a0926cd4f4dec6712395936ddf06c5177eba09c7581fc2f39f19f5082527f39bc84a6f3fd6651d7e520c851b226ddc703ed288d6ba295f5e799cd02e8d994906020601f850160051c83019410611626575b601f0160051c01915b82811061161b57505050565b81815560010161160f565b9092508290611606565b90601f811161163e57505050565b600091825260208220906020601f850160051c8301941061167a575b601f0160051c01915b82811061166f57505050565b818155600101611663565b909250829061165a565b90815167ffffffffffffffff81116117af575b7f8b1e34c06a0926cd4f4dec6712395936ddf06c5177eba09c7581fc2f39f19f50906116cc816116c784546114d6565b6115a0565b602080601f83116001146117085750819293946000926116fd575b50508160011b916000199060031b1c1916179055565b0151905038806116e7565b90601f1983169561175a7f8b1e34c06a0926cd4f4dec6712395936ddf06c5177eba09c7581fc2f39f19f506000527f39bc84a6f3fd6651d7e520c851b226ddc703ed288d6ba295f5e799cd02e8d99490565b926000905b8882106117975750508360019596971061177e575b505050811b019055565b015160001960f88460031b161c19169055388080611774565b8060018596829496860151815501950193019061175f565b6117b761049b565b611697565b919091825167ffffffffffffffff8111611866575b6117e5816117df84546114d6565b84611630565b602080601f83116001146118155750819293946000926116fd5750508160011b916000199060031b1c1916179055565b90601f1983169561182b85600052602060002090565b926000905b88821061184e5750508360019596971061177e57505050811b019055565b80600185968294968601518155019501930190611830565b61186e61049b565b6117d1565b6002906002198111611474570190565b81198111611474570190565b1561189657565b60405162461bcd60e51b815260206004820152602160248201527f546167496e7465726e616c3a206d6178696d756d2076616c7565206572726f726044820152601760f91b6064820152608490fd5b9293919495909560009687527f8b1e34c06a0926cd4f4dec6712395936ddf06c5177eba09c7581fc2f39f19f4a60205260408720926119477f8b1e34c06a0926cd4f4dec6712395936ddf06c5177eba09c7581fc2f39f19f4854821015611480565b61195081611e53565b60609589988a968b998c9961196636838661056f565b9a5b8b51811015611b51578c8f91806119b18f9261199861198a6119a49286611ebf565b516001600160f81b03191690565b60071c600160f81b1690565b6001600160f81b03191690565b611a9c576001925b1580928193611a74575b50611a42575b906119ed60429f9e9d9c9b9a9998979695949392836119e791611883565b9d611873565b9e8f11611a09575b5050509091929394959697989a999a611968565b90929d50929e92611a1b919e50611ede565b60019c508115611a3257505b9b8d9a8e38806119f5565b611a3d915089611c62565b611a27565b9d9c9b9a9998979695949392919f508f90611a5e8f8390611883565b9150909f9192939495969798999a9b9c9d6119c9565b600160fd1b91506001600160f81b031990611a949061198a908590611ebf565b16148f6119c3565b6001600160f81b0319600360f91b81611ac7611abb61198a8688611ebf565b60051c600760f81b1690565b1603611ad657506002926119b9565b929d92600760f91b81611afb611aef61198a8688611ebf565b60041c600f60f81b1690565b1603611b135750611b0d600393611464565b9d6119b9565b600f60f91b90611b35611b2961198a8587611ebf565b60031c601f60f81b1690565b1603611b4657611b0d600493611873565b60019d929d926119b9565b90611be99b509c6106cc959697999e926106ed9b6105429f611bd49b9f600014611c1357509282611b9f92611b91611bac95611bcf989760011c10611f36565b611ba6611b9f83838c611f8e565b369161056f565b98611f9c565b905b600284019c60058501558760048501556003840155888c55600183016117bc565b6117bc565b600080516020611ff583398151915254611883565b547f8b1e34c06a0926cd4f4dec6712395936ddf06c5177eba09c7581fc2f39f19f4754101561188f565b935050611c28915094611bcf9395369161056f565b93611bae565b611c3790610a63565b611c42828254611883565b9055611c5e600080516020612015833981519152918254611883565b9055565b818110611c6d570390565b611c7561144d565b0390565b611d26600491611c8881610a9c565b611d096106ed60028301611cf3611ce1886064605085548060001904821181151516611d55575b020496018054611cc9611cc18d610a63565b918254611c62565b90555460008051602061201583398151915254611c62565b60008051602061201583398151915255565b54600080516020611ff583398151915254611c62565b600094858095819585836002611d1f8299610a9c565b0155610a9c565b015582908215611d4b575b6001600160a01b031690f115611d4357565b610542611440565b6108fc9150611d31565b611d5d61144d565b611caf565b815181546001600160a01b0319166001600160a01b0391909116178155602060406002828501519360019485820155019301519081519167ffffffffffffffff8311611e46575b611dbd83611db787546114d6565b87611630565b81601f8411600114611df65750928293918392600094611deb575b50501b916000199060031b1c1916179055565b015192503880611dd8565b919083601f198116611e0d88600052602060002090565b946000905b88838310611e2c575050501061177e57505050811b019055565b858701518855909601959485019487935090810190611e12565b611e4e61049b565b611da9565b6402540be4009004907f8b1e34c06a0926cd4f4dec6712395936ddf06c5177eba09c7581fc2f39f19f49805483819460001904821181151516611eb2575b029261029a810490818110611ea557039055565b611ead61144d565b039055565b611eba61144d565b611e91565b906020918051821015611ed157010190565b611ed9610acb565b010190565b15611ee557565b60405162461bcd60e51b815260206004820152602360248201527f546167496e7465726e616c3a20696e70757420737472696e67206f766572666c6044820152626f773160e81b6064820152608490fd5b15611f3d57565b60405162461bcd60e51b815260206004820152602360248201527f546167496e7465726e616c3a20696e70757420737472696e67206f766572666c60448201526237bb9960e91b6064820152608490fd5b90929192831161000e579190565b9093929384831161000e57841161000e57810192039056fe3c7bf052874fa81625121783266a03507bd2cd48b16e571c01a04e8dd3fb07a63c7bf052874fa81625121783266a03507bd2cd48b16e571c01a04e8dd3fb07a78b1e34c06a0926cd4f4dec6712395936ddf06c5177eba09c7581fc2f39f19f4c8b1e34c06a0926cd4f4dec6712395936ddf06c5177eba09c7581fc2f39f19f4da264697066735822122097e0f0cf27be4240bef37eaf4d0566b30948552438092d6d5024ee4818f23db864736f6c634300080f0033",
  "linkReferences": {},
  "deployedLinkReferences": {}
}