{
  "_format": "hh-sol-artifact-1",
  "contractName": "Tag",
  "sourceName": "contracts/community/2_tag/Tag.sol",
  "abi": [
    {
      "anonymous": false,
      "inputs": [
        {
          "indexed": true,
          "internalType": "address",
          "name": "owner",
          "type": "address"
        },
        {
          "indexed": true,
          "internalType": "address",
          "name": "operator",
          "type": "address"
        },
        {
          "indexed": true,
          "internalType": "uint256",
          "name": "tokenId",
          "type": "uint256"
        }
      ],
      "name": "Approval",
      "type": "event"
    },
    {
      "anonymous": false,
      "inputs": [
        {
          "indexed": true,
          "internalType": "address",
          "name": "owner",
          "type": "address"
        },
        {
          "indexed": true,
          "internalType": "address",
          "name": "operator",
          "type": "address"
        },
        {
          "indexed": false,
          "internalType": "bool",
          "name": "approved",
          "type": "bool"
        }
      ],
      "name": "ApprovalForAll",
      "type": "event"
    },
    {
      "anonymous": false,
      "inputs": [
        {
          "indexed": true,
          "internalType": "address",
          "name": "from",
          "type": "address"
        },
        {
          "indexed": true,
          "internalType": "address",
          "name": "to",
          "type": "address"
        },
        {
          "indexed": true,
          "internalType": "uint256",
          "name": "tokenId",
          "type": "uint256"
        }
      ],
      "name": "Transfer",
      "type": "event"
    },
    {
      "inputs": [],
      "name": "contractBalance",
      "outputs": [
        {
          "internalType": "uint256",
          "name": "",
          "type": "uint256"
        }
      ],
      "stateMutability": "view",
      "type": "function"
    },
    {
      "inputs": [],
      "name": "init",
      "outputs": [],
      "stateMutability": "nonpayable",
      "type": "function"
    },
    {
      "inputs": [
        {
          "internalType": "uint256",
          "name": "tokenId",
          "type": "uint256"
        },
        {
          "internalType": "string",
          "name": "mention",
          "type": "string"
        }
      ],
      "name": "levelup",
      "outputs": [],
      "stateMutability": "payable",
      "type": "function"
    },
    {
      "inputs": [
        {
          "internalType": "uint256",
          "name": "amount",
          "type": "uint256"
        }
      ],
      "name": "setMinLevelup",
      "outputs": [],
      "stateMutability": "nonpayable",
      "type": "function"
    },
    {
      "inputs": [
        {
          "internalType": "uint256",
          "name": "amount",
          "type": "uint256"
        }
      ],
      "name": "setMinValue",
      "outputs": [],
      "stateMutability": "nonpayable",
      "type": "function"
    },
    {
      "inputs": [
        {
          "internalType": "string",
          "name": "notification1",
          "type": "string"
        },
        {
          "internalType": "string",
          "name": "notification2",
          "type": "string"
        }
      ],
      "name": "setNotification",
      "outputs": [],
      "stateMutability": "nonpayable",
      "type": "function"
    },
    {
      "inputs": [
        {
          "internalType": "string",
          "name": "notion",
          "type": "string"
        }
      ],
      "name": "tag",
      "outputs": [],
      "stateMutability": "payable",
      "type": "function"
    },
    {
      "inputs": [],
      "name": "totalPower",
      "outputs": [
        {
          "internalType": "uint256",
          "name": "",
          "type": "uint256"
        }
      ],
      "stateMutability": "view",
      "type": "function"
    },
    {
      "inputs": [
        {
          "internalType": "address",
          "name": "userAddr",
          "type": "address"
        }
      ],
      "name": "userPower",
      "outputs": [
        {
          "internalType": "uint256",
          "name": "",
          "type": "uint256"
        }
      ],
      "stateMutability": "view",
      "type": "function"
    },
    {
      "inputs": [
        {
          "internalType": "uint256",
          "name": "amount",
          "type": "uint256"
        },
        {
          "internalType": "address",
          "name": "receiver",
          "type": "address"
        }
      ],
      "name": "withdraw",
      "outputs": [],
      "stateMutability": "nonpayable",
      "type": "function"
    }
  ],
  "bytecode": "0x608080604052346100165761179e908161001c8239f35b600080fdfe60806040526004361015610013575b600080fd5b6000803560e01c908162f714ce146100dd575080634d6e3452146100d45780637518d35c146100cb578063778faf81146100c25780638b7afe2e146100b95780639c1e8eaa146100b0578063db3ad22c146100a7578063db91774c1461009e578063e1c7392a146100955763e656619a1461008d57600080fd5b61000e610693565b5061000e61062c565b5061000e6105eb565b5061000e6105ad565b5061000e61056c565b5061000e61054f565b5061000e610469565b5061000e6101b9565b5061000e610152565b3461013957604036600319011261013957808080806004356100fd61013c565b610105610d37565b8290821561012f575b6001600160a01b031690f11561012357604051f35b604051903d90823e3d90fd5b6108fc915061010e565b80fd5b602435906001600160a01b038216820361000e57565b503461000e57602036600319011261000e576004356001600160a01b038116810361000e576001600160a01b031660009081527f8b1e34c06a0926cd4f4dec6712395936ddf06c5177eba09c7581fc2f39f19f4c6020908152604090912054604051908152f35b50602036600319011261000e5767ffffffffffffffff60043581811161000e573660238201121561000e57806004013591821161000e57366024838301011161000e577f8b1e34c06a0926cd4f4dec6712395936ddf06c5177eba09c7581fc2f39f19f479081549161022a83610dd1565b9055604051926102398461038f565b60008452331561030b576102fb6102f66103099561028061027b61027788600052600080516020611749833981519152602052604060002054151590565b1590565b610890565b3360009081527f3c7bf052874fa81625121783266a03507bd2cd48b16e571c01a04e8dd3fb07a8602052604090206102b9908790610a73565b506102c43387610988565b50853360007fddf252ad1be2c89b69c2b068fc378daa952ba7f163c4a11628f55a4df523b3ef81604051a48533610b5b565b61085e565b4392602434930190336112bb565b005b606460405162461bcd60e51b815260206004820152602060248201527f4552433732313a206d696e7420746f20746865207a65726f20616464726573736044820152fd5b50634e487b7160e01b600052604160045260246000fd5b6040810190811067ffffffffffffffff82111761038257604052565b61038a61034f565b604052565b6020810190811067ffffffffffffffff82111761038257604052565b6060810190811067ffffffffffffffff82111761038257604052565b90601f8019910116810190811067ffffffffffffffff82111761038257604052565b60209067ffffffffffffffff8111610407575b601f01601f19160190565b61040f61034f565b6103fc565b929192610420826103e9565b9161042e60405193846103c7565b82948184528183011161000e578281602093846000960137010152565b9080601f8301121561000e5781602061046693359101610414565b90565b50604036600319011261000e5760043560243567ffffffffffffffff811161000e5761049990369060040161044b565b8160005260008051602061174983398151915260205260406000205491821561050a576104ef6104e360016104d46103099660001901610922565b5001546001600160a01b031690565b6001600160a01b031690565b6105036001600160a01b0382161515610cf3565b3491611612565b60405162461bcd60e51b815260206004820152601e60248201527f456e756d657261626c654d61703a206e6f6e6578697374656e74206b657900006044820152606490fd5b503461000e57600036600319011261000e57602047604051908152f35b503461000e57602036600319011261000e57610586610d37565b6004357f8b1e34c06a0926cd4f4dec6712395936ddf06c5177eba09c7581fc2f39f19f4955005b503461000e57600036600319011261000e5760207f8b1e34c06a0926cd4f4dec6712395936ddf06c5177eba09c7581fc2f39f19f4e54604051908152f35b503461000e57602036600319011261000e57610605610d37565b6004357f8b1e34c06a0926cd4f4dec6712395936ddf06c5177eba09c7581fc2f39f19f4855005b503461000e57600036600319011261000e576402540be4007f8b1e34c06a0926cd4f4dec6712395936ddf06c5177eba09c7581fc2f39f19f4a5567016345785d8a00007f8b1e34c06a0926cd4f4dec6712395936ddf06c5177eba09c7581fc2f39f19f4855005b503461000e57604036600319011261000e5767ffffffffffffffff60043581811161000e576106c690369060040161044b565b9060243581811161000e576106df90369060040161044b565b906106e8610d37565b8251908111610811575b7f8b1e34c06a0926cd4f4dec6712395936ddf06c5177eba09c7581fc2f39f19f4f90610727816107228454610f12565b610f4c565b602080601f8311600114610768575081906103099560009261075d575b50508160011b916000199060031b1c19161790556110c0565b015190503880610744565b7f8b1e34c06a0926cd4f4dec6712395936ddf06c5177eba09c7581fc2f39f19f4f6000529194601f1986167fcc1fe7173d3f3b7ce5019b9db119237c0260ba0805c313a42542070edf6997e4936000905b8282106107f95750509160019391876103099894106107e0575b505050811b0190556110c0565b015160001960f88460031b161c191690553880806107d3565b806001869782949787015181550196019401906107b9565b61081961034f565b6106f2565b60207131b2b4bb32b91034b6b83632b6b2b73a32b960711b917f4552433732313a207472616e7366657220746f206e6f6e20455243373231526581520152565b1561086557565b60405162461bcd60e51b8152602060048201526032602482015260849061088e6044820161081e565bfd5b1561089757565b60405162461bcd60e51b815260206004820152601c60248201527f4552433732313a20746f6b656e20616c7265616479206d696e746564000000006044820152606490fd5b6000527f8b1e34c06a0926cd4f4dec6712395936ddf06c5177eba09c7581fc2f39f19f4b602052604060002090565b50634e487b7160e01b600052603260045260246000fd5b7f3c7bf052874fa81625121783266a03507bd2cd48b16e571c01a04e8dd3fb07a6805482101561097b575b60005260011b7f709a16c9caeafb61409212be896356f281c91d5c5b5cccb959477d20bb6240fb0190600090565b61098361090b565b61094d565b90600082815260008051602061174983398151915260205260408120548015600014610a5b5750604051916109bc83610366565b838352602083019081527f3c7bf052874fa81625121783266a03507bd2cd48b16e571c01a04e8dd3fb07a692610a058454600160401b811015610a4e575b600181018655610922565b939093610a3a575051825551600190910155546000918252600080516020611749833981519152602052604090912055600190565b634e487b7160e01b81526004819052602490fd5b610a5661034f565b6109fa565b6001919350610a6d9060001901610922565b50015590565b906001820160009082825280602052604082205415600014610ae35783836040949554600160401b811015610ad6575b60018101808455811015610ac9575b828552602085200155549382526020522055600190565b610ad161090b565b610ab2565b610ade61034f565b610aa3565b5091505090565b91908251928382526000905b848210610b23575092806020939411610b16575b601f01601f1916010190565b6000838284010152610b0a565b90602090818082850101519082860101520190610af6565b9081602091031261000e57516001600160e01b03198116810361000e5790565b919091803b15610bf757610ba7610bb5610bd793604051928391630a85bd0160e11b978860208501523360248501526000604485015260648401526080608484015260a4830190610aea565b03601f1981018352826103c7565b60405191610bc2836103ab565b60328352610bd26020840161081e565b610c40565b610bf263ffffffff60e01b9160208082518301019101610b3b565b161490565b505050600190565b3d15610c2a573d90610c10826103e9565b91610c1e60405193846103c7565b82523d6000602084013e565b606090565b906020610466928181520190610aea565b803b15610c9a5781600092918360208194519301915af190610c60610bff565b9115610c6a575090565b815115610c7a5750805190602001fd5b60405162461bcd60e51b8152908190610c969060048301610c2f565b0390fd5b60405162461bcd60e51b815260206004820152602b60248201527f416464726573735574696c733a2066756e6374696f6e2063616c6c20746f206e60448201526a1bdb8b58dbdb9d1c9858dd60aa1b6064820152608490fd5b15610cfa57565b60405162461bcd60e51b815260206004820152601560248201527422a9219b99189d1034b73b30b634b21037bbb732b960591b6044820152606490fd5b7fc8fcad8db84d3cc18b4c41d551ea0ee66dd599cde068d998e57d5e09332c1320546001600160a01b03163303610d6a57565b60405162461bcd60e51b815260206004820152602260248201527f4c69624469616d6f6e643a204d75737420626520636f6e7472616374206f776e60448201526132b960f11b6064820152608490fd5b50634e487b7160e01b600052601160045260246000fd5b6001906000198114610de1570190565b610de9610dba565b0190565b15610df457565b60405162461bcd60e51b815260206004820152602160248201527f546167496e7465726e616c3a206d696e696d756d2076616c7565206572726f726044820152601760f91b6064820152608490fd5b906020918051821015610e5557010190565b610e5d61090b565b010190565b8015610e70575b6000190190565b610e78610dba565b610e69565b818110610e88570390565b610e90610dba565b0390565b15610e9b57565b60405162461bcd60e51b815260206004820152602360248201527f546167496e7465726e616c3a206e6f74696f6e20737472696e67206f766572666044820152626c6f7760e81b6064820152608490fd5b90929192831161000e579190565b9093929384831161000e57841161000e578101920390565b90600182811c92168015610f42575b6020831014610f2c57565b634e487b7160e01b600052602260045260246000fd5b91607f1691610f21565b601f8111610f58575050565b6000907f8b1e34c06a0926cd4f4dec6712395936ddf06c5177eba09c7581fc2f39f19f4f82527fcc1fe7173d3f3b7ce5019b9db119237c0260ba0805c313a42542070edf6997e4906020601f850160051c83019410610fd2575b601f0160051c01915b828110610fc757505050565b818155600101610fbb565b9092508290610fb2565b601f8111610fe8575050565b6000907f8b1e34c06a0926cd4f4dec6712395936ddf06c5177eba09c7581fc2f39f19f5082527f39bc84a6f3fd6651d7e520c851b226ddc703ed288d6ba295f5e799cd02e8d994906020601f850160051c83019410611062575b601f0160051c01915b82811061105757505050565b81815560010161104b565b9092508290611042565b90601f811161107a57505050565b600091825260208220906020601f850160051c830194106110b6575b601f0160051c01915b8281106110ab57505050565b81815560010161109f565b9092508290611096565b90815167ffffffffffffffff81116111eb575b7f8b1e34c06a0926cd4f4dec6712395936ddf06c5177eba09c7581fc2f39f19f5090611108816111038454610f12565b610fdc565b602080601f8311600114611144575081929394600092611139575b50508160011b916000199060031b1c1916179055565b015190503880611123565b90601f198316956111967f8b1e34c06a0926cd4f4dec6712395936ddf06c5177eba09c7581fc2f39f19f506000527f39bc84a6f3fd6651d7e520c851b226ddc703ed288d6ba295f5e799cd02e8d99490565b926000905b8882106111d3575050836001959697106111ba575b505050811b019055565b015160001960f88460031b161c191690553880806111b0565b8060018596829496860151815501950193019061119b565b6111f361034f565b6110d3565b919091825167ffffffffffffffff81116112a2575b6112218161121b8454610f12565b8461106c565b602080601f83116001146112515750819293946000926111395750508160011b916000199060031b1c1916179055565b90601f1983169561126785600052602060002090565b926000905b88821061128a575050836001959697106111ba57505050811b019055565b8060018596829496860151815501950193019061126c565b6112aa61034f565b61120d565b81198111610de1570190565b91906112c9909593956108dc565b6112f67f8b1e34c06a0926cd4f4dec6712395936ddf06c5177eba09c7581fc2f39f19f4854861015610ded565b611301368784610414565b80519096606060218311156114815750602297885b611401575b50926113ab94926113a16113766113696113a6956113d29b9a986113f69d8015156000146113f857905b61135b60216113548486610e7d565b1115610e94565b61137061136983838b610eec565b3691610414565b97610efa565b61137f896116dc565b96600584015586600484015560006003840155886002840155600183016111f8565b6111f8565b6114ab565b7f8b1e34c06a0926cd4f4dec6712395936ddf06c5177eba09c7581fc2f39f19f4d546112af565b7f8b1e34c06a0926cd4f4dec6712395936ddf06c5177eba09c7581fc2f39f19f4d55565b565b50602190611345565b97600160fd1b611432611425611417848d610e43565b516001600160f81b03191690565b6001600160f81b03191690565b146114475761144090610e62565b9788611316565b6113f69850926113a16113766113696113a6956113d29b9a989561146e6113ab9b99610dd1565b9d5095989a9b509550505050929461131b565b906113f698506113a69250926113a16114a56113d29998966113ab98963691610414565b92611376565b6001600160a01b031660009081527f8b1e34c06a0926cd4f4dec6712395936ddf06c5177eba09c7581fc2f39f19f4c602052604090206114ec8282546112af565b905561151a7f8b1e34c06a0926cd4f4dec6712395936ddf06c5177eba09c7581fc2f39f19f4e9182546112af565b9055565b60018060a01b038251166bffffffffffffffffffffffff60a01b825416178155602060406002828501519360019485820155019301519081519167ffffffffffffffff8311611605575b61157c836115768754610f12565b8761106c565b81601f84116001146115b557509282939183926000946115aa575b50501b916000199060031b1c1916179055565b015192503880611597565b919083601f1981166115cc88600052602060002090565b946000905b888383106115eb57505050106111ba57505050811b019055565b8587015188559096019594850194879350908101906115d1565b61160d61034f565b611568565b6113ab906113d293926113a66113f69661164f7f8b1e34c06a0926cd4f4dec6712395936ddf06c5177eba09c7581fc2f39f19f4954871015610ded565b611658866116dc565b936002611664826108dc565b016116708882546112af565b9055600461167d826108dc565b016116898682546112af565b905560405191611698836103ab565b338352876020840152604083015260066116bd60076116b6846108dc565b01926108dc565b018054906116ca82610dd1565b9055600052602052604060002061151e565b6402540be4009004907f8b1e34c06a0926cd4f4dec6712395936ddf06c5177eba09c7581fc2f39f19f4a80548381946000190482118115151661173b575b029261029a81049081811061172e57039055565b611736610dba565b039055565b611743610dba565b61171a56fe3c7bf052874fa81625121783266a03507bd2cd48b16e571c01a04e8dd3fb07a7a2646970667358221220506684dc9db8b955f80644afb081079e5d10e6993bad812da39baad3d6df871e64736f6c634300080f0033",
  "linkReferences": {},
  "deployedLinkReferences": {}
}