{
  "_format": "hh-sol-artifact-1",
  "contractName": "Tag",
  "sourceName": "contracts/community/2_tag/Tag.sol",
  "abi": [
    {
      "anonymous": false,
      "inputs": [
        {
          "indexed": true,
          "internalType": "address",
          "name": "owner",
          "type": "address"
        },
        {
          "indexed": true,
          "internalType": "address",
          "name": "operator",
          "type": "address"
        },
        {
          "indexed": true,
          "internalType": "uint256",
          "name": "tokenId",
          "type": "uint256"
        }
      ],
      "name": "Approval",
      "type": "event"
    },
    {
      "anonymous": false,
      "inputs": [
        {
          "indexed": true,
          "internalType": "address",
          "name": "owner",
          "type": "address"
        },
        {
          "indexed": true,
          "internalType": "address",
          "name": "operator",
          "type": "address"
        },
        {
          "indexed": false,
          "internalType": "bool",
          "name": "approved",
          "type": "bool"
        }
      ],
      "name": "ApprovalForAll",
      "type": "event"
    },
    {
      "anonymous": false,
      "inputs": [
        {
          "indexed": true,
          "internalType": "address",
          "name": "from",
          "type": "address"
        },
        {
          "indexed": true,
          "internalType": "address",
          "name": "to",
          "type": "address"
        },
        {
          "indexed": true,
          "internalType": "uint256",
          "name": "tokenId",
          "type": "uint256"
        }
      ],
      "name": "Transfer",
      "type": "event"
    },
    {
      "inputs": [],
      "name": "contractBalance",
      "outputs": [
        {
          "internalType": "uint256",
          "name": "",
          "type": "uint256"
        }
      ],
      "stateMutability": "view",
      "type": "function"
    },
    {
      "inputs": [],
      "name": "init",
      "outputs": [],
      "stateMutability": "nonpayable",
      "type": "function"
    },
    {
      "inputs": [
        {
          "internalType": "uint256",
          "name": "tokenId",
          "type": "uint256"
        },
        {
          "internalType": "string",
          "name": "mention",
          "type": "string"
        }
      ],
      "name": "levelup",
      "outputs": [],
      "stateMutability": "payable",
      "type": "function"
    },
    {
      "inputs": [
        {
          "internalType": "string",
          "name": "notion",
          "type": "string"
        }
      ],
      "name": "newTag",
      "outputs": [],
      "stateMutability": "payable",
      "type": "function"
    },
    {
      "inputs": [
        {
          "internalType": "uint256",
          "name": "amount",
          "type": "uint256"
        }
      ],
      "name": "setMinLevelup",
      "outputs": [],
      "stateMutability": "nonpayable",
      "type": "function"
    },
    {
      "inputs": [
        {
          "internalType": "uint256",
          "name": "amount",
          "type": "uint256"
        }
      ],
      "name": "setMinValue",
      "outputs": [],
      "stateMutability": "nonpayable",
      "type": "function"
    },
    {
      "inputs": [
        {
          "internalType": "string",
          "name": "notification1",
          "type": "string"
        },
        {
          "internalType": "string",
          "name": "notification2",
          "type": "string"
        }
      ],
      "name": "setNotification",
      "outputs": [],
      "stateMutability": "nonpayable",
      "type": "function"
    },
    {
      "inputs": [],
      "name": "totalPower",
      "outputs": [
        {
          "internalType": "uint256",
          "name": "",
          "type": "uint256"
        }
      ],
      "stateMutability": "view",
      "type": "function"
    },
    {
      "inputs": [
        {
          "internalType": "address",
          "name": "userAddr",
          "type": "address"
        }
      ],
      "name": "userPower",
      "outputs": [
        {
          "internalType": "uint256",
          "name": "",
          "type": "uint256"
        }
      ],
      "stateMutability": "view",
      "type": "function"
    },
    {
      "inputs": [
        {
          "internalType": "uint256",
          "name": "amount",
          "type": "uint256"
        },
        {
          "internalType": "address",
          "name": "receiver",
          "type": "address"
        }
      ],
      "name": "withdraw",
      "outputs": [],
      "stateMutability": "nonpayable",
      "type": "function"
    },
    {
      "inputs": [
        {
          "internalType": "uint256",
          "name": "tokenId",
          "type": "uint256"
        }
      ],
      "name": "withdrawTag",
      "outputs": [],
      "stateMutability": "nonpayable",
      "type": "function"
    }
  ],
  "bytecode": "0x6080806040523461001657612069908161001c8239f35b600080fdfe60806040526004361015610013575b600080fd5b60003560e01c8062f714ce146100ee5780631b77f73a146100e5578063233d8c03146100dc5780634d6e3452146100d3578063778faf81146100ca5780638b7afe2e146100c15780639c1e8eaa146100b8578063db3ad22c146100af578063db91774c146100a6578063e1c7392a1461009d5763e656619a1461009557600080fd5b61000e610852565b5061000e6107c0565b5061000e61077f565b5061000e610753565b5061000e610712565b5061000e6106f5565b5061000e6105c4565b5061000e610462565b5061000e6102ce565b5061000e610149565b503461000e57604036600319011261000e576004356024356001600160a01b0381169081900361000e57600080809381936101276113f5565b828215610140575bf115610138575b005b610136611478565b506108fc61012f565b503461000e57602036600319011261000e5760043561018281600052600080516020611fd4833981519152602052604060002054151590565b1561027d57806101c161019761013693610f90565b6001600160a01b03818116331491821561025b575b821561020e575b5081156101d8575b50610f0b565b6101d36101cd82610f90565b82611c84565b61112d565b7fc8fcad8db84d3cc18b4c41d551ea0ee66dd599cde068d998e57d5e09332c132054166001600160a01b031690503314386101bb565b6001600160a01b031660009081527f3c7bf052874fa81625121783266a03507bd2cd48b16e571c01a04e8dd3fb07aa6020908152604080832033845290915290205460ff169150386101b3565b91503361027661026a86611070565b6001600160a01b031690565b14916101ac565b60405162461bcd60e51b815260206004820152602360248201527f4552433732313a20717565727920666f72206e6f6e6578697374656e7420746f60448201526235b2b760e91b6064820152608490fd5b50602036600319011261000e5767ffffffffffffffff60043581811161000e573660238201121561000e57806004013591821161000e57366024838301011161000e577f8b1e34c06a0926cd4f4dec6712395936ddf06c5177eba09c7581fc2f39f19f479081549161033f8361149c565b90556040519261034e846104db565b60008452331561041e5761041061040b6101369561039561039061038c88600052600080516020611fd4833981519152602052604060002054151590565b1590565b610a4f565b3360009081527f3c7bf052874fa81625121783266a03507bd2cd48b16e571c01a04e8dd3fb07a8602052604090206103ce908790610c82565b506103d93387610b85565b50853360007fddf252ad1be2c89b69c2b068fc378daa952ba7f163c4a11628f55a4df523b3ef81604051a48533610d73565b610a1d565b439260243493019033611899565b606460405162461bcd60e51b815260206004820152602060248201527f4552433732313a206d696e7420746f20746865207a65726f20616464726573736044820152fd5b503461000e57602036600319011261000e576004356001600160a01b038116810361000e57610492602091610a9b565b54604051908152f35b50634e487b7160e01b600052604160045260246000fd5b6040810190811067ffffffffffffffff8211176104ce57604052565b6104d661049b565b604052565b6020810190811067ffffffffffffffff8211176104ce57604052565b6060810190811067ffffffffffffffff8211176104ce57604052565b90601f8019910116810190811067ffffffffffffffff8211176104ce57604052565b60405190610542826104f7565b565b60209067ffffffffffffffff8111610562575b601f01601f19160190565b61056a61049b565b610557565b92919261057b82610544565b916105896040519384610513565b82948184528183011161000e578281602093846000960137010152565b9080601f8301121561000e578160206105c19335910161056f565b90565b50604036600319011261000e5760243560043567ffffffffffffffff821161000e576105f76106c79236906004016105a6565b6106c261060383610f90565b916106317f8b1e34c06a0926cd4f4dec6712395936ddf06c5177eba09c7581fc2f39f19f4e543410156114b8565b6106bd61063d34611e52565b94600261064982610ad4565b0161065534825461188d565b9055600461066282610ad4565b0161066e87825461188d565b9055610678610535565b338152923460208501526040840152600661069e600761069784610ad4565b0192610ad4565b01908154916106ac8361149c565b905590600052602052604060002090565b611d61565b611bb7565b6101366106e334600080516020611ff48339815191525461188d565b600080516020611ff483398151915255565b503461000e57600036600319011261000e57602047604051908152f35b503461000e57602036600319011261000e5761072c6113f5565b6004357f8b1e34c06a0926cd4f4dec6712395936ddf06c5177eba09c7581fc2f39f19f4e55005b503461000e57600036600319011261000e57602060008051602061201483398151915254604051908152f35b503461000e57602036600319011261000e576107996113f5565b6004357f8b1e34c06a0926cd4f4dec6712395936ddf06c5177eba09c7581fc2f39f19f4855005b503461000e57600036600319011261000e576402540be4007f8b1e34c06a0926cd4f4dec6712395936ddf06c5177eba09c7581fc2f39f19f4955670de0b6b3a76400007f8b1e34c06a0926cd4f4dec6712395936ddf06c5177eba09c7581fc2f39f19f485567016345785d8a00007f8b1e34c06a0926cd4f4dec6712395936ddf06c5177eba09c7581fc2f39f19f4e55005b503461000e57604036600319011261000e5767ffffffffffffffff60043581811161000e576108859036906004016105a6565b9060243581811161000e5761089e9036906004016105a6565b906108a76113f5565b82519081116109d0575b7f8b1e34c06a0926cd4f4dec6712395936ddf06c5177eba09c7581fc2f39f19f4f906108e6816108e1845461150e565b61155f565b602080601f8311600114610927575081906101369560009261091c575b50508160011b916000199060031b1c191617905561168e565b015190503880610903565b7f8b1e34c06a0926cd4f4dec6712395936ddf06c5177eba09c7581fc2f39f19f4f6000529194601f1986167fcc1fe7173d3f3b7ce5019b9db119237c0260ba0805c313a42542070edf6997e4936000905b8282106109b857505091600193918761013698941061099f575b505050811b01905561168e565b015160001960f88460031b161c19169055388080610992565b80600186978294978701518155019601940190610978565b6109d861049b565b6108b1565b60207131b2b4bb32b91034b6b83632b6b2b73a32b960711b917f4552433732313a207472616e7366657220746f206e6f6e20455243373231526581520152565b15610a2457565b60405162461bcd60e51b81526020600482015260326024820152608490610a4d604482016109dd565bfd5b15610a5657565b60405162461bcd60e51b815260206004820152601c60248201527f4552433732313a20746f6b656e20616c7265616479206d696e746564000000006044820152606490fd5b6001600160a01b031660009081527f8b1e34c06a0926cd4f4dec6712395936ddf06c5177eba09c7581fc2f39f19f4b6020526040902090565b6000527f8b1e34c06a0926cd4f4dec6712395936ddf06c5177eba09c7581fc2f39f19f4a602052604060002090565b50634e487b7160e01b600052603260045260246000fd5b600080516020611fb48339815191528054821015610b61575b60005260011b7f709a16c9caeafb61409212be896356f281c91d5c5b5cccb959477d20bb6240fb0190600090565b610b69610b03565b610b33565b50634e487b7160e01b600052600060045260246000fd5b9081600052600080516020611fd48339815191526020526040600020548015600014610c425750610c2290604051610bbc816104b2565b838152602081019182526001600080516020611fb483398151915292610bf48454600160401b811015610c35575b8381018655610b1a565b939093610c28575b518355519101555491600052600080516020611fd4833981519152602052604060002090565b55600190565b610c30610b6e565b610bfc565b610c3d61049b565b610bea565b6001919250610c549060001901610b1a565b500155600090565b8054821015610c75575b60005260206000200190600090565b610c7d610b03565b610c66565b6001810190826000528160205260406000205415600014610cfa5782610cd8610cbf8354600160401b811015610ced575b60018101855584610c5c565b819391549060031b600019811b9283911b169119161790565b90555491600052602052604060002055600190565b610cf561049b565b610cb3565b505050600090565b91908251928382526000905b848210610d3b575092806020939411610d2e575b601f01601f1916010190565b6000838284010152610d22565b90602090818082850101519082860101520190610d0e565b9081602091031261000e57516001600160e01b03198116810361000e5790565b919091803b15610e0f57610dbf610dcd610def93604051928391630a85bd0160e11b978860208501523360248501526000604485015260648401526080608484015260a4830190610d02565b03601f198101835282610513565b60405191610dda836104f7565b60328352610dea602084016109dd565b610e58565b610e0a63ffffffff60e01b9160208082518301019101610d53565b161490565b505050600190565b3d15610e42573d90610e2882610544565b91610e366040519384610513565b82523d6000602084013e565b606090565b9060206105c1928181520190610d02565b803b15610eb25781600092918360208194519301915af190610e78610e17565b9115610e82575090565b815115610e925750805190602001fd5b60405162461bcd60e51b8152908190610eae9060048301610e47565b0390fd5b60405162461bcd60e51b815260206004820152602b60248201527f416464726573735574696c733a2066756e6374696f6e2063616c6c20746f206e60448201526a1bdb8b58dbdb9d1c9858dd60aa1b6064820152608490fd5b15610f1257565b60405162461bcd60e51b8152602060048201526012602482015271151859ce881858d8d95cdcc819195b9e595960721b6044820152606490fd5b15610f5357565b60405162461bcd60e51b815260206004820152601560248201527422a9219b99189d1034b73b30b634b21037bbb732b960591b6044820152606490fd5b600052600080516020611fd4833981519152602052604060002054801561102b5761026a7f709a16c9caeafb61409212be896356f281c91d5c5b5cccb959477d20bb6240fc61100a9260001901600080516020611fb4833981519152805482101561101e575b60005260011b01546001600160a01b031690565b6105c16001600160a01b0382161515610f4c565b611026610b03565b610ff6565b60405162461bcd60e51b815260206004820152601e60248201527f456e756d657261626c654d61703a206e6f6e6578697374656e74206b657900006044820152606490fd5b61109481600052600080516020611fd4833981519152602052604060002054151590565b156110d35760009081527f3c7bf052874fa81625121783266a03507bd2cd48b16e571c01a04e8dd3fb07a960205260409020546001600160a01b031690565b60405162461bcd60e51b815260206004820152602c60248201527f4552433732313a20617070726f76656420717565727920666f72206e6f6e657860448201526b34b9ba32b73a103a37b5b2b760a11b6064820152608490fd5b61113681610f90565b60008281527f3c7bf052874fa81625121783266a03507bd2cd48b16e571c01a04e8dd3fb07a96020526040812080546001600160a01b0319169055906001600160a01b039083838361118783610f90565b167f8c5be1e5ebec7d5bd14f71427d1e84f3dd0314c0f7b2291e5b200ac8c7c3b92582604051a46001600160a01b03811660009081527f3c7bf052874fa81625121783266a03507bd2cd48b16e571c01a04e8dd3fb07a8602052604090206111f0908590611359565b506111fa8461128c565b50167fddf252ad1be2c89b69c2b068fc378daa952ba7f163c4a11628f55a4df523b3ef82604051a4565b50634e487b7160e01b600052603160045260246000fd5b600080516020611fb48339815191528054801561127f575b60001901906000600161126584610b1a565b611272575b828155015555565b61127a610b6e565b61126a565b611287611224565b611253565b6000818152600080516020611fd48339815191526020526040902054801561135257600091610c229161130c84196112e06112d782600080516020611fb48339815191525401610b1a565b50918401610b1a565b611345575b818103611332575b5054600052600080516020611fd4833981519152602052604060002090565b5561131561123b565b600052600080516020611fd4833981519152602052604060002090565b81548155600180830154910155386112ed565b61134d610b6e565b6112e5565b5050600090565b6000828152600182016020819052604082205491939180156113ee57610c22936000199161138a8383540183610c5c565b90549060031b1c806113a1610cbf86850186610c5c565b9055875283602052604087205581815480156113e1575b01916113c48383610c5c565b909182549160031b1b191690555590600052602052604060002090565b6113e9611224565b6113b8565b5050505090565b7fc8fcad8db84d3cc18b4c41d551ea0ee66dd599cde068d998e57d5e09332c1320546001600160a01b0316330361142857565b60405162461bcd60e51b815260206004820152602260248201527f4c69624469616d6f6e643a204d75737420626520636f6e7472616374206f776e60448201526132b960f11b6064820152608490fd5b506040513d6000823e3d90fd5b50634e487b7160e01b600052601160045260246000fd5b60019060001981146114ac570190565b6114b4611485565b0190565b156114bf57565b60405162461bcd60e51b815260206004820152602160248201527f546167496e7465726e616c3a206d696e696d756d2076616c7565206572726f726044820152601760f91b6064820152608490fd5b90600182811c9216801561153e575b602083101461152857565b634e487b7160e01b600052602260045260246000fd5b91607f169161151d565b818110611553575050565b60008155600101611548565b90601f821161156c575050565b610542917f8b1e34c06a0926cd4f4dec6712395936ddf06c5177eba09c7581fc2f39f19f4f6000527fcc1fe7173d3f3b7ce5019b9db119237c0260ba0805c313a42542070edf6997e4906020601f840160051c830193106115d5575b601f0160051c0190611548565b90915081906115c8565b90601f82116115ec575050565b610542917f8b1e34c06a0926cd4f4dec6712395936ddf06c5177eba09c7581fc2f39f19f506000527f39bc84a6f3fd6651d7e520c851b226ddc703ed288d6ba295f5e799cd02e8d994906020601f840160051c830193106115d557601f0160051c0190611548565b9190601f811161166357505050565b610542926000526020600020906020601f840160051c830193106115d557601f0160051c0190611548565b90815167ffffffffffffffff81116117b9575b7f8b1e34c06a0926cd4f4dec6712395936ddf06c5177eba09c7581fc2f39f19f50906116d6816116d1845461150e565b6115df565b602080601f8311600114611712575081929394600092611707575b50508160011b916000199060031b1c1916179055565b0151905038806116f1565b90601f198316956117647f8b1e34c06a0926cd4f4dec6712395936ddf06c5177eba09c7581fc2f39f19f506000527f39bc84a6f3fd6651d7e520c851b226ddc703ed288d6ba295f5e799cd02e8d99490565b926000905b8882106117a157505083600195969710611788575b505050811b019055565b015160001960f88460031b161c1916905538808061177e565b80600185968294968601518155019501930190611769565b6117c161049b565b6116a1565b919091825167ffffffffffffffff8111611870575b6117ef816117e9845461150e565b84611654565b602080601f831160011461181f5750819293946000926117075750508160011b916000199060031b1c1916179055565b90601f1983169561183585600052602060002090565b926000905b8882106118585750508360019596971061178857505050811b019055565b8060018596829496860151815501950193019061183a565b61187861049b565b6117db565b60029060021981116114ac570190565b811981116114ac570190565b9491929395909560009687527f8b1e34c06a0926cd4f4dec6712395936ddf06c5177eba09c7581fc2f39f19f4a60205260408720956118fb7f8b1e34c06a0926cd4f4dec6712395936ddf06c5177eba09c7581fc2f39f19f48548310156114b8565b61190482611e52565b9060609589988a968b998c9961191b36838761056f565b9a5b8b51811015611b06578c8f91806119668f9261194d61193f6119599286611ebe565b516001600160f81b03191690565b60071c600160f81b1690565b6001600160f81b03191690565b611a51576001925b1580928193611a29575b506119f7575b906119a260429f9e9d9c9b9a99989796959493928361199c9161188d565b9d61187d565b9e8f116119be575b5050509091929394959697989a999a61191d565b90929d50929e926119d0919e50611edd565b60019c5081156119e757505b9b8d9a8e38806119aa565b6119f2915089611beb565b6119dc565b9d9c9b9a9998979695949392919f508f90611a138f839061188d565b9150909f9192939495969798999a9b9c9d61197e565b600160fd1b91506001600160f81b031990611a499061193f908590611ebe565b16148f611978565b6001600160f81b0319600360f91b81611a7c611a7061193f8688611ebe565b60051c600760f81b1690565b1603611a8b575060029261196e565b929d92600760f91b81611ab0611aa461193f8688611ebe565b60041c600f60f81b1690565b1603611ac85750611ac260039361149c565b9d61196e565b600f60f91b90611aea611ade61193f8587611ebe565b60031c601f60f81b1690565b1603611afb57611ac260049361187d565b60019d929d9261196e565b916106c297999e93949596989b50611b869a6105429e926106e39e600014611b9b57509282611b5392611b45611b6095611b8199989760011c10611f35565b611b5a611b5383838d611f8d565b369161056f565b99611f9b565b915b60058501558760048501556003840155886002840155600183016117c6565b6117c6565b600080516020611ff48339815191525461188d565b94935050611bb1915095611b819496369161056f565b94611b62565b611bc090610a9b565b611bcb82825461188d565b9055611be760008051602061201483398151915291825461188d565b9055565b818110611bf6570390565b611bfe611485565b0390565b611c0c815461150e565b9081611c16575050565b81601f60009311600114611c28575055565b81835260208320611c4491601f0160051c810190600101611548565b8160208120915555565b6006600091611c5c81611c02565b611c6860018201611c02565b8260028201558260038201558260048201558260058201550155565b6000808093928193611d27611d22611c9b84610ad4565b93611d1d6106e360028701611d07611cf56004606460508554808f1904821181151516611d54575b02049a018054611cdd611cd58c610a9b565b918254611beb565b90555460008051602061201483398151915254611beb565b60008051602061201483398151915255565b54600080516020611ff483398151915254611beb565b610ad4565b611c4e565b82908215611d4a575b6001600160a01b031690f115611d4257565b610542611478565b6108fc9150611d30565b611d5c611485565b611cc3565b815181546001600160a01b0319166001600160a01b0391909116178155602060406002828501519360019485820155019301519081519167ffffffffffffffff8311611e45575b611dbc83611db6875461150e565b87611654565b81601f8411600114611df55750928293918392600094611dea575b50501b916000199060031b1c1916179055565b015192503880611dd7565b919083601f198116611e0c88600052602060002090565b946000905b88838310611e2b575050501061178857505050811b019055565b858701518855909601959485019487935090810190611e11565b611e4d61049b565b611da8565b6402540be4009004907f8b1e34c06a0926cd4f4dec6712395936ddf06c5177eba09c7581fc2f39f19f49805483819460001904821181151516611eb1575b029261029a810490818110611ea457039055565b611eac611485565b039055565b611eb9611485565b611e90565b906020918051821015611ed057010190565b611ed8610b03565b010190565b15611ee457565b60405162461bcd60e51b815260206004820152602360248201527f546167496e7465726e616c3a20696e70757420737472696e67206f766572666c6044820152626f773160e81b6064820152608490fd5b15611f3c57565b60405162461bcd60e51b815260206004820152602360248201527f546167496e7465726e616c3a20696e70757420737472696e67206f766572666c60448201526237bb9960e91b6064820152608490fd5b90929192831161000e579190565b9093929384831161000e57841161000e57810192039056fe3c7bf052874fa81625121783266a03507bd2cd48b16e571c01a04e8dd3fb07a63c7bf052874fa81625121783266a03507bd2cd48b16e571c01a04e8dd3fb07a78b1e34c06a0926cd4f4dec6712395936ddf06c5177eba09c7581fc2f39f19f4c8b1e34c06a0926cd4f4dec6712395936ddf06c5177eba09c7581fc2f39f19f4da2646970667358221220f6c34d7665971fe8eace6d8abd8b0b118468d47eadd5602295d087fb6d7903c364736f6c634300080f0033",
  "linkReferences": {},
  "deployedLinkReferences": {}
}