{
  "_format": "hh-sol-artifact-1",
  "contractName": "DiamondInit",
  "sourceName": "contracts/community/0_diamond/upgradeInitializers/DiamondInit.sol",
  "abi": [
    {
      "inputs": [],
      "name": "init",
      "outputs": [],
      "stateMutability": "nonpayable",
      "type": "function"
    }
  ],
  "bytecode": "0x608080604052346100155760ed908161001b8239f35b600080fdfe6004361015600c57600080fd5b6000803560e01c63e1c7392a14602157600080fd5b3460b4578060031936011260b4576301ffc9a760e01b81527fc8fcad8db84d3cc18b4c41d551ea0ee66dd599cde068d998e57d5e09332c131f60205260408082208054600160ff1991821681179092556307e4c70760e21b845282842080548216831790556348e2b09360e01b845282842080548216831790556307f5828d60e41b845291832080549092161790556080f35b80fdfea2646970667358221220019683d74e0ea0646b1a4c4f34dc86d6415e76ad30e800a747ff5532d64f643f64736f6c634300080f0033",
  "linkReferences": {},
  "deployedLinkReferences": {}
}