{
  "_format": "hh-sol-artifact-1",
  "contractName": "Factory4",
  "sourceName": "contracts/collection-4-factory/Factory4.sol",
  "abi": [
    {
      "anonymous": false,
      "inputs": [
        {
          "indexed": false,
          "internalType": "string",
          "name": "creatorName",
          "type": "string"
        },
        {
          "indexed": false,
          "internalType": "string",
          "name": "tokenName",
          "type": "string"
        },
        {
          "indexed": false,
          "internalType": "string",
          "name": "tokenSymbol",
          "type": "string"
        },
        {
          "indexed": false,
          "internalType": "uint256",
          "name": "totalSupply",
          "type": "uint256"
        },
        {
          "indexed": false,
          "internalType": "address",
          "name": "creatorAddress",
          "type": "address"
        },
        {
          "indexed": false,
          "internalType": "address",
          "name": "contractAddress",
          "type": "address"
        },
        {
          "indexed": false,
          "internalType": "uint96",
          "name": "defaultRoyalty",
          "type": "uint96"
        }
      ],
      "name": "NewCollection",
      "type": "event"
    },
    {
      "inputs": [],
      "name": "collectionCont",
      "outputs": [
        {
          "internalType": "contract Collection4",
          "name": "",
          "type": "address"
        }
      ],
      "stateMutability": "view",
      "type": "function"
    },
    {
      "inputs": [
        {
          "internalType": "string",
          "name": "creatorName",
          "type": "string"
        },
        {
          "internalType": "string",
          "name": "tokenName",
          "type": "string"
        },
        {
          "internalType": "string",
          "name": "tokenSymbol",
          "type": "string"
        },
        {
          "internalType": "string",
          "name": "baseURI",
          "type": "string"
        },
        {
          "internalType": "bool",
          "name": "_sameURIForAllTokens",
          "type": "bool"
        },
        {
          "internalType": "uint256",
          "name": "totalSupply",
          "type": "uint256"
        },
        {
          "internalType": "uint96",
          "name": "royaltyNumerator",
          "type": "uint96"
        },
        {
          "internalType": "address",
          "name": "royaltyReciever",
          "type": "address"
        }
      ],
      "name": "newCollection",
      "outputs": [],
      "stateMutability": "nonpayable",
      "type": "function"
    }
  ],
  "bytecode": "0x60806040526040516100109061005f565b604051809103906000f08015801561002c573d6000803e3d6000fd5b50600080546001600160a01b0319166001600160a01b039290921691909117905534801561005957600080fd5b5061006c565b612ec4806105c483390190565b6105498061007b6000396000f3fe608060405234801561001057600080fd5b50600436106100365760003560e01c8063036ad23e1461003b578063dc19fb221461006a575b600080fd5b60005461004e906001600160a01b031681565b6040516001600160a01b03909116815260200160405180910390f35b61007d6100783660046102d6565b61007f565b005b60008054610095906001600160a01b0316610154565b604051632df5980d60e01b81529091506001600160a01b03821690632df5980d906100d4908c908c908c908c908c908c9033908d908d9060040161040c565b600060405180830381600087803b1580156100ee57600080fd5b505af1158015610102573d6000803e3d6000fd5b505050507f92f2bc38db5b0fcb7ee8737fb757a827b49bf595586eae09e6218f670a97a3c389898987338689604051610141979695949392919061049f565b60405180910390a1505050505050505050565b6000604051733d602d80600a3d3981f3363d3d373d3d3d363d7360601b81528260601b60148201526e5af43d82803e903d91602b57fd5bf360881b60288201526037816000f09150506001600160a01b0381166101f05760405162461bcd60e51b8152602060048201526016602482015275115490cc4c4d8dce8818dc99585d194819985a5b195960521b604482015260640160405180910390fd5b919050565b634e487b7160e01b600052604160045260246000fd5b600082601f83011261021c57600080fd5b813567ffffffffffffffff80821115610237576102376101f5565b604051601f8301601f19908116603f0116810190828211818310171561025f5761025f6101f5565b8160405283815286602085880101111561027857600080fd5b836020870160208301376000602085830101528094505050505092915050565b803580151581146101f057600080fd5b80356001600160601b03811681146101f057600080fd5b80356001600160a01b03811681146101f057600080fd5b600080600080600080600080610100898b0312156102f357600080fd5b883567ffffffffffffffff8082111561030b57600080fd5b6103178c838d0161020b565b995060208b013591508082111561032d57600080fd5b6103398c838d0161020b565b985060408b013591508082111561034f57600080fd5b61035b8c838d0161020b565b975060608b013591508082111561037157600080fd5b5061037e8b828c0161020b565b95505061038d60808a01610298565b935060a089013592506103a260c08a016102a8565b91506103b060e08a016102bf565b90509295985092959890939650565b6000815180845260005b818110156103e5576020818501810151868301820152016103c9565b818111156103f7576000602083870101525b50601f01601f19169290920160200192915050565b60006101208083526104208184018d6103bf565b90508281036020840152610434818c6103bf565b90508281036040840152610448818b6103bf565b9050828103606084015261045c818a6103bf565b9715156080840152505060a08101949094526001600160a01b0392831660c08501526001600160601b039190911660e08401521661010090910152949350505050565b60e0815260006104b260e083018a6103bf565b82810360208401526104c4818a6103bf565b905082810360408401526104d881896103bf565b606084019790975250506001600160a01b0393841660808201529190921660a08201526001600160601b0390911660c090910152939250505056fea2646970667358221220ea939ea49922755dec96a8f62b13a269171713509384306110eab896e75fd09d64736f6c634300080d003360806040523480156200001157600080fd5b506200001c62000022565b62000152565b6200002e60ff62000031565b50565b60008054610100900460ff1615620000ca578160ff1660011480156200006a575062000068306200014360201b6200149d1760201c565b155b620000c25760405162461bcd60e51b815260206004820152602e602482015260008051602062002ea483398151915260448201526d191e481a5b9a5d1a585b1a5e995960921b60648201526084015b60405180910390fd5b506000919050565b60005460ff808416911610620001295760405162461bcd60e51b815260206004820152602e602482015260008051602062002ea483398151915260448201526d191e481a5b9a5d1a585b1a5e995960921b6064820152608401620000b9565b506000805460ff191660ff92909216919091179055600190565b6001600160a01b03163b151590565b612d4280620001626000396000f3fe608060405234801561001057600080fd5b50600436106102325760003560e01c80636c0360eb11610130578063b11560c5116100b8578063c87b56dd1161007c578063c87b56dd146104a6578063d5abeb01146104b9578063dcd83616146104c3578063e985e9c5146104cb578063f2fde38b1461050757600080fd5b8063b11560c514610457578063b64b21ca1461046a578063b88d4fde1461047d578063bb99e70114610490578063c43971151461049857600080fd5b80638a616bc0116100ff5780638a616bc01461040f5780638da5cb5b1461042257806395d89b4114610434578063a22cb4651461043c578063aa1b103f1461044f57600080fd5b80636c0360eb146103d957806370a08231146103e1578063715018a6146103f4578063740d73f3146103fc57600080fd5b80632f745c59116101be578063539b2ba411610182578063539b2ba4146103905780635944c7531461039857806360eb9485146103ab5780636352211e146103be5780636871ee40146103d157600080fd5b80632f745c591461033157806340d097c31461034457806342842e0e1461035757806342966c681461036a5780634f6ccce71461037d57600080fd5b806318160ddd1161020557806318160ddd146102b457806323b872dd146102c657806326552278146102d95780632a55205a146102ec5780632df5980d1461031e57600080fd5b806301ffc9a71461023757806306fdde031461025f578063081812fc14610274578063095ea7b31461029f575b600080fd5b61024a6102453660046123bc565b61051a565b60405190151581526020015b60405180910390f35b61026761052b565b6040516102569190612438565b61028761028236600461244b565b6105bd565b6040516001600160a01b039091168152602001610256565b6102b26102ad36600461247b565b610657565b005b60cb545b604051908152602001610256565b6102b26102d43660046124a5565b61076c565b6102b26102e7366004612528565b61079e565b6102ff6102fa3660046125d5565b610820565b604080516001600160a01b039093168352602083019190915201610256565b6102b261032c366004612696565b6108cc565b6102b861033f36600461247b565b610a1f565b6102b2610352366004612790565b610ab5565b6102b26103653660046124a5565b610b0b565b6102b261037836600461244b565b610b26565b6102b861038b36600461244b565b610ba0565b6102b2610c33565b6102b26103a63660046127ab565b610c6e565b6102b26103b93660046127e7565b610d3c565b6102876103cc36600461244b565b610d7b565b6102b2610df2565b610267610eac565b6102b86103ef366004612790565b610f3b565b6102b2610fc2565b6102b261040a366004612528565b610ff9565b6102b261041d36600461244b565b61108d565b61015f546001600160a01b0316610287565b6102676110c9565b6102b261044a36600461281c565b6110d8565b6102b26110e3565b6102b2610465366004612528565b611118565b6102b261047836600461284f565b6111ac565b6102b261048b366004612894565b611239565b610267611271565b6101955461024a9060ff1681565b6102676104b436600461244b565b61127f565b6102b86101965481565b6102b26113cc565b61024a6104d9366004612910565b6001600160a01b039182166000908152609c6020908152604080832093909416825291909152205460ff1690565b6102b2610515366004612790565b611404565b6000610525826114ac565b92915050565b60606097805461053a9061293a565b80601f01602080910402602001604051908101604052809291908181526020018280546105669061293a565b80156105b35780601f10610588576101008083540402835291602001916105b3565b820191906000526020600020905b81548152906001019060200180831161059657829003601f168201915b5050505050905090565b6000818152609960205260408120546001600160a01b031661063b5760405162461bcd60e51b815260206004820152602c60248201527f4552433732313a20617070726f76656420717565727920666f72206e6f6e657860448201526b34b9ba32b73a103a37b5b2b760a11b60648201526084015b60405180910390fd5b506000908152609b60205260409020546001600160a01b031690565b600061066282610d7b565b9050806001600160a01b0316836001600160a01b0316036106cf5760405162461bcd60e51b815260206004820152602160248201527f4552433732313a20617070726f76616c20746f2063757272656e74206f776e656044820152603960f91b6064820152608401610632565b336001600160a01b03821614806106eb57506106eb81336104d9565b61075d5760405162461bcd60e51b815260206004820152603860248201527f4552433732313a20617070726f76652063616c6c6572206973206e6f74206f7760448201527f6e6572206e6f7220617070726f76656420666f7220616c6c00000000000000006064820152608401610632565b61076783836114b7565b505050565b610777335b82611525565b6107935760405162461bcd60e51b815260040161063290612974565b61076783838361161c565b61015f546001600160a01b031633146107c95760405162461bcd60e51b8152600401610632906129c5565b6000805b8251811015610767576101915491506107eb61019180546001019055565b61080e838281518110610800576108006129fa565b6020026020010151836117c3565b8061081881612a26565b9150506107cd565b60008281526066602090815260408083208151808301909252546001600160a01b038116808352600160a01b9091046001600160601b03169282019290925282916108955750604080518082019091526065546001600160a01b0381168252600160a01b90046001600160601b031660208201525b6020810151600090612710906108b4906001600160601b031687612a3f565b6108be9190612a74565b915196919550909350505050565b60006108d860016117dd565b905080156108f0576000805461ff0019166101001790555b8951610904906101939060208d019061230d565b5061090f898961186a565b61091761189b565b61091f61189b565b610928846118c2565b865161093c906101949060208a019061230d565b50610195805460ff19168715151790556101968590556001600160601b038316156109cd576001600160a01b0382166109c35760405162461bcd60e51b8152602060048201526024808201527f436f6c6c656374696f6e3a20496e76616c696420526f79616c7479207265636560448201526334bb32b960e11b6064820152608401610632565b6109cd82846118e9565b8015610a13576000805461ff0019169055604051600181527f7f26b83ff96e1f2b6a682f133852f6798a09c465da95921460cefb38474024989060200160405180910390a15b50505050505050505050565b6000610a2a83610f3b565b8210610a8c5760405162461bcd60e51b815260206004820152602b60248201527f455243373231456e756d657261626c653a206f776e657220696e646578206f7560448201526a74206f6620626f756e647360a81b6064820152608401610632565b506001600160a01b0391909116600090815260c960209081526040808320938352929052205490565b61015f546001600160a01b03163314610ae05760405162461bcd60e51b8152600401610632906129c5565b6000610aec6101915490565b9050610afd61019180546001019055565b610b0782826117c3565b5050565b61076783838360405180602001604052806000815250611239565b610b2f33610771565b610b945760405162461bcd60e51b815260206004820152603060248201527f4552433732314275726e61626c653a2063616c6c6572206973206e6f74206f7760448201526f1b995c881b9bdc88185c1c1c9bdd995960821b6064820152608401610632565b610b9d816119e6565b50565b6000610bab60cb5490565b8210610c0e5760405162461bcd60e51b815260206004820152602c60248201527f455243373231456e756d657261626c653a20676c6f62616c20696e646578206f60448201526b7574206f6620626f756e647360a01b6064820152608401610632565b60cb8281548110610c2157610c216129fa565b90600052602060002001549050919050565b61015f546001600160a01b03163314610c5e5760405162461bcd60e51b8152600401610632906129c5565b610197805460ff19166001179055565b61015f546001600160a01b03163314610c995760405162461bcd60e51b8152600401610632906129c5565b610ca283610d7b565b6001600160a01b0316336001600160a01b031614610d325760405162461bcd60e51b815260206004820152604160248201527f436f6c6c656374696f6e3a20796f75206d75737420626520746865206f776e6560448201527f72206f662074686520746f6b656e20746f207365742074686520726f79616c746064820152607960f81b608482015260a401610632565b61076782826118e9565b61015f546001600160a01b03163314610d675760405162461bcd60e51b8152600401610632906129c5565b8051610b079061019390602084019061230d565b6000818152609960205260408120546001600160a01b0316806105255760405162461bcd60e51b815260206004820152602960248201527f4552433732313a206f776e657220717565727920666f72206e6f6e657869737460448201526832b73a103a37b5b2b760b91b6064820152608401610632565b61019754339060ff1615610ae0576001600160a01b0381166000908152610192602052604090205460ff16610e825760405162461bcd60e51b815260206004820152603060248201527f436f6c6c656374696f6e3a2061646472657373206e6f7420726567697374657260448201526f1959081a5b881dda1a5d19481b1a5cdd60821b6064820152608401610632565b6001600160a01b038116600090815261019260205260408120805460ff1916905561019154610aec565b6101948054610eba9061293a565b80601f0160208091040260200160405190810160405280929190818152602001828054610ee69061293a565b8015610f335780601f10610f0857610100808354040283529160200191610f33565b820191906000526020600020905b815481529060010190602001808311610f1657829003601f168201915b505050505081565b60006001600160a01b038216610fa65760405162461bcd60e51b815260206004820152602a60248201527f4552433732313a2062616c616e636520717565727920666f7220746865207a65604482015269726f206164647265737360b01b6064820152608401610632565b506001600160a01b03166000908152609a602052604090205490565b61015f546001600160a01b03163314610fed5760405162461bcd60e51b8152600401610632906129c5565b610ff760006119ef565b565b61015f546001600160a01b031633146110245760405162461bcd60e51b8152600401610632906129c5565b60005b8151811015610b075760016101926000848481518110611049576110496129fa565b6020908102919091018101516001600160a01b03168252810191909152604001600020805460ff19169115159190911790558061108581612a26565b915050611027565b61015f546001600160a01b031633146110b85760405162461bcd60e51b8152600401610632906129c5565b600090815260666020526040812055565b60606098805461053a9061293a565b610b07338383611a42565b61015f546001600160a01b0316331461110e5760405162461bcd60e51b8152600401610632906129c5565b610ff76000606555565b61015f546001600160a01b031633146111435760405162461bcd60e51b8152600401610632906129c5565b60005b8151811015610b075760006101926000848481518110611168576111686129fa565b6020908102919091018101516001600160a01b03168252810191909152604001600020805460ff1916911515919091179055806111a481612a26565b915050611146565b61015f546001600160a01b031633146111d75760405162461bcd60e51b8152600401610632906129c5565b81516111eb9061019490602085019061230d565b50610195805460ff19168215151790556040517fb939e4eec1be4c65f209c823721a954c35bd434a61d9e058d7fa1c1ffbfc8bb89061122d9084908490612a88565b60405180910390a15050565b6112433383611525565b61125f5760405162461bcd60e51b815260040161063290612974565b61126b84848484611b10565b50505050565b6101938054610eba9061293a565b6000818152609960205260409020546060906001600160a01b03166112fe5760405162461bcd60e51b815260206004820152602f60248201527f4552433732314d657461646174613a2055524920717565727920666f72206e6f60448201526e3732bc34b9ba32b73a103a37b5b2b760891b6064820152608401610632565b6101955460ff1661133a5761019461131583611b43565b604051602001611326929190612ac8565b604051602081830303815290604052610525565b61019480546113489061293a565b80601f01602080910402602001604051908101604052809291908181526020018280546113749061293a565b80156113c15780601f10611396576101008083540402835291602001916113c1565b820191906000526020600020905b8154815290600101906020018083116113a457829003601f168201915b505050505092915050565b61015f546001600160a01b031633146113f75760405162461bcd60e51b8152600401610632906129c5565b610197805460ff19169055565b61015f546001600160a01b0316331461142f5760405162461bcd60e51b8152600401610632906129c5565b6001600160a01b0381166114945760405162461bcd60e51b815260206004820152602660248201527f4f776e61626c653a206e6577206f776e657220697320746865207a65726f206160448201526564647265737360d01b6064820152608401610632565b610b9d816119ef565b6001600160a01b03163b151590565b600061052582611c44565b6000818152609b6020526040902080546001600160a01b0319166001600160a01b03841690811790915581906114ec82610d7b565b6001600160a01b03167f8c5be1e5ebec7d5bd14f71427d1e84f3dd0314c0f7b2291e5b200ac8c7c3b92560405160405180910390a45050565b6000818152609960205260408120546001600160a01b031661159e5760405162461bcd60e51b815260206004820152602c60248201527f4552433732313a206f70657261746f7220717565727920666f72206e6f6e657860448201526b34b9ba32b73a103a37b5b2b760a11b6064820152608401610632565b60006115a983610d7b565b9050806001600160a01b0316846001600160a01b031614806115f057506001600160a01b038082166000908152609c602090815260408083209388168352929052205460ff165b806116145750836001600160a01b0316611609846105bd565b6001600160a01b0316145b949350505050565b826001600160a01b031661162f82610d7b565b6001600160a01b0316146116935760405162461bcd60e51b815260206004820152602560248201527f4552433732313a207472616e736665722066726f6d20696e636f72726563742060448201526437bbb732b960d91b6064820152608401610632565b6001600160a01b0382166116f55760405162461bcd60e51b8152602060048201526024808201527f4552433732313a207472616e7366657220746f20746865207a65726f206164646044820152637265737360e01b6064820152608401610632565b611700838383611c69565b61170b6000826114b7565b6001600160a01b0383166000908152609a60205260408120805460019290611734908490612b6e565b90915550506001600160a01b0382166000908152609a60205260408120805460019290611762908490612b85565b909155505060008181526099602052604080822080546001600160a01b0319166001600160a01b0386811691821790925591518493918716917fddf252ad1be2c89b69c2b068fc378daa952ba7f163c4a11628f55a4df523b3ef91a4505050565b610b07828260405180602001604052806000815250611c74565b60008054610100900460ff1615611824578160ff1660011480156118005750303b155b61181c5760405162461bcd60e51b815260040161063290612b9d565b506000919050565b60005460ff80841691161061184b5760405162461bcd60e51b815260040161063290612b9d565b506000805460ff191660ff92909216919091179055600190565b919050565b600054610100900460ff166118915760405162461bcd60e51b815260040161063290612beb565b610b078282611ca7565b600054610100900460ff16610ff75760405162461bcd60e51b815260040161063290612beb565b600054610100900460ff166114945760405162461bcd60e51b815260040161063290612beb565b6127106001600160601b03821611156119575760405162461bcd60e51b815260206004820152602a60248201527f455243323938313a20726f79616c7479206665652077696c6c206578636565646044820152692073616c65507269636560b01b6064820152608401610632565b6001600160a01b0382166119ad5760405162461bcd60e51b815260206004820152601960248201527f455243323938313a20696e76616c6964207265636569766572000000000000006044820152606401610632565b604080518082019091526001600160a01b039092168083526001600160601b039091166020909201829052600160a01b90910217606555565b610b9d81611cf5565b61015f80546001600160a01b038381166001600160a01b0319831681179093556040519116919082907f8be0079c531659141344cd1fd0a4f28419497f9722a3daafe3b4186f6b6457e090600090a35050565b816001600160a01b0316836001600160a01b031603611aa35760405162461bcd60e51b815260206004820152601960248201527f4552433732313a20617070726f766520746f2063616c6c6572000000000000006044820152606401610632565b6001600160a01b038381166000818152609c6020908152604080832094871680845294825291829020805460ff191686151590811790915591519182527f17307eab39ab6107e8899845ad3d59bd9653f200f220920489ca2b5937696c31910160405180910390a3505050565b611b1b84848461161c565b611b2784848484611cfe565b61126b5760405162461bcd60e51b815260040161063290612c36565b606081600003611b6a5750506040805180820190915260018152600360fc1b602082015290565b8160005b8115611b945780611b7e81612a26565b9150611b8d9050600a83612a74565b9150611b6e565b60008167ffffffffffffffff811115611baf57611baf6124e1565b6040519080825280601f01601f191660200182016040528015611bd9576020820181803683370190505b5090505b841561161457611bee600183612b6e565b9150611bfb600a86612c88565b611c06906030612b85565b60f81b818381518110611c1b57611c1b6129fa565b60200101906001600160f81b031916908160001a905350611c3d600a86612a74565b9450611bdd565b60006001600160e01b0319821663780e9d6360e01b1480610525575061052582611dff565b610767838383611e3f565b611c7e8383611ef7565b611c8b6000848484611cfe565b6107675760405162461bcd60e51b815260040161063290612c36565b600054610100900460ff16611cce5760405162461bcd60e51b815260040161063290612beb565b8151611ce190609790602085019061230d565b50805161076790609890602084019061230d565b6110b881611f53565b60006001600160a01b0384163b15611df457604051630a85bd0160e11b81526001600160a01b0385169063150b7a0290611d42903390899088908890600401612c9c565b6020604051808303816000875af1925050508015611d7d575060408051601f3d908101601f19168201909252611d7a91810190612cd9565b60015b611dda573d808015611dab576040519150601f19603f3d011682016040523d82523d6000602084013e611db0565b606091505b508051600003611dd25760405162461bcd60e51b815260040161063290612c36565b805181602001fd5b6001600160e01b031916630a85bd0160e11b149050611614565b506001949350505050565b60006001600160e01b031982166380ac58cd60e01b1480611e3057506001600160e01b03198216635b5e139f60e01b145b80610525575061052582611ffa565b6001600160a01b038316611e9a57611e958160cb8054600083815260cc60205260408120829055600182018355919091527fa7ce836d032b2bf62b7e2097a8e0a6d8aeb35405ad15271e96d3b0188a1d06fb0155565b611ebd565b816001600160a01b0316836001600160a01b031614611ebd57611ebd838261202f565b6001600160a01b038216611ed457610767816120cc565b826001600160a01b0316826001600160a01b03161461076757610767828261217b565b610196548110611f495760405162461bcd60e51b815260206004820152601c60248201527f436f6c6c656374696f6e3a20496e76616c696420746f6b656e204964000000006044820152606401610632565b610b0782826121bf565b6000611f5e82610d7b565b9050611f6c81600084611c69565b611f776000836114b7565b6001600160a01b0381166000908152609a60205260408120805460019290611fa0908490612b6e565b909155505060008281526099602052604080822080546001600160a01b0319169055518391906001600160a01b038416907fddf252ad1be2c89b69c2b068fc378daa952ba7f163c4a11628f55a4df523b3ef908390a45050565b60006001600160e01b0319821663152a902d60e11b148061052557506301ffc9a760e01b6001600160e01b0319831614610525565b6000600161203c84610f3b565b6120469190612b6e565b600083815260ca6020526040902054909150808214612099576001600160a01b038416600090815260c960209081526040808320858452825280832054848452818420819055835260ca90915290208190555b50600091825260ca602090815260408084208490556001600160a01b03909416835260c981528383209183525290812055565b60cb546000906120de90600190612b6e565b600083815260cc602052604081205460cb8054939450909284908110612106576121066129fa565b906000526020600020015490508060cb8381548110612127576121276129fa565b600091825260208083209091019290925582815260cc909152604080822084905585825281205560cb80548061215f5761215f612cf6565b6001900381819060005260206000200160009055905550505050565b600061218683610f3b565b6001600160a01b03909316600090815260c960209081526040808320868452825280832085905593825260ca9052919091209190915550565b6001600160a01b0382166122155760405162461bcd60e51b815260206004820181905260248201527f4552433732313a206d696e7420746f20746865207a65726f20616464726573736044820152606401610632565b6000818152609960205260409020546001600160a01b03161561227a5760405162461bcd60e51b815260206004820152601c60248201527f4552433732313a20746f6b656e20616c7265616479206d696e746564000000006044820152606401610632565b61228660008383611c69565b6001600160a01b0382166000908152609a602052604081208054600192906122af908490612b85565b909155505060008181526099602052604080822080546001600160a01b0319166001600160a01b03861690811790915590518392907fddf252ad1be2c89b69c2b068fc378daa952ba7f163c4a11628f55a4df523b3ef908290a45050565b8280546123199061293a565b90600052602060002090601f01602090048101928261233b5760008555612381565b82601f1061235457805160ff1916838001178555612381565b82800160010185558215612381579182015b82811115612381578251825591602001919060010190612366565b5061238d929150612391565b5090565b5b8082111561238d5760008155600101612392565b6001600160e01b031981168114610b9d57600080fd5b6000602082840312156123ce57600080fd5b81356123d9816123a6565b9392505050565b60005b838110156123fb5781810151838201526020016123e3565b8381111561126b5750506000910152565b600081518084526124248160208601602086016123e0565b601f01601f19169290920160200192915050565b6020815260006123d9602083018461240c565b60006020828403121561245d57600080fd5b5035919050565b80356001600160a01b038116811461186557600080fd5b6000806040838503121561248e57600080fd5b61249783612464565b946020939093013593505050565b6000806000606084860312156124ba57600080fd5b6124c384612464565b92506124d160208501612464565b9150604084013590509250925092565b634e487b7160e01b600052604160045260246000fd5b604051601f8201601f1916810167ffffffffffffffff81118282101715612520576125206124e1565b604052919050565b6000602080838503121561253b57600080fd5b823567ffffffffffffffff8082111561255357600080fd5b818501915085601f83011261256757600080fd5b813581811115612579576125796124e1565b8060051b915061258a8483016124f7565b81815291830184019184810190888411156125a457600080fd5b938501935b838510156125c9576125ba85612464565b825293850193908501906125a9565b98975050505050505050565b600080604083850312156125e857600080fd5b50508035926020909101359150565b600067ffffffffffffffff831115612611576126116124e1565b612624601f8401601f19166020016124f7565b905082815283838301111561263857600080fd5b828260208301376000602084830101529392505050565b600082601f83011261266057600080fd5b6123d9838335602085016125f7565b8035801515811461186557600080fd5b80356001600160601b038116811461186557600080fd5b60008060008060008060008060006101208a8c0312156126b557600080fd5b893567ffffffffffffffff808211156126cd57600080fd5b6126d98d838e0161264f565b9a5060208c01359150808211156126ef57600080fd5b6126fb8d838e0161264f565b995060408c013591508082111561271157600080fd5b61271d8d838e0161264f565b985060608c013591508082111561273357600080fd5b506127408c828d0161264f565b96505061274f60808b0161266f565b945060a08a0135935061276460c08b01612464565b925061277260e08b0161267f565b91506127816101008b01612464565b90509295985092959850929598565b6000602082840312156127a257600080fd5b6123d982612464565b6000806000606084860312156127c057600080fd5b833592506127d060208501612464565b91506127de6040850161267f565b90509250925092565b6000602082840312156127f957600080fd5b813567ffffffffffffffff81111561281057600080fd5b6116148482850161264f565b6000806040838503121561282f57600080fd5b61283883612464565b91506128466020840161266f565b90509250929050565b6000806040838503121561286257600080fd5b823567ffffffffffffffff81111561287957600080fd5b6128858582860161264f565b9250506128466020840161266f565b600080600080608085870312156128aa57600080fd5b6128b385612464565b93506128c160208601612464565b925060408501359150606085013567ffffffffffffffff8111156128e457600080fd5b8501601f810187136128f557600080fd5b612904878235602084016125f7565b91505092959194509250565b6000806040838503121561292357600080fd5b61292c83612464565b915061284660208401612464565b600181811c9082168061294e57607f821691505b60208210810361296e57634e487b7160e01b600052602260045260246000fd5b50919050565b60208082526031908201527f4552433732313a207472616e736665722063616c6c6572206973206e6f74206f6040820152701ddb995c881b9bdc88185c1c1c9bdd9959607a1b606082015260800190565b6020808252818101527f4f776e61626c653a2063616c6c6572206973206e6f7420746865206f776e6572604082015260600190565b634e487b7160e01b600052603260045260246000fd5b634e487b7160e01b600052601160045260246000fd5b600060018201612a3857612a38612a10565b5060010190565b6000816000190483118215151615612a5957612a59612a10565b500290565b634e487b7160e01b600052601260045260246000fd5b600082612a8357612a83612a5e565b500490565b604081526000612a9b604083018561240c565b905082151560208301529392505050565b60008151612abe8185602086016123e0565b9290920192915050565b600080845481600182811c915080831680612ae457607f831692505b60208084108203612b0357634e487b7160e01b86526022600452602486fd5b818015612b175760018114612b2857612b55565b60ff19861689528489019650612b55565b60008b81526020902060005b86811015612b4d5781548b820152908501908301612b34565b505084890196505b505050505050612b658185612aac565b95945050505050565b600082821015612b8057612b80612a10565b500390565b60008219821115612b9857612b98612a10565b500190565b6020808252602e908201527f496e697469616c697a61626c653a20636f6e747261637420697320616c72656160408201526d191e481a5b9a5d1a585b1a5e995960921b606082015260800190565b6020808252602b908201527f496e697469616c697a61626c653a20636f6e7472616374206973206e6f74206960408201526a6e697469616c697a696e6760a81b606082015260800190565b60208082526032908201527f4552433732313a207472616e7366657220746f206e6f6e20455243373231526560408201527131b2b4bb32b91034b6b83632b6b2b73a32b960711b606082015260800190565b600082612c9757612c97612a5e565b500690565b6001600160a01b0385811682528416602082015260408101839052608060608201819052600090612ccf9083018461240c565b9695505050505050565b600060208284031215612ceb57600080fd5b81516123d9816123a6565b634e487b7160e01b600052603160045260246000fdfea26469706673582212204966d077cd6ad421ace061f300806a551190b481d1bfcd728ec0aa03b689fd3d64736f6c634300080d0033496e697469616c697a61626c653a20636f6e747261637420697320616c726561",
  "linkReferences": {},
  "deployedLinkReferences": {}
}