{
  "_format": "hh-sol-artifact-1",
  "contractName": "Factory4",
  "sourceName": "contracts/collection-4-factory/Factory4.sol",
  "abi": [
    {
      "anonymous": false,
      "inputs": [
        {
          "indexed": false,
          "internalType": "string",
          "name": "creatorName",
          "type": "string"
        },
        {
          "indexed": false,
          "internalType": "string",
          "name": "tokenName",
          "type": "string"
        },
        {
          "indexed": false,
          "internalType": "string",
          "name": "tokenSymbol",
          "type": "string"
        },
        {
          "indexed": false,
          "internalType": "uint256",
          "name": "totalSupply",
          "type": "uint256"
        },
        {
          "indexed": false,
          "internalType": "address",
          "name": "creatorAddress",
          "type": "address"
        },
        {
          "indexed": false,
          "internalType": "address",
          "name": "contractAddress",
          "type": "address"
        },
        {
          "indexed": false,
          "internalType": "uint96",
          "name": "defaultRoyalty",
          "type": "uint96"
        }
      ],
      "name": "NewCollection",
      "type": "event"
    },
    {
      "inputs": [],
      "name": "collectionCont",
      "outputs": [
        {
          "internalType": "contract Collection4",
          "name": "",
          "type": "address"
        }
      ],
      "stateMutability": "view",
      "type": "function"
    },
    {
      "inputs": [
        {
          "internalType": "string",
          "name": "creatorName",
          "type": "string"
        },
        {
          "internalType": "string",
          "name": "tokenName",
          "type": "string"
        },
        {
          "internalType": "string",
          "name": "tokenSymbol",
          "type": "string"
        },
        {
          "internalType": "string",
          "name": "baseURI",
          "type": "string"
        },
        {
          "internalType": "bool",
          "name": "_sameURIForAllTokens",
          "type": "bool"
        },
        {
          "internalType": "uint256",
          "name": "totalSupply",
          "type": "uint256"
        },
        {
          "internalType": "uint96",
          "name": "royaltyNumerator",
          "type": "uint96"
        },
        {
          "internalType": "address",
          "name": "royaltyReciever",
          "type": "address"
        }
      ],
      "name": "newCollection",
      "outputs": [],
      "stateMutability": "nonpayable",
      "type": "function"
    }
  ],
  "bytecode": "0x60808060405234610085576136488181016001600160401b0381118382101761006f578291610579833903906000f0801561006357600080546001600160a01b0319166001600160a01b03929092169190911790556040516104ee908161008b8239f35b6040513d6000823e3d90fd5b634e487b7160e01b600052604160045260246000fd5b600080fdfe608060405260048036101561001357600080fd5b600090813560e01c8063036ad23e146100ea5763dc19fb221461003557600080fd5b346100e6576101003660031901126100e65767ffffffffffffffff81358181116100e257610066903690840161015a565b906024358181116100de5761007e903690850161015a565b916044358281116100da57610096903690860161015a565b916064359081116100da576100d5946100b19136910161015a565b6100b96101d9565b906100c26101e8565b936100cb6101fe565b9560a43594610361565b604051f35b8580fd5b8480fd5b8380fd5b5080fd5b823461010f578060031936011261010f57546001600160a01b03166080908152602090f35b80fd5b600091031261011d57565b600080fd5b50634e487b7160e01b600052604160045260246000fd5b67ffffffffffffffff811161014d57604052565b610155610122565b604052565b81601f8201121561011d5780359067ffffffffffffffff928383116101cc575b60405193601f8401601f19908116603f01168501908111858210176101bf575b6040528284526020838301011161011d57816000926020809301838601378301015290565b6101c7610122565b61019a565b6101d4610122565b61017a565b60843590811515820361011d57565b60c435906001600160601b038216820361011d57565b60e435906001600160a01b038216820361011d57565b91908251928382526000905b84821061024d575092806020939411610240575b601f01601f1916010190565b6000838284010152610234565b90602090818082850101519082860101520190610220565b9792936102b36001600160601b03956102a56101009a9995610297999e9d996102c1968e610120908181520190610214565b8d810360208f015290610214565b908b820360408d0152610214565b9089820360608b0152610214565b981515608088015260a08701526001600160a01b0393841660c08701521660e085015216910152565b506040513d6000823e3d90fd5b95906001600160601b039498979361032f60c0979461032161033d9460e08c5260e08c0190610214565b908a820360208c0152610214565b9088820360408a0152610214565b60608701989098526001600160a01b0391821660808701521660a085015216910152565b9195939796929794909460009860378a5460405190733d602d80600a3d3981f3363d3d373d3d3d363d7360601b82526001600160601b03199060601b1660148201526e5af43d82803e903d91602b57fd5bf360881b60288201528bf0946001600160a01b03861690811561047a57813b1561047657918b918a7f92f2bc38db5b0fcb7ee8737fb757a827b49bf595586eae09e6218f670a97a3c39c9d8b61042c8998978d8c61044b9f9e9d9c6040519b8c9a8b998a98632df5980d60e01b8a52339560048b01610265565b03925af18015610469575b610450575b506040519687963393886102f7565b0390a1565b8061045d61046392610139565b80610112565b3861043c565b6104716102ea565b610437565b8b80fd5b60405162461bcd60e51b8152602060048201526016602482015275115490cc4c4d8dce8818dc99585d194819985a5b195960521b6044820152606490fdfea2646970667358221220935f4476164b413a61be82c75ead5540875c0a3b24421e84e689207b469d559864736f6c634300080f00336080604052346200002557620000146200002a565b5060405161353a9081620000ee8239f35b600080fd5b60005460ff8160081c16600014620000875760405162461bcd60e51b815260206004820152602e60248201526000805160206200362883398151915260448201526d191e481a5b9a5d1a585b1a5e995960921b6064820152608490fd5b60ff8082161015620000a25760ff191660ff17600055600190565b60405162461bcd60e51b815260206004820152602e60248201526000805160206200362883398151915260448201526d191e481a5b9a5d1a585b1a5e995960921b6064820152608490fdfe60806040526004361015610013575b600080fd5b60003560e01c806301ffc9a71461030b57806306fdde0314610302578063081812fc146102f9578063095ea7b3146102f057806318160ddd146102e757806323b872dd146102de57806326552278146102d55780632a55205a146102cc5780632df5980d146102c35780632f745c59146102ba57806340d097c3146102b157806342842e0e146102a857806342966c681461029f5780634f6ccce714610296578063539b2ba41461028d5780635944c7531461028457806360eb94851461027b5780636352211e146102725780636871ee40146102695780636c0360eb1461026057806370a0823114610257578063715018a61461024e578063740d73f3146102455780638a616bc01461023c5780638da5cb5b1461023357806395d89b411461022a578063a22cb46514610221578063aa1b103f14610218578063b11560c51461020f578063b64b21ca14610206578063b88d4fde146101fd578063bb99e701146101f4578063c4397115146101eb578063c87b56dd146101e2578063d5abeb01146101d9578063dcd83616146101d0578063e985e9c5146101c75763f2fde38b146101bf57600080fd5b61000e611c05565b5061000e611ba7565b5061000e611b72565b5061000e611b52565b5061000e6119d6565b5061000e6119b1565b5061000e611918565b5061000e6118b8565b5061000e611720565b5061000e6116b9565b5061000e61168a565b5061000e6115a1565b5061000e6114f9565b5061000e6114ce565b5061000e61148f565b5061000e61141f565b5061000e6113b8565b5061000e61138c565b5061000e6112c5565b5061000e61110c565b5061000e6110ed565b5061000e610fc5565b5061000e610ef9565b5061000e610ec1565b5061000e610e15565b5061000e610bf9565b5061000e610bd0565b5061000e610b8b565b5061000e610ad7565b5061000e610a2a565b5061000e6108ad565b5061000e610849565b5061000e6106ff565b5061000e6106ab565b5061000e6105bb565b5061000e61051d565b5061000e610437565b5061000e610326565b6001600160e01b031981160361000e57565b503461000e57602036600319011261000e57602060043561034681610314565b63ffffffff60e01b1663780e9d6360e01b811490811561036c575b506040519015158152f35b6380ac58cd60e01b8114915081156103b8575b811561038d575b5038610361565b63152a902d60e11b8114915081156103a7575b5038610386565b6301ffc9a760e01b149050386103a0565b635b5e139f60e01b8114915061037f565b918091926000905b8282106103e95750116103e2575050565b6000910152565b915080602091830151818601520182916103d1565b90602091610417815180928185528580860191016103c9565b601f01601f1916010190565b9060206104349281815201906103fe565b90565b503461000e5760008060031936011261051a57604051908060975461045b816111dd565b808552916001918083169081156104f05750600114610495575b6104918561048581870382610783565b60405191829182610423565b0390f35b9250609783527f354a83ed9988f79f6038d4c7a7dadbad8af32f4ad6df893e0e5807a1b1944ff95b8284106104d857505050810160200161048582610491610475565b805460208587018101919091529093019281016104bd565b8695506104919693506020925061048594915060ff191682840152151560051b8201019293610475565b80fd5b503461000e57602036600319011261000e57602061053c600435611e99565b6040516001600160a01b039091168152f35b600435906001600160a01b038216820361000e57565b60c435906001600160a01b038216820361000e57565b61010435906001600160a01b038216820361000e57565b602435906001600160a01b038216820361000e57565b35906001600160a01b038216820361000e57565b503461000e57604036600319011261000e576105d561054e565b6024356105e181611daf565b916001600160a01b03808416908216811461065c576106139361060e913314908115610615575b50611e27565b61234b565b005b6001600160a01b03166000908152609c60205260409020610656915061064f9033905b9060018060a01b0316600052602052604060002090565b5460ff1690565b38610608565b60405162461bcd60e51b815260206004820152602160248201527f4552433732313a20617070726f76616c20746f2063757272656e74206f776e656044820152603960f91b6064820152608490fd5b503461000e57600036600319011261000e57602060cb54604051908152f35b606090600319011261000e576001600160a01b0390600435828116810361000e5791602435908116810361000e579060443590565b503461000e57610613610711366106ca565b9161072461071f8433612034565b611f2b565b6121cc565b50634e487b7160e01b600052604160045260246000fd5b604081019081106001600160401b0382111761075b57604052565b610763610729565b604052565b602081019081106001600160401b0382111761075b57604052565b90601f801991011681019081106001600160401b0382111761075b57604052565b604051906107b182610740565b565b60208060031983011261000e576001600160401b039160043583811161000e578160238201121561000e57806004013593841161083c575b8360051b906040519461080085840187610783565b855260248486019282010192831161000e57602401905b828210610825575050505090565b838091610831846105a7565b815201910190610817565b610844610729565b6107eb565b503461000e57610858366107b3565b61015f546001600160a01b03906108729082163314611c9d565b60005b8251811015610613576108a8906108a36101918054906001820190558461089c8488613000565b5116613022565b612961565b610875565b503461000e57604036600319011261000e5760243560043560005260666020526108da604060002061258c565b80519091906001600160a01b031615610954575b6104916109206001600160601b03602085015116938360001904851184151516610947575b516001600160a01b031690565b6127106040519485940204908360209093929193604081019460018060a01b031681520152565b61094f61217c565b610913565b905061095e612566565b906108ee565b6020906001600160401b038111610981575b601f01601f19160190565b610989610729565b610976565b92919261099a82610964565b916109a86040519384610783565b82948184528183011161000e578281602093846000960137010152565b9080601f8301121561000e578160206104349335910161098e565b60843590811515820361000e57565b60243590811515820361000e57565b60e435906001600160601b038216820361000e57565b604435906001600160601b038216820361000e57565b503461000e5761012036600319011261000e576001600160401b0360043581811161000e57610a5d9036906004016109c5565b60243582811161000e57610a759036906004016109c5565b9060443583811161000e57610a8e9036906004016109c5565b9060643593841161000e57610aaa6106139436906004016109c5565b90610ab36109e0565b610abb610564565b92610ac46109fe565b94610acd61057a565b9660a43594612a59565b503461000e57604036600319011261000e57610af161054e565b60243590610afe81611d37565b821015610b32576001600160a01b0316600090815260c9602090815260408083209383529281529082902054915191825290f35b60405162461bcd60e51b815260206004820152602b60248201527f455243373231456e756d657261626c653a206f776e657220696e646578206f7560448201526a74206f6620626f756e647360a81b6064820152608490fd5b503461000e57602036600319011261000e57610613610ba861054e565b610bbe60018060a01b0361015f54163314611c9d565b61019190815491600183019055613022565b503461000e57610613610be2366106ca565b9060405192610bf084610768565b60008452611f91565b503461000e57602036600319011261000e57600435610c188133612034565b15610db75780806000610c2d61061394611daf565b6001600160a01b03811690610c799082158414610ce357610c4d85613336565b610c56856133af565b610c5f856122f5565b6001600160a01b03166000908152609a6020526040902090565b610c838154612193565b9055610cac610c9c846000526099602052604060002090565b80546001600160a01b0319169055565b7fddf252ad1be2c89b69c2b068fc378daa952ba7f163c4a11628f55a4df523b3ef82604051a4600052606660205260006040812055565b610cec81611d37565b60018110610daa575b841901610d51859187835260ca6020526040832054818103610d57575b5082610d288960005260ca602052604060002090565b556001600160a01b038416600090815260c9602052604090205b90600052602052604060002090565b55610c4d565b86845260c960205260408420828552602052610da3604085205480610d9284610d428a60018060a01b031660005260c9602052604060002090565b5560005260ca602052604060002090565b5538610d12565b610db261217c565b610cf5565b60405162461bcd60e51b815260206004820152603060248201527f4552433732314275726e61626c653a2063616c6c6572206973206e6f74206f7760448201526f1b995c881b9bdc88185c1c1c9bdd995960821b6064820152608490fd5b503461000e57602036600319011261000e5760043560cb54811015610e675760cb6000527fa7ce836d032b2bf62b7e2097a8e0a6d8aeb35405ad15271e96d3b0188a1d06fb0154604051908152602090f35b60405162461bcd60e51b815260206004820152602c60248201527f455243373231456e756d657261626c653a20676c6f62616c20696e646578206f60448201526b7574206f6620626f756e647360a01b6064820152608490fd5b503461000e57600036600319011261000e57610ee960018060a01b0361015f54163314611c9d565b610197805460ff19166001179055005b503461000e57606036600319011261000e57610f13610591565b610f1b610a14565b61015f546001600160a01b0390610f359082163314611c9d565b610f40600435611daf565b163303610f505761061391612eea565b60405162461bcd60e51b815260206004820152604160248201527f436f6c6c656374696f6e3a20796f75206d75737420626520746865206f776e6560448201527f72206f662074686520746f6b656e20746f207365742074686520726f79616c746064820152607960f81b608482015260a490fd5b503461000e5760208060031936011261000e576001600160401b039060043582811161000e57610ff99036906004016109c5565b9161101060018060a01b0361015f54163314611c9d565b82519081116110e0575b610193916110318261102c85546111dd565b6125b1565b80601f831160011461106a575081929360009261105f575b50508160011b916000199060031b1c1916179055005b015190503880611049565b90601f1983169461108c6101936000526000805160206134c583398151915290565b926000905b8782106110c85750508360019596106110af575b505050811b019055005b015160001960f88460031b161c191690553880806110a5565b80600185968294968601518155019501930190611091565b6110e8610729565b61101a565b503461000e57602036600319011261000e57602061053c600435611daf565b503461000e5760008060031936011261051a5760ff610197541661114c575b6111476101915461114161019160018154019055565b33613022565b604051f35b33815261019260205260ff6040822054161561117f5733600090815261019260205260409020805460ff1916905561112b565b60405162461bcd60e51b815260206004820152603060248201527f436f6c6c656374696f6e3a2061646472657373206e6f7420726567697374657260448201526f1959081a5b881dda1a5d19481b1a5cdd60821b6064820152608490fd5b90600182811c9216801561120d575b60208310146111f757565b634e487b7160e01b600052602260045260246000fd5b91607f16916111ec565b6040519060008261019491825461122d816111dd565b808452936001918083169081156112a15750600114611255575b50506107b192500383610783565b600090815291506000805160206134e58339815191525b84831061128657506107b193505081016020013880611247565b81935090816020925483858a0101520191019091859261126c565b915050602092506107b194915060ff191682840152151560051b8201013880611247565b503461000e5760008060031936011261051a576040519080610194908154906112ed826111dd565b8086529260019280841690811561135f5750600114611317575b6104918661048581880382610783565b815292506000805160206134e58339815191525b8284106113475750505081016020016104858261049138611307565b8054602085870181019190915290930192810161132b565b90508695506104919693506020925061048594915060ff191682840152151560051b820101929338611307565b503461000e57602036600319011261000e5760206113b06113ab61054e565b611d37565b604051908152f35b503461000e5760008060031936011261051a5761015f80546001600160a01b03811691906113e7338414611c9d565b6001600160a01b03191690556040519082907f8be0079c531659141344cd1fd0a4f28419497f9722a3daafe3b4186f6b6457e08284a3f35b503461000e5761142e366107b3565b61015f546001600160a01b0391906114499083163314611c9d565b600091825b82518110156114895780826114666114849386613000565b5116855261019260205260408520805460ff19166001179055612961565b61144e565b83604051f35b503461000e57602036600319011261000e576114b760018060a01b0361015f54163314611c9d565b610613600435600052606660205260006040812055565b503461000e57600036600319011261000e5761015f546040516001600160a01b039091168152602090f35b503461000e5760008060031936011261051a57604051908060985461151d816111dd565b808552916001918083169081156104f05750600114611546576104918561048581870382610783565b9250609883527f2237a976fa961f5921fd19f2b03c925c725d77b20ce8f790c19709c03de4d8145b82841061158957505050810160200161048582610491610475565b8054602085870181019190915290930192810161156e565b503461000e57604036600319011261000e576115bb61054e565b6115c36109ef565b6001600160a01b0382169133831461164557816116026116139233600052609c60205260406000209060018060a01b0316600052602052604060002090565b9060ff801983541691151516179055565b604051901515815233907f17307eab39ab6107e8899845ad3d59bd9653f200f220920489ca2b5937696c3190602090a3005b60405162461bcd60e51b815260206004820152601960248201527f4552433732313a20617070726f766520746f2063616c6c6572000000000000006044820152606490fd5b503461000e57600036600319011261000e576116b260018060a01b0361015f54163314611c9d565b6000606555005b503461000e576116c8366107b3565b61015f546001600160a01b0391906116e39083163314611c9d565b600091825b825181101561148957808261170061171b9386613000565b5116855261019260205260408520805460ff19169055612961565b6116e8565b503461000e57604036600319011261000e576001600160401b0360043581811161000e576117529036906004016109c5565b61175a6109ef565b9061177160018060a01b0361015f54163314611c9d565b80519283116118ab575b6101946117918461178c83546111dd565b612611565b602080601f8611600114611817575093807fb939e4eec1be4c65f209c823721a954c35bd434a61d9e058d7fa1c1ffbfc8bb89560009161180c575b508160011b916000199060031b1c19161790555b6117f8826101959060ff801983541691151516179055565b6118076040519283928361292e565b0390a1005b9050830151386117cc565b61019460005290601f1986166000805160206134e5833981519152926000905b8282106118935750509186917fb939e4eec1be4c65f209c823721a954c35bd434a61d9e058d7fa1c1ffbfc8bb8976001941061187a575b5050811b0190556117e0565b85015160001960f88460031b161c19169055388061186e565b80600185968294968a01518155019501930190611837565b6118b3610729565b61177b565b503461000e57608036600319011261000e576118d261054e565b6118da610591565b606435916001600160401b03831161000e573660238401121561000e5761190e61061393369060248160040135910161098e565b9160443591611f91565b503461000e5760008060031936011261051a57604051908061019390815490611940826111dd565b8086529260019280841690811561135f5750600114611969576104918661048581880382610783565b815292506000805160206134c58339815191525b8284106119995750505081016020016104858261049138611307565b8054602085870181019190915290930192810161197d565b503461000e57600036600319011261000e57602060ff61019554166040519015158152f35b503461000e5760208060031936011261000e576004356000818152609960205260409020549091906001600160a01b031615611af657610195546000929060ff1615611a2a57505050610491610485611217565b611a3390612990565b6040519183610194908154611a47816111dd565b92600191808316908115611ad15750600114611a87575b505050505081611a7461049194611a829361294e565b03601f198101835282610783565b610485565b825292955090916000805160206134e58339815191525b838310611abe5750505082019092019181611a7482610491611a82611a5e565b8054868401880152918601918101611a9e565b60ff1916868901525050505080151502830101925081611a7482610491611a82611a5e565b6084906040519062461bcd60e51b82526004820152602f60248201527f4552433732314d657461646174613a2055524920717565727920666f72206e6f60448201526e3732bc34b9ba32b73a103a37b5b2b760891b6064820152fd5b503461000e57600036600319011261000e57602061019654604051908152f35b503461000e57600036600319011261000e57611b9a60018060a01b0361015f54163314611c9d565b610197805460ff19169055005b503461000e57604036600319011261000e57602060ff611bf9611bc861054e565b611bd0610591565b6001600160a01b039182166000908152609c865260408082209290931681526020919091522090565b54166040519015158152f35b503461000e57602036600319011261000e57611c1f61054e565b61015f546001600160a01b0390611c399082163314611c9d565b811615611c495761061390611ce8565b60405162461bcd60e51b815260206004820152602660248201527f4f776e61626c653a206e6577206f776e657220697320746865207a65726f206160448201526564647265737360d01b6064820152608490fd5b15611ca457565b606460405162461bcd60e51b815260206004820152602060248201527f4f776e61626c653a2063616c6c6572206973206e6f7420746865206f776e65726044820152fd5b61015f80546001600160a01b039283166001600160a01b031982168117909255604051919216907f8be0079c531659141344cd1fd0a4f28419497f9722a3daafe3b4186f6b6457e090600090a3565b6001600160a01b03168015611d5757600052609a60205260406000205490565b60405162461bcd60e51b815260206004820152602a60248201527f4552433732313a2062616c616e636520717565727920666f7220746865207a65604482015269726f206164647265737360b01b6064820152608490fd5b6000908152609960205260409020546001600160a01b03168015611dd05790565b60405162461bcd60e51b815260206004820152602960248201527f4552433732313a206f776e657220717565727920666f72206e6f6e657869737460448201526832b73a103a37b5b2b760b91b6064820152608490fd5b15611e2e57565b60405162461bcd60e51b815260206004820152603860248201527f4552433732313a20617070726f76652063616c6c6572206973206e6f74206f7760448201527f6e6572206e6f7220617070726f76656420666f7220616c6c00000000000000006064820152608490fd5b6000818152609960205260409020546001600160a01b031615611ed1576000908152609b60205260409020546001600160a01b031690565b60405162461bcd60e51b815260206004820152602c60248201527f4552433732313a20617070726f76656420717565727920666f72206e6f6e657860448201526b34b9ba32b73a103a37b5b2b760a11b6064820152608490fd5b15611f3257565b60405162461bcd60e51b815260206004820152603160248201527f4552433732313a207472616e736665722063616c6c6572206973206e6f74206f6044820152701ddb995c881b9bdc88185c1c1c9bdd9959607a1b6064820152608490fd5b916107b19391611fb893611fa861071f8433612034565b611fb38383836121cc565b612513565b612010565b60809060208152603260208201527f4552433732313a207472616e7366657220746f206e6f6e20455243373231526560408201527131b2b4bb32b91034b6b83632b6b2b73a32b960711b60608201520190565b1561201757565b60405162461bcd60e51b81528061203060048201611fbd565b0390fd5b6000828152609960205260409020546001600160a01b0316156120ca5761205a82611daf565b9160018060a01b0390818316928285168414948515612099575b50508315612083575b50505090565b61208f91929350611e99565b161438808061207d565b6001600160a01b03166000908152609c6020526040902091945060ff916120c09190610638565b5416923880612074565b60405162461bcd60e51b815260206004820152602c60248201527f4552433732313a206f70657261746f7220717565727920666f72206e6f6e657860448201526b34b9ba32b73a103a37b5b2b760a11b6064820152608490fd5b1561212b57565b60405162461bcd60e51b8152602060048201526024808201527f4552433732313a207472616e7366657220746f20746865207a65726f206164646044820152637265737360e01b6064820152608490fd5b50634e487b7160e01b600052601160045260246000fd5b600181106121a3575b6000190190565b6121ab61217c565b61219c565b60019060011981116121c0570190565b6121c861217c565b0190565b906121d683611daf565b6001600160a01b0383811692909182168390036122a25761221661227992821694612202861515612124565b61220d8784836131f9565b610c5f876122f5565b6122208154612193565b90556001600160a01b0381166000908152609a6020526040902061224481546121b0565b905561225a856000526099602052604060002090565b80546001600160a01b0319166001600160a01b03909216919091179055565b7fddf252ad1be2c89b69c2b068fc378daa952ba7f163c4a11628f55a4df523b3ef6000604051a4565b60405162461bcd60e51b815260206004820152602560248201527f4552433732313a207472616e736665722066726f6d20696e636f72726563742060448201526437bbb732b960d91b6064820152608490fd5b6000818152609b6020526040812080546001600160a01b03191690556001600160a01b0361232283611daf565b167f8c5be1e5ebec7d5bd14f71427d1e84f3dd0314c0f7b2291e5b200ac8c7c3b92582604051a4565b6000828152609b6020526040902080546001600160a01b0319166001600160a01b0383161790556001600160a01b038061238484611daf565b169116907f8c5be1e5ebec7d5bd14f71427d1e84f3dd0314c0f7b2291e5b200ac8c7c3b9256000604051a4565b9081602091031261000e575161043481610314565b610434939260809260018060a01b0316825260006020830152604082015281606082015201906103fe565b6001600160a01b039182168152911660208201526040810191909152608060608201819052610434929101906103fe565b3d1561244d573d9061243382610964565b916124416040519384610783565b82523d6000602084013e565b606090565b909190803b1561250b57612484602091600093604051948580948193630a85bd0160e11b998a845233600485016123c6565b03926001600160a01b03165af1600091816124db575b506124cd576124a7612422565b805190816124c85760405162461bcd60e51b81528061203060048201611fbd565b602001fd5b6001600160e01b0319161490565b6124fd91925060203d8111612504575b6124f58183610783565b8101906123b1565b903861249a565b503d6124eb565b505050600190565b92909190823b1561254657612484926020926000604051809681958294630a85bd0160e11b9a8b855233600486016123f1565b50505050600190565b50634e487b7160e01b600052603260045260246000fd5b6040519061257382610740565b6065546001600160a01b038116835260a01c6020830152565b9060405161259981610740565b91546001600160a01b038116835260a01c6020830152565b601f81116125bd575050565b60009061019382526000805160206134c5833981519152906020601f850160051c83019410612607575b601f0160051c01915b8281106125fc57505050565b8181556001016125f0565b90925082906125e7565b601f811161261d575050565b60009061019482526000805160206134e5833981519152906020601f850160051c83019410612667575b601f0160051c01915b82811061265c57505050565b818155600101612650565b9092508290612647565b601f811161267d575050565b600090609782527f354a83ed9988f79f6038d4c7a7dadbad8af32f4ad6df893e0e5807a1b1944ff9906020601f850160051c830194106126d8575b601f0160051c01915b8281106126cd57505050565b8181556001016126c1565b90925082906126b8565b601f81116126ee575050565b600090609882527f2237a976fa961f5921fd19f2b03c925c725d77b20ce8f790c19709c03de4d814906020601f850160051c83019410612749575b601f0160051c01915b82811061273e57505050565b818155600101612732565b9092508290612729565b9081516001600160401b03811161282a575b610194906127778161178c84546111dd565b602080601f83116001146127b35750819293946000926127a8575b50508160011b916000199060031b1c1916179055565b015190503880612792565b90601f198316956127d56101946000526000805160206134e583398151915290565b926000905b888210612812575050836001959697106127f9575b505050811b019055565b015160001960f88460031b161c191690553880806127ef565b806001859682949686015181550195019301906127da565b612832610729565b612765565b9081516001600160401b038111612921575b61285d816128586098546111dd565b6126e2565b602080601f8311600114612899575081929360009261288e575b50508160011b916000199060031b1c191617609855565b015190503880612877565b90601f198316946128cc60986000527f2237a976fa961f5921fd19f2b03c925c725d77b20ce8f790c19709c03de4d81490565b926000905b8782106129095750508360019596106128f0575b505050811b01609855565b015160001960f88460031b161c191690553880806128e5565b806001859682949686015181550195019301906128d1565b612929610729565b612849565b906129466020919493946040845260408401906103fe565b931515910152565b906121c8602092828151948592016103c9565b60019060001981146121c0570190565b90602091805182101561298357010190565b61298b61254f565b010190565b8015612a3b57806000908282935b612a2757506129ac83610964565b926129ba6040519485610783565b80845281601f196129ca83610964565b013660208701375b6129dc5750505090565b6129e590612193565b90600a90603082820680198211612a1a575b0160f81b6001600160f81b031916841a612a118487612971565b530490816129d2565b612a2261217c565b6129f7565b92612a33600a91612961565b93048061299e565b50604051612a4881610740565b60018152600360fc1b602082015290565b9796959190612a66612d77565b9889612c2e575b80516001600160401b038111612c21575b61019391612a908261102c85546111dd565b60209081601f8411600114612b94575094612b099794612af09484612b0f9c9b9995612adb95612af59a600092612b89575b50508160011b916000199060031b1c1916179055612db7565b612ae3612ed9565b612aeb612ed9565b612cfa565b612753565b6101959060ff801983541691151516179055565b61019655565b6001600160601b038116612b65575b5050612b2657565b612b3661ff001960005416600055565b604051600181527f7f26b83ff96e1f2b6a682f133852f6798a09c465da95921460cefb384740249890602090a1565b612b8291612b7d6001600160a01b0382161515612c42565b612eea565b3880612b1e565b015190503880612ac2565b6101936000529190601f1984166000805160206134c5833981519152936000905b828210612c0957505094600185612adb95612af59a95612b0f9f9e9c9895612b099e9b96612af09b10612bf0575b505050811b019055612db7565b015160001960f88460031b161c19169055388080612be3565b80600186978294978701518155019601940190612bb5565b612c29610729565b612a7e565b61010061ff00196000541617600055612a6d565b15612c4957565b60405162461bcd60e51b8152602060048201526024808201527f436f6c6c656374696f6e3a20496e76616c696420526f79616c7479207265636560448201526334bb32b960e11b6064820152608490fd5b15612ca157565b60405162461bcd60e51b815260206004820152602b60248201527f496e697469616c697a61626c653a20636f6e7472616374206973206e6f74206960448201526a6e697469616c697a696e6760a81b6064820152608490fd5b6107b190612d0f60ff60005460081c16612c9a565b611ce8565b15612d1b57565b60405162461bcd60e51b815260206004820152602e60248201527f496e697469616c697a61626c653a20636f6e747261637420697320616c72656160448201526d191e481a5b9a5d1a585b1a5e995960921b6064820152608490fd5b60005460ff8160081c16600014612d995750612d94303b15612d14565b600090565b80612daa600160ff81941610612d14565b60ff191617600055600190565b90612dd260ff60005460081c16612dcd81612c9a565b612c9a565b81516001600160401b038111612ecc575b612df781612df26097546111dd565b612671565b602080601f8311600114612e39575081906107b194600092612e2e575b50508160011b916000199060031b1c191617609755612837565b015190503880612e14565b919293601f198416612e6d60976000527f354a83ed9988f79f6038d4c7a7dadbad8af32f4ad6df893e0e5807a1b1944ff990565b936000905b828210612eb45750509160019391856107b197969410612e9b575b505050811b01609755612837565b015160001960f88460031b161c19169055388080612e8d565b80600186978294978701518155019601940190612e72565b612ed4610729565b612de3565b6107b160ff60005460081c16612c9a565b6127106001600160601b03831611612fa8576001600160a01b03811615612f6357612f3c6107b192612f2c612f1d6107a4565b6001600160a01b039094168452565b6001600160601b03166020830152565b805160209091015160a01b6001600160a01b0319166001600160a01b039190911617606555565b60405162461bcd60e51b815260206004820152601960248201527f455243323938313a20696e76616c6964207265636569766572000000000000006044820152606490fd5b60405162461bcd60e51b815260206004820152602a60248201527f455243323938313a20726f79616c7479206665652077696c6c206578636565646044820152692073616c65507269636560b01b6064820152608490fd5b6020918151811015613015575b60051b010190565b61301d61254f565b61300d565b9060405161302f81610768565b600081526101965482101561313d576001600160a01b0383169182156130f9576107b19381611fb89461308661308161307d84600052609960205260018060a01b0360406000205416151590565b1590565b613182565b61309082846131ce565b6001600160a01b0383166000908152609a602052604090206130b281546121b0565b90556130cc8361225a846000526099602052604060002090565b60007fddf252ad1be2c89b69c2b068fc378daa952ba7f163c4a11628f55a4df523b3ef81604051a4612452565b606460405162461bcd60e51b815260206004820152602060248201527f4552433732313a206d696e7420746f20746865207a65726f20616464726573736044820152fd5b60405162461bcd60e51b815260206004820152601c60248201527f436f6c6c656374696f6e3a20496e76616c696420746f6b656e204964000000006044820152606490fd5b1561318957565b60405162461bcd60e51b815260206004820152601c60248201527f4552433732313a20746f6b656e20616c7265616479206d696e746564000000006044820152606490fd5b906131d881613336565b6001600160a01b0382166131f0576107b191506133af565b6107b1916132fe565b9091906001600160a01b038082169182613233575061321783613336565b83168061322a5750506107b191506133af565b036131f0575050565b8185168303613243575b50613217565b6132a861324f82611d37565b600181106132f1575b60001901610d4260009387855260ca60205260408520548381036132af575b508461328d8960005260ca602052604060002090565b556001600160a01b0316600090815260c96020526040902090565b553861323d565b87865260c9602052604086208487526020526132ea604087205480610d9284610d428760018060a01b031660005260c9602052604060002090565b5538613277565b6132f961217c565b613258565b60409061330a81611d37565b9260009160018060a01b0316825260c96020528282208483526020528083832055815260ca6020522055565b60cb548160005260cc60205280604060002055680100000000000000008110156133a2575b600181018060cb55811015613395575b60cb6000527fa7ce836d032b2bf62b7e2097a8e0a6d8aeb35405ad15271e96d3b0188a1d06fb0155565b61339d61254f565b61336b565b6133aa610729565b61335b565b60cb8054600181106134b7575b60009083825260cc6020528161345e604082205495600019968488810110156134aa575b86845261344d7fa7ce836d032b2bf62b7e2097a8e0a6d8aeb35405ad15271e96d3b0188a1d06fa95868101549083101561349d575b88865280837fa7ce836d032b2bf62b7e2097a8e0a6d8aeb35405ad15271e96d3b0188a1d06fb015560005260cc602052604060002090565b5560005260cc602052604060002090565b558254938415613489578401938085101561347c575b838352015555565b61348461254f565b613474565b634e487b7160e01b83526031600452602483fd5b6134a561254f565b613415565b6134b261254f565b6133e0565b6134bf61217c565b6133bc56fefc8af01f449989052b52093a58fc9f42d0b11f0c6dd5dca0463dab62346ccc68a6f1ac7ad7b125ba5a5e1c96b00ad6914f90a503b1ac3d85a9dadbb4c639df92a2646970667358221220eaa50e22bc1575433a699913171cecb6a79fcedd2bcb10223fa08b8c9dd9b72e64736f6c634300080f0033496e697469616c697a61626c653a20636f6e747261637420697320616c726561",
  "linkReferences": {},
  "deployedLinkReferences": {}
}