{
  "_format": "hh-sol-artifact-1",
  "contractName": "Factory5",
  "sourceName": "contracts/collection-5-factory/Factory5.sol",
  "abi": [
    {
      "anonymous": false,
      "inputs": [
        {
          "indexed": false,
          "internalType": "address",
          "name": "contractAddress",
          "type": "address"
        }
      ],
      "name": "NewCollection",
      "type": "event"
    },
    {
      "inputs": [],
      "name": "collectionCont",
      "outputs": [
        {
          "internalType": "contract Collection5",
          "name": "",
          "type": "address"
        }
      ],
      "stateMutability": "view",
      "type": "function"
    },
    {
      "inputs": [],
      "name": "newCollection",
      "outputs": [],
      "stateMutability": "nonpayable",
      "type": "function"
    }
  ],
  "bytecode": "0x60806040526040516100109061005f565b604051809103906000f08015801561002c573d6000803e3d6000fd5b50600080546001600160a01b0319166001600160a01b039290921691909117905534801561005957600080fd5b5061006c565b612f018061027883390190565b6101fd8061007b6000396000f3fe608060405234801561001057600080fd5b50600436106100365760003560e01c8063036ad23e1461003b5780638a47d01b1461006a575b600080fd5b60005461004e906001600160a01b031681565b6040516001600160a01b03909116815260200160405180910390f35b610072610074565b005b6000805461008a906001600160a01b0316610126565b60405163189acdbd60e31b81523360048201529091506001600160a01b0382169063c4d66de890602401600060405180830381600087803b1580156100ce57600080fd5b505af11580156100e2573d6000803e3d6000fd5b50506040516001600160a01b03841681527f703fdf4fec8b6ba710f9f4fa396f0ea0045ee5f6bf7be6e4d49f4f5ea0d927469250602001905060405180910390a150565b6000604051733d602d80600a3d3981f3363d3d373d3d3d363d7360601b81528260601b60148201526e5af43d82803e903d91602b57fd5bf360881b60288201526037816000f09150506001600160a01b0381166101c25760405162461bcd60e51b8152602060048201526016602482015275115490cc4c4d8dce8818dc99585d194819985a5b195960521b604482015260640160405180910390fd5b91905056fea26469706673582212204896204235cc80c2efb8aa7993b15d2974afe1d605ac9796b0b672bd624af55164736f6c634300080d003360a0604052306080523480156200001557600080fd5b506200002062000026565b62000156565b6200003260ff62000035565b50565b60008054610100900460ff1615620000ce578160ff1660011480156200006e57506200006c306200014760201b62000d111760201c565b155b620000c65760405162461bcd60e51b815260206004820152602e602482015260008051602062002ee183398151915260448201526d191e481a5b9a5d1a585b1a5e995960921b60648201526084015b60405180910390fd5b506000919050565b60005460ff8084169116106200012d5760405162461bcd60e51b815260206004820152602e602482015260008051602062002ee183398151915260448201526d191e481a5b9a5d1a585b1a5e995960921b6064820152608401620000bd565b506000805460ff191660ff92909216919091179055600190565b6001600160a01b03163b151590565b608051612d536200018e600039600081816106f401528181610734015281816108f90152818161093901526109cc0152612d536000f3fe6080604052600436106101345760003560e01c80636b20c454116100ab578063bd85b0391161006f578063bd85b0391461036c578063c4d66de814610399578063e985e9c5146103b9578063f242432a14610402578063f2fde38b14610422578063f5298aca1461044257600080fd5b80636b20c454146102cf578063715018a6146102ef578063731133e9146103045780638da5cb5b14610324578063a22cb4651461034c57600080fd5b80632eb2c2d6116100fd5780632eb2c2d61461020b5780633659cfe61461022b5780634e1273f41461024b5780634f1ef286146102785780634f558e791461028b57806352d1902d146102ba57600080fd5b8062fdd58e1461013957806301ffc9a71461016c57806302fe53051461019c5780630e89341c146101be5780631f7fdffa146101eb575b600080fd5b34801561014557600080fd5b50610159610154366004611fe3565b610462565b6040519081526020015b60405180910390f35b34801561017857600080fd5b5061018c610187366004612023565b6104fb565b6040519015158152602001610163565b3480156101a857600080fd5b506101bc6101b73660046120df565b61054d565b005b3480156101ca57600080fd5b506101de6101d936600461212f565b610583565b60405161016391906121a0565b3480156101f757600080fd5b506101bc610206366004612267565b610617565b34801561021757600080fd5b506101bc6102263660046122ff565b610653565b34801561023757600080fd5b506101bc6102463660046123a8565b6106ea565b34801561025757600080fd5b5061026b6102663660046123c3565b6107c6565b60405161016391906124c8565b6101bc6102863660046124db565b6108ef565b34801561029757600080fd5b5061018c6102a636600461212f565b600090815260fb6020526040902054151590565b3480156102c657600080fd5b506101596109bf565b3480156102db57600080fd5b506101bc6102ea36600461251e565b610a73565b3480156102fb57600080fd5b506101bc610abb565b34801561031057600080fd5b506101bc61031f366004612591565b610af1565b34801561033057600080fd5b506097546040516001600160a01b039091168152602001610163565b34801561035857600080fd5b506101bc6103673660046125e5565b610b27565b34801561037857600080fd5b5061015961038736600461212f565b600090815260fb602052604090205490565b3480156103a557600080fd5b506101bc6103b43660046123a8565b610b32565b3480156103c557600080fd5b5061018c6103d4366004612621565b6001600160a01b03918216600090815260666020908152604080832093909416825291909152205460ff1690565b34801561040e57600080fd5b506101bc61041d366004612654565b610bf1565b34801561042e57600080fd5b506101bc61043d3660046123a8565b610c36565b34801561044e57600080fd5b506101bc61045d3660046126b8565b610cce565b60006001600160a01b0383166104d35760405162461bcd60e51b815260206004820152602b60248201527f455243313135353a2062616c616e636520717565727920666f7220746865207a60448201526a65726f206164647265737360a81b60648201526084015b60405180910390fd5b5060009081526065602090815260408083206001600160a01b03949094168352929052205490565b60006001600160e01b03198216636cdb3d1360e11b148061052c57506001600160e01b031982166303a24d0760e21b145b8061054757506301ffc9a760e01b6001600160e01b03198316145b92915050565b6097546001600160a01b031633146105775760405162461bcd60e51b81526004016104ca906126eb565b61058081610d20565b50565b60606067805461059290612720565b80601f01602080910402602001604051908101604052809291908181526020018280546105be90612720565b801561060b5780601f106105e05761010080835404028352916020019161060b565b820191906000526020600020905b8154815290600101906020018083116105ee57829003601f168201915b50505050509050919050565b6097546001600160a01b031633146106415760405162461bcd60e51b81526004016104ca906126eb565b61064d84848484610d33565b50505050565b6001600160a01b03851633148061066f575061066f85336103d4565b6106d65760405162461bcd60e51b815260206004820152603260248201527f455243313135353a207472616e736665722063616c6c6572206973206e6f74206044820152711bdddb995c881b9bdc88185c1c1c9bdd995960721b60648201526084016104ca565b6106e38585858585610e8e565b5050505050565b6001600160a01b037f00000000000000000000000000000000000000000000000000000000000000001630036107325760405162461bcd60e51b81526004016104ca9061275a565b7f00000000000000000000000000000000000000000000000000000000000000006001600160a01b031661077b600080516020612cd7833981519152546001600160a01b031690565b6001600160a01b0316146107a15760405162461bcd60e51b81526004016104ca906127a6565b6107aa8161103b565b6040805160008082526020820190925261058091839190611065565b6060815183511461082b5760405162461bcd60e51b815260206004820152602960248201527f455243313135353a206163636f756e747320616e6420696473206c656e677468604482015268040dad2e6dac2e8c6d60bb1b60648201526084016104ca565b600083516001600160401b0381111561084657610846612040565b60405190808252806020026020018201604052801561086f578160200160208202803683370190505b50905060005b84518110156108e7576108ba858281518110610893576108936127f2565b60200260200101518583815181106108ad576108ad6127f2565b6020026020010151610462565b8282815181106108cc576108cc6127f2565b60209081029190910101526108e08161281e565b9050610875565b509392505050565b6001600160a01b037f00000000000000000000000000000000000000000000000000000000000000001630036109375760405162461bcd60e51b81526004016104ca9061275a565b7f00000000000000000000000000000000000000000000000000000000000000006001600160a01b0316610980600080516020612cd7833981519152546001600160a01b031690565b6001600160a01b0316146109a65760405162461bcd60e51b81526004016104ca906127a6565b6109af8261103b565b6109bb82826001611065565b5050565b6000306001600160a01b037f00000000000000000000000000000000000000000000000000000000000000001614610a5f5760405162461bcd60e51b815260206004820152603860248201527f555550535570677261646561626c653a206d757374206e6f742062652063616c60448201527f6c6564207468726f7567682064656c656761746563616c6c000000000000000060648201526084016104ca565b50600080516020612cd78339815191525b90565b6001600160a01b038316331480610a8f5750610a8f83336103d4565b610aab5760405162461bcd60e51b81526004016104ca90612837565b610ab68383836111d0565b505050565b6097546001600160a01b03163314610ae55760405162461bcd60e51b81526004016104ca906126eb565b610aef600061136f565b565b6097546001600160a01b03163314610b1b5760405162461bcd60e51b81526004016104ca906126eb565b61064d848484846113c1565b6109bb3383836114ac565b6000610b3e600161158c565b90508015610b56576000805461ff0019166101001790555b610b876040518060400160405280601081526020016f68747470733a2f2f736f6d655552492f60801b815250611619565b610b9082611649565b610b98611670565b610ba0611670565b610ba8611670565b80156109bb576000805461ff0019169055604051600181527f7f26b83ff96e1f2b6a682f133852f6798a09c465da95921460cefb38474024989060200160405180910390a15050565b6001600160a01b038516331480610c0d5750610c0d85336103d4565b610c295760405162461bcd60e51b81526004016104ca90612837565b6106e38585858585611697565b6097546001600160a01b03163314610c605760405162461bcd60e51b81526004016104ca906126eb565b6001600160a01b038116610cc55760405162461bcd60e51b815260206004820152602660248201527f4f776e61626c653a206e6577206f776e657220697320746865207a65726f206160448201526564647265737360d01b60648201526084016104ca565b6105808161136f565b6001600160a01b038316331480610cea5750610cea83336103d4565b610d065760405162461bcd60e51b81526004016104ca90612837565b610ab68383836117d3565b6001600160a01b03163b151590565b80516109bb906067906020840190611f33565b6001600160a01b038416610d595760405162461bcd60e51b81526004016104ca90612880565b8151835114610d7a5760405162461bcd60e51b81526004016104ca906128c1565b33610d8a816000878787876118ef565b60005b8451811015610e2657838181518110610da857610da86127f2565b602002602001015160656000878481518110610dc657610dc66127f2565b602002602001015181526020019081526020016000206000886001600160a01b03166001600160a01b031681526020019081526020016000206000828254610e0e9190612909565b90915550819050610e1e8161281e565b915050610d8d565b50846001600160a01b031660006001600160a01b0316826001600160a01b03167f4a39dc06d4c0dbc64b70af90fd698a233a518aa5d07e595d983b8c0526c8f7fb8787604051610e77929190612921565b60405180910390a46106e3816000878787876118fd565b8151835114610eaf5760405162461bcd60e51b81526004016104ca906128c1565b6001600160a01b038416610ed55760405162461bcd60e51b81526004016104ca90612946565b33610ee48187878787876118ef565b60005b8451811015610fcd576000858281518110610f0457610f046127f2565b602002602001015190506000858381518110610f2257610f226127f2565b60209081029190910181015160008481526065835260408082206001600160a01b038e168352909352919091205490915081811015610f735760405162461bcd60e51b81526004016104ca9061298b565b60008381526065602090815260408083206001600160a01b038e8116855292528083208585039055908b16825281208054849290610fb2908490612909565b9250508190555050505080610fc69061281e565b9050610ee7565b50846001600160a01b0316866001600160a01b0316826001600160a01b03167f4a39dc06d4c0dbc64b70af90fd698a233a518aa5d07e595d983b8c0526c8f7fb878760405161101d929190612921565b60405180910390a46110338187878787876118fd565b505050505050565b6097546001600160a01b031633146105805760405162461bcd60e51b81526004016104ca906126eb565b7f4910fdfa16fed3260ed0e7147f7cc6da11a60208b5b9406d12a635614ffd91435460ff161561109857610ab683611a58565b826001600160a01b03166352d1902d6040518163ffffffff1660e01b8152600401602060405180830381865afa9250505080156110f2575060408051601f3d908101601f191682019092526110ef918101906129d5565b60015b6111555760405162461bcd60e51b815260206004820152602e60248201527f45524331393637557067726164653a206e657720696d706c656d656e7461746960448201526d6f6e206973206e6f74205555505360901b60648201526084016104ca565b600080516020612cd783398151915281146111c45760405162461bcd60e51b815260206004820152602960248201527f45524331393637557067726164653a20756e737570706f727465642070726f786044820152681a58589b195555525160ba1b60648201526084016104ca565b50610ab6838383611af4565b6001600160a01b0383166111f65760405162461bcd60e51b81526004016104ca906129ee565b80518251146112175760405162461bcd60e51b81526004016104ca906128c1565b600033905061123a818560008686604051806020016040528060008152506118ef565b60005b835181101561130257600084828151811061125a5761125a6127f2565b602002602001015190506000848381518110611278576112786127f2565b60209081029190910181015160008481526065835260408082206001600160a01b038c1683529093529190912054909150818110156112c95760405162461bcd60e51b81526004016104ca90612a31565b60009283526065602090815260408085206001600160a01b038b16865290915290922091039055806112fa8161281e565b91505061123d565b5060006001600160a01b0316846001600160a01b0316826001600160a01b03167f4a39dc06d4c0dbc64b70af90fd698a233a518aa5d07e595d983b8c0526c8f7fb8686604051611353929190612921565b60405180910390a460408051602081019091526000905261064d565b609780546001600160a01b038381166001600160a01b0319831681179093556040519116919082907f8be0079c531659141344cd1fd0a4f28419497f9722a3daafe3b4186f6b6457e090600090a35050565b6001600160a01b0384166113e75760405162461bcd60e51b81526004016104ca90612880565b3360006113f385611b19565b9050600061140085611b19565b9050611411836000898585896118ef565b60008681526065602090815260408083206001600160a01b038b16845290915281208054879290611443908490612909565b909155505060408051878152602081018790526001600160a01b03808a1692600092918716917fc3d58168c5ae7397731d063d5bbf3d657854427343f4c083240f7aacaa2d0f62910160405180910390a46114a383600089898989611b64565b50505050505050565b816001600160a01b0316836001600160a01b03160361151f5760405162461bcd60e51b815260206004820152602960248201527f455243313135353a2073657474696e6720617070726f76616c20737461747573604482015268103337b91039b2b63360b91b60648201526084016104ca565b6001600160a01b03838116600081815260666020908152604080832094871680845294825291829020805460ff191686151590811790915591519182527f17307eab39ab6107e8899845ad3d59bd9653f200f220920489ca2b5937696c31910160405180910390a3505050565b60008054610100900460ff16156115d3578160ff1660011480156115af5750303b155b6115cb5760405162461bcd60e51b81526004016104ca90612a75565b506000919050565b60005460ff8084169116106115fa5760405162461bcd60e51b81526004016104ca90612a75565b506000805460ff191660ff92909216919091179055600190565b919050565b600054610100900460ff166116405760405162461bcd60e51b81526004016104ca90612ac3565b61058081611c1f565b600054610100900460ff16610cc55760405162461bcd60e51b81526004016104ca90612ac3565b600054610100900460ff16610aef5760405162461bcd60e51b81526004016104ca90612ac3565b6001600160a01b0384166116bd5760405162461bcd60e51b81526004016104ca90612946565b3360006116c985611b19565b905060006116d685611b19565b90506116e68389898585896118ef565b60008681526065602090815260408083206001600160a01b038c168452909152902054858110156117295760405162461bcd60e51b81526004016104ca9061298b565b60008781526065602090815260408083206001600160a01b038d8116855292528083208985039055908a16825281208054889290611768908490612909565b909155505060408051888152602081018890526001600160a01b03808b16928c821692918816917fc3d58168c5ae7397731d063d5bbf3d657854427343f4c083240f7aacaa2d0f62910160405180910390a46117c8848a8a8a8a8a611b64565b505050505050505050565b6001600160a01b0383166117f95760405162461bcd60e51b81526004016104ca906129ee565b33600061180584611b19565b9050600061181284611b19565b9050611832838760008585604051806020016040528060008152506118ef565b60008581526065602090815260408083206001600160a01b038a168452909152902054848110156118755760405162461bcd60e51b81526004016104ca90612a31565b60008681526065602090815260408083206001600160a01b038b81168086529184528285208a8703905582518b81529384018a90529092908816917fc3d58168c5ae7397731d063d5bbf3d657854427343f4c083240f7aacaa2d0f62910160405180910390a46040805160208101909152600090526114a3565b611033868686868686611c46565b6001600160a01b0384163b156110335760405163bc197c8160e01b81526001600160a01b0385169063bc197c81906119419089908990889088908890600401612b0e565b6020604051808303816000875af192505050801561197c575060408051601f3d908101601f1916820190925261197991810190612b6c565b60015b611a2857611988612b89565b806308c379a0036119c1575061199c612ba4565b806119a757506119c3565b8060405162461bcd60e51b81526004016104ca91906121a0565b505b60405162461bcd60e51b815260206004820152603460248201527f455243313135353a207472616e7366657220746f206e6f6e20455243313135356044820152732932b1b2b4bb32b91034b6b83632b6b2b73a32b960611b60648201526084016104ca565b6001600160e01b0319811663bc197c8160e01b146114a35760405162461bcd60e51b81526004016104ca90612c2d565b6001600160a01b0381163b611ac55760405162461bcd60e51b815260206004820152602d60248201527f455243313936373a206e657720696d706c656d656e746174696f6e206973206e60448201526c1bdd08184818dbdb9d1c9858dd609a1b60648201526084016104ca565b600080516020612cd783398151915280546001600160a01b0319166001600160a01b0392909216919091179055565b611afd83611dbf565b600082511180611b0a5750805b15610ab65761064d8383611dff565b60408051600180825281830190925260609160009190602080830190803683370190505090508281600081518110611b5357611b536127f2565b602090810291909101015292915050565b6001600160a01b0384163b156110335760405163f23a6e6160e01b81526001600160a01b0385169063f23a6e6190611ba89089908990889088908890600401612c75565b6020604051808303816000875af1925050508015611be3575060408051601f3d908101601f19168201909252611be091810190612b6c565b60015b611bef57611988612b89565b6001600160e01b0319811663f23a6e6160e01b146114a35760405162461bcd60e51b81526004016104ca90612c2d565b600054610100900460ff166105775760405162461bcd60e51b81526004016104ca90612ac3565b6001600160a01b038516611ccd5760005b8351811015611ccb57828181518110611c7257611c726127f2565b602002602001015160fb6000868481518110611c9057611c906127f2565b602002602001015181526020019081526020016000206000828254611cb59190612909565b90915550611cc490508161281e565b9050611c57565b505b6001600160a01b0384166110335760005b83518110156114a3576000848281518110611cfb57611cfb6127f2565b602002602001015190506000848381518110611d1957611d196127f2565b60200260200101519050600060fb600084815260200190815260200160002054905081811015611d9c5760405162461bcd60e51b815260206004820152602860248201527f455243313135353a206275726e20616d6f756e74206578636565647320746f74604482015267616c537570706c7960c01b60648201526084016104ca565b600092835260fb602052604090922091039055611db88161281e565b9050611cde565b611dc881611a58565b6040516001600160a01b038216907fbc7cd75a20ee27fd9adebab32041f755214dbc6bffa90cc0225b39da2e5c2d3b90600090a250565b60606001600160a01b0383163b611e675760405162461bcd60e51b815260206004820152602660248201527f416464726573733a2064656c65676174652063616c6c20746f206e6f6e2d636f6044820152651b9d1c9858dd60d21b60648201526084016104ca565b600080846001600160a01b031684604051611e829190612cba565b600060405180830381855af49150503d8060008114611ebd576040519150601f19603f3d011682016040523d82523d6000602084013e611ec2565b606091505b5091509150611eea8282604051806060016040528060278152602001612cf760279139611ef3565b95945050505050565b60608315611f02575081611f2c565b825115611f125782518084602001fd5b8160405162461bcd60e51b81526004016104ca91906121a0565b9392505050565b828054611f3f90612720565b90600052602060002090601f016020900481019282611f615760008555611fa7565b82601f10611f7a57805160ff1916838001178555611fa7565b82800160010185558215611fa7579182015b82811115611fa7578251825591602001919060010190611f8c565b50611fb3929150611fb7565b5090565b5b80821115611fb35760008155600101611fb8565b80356001600160a01b038116811461161457600080fd5b60008060408385031215611ff657600080fd5b611fff83611fcc565b946020939093013593505050565b6001600160e01b03198116811461058057600080fd5b60006020828403121561203557600080fd5b8135611f2c8161200d565b634e487b7160e01b600052604160045260246000fd5b601f8201601f191681016001600160401b038111828210171561207b5761207b612040565b6040525050565b60006001600160401b0383111561209b5761209b612040565b6040516120b2601f8501601f191660200182612056565b8091508381528484840111156120c757600080fd5b83836020830137600060208583010152509392505050565b6000602082840312156120f157600080fd5b81356001600160401b0381111561210757600080fd5b8201601f8101841361211857600080fd5b61212784823560208401612082565b949350505050565b60006020828403121561214157600080fd5b5035919050565b60005b8381101561216357818101518382015260200161214b565b8381111561064d5750506000910152565b6000815180845261218c816020860160208601612148565b601f01601f19169290920160200192915050565b602081526000611f2c6020830184612174565b60006001600160401b038211156121cc576121cc612040565b5060051b60200190565b600082601f8301126121e757600080fd5b813560206121f4826121b3565b6040516122018282612056565b83815260059390931b850182019282810191508684111561222157600080fd5b8286015b8481101561223c5780358352918301918301612225565b509695505050505050565b600082601f83011261225857600080fd5b611f2c83833560208501612082565b6000806000806080858703121561227d57600080fd5b61228685611fcc565b935060208501356001600160401b03808211156122a257600080fd5b6122ae888389016121d6565b945060408701359150808211156122c457600080fd5b6122d0888389016121d6565b935060608701359150808211156122e657600080fd5b506122f387828801612247565b91505092959194509250565b600080600080600060a0868803121561231757600080fd5b61232086611fcc565b945061232e60208701611fcc565b935060408601356001600160401b038082111561234a57600080fd5b61235689838a016121d6565b9450606088013591508082111561236c57600080fd5b61237889838a016121d6565b9350608088013591508082111561238e57600080fd5b5061239b88828901612247565b9150509295509295909350565b6000602082840312156123ba57600080fd5b611f2c82611fcc565b600080604083850312156123d657600080fd5b82356001600160401b03808211156123ed57600080fd5b818501915085601f83011261240157600080fd5b8135602061240e826121b3565b60405161241b8282612056565b83815260059390931b850182019282810191508984111561243b57600080fd5b948201945b838610156124605761245186611fcc565b82529482019490820190612440565b9650508601359250508082111561247657600080fd5b50612483858286016121d6565b9150509250929050565b600081518084526020808501945080840160005b838110156124bd578151875295820195908201906001016124a1565b509495945050505050565b602081526000611f2c602083018461248d565b600080604083850312156124ee57600080fd5b6124f783611fcc565b915060208301356001600160401b0381111561251257600080fd5b61248385828601612247565b60008060006060848603121561253357600080fd5b61253c84611fcc565b925060208401356001600160401b038082111561255857600080fd5b612564878388016121d6565b9350604086013591508082111561257a57600080fd5b50612587868287016121d6565b9150509250925092565b600080600080608085870312156125a757600080fd5b6125b085611fcc565b9350602085013592506040850135915060608501356001600160401b038111156125d957600080fd5b6122f387828801612247565b600080604083850312156125f857600080fd5b61260183611fcc565b91506020830135801515811461261657600080fd5b809150509250929050565b6000806040838503121561263457600080fd5b61263d83611fcc565b915061264b60208401611fcc565b90509250929050565b600080600080600060a0868803121561266c57600080fd5b61267586611fcc565b945061268360208701611fcc565b9350604086013592506060860135915060808601356001600160401b038111156126ac57600080fd5b61239b88828901612247565b6000806000606084860312156126cd57600080fd5b6126d684611fcc565b95602085013595506040909401359392505050565b6020808252818101527f4f776e61626c653a2063616c6c6572206973206e6f7420746865206f776e6572604082015260600190565b600181811c9082168061273457607f821691505b60208210810361275457634e487b7160e01b600052602260045260246000fd5b50919050565b6020808252602c908201527f46756e6374696f6e206d7573742062652063616c6c6564207468726f7567682060408201526b19195b1959d85d1958d85b1b60a21b606082015260800190565b6020808252602c908201527f46756e6374696f6e206d7573742062652063616c6c6564207468726f7567682060408201526b6163746976652070726f787960a01b606082015260800190565b634e487b7160e01b600052603260045260246000fd5b634e487b7160e01b600052601160045260246000fd5b60006001820161283057612830612808565b5060010190565b60208082526029908201527f455243313135353a2063616c6c6572206973206e6f74206f776e6572206e6f7260408201526808185c1c1c9bdd995960ba1b606082015260800190565b60208082526021908201527f455243313135353a206d696e7420746f20746865207a65726f206164647265736040820152607360f81b606082015260800190565b60208082526028908201527f455243313135353a2069647320616e6420616d6f756e7473206c656e677468206040820152670dad2e6dac2e8c6d60c31b606082015260800190565b6000821982111561291c5761291c612808565b500190565b604081526000612934604083018561248d565b8281036020840152611eea818561248d565b60208082526025908201527f455243313135353a207472616e7366657220746f20746865207a65726f206164604082015264647265737360d81b606082015260800190565b6020808252602a908201527f455243313135353a20696e73756666696369656e742062616c616e636520666f60408201526939103a3930b739b332b960b11b606082015260800190565b6000602082840312156129e757600080fd5b5051919050565b60208082526023908201527f455243313135353a206275726e2066726f6d20746865207a65726f206164647260408201526265737360e81b606082015260800190565b60208082526024908201527f455243313135353a206275726e20616d6f756e7420657863656564732062616c604082015263616e636560e01b606082015260800190565b6020808252602e908201527f496e697469616c697a61626c653a20636f6e747261637420697320616c72656160408201526d191e481a5b9a5d1a585b1a5e995960921b606082015260800190565b6020808252602b908201527f496e697469616c697a61626c653a20636f6e7472616374206973206e6f74206960408201526a6e697469616c697a696e6760a81b606082015260800190565b6001600160a01b0386811682528516602082015260a060408201819052600090612b3a9083018661248d565b8281036060840152612b4c818661248d565b90508281036080840152612b608185612174565b98975050505050505050565b600060208284031215612b7e57600080fd5b8151611f2c8161200d565b600060033d1115610a705760046000803e5060005160e01c90565b600060443d1015612bb25790565b6040516003193d81016004833e81513d6001600160401b038160248401118184111715612be157505050505090565b8285019150815181811115612bf95750505050505090565b843d8701016020828501011115612c135750505050505090565b612c2260208286010187612056565b509095945050505050565b60208082526028908201527f455243313135353a204552433131353552656365697665722072656a656374656040820152676420746f6b656e7360c01b606082015260800190565b6001600160a01b03868116825285166020820152604081018490526060810183905260a060808201819052600090612caf90830184612174565b979650505050505050565b60008251612ccc818460208701612148565b919091019291505056fe360894a13ba1a3210667c828492db98dca3e2076cc3735a920a3ca505d382bbc416464726573733a206c6f772d6c6576656c2064656c65676174652063616c6c206661696c6564a2646970667358221220a7b5fb1130624f92066ee8ca7b476463c76a2c3312ea5416db22e0b3dd31502264736f6c634300080d0033496e697469616c697a61626c653a20636f6e747261637420697320616c726561",
  "linkReferences": {},
  "deployedLinkReferences": {}
}