{
  "_format": "hh-sol-artifact-1",
  "contractName": "OnchainMetadata",
  "sourceName": "contracts/3_onchain_metadata/newOnchainMetadata.sol",
  "abi": [
    {
      "anonymous": false,
      "inputs": [
        {
          "indexed": true,
          "internalType": "address",
          "name": "owner",
          "type": "address"
        },
        {
          "indexed": true,
          "internalType": "address",
          "name": "operator",
          "type": "address"
        },
        {
          "indexed": true,
          "internalType": "uint256",
          "name": "tokenId",
          "type": "uint256"
        }
      ],
      "name": "Approval",
      "type": "event"
    },
    {
      "anonymous": false,
      "inputs": [
        {
          "indexed": true,
          "internalType": "address",
          "name": "owner",
          "type": "address"
        },
        {
          "indexed": true,
          "internalType": "address",
          "name": "operator",
          "type": "address"
        },
        {
          "indexed": false,
          "internalType": "bool",
          "name": "approved",
          "type": "bool"
        }
      ],
      "name": "ApprovalForAll",
      "type": "event"
    },
    {
      "anonymous": false,
      "inputs": [
        {
          "indexed": true,
          "internalType": "address",
          "name": "from",
          "type": "address"
        },
        {
          "indexed": true,
          "internalType": "address",
          "name": "to",
          "type": "address"
        },
        {
          "indexed": true,
          "internalType": "uint256",
          "name": "tokenId",
          "type": "uint256"
        }
      ],
      "name": "Transfer",
      "type": "event"
    },
    {
      "inputs": [
        {
          "internalType": "uint256",
          "name": "tokenId",
          "type": "uint256"
        }
      ],
      "name": "_points",
      "outputs": [
        {
          "internalType": "string",
          "name": "points",
          "type": "string"
        }
      ],
      "stateMutability": "pure",
      "type": "function"
    }
  ],
  "bytecode": "0x608060405234801561001057600080fd5b5061037e806100206000396000f3fe608060405234801561001057600080fd5b506004361061002b5760003560e01c8063a2e5b13e14610030575b600080fd5b61004361003e3660046101c9565b610059565b6040516100509190610212565b60405180910390f35b60605b6103e88211156100bb578061009460026103e86100798187610271565b95506100859086610285565b61008f9190610271565b6100c0565b6040516020016100a5929190610299565b604051602081830303815290604052905061005c565b919050565b6060816000036100e75750506040805180820190915260018152600360fc1b602082015290565b8160005b811561011157806100fb816102d4565b915061010a9050600a83610271565b91506100eb565b60008167ffffffffffffffff81111561012c5761012c6102ed565b6040519080825280601f01601f191660200182016040528015610156576020820181803683370190505b5090505b84156101c15761016b600183610303565b9150610178600a86610285565b61018390603061031a565b60f81b81838151811061019857610198610332565b60200101906001600160f81b031916908160001a9053506101ba600a86610271565b945061015a565b949350505050565b6000602082840312156101db57600080fd5b5035919050565b60005b838110156101fd5781810151838201526020016101e5565b8381111561020c576000848401525b50505050565b60208152600082518060208401526102318160408501602087016101e2565b601f01601f19169190910160400192915050565b634e487b7160e01b600052601260045260246000fd5b634e487b7160e01b600052601160045260246000fd5b60008261028057610280610245565b500490565b60008261029457610294610245565b500690565b600083516102ab8184602088016101e2565b8351908301906102bf8183602088016101e2565b600160fd1b9101908152600101949350505050565b6000600182016102e6576102e661025b565b5060010190565b634e487b7160e01b600052604160045260246000fd5b6000828210156103155761031561025b565b500390565b6000821982111561032d5761032d61025b565b500190565b634e487b7160e01b600052603260045260246000fdfea2646970667358221220c1d51430a7287195fcc63efc602621fc0e09b73c3b8bf6c6c54e8177a678fe4d64736f6c634300080d0033",
  "linkReferences": {},
  "deployedLinkReferences": {}
}