{
  "_format": "hh-sol-artifact-1",
  "contractName": "Collection5",
  "sourceName": "contracts/collection-5-factory/Collection5.sol",
  "abi": [
    {
      "inputs": [],
      "stateMutability": "nonpayable",
      "type": "constructor"
    },
    {
      "anonymous": false,
      "inputs": [
        {
          "indexed": false,
          "internalType": "address",
          "name": "previousAdmin",
          "type": "address"
        },
        {
          "indexed": false,
          "internalType": "address",
          "name": "newAdmin",
          "type": "address"
        }
      ],
      "name": "AdminChanged",
      "type": "event"
    },
    {
      "anonymous": false,
      "inputs": [
        {
          "indexed": true,
          "internalType": "address",
          "name": "account",
          "type": "address"
        },
        {
          "indexed": true,
          "internalType": "address",
          "name": "operator",
          "type": "address"
        },
        {
          "indexed": false,
          "internalType": "bool",
          "name": "approved",
          "type": "bool"
        }
      ],
      "name": "ApprovalForAll",
      "type": "event"
    },
    {
      "anonymous": false,
      "inputs": [
        {
          "indexed": true,
          "internalType": "address",
          "name": "beacon",
          "type": "address"
        }
      ],
      "name": "BeaconUpgraded",
      "type": "event"
    },
    {
      "anonymous": false,
      "inputs": [
        {
          "indexed": false,
          "internalType": "uint8",
          "name": "version",
          "type": "uint8"
        }
      ],
      "name": "Initialized",
      "type": "event"
    },
    {
      "anonymous": false,
      "inputs": [
        {
          "indexed": true,
          "internalType": "address",
          "name": "previousOwner",
          "type": "address"
        },
        {
          "indexed": true,
          "internalType": "address",
          "name": "newOwner",
          "type": "address"
        }
      ],
      "name": "OwnershipTransferred",
      "type": "event"
    },
    {
      "anonymous": false,
      "inputs": [
        {
          "indexed": true,
          "internalType": "address",
          "name": "operator",
          "type": "address"
        },
        {
          "indexed": true,
          "internalType": "address",
          "name": "from",
          "type": "address"
        },
        {
          "indexed": true,
          "internalType": "address",
          "name": "to",
          "type": "address"
        },
        {
          "indexed": false,
          "internalType": "uint256[]",
          "name": "ids",
          "type": "uint256[]"
        },
        {
          "indexed": false,
          "internalType": "uint256[]",
          "name": "values",
          "type": "uint256[]"
        }
      ],
      "name": "TransferBatch",
      "type": "event"
    },
    {
      "anonymous": false,
      "inputs": [
        {
          "indexed": true,
          "internalType": "address",
          "name": "operator",
          "type": "address"
        },
        {
          "indexed": true,
          "internalType": "address",
          "name": "from",
          "type": "address"
        },
        {
          "indexed": true,
          "internalType": "address",
          "name": "to",
          "type": "address"
        },
        {
          "indexed": false,
          "internalType": "uint256",
          "name": "id",
          "type": "uint256"
        },
        {
          "indexed": false,
          "internalType": "uint256",
          "name": "value",
          "type": "uint256"
        }
      ],
      "name": "TransferSingle",
      "type": "event"
    },
    {
      "anonymous": false,
      "inputs": [
        {
          "indexed": false,
          "internalType": "string",
          "name": "value",
          "type": "string"
        },
        {
          "indexed": true,
          "internalType": "uint256",
          "name": "id",
          "type": "uint256"
        }
      ],
      "name": "URI",
      "type": "event"
    },
    {
      "anonymous": false,
      "inputs": [
        {
          "indexed": true,
          "internalType": "address",
          "name": "implementation",
          "type": "address"
        }
      ],
      "name": "Upgraded",
      "type": "event"
    },
    {
      "inputs": [
        {
          "internalType": "address",
          "name": "account",
          "type": "address"
        },
        {
          "internalType": "uint256",
          "name": "id",
          "type": "uint256"
        }
      ],
      "name": "balanceOf",
      "outputs": [
        {
          "internalType": "uint256",
          "name": "",
          "type": "uint256"
        }
      ],
      "stateMutability": "view",
      "type": "function"
    },
    {
      "inputs": [
        {
          "internalType": "address[]",
          "name": "accounts",
          "type": "address[]"
        },
        {
          "internalType": "uint256[]",
          "name": "ids",
          "type": "uint256[]"
        }
      ],
      "name": "balanceOfBatch",
      "outputs": [
        {
          "internalType": "uint256[]",
          "name": "",
          "type": "uint256[]"
        }
      ],
      "stateMutability": "view",
      "type": "function"
    },
    {
      "inputs": [
        {
          "internalType": "address",
          "name": "account",
          "type": "address"
        },
        {
          "internalType": "uint256",
          "name": "id",
          "type": "uint256"
        },
        {
          "internalType": "uint256",
          "name": "value",
          "type": "uint256"
        }
      ],
      "name": "burn",
      "outputs": [],
      "stateMutability": "nonpayable",
      "type": "function"
    },
    {
      "inputs": [
        {
          "internalType": "address",
          "name": "account",
          "type": "address"
        },
        {
          "internalType": "uint256[]",
          "name": "ids",
          "type": "uint256[]"
        },
        {
          "internalType": "uint256[]",
          "name": "values",
          "type": "uint256[]"
        }
      ],
      "name": "burnBatch",
      "outputs": [],
      "stateMutability": "nonpayable",
      "type": "function"
    },
    {
      "inputs": [
        {
          "internalType": "uint256",
          "name": "id",
          "type": "uint256"
        }
      ],
      "name": "exists",
      "outputs": [
        {
          "internalType": "bool",
          "name": "",
          "type": "bool"
        }
      ],
      "stateMutability": "view",
      "type": "function"
    },
    {
      "inputs": [],
      "name": "initialize",
      "outputs": [],
      "stateMutability": "nonpayable",
      "type": "function"
    },
    {
      "inputs": [
        {
          "internalType": "address",
          "name": "account",
          "type": "address"
        },
        {
          "internalType": "address",
          "name": "operator",
          "type": "address"
        }
      ],
      "name": "isApprovedForAll",
      "outputs": [
        {
          "internalType": "bool",
          "name": "",
          "type": "bool"
        }
      ],
      "stateMutability": "view",
      "type": "function"
    },
    {
      "inputs": [
        {
          "internalType": "address",
          "name": "account",
          "type": "address"
        },
        {
          "internalType": "uint256",
          "name": "id",
          "type": "uint256"
        },
        {
          "internalType": "uint256",
          "name": "amount",
          "type": "uint256"
        },
        {
          "internalType": "bytes",
          "name": "data",
          "type": "bytes"
        }
      ],
      "name": "mint",
      "outputs": [],
      "stateMutability": "nonpayable",
      "type": "function"
    },
    {
      "inputs": [
        {
          "internalType": "address",
          "name": "to",
          "type": "address"
        },
        {
          "internalType": "uint256[]",
          "name": "ids",
          "type": "uint256[]"
        },
        {
          "internalType": "uint256[]",
          "name": "amounts",
          "type": "uint256[]"
        },
        {
          "internalType": "bytes",
          "name": "data",
          "type": "bytes"
        }
      ],
      "name": "mintBatch",
      "outputs": [],
      "stateMutability": "nonpayable",
      "type": "function"
    },
    {
      "inputs": [],
      "name": "owner",
      "outputs": [
        {
          "internalType": "address",
          "name": "",
          "type": "address"
        }
      ],
      "stateMutability": "view",
      "type": "function"
    },
    {
      "inputs": [],
      "name": "proxiableUUID",
      "outputs": [
        {
          "internalType": "bytes32",
          "name": "",
          "type": "bytes32"
        }
      ],
      "stateMutability": "view",
      "type": "function"
    },
    {
      "inputs": [],
      "name": "renounceOwnership",
      "outputs": [],
      "stateMutability": "nonpayable",
      "type": "function"
    },
    {
      "inputs": [
        {
          "internalType": "address",
          "name": "from",
          "type": "address"
        },
        {
          "internalType": "address",
          "name": "to",
          "type": "address"
        },
        {
          "internalType": "uint256[]",
          "name": "ids",
          "type": "uint256[]"
        },
        {
          "internalType": "uint256[]",
          "name": "amounts",
          "type": "uint256[]"
        },
        {
          "internalType": "bytes",
          "name": "data",
          "type": "bytes"
        }
      ],
      "name": "safeBatchTransferFrom",
      "outputs": [],
      "stateMutability": "nonpayable",
      "type": "function"
    },
    {
      "inputs": [
        {
          "internalType": "address",
          "name": "from",
          "type": "address"
        },
        {
          "internalType": "address",
          "name": "to",
          "type": "address"
        },
        {
          "internalType": "uint256",
          "name": "id",
          "type": "uint256"
        },
        {
          "internalType": "uint256",
          "name": "amount",
          "type": "uint256"
        },
        {
          "internalType": "bytes",
          "name": "data",
          "type": "bytes"
        }
      ],
      "name": "safeTransferFrom",
      "outputs": [],
      "stateMutability": "nonpayable",
      "type": "function"
    },
    {
      "inputs": [
        {
          "internalType": "address",
          "name": "operator",
          "type": "address"
        },
        {
          "internalType": "bool",
          "name": "approved",
          "type": "bool"
        }
      ],
      "name": "setApprovalForAll",
      "outputs": [],
      "stateMutability": "nonpayable",
      "type": "function"
    },
    {
      "inputs": [
        {
          "internalType": "string",
          "name": "newuri",
          "type": "string"
        }
      ],
      "name": "setURI",
      "outputs": [],
      "stateMutability": "nonpayable",
      "type": "function"
    },
    {
      "inputs": [
        {
          "internalType": "bytes4",
          "name": "interfaceId",
          "type": "bytes4"
        }
      ],
      "name": "supportsInterface",
      "outputs": [
        {
          "internalType": "bool",
          "name": "",
          "type": "bool"
        }
      ],
      "stateMutability": "view",
      "type": "function"
    },
    {
      "inputs": [
        {
          "internalType": "uint256",
          "name": "id",
          "type": "uint256"
        }
      ],
      "name": "totalSupply",
      "outputs": [
        {
          "internalType": "uint256",
          "name": "",
          "type": "uint256"
        }
      ],
      "stateMutability": "view",
      "type": "function"
    },
    {
      "inputs": [
        {
          "internalType": "address",
          "name": "newOwner",
          "type": "address"
        }
      ],
      "name": "transferOwnership",
      "outputs": [],
      "stateMutability": "nonpayable",
      "type": "function"
    },
    {
      "inputs": [
        {
          "internalType": "address",
          "name": "newImplementation",
          "type": "address"
        }
      ],
      "name": "upgradeTo",
      "outputs": [],
      "stateMutability": "nonpayable",
      "type": "function"
    },
    {
      "inputs": [
        {
          "internalType": "address",
          "name": "newImplementation",
          "type": "address"
        },
        {
          "internalType": "bytes",
          "name": "data",
          "type": "bytes"
        }
      ],
      "name": "upgradeToAndCall",
      "outputs": [],
      "stateMutability": "payable",
      "type": "function"
    },
    {
      "inputs": [
        {
          "internalType": "uint256",
          "name": "",
          "type": "uint256"
        }
      ],
      "name": "uri",
      "outputs": [
        {
          "internalType": "string",
          "name": "",
          "type": "string"
        }
      ],
      "stateMutability": "view",
      "type": "function"
    }
  ],
  "bytecode": "0x60a0604052306080523480156200001557600080fd5b506200002062000026565b62000156565b6200003260ff62000035565b50565b60008054610100900460ff1615620000ce578160ff1660011480156200006e57506200006c306200014760201b62000d051760201c565b155b620000c65760405162461bcd60e51b815260206004820152602e602482015260008051602062002ed583398151915260448201526d191e481a5b9a5d1a585b1a5e995960921b60648201526084015b60405180910390fd5b506000919050565b60005460ff8084169116106200012d5760405162461bcd60e51b815260206004820152602e602482015260008051602062002ed583398151915260448201526d191e481a5b9a5d1a585b1a5e995960921b6064820152608401620000bd565b506000805460ff191660ff92909216919091179055600190565b6001600160a01b03163b151590565b608051612d476200018e600039600081816106e901528181610729015281816108ee0152818161092e01526109c10152612d476000f3fe6080604052600436106101345760003560e01c80636b20c454116100ab578063a22cb4651161006f578063a22cb46514610361578063bd85b03914610381578063e985e9c5146103ae578063f242432a146103f7578063f2fde38b14610417578063f5298aca1461043757600080fd5b80636b20c454146102cf578063715018a6146102ef578063731133e9146103045780638129fc1c146103245780638da5cb5b1461033957600080fd5b80632eb2c2d6116100fd5780632eb2c2d61461020b5780633659cfe61461022b5780634e1273f41461024b5780634f1ef286146102785780634f558e791461028b57806352d1902d146102ba57600080fd5b8062fdd58e1461013957806301ffc9a71461016c57806302fe53051461019c5780630e89341c146101be5780631f7fdffa146101eb575b600080fd5b34801561014557600080fd5b50610159610154366004611fd7565b610457565b6040519081526020015b60405180910390f35b34801561017857600080fd5b5061018c610187366004612017565b6104f0565b6040519015158152602001610163565b3480156101a857600080fd5b506101bc6101b73660046120d3565b610542565b005b3480156101ca57600080fd5b506101de6101d9366004612123565b610578565b6040516101639190612194565b3480156101f757600080fd5b506101bc61020636600461225b565b61060c565b34801561021757600080fd5b506101bc6102263660046122f3565b610648565b34801561023757600080fd5b506101bc61024636600461239c565b6106df565b34801561025757600080fd5b5061026b6102663660046123b7565b6107bb565b60405161016391906124bc565b6101bc6102863660046124cf565b6108e4565b34801561029757600080fd5b5061018c6102a6366004612123565b600090815260fb6020526040902054151590565b3480156102c657600080fd5b506101596109b4565b3480156102db57600080fd5b506101bc6102ea366004612512565b610a68565b3480156102fb57600080fd5b506101bc610ab0565b34801561031057600080fd5b506101bc61031f366004612585565b610ae6565b34801561033057600080fd5b506101bc610b1c565b34801561034557600080fd5b506097546040516001600160a01b039091168152602001610163565b34801561036d57600080fd5b506101bc61037c3660046125d9565b610bda565b34801561038d57600080fd5b5061015961039c366004612123565b600090815260fb602052604090205490565b3480156103ba57600080fd5b5061018c6103c9366004612615565b6001600160a01b03918216600090815260666020908152604080832093909416825291909152205460ff1690565b34801561040357600080fd5b506101bc610412366004612648565b610be5565b34801561042357600080fd5b506101bc61043236600461239c565b610c2a565b34801561044357600080fd5b506101bc6104523660046126ac565b610cc2565b60006001600160a01b0383166104c85760405162461bcd60e51b815260206004820152602b60248201527f455243313135353a2062616c616e636520717565727920666f7220746865207a60448201526a65726f206164647265737360a81b60648201526084015b60405180910390fd5b5060009081526065602090815260408083206001600160a01b03949094168352929052205490565b60006001600160e01b03198216636cdb3d1360e11b148061052157506001600160e01b031982166303a24d0760e21b145b8061053c57506301ffc9a760e01b6001600160e01b03198316145b92915050565b6097546001600160a01b0316331461056c5760405162461bcd60e51b81526004016104bf906126df565b61057581610d14565b50565b60606067805461058790612714565b80601f01602080910402602001604051908101604052809291908181526020018280546105b390612714565b80156106005780601f106105d557610100808354040283529160200191610600565b820191906000526020600020905b8154815290600101906020018083116105e357829003601f168201915b50505050509050919050565b6097546001600160a01b031633146106365760405162461bcd60e51b81526004016104bf906126df565b61064284848484610d27565b50505050565b6001600160a01b038516331480610664575061066485336103c9565b6106cb5760405162461bcd60e51b815260206004820152603260248201527f455243313135353a207472616e736665722063616c6c6572206973206e6f74206044820152711bdddb995c881b9bdc88185c1c1c9bdd995960721b60648201526084016104bf565b6106d88585858585610e82565b5050505050565b6001600160a01b037f00000000000000000000000000000000000000000000000000000000000000001630036107275760405162461bcd60e51b81526004016104bf9061274e565b7f00000000000000000000000000000000000000000000000000000000000000006001600160a01b0316610770600080516020612ccb833981519152546001600160a01b031690565b6001600160a01b0316146107965760405162461bcd60e51b81526004016104bf9061279a565b61079f8161102f565b6040805160008082526020820190925261057591839190611059565b606081518351146108205760405162461bcd60e51b815260206004820152602960248201527f455243313135353a206163636f756e747320616e6420696473206c656e677468604482015268040dad2e6dac2e8c6d60bb1b60648201526084016104bf565b600083516001600160401b0381111561083b5761083b612034565b604051908082528060200260200182016040528015610864578160200160208202803683370190505b50905060005b84518110156108dc576108af858281518110610888576108886127e6565b60200260200101518583815181106108a2576108a26127e6565b6020026020010151610457565b8282815181106108c1576108c16127e6565b60209081029190910101526108d581612812565b905061086a565b509392505050565b6001600160a01b037f000000000000000000000000000000000000000000000000000000000000000016300361092c5760405162461bcd60e51b81526004016104bf9061274e565b7f00000000000000000000000000000000000000000000000000000000000000006001600160a01b0316610975600080516020612ccb833981519152546001600160a01b031690565b6001600160a01b03161461099b5760405162461bcd60e51b81526004016104bf9061279a565b6109a48261102f565b6109b082826001611059565b5050565b6000306001600160a01b037f00000000000000000000000000000000000000000000000000000000000000001614610a545760405162461bcd60e51b815260206004820152603860248201527f555550535570677261646561626c653a206d757374206e6f742062652063616c60448201527f6c6564207468726f7567682064656c656761746563616c6c000000000000000060648201526084016104bf565b50600080516020612ccb8339815191525b90565b6001600160a01b038316331480610a845750610a8483336103c9565b610aa05760405162461bcd60e51b81526004016104bf9061282b565b610aab8383836111c4565b505050565b6097546001600160a01b03163314610ada5760405162461bcd60e51b81526004016104bf906126df565b610ae46000611363565b565b6097546001600160a01b03163314610b105760405162461bcd60e51b81526004016104bf906126df565b610642848484846113b5565b6000610b2860016114a0565b90508015610b40576000805461ff0019166101001790555b610b716040518060400160405280601081526020016f68747470733a2f2f736f6d655552492f60801b81525061152d565b610b7a3361155d565b610b82611584565b610b8a611584565b610b92611584565b8015610575576000805461ff0019169055604051600181527f7f26b83ff96e1f2b6a682f133852f6798a09c465da95921460cefb38474024989060200160405180910390a150565b6109b03383836115ab565b6001600160a01b038516331480610c015750610c0185336103c9565b610c1d5760405162461bcd60e51b81526004016104bf9061282b565b6106d8858585858561168b565b6097546001600160a01b03163314610c545760405162461bcd60e51b81526004016104bf906126df565b6001600160a01b038116610cb95760405162461bcd60e51b815260206004820152602660248201527f4f776e61626c653a206e6577206f776e657220697320746865207a65726f206160448201526564647265737360d01b60648201526084016104bf565b61057581611363565b6001600160a01b038316331480610cde5750610cde83336103c9565b610cfa5760405162461bcd60e51b81526004016104bf9061282b565b610aab8383836117c7565b6001600160a01b03163b151590565b80516109b0906067906020840190611f27565b6001600160a01b038416610d4d5760405162461bcd60e51b81526004016104bf90612874565b8151835114610d6e5760405162461bcd60e51b81526004016104bf906128b5565b33610d7e816000878787876118e3565b60005b8451811015610e1a57838181518110610d9c57610d9c6127e6565b602002602001015160656000878481518110610dba57610dba6127e6565b602002602001015181526020019081526020016000206000886001600160a01b03166001600160a01b031681526020019081526020016000206000828254610e0291906128fd565b90915550819050610e1281612812565b915050610d81565b50846001600160a01b031660006001600160a01b0316826001600160a01b03167f4a39dc06d4c0dbc64b70af90fd698a233a518aa5d07e595d983b8c0526c8f7fb8787604051610e6b929190612915565b60405180910390a46106d8816000878787876118f1565b8151835114610ea35760405162461bcd60e51b81526004016104bf906128b5565b6001600160a01b038416610ec95760405162461bcd60e51b81526004016104bf9061293a565b33610ed88187878787876118e3565b60005b8451811015610fc1576000858281518110610ef857610ef86127e6565b602002602001015190506000858381518110610f1657610f166127e6565b60209081029190910181015160008481526065835260408082206001600160a01b038e168352909352919091205490915081811015610f675760405162461bcd60e51b81526004016104bf9061297f565b60008381526065602090815260408083206001600160a01b038e8116855292528083208585039055908b16825281208054849290610fa69084906128fd565b9250508190555050505080610fba90612812565b9050610edb565b50846001600160a01b0316866001600160a01b0316826001600160a01b03167f4a39dc06d4c0dbc64b70af90fd698a233a518aa5d07e595d983b8c0526c8f7fb8787604051611011929190612915565b60405180910390a46110278187878787876118f1565b505050505050565b6097546001600160a01b031633146105755760405162461bcd60e51b81526004016104bf906126df565b7f4910fdfa16fed3260ed0e7147f7cc6da11a60208b5b9406d12a635614ffd91435460ff161561108c57610aab83611a4c565b826001600160a01b03166352d1902d6040518163ffffffff1660e01b8152600401602060405180830381865afa9250505080156110e6575060408051601f3d908101601f191682019092526110e3918101906129c9565b60015b6111495760405162461bcd60e51b815260206004820152602e60248201527f45524331393637557067726164653a206e657720696d706c656d656e7461746960448201526d6f6e206973206e6f74205555505360901b60648201526084016104bf565b600080516020612ccb83398151915281146111b85760405162461bcd60e51b815260206004820152602960248201527f45524331393637557067726164653a20756e737570706f727465642070726f786044820152681a58589b195555525160ba1b60648201526084016104bf565b50610aab838383611ae8565b6001600160a01b0383166111ea5760405162461bcd60e51b81526004016104bf906129e2565b805182511461120b5760405162461bcd60e51b81526004016104bf906128b5565b600033905061122e818560008686604051806020016040528060008152506118e3565b60005b83518110156112f657600084828151811061124e5761124e6127e6565b60200260200101519050600084838151811061126c5761126c6127e6565b60209081029190910181015160008481526065835260408082206001600160a01b038c1683529093529190912054909150818110156112bd5760405162461bcd60e51b81526004016104bf90612a25565b60009283526065602090815260408085206001600160a01b038b16865290915290922091039055806112ee81612812565b915050611231565b5060006001600160a01b0316846001600160a01b0316826001600160a01b03167f4a39dc06d4c0dbc64b70af90fd698a233a518aa5d07e595d983b8c0526c8f7fb8686604051611347929190612915565b60405180910390a4604080516020810190915260009052610642565b609780546001600160a01b038381166001600160a01b0319831681179093556040519116919082907f8be0079c531659141344cd1fd0a4f28419497f9722a3daafe3b4186f6b6457e090600090a35050565b6001600160a01b0384166113db5760405162461bcd60e51b81526004016104bf90612874565b3360006113e785611b0d565b905060006113f485611b0d565b9050611405836000898585896118e3565b60008681526065602090815260408083206001600160a01b038b168452909152812080548792906114379084906128fd565b909155505060408051878152602081018790526001600160a01b03808a1692600092918716917fc3d58168c5ae7397731d063d5bbf3d657854427343f4c083240f7aacaa2d0f62910160405180910390a461149783600089898989611b58565b50505050505050565b60008054610100900460ff16156114e7578160ff1660011480156114c35750303b155b6114df5760405162461bcd60e51b81526004016104bf90612a69565b506000919050565b60005460ff80841691161061150e5760405162461bcd60e51b81526004016104bf90612a69565b506000805460ff191660ff92909216919091179055600190565b919050565b600054610100900460ff166115545760405162461bcd60e51b81526004016104bf90612ab7565b61057581611c13565b600054610100900460ff16610cb95760405162461bcd60e51b81526004016104bf90612ab7565b600054610100900460ff16610ae45760405162461bcd60e51b81526004016104bf90612ab7565b816001600160a01b0316836001600160a01b03160361161e5760405162461bcd60e51b815260206004820152602960248201527f455243313135353a2073657474696e6720617070726f76616c20737461747573604482015268103337b91039b2b63360b91b60648201526084016104bf565b6001600160a01b03838116600081815260666020908152604080832094871680845294825291829020805460ff191686151590811790915591519182527f17307eab39ab6107e8899845ad3d59bd9653f200f220920489ca2b5937696c31910160405180910390a3505050565b6001600160a01b0384166116b15760405162461bcd60e51b81526004016104bf9061293a565b3360006116bd85611b0d565b905060006116ca85611b0d565b90506116da8389898585896118e3565b60008681526065602090815260408083206001600160a01b038c1684529091529020548581101561171d5760405162461bcd60e51b81526004016104bf9061297f565b60008781526065602090815260408083206001600160a01b038d8116855292528083208985039055908a1682528120805488929061175c9084906128fd565b909155505060408051888152602081018890526001600160a01b03808b16928c821692918816917fc3d58168c5ae7397731d063d5bbf3d657854427343f4c083240f7aacaa2d0f62910160405180910390a46117bc848a8a8a8a8a611b58565b505050505050505050565b6001600160a01b0383166117ed5760405162461bcd60e51b81526004016104bf906129e2565b3360006117f984611b0d565b9050600061180684611b0d565b9050611826838760008585604051806020016040528060008152506118e3565b60008581526065602090815260408083206001600160a01b038a168452909152902054848110156118695760405162461bcd60e51b81526004016104bf90612a25565b60008681526065602090815260408083206001600160a01b038b81168086529184528285208a8703905582518b81529384018a90529092908816917fc3d58168c5ae7397731d063d5bbf3d657854427343f4c083240f7aacaa2d0f62910160405180910390a4604080516020810190915260009052611497565b611027868686868686611c3a565b6001600160a01b0384163b156110275760405163bc197c8160e01b81526001600160a01b0385169063bc197c81906119359089908990889088908890600401612b02565b6020604051808303816000875af1925050508015611970575060408051601f3d908101601f1916820190925261196d91810190612b60565b60015b611a1c5761197c612b7d565b806308c379a0036119b55750611990612b98565b8061199b57506119b7565b8060405162461bcd60e51b81526004016104bf9190612194565b505b60405162461bcd60e51b815260206004820152603460248201527f455243313135353a207472616e7366657220746f206e6f6e20455243313135356044820152732932b1b2b4bb32b91034b6b83632b6b2b73a32b960611b60648201526084016104bf565b6001600160e01b0319811663bc197c8160e01b146114975760405162461bcd60e51b81526004016104bf90612c21565b6001600160a01b0381163b611ab95760405162461bcd60e51b815260206004820152602d60248201527f455243313936373a206e657720696d706c656d656e746174696f6e206973206e60448201526c1bdd08184818dbdb9d1c9858dd609a1b60648201526084016104bf565b600080516020612ccb83398151915280546001600160a01b0319166001600160a01b0392909216919091179055565b611af183611db3565b600082511180611afe5750805b15610aab576106428383611df3565b60408051600180825281830190925260609160009190602080830190803683370190505090508281600081518110611b4757611b476127e6565b602090810291909101015292915050565b6001600160a01b0384163b156110275760405163f23a6e6160e01b81526001600160a01b0385169063f23a6e6190611b9c9089908990889088908890600401612c69565b6020604051808303816000875af1925050508015611bd7575060408051601f3d908101601f19168201909252611bd491810190612b60565b60015b611be35761197c612b7d565b6001600160e01b0319811663f23a6e6160e01b146114975760405162461bcd60e51b81526004016104bf90612c21565b600054610100900460ff1661056c5760405162461bcd60e51b81526004016104bf90612ab7565b6001600160a01b038516611cc15760005b8351811015611cbf57828181518110611c6657611c666127e6565b602002602001015160fb6000868481518110611c8457611c846127e6565b602002602001015181526020019081526020016000206000828254611ca991906128fd565b90915550611cb8905081612812565b9050611c4b565b505b6001600160a01b0384166110275760005b8351811015611497576000848281518110611cef57611cef6127e6565b602002602001015190506000848381518110611d0d57611d0d6127e6565b60200260200101519050600060fb600084815260200190815260200160002054905081811015611d905760405162461bcd60e51b815260206004820152602860248201527f455243313135353a206275726e20616d6f756e74206578636565647320746f74604482015267616c537570706c7960c01b60648201526084016104bf565b600092835260fb602052604090922091039055611dac81612812565b9050611cd2565b611dbc81611a4c565b6040516001600160a01b038216907fbc7cd75a20ee27fd9adebab32041f755214dbc6bffa90cc0225b39da2e5c2d3b90600090a250565b60606001600160a01b0383163b611e5b5760405162461bcd60e51b815260206004820152602660248201527f416464726573733a2064656c65676174652063616c6c20746f206e6f6e2d636f6044820152651b9d1c9858dd60d21b60648201526084016104bf565b600080846001600160a01b031684604051611e769190612cae565b600060405180830381855af49150503d8060008114611eb1576040519150601f19603f3d011682016040523d82523d6000602084013e611eb6565b606091505b5091509150611ede8282604051806060016040528060278152602001612ceb60279139611ee7565b95945050505050565b60608315611ef6575081611f20565b825115611f065782518084602001fd5b8160405162461bcd60e51b81526004016104bf9190612194565b9392505050565b828054611f3390612714565b90600052602060002090601f016020900481019282611f555760008555611f9b565b82601f10611f6e57805160ff1916838001178555611f9b565b82800160010185558215611f9b579182015b82811115611f9b578251825591602001919060010190611f80565b50611fa7929150611fab565b5090565b5b80821115611fa75760008155600101611fac565b80356001600160a01b038116811461152857600080fd5b60008060408385031215611fea57600080fd5b611ff383611fc0565b946020939093013593505050565b6001600160e01b03198116811461057557600080fd5b60006020828403121561202957600080fd5b8135611f2081612001565b634e487b7160e01b600052604160045260246000fd5b601f8201601f191681016001600160401b038111828210171561206f5761206f612034565b6040525050565b60006001600160401b0383111561208f5761208f612034565b6040516120a6601f8501601f19166020018261204a565b8091508381528484840111156120bb57600080fd5b83836020830137600060208583010152509392505050565b6000602082840312156120e557600080fd5b81356001600160401b038111156120fb57600080fd5b8201601f8101841361210c57600080fd5b61211b84823560208401612076565b949350505050565b60006020828403121561213557600080fd5b5035919050565b60005b8381101561215757818101518382015260200161213f565b838111156106425750506000910152565b6000815180845261218081602086016020860161213c565b601f01601f19169290920160200192915050565b602081526000611f206020830184612168565b60006001600160401b038211156121c0576121c0612034565b5060051b60200190565b600082601f8301126121db57600080fd5b813560206121e8826121a7565b6040516121f5828261204a565b83815260059390931b850182019282810191508684111561221557600080fd5b8286015b848110156122305780358352918301918301612219565b509695505050505050565b600082601f83011261224c57600080fd5b611f2083833560208501612076565b6000806000806080858703121561227157600080fd5b61227a85611fc0565b935060208501356001600160401b038082111561229657600080fd5b6122a2888389016121ca565b945060408701359150808211156122b857600080fd5b6122c4888389016121ca565b935060608701359150808211156122da57600080fd5b506122e78782880161223b565b91505092959194509250565b600080600080600060a0868803121561230b57600080fd5b61231486611fc0565b945061232260208701611fc0565b935060408601356001600160401b038082111561233e57600080fd5b61234a89838a016121ca565b9450606088013591508082111561236057600080fd5b61236c89838a016121ca565b9350608088013591508082111561238257600080fd5b5061238f8882890161223b565b9150509295509295909350565b6000602082840312156123ae57600080fd5b611f2082611fc0565b600080604083850312156123ca57600080fd5b82356001600160401b03808211156123e157600080fd5b818501915085601f8301126123f557600080fd5b81356020612402826121a7565b60405161240f828261204a565b83815260059390931b850182019282810191508984111561242f57600080fd5b948201945b838610156124545761244586611fc0565b82529482019490820190612434565b9650508601359250508082111561246a57600080fd5b50612477858286016121ca565b9150509250929050565b600081518084526020808501945080840160005b838110156124b157815187529582019590820190600101612495565b509495945050505050565b602081526000611f206020830184612481565b600080604083850312156124e257600080fd5b6124eb83611fc0565b915060208301356001600160401b0381111561250657600080fd5b6124778582860161223b565b60008060006060848603121561252757600080fd5b61253084611fc0565b925060208401356001600160401b038082111561254c57600080fd5b612558878388016121ca565b9350604086013591508082111561256e57600080fd5b5061257b868287016121ca565b9150509250925092565b6000806000806080858703121561259b57600080fd5b6125a485611fc0565b9350602085013592506040850135915060608501356001600160401b038111156125cd57600080fd5b6122e78782880161223b565b600080604083850312156125ec57600080fd5b6125f583611fc0565b91506020830135801515811461260a57600080fd5b809150509250929050565b6000806040838503121561262857600080fd5b61263183611fc0565b915061263f60208401611fc0565b90509250929050565b600080600080600060a0868803121561266057600080fd5b61266986611fc0565b945061267760208701611fc0565b9350604086013592506060860135915060808601356001600160401b038111156126a057600080fd5b61238f8882890161223b565b6000806000606084860312156126c157600080fd5b6126ca84611fc0565b95602085013595506040909401359392505050565b6020808252818101527f4f776e61626c653a2063616c6c6572206973206e6f7420746865206f776e6572604082015260600190565b600181811c9082168061272857607f821691505b60208210810361274857634e487b7160e01b600052602260045260246000fd5b50919050565b6020808252602c908201527f46756e6374696f6e206d7573742062652063616c6c6564207468726f7567682060408201526b19195b1959d85d1958d85b1b60a21b606082015260800190565b6020808252602c908201527f46756e6374696f6e206d7573742062652063616c6c6564207468726f7567682060408201526b6163746976652070726f787960a01b606082015260800190565b634e487b7160e01b600052603260045260246000fd5b634e487b7160e01b600052601160045260246000fd5b600060018201612824576128246127fc565b5060010190565b60208082526029908201527f455243313135353a2063616c6c6572206973206e6f74206f776e6572206e6f7260408201526808185c1c1c9bdd995960ba1b606082015260800190565b60208082526021908201527f455243313135353a206d696e7420746f20746865207a65726f206164647265736040820152607360f81b606082015260800190565b60208082526028908201527f455243313135353a2069647320616e6420616d6f756e7473206c656e677468206040820152670dad2e6dac2e8c6d60c31b606082015260800190565b60008219821115612910576129106127fc565b500190565b6040815260006129286040830185612481565b8281036020840152611ede8185612481565b60208082526025908201527f455243313135353a207472616e7366657220746f20746865207a65726f206164604082015264647265737360d81b606082015260800190565b6020808252602a908201527f455243313135353a20696e73756666696369656e742062616c616e636520666f60408201526939103a3930b739b332b960b11b606082015260800190565b6000602082840312156129db57600080fd5b5051919050565b60208082526023908201527f455243313135353a206275726e2066726f6d20746865207a65726f206164647260408201526265737360e81b606082015260800190565b60208082526024908201527f455243313135353a206275726e20616d6f756e7420657863656564732062616c604082015263616e636560e01b606082015260800190565b6020808252602e908201527f496e697469616c697a61626c653a20636f6e747261637420697320616c72656160408201526d191e481a5b9a5d1a585b1a5e995960921b606082015260800190565b6020808252602b908201527f496e697469616c697a61626c653a20636f6e7472616374206973206e6f74206960408201526a6e697469616c697a696e6760a81b606082015260800190565b6001600160a01b0386811682528516602082015260a060408201819052600090612b2e90830186612481565b8281036060840152612b408186612481565b90508281036080840152612b548185612168565b98975050505050505050565b600060208284031215612b7257600080fd5b8151611f2081612001565b600060033d1115610a655760046000803e5060005160e01c90565b600060443d1015612ba65790565b6040516003193d81016004833e81513d6001600160401b038160248401118184111715612bd557505050505090565b8285019150815181811115612bed5750505050505090565b843d8701016020828501011115612c075750505050505090565b612c166020828601018761204a565b509095945050505050565b60208082526028908201527f455243313135353a204552433131353552656365697665722072656a656374656040820152676420746f6b656e7360c01b606082015260800190565b6001600160a01b03868116825285166020820152604081018490526060810183905260a060808201819052600090612ca390830184612168565b979650505050505050565b60008251612cc081846020870161213c565b919091019291505056fe360894a13ba1a3210667c828492db98dca3e2076cc3735a920a3ca505d382bbc416464726573733a206c6f772d6c6576656c2064656c65676174652063616c6c206661696c6564a2646970667358221220b8627bff94c17df31057be8071a6ab7f43ae762a03231dc60aff97c74fc875f664736f6c634300080d0033496e697469616c697a61626c653a20636f6e747261637420697320616c726561",
  "linkReferences": {},
  "deployedLinkReferences": {}
}