{
  "_format": "hh-sol-artifact-1",
  "contractName": "Collection5",
  "sourceName": "contracts/collection-5-factory/Collection5.sol",
  "abi": [
    {
      "inputs": [],
      "stateMutability": "nonpayable",
      "type": "constructor"
    },
    {
      "anonymous": false,
      "inputs": [
        {
          "indexed": false,
          "internalType": "address",
          "name": "previousAdmin",
          "type": "address"
        },
        {
          "indexed": false,
          "internalType": "address",
          "name": "newAdmin",
          "type": "address"
        }
      ],
      "name": "AdminChanged",
      "type": "event"
    },
    {
      "anonymous": false,
      "inputs": [
        {
          "indexed": true,
          "internalType": "address",
          "name": "account",
          "type": "address"
        },
        {
          "indexed": true,
          "internalType": "address",
          "name": "operator",
          "type": "address"
        },
        {
          "indexed": false,
          "internalType": "bool",
          "name": "approved",
          "type": "bool"
        }
      ],
      "name": "ApprovalForAll",
      "type": "event"
    },
    {
      "anonymous": false,
      "inputs": [
        {
          "indexed": true,
          "internalType": "address",
          "name": "beacon",
          "type": "address"
        }
      ],
      "name": "BeaconUpgraded",
      "type": "event"
    },
    {
      "anonymous": false,
      "inputs": [
        {
          "indexed": false,
          "internalType": "uint8",
          "name": "version",
          "type": "uint8"
        }
      ],
      "name": "Initialized",
      "type": "event"
    },
    {
      "anonymous": false,
      "inputs": [
        {
          "indexed": true,
          "internalType": "address",
          "name": "previousOwner",
          "type": "address"
        },
        {
          "indexed": true,
          "internalType": "address",
          "name": "newOwner",
          "type": "address"
        }
      ],
      "name": "OwnershipTransferred",
      "type": "event"
    },
    {
      "anonymous": false,
      "inputs": [
        {
          "indexed": true,
          "internalType": "address",
          "name": "operator",
          "type": "address"
        },
        {
          "indexed": true,
          "internalType": "address",
          "name": "from",
          "type": "address"
        },
        {
          "indexed": true,
          "internalType": "address",
          "name": "to",
          "type": "address"
        },
        {
          "indexed": false,
          "internalType": "uint256[]",
          "name": "ids",
          "type": "uint256[]"
        },
        {
          "indexed": false,
          "internalType": "uint256[]",
          "name": "values",
          "type": "uint256[]"
        }
      ],
      "name": "TransferBatch",
      "type": "event"
    },
    {
      "anonymous": false,
      "inputs": [
        {
          "indexed": true,
          "internalType": "address",
          "name": "operator",
          "type": "address"
        },
        {
          "indexed": true,
          "internalType": "address",
          "name": "from",
          "type": "address"
        },
        {
          "indexed": true,
          "internalType": "address",
          "name": "to",
          "type": "address"
        },
        {
          "indexed": false,
          "internalType": "uint256",
          "name": "id",
          "type": "uint256"
        },
        {
          "indexed": false,
          "internalType": "uint256",
          "name": "value",
          "type": "uint256"
        }
      ],
      "name": "TransferSingle",
      "type": "event"
    },
    {
      "anonymous": false,
      "inputs": [
        {
          "indexed": false,
          "internalType": "string",
          "name": "value",
          "type": "string"
        },
        {
          "indexed": true,
          "internalType": "uint256",
          "name": "id",
          "type": "uint256"
        }
      ],
      "name": "URI",
      "type": "event"
    },
    {
      "anonymous": false,
      "inputs": [
        {
          "indexed": true,
          "internalType": "address",
          "name": "implementation",
          "type": "address"
        }
      ],
      "name": "Upgraded",
      "type": "event"
    },
    {
      "inputs": [
        {
          "internalType": "address",
          "name": "account",
          "type": "address"
        },
        {
          "internalType": "uint256",
          "name": "id",
          "type": "uint256"
        }
      ],
      "name": "balanceOf",
      "outputs": [
        {
          "internalType": "uint256",
          "name": "",
          "type": "uint256"
        }
      ],
      "stateMutability": "view",
      "type": "function"
    },
    {
      "inputs": [
        {
          "internalType": "address[]",
          "name": "accounts",
          "type": "address[]"
        },
        {
          "internalType": "uint256[]",
          "name": "ids",
          "type": "uint256[]"
        }
      ],
      "name": "balanceOfBatch",
      "outputs": [
        {
          "internalType": "uint256[]",
          "name": "",
          "type": "uint256[]"
        }
      ],
      "stateMutability": "view",
      "type": "function"
    },
    {
      "inputs": [
        {
          "internalType": "address",
          "name": "account",
          "type": "address"
        },
        {
          "internalType": "uint256",
          "name": "id",
          "type": "uint256"
        },
        {
          "internalType": "uint256",
          "name": "value",
          "type": "uint256"
        }
      ],
      "name": "burn",
      "outputs": [],
      "stateMutability": "nonpayable",
      "type": "function"
    },
    {
      "inputs": [
        {
          "internalType": "address",
          "name": "account",
          "type": "address"
        },
        {
          "internalType": "uint256[]",
          "name": "ids",
          "type": "uint256[]"
        },
        {
          "internalType": "uint256[]",
          "name": "values",
          "type": "uint256[]"
        }
      ],
      "name": "burnBatch",
      "outputs": [],
      "stateMutability": "nonpayable",
      "type": "function"
    },
    {
      "inputs": [
        {
          "internalType": "uint256",
          "name": "id",
          "type": "uint256"
        }
      ],
      "name": "exists",
      "outputs": [
        {
          "internalType": "bool",
          "name": "",
          "type": "bool"
        }
      ],
      "stateMutability": "view",
      "type": "function"
    },
    {
      "inputs": [
        {
          "internalType": "address",
          "name": "owner",
          "type": "address"
        }
      ],
      "name": "initialize",
      "outputs": [],
      "stateMutability": "nonpayable",
      "type": "function"
    },
    {
      "inputs": [
        {
          "internalType": "address",
          "name": "account",
          "type": "address"
        },
        {
          "internalType": "address",
          "name": "operator",
          "type": "address"
        }
      ],
      "name": "isApprovedForAll",
      "outputs": [
        {
          "internalType": "bool",
          "name": "",
          "type": "bool"
        }
      ],
      "stateMutability": "view",
      "type": "function"
    },
    {
      "inputs": [
        {
          "internalType": "address",
          "name": "account",
          "type": "address"
        },
        {
          "internalType": "uint256",
          "name": "id",
          "type": "uint256"
        },
        {
          "internalType": "uint256",
          "name": "amount",
          "type": "uint256"
        },
        {
          "internalType": "bytes",
          "name": "data",
          "type": "bytes"
        }
      ],
      "name": "mint",
      "outputs": [],
      "stateMutability": "nonpayable",
      "type": "function"
    },
    {
      "inputs": [
        {
          "internalType": "address",
          "name": "to",
          "type": "address"
        },
        {
          "internalType": "uint256[]",
          "name": "ids",
          "type": "uint256[]"
        },
        {
          "internalType": "uint256[]",
          "name": "amounts",
          "type": "uint256[]"
        },
        {
          "internalType": "bytes",
          "name": "data",
          "type": "bytes"
        }
      ],
      "name": "mintBatch",
      "outputs": [],
      "stateMutability": "nonpayable",
      "type": "function"
    },
    {
      "inputs": [],
      "name": "owner",
      "outputs": [
        {
          "internalType": "address",
          "name": "",
          "type": "address"
        }
      ],
      "stateMutability": "view",
      "type": "function"
    },
    {
      "inputs": [],
      "name": "proxiableUUID",
      "outputs": [
        {
          "internalType": "bytes32",
          "name": "",
          "type": "bytes32"
        }
      ],
      "stateMutability": "view",
      "type": "function"
    },
    {
      "inputs": [],
      "name": "renounceOwnership",
      "outputs": [],
      "stateMutability": "nonpayable",
      "type": "function"
    },
    {
      "inputs": [
        {
          "internalType": "address",
          "name": "from",
          "type": "address"
        },
        {
          "internalType": "address",
          "name": "to",
          "type": "address"
        },
        {
          "internalType": "uint256[]",
          "name": "ids",
          "type": "uint256[]"
        },
        {
          "internalType": "uint256[]",
          "name": "amounts",
          "type": "uint256[]"
        },
        {
          "internalType": "bytes",
          "name": "data",
          "type": "bytes"
        }
      ],
      "name": "safeBatchTransferFrom",
      "outputs": [],
      "stateMutability": "nonpayable",
      "type": "function"
    },
    {
      "inputs": [
        {
          "internalType": "address",
          "name": "from",
          "type": "address"
        },
        {
          "internalType": "address",
          "name": "to",
          "type": "address"
        },
        {
          "internalType": "uint256",
          "name": "id",
          "type": "uint256"
        },
        {
          "internalType": "uint256",
          "name": "amount",
          "type": "uint256"
        },
        {
          "internalType": "bytes",
          "name": "data",
          "type": "bytes"
        }
      ],
      "name": "safeTransferFrom",
      "outputs": [],
      "stateMutability": "nonpayable",
      "type": "function"
    },
    {
      "inputs": [
        {
          "internalType": "address",
          "name": "operator",
          "type": "address"
        },
        {
          "internalType": "bool",
          "name": "approved",
          "type": "bool"
        }
      ],
      "name": "setApprovalForAll",
      "outputs": [],
      "stateMutability": "nonpayable",
      "type": "function"
    },
    {
      "inputs": [
        {
          "internalType": "string",
          "name": "newuri",
          "type": "string"
        }
      ],
      "name": "setURI",
      "outputs": [],
      "stateMutability": "nonpayable",
      "type": "function"
    },
    {
      "inputs": [
        {
          "internalType": "bytes4",
          "name": "interfaceId",
          "type": "bytes4"
        }
      ],
      "name": "supportsInterface",
      "outputs": [
        {
          "internalType": "bool",
          "name": "",
          "type": "bool"
        }
      ],
      "stateMutability": "view",
      "type": "function"
    },
    {
      "inputs": [
        {
          "internalType": "uint256",
          "name": "id",
          "type": "uint256"
        }
      ],
      "name": "totalSupply",
      "outputs": [
        {
          "internalType": "uint256",
          "name": "",
          "type": "uint256"
        }
      ],
      "stateMutability": "view",
      "type": "function"
    },
    {
      "inputs": [
        {
          "internalType": "address",
          "name": "newOwner",
          "type": "address"
        }
      ],
      "name": "transferOwnership",
      "outputs": [],
      "stateMutability": "nonpayable",
      "type": "function"
    },
    {
      "inputs": [
        {
          "internalType": "address",
          "name": "newImplementation",
          "type": "address"
        }
      ],
      "name": "upgradeTo",
      "outputs": [],
      "stateMutability": "nonpayable",
      "type": "function"
    },
    {
      "inputs": [
        {
          "internalType": "address",
          "name": "newImplementation",
          "type": "address"
        },
        {
          "internalType": "bytes",
          "name": "data",
          "type": "bytes"
        }
      ],
      "name": "upgradeToAndCall",
      "outputs": [],
      "stateMutability": "payable",
      "type": "function"
    },
    {
      "inputs": [
        {
          "internalType": "uint256",
          "name": "",
          "type": "uint256"
        }
      ],
      "name": "uri",
      "outputs": [
        {
          "internalType": "string",
          "name": "",
          "type": "string"
        }
      ],
      "stateMutability": "view",
      "type": "function"
    }
  ],
  "bytecode": "0x60a0604052346200004057306080526200001862000045565b50604051612bdb9081620001098239608051818181610ad601528181610d400152610e8c0152f35b600080fd5b60005460ff8160081c16600014620000a25760405162461bcd60e51b815260206004820152602e602482015260008051602062002ce483398151915260448201526d191e481a5b9a5d1a585b1a5e995960921b6064820152608490fd5b60ff8082161015620000bd5760ff191660ff17600055600190565b60405162461bcd60e51b815260206004820152602e602482015260008051602062002ce483398151915260448201526d191e481a5b9a5d1a585b1a5e995960921b6064820152608490fdfe60806040526004361015610013575b600080fd5b60003560e01c8062fdd58e146101ca57806301ffc9a7146101c157806302fe5305146101b85780630e89341c146101af5780631f7fdffa146101a65780632eb2c2d61461019d5780633659cfe6146101945780634e1273f41461018b5780634f1ef286146101825780634f558e791461017957806352d1902d146101705780636b20c45414610167578063715018a61461015e578063731133e9146101555780638da5cb5b1461014c578063a22cb46514610143578063bd85b0391461013a578063c4d66de814610131578063e985e9c514610128578063f242432a1461011f578063f2fde38b146101165763f5298aca1461010e57600080fd5b61000e61185e565b5061000e6117c7565b5061000e6115db565b5061000e61157d565b5061000e6113af565b5061000e611382565b5061000e611291565b5061000e611267565b5061000e611112565b5061000e6110aa565b5061000e610f3e565b5061000e610e78565b5061000e610e49565b5061000e610d02565b5061000e610c48565b5061000e610ab2565b5061000e6108ab565b5061000e6106a0565b5061000e610539565b5061000e6103a0565b5061000e610255565b5061000e610213565b600435906001600160a01b038216820361000e57565b602435906001600160a01b038216820361000e57565b35906001600160a01b038216820361000e57565b503461000e57604036600319011261000e57602061023b6102326101d3565b60243590611ef7565b604051908152f35b6001600160e01b031981160361000e57565b503461000e57602036600319011261000e57602060043561027581610243565b63ffffffff60e01b16636cdb3d1360e11b81149081156102b3575b81156102a2575b506040519015158152f35b6301ffc9a760e01b14905038610297565b6303a24d0760e21b81149150610290565b50634e487b7160e01b600052604160045260246000fd5b602081019081106001600160401b038211176102f657604052565b6102fe6102c4565b604052565b604081019081106001600160401b038211176102f657604052565b90601f801991011681019081106001600160401b038211176102f657604052565b6020906001600160401b03811161035c575b601f01601f19160190565b6103646102c4565b610351565b9291926103758261033f565b91610383604051938461031e565b82948184528183011161000e578281602093846000960137010152565b503461000e5760208060031936011261000e576001600160401b0360043581811161000e573660238201121561000e576103e4903690602481600401359101610369565b916103fa60018060a01b036097541633146119e0565b82519182116104c7575b61041882610413606754611ebd565b61295d565b80601f831160011461045257508192600092610447575b50508160011b916000199060031b1c1916176067555b005b01519050388061042f565b90601f198316936104736067600052600080516020612b8683398151915290565b926000905b8682106104af5750508360019510610496575b505050811b01606755005b015160001960f88460031b161c1916905538808061048b565b80600185968294968601518155019501930190610478565b6104cf6102c4565b610404565b91908251928382526000905b84821061050d575092806020939411610500575b601f01601f1916010190565b60008382840101526104f4565b906020908180828501015190828601015201906104e0565b9060206105369281815201906104d4565b90565b503461000e5760208060031936011261000e5760405160009160675461055e81611ebd565b808452906001908181169081156105e15750600114610598575b610594846105888188038261031e565b60405191829182610525565b0390f35b60676000908152929450600080516020612b868339815191525b8284106105ce5750505081610594936105889282010193610578565b80548585018701529285019281016105b2565b60ff1916858501525050151560051b820101915061058881610594610578565b6020906001600160401b03811161061a575b60051b0190565b6106226102c4565b610613565b81601f8201121561000e5780359161063e83610601565b9261064c604051948561031e565b808452602092838086019260051b82010192831161000e578301905b828210610676575050505090565b81358152908301908301610668565b9080601f8301121561000e5781602061053693359101610369565b503461000e57608036600319011261000e576106ba6101d3565b6001600160401b039060243582811161000e576106db903690600401610627565b60443583811161000e576106f3903690600401610627565b9260643590811161000e5761070c903690600401610685565b9160018060a01b03610723816097541633146119e0565b81169081159361073385156129bc565b6107408451875114612214565b60005b8451811015610790578061075a61078b9289612007565b5161078461077c61076b848a612007565b5160005260fb602052604060002090565b918254612208565b9055611fd4565b610743565b5090919361083a575b60005b83518110156107f557806107b36107f09288612007565b5161078461077c866107d96107c8868b612007565b516000526065602052604060002090565b9060018060a01b0316600052602052604060002090565b61079c565b509184916104459460006040517f4a39dc06d4c0dbc64b70af90fd698a233a518aa5d07e595d983b8c0526c8f7fb339180610831898983612271565b0390a43361269b565b929060005b83518110156108a3578061085661089e9286612007565b51610898610864838a612007565b516108798360005260fb602052604060002090565b5461088682821015612a12565b039160005260fb602052604060002090565b55611fd4565b61083f565b509092610799565b503461000e5760a036600319011261000e576108c56101d3565b6108cd6101e9565b906001600160401b039060443582811161000e576108ef903690600401610627565b9160643581811161000e57610908903690600401610627565b9060843590811161000e57610921903690600401610685565b6001600160a01b038381169491903386148015610a8f575b15610a2f5761094b8351855114612214565b861661095881151561214f565b61096484848988612aeb565b60005b83518110156109eb578061097e6109e69286612007565b5161078461077c8b6107d9610993868c612007565b51948c6109d5876109b2836107d9866000526065602052604060002090565b546109bf828210156121a9565b03916107d9846000526065602052604060002090565b556000526065602052604060002090565b610967565b5093869194610445966040517f4a39dc06d4c0dbc64b70af90fd698a233a518aa5d07e595d983b8c0526c8f7fb339180610a268a8a83612271565b0390a4336126d2565b60405162461bcd60e51b815260206004820152603260248201527f455243313135353a207472616e736665722063616c6c6572206973206e6f74206044820152711bdddb995c881b9bdc88185c1c1c9bdd995960721b6064820152608490fd5b50600086815260666020908152604080832033845290915290205460ff16610939565b503461000e57602036600319011261000e57610acc6101d3565b6001600160a01b037f000000000000000000000000000000000000000000000000000000000000000081169190610b0530841415611a7b565b610b22600080516020612b66833981519152938285541614611adc565b610b31816097541633146119e0565b60405190610b3e826102db565b600082527f4910fdfa16fed3260ed0e7147f7cc6da11a60208b5b9406d12a635614ffd91435460ff1615610b785750506104459150611c0c565b6020600491604094939451928380926352d1902d60e01b825286165afa60009181610bd3575b50610bc05760405162461bcd60e51b815280610bbc60048201611bbd565b0390fd5b61044593610bce9114611b5f565b611c9c565b610bf591925060203d8111610bfc575b610bed818361031e565b810190611b50565b9038610b9e565b503d610be3565b90815180825260208080930193019160005b828110610c23575050505090565b835185529381019392810192600101610c15565b906020610536928181520190610c03565b503461000e57604036600319011261000e576004356001600160401b0380821161000e573660238301121561000e578160040135610c8581610601565b92610c93604051948561031e565b81845260209160248386019160051b8301019136831161000e57602401905b828210610ceb578560243586811161000e5761059491610cd9610cdf923690600401610627565b90612029565b60405191829182610c37565b838091610cf7846101ff565b815201910190610cb2565b50604036600319011261000e57610d176101d3565b6024356001600160401b03811161000e57610d36903690600401610685565b6001600160a01b037f00000000000000000000000000000000000000000000000000000000000000008116929190610d7030851415611a7b565b610d8d600080516020612b66833981519152948286541614611adc565b610d9c816097541633146119e0565b7f4910fdfa16fed3260ed0e7147f7cc6da11a60208b5b9406d12a635614ffd91435460ff1615610dd25750506104459150611c0c565b6020600491604094939451928380926352d1902d60e01b825286165afa60009181610e29575b50610e165760405162461bcd60e51b815280610bbc60048201611bbd565b61044593610e249114611b5f565b611dac565b610e4291925060203d8111610bfc57610bed818361031e565b9038610df8565b503461000e57602036600319011261000e5760043560005260fb60205260206040600020541515604051908152f35b503461000e57600036600319011261000e577f00000000000000000000000000000000000000000000000000000000000000006001600160a01b03163003610ed357604051600080516020612b668339815191528152602090f35b60405162461bcd60e51b815260206004820152603860248201527f555550535570677261646561626c653a206d757374206e6f742062652063616c60448201527f6c6564207468726f7567682064656c656761746563616c6c00000000000000006064820152608490fd5b503461000e57606036600319011261000e57610f586101d3565b6001600160401b039060243582811161000e57610f79903690600401610627565b9160443590811161000e57610f92903690600401610627565b6001600160a01b038216913383148015611087575b610fb0906120f1565b610fbb83151561273d565b610fc88451835114612214565b610fd0611b3d565b50610fdc828583612a6f565b60005b84518110156110455780610ff66110409287612007565b51610898846107d96110088589612007565b51611021836107d9876000526065602052604060002090565b5461102e82821015612795565b03936000526065602052604060002090565b610fdf565b600084867f4a39dc06d4c0dbc64b70af90fd698a233a518aa5d07e595d983b8c0526c8f7fb61107c87604051918291339583612271565b0390a4610445611b3d565b50600083815260666020908152604080832033845290915290205460ff16610fa7565b503461000e5760008060031936011261110f576097546001600160a01b038116906110d63383146119e0565b6001600160a01b0319166097556040519082907f8be0079c531659141344cd1fd0a4f28419497f9722a3daafe3b4186f6b6457e08284a3f35b80fd5b503461000e57608036600319011261000e5761112c6101d3565b6024356044356064356001600160401b03811161000e57611151903690600401610685565b6097546001600160a01b039061116a90821633146119e0565b84169182159361117a85156129bc565b6111838161270c565b9561118d8361270c565b9460005b8880518210156111c057906111bb9161078461077c61076b846111b4818e612007565b5194612007565b611191565b96905087611231575b5061044595506111e7826107d9856000526065602052604060002090565b6111f2858254612208565b9055604080518481526020810186905260009133917fc3d58168c5ae7397731d063d5bbf3d657854427343f4c083240f7aacaa2d0f629190a4336123e4565b93916000959391955b87518110156112565780610856611251928a612007565b61123a565b5091935091936104459550866111c9565b503461000e57600036600319011261000e576097546040516001600160a01b039091168152602090f35b503461000e57604036600319011261000e576112ab6101d3565b602435801515810361000e576001600160a01b0382169133831461132b573360009081526066602052604090206112f99183916112e891906107d9565b9060ff801983541691151516179055565b604051901515815233907f17307eab39ab6107e8899845ad3d59bd9653f200f220920489ca2b5937696c3190602090a3005b60405162461bcd60e51b815260206004820152602960248201527f455243313135353a2073657474696e6720617070726f76616c20737461747573604482015268103337b91039b2b63360b91b6064820152608490fd5b503461000e57602036600319011261000e5760043560005260fb6020526020604060002054604051908152f35b503461000e5760208060031936011261000e576113ca6101d3565b906113d361290c565b9182611569575b604051916113e783610303565b601083526f68747470733a2f2f736f6d655552492f60801b8184015261141d60ff60005460081c166114188161282d565b61282d565b8251906001600160401b03821161155c575b61143e82610413606754611ebd565b80601f83116001146114db57508190611473946000926114d0575b50508160011b916000199060031b1c19161760675561288d565b61147b61294c565b61148361294c565b61148b61294c565b61149157005b6114a161ff001960005416600055565b604051600181527f7f26b83ff96e1f2b6a682f133852f6798a09c465da95921460cefb384740249890602090a1005b015190503880611459565b919293601f1984166114fd6067600052600080516020612b8683398151915290565b936000905b8282106115445750509160019391856114739796941061152b575b505050811b0160675561288d565b015160001960f88460031b161c1916905538808061151d565b80600186978294978701518155019601940190611502565b6115646102c4565b61142f565b61010061ff001960005416176000556113da565b503461000e57604036600319011261000e57602060ff6115cf61159e6101d3565b6115a66101e9565b6001600160a01b0391821660009081526066865260408082209290931681526020919091522090565b54166040519015158152f35b503461000e5760a036600319011261000e576115f56101d3565b6115fd6101e9565b6064356044356084356001600160401b03811161000e57611622903690600401610685565b6001600160a01b03858116959194919033871480156117a4575b611645906120f1565b8216801596611654881561214f565b61165d8561270c565b976116678761270c565b908215611760575b611718575b50610445975085611693846107d9886000526065602052604060002090565b546116a0828210156121a9565b036116b9846107d9886000526065602052604060002090565b556116d2846107d9876000526065602052604060002090565b6116dd878254612208565b9055604080518681526020810188905233917fc3d58168c5ae7397731d063d5bbf3d657854427343f4c083240f7aacaa2d0f6291a433612546565b959391600097959391975b895181101561174d578061173a611748928c612007565b51610898610864838c612007565b611723565b5091939550919395610445975038611674565b9896939095926000989592985b885181101561179457808961078461077c61076b846111b461178f978f612007565b61176d565b509295909396989791949761166f565b50600087815260666020908152604080832033845290915290205460ff1661163c565b503461000e57602036600319011261000e576117e16101d3565b6097546001600160a01b03906117fa90821633146119e0565b81161561180a5761044590611a2b565b60405162461bcd60e51b815260206004820152602660248201527f4f776e61626c653a206e6577206f776e657220697320746865207a65726f206160448201526564647265737360d01b6064820152608490fd5b503461000e57606036600319011261000e576118786101d3565b604435906024356001600160a01b03821633811480156119bd575b61189c906120f1565b8015916118a9831561273d565b6118b28161270c565b946118bc8161270c565b9360006040516118cb816102db565b52611981575b60005b86518110156118fe57806118eb6118f99289612007565b516108986108648389612007565b6118d4565b600084847fc3d58168c5ae7397731d063d5bbf3d657854427343f4c083240f7aacaa2d0f6261107c868b61196782611944836107d9896000526065602052604060002090565b5461195182821015612795565b03916107d9876000526065602052604060002090565b556040805194855260208501919091523393918291820190565b93919060005b86518110156119b4578061199e6119af9287612007565b5161078461077c61076b848c612007565b611987565b509091936118d1565b50600081815260666020908152604080832033845290915290205460ff16611893565b156119e757565b606460405162461bcd60e51b815260206004820152602060248201527f4f776e61626c653a2063616c6c6572206973206e6f7420746865206f776e65726044820152fd5b6097549060018060a01b0380911691826bffffffffffffffffffffffff60a01b821617609755167f8be0079c531659141344cd1fd0a4f28419497f9722a3daafe3b4186f6b6457e06000604051a3565b15611a8257565b60405162461bcd60e51b815260206004820152602c60248201527f46756e6374696f6e206d7573742062652063616c6c6564207468726f7567682060448201526b19195b1959d85d1958d85b1b60a21b6064820152608490fd5b15611ae357565b60405162461bcd60e51b815260206004820152602c60248201527f46756e6374696f6e206d7573742062652063616c6c6564207468726f7567682060448201526b6163746976652070726f787960a01b6064820152608490fd5b60405190611b4a826102db565b60008252565b9081602091031261000e575190565b15611b6657565b60405162461bcd60e51b815260206004820152602960248201527f45524331393637557067726164653a20756e737570706f727465642070726f786044820152681a58589b195555525160ba1b6064820152608490fd5b60809060208152602e60208201527f45524331393637557067726164653a206e657720696d706c656d656e7461746960408201526d6f6e206973206e6f74205555505360901b60608201520190565b803b15611c4157600080516020612b6683398151915280546001600160a01b0319166001600160a01b03909216919091179055565b60405162461bcd60e51b815260206004820152602d60248201527f455243313936373a206e657720696d706c656d656e746174696f6e206973206e60448201526c1bdd08184818dbdb9d1c9858dd609a1b6064820152608490fd5b90611ca682611c0c565b604051600092906001600160a01b0382167fbc7cd75a20ee27fd9adebab32041f755214dbc6bffa90cc0225b39da2e5c2d3b8583a2825115801590611da5575b611cf1575b50505050565b813b15611d545750918082611d429460208395519201905af4903d15611d4c573d611d1b8161033f565b90611d29604051928361031e565b8152809160203d92013e5b611d3c611e56565b916127ed565b5038808080611ceb565b506060611d34565b62461bcd60e51b815260206004820152602660248201527f416464726573733a2064656c65676174652063616c6c20746f206e6f6e2d636f6044820152651b9d1c9858dd60d21b6064820152608490fd5b5083611ce6565b611db581611c0c565b6040516001600160a01b0382167fbc7cd75a20ee27fd9adebab32041f755214dbc6bffa90cc0225b39da2e5c2d3b600083a2825115801590611e4e575b611dfb57505050565b813b15611d54575060008281926020611e4495519201905af43d15611e47573d611e248161033f565b90611e32604051928361031e565b81523d6000602083013e611d3c611e56565b50565b6060611d34565b506001611df2565b60405190606082018281106001600160401b03821117611eb0575b60405260278252660819985a5b195960ca1b6040837f416464726573733a206c6f772d6c6576656c2064656c65676174652063616c6c60208201520152565b611eb86102c4565b611e71565b90600182811c92168015611eed575b6020831014611ed757565b634e487b7160e01b600052602260045260246000fd5b91607f1691611ecc565b6001600160a01b03811615611f3257611f2e91600052606560205260406000209060018060a01b0316600052602052604060002090565b5490565b60405162461bcd60e51b815260206004820152602b60248201527f455243313135353a2062616c616e636520717565727920666f7220746865207a60448201526a65726f206164647265737360a81b6064820152608490fd5b90611f9582610601565b611fa2604051918261031e565b8281528092611fb3601f1991610601565b0190602036910137565b50634e487b7160e01b600052601160045260246000fd5b6001906000198114611fe4570190565b611fec611fbd565b0190565b50634e487b7160e01b600052603260045260246000fd5b602091815181101561201c575b60051b010190565b612024611ff0565b612014565b919091805183510361209a5761203f8151611f8b565b9060005b8151811015612093578061207e61206d61206061208e9486612007565b516001600160a01b031690565b6120778389612007565b5190611ef7565b6120888286612007565b52611fd4565b612043565b5090925050565b60405162461bcd60e51b815260206004820152602960248201527f455243313135353a206163636f756e747320616e6420696473206c656e677468604482015268040dad2e6dac2e8c6d60bb1b6064820152608490fd5b156120f857565b60405162461bcd60e51b815260206004820152602960248201527f455243313135353a2063616c6c6572206973206e6f74206f776e6572206e6f7260448201526808185c1c1c9bdd995960ba1b6064820152608490fd5b1561215657565b60405162461bcd60e51b815260206004820152602560248201527f455243313135353a207472616e7366657220746f20746865207a65726f206164604482015264647265737360d81b6064820152608490fd5b156121b057565b60405162461bcd60e51b815260206004820152602a60248201527f455243313135353a20696e73756666696369656e742062616c616e636520666f60448201526939103a3930b739b332b960b11b6064820152608490fd5b81198111611fe4570190565b1561221b57565b60405162461bcd60e51b815260206004820152602860248201527f455243313135353a2069647320616e6420616d6f756e7473206c656e677468206044820152670dad2e6dac2e8c6d60c31b6064820152608490fd5b909161228861053693604084526040840190610c03565b916020818403910152610c03565b9081602091031261000e575161053681610243565b909260a0926105369594600180861b03168352600060208401526040830152606082015281608082015201906104d4565b919261053695949160a094600180871b0380921685521660208401526040830152606082015281608082015201906104d4565b60809060208152602860208201527f455243313135353a204552433131353552656365697665722072656a656374656040820152676420746f6b656e7360c01b60608201520190565b60009060033d1161236557565b905060046000803e60005160e01c90565b600060443d1061053657604051600319913d83016004833e81516001600160401b03918282113d6024840111176123d3578184019485519384116123db573d850101602084870101116123d357506105369291016020019061031e565b949350505050565b50949350505050565b9390803b6123f4575b5050505050565b61241c9360006020946040519687958694859363f23a6e6160e01b9b8c8652600486016122ab565b03926001600160a01b03165af160009181612516575b506124ee5750506001612443612358565b6308c379a0146124bf575b61245d575b38808080806123ed565b60405162461bcd60e51b815260206004820152603460248201527f455243313135353a207472616e7366657220746f206e6f6e20455243313135356044820152732932b1b2b4bb32b91034b6b83632b6b2b73a32b960611b6064820152608490fd5b6124c7612376565b806124d2575061244e565b60405162461bcd60e51b8152908190610bbc9060048301610525565b6001600160e01b031916146124535760405162461bcd60e51b815280610bbc6004820161230f565b61253891925060203d811161253f575b612530818361031e565b810190612296565b9038612432565b503d612526565b9493919092813b61255a575b505050505050565b60006020946125816040519788968795869463f23a6e6160e01b9c8d8752600487016122dc565b03926001600160a01b03165af1600091816125fe575b506125d657505060016125a8612358565b6308c379a0146125c3575b61245d575b388080808080612552565b6125cb612376565b806124d257506125b3565b6001600160e01b031916146125b85760405162461bcd60e51b815280610bbc6004820161230f565b61261791925060203d811161253f57612530818361031e565b9038612597565b9261264d610536959361265b9360018060a01b031686526000602087015260a0604087015260a0860190610c03565b908482036060860152610c03565b9160808184039101526104d4565b9390610536959361264d9161265b9460018060a01b03809216885216602087015260a0604087015260a0860190610c03565b9390803b6126aa575050505050565b61241c9360006020946040519687958694859363bc197c8160e01b9b8c86526004860161261e565b9493919092813b6126e557505050505050565b60006020946125816040519788968795869463bc197c8160e01b9c8d875260048701612669565b6040519061271982610303565b60018252602082016020368237825115612731575290565b612739611ff0565b5290565b1561274457565b60405162461bcd60e51b815260206004820152602360248201527f455243313135353a206275726e2066726f6d20746865207a65726f206164647260448201526265737360e81b6064820152608490fd5b1561279c57565b60405162461bcd60e51b8152602060048201526024808201527f455243313135353a206275726e20616d6f756e7420657863656564732062616c604482015263616e636560e01b6064820152608490fd5b909190156127f9575090565b8151156128095750805190602001fd5b60405162461bcd60e51b815260206004820152908190610bbc9060248301906104d4565b1561283457565b60405162461bcd60e51b815260206004820152602b60248201527f496e697469616c697a61626c653a20636f6e7472616374206973206e6f74206960448201526a6e697469616c697a696e6760a81b6064820152608490fd5b6128a7906128a260ff60005460081c1661282d565b611a2b565b565b156128b057565b60405162461bcd60e51b815260206004820152602e60248201527f496e697469616c697a61626c653a20636f6e747261637420697320616c72656160448201526d191e481a5b9a5d1a585b1a5e995960921b6064820152608490fd5b60005460ff8160081c1660001461292e5750612929303b156128a9565b600090565b8061293f600160ff819416106128a9565b60ff191617600055600190565b6128a760ff60005460081c1661282d565b601f8111612969575050565b60009060678252600080516020612b86833981519152906020601f850160051c830194106129b2575b601f0160051c01915b8281106129a757505050565b81815560010161299b565b9092508290612992565b156129c357565b60405162461bcd60e51b815260206004820152602160248201527f455243313135353a206d696e7420746f20746865207a65726f206164647265736044820152607360f81b6064820152608490fd5b15612a1957565b60405162461bcd60e51b815260206004820152602860248201527f455243313135353a206275726e20616d6f756e74206578636565647320746f74604482015267616c537570706c7960c01b6064820152608490fd5b909291906001600160a01b031615612ab5575b60005b8351811015612aaf5780612a9c612aaa9286612007565b516108986108648386612007565b612a85565b50509050565b60005b8351811015612ae55780612acf612ae09284612007565b5161078461077c61076b8489612007565b612ab8565b50612a82565b919392916001600160a01b039190821615612b2b575b1615612b0c57509050565b60005b8351811015612aaf5780612a9c612b269286612007565b612b0f565b929060005b8551811015612b5d5780612b47612b589286612007565b5161078461077c61076b848b612007565b612b30565b509092612b0156fe360894a13ba1a3210667c828492db98dca3e2076cc3735a920a3ca505d382bbc9787eeb91fe3101235e4a76063c7023ecb40f923f97916639c598592fa30d6aea264697066735822122046c485be3bf41bf2203f2ac3d48fe8b7d350bdca37391872b7c56e0031c2e6f264736f6c634300080f0033496e697469616c697a61626c653a20636f6e747261637420697320616c726561",
  "linkReferences": {},
  "deployedLinkReferences": {}
}