{
  "_format": "hh-sol-artifact-1",
  "contractName": "NFTContract",
  "sourceName": "contracts/NFTContract.sol",
  "abi": [
    {
      "anonymous": false,
      "inputs": [
        {
          "indexed": true,
          "internalType": "address",
          "name": "owner",
          "type": "address"
        },
        {
          "indexed": true,
          "internalType": "address",
          "name": "approved",
          "type": "address"
        },
        {
          "indexed": true,
          "internalType": "uint256",
          "name": "tokenId",
          "type": "uint256"
        }
      ],
      "name": "Approval",
      "type": "event"
    },
    {
      "anonymous": false,
      "inputs": [
        {
          "indexed": true,
          "internalType": "address",
          "name": "owner",
          "type": "address"
        },
        {
          "indexed": true,
          "internalType": "address",
          "name": "operator",
          "type": "address"
        },
        {
          "indexed": false,
          "internalType": "bool",
          "name": "approved",
          "type": "bool"
        }
      ],
      "name": "ApprovalForAll",
      "type": "event"
    },
    {
      "anonymous": false,
      "inputs": [
        {
          "indexed": true,
          "internalType": "address",
          "name": "previousOwner",
          "type": "address"
        },
        {
          "indexed": true,
          "internalType": "address",
          "name": "newOwner",
          "type": "address"
        }
      ],
      "name": "OwnershipTransferred",
      "type": "event"
    },
    {
      "anonymous": false,
      "inputs": [
        {
          "indexed": true,
          "internalType": "address",
          "name": "from",
          "type": "address"
        },
        {
          "indexed": true,
          "internalType": "address",
          "name": "to",
          "type": "address"
        },
        {
          "indexed": true,
          "internalType": "uint256",
          "name": "tokenId",
          "type": "uint256"
        }
      ],
      "name": "Transfer",
      "type": "event"
    },
    {
      "inputs": [
        {
          "internalType": "address",
          "name": "to",
          "type": "address"
        },
        {
          "internalType": "uint256",
          "name": "tokenId",
          "type": "uint256"
        }
      ],
      "name": "approve",
      "outputs": [],
      "stateMutability": "nonpayable",
      "type": "function"
    },
    {
      "inputs": [
        {
          "internalType": "address",
          "name": "owner",
          "type": "address"
        }
      ],
      "name": "balanceOf",
      "outputs": [
        {
          "internalType": "uint256",
          "name": "",
          "type": "uint256"
        }
      ],
      "stateMutability": "view",
      "type": "function"
    },
    {
      "inputs": [
        {
          "internalType": "uint256",
          "name": "tokenId",
          "type": "uint256"
        }
      ],
      "name": "getApproved",
      "outputs": [
        {
          "internalType": "address",
          "name": "",
          "type": "address"
        }
      ],
      "stateMutability": "view",
      "type": "function"
    },
    {
      "inputs": [
        {
          "internalType": "string",
          "name": "name_",
          "type": "string"
        },
        {
          "internalType": "string",
          "name": "symbol_",
          "type": "string"
        },
        {
          "internalType": "string",
          "name": "baseURI_",
          "type": "string"
        }
      ],
      "name": "initialize",
      "outputs": [],
      "stateMutability": "nonpayable",
      "type": "function"
    },
    {
      "inputs": [
        {
          "internalType": "address",
          "name": "owner",
          "type": "address"
        },
        {
          "internalType": "address",
          "name": "operator",
          "type": "address"
        }
      ],
      "name": "isApprovedForAll",
      "outputs": [
        {
          "internalType": "bool",
          "name": "",
          "type": "bool"
        }
      ],
      "stateMutability": "view",
      "type": "function"
    },
    {
      "inputs": [],
      "name": "name",
      "outputs": [
        {
          "internalType": "string",
          "name": "",
          "type": "string"
        }
      ],
      "stateMutability": "view",
      "type": "function"
    },
    {
      "inputs": [],
      "name": "owner",
      "outputs": [
        {
          "internalType": "address",
          "name": "",
          "type": "address"
        }
      ],
      "stateMutability": "view",
      "type": "function"
    },
    {
      "inputs": [
        {
          "internalType": "uint256",
          "name": "tokenId",
          "type": "uint256"
        }
      ],
      "name": "ownerOf",
      "outputs": [
        {
          "internalType": "address",
          "name": "",
          "type": "address"
        }
      ],
      "stateMutability": "view",
      "type": "function"
    },
    {
      "inputs": [],
      "name": "renounceOwnership",
      "outputs": [],
      "stateMutability": "nonpayable",
      "type": "function"
    },
    {
      "inputs": [
        {
          "internalType": "address",
          "name": "to",
          "type": "address"
        }
      ],
      "name": "safeMint",
      "outputs": [],
      "stateMutability": "nonpayable",
      "type": "function"
    },
    {
      "inputs": [
        {
          "internalType": "address",
          "name": "from",
          "type": "address"
        },
        {
          "internalType": "address",
          "name": "to",
          "type": "address"
        },
        {
          "internalType": "uint256",
          "name": "tokenId",
          "type": "uint256"
        }
      ],
      "name": "safeTransferFrom",
      "outputs": [],
      "stateMutability": "nonpayable",
      "type": "function"
    },
    {
      "inputs": [
        {
          "internalType": "address",
          "name": "from",
          "type": "address"
        },
        {
          "internalType": "address",
          "name": "to",
          "type": "address"
        },
        {
          "internalType": "uint256",
          "name": "tokenId",
          "type": "uint256"
        },
        {
          "internalType": "bytes",
          "name": "_data",
          "type": "bytes"
        }
      ],
      "name": "safeTransferFrom",
      "outputs": [],
      "stateMutability": "nonpayable",
      "type": "function"
    },
    {
      "inputs": [
        {
          "internalType": "address",
          "name": "operator",
          "type": "address"
        },
        {
          "internalType": "bool",
          "name": "approved",
          "type": "bool"
        }
      ],
      "name": "setApprovalForAll",
      "outputs": [],
      "stateMutability": "nonpayable",
      "type": "function"
    },
    {
      "inputs": [
        {
          "internalType": "bytes4",
          "name": "interfaceId",
          "type": "bytes4"
        }
      ],
      "name": "supportsInterface",
      "outputs": [
        {
          "internalType": "bool",
          "name": "",
          "type": "bool"
        }
      ],
      "stateMutability": "view",
      "type": "function"
    },
    {
      "inputs": [],
      "name": "symbol",
      "outputs": [
        {
          "internalType": "string",
          "name": "",
          "type": "string"
        }
      ],
      "stateMutability": "view",
      "type": "function"
    },
    {
      "inputs": [
        {
          "internalType": "uint256",
          "name": "tokenId",
          "type": "uint256"
        }
      ],
      "name": "tokenURI",
      "outputs": [
        {
          "internalType": "string",
          "name": "",
          "type": "string"
        }
      ],
      "stateMutability": "view",
      "type": "function"
    },
    {
      "inputs": [
        {
          "internalType": "address",
          "name": "from",
          "type": "address"
        },
        {
          "internalType": "address",
          "name": "to",
          "type": "address"
        },
        {
          "internalType": "uint256",
          "name": "tokenId",
          "type": "uint256"
        }
      ],
      "name": "transferFrom",
      "outputs": [],
      "stateMutability": "nonpayable",
      "type": "function"
    },
    {
      "inputs": [
        {
          "internalType": "address",
          "name": "newOwner",
          "type": "address"
        }
      ],
      "name": "transferOwnership",
      "outputs": [],
      "stateMutability": "nonpayable",
      "type": "function"
    }
  ],
  "bytecode": "0x608060405234801561001057600080fd5b5061329f806100206000396000f3fe608060405234801561001057600080fd5b50600436106101165760003560e01c8063715018a6116100a2578063a6487c5311610071578063a6487c53146102cb578063b88d4fde146102e7578063c87b56dd14610303578063e985e9c514610333578063f2fde38b1461036357610116565b8063715018a6146102695780638da5cb5b1461027357806395d89b4114610291578063a22cb465146102af57610116565b806323b872dd116100e957806323b872dd146101b557806340d097c3146101d157806342842e0e146101ed5780636352211e1461020957806370a082311461023957610116565b806301ffc9a71461011b57806306fdde031461014b578063081812fc14610169578063095ea7b314610199575b600080fd5b61013560048036038101906101309190611eb8565b61037f565b6040516101429190611f00565b60405180910390f35b610153610461565b6040516101609190611fb4565b60405180910390f35b610183600480360381019061017e919061200c565b6104f3565b604051610190919061207a565b60405180910390f35b6101b360048036038101906101ae91906120c1565b610578565b005b6101cf60048036038101906101ca9190612101565b610690565b005b6101eb60048036038101906101e69190612154565b6106f0565b005b61020760048036038101906102029190612101565b610792565b005b610223600480360381019061021e919061200c565b6107b2565b604051610230919061207a565b60405180910390f35b610253600480360381019061024e9190612154565b610864565b6040516102609190612190565b60405180910390f35b61027161091c565b005b61027b6109a4565b604051610288919061207a565b60405180910390f35b6102996109ce565b6040516102a69190611fb4565b60405180910390f35b6102c960048036038101906102c491906121d7565b610a60565b005b6102e560048036038101906102e0919061234c565b610a76565b005b61030160048036038101906102fc9190612494565b610b78565b005b61031d6004803603810190610318919061200c565b610bda565b60405161032a9190611fb4565b60405180910390f35b61034d60048036038101906103489190612517565b610c81565b60405161035a9190611f00565b60405180910390f35b61037d60048036038101906103789190612154565b610d15565b005b60007f80ac58cd000000000000000000000000000000000000000000000000000000007bffffffffffffffffffffffffffffffffffffffffffffffffffffffff1916827bffffffffffffffffffffffffffffffffffffffffffffffffffffffff1916148061044a57507f5b5e139f000000000000000000000000000000000000000000000000000000007bffffffffffffffffffffffffffffffffffffffffffffffffffffffff1916827bffffffffffffffffffffffffffffffffffffffffffffffffffffffff1916145b8061045a575061045982610e0d565b5b9050919050565b60606065805461047090612586565b80601f016020809104026020016040519081016040528092919081815260200182805461049c90612586565b80156104e95780601f106104be576101008083540402835291602001916104e9565b820191906000526020600020905b8154815290600101906020018083116104cc57829003601f168201915b5050505050905090565b60006104fe82610e77565b61053d576040517f08c379a00000000000000000000000000000000000000000000000000000000081526004016105349061262a565b60405180910390fd5b6069600083815260200190815260200160002060009054906101000a900473ffffffffffffffffffffffffffffffffffffffff169050919050565b6000610583826107b2565b90508073ffffffffffffffffffffffffffffffffffffffff168373ffffffffffffffffffffffffffffffffffffffff1614156105f4576040517f08c379a00000000000000000000000000000000000000000000000000000000081526004016105eb906126bc565b60405180910390fd5b8073ffffffffffffffffffffffffffffffffffffffff16610613610ee3565b73ffffffffffffffffffffffffffffffffffffffff16148061064257506106418161063c610ee3565b610c81565b5b610681576040517f08c379a00000000000000000000000000000000000000000000000000000000081526004016106789061274e565b60405180910390fd5b61068b8383610eeb565b505050565b6106a161069b610ee3565b82610fa4565b6106e0576040517f08c379a00000000000000000000000000000000000000000000000000000000081526004016106d7906127e0565b60405180910390fd5b6106eb838383611082565b505050565b6106f8610ee3565b73ffffffffffffffffffffffffffffffffffffffff166107166109a4565b73ffffffffffffffffffffffffffffffffffffffff161461076c576040517f08c379a00000000000000000000000000000000000000000000000000000000081526004016107639061284c565b60405180910390fd5b600061077860c96112e9565b905061078460c96112f7565b61078e828261130d565b5050565b6107ad83838360405180602001604052806000815250610b78565b505050565b6000806067600084815260200190815260200160002060009054906101000a900473ffffffffffffffffffffffffffffffffffffffff169050600073ffffffffffffffffffffffffffffffffffffffff168173ffffffffffffffffffffffffffffffffffffffff16141561085b576040517f08c379a0000000000000000000000000000000000000000000000000000000008152600401610852906128de565b60405180910390fd5b80915050919050565b60008073ffffffffffffffffffffffffffffffffffffffff168273ffffffffffffffffffffffffffffffffffffffff1614156108d5576040517f08c379a00000000000000000000000000000000000000000000000000000000081526004016108cc90612970565b60405180910390fd5b606860008373ffffffffffffffffffffffffffffffffffffffff1673ffffffffffffffffffffffffffffffffffffffff168152602001908152602001600020549050919050565b610924610ee3565b73ffffffffffffffffffffffffffffffffffffffff166109426109a4565b73ffffffffffffffffffffffffffffffffffffffff1614610998576040517f08c379a000000000000000000000000000000000000000000000000000000000815260040161098f9061284c565b60405180910390fd5b6109a2600061132b565b565b6000609760009054906101000a900473ffffffffffffffffffffffffffffffffffffffff16905090565b6060606680546109dd90612586565b80601f0160208091040260200160405190810160405280929190818152602001828054610a0990612586565b8015610a565780601f10610a2b57610100808354040283529160200191610a56565b820191906000526020600020905b815481529060010190602001808311610a3957829003601f168201915b5050505050905090565b610a72610a6b610ee3565b83836113f1565b5050565b600060019054906101000a900460ff16610a9e5760008054906101000a900460ff1615610aa7565b610aa661155e565b5b610ae6576040517f08c379a0000000000000000000000000000000000000000000000000000000008152600401610add90612a02565b60405180910390fd5b60008060019054906101000a900460ff161590508015610b36576001600060016101000a81548160ff02191690831515021790555060016000806101000a81548160ff0219169083151502179055505b610b40848461156f565b610b49826115cc565b610b51611635565b8015610b725760008060016101000a81548160ff0219169083151502179055505b50505050565b610b89610b83610ee3565b83610fa4565b610bc8576040517f08c379a0000000000000000000000000000000000000000000000000000000008152600401610bbf906127e0565b60405180910390fd5b610bd48484848461168e565b50505050565b6060610be582610e77565b610c24576040517f08c379a0000000000000000000000000000000000000000000000000000000008152600401610c1b90612a94565b60405180910390fd5b6000610c2e6116ea565b90506000815111610c4e5760405180602001604052806000815250610c79565b80610c588461177c565b604051602001610c69929190612af0565b6040516020818303038152906040525b915050919050565b6000606a60008473ffffffffffffffffffffffffffffffffffffffff1673ffffffffffffffffffffffffffffffffffffffff16815260200190815260200160002060008373ffffffffffffffffffffffffffffffffffffffff1673ffffffffffffffffffffffffffffffffffffffff16815260200190815260200160002060009054906101000a900460ff16905092915050565b610d1d610ee3565b73ffffffffffffffffffffffffffffffffffffffff16610d3b6109a4565b73ffffffffffffffffffffffffffffffffffffffff1614610d91576040517f08c379a0000000000000000000000000000000000000000000000000000000008152600401610d889061284c565b60405180910390fd5b600073ffffffffffffffffffffffffffffffffffffffff168173ffffffffffffffffffffffffffffffffffffffff161415610e01576040517f08c379a0000000000000000000000000000000000000000000000000000000008152600401610df890612b86565b60405180910390fd5b610e0a8161132b565b50565b60007f01ffc9a7000000000000000000000000000000000000000000000000000000007bffffffffffffffffffffffffffffffffffffffffffffffffffffffff1916827bffffffffffffffffffffffffffffffffffffffffffffffffffffffff1916149050919050565b60008073ffffffffffffffffffffffffffffffffffffffff166067600084815260200190815260200160002060009054906101000a900473ffffffffffffffffffffffffffffffffffffffff1673ffffffffffffffffffffffffffffffffffffffff1614159050919050565b600033905090565b816069600083815260200190815260200160002060006101000a81548173ffffffffffffffffffffffffffffffffffffffff021916908373ffffffffffffffffffffffffffffffffffffffff160217905550808273ffffffffffffffffffffffffffffffffffffffff16610f5e836107b2565b73ffffffffffffffffffffffffffffffffffffffff167f8c5be1e5ebec7d5bd14f71427d1e84f3dd0314c0f7b2291e5b200ac8c7c3b92560405160405180910390a45050565b6000610faf82610e77565b610fee576040517f08c379a0000000000000000000000000000000000000000000000000000000008152600401610fe590612c18565b60405180910390fd5b6000610ff9836107b2565b90508073ffffffffffffffffffffffffffffffffffffffff168473ffffffffffffffffffffffffffffffffffffffff16148061106857508373ffffffffffffffffffffffffffffffffffffffff16611050846104f3565b73ffffffffffffffffffffffffffffffffffffffff16145b8061107957506110788185610c81565b5b91505092915050565b8273ffffffffffffffffffffffffffffffffffffffff166110a2826107b2565b73ffffffffffffffffffffffffffffffffffffffff16146110f8576040517f08c379a00000000000000000000000000000000000000000000000000000000081526004016110ef90612caa565b60405180910390fd5b600073ffffffffffffffffffffffffffffffffffffffff168273ffffffffffffffffffffffffffffffffffffffff161415611168576040517f08c379a000000000000000000000000000000000000000000000000000000000815260040161115f90612d3c565b60405180910390fd5b6111738383836118dd565b61117e600082610eeb565b6001606860008573ffffffffffffffffffffffffffffffffffffffff1673ffffffffffffffffffffffffffffffffffffffff16815260200190815260200160002060008282546111ce9190612d8b565b925050819055506001606860008473ffffffffffffffffffffffffffffffffffffffff1673ffffffffffffffffffffffffffffffffffffffff16815260200190815260200160002060008282546112259190612dbf565b92505081905550816067600083815260200190815260200160002060006101000a81548173ffffffffffffffffffffffffffffffffffffffff021916908373ffffffffffffffffffffffffffffffffffffffff160217905550808273ffffffffffffffffffffffffffffffffffffffff168473ffffffffffffffffffffffffffffffffffffffff167fddf252ad1be2c89b69c2b068fc378daa952ba7f163c4a11628f55a4df523b3ef60405160405180910390a46112e48383836118e2565b505050565b600081600001549050919050565b6001816000016000828254019250508190555050565b6113278282604051806020016040528060008152506118e7565b5050565b6000609760009054906101000a900473ffffffffffffffffffffffffffffffffffffffff16905081609760006101000a81548173ffffffffffffffffffffffffffffffffffffffff021916908373ffffffffffffffffffffffffffffffffffffffff1602179055508173ffffffffffffffffffffffffffffffffffffffff168173ffffffffffffffffffffffffffffffffffffffff167f8be0079c531659141344cd1fd0a4f28419497f9722a3daafe3b4186f6b6457e060405160405180910390a35050565b8173ffffffffffffffffffffffffffffffffffffffff168373ffffffffffffffffffffffffffffffffffffffff161415611460576040517f08c379a000000000000000000000000000000000000000000000000000000000815260040161145790612e61565b60405180910390fd5b80606a60008573ffffffffffffffffffffffffffffffffffffffff1673ffffffffffffffffffffffffffffffffffffffff16815260200190815260200160002060008473ffffffffffffffffffffffffffffffffffffffff1673ffffffffffffffffffffffffffffffffffffffff16815260200190815260200160002060006101000a81548160ff0219169083151502179055508173ffffffffffffffffffffffffffffffffffffffff168373ffffffffffffffffffffffffffffffffffffffff167f17307eab39ab6107e8899845ad3d59bd9653f200f220920489ca2b5937696c31836040516115519190611f00565b60405180910390a3505050565b600061156930611942565b15905090565b600060019054906101000a900460ff166115be576040517f08c379a00000000000000000000000000000000000000000000000000000000081526004016115b590612ef3565b60405180910390fd5b6115c88282611965565b5050565b600060019054906101000a900460ff1661161b576040517f08c379a000000000000000000000000000000000000000000000000000000000815260040161161290612ef3565b60405180910390fd5b8060ca9080519060200190611631929190611da9565b5050565b600060019054906101000a900460ff16611684576040517f08c379a000000000000000000000000000000000000000000000000000000000815260040161167b90612ef3565b60405180910390fd5b61168c6119e6565b565b611699848484611082565b6116a584848484611a47565b6116e4576040517f08c379a00000000000000000000000000000000000000000000000000000000081526004016116db90612f85565b60405180910390fd5b50505050565b606060ca80546116f990612586565b80601f016020809104026020016040519081016040528092919081815260200182805461172590612586565b80156117725780601f1061174757610100808354040283529160200191611772565b820191906000526020600020905b81548152906001019060200180831161175557829003601f168201915b5050505050905090565b606060008214156117c4576040518060400160405280600181526020017f300000000000000000000000000000000000000000000000000000000000000081525090506118d8565b600082905060005b600082146117f65780806117df90612fa5565b915050600a826117ef919061301d565b91506117cc565b60008167ffffffffffffffff81111561181257611811612221565b5b6040519080825280601f01601f1916602001820160405280156118445781602001600182028036833780820191505090505b5090505b600085146118d15760018261185d9190612d8b565b9150600a8561186c919061304e565b60306118789190612dbf565b60f81b81838151811061188e5761188d61307f565b5b60200101907effffffffffffffffffffffffffffffffffffffffffffffffffffffffffffff1916908160001a905350600a856118ca919061301d565b9450611848565b8093505050505b919050565b505050565b505050565b6118f18383611bcf565b6118fe6000848484611a47565b61193d576040517f08c379a000000000000000000000000000000000000000000000000000000000815260040161193490612f85565b60405180910390fd5b505050565b6000808273ffffffffffffffffffffffffffffffffffffffff163b119050919050565b600060019054906101000a900460ff166119b4576040517f08c379a00000000000000000000000000000000000000000000000000000000081526004016119ab90612ef3565b60405180910390fd5b81606590805190602001906119ca929190611da9565b5080606690805190602001906119e1929190611da9565b505050565b600060019054906101000a900460ff16611a35576040517f08c379a0000000000000000000000000000000000000000000000000000000008152600401611a2c90612ef3565b60405180910390fd5b611a45611a40610ee3565b61132b565b565b6000611a688473ffffffffffffffffffffffffffffffffffffffff16611942565b15611bc2578373ffffffffffffffffffffffffffffffffffffffff1663150b7a02611a91610ee3565b8786866040518563ffffffff1660e01b8152600401611ab39493929190613103565b6020604051808303816000875af1925050508015611aef57506040513d601f19601f82011682018060405250810190611aec9190613164565b60015b611b72573d8060008114611b1f576040519150601f19603f3d011682016040523d82523d6000602084013e611b24565b606091505b50600081511415611b6a576040517f08c379a0000000000000000000000000000000000000000000000000000000008152600401611b6190612f85565b60405180910390fd5b805181602001fd5b63150b7a0260e01b7bffffffffffffffffffffffffffffffffffffffffffffffffffffffff1916817bffffffffffffffffffffffffffffffffffffffffffffffffffffffff191614915050611bc7565b600190505b949350505050565b600073ffffffffffffffffffffffffffffffffffffffff168273ffffffffffffffffffffffffffffffffffffffff161415611c3f576040517f08c379a0000000000000000000000000000000000000000000000000000000008152600401611c36906131dd565b60405180910390fd5b611c4881610e77565b15611c88576040517f08c379a0000000000000000000000000000000000000000000000000000000008152600401611c7f90613249565b60405180910390fd5b611c94600083836118dd565b6001606860008473ffffffffffffffffffffffffffffffffffffffff1673ffffffffffffffffffffffffffffffffffffffff1681526020019081526020016000206000828254611ce49190612dbf565b92505081905550816067600083815260200190815260200160002060006101000a81548173ffffffffffffffffffffffffffffffffffffffff021916908373ffffffffffffffffffffffffffffffffffffffff160217905550808273ffffffffffffffffffffffffffffffffffffffff16600073ffffffffffffffffffffffffffffffffffffffff167fddf252ad1be2c89b69c2b068fc378daa952ba7f163c4a11628f55a4df523b3ef60405160405180910390a4611da5600083836118e2565b5050565b828054611db590612586565b90600052602060002090601f016020900481019282611dd75760008555611e1e565b82601f10611df057805160ff1916838001178555611e1e565b82800160010185558215611e1e579182015b82811115611e1d578251825591602001919060010190611e02565b5b509050611e2b9190611e2f565b5090565b5b80821115611e48576000816000905550600101611e30565b5090565b6000604051905090565b600080fd5b600080fd5b60007fffffffff0000000000000000000000000000000000000000000000000000000082169050919050565b611e9581611e60565b8114611ea057600080fd5b50565b600081359050611eb281611e8c565b92915050565b600060208284031215611ece57611ecd611e56565b5b6000611edc84828501611ea3565b91505092915050565b60008115159050919050565b611efa81611ee5565b82525050565b6000602082019050611f156000830184611ef1565b92915050565b600081519050919050565b600082825260208201905092915050565b60005b83811015611f55578082015181840152602081019050611f3a565b83811115611f64576000848401525b50505050565b6000601f19601f8301169050919050565b6000611f8682611f1b565b611f908185611f26565b9350611fa0818560208601611f37565b611fa981611f6a565b840191505092915050565b60006020820190508181036000830152611fce8184611f7b565b905092915050565b6000819050919050565b611fe981611fd6565b8114611ff457600080fd5b50565b60008135905061200681611fe0565b92915050565b60006020828403121561202257612021611e56565b5b600061203084828501611ff7565b91505092915050565b600073ffffffffffffffffffffffffffffffffffffffff82169050919050565b600061206482612039565b9050919050565b61207481612059565b82525050565b600060208201905061208f600083018461206b565b92915050565b61209e81612059565b81146120a957600080fd5b50565b6000813590506120bb81612095565b92915050565b600080604083850312156120d8576120d7611e56565b5b60006120e6858286016120ac565b92505060206120f785828601611ff7565b9150509250929050565b60008060006060848603121561211a57612119611e56565b5b6000612128868287016120ac565b9350506020612139868287016120ac565b925050604061214a86828701611ff7565b9150509250925092565b60006020828403121561216a57612169611e56565b5b6000612178848285016120ac565b91505092915050565b61218a81611fd6565b82525050565b60006020820190506121a56000830184612181565b92915050565b6121b481611ee5565b81146121bf57600080fd5b50565b6000813590506121d1816121ab565b92915050565b600080604083850312156121ee576121ed611e56565b5b60006121fc858286016120ac565b925050602061220d858286016121c2565b9150509250929050565b600080fd5b600080fd5b7f4e487b7100000000000000000000000000000000000000000000000000000000600052604160045260246000fd5b61225982611f6a565b810181811067ffffffffffffffff8211171561227857612277612221565b5b80604052505050565b600061228b611e4c565b90506122978282612250565b919050565b600067ffffffffffffffff8211156122b7576122b6612221565b5b6122c082611f6a565b9050602081019050919050565b82818337600083830152505050565b60006122ef6122ea8461229c565b612281565b90508281526020810184848401111561230b5761230a61221c565b5b6123168482856122cd565b509392505050565b600082601f83011261233357612332612217565b5b81356123438482602086016122dc565b91505092915050565b60008060006060848603121561236557612364611e56565b5b600084013567ffffffffffffffff81111561238357612382611e5b565b5b61238f8682870161231e565b935050602084013567ffffffffffffffff8111156123b0576123af611e5b565b5b6123bc8682870161231e565b925050604084013567ffffffffffffffff8111156123dd576123dc611e5b565b5b6123e98682870161231e565b9150509250925092565b600067ffffffffffffffff82111561240e5761240d612221565b5b61241782611f6a565b9050602081019050919050565b6000612437612432846123f3565b612281565b9050828152602081018484840111156124535761245261221c565b5b61245e8482856122cd565b509392505050565b600082601f83011261247b5761247a612217565b5b813561248b848260208601612424565b91505092915050565b600080600080608085870312156124ae576124ad611e56565b5b60006124bc878288016120ac565b94505060206124cd878288016120ac565b93505060406124de87828801611ff7565b925050606085013567ffffffffffffffff8111156124ff576124fe611e5b565b5b61250b87828801612466565b91505092959194509250565b6000806040838503121561252e5761252d611e56565b5b600061253c858286016120ac565b925050602061254d858286016120ac565b9150509250929050565b7f4e487b7100000000000000000000000000000000000000000000000000000000600052602260045260246000fd5b6000600282049050600182168061259e57607f821691505b602082108114156125b2576125b1612557565b5b50919050565b7f4552433732313a20617070726f76656420717565727920666f72206e6f6e657860008201527f697374656e7420746f6b656e0000000000000000000000000000000000000000602082015250565b6000612614602c83611f26565b915061261f826125b8565b604082019050919050565b6000602082019050818103600083015261264381612607565b9050919050565b7f4552433732313a20617070726f76616c20746f2063757272656e74206f776e6560008201527f7200000000000000000000000000000000000000000000000000000000000000602082015250565b60006126a6602183611f26565b91506126b18261264a565b604082019050919050565b600060208201905081810360008301526126d581612699565b9050919050565b7f4552433732313a20617070726f76652063616c6c6572206973206e6f74206f7760008201527f6e6572206e6f7220617070726f76656420666f7220616c6c0000000000000000602082015250565b6000612738603883611f26565b9150612743826126dc565b604082019050919050565b600060208201905081810360008301526127678161272b565b9050919050565b7f4552433732313a207472616e736665722063616c6c6572206973206e6f74206f60008201527f776e6572206e6f7220617070726f766564000000000000000000000000000000602082015250565b60006127ca603183611f26565b91506127d58261276e565b604082019050919050565b600060208201905081810360008301526127f9816127bd565b9050919050565b7f4f776e61626c653a2063616c6c6572206973206e6f7420746865206f776e6572600082015250565b6000612836602083611f26565b915061284182612800565b602082019050919050565b6000602082019050818103600083015261286581612829565b9050919050565b7f4552433732313a206f776e657220717565727920666f72206e6f6e657869737460008201527f656e7420746f6b656e0000000000000000000000000000000000000000000000602082015250565b60006128c8602983611f26565b91506128d38261286c565b604082019050919050565b600060208201905081810360008301526128f7816128bb565b9050919050565b7f4552433732313a2062616c616e636520717565727920666f7220746865207a6560008201527f726f206164647265737300000000000000000000000000000000000000000000602082015250565b600061295a602a83611f26565b9150612965826128fe565b604082019050919050565b600060208201905081810360008301526129898161294d565b9050919050565b7f496e697469616c697a61626c653a20636f6e747261637420697320616c72656160008201527f647920696e697469616c697a6564000000000000000000000000000000000000602082015250565b60006129ec602e83611f26565b91506129f782612990565b604082019050919050565b60006020820190508181036000830152612a1b816129df565b9050919050565b7f4552433732314d657461646174613a2055524920717565727920666f72206e6f60008201527f6e6578697374656e7420746f6b656e0000000000000000000000000000000000602082015250565b6000612a7e602f83611f26565b9150612a8982612a22565b604082019050919050565b60006020820190508181036000830152612aad81612a71565b9050919050565b600081905092915050565b6000612aca82611f1b565b612ad48185612ab4565b9350612ae4818560208601611f37565b80840191505092915050565b6000612afc8285612abf565b9150612b088284612abf565b91508190509392505050565b7f4f776e61626c653a206e6577206f776e657220697320746865207a65726f206160008201527f6464726573730000000000000000000000000000000000000000000000000000602082015250565b6000612b70602683611f26565b9150612b7b82612b14565b604082019050919050565b60006020820190508181036000830152612b9f81612b63565b9050919050565b7f4552433732313a206f70657261746f7220717565727920666f72206e6f6e657860008201527f697374656e7420746f6b656e0000000000000000000000000000000000000000602082015250565b6000612c02602c83611f26565b9150612c0d82612ba6565b604082019050919050565b60006020820190508181036000830152612c3181612bf5565b9050919050565b7f4552433732313a207472616e736665722066726f6d20696e636f72726563742060008201527f6f776e6572000000000000000000000000000000000000000000000000000000602082015250565b6000612c94602583611f26565b9150612c9f82612c38565b604082019050919050565b60006020820190508181036000830152612cc381612c87565b9050919050565b7f4552433732313a207472616e7366657220746f20746865207a65726f2061646460008201527f7265737300000000000000000000000000000000000000000000000000000000602082015250565b6000612d26602483611f26565b9150612d3182612cca565b604082019050919050565b60006020820190508181036000830152612d5581612d19565b9050919050565b7f4e487b7100000000000000000000000000000000000000000000000000000000600052601160045260246000fd5b6000612d9682611fd6565b9150612da183611fd6565b925082821015612db457612db3612d5c565b5b828203905092915050565b6000612dca82611fd6565b9150612dd583611fd6565b9250827fffffffffffffffffffffffffffffffffffffffffffffffffffffffffffffffff03821115612e0a57612e09612d5c565b5b828201905092915050565b7f4552433732313a20617070726f766520746f2063616c6c657200000000000000600082015250565b6000612e4b601983611f26565b9150612e5682612e15565b602082019050919050565b60006020820190508181036000830152612e7a81612e3e565b9050919050565b7f496e697469616c697a61626c653a20636f6e7472616374206973206e6f74206960008201527f6e697469616c697a696e67000000000000000000000000000000000000000000602082015250565b6000612edd602b83611f26565b9150612ee882612e81565b604082019050919050565b60006020820190508181036000830152612f0c81612ed0565b9050919050565b7f4552433732313a207472616e7366657220746f206e6f6e20455243373231526560008201527f63656976657220696d706c656d656e7465720000000000000000000000000000602082015250565b6000612f6f603283611f26565b9150612f7a82612f13565b604082019050919050565b60006020820190508181036000830152612f9e81612f62565b9050919050565b6000612fb082611fd6565b91507fffffffffffffffffffffffffffffffffffffffffffffffffffffffffffffffff821415612fe357612fe2612d5c565b5b600182019050919050565b7f4e487b7100000000000000000000000000000000000000000000000000000000600052601260045260246000fd5b600061302882611fd6565b915061303383611fd6565b92508261304357613042612fee565b5b828204905092915050565b600061305982611fd6565b915061306483611fd6565b92508261307457613073612fee565b5b828206905092915050565b7f4e487b7100000000000000000000000000000000000000000000000000000000600052603260045260246000fd5b600081519050919050565b600082825260208201905092915050565b60006130d5826130ae565b6130df81856130b9565b93506130ef818560208601611f37565b6130f881611f6a565b840191505092915050565b6000608082019050613118600083018761206b565b613125602083018661206b565b6131326040830185612181565b818103606083015261314481846130ca565b905095945050505050565b60008151905061315e81611e8c565b92915050565b60006020828403121561317a57613179611e56565b5b60006131888482850161314f565b91505092915050565b7f4552433732313a206d696e7420746f20746865207a65726f2061646472657373600082015250565b60006131c7602083611f26565b91506131d282613191565b602082019050919050565b600060208201905081810360008301526131f6816131ba565b9050919050565b7f4552433732313a20746f6b656e20616c7265616479206d696e74656400000000600082015250565b6000613233601c83611f26565b915061323e826131fd565b602082019050919050565b6000602082019050818103600083015261326281613226565b905091905056fea2646970667358221220ef35d7491f36cf0a065af575d9d2e0bb9d0b937b8016ed0c006b5cc415c76dfd64736f6c634300080b0033",
  "linkReferences": {},
  "deployedLinkReferences": {}
}