{
  "_format": "hh-sol-artifact-1",
  "contractName": "Collection3",
  "sourceName": "contracts/collection-factory/collection-3/Collection3.sol",
  "abi": [
    {
      "inputs": [],
      "stateMutability": "nonpayable",
      "type": "constructor"
    },
    {
      "anonymous": false,
      "inputs": [
        {
          "indexed": false,
          "internalType": "address",
          "name": "previousAdmin",
          "type": "address"
        },
        {
          "indexed": false,
          "internalType": "address",
          "name": "newAdmin",
          "type": "address"
        }
      ],
      "name": "AdminChanged",
      "type": "event"
    },
    {
      "anonymous": false,
      "inputs": [
        {
          "indexed": true,
          "internalType": "address",
          "name": "owner",
          "type": "address"
        },
        {
          "indexed": true,
          "internalType": "address",
          "name": "approved",
          "type": "address"
        },
        {
          "indexed": true,
          "internalType": "uint256",
          "name": "tokenId",
          "type": "uint256"
        }
      ],
      "name": "Approval",
      "type": "event"
    },
    {
      "anonymous": false,
      "inputs": [
        {
          "indexed": true,
          "internalType": "address",
          "name": "owner",
          "type": "address"
        },
        {
          "indexed": true,
          "internalType": "address",
          "name": "operator",
          "type": "address"
        },
        {
          "indexed": false,
          "internalType": "bool",
          "name": "approved",
          "type": "bool"
        }
      ],
      "name": "ApprovalForAll",
      "type": "event"
    },
    {
      "anonymous": false,
      "inputs": [
        {
          "indexed": true,
          "internalType": "address",
          "name": "beacon",
          "type": "address"
        }
      ],
      "name": "BeaconUpgraded",
      "type": "event"
    },
    {
      "anonymous": false,
      "inputs": [
        {
          "indexed": false,
          "internalType": "address",
          "name": "userAddr",
          "type": "address"
        },
        {
          "indexed": false,
          "internalType": "uint256",
          "name": "holdingWeight",
          "type": "uint256"
        },
        {
          "indexed": false,
          "internalType": "uint256",
          "name": "paidAmount",
          "type": "uint256"
        },
        {
          "indexed": false,
          "internalType": "string",
          "name": "text",
          "type": "string"
        },
        {
          "indexed": false,
          "internalType": "uint256",
          "name": "typeInt",
          "type": "uint256"
        },
        {
          "indexed": false,
          "internalType": "uint256",
          "name": "_commentIndex",
          "type": "uint256"
        }
      ],
      "name": "Comment",
      "type": "event"
    },
    {
      "anonymous": false,
      "inputs": [
        {
          "indexed": false,
          "internalType": "uint8",
          "name": "version",
          "type": "uint8"
        }
      ],
      "name": "Initialized",
      "type": "event"
    },
    {
      "anonymous": false,
      "inputs": [
        {
          "indexed": true,
          "internalType": "address",
          "name": "previousOwner",
          "type": "address"
        },
        {
          "indexed": true,
          "internalType": "address",
          "name": "newOwner",
          "type": "address"
        }
      ],
      "name": "OwnershipTransferred",
      "type": "event"
    },
    {
      "anonymous": false,
      "inputs": [
        {
          "indexed": false,
          "internalType": "address",
          "name": "_userAddr",
          "type": "address"
        },
        {
          "indexed": false,
          "internalType": "string",
          "name": "username",
          "type": "string"
        }
      ],
      "name": "Register",
      "type": "event"
    },
    {
      "anonymous": false,
      "inputs": [
        {
          "indexed": false,
          "internalType": "string",
          "name": "baseURI_",
          "type": "string"
        }
      ],
      "name": "SetBaseURI",
      "type": "event"
    },
    {
      "anonymous": false,
      "inputs": [
        {
          "indexed": false,
          "internalType": "string",
          "name": "_creatorName",
          "type": "string"
        }
      ],
      "name": "SetCreatorName",
      "type": "event"
    },
    {
      "anonymous": false,
      "inputs": [
        {
          "indexed": false,
          "internalType": "uint256",
          "name": "_maxSupply",
          "type": "uint256"
        }
      ],
      "name": "SetMaxSupply",
      "type": "event"
    },
    {
      "anonymous": false,
      "inputs": [
        {
          "indexed": true,
          "internalType": "address",
          "name": "from",
          "type": "address"
        },
        {
          "indexed": true,
          "internalType": "address",
          "name": "to",
          "type": "address"
        },
        {
          "indexed": true,
          "internalType": "uint256",
          "name": "tokenId",
          "type": "uint256"
        }
      ],
      "name": "Transfer",
      "type": "event"
    },
    {
      "anonymous": false,
      "inputs": [
        {
          "indexed": false,
          "internalType": "address",
          "name": "_userAddr",
          "type": "address"
        }
      ],
      "name": "UnRegister",
      "type": "event"
    },
    {
      "anonymous": false,
      "inputs": [
        {
          "indexed": true,
          "internalType": "address",
          "name": "implementation",
          "type": "address"
        }
      ],
      "name": "Upgraded",
      "type": "event"
    },
    {
      "inputs": [],
      "name": "_creator_",
      "outputs": [
        {
          "internalType": "string",
          "name": "",
          "type": "string"
        }
      ],
      "stateMutability": "view",
      "type": "function"
    },
    {
      "inputs": [
        {
          "internalType": "address",
          "name": "to",
          "type": "address"
        },
        {
          "internalType": "uint256",
          "name": "tokenId",
          "type": "uint256"
        }
      ],
      "name": "approve",
      "outputs": [],
      "stateMutability": "nonpayable",
      "type": "function"
    },
    {
      "inputs": [
        {
          "internalType": "address",
          "name": "owner",
          "type": "address"
        }
      ],
      "name": "balanceOf",
      "outputs": [
        {
          "internalType": "uint256",
          "name": "",
          "type": "uint256"
        }
      ],
      "stateMutability": "view",
      "type": "function"
    },
    {
      "inputs": [
        {
          "internalType": "uint256",
          "name": "tokenId",
          "type": "uint256"
        }
      ],
      "name": "burn",
      "outputs": [],
      "stateMutability": "nonpayable",
      "type": "function"
    },
    {
      "inputs": [
        {
          "internalType": "uint256[]",
          "name": "tokenId",
          "type": "uint256[]"
        }
      ],
      "name": "burnBatch",
      "outputs": [],
      "stateMutability": "nonpayable",
      "type": "function"
    },
    {
      "inputs": [
        {
          "internalType": "string",
          "name": "text",
          "type": "string"
        },
        {
          "internalType": "uint256",
          "name": "typeInt",
          "type": "uint256"
        }
      ],
      "name": "comment",
      "outputs": [],
      "stateMutability": "payable",
      "type": "function"
    },
    {
      "inputs": [],
      "name": "commentIndex",
      "outputs": [
        {
          "internalType": "uint256",
          "name": "",
          "type": "uint256"
        }
      ],
      "stateMutability": "view",
      "type": "function"
    },
    {
      "inputs": [],
      "name": "deleteDefaultRoyalty",
      "outputs": [],
      "stateMutability": "nonpayable",
      "type": "function"
    },
    {
      "inputs": [
        {
          "internalType": "uint256",
          "name": "tokenId",
          "type": "uint256"
        }
      ],
      "name": "getApproved",
      "outputs": [
        {
          "internalType": "address",
          "name": "",
          "type": "address"
        }
      ],
      "stateMutability": "view",
      "type": "function"
    },
    {
      "inputs": [],
      "name": "guestsCommentFee",
      "outputs": [
        {
          "internalType": "uint256",
          "name": "",
          "type": "uint256"
        }
      ],
      "stateMutability": "view",
      "type": "function"
    },
    {
      "inputs": [],
      "name": "initialize",
      "outputs": [],
      "stateMutability": "nonpayable",
      "type": "function"
    },
    {
      "inputs": [
        {
          "internalType": "address",
          "name": "owner",
          "type": "address"
        },
        {
          "internalType": "address",
          "name": "operator",
          "type": "address"
        }
      ],
      "name": "isApprovedForAll",
      "outputs": [
        {
          "internalType": "bool",
          "name": "",
          "type": "bool"
        }
      ],
      "stateMutability": "view",
      "type": "function"
    },
    {
      "inputs": [],
      "name": "maxSupply",
      "outputs": [
        {
          "internalType": "uint256",
          "name": "",
          "type": "uint256"
        }
      ],
      "stateMutability": "view",
      "type": "function"
    },
    {
      "inputs": [],
      "name": "name",
      "outputs": [
        {
          "internalType": "string",
          "name": "",
          "type": "string"
        }
      ],
      "stateMutability": "view",
      "type": "function"
    },
    {
      "inputs": [],
      "name": "owner",
      "outputs": [
        {
          "internalType": "address",
          "name": "",
          "type": "address"
        }
      ],
      "stateMutability": "view",
      "type": "function"
    },
    {
      "inputs": [
        {
          "internalType": "address",
          "name": "_owner",
          "type": "address"
        }
      ],
      "name": "ownerHoldingWeight",
      "outputs": [
        {
          "internalType": "uint256",
          "name": "",
          "type": "uint256"
        }
      ],
      "stateMutability": "view",
      "type": "function"
    },
    {
      "inputs": [
        {
          "internalType": "uint256",
          "name": "tokenId",
          "type": "uint256"
        }
      ],
      "name": "ownerName",
      "outputs": [
        {
          "internalType": "string",
          "name": "",
          "type": "string"
        }
      ],
      "stateMutability": "view",
      "type": "function"
    },
    {
      "inputs": [
        {
          "internalType": "uint256",
          "name": "tokenId",
          "type": "uint256"
        }
      ],
      "name": "ownerOf",
      "outputs": [
        {
          "internalType": "address",
          "name": "",
          "type": "address"
        }
      ],
      "stateMutability": "view",
      "type": "function"
    },
    {
      "inputs": [
        {
          "internalType": "address",
          "name": "_owner",
          "type": "address"
        }
      ],
      "name": "ownerVotingPower",
      "outputs": [
        {
          "internalType": "uint256",
          "name": "",
          "type": "uint256"
        }
      ],
      "stateMutability": "view",
      "type": "function"
    },
    {
      "inputs": [],
      "name": "proxiableUUID",
      "outputs": [
        {
          "internalType": "bytes32",
          "name": "",
          "type": "bytes32"
        }
      ],
      "stateMutability": "view",
      "type": "function"
    },
    {
      "inputs": [
        {
          "internalType": "string",
          "name": "_username",
          "type": "string"
        }
      ],
      "name": "register",
      "outputs": [],
      "stateMutability": "nonpayable",
      "type": "function"
    },
    {
      "inputs": [],
      "name": "renounceOwnership",
      "outputs": [],
      "stateMutability": "nonpayable",
      "type": "function"
    },
    {
      "inputs": [
        {
          "internalType": "uint256",
          "name": "_tokenId",
          "type": "uint256"
        },
        {
          "internalType": "uint256",
          "name": "_salePrice",
          "type": "uint256"
        }
      ],
      "name": "royaltyInfo",
      "outputs": [
        {
          "internalType": "address",
          "name": "",
          "type": "address"
        },
        {
          "internalType": "uint256",
          "name": "",
          "type": "uint256"
        }
      ],
      "stateMutability": "view",
      "type": "function"
    },
    {
      "inputs": [
        {
          "internalType": "address",
          "name": "from",
          "type": "address"
        },
        {
          "internalType": "address",
          "name": "to",
          "type": "address"
        },
        {
          "internalType": "uint256",
          "name": "tokenId",
          "type": "uint256"
        }
      ],
      "name": "safeTransferFrom",
      "outputs": [],
      "stateMutability": "nonpayable",
      "type": "function"
    },
    {
      "inputs": [
        {
          "internalType": "address",
          "name": "from",
          "type": "address"
        },
        {
          "internalType": "address",
          "name": "to",
          "type": "address"
        },
        {
          "internalType": "uint256",
          "name": "tokenId",
          "type": "uint256"
        },
        {
          "internalType": "bytes",
          "name": "_data",
          "type": "bytes"
        }
      ],
      "name": "safeTransferFrom",
      "outputs": [],
      "stateMutability": "nonpayable",
      "type": "function"
    },
    {
      "inputs": [
        {
          "internalType": "address[]",
          "name": "from",
          "type": "address[]"
        },
        {
          "internalType": "address[]",
          "name": "to",
          "type": "address[]"
        },
        {
          "internalType": "uint256[]",
          "name": "tokenId",
          "type": "uint256[]"
        }
      ],
      "name": "safeTransferFromBatch",
      "outputs": [],
      "stateMutability": "nonpayable",
      "type": "function"
    },
    {
      "inputs": [
        {
          "internalType": "address",
          "name": "operator",
          "type": "address"
        },
        {
          "internalType": "bool",
          "name": "approved",
          "type": "bool"
        }
      ],
      "name": "setApprovalForAll",
      "outputs": [],
      "stateMutability": "nonpayable",
      "type": "function"
    },
    {
      "inputs": [
        {
          "internalType": "uint256",
          "name": "_baseMintFee",
          "type": "uint256"
        }
      ],
      "name": "setBaseMintFee",
      "outputs": [],
      "stateMutability": "nonpayable",
      "type": "function"
    },
    {
      "inputs": [
        {
          "internalType": "string",
          "name": "baseURI_",
          "type": "string"
        }
      ],
      "name": "setBaseURI",
      "outputs": [],
      "stateMutability": "nonpayable",
      "type": "function"
    },
    {
      "inputs": [
        {
          "internalType": "string",
          "name": "_creatorName",
          "type": "string"
        }
      ],
      "name": "setCreatorName",
      "outputs": [],
      "stateMutability": "nonpayable",
      "type": "function"
    },
    {
      "inputs": [
        {
          "internalType": "address",
          "name": "royaltyReceiver",
          "type": "address"
        },
        {
          "internalType": "uint96",
          "name": "royaltyNumerator",
          "type": "uint96"
        }
      ],
      "name": "setDefaultRoyalty",
      "outputs": [],
      "stateMutability": "nonpayable",
      "type": "function"
    },
    {
      "inputs": [
        {
          "internalType": "uint256",
          "name": "_guestsCommentFee",
          "type": "uint256"
        }
      ],
      "name": "setGuestsCommentFee",
      "outputs": [],
      "stateMutability": "nonpayable",
      "type": "function"
    },
    {
      "inputs": [
        {
          "internalType": "uint256",
          "name": "_maxSupply",
          "type": "uint256"
        }
      ],
      "name": "setMaxSupply",
      "outputs": [],
      "stateMutability": "nonpayable",
      "type": "function"
    },
    {
      "inputs": [
        {
          "internalType": "uint256",
          "name": "_mintFeeRatioNumerator",
          "type": "uint256"
        }
      ],
      "name": "setMintFeeRatioNumerator",
      "outputs": [],
      "stateMutability": "nonpayable",
      "type": "function"
    },
    {
      "inputs": [
        {
          "internalType": "uint256",
          "name": "_tokenHoldersCommentFee",
          "type": "uint256"
        }
      ],
      "name": "setTokenHoldersCommentFee",
      "outputs": [],
      "stateMutability": "nonpayable",
      "type": "function"
    },
    {
      "inputs": [
        {
          "internalType": "bytes4",
          "name": "interfaceId",
          "type": "bytes4"
        }
      ],
      "name": "supportsInterface",
      "outputs": [
        {
          "internalType": "bool",
          "name": "",
          "type": "bool"
        }
      ],
      "stateMutability": "view",
      "type": "function"
    },
    {
      "inputs": [],
      "name": "symbol",
      "outputs": [
        {
          "internalType": "string",
          "name": "",
          "type": "string"
        }
      ],
      "stateMutability": "view",
      "type": "function"
    },
    {
      "inputs": [
        {
          "internalType": "uint256",
          "name": "index",
          "type": "uint256"
        }
      ],
      "name": "tokenByIndex",
      "outputs": [
        {
          "internalType": "uint256",
          "name": "",
          "type": "uint256"
        }
      ],
      "stateMutability": "view",
      "type": "function"
    },
    {
      "inputs": [],
      "name": "tokenHoldersCommentFee",
      "outputs": [
        {
          "internalType": "uint256",
          "name": "",
          "type": "uint256"
        }
      ],
      "stateMutability": "view",
      "type": "function"
    },
    {
      "inputs": [
        {
          "internalType": "address",
          "name": "owner",
          "type": "address"
        },
        {
          "internalType": "uint256",
          "name": "index",
          "type": "uint256"
        }
      ],
      "name": "tokenOfOwnerByIndex",
      "outputs": [
        {
          "internalType": "uint256",
          "name": "",
          "type": "uint256"
        }
      ],
      "stateMutability": "view",
      "type": "function"
    },
    {
      "inputs": [
        {
          "internalType": "uint256",
          "name": "tokenId",
          "type": "uint256"
        }
      ],
      "name": "tokenURI",
      "outputs": [
        {
          "internalType": "string",
          "name": "",
          "type": "string"
        }
      ],
      "stateMutability": "view",
      "type": "function"
    },
    {
      "inputs": [
        {
          "internalType": "uint256",
          "name": "tokenId",
          "type": "uint256"
        }
      ],
      "name": "tokenWeight",
      "outputs": [
        {
          "internalType": "uint256",
          "name": "",
          "type": "uint256"
        }
      ],
      "stateMutability": "view",
      "type": "function"
    },
    {
      "inputs": [],
      "name": "totalSupply",
      "outputs": [
        {
          "internalType": "uint256",
          "name": "",
          "type": "uint256"
        }
      ],
      "stateMutability": "view",
      "type": "function"
    },
    {
      "inputs": [
        {
          "internalType": "address",
          "name": "from",
          "type": "address"
        },
        {
          "internalType": "address",
          "name": "to",
          "type": "address"
        },
        {
          "internalType": "uint256",
          "name": "tokenId",
          "type": "uint256"
        }
      ],
      "name": "transferFrom",
      "outputs": [],
      "stateMutability": "nonpayable",
      "type": "function"
    },
    {
      "inputs": [
        {
          "internalType": "address",
          "name": "newOwner",
          "type": "address"
        }
      ],
      "name": "transferOwnership",
      "outputs": [],
      "stateMutability": "nonpayable",
      "type": "function"
    },
    {
      "inputs": [],
      "name": "unRegister",
      "outputs": [],
      "stateMutability": "nonpayable",
      "type": "function"
    },
    {
      "inputs": [
        {
          "internalType": "address",
          "name": "newImplementation",
          "type": "address"
        }
      ],
      "name": "upgradeTo",
      "outputs": [],
      "stateMutability": "nonpayable",
      "type": "function"
    },
    {
      "inputs": [
        {
          "internalType": "address",
          "name": "newImplementation",
          "type": "address"
        },
        {
          "internalType": "bytes",
          "name": "data",
          "type": "bytes"
        }
      ],
      "name": "upgradeToAndCall",
      "outputs": [],
      "stateMutability": "payable",
      "type": "function"
    },
    {
      "inputs": [
        {
          "internalType": "string",
          "name": "_username",
          "type": "string"
        }
      ],
      "name": "userBalance",
      "outputs": [
        {
          "internalType": "uint256",
          "name": "",
          "type": "uint256"
        }
      ],
      "stateMutability": "view",
      "type": "function"
    },
    {
      "inputs": [
        {
          "internalType": "address",
          "name": "userAddr",
          "type": "address"
        }
      ],
      "name": "username",
      "outputs": [
        {
          "internalType": "string",
          "name": "",
          "type": "string"
        }
      ],
      "stateMutability": "view",
      "type": "function"
    },
    {
      "inputs": [
        {
          "internalType": "uint256",
          "name": "amount",
          "type": "uint256"
        }
      ],
      "name": "withdraw",
      "outputs": [],
      "stateMutability": "nonpayable",
      "type": "function"
    }
  ],
  "bytecode": "0x60a0604052346200004057306080526200001862000045565b506040516141c89081620001098239608051818181610d8d01528181610f2e01526111180152f35b600080fd5b60005460ff8160081c16600014620000a25760405162461bcd60e51b815260206004820152602e6024820152600080516020620042d183398151915260448201526d191e481a5b9a5d1a585b1a5e995960921b6064820152608490fd5b60ff8082161015620000bd5760ff191660ff17600055600190565b60405162461bcd60e51b815260206004820152602e6024820152600080516020620042d183398151915260448201526d191e481a5b9a5d1a585b1a5e995960921b6064820152608490fdfe60806040526004361015610013575b600080fd5b60003560e01c806301ffc9a71461040f57806304634d8d146104065780630610a7a2146103fd57806306fdde03146103f4578063081812fc146103eb578063095ea7b3146103e25780631536aedd146103d957806318160ddd146103d057806323b872dd146103c757806325b5c6e3146103be57806326d7b3b4146103b55780632a55205a146103ac5780632e1a7d4d146103a35780632f745c591461039a5780633659cfe61461039157806342842e0e1461038857806342966c681461037f5780634f1ef286146103765780634f6ccce71461036d57806350a364001461036457806352d1902d1461035b57806355f804b3146103525780635c751ff21461034957806360eb9485146103405780636352211e146103375780636f8b44b01461032e57806370a0823114610325578063715018a61461031c5780638129fc1c146103135780638da5cb5b1461030a578063903be51f1461030157806395d89b41146102f85780639c3d371c146102ef578063a1cebf44146102e6578063a22cb465146102dd578063a9b449e0146102d4578063aa1b103f146102cb578063b88d4fde146102c2578063b8dcb01f146102b9578063ba4e72ad146102b0578063bb99e701146102a7578063c19d7ab31461029e578063c87b56dd14610295578063d5abeb011461028c578063d72e780e14610283578063de58cd411461027a578063e4623c1b14610271578063e985e9c514610268578063f2c298be1461025f578063f2fde38b146102565763ffae01b01461024e57600080fd5b61000e61232a565b5061000e612292565b5061000e6121bc565b5061000e61215e565b5061000e612105565b5061000e6120c9565b5061000e612098565b5061000e612078565b5061000e611f8e565b5061000e611f60565b5061000e611e99565b5061000e611d8f565b5061000e611c5b565b5061000e611b1a565b5061000e611aeb565b5061000e611aba565b5061000e6119cd565b5061000e6119ad565b5061000e61198a565b5061000e6118e2565b5061000e6118be565b5061000e611893565b5061000e611747565b5061000e6116e0565b5061000e6116bc565b5061000e6115d1565b5061000e6115b2565b5061000e61147b565b5061000e61132c565b5061000e6111ca565b5061000e611104565b5061000e6110e4565b5061000e611038565b5061000e610ef0565b5061000e610ed3565b5061000e610ebb565b5061000e610d69565b5061000e610cb5565b5061000e610c5e565b5061000e610bb1565b5061000e610aaf565b5061000e610a7e565b5061000e610a54565b5061000e610a00565b5061000e6109cd565b5061000e6107ae565b5061000e61077d565b5061000e61069b565b5061000e61065e565b5061000e6104f9565b5061000e61042a565b6001600160e01b031981160361000e57565b503461000e57602036600319011261000e57602060043561044a81610418565b63ffffffff60e01b1663780e9d6360e01b8114908115610470575b506040519015158152f35b6380ac58cd60e01b8114915081156104bc575b8115610491575b5038610465565b63152a902d60e11b8114915081156104ab575b503861048a565b6301ffc9a760e01b149050386104a4565b635b5e139f60e01b81149150610483565b600435906001600160a01b038216820361000e57565b602435906001600160a01b038216820361000e57565b503461000e57604036600319011261000e576105136104cd565b6024356bffffffffffffffffffffffff811680910361000e5761015f546001600160a01b0390610546908216331461235b565b6127108211610598576105969216906105608215156138fe565b6040519161056d836108b3565b808352602090920181905260a01b6001600160a01b0319166001600160a01b0390911617606555565b005b60405162461bcd60e51b815260206004820152602a60248201527f455243323938313a20726f79616c7479206665652077696c6c206578636565646044820152692073616c65507269636560b01b6064820152608490fd5b918091926000905b828210610610575011610609575050565b6000910152565b915080602091830151818601520182916105f8565b9060209161063e815180928185528580860191016105f0565b601f01601f1916010190565b90602061065b928181520190610625565b90565b503461000e57602036600319011261000e5761069761068361067e6104cd565b613a27565b604051918291602083526020830190610625565b0390f35b503461000e5760008060031936011261077a5760405190806097546106bf81611daf565b8085529160019180831690811561075057506001146106f5575b610697856106e981870382610911565b6040519182918261064a565b9250609783527f354a83ed9988f79f6038d4c7a7dadbad8af32f4ad6df893e0e5807a1b1944ff95b8284106107385750505081016020016106e9826106976106d9565b8054602085870181019190915290930192810161071d565b869550610697969350602092506106e994915060ff191682840152151560051b82010192936106d9565b80fd5b503461000e57602036600319011261000e57602061079c60043561292d565b6040516001600160a01b039091168152f35b503461000e57604036600319011261000e576107c86104cd565b6024356107d48161282c565b916001600160a01b03808416908216811461084d5761059693610801913314908115610806575b506128bb565b612e27565b6001600160a01b03166000908152609c6020526040902061084791506108409033905b9060018060a01b0316600052602052604060002090565b5460ff1690565b386107fb565b60405162461bcd60e51b815260206004820152602160248201527f4552433732313a20617070726f76616c20746f2063757272656e74206f776e656044820152603960f91b6064820152608490fd5b50634e487b7160e01b600052604160045260246000fd5b604081019081106001600160401b038211176108ce57604052565b6108d661089c565b604052565b602081019081106001600160401b038211176108ce57604052565b606081019081106001600160401b038211176108ce57604052565b90601f801991011681019081106001600160401b038211176108ce57604052565b6020906001600160401b03811161094f575b601f01601f19160190565b61095761089c565b610944565b81601f8201121561000e5780359061097382610932565b926109816040519485610911565b8284526020838301011161000e57816000926020809301838601378301015290565b602060031982011261000e57600435906001600160401b03821161000e5761065b9160040161095c565b503461000e5760206109f86001600160a01b036109f16109ec366109a3565b613992565b54166127b4565b604051908152f35b503461000e57600036600319011261000e57602060cb54604051908152f35b606090600319011261000e576001600160a01b0390600435828116810361000e5791602435908116810361000e579060443590565b503461000e57610596610a6636610a1f565b91610a79610a748433612aea565b6129bf565b612c8a565b503461000e57602036600319011261000e57610aa660018060a01b0361015f5416331461235b565b6004356101fb55005b503461000e5760008060031936011261077a5733815260206101f9815260408220906040519183908054610ae281611daf565b91600191808316908115610b965750600114610b64575b6101fa84528584038501862080546001600160a01b0319169055865b3360009081526101f960205260409020610b2e906139db565b6040513381527f630f28bb6372d0a747db8dcdb1a523bd9d875ddd96649c705325e60b239fc3c39080602081015b0390a1604051f35b865283862091925085915b838310610b8557505050820182610b1538610af9565b805486840152918401918101610b6f565b60ff19168752505050801515028301905082610b1538610af9565b503461000e57604036600319011261000e576004356000526066602052604060002060405190610be0826108b3565b546001600160a01b03811680835260a09190911c602083015215610c50575b610c34612710610c236bffffffffffffffffffffffff60208501511660243561313c565b92519204916001600160a01b031690565b604080516001600160a01b039290921682526020820192909252f35b50610c59613116565b610bff565b503461000e57602036600319011261000e576000808080600435610c8e60018060a01b0361015f5416331461235b565b818115610cac575b3390f115610ca057005b6040513d6000823e3d90fd5b506108fc610c96565b503461000e57604036600319011261000e57610ccf6104cd565b60243590610cdc816127b4565b821015610d10576001600160a01b0316600090815260c9602090815260408083209383529281529082902054915191825290f35b60405162461bcd60e51b815260206004820152602b60248201527f455243373231456e756d657261626c653a206f776e657220696e646578206f7560448201526a74206f6620626f756e647360a81b6064820152608490fd5b503461000e57602036600319011261000e57610d836104cd565b6001600160a01b037f000000000000000000000000000000000000000000000000000000000000000081169190610dbc308414156123f5565b610dd9600080516020614133833981519152938285541614612456565b610de98161015f5416331461235b565b60405190610df6826108db565b600082527f4910fdfa16fed3260ed0e7147f7cc6da11a60208b5b9406d12a635614ffd91435460ff1615610e305750506105969150612586565b6020600491604094939451928380926352d1902d60e01b825286165afa60009181610e8b575b50610e785760405162461bcd60e51b815280610e7460048201612537565b0390fd5b61059693610e8691146124d9565b61272e565b610ead91925060203d8111610eb4575b610ea58183610911565b8101906124ca565b9038610e56565b503d610e9b565b503461000e57610596610ecd36610a1f565b91612a25565b503461000e57602036600319011261000e57610596600435612fdd565b50604036600319011261000e57610f056104cd565b6024356001600160401b03811161000e57610f2490369060040161095c565b6001600160a01b037f00000000000000000000000000000000000000000000000000000000000000008116929190610f5e308514156123f5565b610f7b600080516020614133833981519152948286541614612456565b610f8b8161015f5416331461235b565b7f4910fdfa16fed3260ed0e7147f7cc6da11a60208b5b9406d12a635614ffd91435460ff1615610fc15750506105969150612586565b6020600491604094939451928380926352d1902d60e01b825286165afa60009181611018575b506110055760405162461bcd60e51b815280610e7460048201612537565b6105969361101391146124d9565b612616565b61103191925060203d8111610eb457610ea58183610911565b9038610fe7565b503461000e57602036600319011261000e5760043560cb5481101561108a5760cb6000527fa7ce836d032b2bf62b7e2097a8e0a6d8aeb35405ad15271e96d3b0188a1d06fb0154604051908152602090f35b60405162461bcd60e51b815260206004820152602c60248201527f455243373231456e756d657261626c653a20676c6f62616c20696e646578206f60448201526b7574206f6620626f756e647360a01b6064820152608490fd5b503461000e57600036600319011261000e5760206101fe54604051908152f35b503461000e57600036600319011261000e577f00000000000000000000000000000000000000000000000000000000000000006001600160a01b0316300361115f576040516000805160206141338339815191528152602090f35b60405162461bcd60e51b815260206004820152603860248201527f555550535570677261646561626c653a206d757374206e6f742062652063616c60448201527f6c6564207468726f7567682064656c656761746563616c6c00000000000000006064820152608490fd5b503461000e576111d9366109a3565b6111ef60018060a01b0361015f5416331461235b565b80516001600160401b03811161131f575b6101f790611217816112128454611daf565b6132aa565b602080601f8311600114611286575091817f23c8c9488efebfd474e85a7956de6f39b17c7ab88502d42a623db2d8e382bbaa94926112769460009161127b575b508160011b916000199060031b1c19161790556040519182918261064a565b0390a1005b905083015138611257565b6101f760005290601f198316600080516020614153833981519152926000905b828210611307575050926112769492600192827f23c8c9488efebfd474e85a7956de6f39b17c7ab88502d42a623db2d8e382bbaa9896106112ee575b5050811b0190556106e9565b85015160001960f88460031b161c1916905538806112e2565b80600185968294968b015181550195019301906112a6565b61132761089c565b611200565b50604036600319011261000e576004356001600160401b03811161000e5761135890369060040161095c565b336000908152610202602052604090205480156113ed57610596917fb115fe19761893878cadbab8cfc5c7a04feb93c88ff56aa5c93a8430347973a26113e7926113a66101fe543411613aff565b3360009081526101fd602052604090206113c1348254612c7e565b905561020054926113df846040519384936024359134903387613b62565b0390a161319b565b61020055565b6101ff5434111561142657610596917fb115fe19761893878cadbab8cfc5c7a04feb93c88ff56aa5c93a8430347973a26113e7926113a6565b60405162461bcd60e51b815260206004820152602760248201527f436f6c6c656374696f6e3a20696e73756666696369656e742066656520666f726044820152661033bab2b9ba1760c91b6064820152608490fd5b503461000e5761148a366109a3565b6114a060018060a01b0361015f5416331461235b565b80516001600160401b0381116115a5575b6101f6906114c8816114c38454611daf565b6132fa565b602080601f8311600114611526575091817f236f8389aa7c121fd00a2e18f64a0bf0789ab8925f9d80674426dc499590d85c94926112769460009161127b57508160011b916000199060031b1c19161790556040519182918261064a565b6101f660005290601f198316600080516020614173833981519152926000905b82821061158d575050926112769492600192827f236f8389aa7c121fd00a2e18f64a0bf0789ab8925f9d80674426dc499590d85c9896106112ee575050811b0190556106e9565b80600185968294968b01518155019501930190611546565b6115ad61089c565b6114b1565b503461000e57602036600319011261000e57602061079c60043561282c565b503461000e57602036600319011261000e576004356115fc60018060a01b0361015f5416331461235b565b6101f554811061163e576101f88190556040519081527f3f8118fc46e72ecde0c5e090803cad8c88e817b2f1e93e820aa9bfbf51f2468d908060208101611276565b60405162461bcd60e51b815260206004820152604a60248201527f436f6c6c656374696f6e3a206d6178537570706c79206d75737420626520677260448201527f6561746572207468616e206f7220657175616c20746f20746865206375727265606482015269373a1039bab838363c9760b11b608482015260a490fd5b503461000e57602036600319011261000e5760206109f86116db6104cd565b6127b4565b503461000e5760008060031936011261077a5761015f80546001600160a01b038116919061170f33841461235b565b6001600160a01b03191690556040519082907f8be0079c531659141344cd1fd0a4f28419497f9722a3daafe3b4186f6b6457e08284a3f35b503461000e5760008060031936011261077a5761176261378b565b80611881575b6101f661177d6117788254611daf565b61333f565b600c6552656e6f706560d01b0190556040516117c29061179c816108b3565b600b81526a636f6c6c656374696f6e3360a81b60208201526117bc61363b565b906137cb565b6117ca6138ed565b6117d26138ed565b6117db3361370e565b6117e3613659565b6117ee60646101f855565b6117f73061394a565b61180866b1a2bc2ec500006101fb55565b61181360c86101fc55565b6118246611c37937e080006101fe55565b611835662386f26fc100006101ff55565b61183e57604051f35b61184e61ff001960005416600055565b604051600181527f7f26b83ff96e1f2b6a682f133852f6798a09c465da95921460cefb3847402498908060208101610b5c565b815461ff001916610100178255611768565b503461000e57600036600319011261000e5761015f546040516001600160a01b039091168152602090f35b503461000e57602036600319011261000e5760206109f86118dd6104cd565b613c75565b503461000e5760008060031936011261077a57604051908060985461190681611daf565b80855291600191808316908115610750575060011461192f57610697856106e981870382610911565b9250609883527f2237a976fa961f5921fd19f2b03c925c725d77b20ce8f790c19709c03de4d8145b8284106119725750505081016020016106e9826106976106d9565b80546020858701810191909152909301928101611957565b503461000e57602036600319011261000e5761069761068361067e60043561282c565b503461000e57600036600319011261000e57602061020054604051908152f35b503461000e57604036600319011261000e576119e76104cd565b602435801515810361000e576001600160a01b03821691338314611a755781611a32611a439233600052609c60205260406000209060018060a01b0316600052602052604060002090565b9060ff801983541691151516179055565b604051901515815233907f17307eab39ab6107e8899845ad3d59bd9653f200f220920489ca2b5937696c3190602090a3005b60405162461bcd60e51b815260206004820152601960248201527f4552433732313a20617070726f766520746f2063616c6c6572000000000000006044820152606490fd5b503461000e57602036600319011261000e57611ae260018060a01b0361015f5416331461235b565b6004356101fc55005b503461000e57600036600319011261000e57611b1360018060a01b0361015f5416331461235b565b6000606555005b503461000e57608036600319011261000e57611b346104cd565b611b3c6104e3565b606435916001600160401b03831161000e57611b5f61059693369060040161095c565b9160443591612a5f565b6020906001600160401b038111611b82575b60051b0190565b611b8a61089c565b611b7b565b81601f8201121561000e57803591611ba683611b69565b92611bb46040519485610911565b808452602092838086019260051b82010192831161000e578301905b828210611bde575050505090565b81356001600160a01b038116810361000e578152908301908301611bd0565b81601f8201121561000e57803591611c1483611b69565b92611c226040519485610911565b808452602092838086019260051b82010192831161000e578301905b828210611c4c575050505090565b81358152908301908301611c3e565b503461000e57606036600319011261000e576001600160401b0360043581811161000e57611c8d903690600401611b8f565b9060243581811161000e57611ca6903690600401611b8f565b9060443590811161000e57611cbf903690600401611bfd565b91805183518091149081611d84575b5015611d295760005b83518110156105965780611d1f611d01611cf4611d249486613add565b516001600160a01b031690565b611d0e611cf48488613add565b611d188489613add565b5191612a25565b61319b565b611cd7565b60405162461bcd60e51b815260206004820152602d60248201527f436f6c6c656374696f6e3a20796f75206d75737420656e7465722073616d652060448201526c6c656e6774682061727261797360981b6064820152608490fd5b905082511438611cce565b503461000e57600036600319011261000e5760206101ff54604051908152f35b90600182811c92168015611ddf575b6020831014611dc957565b634e487b7160e01b600052602260045260246000fd5b91607f1691611dbe565b604051906000826101f7918254611dff81611daf565b80845293600191808316908115611e755750600114611e29575b5050611e2792500383610911565b565b600090815291506000805160206141538339815191525b848310611e5a5750611e2793505081016020013880611e19565b81935090816020925483858a01015201910190918592611e40565b91505060209250611e2794915060ff191682840152151560051b8201013880611e19565b503461000e5760008060031936011261077a5760405190806101f690815490611ec182611daf565b80865292600192808416908115611f335750600114611eeb575b610697866106e981880382610911565b815292506000805160206141738339815191525b828410611f1b5750505081016020016106e98261069738611edb565b80546020858701810191909152909301928101611eff565b9050869550610697969350602092506106e994915060ff191682840152151560051b820101929338611edb565b503461000e57602036600319011261000e576004356000526102016020526020604060002054604051908152f35b503461000e57602036600319011261000e576004356000818152609960205260409020546001600160a01b03161561201b57611fc8611de9565b805115612009576106e9611ff591611ffb611fe5610697956131ca565b60405194859360208501906128a4565b906128a4565b03601f198101835282610911565b50506106976120166124b7565b6106e9565b60405162461bcd60e51b815260206004820152602f60248201527f4552433732314d657461646174613a2055524920717565727920666f72206e6f60448201526e3732bc34b9ba32b73a103a37b5b2b760891b6064820152608490fd5b503461000e57600036600319011261000e5760206101f854604051908152f35b503461000e57602036600319011261000e576120c060018060a01b0361015f5416331461235b565b6004356101ff55005b503461000e57602036600319011261000e576001600160a01b036120eb6104cd565b166000526102026020526020604060002054604051908152f35b503461000e57602036600319011261000e576004356001600160401b03811161000e57612136903690600401611bfd565b60005b81518110156105965780611d1f6121536121599385613add565b51612fdd565b612139565b503461000e57604036600319011261000e57602060ff6121b061217f6104cd565b6121876104e3565b6001600160a01b039182166000908152609c865260408082209290931681526020919091522090565b54166040519015158152f35b503461000e576121cb366109a3565b6001600160a01b036121dc82613992565b5416612230573360009081526101f9602052604090207f6ba0831d2f62ae5cbf7214bcc1d79c5da1d705f12811efda0beaa840006f874e916112769161222390829061355f565b60405191829133836139b9565b60405162461bcd60e51b815260206004820152603460248201527f436f6c6c656374696f6e3a2074686520757365726e616d652068617320616c726044820152731958591e481899595b881c9959da5cdd195c995960621b6064820152608490fd5b503461000e57602036600319011261000e576122ac6104cd565b61015f546001600160a01b03906122c6908216331461235b565b8116156122d657610596906123a6565b60405162461bcd60e51b815260206004820152602660248201527f4f776e61626c653a206e6577206f776e657220697320746865207a65726f206160448201526564647265737360d01b6064820152608490fd5b503461000e57602036600319011261000e5761235260018060a01b0361015f5416331461235b565b6004356101fe55005b1561236257565b606460405162461bcd60e51b815260206004820152602060248201527f4f776e61626c653a2063616c6c6572206973206e6f7420746865206f776e65726044820152fd5b61015f80546001600160a01b039283166001600160a01b031982168117909255604051919216907f8be0079c531659141344cd1fd0a4f28419497f9722a3daafe3b4186f6b6457e090600090a3565b156123fc57565b60405162461bcd60e51b815260206004820152602c60248201527f46756e6374696f6e206d7573742062652063616c6c6564207468726f7567682060448201526b19195b1959d85d1958d85b1b60a21b6064820152608490fd5b1561245d57565b60405162461bcd60e51b815260206004820152602c60248201527f46756e6374696f6e206d7573742062652063616c6c6564207468726f7567682060448201526b6163746976652070726f787960a01b6064820152608490fd5b604051906124c4826108db565b60008252565b9081602091031261000e575190565b156124e057565b60405162461bcd60e51b815260206004820152602960248201527f45524331393637557067726164653a20756e737570706f727465642070726f786044820152681a58589b195555525160ba1b6064820152608490fd5b60809060208152602e60208201527f45524331393637557067726164653a206e657720696d706c656d656e7461746960408201526d6f6e206973206e6f74205555505360901b60608201520190565b803b156125bb5760008051602061413383398151915280546001600160a01b0319166001600160a01b03909216919091179055565b60405162461bcd60e51b815260206004820152602d60248201527f455243313936373a206e657720696d706c656d656e746174696f6e206973206e60448201526c1bdd08184818dbdb9d1c9858dd609a1b6064820152608490fd5b61261f81612586565b6040516001600160a01b0382167fbc7cd75a20ee27fd9adebab32041f755214dbc6bffa90cc0225b39da2e5c2d3b600083a2825115801590612726575b61266557505050565b813b156126d55750600082819260206126d295519201905af4612686612784565b60405191612693836108f6565b602783527f416464726573733a206c6f772d6c6576656c2064656c65676174652063616c6c6020840152660819985a5b195960ca1b604084015261315b565b50565b62461bcd60e51b815260206004820152602660248201527f416464726573733a2064656c65676174652063616c6c20746f206e6f6e2d636f6044820152651b9d1c9858dd60d21b6064820152608490fd5b50600161265c565b61273781612586565b6040516001600160a01b0382167fbc7cd75a20ee27fd9adebab32041f755214dbc6bffa90cc0225b39da2e5c2d3b600083a282511580159061277c5761266557505050565b50600061265c565b3d156127af573d9061279582610932565b916127a36040519384610911565b82523d6000602084013e565b606090565b6001600160a01b031680156127d457600052609a60205260406000205490565b60405162461bcd60e51b815260206004820152602a60248201527f4552433732313a2062616c616e636520717565727920666f7220746865207a65604482015269726f206164647265737360b01b6064820152608490fd5b6000908152609960205260409020546001600160a01b0316801561284d5790565b60405162461bcd60e51b815260206004820152602960248201527f4552433732313a206f776e657220717565727920666f72206e6f6e657869737460448201526832b73a103a37b5b2b760b91b6064820152608490fd5b906128b7602092828151948592016105f0565b0190565b156128c257565b60405162461bcd60e51b815260206004820152603860248201527f4552433732313a20617070726f76652063616c6c6572206973206e6f74206f7760448201527f6e6572206e6f7220617070726f76656420666f7220616c6c00000000000000006064820152608490fd5b6000818152609960205260409020546001600160a01b031615612965576000908152609b60205260409020546001600160a01b031690565b60405162461bcd60e51b815260206004820152602c60248201527f4552433732313a20617070726f76656420717565727920666f72206e6f6e657860448201526b34b9ba32b73a103a37b5b2b760a11b6064820152608490fd5b156129c657565b60405162461bcd60e51b815260206004820152603160248201527f4552433732313a207472616e736665722063616c6c6572206973206e6f74206f6044820152701ddb995c881b9bdc88185c1c1c9bdd9959607a1b6064820152608490fd5b9091611e279260405192602084018481106001600160401b03821117612a52575b60405260008452612a5f565b612a5a61089c565b612a46565b90612a83939291612a73610a748433612aea565b612a7e838383612c8a565b612ed3565b15612a8a57565b60405162461bcd60e51b815260206004820152603260248201527f4552433732313a207472616e7366657220746f206e6f6e20455243373231526560448201527131b2b4bb32b91034b6b83632b6b2b73a32b960711b6064820152608490fd5b6000828152609960205260409020546001600160a01b031615612b8057612b108261282c565b9160018060a01b0390818316928285168414948515612b4f575b50508315612b39575b50505090565b612b459192935061292d565b1614388080612b33565b6001600160a01b03166000908152609c6020526040902091945060ff91612b769190610829565b5416923880612b2a565b60405162461bcd60e51b815260206004820152602c60248201527f4552433732313a206f70657261746f7220717565727920666f72206e6f6e657860448201526b34b9ba32b73a103a37b5b2b760a11b6064820152608490fd5b15612be157565b60405162461bcd60e51b8152602060048201526024808201527f4552433732313a207472616e7366657220746f20746865207a65726f206164646044820152637265737360e01b6064820152608490fd5b50634e487b7160e01b600052601160045260246000fd5b60018110612c59575b6000190190565b612c61612c32565b612c52565b6001906001198111612c76570190565b6128b7612c32565b81198111612c76570190565b9190612c958261282c565b6001600160a01b0380851694918116859003612d7e57611e27948491841690612cbf821515612bda565b612cca838686613e20565b612cd383612dd1565b6001600160a01b0384166000908152609a60205260409020612cf58154612c49565b90556001600160a01b0385166000908152609a60205260409020612d198154612c66565b9055612d5285612d33856000526099602052604060002090565b80546001600160a01b0319166001600160a01b03909216919091179055565b7fddf252ad1be2c89b69c2b068fc378daa952ba7f163c4a11628f55a4df523b3ef6000604051a4613bea565b60405162461bcd60e51b815260206004820152602560248201527f4552433732313a207472616e736665722066726f6d20696e636f72726563742060448201526437bbb732b960d91b6064820152608490fd5b6000818152609b6020526040812080546001600160a01b03191690556001600160a01b03612dfe8361282c565b167f8c5be1e5ebec7d5bd14f71427d1e84f3dd0314c0f7b2291e5b200ac8c7c3b92582604051a4565b6000828152609b6020526040902080546001600160a01b0319166001600160a01b0383161790556001600160a01b0380612e608461282c565b169116907f8c5be1e5ebec7d5bd14f71427d1e84f3dd0314c0f7b2291e5b200ac8c7c3b9256000604051a4565b9081602091031261000e575161065b81610418565b6001600160a01b03918216815291166020820152604081019190915260806060820181905261065b92910190610625565b92909190823b15612fd457612f06926020926000604051809681958294630a85bd0160e11b9a8b85523360048601612ea2565b03926001600160a01b03165af160009181612fa4575b50612f9657612f29612784565b80519081612f915760405162461bcd60e51b815260206004820152603260248201527f4552433732313a207472616e7366657220746f206e6f6e20455243373231526560448201527131b2b4bb32b91034b6b83632b6b2b73a32b960711b6064820152608490fd5b602001fd5b6001600160e01b0319161490565b612fc691925060203d8111612fcd575b612fbe8183610911565b810190612e8d565b9038612f1c565b503d612fb4565b50505050600190565b612fe78133612aea565b156130a1578061308381612ffd611e279461282c565b6130078282613cd9565b61301082612dd1565b6001600160a01b0381166000818152609a6020526040812080548593919060018110613094575b6000190190558282526099602052604080832080546001600160a01b0319169055517fddf252ad1be2c89b69c2b068fc378daa952ba7f163c4a11628f55a4df523b3ef908390a4613b9d565b600052606660205260006040812055565b61309c612c32565b613037565b60405162461bcd60e51b815260206004820152603060248201527f4552433732314275726e61626c653a2063616c6c6572206973206e6f74206f7760448201526f1b995c881b9bdc88185c1c1c9bdd995960821b6064820152608490fd5b50634e487b7160e01b600052603260045260246000fd5b60405190613123826108b3565b6065546001600160a01b038116835260a01c6020830152565b806000190482118115151661314f570290565b613157612c32565b0290565b90919015613167575090565b8151156131775750805190602001fd5b60405162461bcd60e51b815260206004820152908190610e74906024830190610625565b6001906000198114612c76570190565b9060209180518210156131bd57010190565b6131c56130ff565b010190565b801561327557806000908282935b61326157506131e683610932565b926131f46040519485610911565b80845281601f1961320483610932565b013660208701375b6132165750505090565b61321f90612c49565b90600a90603082820680198211613254575b0160f81b6001600160f81b031916841a61324b84876131ab565b5304908161320c565b61325c612c32565b613231565b9261326d600a9161319b565b9304806131d8565b50604051613282816108b3565b60018152600360fc1b602082015290565b81811061329e575050565b60008155600101613293565b90601f82116132b7575050565b611e27916101f7600052600080516020614153833981519152906020601f840160051c830193106132f0575b601f0160051c0190613293565b90915081906132e3565b90601f8211613307575050565b611e27916101f6600052600080516020614173833981519152906020601f840160051c830193106132f057601f0160051c0190613293565b601f811161334a5750565b60006101f68152601f600080516020614173833981519152920160051c8201915b82811061337757505050565b81815560010161336b565b90601f821161338f575050565b611e279160976000527f354a83ed9988f79f6038d4c7a7dadbad8af32f4ad6df893e0e5807a1b1944ff9906020601f840160051c830193106132f057601f0160051c0190613293565b90601f82116133e5575050565b611e279160986000527f2237a976fa961f5921fd19f2b03c925c725d77b20ce8f790c19709c03de4d814906020601f840160051c830193106132f057601f0160051c0190613293565b9190601f811161343d57505050565b611e27926000526020600020906020601f840160051c830193106132f057601f0160051c0190613293565b9081516001600160401b038111613552575b61348e81613489609854611daf565b6133d8565b602080601f83116001146134ca57508192936000926134bf575b50508160011b916000199060031b1c191617609855565b0151905038806134a8565b90601f198316946134fd60986000527f2237a976fa961f5921fd19f2b03c925c725d77b20ce8f790c19709c03de4d81490565b926000905b87821061353a575050836001959610613521575b505050811b01609855565b015160001960f88460031b161c19169055388080613516565b80600185968294968601518155019501930190613502565b61355a61089c565b61347a565b91909182516001600160401b03811161362e575b613587816135818454611daf565b8461342e565b602080601f83116001146135c35750819293946000926135b8575b50508160011b916000199060031b1c1916179055565b0151905038806135a2565b90601f198316956135d985600052602060002090565b926000905b888210613616575050836001959697106135fd575b505050811b019055565b015160001960f88460031b161c191690553880806135f3565b806001859682949686015181550195019301906135de565b61363661089c565b613573565b60405190613648826108b3565b6002825261633360f01b6020830152565b6101f76136668154611daf565b601f8111613676575b5060009055565b6000828152601f600080516020614153833981519152920160051c8201915b8281106136a357505061366f565b818155600101613695565b156136b557565b60405162461bcd60e51b815260206004820152602b60248201527f496e697469616c697a61626c653a20636f6e7472616374206973206e6f74206960448201526a6e697469616c697a696e6760a81b6064820152608490fd5b611e279061372360ff60005460081c166136ae565b6123a6565b1561372f57565b60405162461bcd60e51b815260206004820152602e60248201527f496e697469616c697a61626c653a20636f6e747261637420697320616c72656160448201526d191e481a5b9a5d1a585b1a5e995960921b6064820152608490fd5b60005460ff8160081c166000146137ad57506137a8303b15613728565b600090565b806137be600160ff81941610613728565b60ff191617600055600190565b906137e660ff60005460081c166137e1816136ae565b6136ae565b81516001600160401b0381116138e0575b61380b81613806609754611daf565b613382565b602080601f831160011461384d57508190611e2794600092613842575b50508160011b916000199060031b1c191617609755613468565b015190503880613828565b919293601f19841661388160976000527f354a83ed9988f79f6038d4c7a7dadbad8af32f4ad6df893e0e5807a1b1944ff990565b936000905b8282106138c8575050916001939185611e27979694106138af575b505050811b01609755613468565b015160001960f88460031b161c191690553880806138a1565b80600186978294978701518155019601940190613886565b6138e861089c565b6137f7565b611e2760ff60005460081c166136ae565b1561390557565b60405162461bcd60e51b815260206004820152601960248201527f455243323938313a20696e76616c6964207265636569766572000000000000006044820152606490fd5b611e27906001600160a01b03166139628115156138fe565b6040519061396f826108b3565b8082526101f46020909201919091526001600160a01b0316607d60a21b17606555565b60206139ab9181604051938285809451938492016105f0565b81016101fa81520301902090565b6001600160a01b03909116815260406020820181905261065b92910190610625565b6139e58154611daf565b90816139ef575050565b81601f60009311600114613a01575055565b81835260208320613a1d91601f0160051c810190600101613293565b8160208120915555565b60009060018060a01b0316815260206101f981526040822060405192839181815490613a5282611daf565b80865292600192808416908115613ab95750600114613a7c575b5050505061065b92500382610911565b815285812095935091905b818310613aa157505061065b935082010138808080613a6c565b85548784018501529485019486945091830191613a87565b935050505061065b94925060ff191682840152151560051b82010138808080613a6c565b6020918151811015613af2575b60051b010190565b613afa6130ff565b613aea565b15613b0657565b60405162461bcd60e51b815260206004820152602e60248201527f436f6c6c656374696f6e3a20696e73756666696369656e742066656520666f7260448201526d103a37b5b2b72437b63232b9399760911b6064820152608490fd5b92613b939260a0959298979698600180881b031685526020850152604084015260c0606084015260c0830190610625565b9460808201520152565b6001600160a01b03169081613bb0575050565b600052610201602052604060002054906000526102026020526040600020908154818110613bdd57039055565b613be5612c32565b039055565b6001600160a01b039190821680613c35575b50169081613c08575050565b60005261020160205260406000205490600052610202602052613c316040600020918254612c7e565b9055565b83600052610201602052604060002054906000526102026020526040600020908154818110613c68575b03905538613bfc565b613c70612c32565b613c5f565b61065b9060018060a01b031680600052610203602052613cc66040600020549161020460205260406000205490814210613ccc575b600052610202602052620151806040600020549142030461313c565b90612c7e565b613cd4612c32565b613caa565b906001600160a01b038216801591613d00918315613d485750613cfb81613fa4565b61401d565b15613d085750565b613d1181613c75565b6001600160a01b038216600090815261020360205260409020556001600160a01b0316600090815261020460205260409020429055565b613dba613d54866127b4565b60018110613e13575b6000190160009284845260ca602052604084205490828203613dc0575b505082613d918560005260ca602052604060002090565b556001600160a01b038716600090815260c9602052604090205b90600052602052604060002090565b5561401d565b845260c960205260408420828552602052613e0b604085205480613dfa84613dab8d60018060a01b031660005260c9602052604060002090565b5560005260ca602052604060002090565b553880613d7a565b613e1b612c32565b613d5d565b90916001600160a01b0380831692918315918215613ec757613e4182613fa4565b8516801594908515613eab575050613e589061401d565b15613e67575b5015613d085750565b613e7081613c75565b6001600160a01b038216600090815261020360205260409020556001600160a01b031660009081526102046020526040902042905538613e5e565b03613eb7575b50613e58565b613ec19085613f6c565b38613eb1565b8581168514613e4157613ed9846127b4565b60018110613f5f575b60001901613f1760009184835260ca6020526040832054818103613f1d575b5082613d918660005260ca602052604060002090565b55613e41565b88845260c960205260408420828552602052613f58604085205480613dfa84613dab8d60018060a01b031660005260c9602052604060002090565b5538613f01565b613f67612c32565b613ee2565b604090613f78816127b4565b9260009160018060a01b0316825260c96020528282208483526020528083832055815260ca6020522055565b60cb548160005260cc6020528060406000205568010000000000000000811015614010575b600181018060cb55811015614003575b60cb6000527fa7ce836d032b2bf62b7e2097a8e0a6d8aeb35405ad15271e96d3b0188a1d06fb0155565b61400b6130ff565b613fd9565b61401861089c565b613fc9565b60cb805460018110614125575b60009083825260cc602052816140cc60408220549560001996848881011015614118575b8684526140bb7fa7ce836d032b2bf62b7e2097a8e0a6d8aeb35405ad15271e96d3b0188a1d06fa95868101549083101561410b575b88865280837fa7ce836d032b2bf62b7e2097a8e0a6d8aeb35405ad15271e96d3b0188a1d06fb015560005260cc602052604060002090565b5560005260cc602052604060002090565b5582549384156140f757840193808510156140ea575b838352015555565b6140f26130ff565b6140e2565b634e487b7160e01b83526031600452602483fd5b6141136130ff565b614083565b6141206130ff565b61404e565b61412d612c32565b61402a56fe360894a13ba1a3210667c828492db98dca3e2076cc3735a920a3ca505d382bbcab423d91e51275f405563b297e90b3a62f6d51fbcf68f05522049701393dd8c36ea6ba7afdda9dd98317feb84bb80d157ea581b23ca788496ba1c38c64dd8212a26469706673582212204d4557b0b92faf46f41b8b857e2d04e04f12b0922fa5b3e5089e3fc63cb689aa64736f6c634300080f0033496e697469616c697a61626c653a20636f6e747261637420697320616c726561",
  "linkReferences": {},
  "deployedLinkReferences": {}
}