{
  "_format": "hh-sol-artifact-1",
  "contractName": "BTBMarket",
  "sourceName": "contracts/BTBMarket.sol",
  "abi": [
    {
      "anonymous": false,
      "inputs": [
        {
          "indexed": true,
          "internalType": "address",
          "name": "owner",
          "type": "address"
        },
        {
          "indexed": true,
          "internalType": "address",
          "name": "approved",
          "type": "address"
        },
        {
          "indexed": true,
          "internalType": "uint256",
          "name": "tokenId",
          "type": "uint256"
        }
      ],
      "name": "Approval",
      "type": "event"
    },
    {
      "anonymous": false,
      "inputs": [
        {
          "indexed": true,
          "internalType": "address",
          "name": "owner",
          "type": "address"
        },
        {
          "indexed": true,
          "internalType": "address",
          "name": "operator",
          "type": "address"
        },
        {
          "indexed": false,
          "internalType": "bool",
          "name": "approved",
          "type": "bool"
        }
      ],
      "name": "ApprovalForAll",
      "type": "event"
    },
    {
      "anonymous": false,
      "inputs": [
        {
          "indexed": false,
          "internalType": "uint256",
          "name": "tokenId",
          "type": "uint256"
        },
        {
          "indexed": false,
          "internalType": "uint256",
          "name": "minValue",
          "type": "uint256"
        }
      ],
      "name": "ForSale",
      "type": "event"
    },
    {
      "anonymous": false,
      "inputs": [
        {
          "indexed": true,
          "internalType": "bytes32",
          "name": "role",
          "type": "bytes32"
        },
        {
          "indexed": true,
          "internalType": "bytes32",
          "name": "previousAdminRole",
          "type": "bytes32"
        },
        {
          "indexed": true,
          "internalType": "bytes32",
          "name": "newAdminRole",
          "type": "bytes32"
        }
      ],
      "name": "RoleAdminChanged",
      "type": "event"
    },
    {
      "anonymous": false,
      "inputs": [
        {
          "indexed": true,
          "internalType": "bytes32",
          "name": "role",
          "type": "bytes32"
        },
        {
          "indexed": true,
          "internalType": "address",
          "name": "account",
          "type": "address"
        },
        {
          "indexed": true,
          "internalType": "address",
          "name": "sender",
          "type": "address"
        }
      ],
      "name": "RoleGranted",
      "type": "event"
    },
    {
      "anonymous": false,
      "inputs": [
        {
          "indexed": true,
          "internalType": "bytes32",
          "name": "role",
          "type": "bytes32"
        },
        {
          "indexed": true,
          "internalType": "address",
          "name": "account",
          "type": "address"
        },
        {
          "indexed": true,
          "internalType": "address",
          "name": "sender",
          "type": "address"
        }
      ],
      "name": "RoleRevoked",
      "type": "event"
    },
    {
      "anonymous": false,
      "inputs": [
        {
          "indexed": true,
          "internalType": "address",
          "name": "from",
          "type": "address"
        },
        {
          "indexed": true,
          "internalType": "address",
          "name": "to",
          "type": "address"
        },
        {
          "indexed": true,
          "internalType": "uint256",
          "name": "tokenId",
          "type": "uint256"
        }
      ],
      "name": "Transfer",
      "type": "event"
    },
    {
      "anonymous": false,
      "inputs": [
        {
          "indexed": false,
          "internalType": "uint256",
          "name": "tokenId",
          "type": "uint256"
        },
        {
          "indexed": false,
          "internalType": "uint256",
          "name": "value",
          "type": "uint256"
        },
        {
          "indexed": false,
          "internalType": "address",
          "name": "from",
          "type": "address"
        },
        {
          "indexed": false,
          "internalType": "address",
          "name": "to",
          "type": "address"
        }
      ],
      "name": "bought",
      "type": "event"
    },
    {
      "anonymous": false,
      "inputs": [
        {
          "indexed": false,
          "internalType": "uint256",
          "name": "tokenId",
          "type": "uint256"
        }
      ],
      "name": "noLongerForSale",
      "type": "event"
    },
    {
      "inputs": [],
      "name": "BURNER_ROLE",
      "outputs": [
        {
          "internalType": "bytes32",
          "name": "",
          "type": "bytes32"
        }
      ],
      "stateMutability": "view",
      "type": "function"
    },
    {
      "inputs": [],
      "name": "DEFAULT_ADMIN_ROLE",
      "outputs": [
        {
          "internalType": "bytes32",
          "name": "",
          "type": "bytes32"
        }
      ],
      "stateMutability": "view",
      "type": "function"
    },
    {
      "inputs": [],
      "name": "SUPPLY_ACCESS",
      "outputs": [
        {
          "internalType": "bytes32",
          "name": "",
          "type": "bytes32"
        }
      ],
      "stateMutability": "view",
      "type": "function"
    },
    {
      "inputs": [
        {
          "internalType": "uint256",
          "name": "_maxSupply",
          "type": "uint256"
        }
      ],
      "name": "adjustMaxSupply",
      "outputs": [],
      "stateMutability": "nonpayable",
      "type": "function"
    },
    {
      "inputs": [
        {
          "internalType": "address",
          "name": "to",
          "type": "address"
        },
        {
          "internalType": "uint256",
          "name": "tokenId",
          "type": "uint256"
        }
      ],
      "name": "approve",
      "outputs": [],
      "stateMutability": "nonpayable",
      "type": "function"
    },
    {
      "inputs": [
        {
          "internalType": "address",
          "name": "owner",
          "type": "address"
        }
      ],
      "name": "balanceOf",
      "outputs": [
        {
          "internalType": "uint256",
          "name": "",
          "type": "uint256"
        }
      ],
      "stateMutability": "view",
      "type": "function"
    },
    {
      "inputs": [
        {
          "internalType": "uint256",
          "name": "tokenId",
          "type": "uint256"
        }
      ],
      "name": "burn",
      "outputs": [],
      "stateMutability": "nonpayable",
      "type": "function"
    },
    {
      "inputs": [
        {
          "internalType": "uint256",
          "name": "tokenId",
          "type": "uint256"
        }
      ],
      "name": "buyToken",
      "outputs": [],
      "stateMutability": "payable",
      "type": "function"
    },
    {
      "inputs": [
        {
          "internalType": "uint256",
          "name": "tokenId",
          "type": "uint256"
        }
      ],
      "name": "getApproved",
      "outputs": [
        {
          "internalType": "address",
          "name": "",
          "type": "address"
        }
      ],
      "stateMutability": "view",
      "type": "function"
    },
    {
      "inputs": [
        {
          "internalType": "bytes32",
          "name": "role",
          "type": "bytes32"
        }
      ],
      "name": "getRoleAdmin",
      "outputs": [
        {
          "internalType": "bytes32",
          "name": "",
          "type": "bytes32"
        }
      ],
      "stateMutability": "view",
      "type": "function"
    },
    {
      "inputs": [
        {
          "internalType": "bytes32",
          "name": "role",
          "type": "bytes32"
        },
        {
          "internalType": "address",
          "name": "account",
          "type": "address"
        }
      ],
      "name": "grantRole",
      "outputs": [],
      "stateMutability": "nonpayable",
      "type": "function"
    },
    {
      "inputs": [
        {
          "internalType": "bytes32",
          "name": "role",
          "type": "bytes32"
        },
        {
          "internalType": "address",
          "name": "account",
          "type": "address"
        }
      ],
      "name": "hasRole",
      "outputs": [
        {
          "internalType": "bool",
          "name": "",
          "type": "bool"
        }
      ],
      "stateMutability": "view",
      "type": "function"
    },
    {
      "inputs": [
        {
          "internalType": "address",
          "name": "owner",
          "type": "address"
        },
        {
          "internalType": "address",
          "name": "operator",
          "type": "address"
        }
      ],
      "name": "isApprovedForAll",
      "outputs": [
        {
          "internalType": "bool",
          "name": "",
          "type": "bool"
        }
      ],
      "stateMutability": "view",
      "type": "function"
    },
    {
      "inputs": [],
      "name": "maxSupply",
      "outputs": [
        {
          "internalType": "uint256",
          "name": "",
          "type": "uint256"
        }
      ],
      "stateMutability": "view",
      "type": "function"
    },
    {
      "inputs": [],
      "name": "name",
      "outputs": [
        {
          "internalType": "string",
          "name": "",
          "type": "string"
        }
      ],
      "stateMutability": "view",
      "type": "function"
    },
    {
      "inputs": [
        {
          "internalType": "uint256",
          "name": "tokenId",
          "type": "uint256"
        },
        {
          "internalType": "uint256",
          "name": "minSalePriceInWei",
          "type": "uint256"
        },
        {
          "internalType": "bool",
          "name": "isForSale",
          "type": "bool"
        }
      ],
      "name": "offerToken",
      "outputs": [],
      "stateMutability": "nonpayable",
      "type": "function"
    },
    {
      "inputs": [
        {
          "internalType": "uint256",
          "name": "tokenId",
          "type": "uint256"
        }
      ],
      "name": "ownerOf",
      "outputs": [
        {
          "internalType": "address",
          "name": "",
          "type": "address"
        }
      ],
      "stateMutability": "view",
      "type": "function"
    },
    {
      "inputs": [
        {
          "internalType": "address",
          "name": "",
          "type": "address"
        }
      ],
      "name": "pendingWithdrawals",
      "outputs": [
        {
          "internalType": "uint256",
          "name": "",
          "type": "uint256"
        }
      ],
      "stateMutability": "view",
      "type": "function"
    },
    {
      "inputs": [
        {
          "internalType": "bytes32",
          "name": "role",
          "type": "bytes32"
        },
        {
          "internalType": "address",
          "name": "account",
          "type": "address"
        }
      ],
      "name": "renounceRole",
      "outputs": [],
      "stateMutability": "nonpayable",
      "type": "function"
    },
    {
      "inputs": [
        {
          "internalType": "bytes32",
          "name": "role",
          "type": "bytes32"
        },
        {
          "internalType": "address",
          "name": "account",
          "type": "address"
        }
      ],
      "name": "revokeRole",
      "outputs": [],
      "stateMutability": "nonpayable",
      "type": "function"
    },
    {
      "inputs": [
        {
          "internalType": "uint256",
          "name": "_tokenId",
          "type": "uint256"
        },
        {
          "internalType": "uint256",
          "name": "_salePrice",
          "type": "uint256"
        }
      ],
      "name": "royaltyInfo",
      "outputs": [
        {
          "internalType": "address",
          "name": "",
          "type": "address"
        },
        {
          "internalType": "uint256",
          "name": "",
          "type": "uint256"
        }
      ],
      "stateMutability": "view",
      "type": "function"
    },
    {
      "inputs": [
        {
          "internalType": "address",
          "name": "to",
          "type": "address"
        },
        {
          "internalType": "string",
          "name": "uri",
          "type": "string"
        }
      ],
      "name": "safeMint",
      "outputs": [],
      "stateMutability": "nonpayable",
      "type": "function"
    },
    {
      "inputs": [
        {
          "internalType": "address",
          "name": "from",
          "type": "address"
        },
        {
          "internalType": "address",
          "name": "to",
          "type": "address"
        },
        {
          "internalType": "uint256",
          "name": "tokenId",
          "type": "uint256"
        }
      ],
      "name": "safeTransferFrom",
      "outputs": [],
      "stateMutability": "nonpayable",
      "type": "function"
    },
    {
      "inputs": [
        {
          "internalType": "address",
          "name": "from",
          "type": "address"
        },
        {
          "internalType": "address",
          "name": "to",
          "type": "address"
        },
        {
          "internalType": "uint256",
          "name": "tokenId",
          "type": "uint256"
        },
        {
          "internalType": "bytes",
          "name": "_data",
          "type": "bytes"
        }
      ],
      "name": "safeTransferFrom",
      "outputs": [],
      "stateMutability": "nonpayable",
      "type": "function"
    },
    {
      "inputs": [
        {
          "internalType": "address",
          "name": "operator",
          "type": "address"
        },
        {
          "internalType": "bool",
          "name": "approved",
          "type": "bool"
        }
      ],
      "name": "setApprovalForAll",
      "outputs": [],
      "stateMutability": "nonpayable",
      "type": "function"
    },
    {
      "inputs": [
        {
          "internalType": "bytes4",
          "name": "interfaceId",
          "type": "bytes4"
        }
      ],
      "name": "supportsInterface",
      "outputs": [
        {
          "internalType": "bool",
          "name": "",
          "type": "bool"
        }
      ],
      "stateMutability": "view",
      "type": "function"
    },
    {
      "inputs": [],
      "name": "symbol",
      "outputs": [
        {
          "internalType": "string",
          "name": "",
          "type": "string"
        }
      ],
      "stateMutability": "view",
      "type": "function"
    },
    {
      "inputs": [
        {
          "internalType": "uint256",
          "name": "index",
          "type": "uint256"
        }
      ],
      "name": "tokenByIndex",
      "outputs": [
        {
          "internalType": "uint256",
          "name": "",
          "type": "uint256"
        }
      ],
      "stateMutability": "view",
      "type": "function"
    },
    {
      "inputs": [
        {
          "internalType": "address",
          "name": "owner",
          "type": "address"
        },
        {
          "internalType": "uint256",
          "name": "index",
          "type": "uint256"
        }
      ],
      "name": "tokenOfOwnerByIndex",
      "outputs": [
        {
          "internalType": "uint256",
          "name": "",
          "type": "uint256"
        }
      ],
      "stateMutability": "view",
      "type": "function"
    },
    {
      "inputs": [
        {
          "internalType": "uint256",
          "name": "tokenId",
          "type": "uint256"
        }
      ],
      "name": "tokenURI",
      "outputs": [
        {
          "internalType": "string",
          "name": "",
          "type": "string"
        }
      ],
      "stateMutability": "view",
      "type": "function"
    },
    {
      "inputs": [
        {
          "internalType": "uint256",
          "name": "",
          "type": "uint256"
        }
      ],
      "name": "tokensOfferedForSale",
      "outputs": [
        {
          "internalType": "bool",
          "name": "isForSale",
          "type": "bool"
        },
        {
          "internalType": "uint256",
          "name": "tokenId",
          "type": "uint256"
        },
        {
          "internalType": "address",
          "name": "seller",
          "type": "address"
        },
        {
          "internalType": "uint256",
          "name": "minValue",
          "type": "uint256"
        }
      ],
      "stateMutability": "view",
      "type": "function"
    },
    {
      "inputs": [],
      "name": "totalSupply",
      "outputs": [
        {
          "internalType": "uint256",
          "name": "",
          "type": "uint256"
        }
      ],
      "stateMutability": "view",
      "type": "function"
    },
    {
      "inputs": [
        {
          "internalType": "address",
          "name": "from",
          "type": "address"
        },
        {
          "internalType": "address",
          "name": "to",
          "type": "address"
        },
        {
          "internalType": "uint256",
          "name": "tokenId",
          "type": "uint256"
        }
      ],
      "name": "transferFrom",
      "outputs": [],
      "stateMutability": "nonpayable",
      "type": "function"
    },
    {
      "inputs": [],
      "name": "withdraw",
      "outputs": [],
      "stateMutability": "nonpayable",
      "type": "function"
    }
  ],
  "bytecode": "0x60806040523480156200001157600080fd5b50604080518082018252600c81526b10985b951a1950985b93919560a21b602080830191825283518085019094526003845262212a2160e91b908401528151919291620000619160029162000191565b5080516200007790600390602084019062000191565b506200008991506000905033620000ec565b620000b57f3c11d16cbaffd01df69ce1c404f6340ee057498f5f00246190ea54220576a84833620000ec565b620000e17f64c822f54690a8774ef976b9a7e80771b0eeffb7d8d6af78555e2903c7c9a56a33620000ec565b6064600e5562000274565b6000828152600d602090815260408083206001600160a01b038516845290915290205460ff166200018d576000828152600d602090815260408083206001600160a01b03851684529091529020805460ff191660011790556200014c3390565b6001600160a01b0316816001600160a01b0316837f2f8788117e7eff1d82e926ec794901d17c78024a50270940304540a733656f0d60405160405180910390a45b5050565b8280546200019f9062000237565b90600052602060002090601f016020900481019282620001c357600085556200020e565b82601f10620001de57805160ff19168380011785556200020e565b828001600101855582156200020e579182015b828111156200020e578251825591602001919060010190620001f1565b506200021c92915062000220565b5090565b5b808211156200021c576000815560010162000221565b600181811c908216806200024c57607f821691505b602082108114156200026e57634e487b7160e01b600052602260045260246000fd5b50919050565b612d3c80620002846000396000f3fe6080604052600436106101f95760003560e01c80636120b3cb1161010d578063b416941a116100a0578063d547741f1161006f578063d547741f1461065a578063d5abeb011461067a578063e30de15e14610690578063e985e9c5146106b0578063f3f43703146106f957600080fd5b8063b416941a146105da578063b88d4fde146105fa578063c87b56dd1461061a578063d204c45e1461063a57600080fd5b806391d14854116100dc57806391d148541461057057806395d89b4114610590578063a217fddf146105a5578063a22cb465146105ba57600080fd5b80636120b3cb146104795780636352211e146104fc5780636c19291f1461051c57806370a082311461055057600080fd5b80632a55205a1161019057806336568abe1161015f57806336568abe146103e45780633ccfd60b1461040457806342842e0e1461041957806342966c68146104395780634f6ccce71461045957600080fd5b80632a55205a146103525780632d296bf1146103915780632f2ff15d146103a45780632f745c59146103c457600080fd5b806318160ddd116101cc57806318160ddd146102af57806323b872dd146102ce578063248a9ca3146102ee578063282c51f31461031e57600080fd5b806301ffc9a7146101fe57806306fdde0314610233578063081812fc14610255578063095ea7b31461028d575b600080fd5b34801561020a57600080fd5b5061021e61021936600461269b565b610726565b60405190151581526020015b60405180910390f35b34801561023f57600080fd5b50610248610737565b60405161022a9190612710565b34801561026157600080fd5b50610275610270366004612723565b6107c9565b6040516001600160a01b03909116815260200161022a565b34801561029957600080fd5b506102ad6102a8366004612758565b610856565b005b3480156102bb57600080fd5b50600a545b60405190815260200161022a565b3480156102da57600080fd5b506102ad6102e9366004612782565b61096c565b3480156102fa57600080fd5b506102c0610309366004612723565b6000908152600d602052604090206001015490565b34801561032a57600080fd5b506102c07f3c11d16cbaffd01df69ce1c404f6340ee057498f5f00246190ea54220576a84881565b34801561035e57600080fd5b5061037261036d3660046127be565b61099d565b604080516001600160a01b03909316835260208301919091520161022a565b6102ad61039f366004612723565b610a49565b3480156103b057600080fd5b506102ad6103bf3660046127e0565b610bd3565b3480156103d057600080fd5b506102c06103df366004612758565b610bf9565b3480156103f057600080fd5b506102ad6103ff3660046127e0565b610c8f565b34801561041057600080fd5b506102ad610d0d565b34801561042557600080fd5b506102ad610434366004612782565b610d4e565b34801561044557600080fd5b506102ad610454366004612723565b610d69565b34801561046557600080fd5b506102c0610474366004612723565b610da8565b34801561048557600080fd5b506104cb610494366004612723565b601260205260009081526040902080546001820154600283015460039093015460ff9092169290916001600160a01b039091169084565b60405161022a9493929190931515845260208401929092526001600160a01b03166040830152606082015260800190565b34801561050857600080fd5b50610275610517366004612723565b610e3b565b34801561052857600080fd5b506102c07f64c822f54690a8774ef976b9a7e80771b0eeffb7d8d6af78555e2903c7c9a56a81565b34801561055c57600080fd5b506102c061056b36600461280c565b610eb2565b34801561057c57600080fd5b5061021e61058b3660046127e0565b610f39565b34801561059c57600080fd5b50610248610f64565b3480156105b157600080fd5b506102c0600081565b3480156105c657600080fd5b506102ad6105d5366004612837565b610f73565b3480156105e657600080fd5b506102ad6105f5366004612861565b610f7e565b34801561060657600080fd5b506102ad610615366004612922565b6110dc565b34801561062657600080fd5b50610248610635366004612723565b611114565b34801561064657600080fd5b506102ad61065536600461299e565b61111f565b34801561066657600080fd5b506102ad6106753660046127e0565b6111b8565b34801561068657600080fd5b506102c0600e5481565b34801561069c57600080fd5b506102ad6106ab366004612723565b6111de565b3480156106bc57600080fd5b5061021e6106cb366004612a00565b6001600160a01b03918216600090815260076020908152604080832093909416825291909152205460ff1690565b34801561070557600080fd5b506102c061071436600461280c565b60136020526000908152604090205481565b600061073182611287565b92915050565b60606002805461074690612a2a565b80601f016020809104026020016040519081016040528092919081815260200182805461077290612a2a565b80156107bf5780601f10610794576101008083540402835291602001916107bf565b820191906000526020600020905b8154815290600101906020018083116107a257829003601f168201915b5050505050905090565b60006107d4826112ac565b61083a5760405162461bcd60e51b815260206004820152602c60248201527f4552433732313a20617070726f76656420717565727920666f72206e6f6e657860448201526b34b9ba32b73a103a37b5b2b760a11b60648201526084015b60405180910390fd5b506000908152600660205260409020546001600160a01b031690565b600061086182610e3b565b9050806001600160a01b0316836001600160a01b031614156108cf5760405162461bcd60e51b815260206004820152602160248201527f4552433732313a20617070726f76616c20746f2063757272656e74206f776e656044820152603960f91b6064820152608401610831565b336001600160a01b03821614806108eb57506108eb81336106cb565b61095d5760405162461bcd60e51b815260206004820152603860248201527f4552433732313a20617070726f76652063616c6c6572206973206e6f74206f7760448201527f6e6572206e6f7220617070726f76656420666f7220616c6c00000000000000006064820152608401610831565b61096783836112c9565b505050565b6109763382611337565b6109925760405162461bcd60e51b815260040161083190612a65565b610967838383611421565b60008281526001602090815260408083208151808301909252546001600160a01b038116808352600160a01b9091046001600160601b0316928201929092528291610a125750604080518082019091526000546001600160a01b0381168252600160a01b90046001600160601b031660208201525b602081015160009061271090610a31906001600160601b031687612acc565b610a3b9190612b01565b915196919550909350505050565b6000818152601260209081526040918290208251608081018452815460ff16151580825260018301549382019390935260028201546001600160a01b031693810193909352600301546060830152610adb5760405162461bcd60e51b8152602060048201526015602482015274746f6b656e206973206e6f7420666f722073616c6560581b6044820152606401610831565b8060600151341015610b2f5760405162461bcd60e51b815260206004820152601a60248201527f496e73756666696369656e7420616d6f756e7420746f207061790000000000006044820152606401610831565b6040810151610b4f813385604051806020016040528060008152506115c8565b6001600160a01b03811660009081526013602052604081208054349290610b77908490612b15565b9091555050604080518481523460208201526001600160a01b038316918101919091523360608201527f1450cfdd78f7dbaf62a4d0cfa9f60d10e2513410d93735fdd463e77c7a827e77906080015b60405180910390a1505050565b6000828152600d6020526040902060010154610bef81336115fb565b610967838361165f565b6000610c0483610eb2565b8210610c665760405162461bcd60e51b815260206004820152602b60248201527f455243373231456e756d657261626c653a206f776e657220696e646578206f7560448201526a74206f6620626f756e647360a81b6064820152608401610831565b506001600160a01b03919091166000908152600860209081526040808320938352929052205490565b6001600160a01b0381163314610cff5760405162461bcd60e51b815260206004820152602f60248201527f416363657373436f6e74726f6c3a2063616e206f6e6c792072656e6f756e636560448201526e103937b632b9903337b91039b2b63360891b6064820152608401610831565b610d0982826116e5565b5050565b3360008181526013602052604080822080549083905590519092916108fc841502918491818181858888f19350505050158015610d09573d6000803e3d6000fd5b610967838383604051806020016040528060008152506110dc565b7f3c11d16cbaffd01df69ce1c404f6340ee057498f5f00246190ea54220576a848610d9481336115fb565b610d9d8261174c565b610967601083611758565b6000610db3600a5490565b8210610e165760405162461bcd60e51b815260206004820152602c60248201527f455243373231456e756d657261626c653a20676c6f62616c20696e646578206f60448201526b7574206f6620626f756e647360a01b6064820152608401610831565b600a8281548110610e2957610e29612b2d565b90600052602060002001549050919050565b6000818152600460205260408120546001600160a01b0316806107315760405162461bcd60e51b815260206004820152602960248201527f4552433732313a206f776e657220717565727920666f72206e6f6e657869737460448201526832b73a103a37b5b2b760b91b6064820152608401610831565b60006001600160a01b038216610f1d5760405162461bcd60e51b815260206004820152602a60248201527f4552433732313a2062616c616e636520717565727920666f7220746865207a65604482015269726f206164647265737360b01b6064820152608401610831565b506001600160a01b031660009081526005602052604090205490565b6000918252600d602090815260408084206001600160a01b0393909316845291905290205460ff1690565b60606003805461074690612a2a565b610d0933838361176b565b610f883384611337565b610fed5760405162461bcd60e51b815260206004820152603060248201527f4254424d61726b6574203a20796f7520646f206e6f742068617665206163636560448201526f39b9903a37903a3434b9903a37b5b2b760811b6064820152608401610831565b6040518060800160405280821515815260200184815260200161100f85610e3b565b6001600160a01b03908116825260209182018590526000868152601283526040908190208451815460ff19169015151781559284015160018401558301516002830180546001600160a01b0319169190921617905560609091015160039091015580156110ac5760408051848152602081018490527f454a59b1e51b1685e697faeca2a404382f4dcb9970aece78299147857e1503939101610bc6565b6040518381527fb2e2b1671ddb8be9692d90ba9912b657e8af4806d4afef5280c3928cd5b213b090602001610bc6565b6110e63383611337565b6111025760405162461bcd60e51b815260040161083190612a65565b61110e848484846115c8565b50505050565b60606107318261183a565b60008061112c60106119a9565b11156111515761113e601060006119b3565b905061114b6010826119bf565b506111a4565b600e54600f54106111975760405162461bcd60e51b815260206004820152601060248201526f1b585e14dd5c1c1b1e48199a5b1b195960821b6044820152606401610831565b50600f8054600181019091555b6111ae83826119cb565b61096781836119e5565b6000828152600d60205260409020600101546111d481336115fb565b61096783836116e5565b7f64c822f54690a8774ef976b9a7e80771b0eeffb7d8d6af78555e2903c7c9a56a61120981336115fb565b600f548210156112815760405162461bcd60e51b815260206004820152603960248201527f42616e54686542616e4e46543a20456e7465722061206e756d6265722067726560448201527f61746572207468616e2063757272656e7420737570706c792e000000000000006064820152608401610831565b50600e55565b60006001600160e01b03198216637965db0b60e01b1480610731575061073182611a70565b6000908152600460205260409020546001600160a01b0316151590565b600081815260066020526040902080546001600160a01b0319166001600160a01b03841690811790915581906112fe82610e3b565b6001600160a01b03167f8c5be1e5ebec7d5bd14f71427d1e84f3dd0314c0f7b2291e5b200ac8c7c3b92560405160405180910390a45050565b6000611342826112ac565b6113a35760405162461bcd60e51b815260206004820152602c60248201527f4552433732313a206f70657261746f7220717565727920666f72206e6f6e657860448201526b34b9ba32b73a103a37b5b2b760a11b6064820152608401610831565b60006113ae83610e3b565b9050806001600160a01b0316846001600160a01b031614806113e95750836001600160a01b03166113de846107c9565b6001600160a01b0316145b8061141957506001600160a01b0380821660009081526007602090815260408083209388168352929052205460ff165b949350505050565b826001600160a01b031661143482610e3b565b6001600160a01b0316146114985760405162461bcd60e51b815260206004820152602560248201527f4552433732313a207472616e736665722066726f6d20696e636f72726563742060448201526437bbb732b960d91b6064820152608401610831565b6001600160a01b0382166114fa5760405162461bcd60e51b8152602060048201526024808201527f4552433732313a207472616e7366657220746f20746865207a65726f206164646044820152637265737360e01b6064820152608401610831565b611505838383611a7b565b6115106000826112c9565b6001600160a01b0383166000908152600560205260408120805460019290611539908490612b43565b90915550506001600160a01b0382166000908152600560205260408120805460019290611567908490612b15565b909155505060008181526004602052604080822080546001600160a01b0319166001600160a01b0386811691821790925591518493918716917fddf252ad1be2c89b69c2b068fc378daa952ba7f163c4a11628f55a4df523b3ef91a4505050565b6115d3848484611421565b6115df84848484611a86565b61110e5760405162461bcd60e51b815260040161083190612b5a565b6116058282610f39565b610d095761161d816001600160a01b03166014611b84565b611628836020611b84565b604051602001611639929190612bac565b60408051601f198184030181529082905262461bcd60e51b825261083191600401612710565b6116698282610f39565b610d09576000828152600d602090815260408083206001600160a01b03851684529091529020805460ff191660011790556116a13390565b6001600160a01b0316816001600160a01b0316837f2f8788117e7eff1d82e926ec794901d17c78024a50270940304540a733656f0d60405160405180910390a45050565b6116ef8282610f39565b15610d09576000828152600d602090815260408083206001600160a01b0385168085529252808320805460ff1916905551339285917ff6391f5c32d9c69d2a47ea670b442974b53935d1edc7fd64eb21e047a839171b9190a45050565b61175581611d20565b50565b60006117648383611d3a565b9392505050565b816001600160a01b0316836001600160a01b031614156117cd5760405162461bcd60e51b815260206004820152601960248201527f4552433732313a20617070726f766520746f2063616c6c6572000000000000006044820152606401610831565b6001600160a01b03838116600081815260076020908152604080832094871680845294825291829020805460ff191686151590811790915591519182527f17307eab39ab6107e8899845ad3d59bd9653f200f220920489ca2b5937696c31910160405180910390a3505050565b6060611845826112ac565b6118ab5760405162461bcd60e51b815260206004820152603160248201527f45524337323155524953746f726167653a2055524920717565727920666f72206044820152703737b732bc34b9ba32b73a103a37b5b2b760791b6064820152608401610831565b6000828152600c6020526040812080546118c490612a2a565b80601f01602080910402602001604051908101604052809291908181526020018280546118f090612a2a565b801561193d5780601f106119125761010080835404028352916020019161193d565b820191906000526020600020905b81548152906001019060200180831161192057829003601f168201915b50505050509050600061195b60408051602081019091526000815290565b905080516000141561196e575092915050565b8151156119a0578082604051602001611988929190612c21565b60405160208183030381529060405292505050919050565b61141984611d89565b6000610731825490565b60006117648383611e60565b60006117648383611e8a565b610d09828260405180602001604052806000815250611f7d565b6119ee826112ac565b611a515760405162461bcd60e51b815260206004820152602e60248201527f45524337323155524953746f726167653a2055524920736574206f66206e6f6e60448201526d32bc34b9ba32b73a103a37b5b2b760911b6064820152608401610831565b6000828152600c602090815260409091208251610967928401906125b6565b600061073182611fb0565b610967838383611fd5565b60006001600160a01b0384163b15611b7957604051630a85bd0160e11b81526001600160a01b0385169063150b7a0290611aca903390899088908890600401612c50565b6020604051808303816000875af1925050508015611b05575060408051601f3d908101601f19168201909252611b0291810190612c8d565b60015b611b5f573d808015611b33576040519150601f19603f3d011682016040523d82523d6000602084013e611b38565b606091505b508051611b575760405162461bcd60e51b815260040161083190612b5a565b805181602001fd5b6001600160e01b031916630a85bd0160e11b149050611419565b506001949350505050565b60606000611b93836002612acc565b611b9e906002612b15565b67ffffffffffffffff811115611bb657611bb6612896565b6040519080825280601f01601f191660200182016040528015611be0576020820181803683370190505b509050600360fc1b81600081518110611bfb57611bfb612b2d565b60200101906001600160f81b031916908160001a905350600f60fb1b81600181518110611c2a57611c2a612b2d565b60200101906001600160f81b031916908160001a9053506000611c4e846002612acc565b611c59906001612b15565b90505b6001811115611cd1576f181899199a1a9b1b9c1cb0b131b232b360811b85600f1660108110611c8d57611c8d612b2d565b1a60f81b828281518110611ca357611ca3612b2d565b60200101906001600160f81b031916908160001a90535060049490941c93611cca81612caa565b9050611c5c565b5083156117645760405162461bcd60e51b815260206004820181905260248201527f537472696e67733a20686578206c656e67746820696e73756666696369656e746044820152606401610831565b611d298161208d565b600090815260016020526040812055565b6000818152600183016020526040812054611d8157508154600181810184556000848152602080822090930184905584548482528286019093526040902091909155610731565b506000610731565b6060611d94826112ac565b611df85760405162461bcd60e51b815260206004820152602f60248201527f4552433732314d657461646174613a2055524920717565727920666f72206e6f60448201526e3732bc34b9ba32b73a103a37b5b2b760891b6064820152608401610831565b6000611e0f60408051602081019091526000815290565b90506000815111611e2f5760405180602001604052806000815250611764565b80611e39846120cd565b604051602001611e4a929190612c21565b6040516020818303038152906040529392505050565b6000826000018281548110611e7757611e77612b2d565b9060005260206000200154905092915050565b60008181526001830160205260408120548015611f73576000611eae600183612b43565b8554909150600090611ec290600190612b43565b9050818114611f27576000866000018281548110611ee257611ee2612b2d565b9060005260206000200154905080876000018481548110611f0557611f05612b2d565b6000918252602080832090910192909255918252600188019052604090208390555b8554869080611f3857611f38612cc1565b600190038181906000526020600020016000905590558560010160008681526020019081526020016000206000905560019350505050610731565b6000915050610731565b611f8783836121cb565b611f946000848484611a86565b6109675760405162461bcd60e51b815260040161083190612b5a565b60006001600160e01b0319821663780e9d6360e01b148061073157506107318261230a565b6001600160a01b0383166120305761202b81600a80546000838152600b60205260408120829055600182018355919091527fc65a7bb8d6351c1cf70c95a316cc6a92839c986682d98bc35f958f4883f9d2a80155565b612053565b816001600160a01b0316836001600160a01b03161461205357612053838261234a565b6001600160a01b03821661206a57610967816123e7565b826001600160a01b0316826001600160a01b031614610967576109678282612496565b612096816124da565b6000818152600c6020526040902080546120af90612a2a565b159050611755576000818152600c602052604081206117559161263a565b6060816120f15750506040805180820190915260018152600360fc1b602082015290565b8160005b811561211b578061210581612cd7565b91506121149050600a83612b01565b91506120f5565b60008167ffffffffffffffff81111561213657612136612896565b6040519080825280601f01601f191660200182016040528015612160576020820181803683370190505b5090505b841561141957612175600183612b43565b9150612182600a86612cf2565b61218d906030612b15565b60f81b8183815181106121a2576121a2612b2d565b60200101906001600160f81b031916908160001a9053506121c4600a86612b01565b9450612164565b6001600160a01b0382166122215760405162461bcd60e51b815260206004820181905260248201527f4552433732313a206d696e7420746f20746865207a65726f20616464726573736044820152606401610831565b61222a816112ac565b156122775760405162461bcd60e51b815260206004820152601c60248201527f4552433732313a20746f6b656e20616c7265616479206d696e746564000000006044820152606401610831565b61228360008383611a7b565b6001600160a01b03821660009081526005602052604081208054600192906122ac908490612b15565b909155505060008181526004602052604080822080546001600160a01b0319166001600160a01b03861690811790915590518392907fddf252ad1be2c89b69c2b068fc378daa952ba7f163c4a11628f55a4df523b3ef908290a45050565b60006001600160e01b031982166380ac58cd60e01b148061233b57506001600160e01b03198216635b5e139f60e01b145b80610731575061073182612581565b6000600161235784610eb2565b6123619190612b43565b6000838152600960205260409020549091508082146123b4576001600160a01b03841660009081526008602090815260408083208584528252808320548484528184208190558352600990915290208190555b5060009182526009602090815260408084208490556001600160a01b039094168352600881528383209183525290812055565b600a546000906123f990600190612b43565b6000838152600b6020526040812054600a805493945090928490811061242157612421612b2d565b9060005260206000200154905080600a838154811061244257612442612b2d565b6000918252602080832090910192909255828152600b9091526040808220849055858252812055600a80548061247a5761247a612cc1565b6001900381819060005260206000200160009055905550505050565b60006124a183610eb2565b6001600160a01b039093166000908152600860209081526040808320868452825280832085905593825260099052919091209190915550565b60006124e582610e3b565b90506124f381600084611a7b565b6124fe6000836112c9565b6001600160a01b0381166000908152600560205260408120805460019290612527908490612b43565b909155505060008281526004602052604080822080546001600160a01b0319169055518391906001600160a01b038416907fddf252ad1be2c89b69c2b068fc378daa952ba7f163c4a11628f55a4df523b3ef908390a45050565b60006001600160e01b0319821663152a902d60e11b148061073157506301ffc9a760e01b6001600160e01b0319831614610731565b8280546125c290612a2a565b90600052602060002090601f0160209004810192826125e4576000855561262a565b82601f106125fd57805160ff191683800117855561262a565b8280016001018555821561262a579182015b8281111561262a57825182559160200191906001019061260f565b50612636929150612670565b5090565b50805461264690612a2a565b6000825580601f10612656575050565b601f01602090049060005260206000209081019061175591905b5b808211156126365760008155600101612671565b6001600160e01b03198116811461175557600080fd5b6000602082840312156126ad57600080fd5b813561176481612685565b60005b838110156126d35781810151838201526020016126bb565b8381111561110e5750506000910152565b600081518084526126fc8160208601602086016126b8565b601f01601f19169290920160200192915050565b60208152600061176460208301846126e4565b60006020828403121561273557600080fd5b5035919050565b80356001600160a01b038116811461275357600080fd5b919050565b6000806040838503121561276b57600080fd5b6127748361273c565b946020939093013593505050565b60008060006060848603121561279757600080fd5b6127a08461273c565b92506127ae6020850161273c565b9150604084013590509250925092565b600080604083850312156127d157600080fd5b50508035926020909101359150565b600080604083850312156127f357600080fd5b823591506128036020840161273c565b90509250929050565b60006020828403121561281e57600080fd5b6117648261273c565b8035801515811461275357600080fd5b6000806040838503121561284a57600080fd5b6128538361273c565b915061280360208401612827565b60008060006060848603121561287657600080fd5b833592506020840135915061288d60408501612827565b90509250925092565b634e487b7160e01b600052604160045260246000fd5b600067ffffffffffffffff808411156128c7576128c7612896565b604051601f8501601f19908116603f011681019082821181831017156128ef576128ef612896565b8160405280935085815286868601111561290857600080fd5b858560208301376000602087830101525050509392505050565b6000806000806080858703121561293857600080fd5b6129418561273c565b935061294f6020860161273c565b925060408501359150606085013567ffffffffffffffff81111561297257600080fd5b8501601f8101871361298357600080fd5b612992878235602084016128ac565b91505092959194509250565b600080604083850312156129b157600080fd5b6129ba8361273c565b9150602083013567ffffffffffffffff8111156129d657600080fd5b8301601f810185136129e757600080fd5b6129f6858235602084016128ac565b9150509250929050565b60008060408385031215612a1357600080fd5b612a1c8361273c565b91506128036020840161273c565b600181811c90821680612a3e57607f821691505b60208210811415612a5f57634e487b7160e01b600052602260045260246000fd5b50919050565b60208082526031908201527f4552433732313a207472616e736665722063616c6c6572206973206e6f74206f6040820152701ddb995c881b9bdc88185c1c1c9bdd9959607a1b606082015260800190565b634e487b7160e01b600052601160045260246000fd5b6000816000190483118215151615612ae657612ae6612ab6565b500290565b634e487b7160e01b600052601260045260246000fd5b600082612b1057612b10612aeb565b500490565b60008219821115612b2857612b28612ab6565b500190565b634e487b7160e01b600052603260045260246000fd5b600082821015612b5557612b55612ab6565b500390565b60208082526032908201527f4552433732313a207472616e7366657220746f206e6f6e20455243373231526560408201527131b2b4bb32b91034b6b83632b6b2b73a32b960711b606082015260800190565b7f416363657373436f6e74726f6c3a206163636f756e7420000000000000000000815260008351612be48160178501602088016126b8565b7001034b99036b4b9b9b4b733903937b6329607d1b6017918401918201528351612c158160288401602088016126b8565b01602801949350505050565b60008351612c338184602088016126b8565b835190830190612c478183602088016126b8565b01949350505050565b6001600160a01b0385811682528416602082015260408101839052608060608201819052600090612c83908301846126e4565b9695505050505050565b600060208284031215612c9f57600080fd5b815161176481612685565b600081612cb957612cb9612ab6565b506000190190565b634e487b7160e01b600052603160045260246000fd5b6000600019821415612ceb57612ceb612ab6565b5060010190565b600082612d0157612d01612aeb565b50069056fea2646970667358221220590f6a46352d7ae684f4af8f5569ccaa2332e4c0bf3d24057301b5881f65de0064736f6c634300080c0033",
  "linkReferences": {},
  "deployedLinkReferences": {}
}