{
  "_format": "hh-sol-artifact-1",
  "contractName": "BTBMarket",
  "sourceName": "contracts/BTBMarket.sol",
  "abi": [
    {
      "anonymous": false,
      "inputs": [
        {
          "indexed": true,
          "internalType": "address",
          "name": "owner",
          "type": "address"
        },
        {
          "indexed": true,
          "internalType": "address",
          "name": "approved",
          "type": "address"
        },
        {
          "indexed": true,
          "internalType": "uint256",
          "name": "tokenId",
          "type": "uint256"
        }
      ],
      "name": "Approval",
      "type": "event"
    },
    {
      "anonymous": false,
      "inputs": [
        {
          "indexed": true,
          "internalType": "address",
          "name": "owner",
          "type": "address"
        },
        {
          "indexed": true,
          "internalType": "address",
          "name": "operator",
          "type": "address"
        },
        {
          "indexed": false,
          "internalType": "bool",
          "name": "approved",
          "type": "bool"
        }
      ],
      "name": "ApprovalForAll",
      "type": "event"
    },
    {
      "anonymous": false,
      "inputs": [
        {
          "indexed": false,
          "internalType": "uint256",
          "name": "tokenId",
          "type": "uint256"
        },
        {
          "indexed": false,
          "internalType": "uint256",
          "name": "minValue",
          "type": "uint256"
        }
      ],
      "name": "ForSale",
      "type": "event"
    },
    {
      "anonymous": false,
      "inputs": [
        {
          "indexed": true,
          "internalType": "bytes32",
          "name": "role",
          "type": "bytes32"
        },
        {
          "indexed": true,
          "internalType": "bytes32",
          "name": "previousAdminRole",
          "type": "bytes32"
        },
        {
          "indexed": true,
          "internalType": "bytes32",
          "name": "newAdminRole",
          "type": "bytes32"
        }
      ],
      "name": "RoleAdminChanged",
      "type": "event"
    },
    {
      "anonymous": false,
      "inputs": [
        {
          "indexed": true,
          "internalType": "bytes32",
          "name": "role",
          "type": "bytes32"
        },
        {
          "indexed": true,
          "internalType": "address",
          "name": "account",
          "type": "address"
        },
        {
          "indexed": true,
          "internalType": "address",
          "name": "sender",
          "type": "address"
        }
      ],
      "name": "RoleGranted",
      "type": "event"
    },
    {
      "anonymous": false,
      "inputs": [
        {
          "indexed": true,
          "internalType": "bytes32",
          "name": "role",
          "type": "bytes32"
        },
        {
          "indexed": true,
          "internalType": "address",
          "name": "account",
          "type": "address"
        },
        {
          "indexed": true,
          "internalType": "address",
          "name": "sender",
          "type": "address"
        }
      ],
      "name": "RoleRevoked",
      "type": "event"
    },
    {
      "anonymous": false,
      "inputs": [
        {
          "indexed": true,
          "internalType": "address",
          "name": "from",
          "type": "address"
        },
        {
          "indexed": true,
          "internalType": "address",
          "name": "to",
          "type": "address"
        },
        {
          "indexed": true,
          "internalType": "uint256",
          "name": "tokenId",
          "type": "uint256"
        }
      ],
      "name": "Transfer",
      "type": "event"
    },
    {
      "anonymous": false,
      "inputs": [
        {
          "indexed": false,
          "internalType": "uint256",
          "name": "tokenId",
          "type": "uint256"
        },
        {
          "indexed": false,
          "internalType": "uint256",
          "name": "value",
          "type": "uint256"
        },
        {
          "indexed": false,
          "internalType": "address",
          "name": "from",
          "type": "address"
        },
        {
          "indexed": false,
          "internalType": "address",
          "name": "to",
          "type": "address"
        }
      ],
      "name": "bought",
      "type": "event"
    },
    {
      "anonymous": false,
      "inputs": [
        {
          "indexed": false,
          "internalType": "uint256",
          "name": "tokenId",
          "type": "uint256"
        }
      ],
      "name": "noLongerForSale",
      "type": "event"
    },
    {
      "inputs": [],
      "name": "BURNER_ROLE",
      "outputs": [
        {
          "internalType": "bytes32",
          "name": "",
          "type": "bytes32"
        }
      ],
      "stateMutability": "view",
      "type": "function"
    },
    {
      "inputs": [],
      "name": "DEFAULT_ADMIN_ROLE",
      "outputs": [
        {
          "internalType": "bytes32",
          "name": "",
          "type": "bytes32"
        }
      ],
      "stateMutability": "view",
      "type": "function"
    },
    {
      "inputs": [],
      "name": "SUPPLY_ACCESS",
      "outputs": [
        {
          "internalType": "bytes32",
          "name": "",
          "type": "bytes32"
        }
      ],
      "stateMutability": "view",
      "type": "function"
    },
    {
      "inputs": [
        {
          "internalType": "uint256",
          "name": "_maxSupply",
          "type": "uint256"
        }
      ],
      "name": "adjustMaxSupply",
      "outputs": [],
      "stateMutability": "nonpayable",
      "type": "function"
    },
    {
      "inputs": [
        {
          "internalType": "address",
          "name": "to",
          "type": "address"
        },
        {
          "internalType": "uint256",
          "name": "tokenId",
          "type": "uint256"
        }
      ],
      "name": "approve",
      "outputs": [],
      "stateMutability": "nonpayable",
      "type": "function"
    },
    {
      "inputs": [
        {
          "internalType": "address",
          "name": "owner",
          "type": "address"
        }
      ],
      "name": "balanceOf",
      "outputs": [
        {
          "internalType": "uint256",
          "name": "",
          "type": "uint256"
        }
      ],
      "stateMutability": "view",
      "type": "function"
    },
    {
      "inputs": [
        {
          "internalType": "uint256",
          "name": "tokenId",
          "type": "uint256"
        }
      ],
      "name": "burn",
      "outputs": [],
      "stateMutability": "nonpayable",
      "type": "function"
    },
    {
      "inputs": [
        {
          "internalType": "uint256",
          "name": "tokenId",
          "type": "uint256"
        }
      ],
      "name": "buyToken",
      "outputs": [],
      "stateMutability": "payable",
      "type": "function"
    },
    {
      "inputs": [
        {
          "internalType": "uint256",
          "name": "tokenId",
          "type": "uint256"
        }
      ],
      "name": "getApproved",
      "outputs": [
        {
          "internalType": "address",
          "name": "",
          "type": "address"
        }
      ],
      "stateMutability": "view",
      "type": "function"
    },
    {
      "inputs": [
        {
          "internalType": "bytes32",
          "name": "role",
          "type": "bytes32"
        }
      ],
      "name": "getRoleAdmin",
      "outputs": [
        {
          "internalType": "bytes32",
          "name": "",
          "type": "bytes32"
        }
      ],
      "stateMutability": "view",
      "type": "function"
    },
    {
      "inputs": [
        {
          "internalType": "bytes32",
          "name": "role",
          "type": "bytes32"
        },
        {
          "internalType": "address",
          "name": "account",
          "type": "address"
        }
      ],
      "name": "grantRole",
      "outputs": [],
      "stateMutability": "nonpayable",
      "type": "function"
    },
    {
      "inputs": [
        {
          "internalType": "bytes32",
          "name": "role",
          "type": "bytes32"
        },
        {
          "internalType": "address",
          "name": "account",
          "type": "address"
        }
      ],
      "name": "hasRole",
      "outputs": [
        {
          "internalType": "bool",
          "name": "",
          "type": "bool"
        }
      ],
      "stateMutability": "view",
      "type": "function"
    },
    {
      "inputs": [
        {
          "internalType": "address",
          "name": "owner",
          "type": "address"
        },
        {
          "internalType": "address",
          "name": "operator",
          "type": "address"
        }
      ],
      "name": "isApprovedForAll",
      "outputs": [
        {
          "internalType": "bool",
          "name": "",
          "type": "bool"
        }
      ],
      "stateMutability": "view",
      "type": "function"
    },
    {
      "inputs": [],
      "name": "maxSupply",
      "outputs": [
        {
          "internalType": "uint256",
          "name": "",
          "type": "uint256"
        }
      ],
      "stateMutability": "view",
      "type": "function"
    },
    {
      "inputs": [],
      "name": "name",
      "outputs": [
        {
          "internalType": "string",
          "name": "",
          "type": "string"
        }
      ],
      "stateMutability": "view",
      "type": "function"
    },
    {
      "inputs": [
        {
          "internalType": "uint256",
          "name": "tokenId",
          "type": "uint256"
        },
        {
          "internalType": "uint256",
          "name": "minSalePriceInWei",
          "type": "uint256"
        },
        {
          "internalType": "bool",
          "name": "isForSale",
          "type": "bool"
        }
      ],
      "name": "offerToken",
      "outputs": [],
      "stateMutability": "nonpayable",
      "type": "function"
    },
    {
      "inputs": [
        {
          "internalType": "uint256",
          "name": "tokenId",
          "type": "uint256"
        }
      ],
      "name": "ownerOf",
      "outputs": [
        {
          "internalType": "address",
          "name": "",
          "type": "address"
        }
      ],
      "stateMutability": "view",
      "type": "function"
    },
    {
      "inputs": [
        {
          "internalType": "address",
          "name": "",
          "type": "address"
        }
      ],
      "name": "pendingWithdrawals",
      "outputs": [
        {
          "internalType": "uint256",
          "name": "",
          "type": "uint256"
        }
      ],
      "stateMutability": "view",
      "type": "function"
    },
    {
      "inputs": [
        {
          "internalType": "bytes32",
          "name": "role",
          "type": "bytes32"
        },
        {
          "internalType": "address",
          "name": "account",
          "type": "address"
        }
      ],
      "name": "renounceRole",
      "outputs": [],
      "stateMutability": "nonpayable",
      "type": "function"
    },
    {
      "inputs": [
        {
          "internalType": "bytes32",
          "name": "role",
          "type": "bytes32"
        },
        {
          "internalType": "address",
          "name": "account",
          "type": "address"
        }
      ],
      "name": "revokeRole",
      "outputs": [],
      "stateMutability": "nonpayable",
      "type": "function"
    },
    {
      "inputs": [
        {
          "internalType": "uint256",
          "name": "_tokenId",
          "type": "uint256"
        },
        {
          "internalType": "uint256",
          "name": "_salePrice",
          "type": "uint256"
        }
      ],
      "name": "royaltyInfo",
      "outputs": [
        {
          "internalType": "address",
          "name": "",
          "type": "address"
        },
        {
          "internalType": "uint256",
          "name": "",
          "type": "uint256"
        }
      ],
      "stateMutability": "view",
      "type": "function"
    },
    {
      "inputs": [
        {
          "internalType": "address",
          "name": "to",
          "type": "address"
        },
        {
          "internalType": "string",
          "name": "uri",
          "type": "string"
        }
      ],
      "name": "safeMint",
      "outputs": [],
      "stateMutability": "nonpayable",
      "type": "function"
    },
    {
      "inputs": [
        {
          "internalType": "address",
          "name": "from",
          "type": "address"
        },
        {
          "internalType": "address",
          "name": "to",
          "type": "address"
        },
        {
          "internalType": "uint256",
          "name": "tokenId",
          "type": "uint256"
        }
      ],
      "name": "safeTransferFrom",
      "outputs": [],
      "stateMutability": "nonpayable",
      "type": "function"
    },
    {
      "inputs": [
        {
          "internalType": "address",
          "name": "from",
          "type": "address"
        },
        {
          "internalType": "address",
          "name": "to",
          "type": "address"
        },
        {
          "internalType": "uint256",
          "name": "tokenId",
          "type": "uint256"
        },
        {
          "internalType": "bytes",
          "name": "_data",
          "type": "bytes"
        }
      ],
      "name": "safeTransferFrom",
      "outputs": [],
      "stateMutability": "nonpayable",
      "type": "function"
    },
    {
      "inputs": [
        {
          "internalType": "address",
          "name": "operator",
          "type": "address"
        },
        {
          "internalType": "bool",
          "name": "approved",
          "type": "bool"
        }
      ],
      "name": "setApprovalForAll",
      "outputs": [],
      "stateMutability": "nonpayable",
      "type": "function"
    },
    {
      "inputs": [
        {
          "internalType": "bytes4",
          "name": "interfaceId",
          "type": "bytes4"
        }
      ],
      "name": "supportsInterface",
      "outputs": [
        {
          "internalType": "bool",
          "name": "",
          "type": "bool"
        }
      ],
      "stateMutability": "view",
      "type": "function"
    },
    {
      "inputs": [],
      "name": "symbol",
      "outputs": [
        {
          "internalType": "string",
          "name": "",
          "type": "string"
        }
      ],
      "stateMutability": "view",
      "type": "function"
    },
    {
      "inputs": [
        {
          "internalType": "uint256",
          "name": "index",
          "type": "uint256"
        }
      ],
      "name": "tokenByIndex",
      "outputs": [
        {
          "internalType": "uint256",
          "name": "",
          "type": "uint256"
        }
      ],
      "stateMutability": "view",
      "type": "function"
    },
    {
      "inputs": [
        {
          "internalType": "address",
          "name": "owner",
          "type": "address"
        },
        {
          "internalType": "uint256",
          "name": "index",
          "type": "uint256"
        }
      ],
      "name": "tokenOfOwnerByIndex",
      "outputs": [
        {
          "internalType": "uint256",
          "name": "",
          "type": "uint256"
        }
      ],
      "stateMutability": "view",
      "type": "function"
    },
    {
      "inputs": [
        {
          "internalType": "uint256",
          "name": "tokenId",
          "type": "uint256"
        }
      ],
      "name": "tokenURI",
      "outputs": [
        {
          "internalType": "string",
          "name": "",
          "type": "string"
        }
      ],
      "stateMutability": "view",
      "type": "function"
    },
    {
      "inputs": [
        {
          "internalType": "uint256",
          "name": "",
          "type": "uint256"
        }
      ],
      "name": "tokensOfferedForSale",
      "outputs": [
        {
          "internalType": "bool",
          "name": "isForSale",
          "type": "bool"
        },
        {
          "internalType": "uint256",
          "name": "tokenId",
          "type": "uint256"
        },
        {
          "internalType": "address",
          "name": "seller",
          "type": "address"
        },
        {
          "internalType": "uint256",
          "name": "minValue",
          "type": "uint256"
        }
      ],
      "stateMutability": "view",
      "type": "function"
    },
    {
      "inputs": [],
      "name": "totalSupply",
      "outputs": [
        {
          "internalType": "uint256",
          "name": "",
          "type": "uint256"
        }
      ],
      "stateMutability": "view",
      "type": "function"
    },
    {
      "inputs": [
        {
          "internalType": "address",
          "name": "from",
          "type": "address"
        },
        {
          "internalType": "address",
          "name": "to",
          "type": "address"
        },
        {
          "internalType": "uint256",
          "name": "tokenId",
          "type": "uint256"
        }
      ],
      "name": "transferFrom",
      "outputs": [],
      "stateMutability": "nonpayable",
      "type": "function"
    },
    {
      "inputs": [],
      "name": "withdraw",
      "outputs": [],
      "stateMutability": "nonpayable",
      "type": "function"
    }
  ],
  "bytecode": "0x60806040523480156200001157600080fd5b506040518060400160405280600c81526020017f42616e54686542616e4e465400000000000000000000000000000000000000008152506040518060400160405280600381526020017f42544200000000000000000000000000000000000000000000000000000000008152508160029080519060200190620000969291906200029e565b508060039080519060200190620000af9291906200029e565b505050620000c76000801b336200013960201b60201c565b620000f97f3c11d16cbaffd01df69ce1c404f6340ee057498f5f00246190ea54220576a848336200013960201b60201c565b6200012b7f64c822f54690a8774ef976b9a7e80771b0eeffb7d8d6af78555e2903c7c9a56a336200013960201b60201c565b6064600e81905550620003b3565b6200014b82826200022b60201b60201c565b62000227576001600d600084815260200190815260200160002060000160008373ffffffffffffffffffffffffffffffffffffffff1673ffffffffffffffffffffffffffffffffffffffff16815260200190815260200160002060006101000a81548160ff021916908315150217905550620001cc6200029660201b60201c565b73ffffffffffffffffffffffffffffffffffffffff168173ffffffffffffffffffffffffffffffffffffffff16837f2f8788117e7eff1d82e926ec794901d17c78024a50270940304540a733656f0d60405160405180910390a45b5050565b6000600d600084815260200190815260200160002060000160008373ffffffffffffffffffffffffffffffffffffffff1673ffffffffffffffffffffffffffffffffffffffff16815260200190815260200160002060009054906101000a900460ff16905092915050565b600033905090565b828054620002ac906200037d565b90600052602060002090601f016020900481019282620002d057600085556200031c565b82601f10620002eb57805160ff19168380011785556200031c565b828001600101855582156200031c579182015b828111156200031b578251825591602001919060010190620002fe565b5b5090506200032b91906200032f565b5090565b5b808211156200034a57600081600090555060010162000330565b5090565b7f4e487b7100000000000000000000000000000000000000000000000000000000600052602260045260246000fd5b600060028204905060018216806200039657607f821691505b60208210811415620003ad57620003ac6200034e565b5b50919050565b6153ee80620003c36000396000f3fe6080604052600436106101f95760003560e01c80636120b3cb1161010d578063b416941a116100a0578063d547741f1161006f578063d547741f14610770578063d5abeb0114610799578063e30de15e146107c4578063e985e9c5146107ed578063f3f437031461082a576101f9565b8063b416941a146106b8578063b88d4fde146106e1578063c87b56dd1461070a578063d204c45e14610747576101f9565b806391d14854116100dc57806391d14854146105fc57806395d89b4114610639578063a217fddf14610664578063a22cb4651461068f576101f9565b80636120b3cb146105175780636352211e146105575780636c19291f1461059457806370a08231146105bf576101f9565b80632a55205a1161019057806336568abe1161015f57806336568abe146104485780633ccfd60b1461047157806342842e0e1461048857806342966c68146104b15780634f6ccce7146104da576101f9565b80632a55205a146103885780632d296bf1146103c65780632f2ff15d146103e25780632f745c591461040b576101f9565b806318160ddd116101cc57806318160ddd146102cc57806323b872dd146102f7578063248a9ca314610320578063282c51f31461035d576101f9565b806301ffc9a7146101fe57806306fdde031461023b578063081812fc14610266578063095ea7b3146102a3575b600080fd5b34801561020a57600080fd5b5061022560048036038101906102209190613905565b610867565b604051610232919061394d565b60405180910390f35b34801561024757600080fd5b50610250610879565b60405161025d9190613a01565b60405180910390f35b34801561027257600080fd5b5061028d60048036038101906102889190613a59565b61090b565b60405161029a9190613ac7565b60405180910390f35b3480156102af57600080fd5b506102ca60048036038101906102c59190613b0e565b610990565b005b3480156102d857600080fd5b506102e1610aa8565b6040516102ee9190613b5d565b60405180910390f35b34801561030357600080fd5b5061031e60048036038101906103199190613b78565b610ab5565b005b34801561032c57600080fd5b5061034760048036038101906103429190613c01565b610b15565b6040516103549190613c3d565b60405180910390f35b34801561036957600080fd5b50610372610b35565b60405161037f9190613c3d565b60405180910390f35b34801561039457600080fd5b506103af60048036038101906103aa9190613c58565b610b59565b6040516103bd929190613c98565b60405180910390f35b6103e060048036038101906103db9190613a59565b610d44565b005b3480156103ee57600080fd5b5061040960048036038101906104049190613cc1565b610f40565b005b34801561041757600080fd5b50610432600480360381019061042d9190613b0e565b610f69565b60405161043f9190613b5d565b60405180910390f35b34801561045457600080fd5b5061046f600480360381019061046a9190613cc1565b61100e565b005b34801561047d57600080fd5b50610486611091565b005b34801561049457600080fd5b506104af60048036038101906104aa9190613b78565b611172565b005b3480156104bd57600080fd5b506104d860048036038101906104d39190613a59565b611192565b005b3480156104e657600080fd5b5061050160048036038101906104fc9190613a59565b6111e6565b60405161050e9190613b5d565b60405180910390f35b34801561052357600080fd5b5061053e60048036038101906105399190613a59565b611257565b60405161054e9493929190613d01565b60405180910390f35b34801561056357600080fd5b5061057e60048036038101906105799190613a59565b6112b4565b60405161058b9190613ac7565b60405180910390f35b3480156105a057600080fd5b506105a9611366565b6040516105b69190613c3d565b60405180910390f35b3480156105cb57600080fd5b506105e660048036038101906105e19190613d46565b61138a565b6040516105f39190613b5d565b60405180910390f35b34801561060857600080fd5b50610623600480360381019061061e9190613cc1565b611442565b604051610630919061394d565b60405180910390f35b34801561064557600080fd5b5061064e6114ad565b60405161065b9190613a01565b60405180910390f35b34801561067057600080fd5b5061067961153f565b6040516106869190613c3d565b60405180910390f35b34801561069b57600080fd5b506106b660048036038101906106b19190613d9f565b611546565b005b3480156106c457600080fd5b506106df60048036038101906106da9190613ddf565b61155c565b005b3480156106ed57600080fd5b5061070860048036038101906107039190613f67565b6116ff565b005b34801561071657600080fd5b50610731600480360381019061072c9190613a59565b611761565b60405161073e9190613a01565b60405180910390f35b34801561075357600080fd5b5061076e6004803603810190610769919061408b565b611773565b005b34801561077c57600080fd5b5061079760048036038101906107929190613cc1565b611834565b005b3480156107a557600080fd5b506107ae61185d565b6040516107bb9190613b5d565b60405180910390f35b3480156107d057600080fd5b506107eb60048036038101906107e69190613a59565b611863565b005b3480156107f957600080fd5b50610814600480360381019061080f91906140e7565b6118ec565b604051610821919061394d565b60405180910390f35b34801561083657600080fd5b50610851600480360381019061084c9190613d46565b611980565b60405161085e9190613b5d565b60405180910390f35b600061087282611998565b9050919050565b60606002805461088890614156565b80601f01602080910402602001604051908101604052809291908181526020018280546108b490614156565b80156109015780601f106108d657610100808354040283529160200191610901565b820191906000526020600020905b8154815290600101906020018083116108e457829003601f168201915b5050505050905090565b600061091682611a12565b610955576040517f08c379a000000000000000000000000000000000000000000000000000000000815260040161094c906141fa565b60405180910390fd5b6006600083815260200190815260200160002060009054906101000a900473ffffffffffffffffffffffffffffffffffffffff169050919050565b600061099b826112b4565b90508073ffffffffffffffffffffffffffffffffffffffff168373ffffffffffffffffffffffffffffffffffffffff161415610a0c576040517f08c379a0000000000000000000000000000000000000000000000000000000008152600401610a039061428c565b60405180910390fd5b8073ffffffffffffffffffffffffffffffffffffffff16610a2b611a7e565b73ffffffffffffffffffffffffffffffffffffffff161480610a5a5750610a5981610a54611a7e565b6118ec565b5b610a99576040517f08c379a0000000000000000000000000000000000000000000000000000000008152600401610a909061431e565b60405180910390fd5b610aa38383611a86565b505050565b6000600a80549050905090565b610ac6610ac0611a7e565b82611b3f565b610b05576040517f08c379a0000000000000000000000000000000000000000000000000000000008152600401610afc906143b0565b60405180910390fd5b610b10838383611c1d565b505050565b6000600d6000838152602001908152602001600020600101549050919050565b7f3c11d16cbaffd01df69ce1c404f6340ee057498f5f00246190ea54220576a84881565b6000806000600160008681526020019081526020016000206040518060400160405290816000820160009054906101000a900473ffffffffffffffffffffffffffffffffffffffff1673ffffffffffffffffffffffffffffffffffffffff1673ffffffffffffffffffffffffffffffffffffffff1681526020016000820160149054906101000a90046bffffffffffffffffffffffff166bffffffffffffffffffffffff166bffffffffffffffffffffffff16815250509050600073ffffffffffffffffffffffffffffffffffffffff16816000015173ffffffffffffffffffffffffffffffffffffffff161415610cef5760006040518060400160405290816000820160009054906101000a900473ffffffffffffffffffffffffffffffffffffffff1673ffffffffffffffffffffffffffffffffffffffff1673ffffffffffffffffffffffffffffffffffffffff1681526020016000820160149054906101000a90046bffffffffffffffffffffffff166bffffffffffffffffffffffff166bffffffffffffffffffffffff168152505090505b6000610cf9611e84565b6bffffffffffffffffffffffff1682602001516bffffffffffffffffffffffff1686610d2591906143ff565b610d2f9190614488565b90508160000151819350935050509250929050565b6000601260008381526020019081526020016000206040518060800160405290816000820160009054906101000a900460ff16151515158152602001600182015481526020016002820160009054906101000a900473ffffffffffffffffffffffffffffffffffffffff1673ffffffffffffffffffffffffffffffffffffffff1673ffffffffffffffffffffffffffffffffffffffff16815260200160038201548152505090508060000151610e2f576040517f08c379a0000000000000000000000000000000000000000000000000000000008152600401610e2690614505565b60405180910390fd5b8060600151341015610e76576040517f08c379a0000000000000000000000000000000000000000000000000000000008152600401610e6d90614571565b60405180910390fd5b600081604001519050610ea181610e8b611a7e565b8560405180602001604052806000815250611e8e565b34601360008373ffffffffffffffffffffffffffffffffffffffff1673ffffffffffffffffffffffffffffffffffffffff1681526020019081526020016000206000828254610ef09190614591565b925050819055507f1450cfdd78f7dbaf62a4d0cfa9f60d10e2513410d93735fdd463e77c7a827e77833483610f23611a7e565b604051610f3394939291906145e7565b60405180910390a1505050565b610f4982610b15565b610f5a81610f55611a7e565b611eea565b610f648383611f87565b505050565b6000610f748361138a565b8210610fb5576040517f08c379a0000000000000000000000000000000000000000000000000000000008152600401610fac9061469e565b60405180910390fd5b600860008473ffffffffffffffffffffffffffffffffffffffff1673ffffffffffffffffffffffffffffffffffffffff168152602001908152602001600020600083815260200190815260200160002054905092915050565b611016611a7e565b73ffffffffffffffffffffffffffffffffffffffff168173ffffffffffffffffffffffffffffffffffffffff1614611083576040517f08c379a000000000000000000000000000000000000000000000000000000000815260040161107a90614730565b60405180910390fd5b61108d8282612068565b5050565b60006013600061109f611a7e565b73ffffffffffffffffffffffffffffffffffffffff1673ffffffffffffffffffffffffffffffffffffffff1681526020019081526020016000205490506000601360006110ea611a7e565b73ffffffffffffffffffffffffffffffffffffffff1673ffffffffffffffffffffffffffffffffffffffff168152602001908152602001600020819055503373ffffffffffffffffffffffffffffffffffffffff166108fc829081150290604051600060405180830381858888f1935050505015801561116e573d6000803e3d6000fd5b5050565b61118d838383604051806020016040528060008152506116ff565b505050565b7f3c11d16cbaffd01df69ce1c404f6340ee057498f5f00246190ea54220576a8486111c4816111bf611a7e565b611eea565b6111cd8261214a565b6111e182601061215690919063ffffffff16565b505050565b60006111f0610aa8565b8210611231576040517f08c379a0000000000000000000000000000000000000000000000000000000008152600401611228906147c2565b60405180910390fd5b600a8281548110611245576112446147e2565b5b90600052602060002001549050919050565b60126020528060005260406000206000915090508060000160009054906101000a900460ff16908060010154908060020160009054906101000a900473ffffffffffffffffffffffffffffffffffffffff16908060030154905084565b6000806004600084815260200190815260200160002060009054906101000a900473ffffffffffffffffffffffffffffffffffffffff169050600073ffffffffffffffffffffffffffffffffffffffff168173ffffffffffffffffffffffffffffffffffffffff16141561135d576040517f08c379a000000000000000000000000000000000000000000000000000000000815260040161135490614883565b60405180910390fd5b80915050919050565b7f64c822f54690a8774ef976b9a7e80771b0eeffb7d8d6af78555e2903c7c9a56a81565b60008073ffffffffffffffffffffffffffffffffffffffff168273ffffffffffffffffffffffffffffffffffffffff1614156113fb576040517f08c379a00000000000000000000000000000000000000000000000000000000081526004016113f290614915565b60405180910390fd5b600560008373ffffffffffffffffffffffffffffffffffffffff1673ffffffffffffffffffffffffffffffffffffffff168152602001908152602001600020549050919050565b6000600d600084815260200190815260200160002060000160008373ffffffffffffffffffffffffffffffffffffffff1673ffffffffffffffffffffffffffffffffffffffff16815260200190815260200160002060009054906101000a900460ff16905092915050565b6060600380546114bc90614156565b80601f01602080910402602001604051908101604052809291908181526020018280546114e890614156565b80156115355780601f1061150a57610100808354040283529160200191611535565b820191906000526020600020905b81548152906001019060200180831161151857829003601f168201915b5050505050905090565b6000801b81565b611558611551611a7e565b8383612170565b5050565b61156d611567611a7e565b84611b3f565b6115ac576040517f08c379a00000000000000000000000000000000000000000000000000000000081526004016115a3906149a7565b60405180910390fd5b604051806080016040528082151581526020018481526020016115ce856112b4565b73ffffffffffffffffffffffffffffffffffffffff168152602001838152506012600085815260200190815260200160002060008201518160000160006101000a81548160ff0219169083151502179055506020820151816001015560408201518160020160006101000a81548173ffffffffffffffffffffffffffffffffffffffff021916908373ffffffffffffffffffffffffffffffffffffffff1602179055506060820151816003015590505080156116c2577f454a59b1e51b1685e697faeca2a404382f4dcb9970aece78299147857e15039383836040516116b59291906149c7565b60405180910390a16116fa565b7fb2e2b1671ddb8be9692d90ba9912b657e8af4806d4afef5280c3928cd5b213b0836040516116f19190613b5d565b60405180910390a15b505050565b61171061170a611a7e565b83611b3f565b61174f576040517f08c379a0000000000000000000000000000000000000000000000000000000008152600401611746906143b0565b60405180910390fd5b61175b84848484611e8e565b50505050565b606061176c826122dd565b9050919050565b600080611780601061242f565b11156117b75761179b6000601061244490919063ffffffff16565b90506117b181601061245e90919063ffffffff16565b5061181b565b600e546117c4600f612478565b10611804576040517f08c379a00000000000000000000000000000000000000000000000000000000081526004016117fb90614a3c565b60405180910390fd5b61180e600f612478565b905061181a600f612486565b5b611825838261249c565b61182f81836124ba565b505050565b61183d82610b15565b61184e81611849611a7e565b611eea565b6118588383612068565b505050565b600e5481565b7f64c822f54690a8774ef976b9a7e80771b0eeffb7d8d6af78555e2903c7c9a56a61189581611890611a7e565b611eea565b61189f600f612478565b8210156118e1576040517f08c379a00000000000000000000000000000000000000000000000000000000081526004016118d890614ace565b60405180910390fd5b81600e819055505050565b6000600760008473ffffffffffffffffffffffffffffffffffffffff1673ffffffffffffffffffffffffffffffffffffffff16815260200190815260200160002060008373ffffffffffffffffffffffffffffffffffffffff1673ffffffffffffffffffffffffffffffffffffffff16815260200190815260200160002060009054906101000a900460ff16905092915050565b60136020528060005260406000206000915090505481565b60007f7965db0b000000000000000000000000000000000000000000000000000000007bffffffffffffffffffffffffffffffffffffffffffffffffffffffff1916827bffffffffffffffffffffffffffffffffffffffffffffffffffffffff19161480611a0b5750611a0a8261252e565b5b9050919050565b60008073ffffffffffffffffffffffffffffffffffffffff166004600084815260200190815260200160002060009054906101000a900473ffffffffffffffffffffffffffffffffffffffff1673ffffffffffffffffffffffffffffffffffffffff1614159050919050565b600033905090565b816006600083815260200190815260200160002060006101000a81548173ffffffffffffffffffffffffffffffffffffffff021916908373ffffffffffffffffffffffffffffffffffffffff160217905550808273ffffffffffffffffffffffffffffffffffffffff16611af9836112b4565b73ffffffffffffffffffffffffffffffffffffffff167f8c5be1e5ebec7d5bd14f71427d1e84f3dd0314c0f7b2291e5b200ac8c7c3b92560405160405180910390a45050565b6000611b4a82611a12565b611b89576040517f08c379a0000000000000000000000000000000000000000000000000000000008152600401611b8090614b60565b60405180910390fd5b6000611b94836112b4565b90508073ffffffffffffffffffffffffffffffffffffffff168473ffffffffffffffffffffffffffffffffffffffff161480611c0357508373ffffffffffffffffffffffffffffffffffffffff16611beb8461090b565b73ffffffffffffffffffffffffffffffffffffffff16145b80611c145750611c1381856118ec565b5b91505092915050565b8273ffffffffffffffffffffffffffffffffffffffff16611c3d826112b4565b73ffffffffffffffffffffffffffffffffffffffff1614611c93576040517f08c379a0000000000000000000000000000000000000000000000000000000008152600401611c8a90614bf2565b60405180910390fd5b600073ffffffffffffffffffffffffffffffffffffffff168273ffffffffffffffffffffffffffffffffffffffff161415611d03576040517f08c379a0000000000000000000000000000000000000000000000000000000008152600401611cfa90614c84565b60405180910390fd5b611d0e838383612540565b611d19600082611a86565b6001600560008573ffffffffffffffffffffffffffffffffffffffff1673ffffffffffffffffffffffffffffffffffffffff1681526020019081526020016000206000828254611d699190614ca4565b925050819055506001600560008473ffffffffffffffffffffffffffffffffffffffff1673ffffffffffffffffffffffffffffffffffffffff1681526020019081526020016000206000828254611dc09190614591565b92505081905550816004600083815260200190815260200160002060006101000a81548173ffffffffffffffffffffffffffffffffffffffff021916908373ffffffffffffffffffffffffffffffffffffffff160217905550808273ffffffffffffffffffffffffffffffffffffffff168473ffffffffffffffffffffffffffffffffffffffff167fddf252ad1be2c89b69c2b068fc378daa952ba7f163c4a11628f55a4df523b3ef60405160405180910390a4611e7f838383612550565b505050565b6000612710905090565b611e99848484611c1d565b611ea584848484612555565b611ee4576040517f08c379a0000000000000000000000000000000000000000000000000000000008152600401611edb90614d4a565b60405180910390fd5b50505050565b611ef48282611442565b611f8357611f198173ffffffffffffffffffffffffffffffffffffffff1660146126dd565b611f278360001c60206126dd565b604051602001611f38929190614e3e565b6040516020818303038152906040526040517f08c379a0000000000000000000000000000000000000000000000000000000008152600401611f7a9190613a01565b60405180910390fd5b5050565b611f918282611442565b612064576001600d600084815260200190815260200160002060000160008373ffffffffffffffffffffffffffffffffffffffff1673ffffffffffffffffffffffffffffffffffffffff16815260200190815260200160002060006101000a81548160ff021916908315150217905550612009611a7e565b73ffffffffffffffffffffffffffffffffffffffff168173ffffffffffffffffffffffffffffffffffffffff16837f2f8788117e7eff1d82e926ec794901d17c78024a50270940304540a733656f0d60405160405180910390a45b5050565b6120728282611442565b15612146576000600d600084815260200190815260200160002060000160008373ffffffffffffffffffffffffffffffffffffffff1673ffffffffffffffffffffffffffffffffffffffff16815260200190815260200160002060006101000a81548160ff0219169083151502179055506120eb611a7e565b73ffffffffffffffffffffffffffffffffffffffff168173ffffffffffffffffffffffffffffffffffffffff16837ff6391f5c32d9c69d2a47ea670b442974b53935d1edc7fd64eb21e047a839171b60405160405180910390a45b5050565b61215381612919565b50565b6000612168836000018360001b61292e565b905092915050565b8173ffffffffffffffffffffffffffffffffffffffff168373ffffffffffffffffffffffffffffffffffffffff1614156121df576040517f08c379a00000000000000000000000000000000000000000000000000000000081526004016121d690614ec4565b60405180910390fd5b80600760008573ffffffffffffffffffffffffffffffffffffffff1673ffffffffffffffffffffffffffffffffffffffff16815260200190815260200160002060008473ffffffffffffffffffffffffffffffffffffffff1673ffffffffffffffffffffffffffffffffffffffff16815260200190815260200160002060006101000a81548160ff0219169083151502179055508173ffffffffffffffffffffffffffffffffffffffff168373ffffffffffffffffffffffffffffffffffffffff167f17307eab39ab6107e8899845ad3d59bd9653f200f220920489ca2b5937696c31836040516122d0919061394d565b60405180910390a3505050565b60606122e882611a12565b612327576040517f08c379a000000000000000000000000000000000000000000000000000000000815260040161231e90614f56565b60405180910390fd5b6000600c6000848152602001908152602001600020805461234790614156565b80601f016020809104026020016040519081016040528092919081815260200182805461237390614156565b80156123c05780601f10612395576101008083540402835291602001916123c0565b820191906000526020600020905b8154815290600101906020018083116123a357829003601f168201915b5050505050905060006123d161299e565b90506000815114156123e757819250505061242a565b60008251111561241c578082604051602001612404929190614f76565b6040516020818303038152906040529250505061242a565b612425846129b5565b925050505b919050565b600061243d82600001612a5c565b9050919050565b60006124538360000183612a6d565b60001c905092915050565b6000612470836000018360001b612a98565b905092915050565b600081600001549050919050565b6001816000016000828254019250508190555050565b6124b6828260405180602001604052806000815250612bac565b5050565b6124c382611a12565b612502576040517f08c379a00000000000000000000000000000000000000000000000000000000081526004016124f99061500c565b60405180910390fd5b80600c600084815260200190815260200160002090805190602001906125299291906137b6565b505050565b600061253982612c07565b9050919050565b61254b838383612c81565b505050565b505050565b60006125768473ffffffffffffffffffffffffffffffffffffffff16612d95565b156126d0578373ffffffffffffffffffffffffffffffffffffffff1663150b7a0261259f611a7e565b8786866040518563ffffffff1660e01b81526004016125c19493929190615081565b6020604051808303816000875af19250505080156125fd57506040513d601f19601f820116820180604052508101906125fa91906150e2565b60015b612680573d806000811461262d576040519150601f19603f3d011682016040523d82523d6000602084013e612632565b606091505b50600081511415612678576040517f08c379a000000000000000000000000000000000000000000000000000000000815260040161266f90614d4a565b60405180910390fd5b805181602001fd5b63150b7a0260e01b7bffffffffffffffffffffffffffffffffffffffffffffffffffffffff1916817bffffffffffffffffffffffffffffffffffffffffffffffffffffffff1916149150506126d5565b600190505b949350505050565b6060600060028360026126f091906143ff565b6126fa9190614591565b67ffffffffffffffff81111561271357612712613e3c565b5b6040519080825280601f01601f1916602001820160405280156127455781602001600182028036833780820191505090505b5090507f30000000000000000000000000000000000000000000000000000000000000008160008151811061277d5761277c6147e2565b5b60200101907effffffffffffffffffffffffffffffffffffffffffffffffffffffffffffff1916908160001a9053507f7800000000000000000000000000000000000000000000000000000000000000816001815181106127e1576127e06147e2565b5b60200101907effffffffffffffffffffffffffffffffffffffffffffffffffffffffffffff1916908160001a9053506000600184600261282191906143ff565b61282b9190614591565b90505b60018111156128cb577f3031323334353637383961626364656600000000000000000000000000000000600f86166010811061286d5761286c6147e2565b5b1a60f81b828281518110612884576128836147e2565b5b60200101907effffffffffffffffffffffffffffffffffffffffffffffffffffffffffffff1916908160001a905350600485901c9450806128c49061510f565b905061282e565b506000841461290f576040517f08c379a000000000000000000000000000000000000000000000000000000000815260040161290690615185565b60405180910390fd5b8091505092915050565b61292281612db8565b61292b81612e0b565b50565b600061293a8383612e6a565b612993578260000182908060018154018082558091505060019003906000526020600020016000909190919091505582600001805490508360010160008481526020019081526020016000208190555060019050612998565b600090505b92915050565b606060405180602001604052806000815250905090565b60606129c082611a12565b6129ff576040517f08c379a00000000000000000000000000000000000000000000000000000000081526004016129f690615217565b60405180910390fd5b6000612a0961299e565b90506000815111612a295760405180602001604052806000815250612a54565b80612a3384612e8d565b604051602001612a44929190614f76565b6040516020818303038152906040525b915050919050565b600081600001805490509050919050565b6000826000018281548110612a8557612a846147e2565b5b9060005260206000200154905092915050565b60008083600101600084815260200190815260200160002054905060008114612ba0576000600182612aca9190614ca4565b9050600060018660000180549050612ae29190614ca4565b9050818114612b51576000866000018281548110612b0357612b026147e2565b5b9060005260206000200154905080876000018481548110612b2757612b266147e2565b5b90600052602060002001819055508387600101600083815260200190815260200160002081905550505b85600001805480612b6557612b64615237565b5b600190038181906000526020600020016000905590558560010160008681526020019081526020016000206000905560019350505050612ba6565b60009150505b92915050565b612bb68383612fee565b612bc36000848484612555565b612c02576040517f08c379a0000000000000000000000000000000000000000000000000000000008152600401612bf990614d4a565b60405180910390fd5b505050565b60007f780e9d63000000000000000000000000000000000000000000000000000000007bffffffffffffffffffffffffffffffffffffffffffffffffffffffff1916827bffffffffffffffffffffffffffffffffffffffffffffffffffffffff19161480612c7a5750612c79826131c8565b5b9050919050565b612c8c8383836132aa565b600073ffffffffffffffffffffffffffffffffffffffff168373ffffffffffffffffffffffffffffffffffffffff161415612ccf57612cca816132af565b612d0e565b8173ffffffffffffffffffffffffffffffffffffffff168373ffffffffffffffffffffffffffffffffffffffff1614612d0d57612d0c83826132f8565b5b5b600073ffffffffffffffffffffffffffffffffffffffff168273ffffffffffffffffffffffffffffffffffffffff161415612d5157612d4c81613465565b612d90565b8273ffffffffffffffffffffffffffffffffffffffff168273ffffffffffffffffffffffffffffffffffffffff1614612d8f57612d8e8282613536565b5b5b505050565b6000808273ffffffffffffffffffffffffffffffffffffffff163b119050919050565b612dc1816135b5565b6000600c60008381526020019081526020016000208054612de190614156565b905014612e0857600c60008281526020019081526020016000206000612e07919061383c565b5b50565b60016000828152602001908152602001600020600080820160006101000a81549073ffffffffffffffffffffffffffffffffffffffff02191690556000820160146101000a8154906bffffffffffffffffffffffff0219169055505050565b600080836001016000848152602001908152602001600020541415905092915050565b60606000821415612ed5576040518060400160405280600181526020017f30000000000000000000000000000000000000000000000000000000000000008152509050612fe9565b600082905060005b60008214612f07578080612ef090615266565b915050600a82612f009190614488565b9150612edd565b60008167ffffffffffffffff811115612f2357612f22613e3c565b5b6040519080825280601f01601f191660200182016040528015612f555781602001600182028036833780820191505090505b5090505b60008514612fe257600182612f6e9190614ca4565b9150600a85612f7d91906152af565b6030612f899190614591565b60f81b818381518110612f9f57612f9e6147e2565b5b60200101907effffffffffffffffffffffffffffffffffffffffffffffffffffffffffffff1916908160001a905350600a85612fdb9190614488565b9450612f59565b8093505050505b919050565b600073ffffffffffffffffffffffffffffffffffffffff168273ffffffffffffffffffffffffffffffffffffffff16141561305e576040517f08c379a00000000000000000000000000000000000000000000000000000000081526004016130559061532c565b60405180910390fd5b61306781611a12565b156130a7576040517f08c379a000000000000000000000000000000000000000000000000000000000815260040161309e90615398565b60405180910390fd5b6130b360008383612540565b6001600560008473ffffffffffffffffffffffffffffffffffffffff1673ffffffffffffffffffffffffffffffffffffffff16815260200190815260200160002060008282546131039190614591565b92505081905550816004600083815260200190815260200160002060006101000a81548173ffffffffffffffffffffffffffffffffffffffff021916908373ffffffffffffffffffffffffffffffffffffffff160217905550808273ffffffffffffffffffffffffffffffffffffffff16600073ffffffffffffffffffffffffffffffffffffffff167fddf252ad1be2c89b69c2b068fc378daa952ba7f163c4a11628f55a4df523b3ef60405160405180910390a46131c460008383612550565b5050565b60007f80ac58cd000000000000000000000000000000000000000000000000000000007bffffffffffffffffffffffffffffffffffffffffffffffffffffffff1916827bffffffffffffffffffffffffffffffffffffffffffffffffffffffff1916148061329357507f5b5e139f000000000000000000000000000000000000000000000000000000007bffffffffffffffffffffffffffffffffffffffffffffffffffffffff1916827bffffffffffffffffffffffffffffffffffffffffffffffffffffffff1916145b806132a357506132a2826136d2565b5b9050919050565b505050565b600a80549050600b600083815260200190815260200160002081905550600a81908060018154018082558091505060019003906000526020600020016000909190919091505550565b600060016133058461138a565b61330f9190614ca4565b90506000600960008481526020019081526020016000205490508181146133f4576000600860008673ffffffffffffffffffffffffffffffffffffffff1673ffffffffffffffffffffffffffffffffffffffff168152602001908152602001600020600084815260200190815260200160002054905080600860008773ffffffffffffffffffffffffffffffffffffffff1673ffffffffffffffffffffffffffffffffffffffff168152602001908152602001600020600084815260200190815260200160002081905550816009600083815260200190815260200160002081905550505b6009600084815260200190815260200160002060009055600860008573ffffffffffffffffffffffffffffffffffffffff1673ffffffffffffffffffffffffffffffffffffffff16815260200190815260200160002060008381526020019081526020016000206000905550505050565b60006001600a805490506134799190614ca4565b90506000600b60008481526020019081526020016000205490506000600a83815481106134a9576134a86147e2565b5b9060005260206000200154905080600a83815481106134cb576134ca6147e2565b5b906000526020600020018190555081600b600083815260200190815260200160002081905550600b600085815260200190815260200160002060009055600a80548061351a57613519615237565b5b6001900381819060005260206000200160009055905550505050565b60006135418361138a565b905081600860008573ffffffffffffffffffffffffffffffffffffffff1673ffffffffffffffffffffffffffffffffffffffff168152602001908152602001600020600083815260200190815260200160002081905550806009600084815260200190815260200160002081905550505050565b60006135c0826112b4565b90506135ce81600084612540565b6135d9600083611a86565b6001600560008373ffffffffffffffffffffffffffffffffffffffff1673ffffffffffffffffffffffffffffffffffffffff16815260200190815260200160002060008282546136299190614ca4565b925050819055506004600083815260200190815260200160002060006101000a81549073ffffffffffffffffffffffffffffffffffffffff021916905581600073ffffffffffffffffffffffffffffffffffffffff168273ffffffffffffffffffffffffffffffffffffffff167fddf252ad1be2c89b69c2b068fc378daa952ba7f163c4a11628f55a4df523b3ef60405160405180910390a46136ce81600084612550565b5050565b60007f2a55205a000000000000000000000000000000000000000000000000000000007bffffffffffffffffffffffffffffffffffffffffffffffffffffffff1916827bffffffffffffffffffffffffffffffffffffffffffffffffffffffff1916148061374557506137448261374c565b5b9050919050565b60007f01ffc9a7000000000000000000000000000000000000000000000000000000007bffffffffffffffffffffffffffffffffffffffffffffffffffffffff1916827bffffffffffffffffffffffffffffffffffffffffffffffffffffffff1916149050919050565b8280546137c290614156565b90600052602060002090601f0160209004810192826137e4576000855561382b565b82601f106137fd57805160ff191683800117855561382b565b8280016001018555821561382b579182015b8281111561382a57825182559160200191906001019061380f565b5b509050613838919061387c565b5090565b50805461384890614156565b6000825580601f1061385a5750613879565b601f016020900490600052602060002090810190613878919061387c565b5b50565b5b8082111561389557600081600090555060010161387d565b5090565b6000604051905090565b600080fd5b600080fd5b60007fffffffff0000000000000000000000000000000000000000000000000000000082169050919050565b6138e2816138ad565b81146138ed57600080fd5b50565b6000813590506138ff816138d9565b92915050565b60006020828403121561391b5761391a6138a3565b5b6000613929848285016138f0565b91505092915050565b60008115159050919050565b61394781613932565b82525050565b6000602082019050613962600083018461393e565b92915050565b600081519050919050565b600082825260208201905092915050565b60005b838110156139a2578082015181840152602081019050613987565b838111156139b1576000848401525b50505050565b6000601f19601f8301169050919050565b60006139d382613968565b6139dd8185613973565b93506139ed818560208601613984565b6139f6816139b7565b840191505092915050565b60006020820190508181036000830152613a1b81846139c8565b905092915050565b6000819050919050565b613a3681613a23565b8114613a4157600080fd5b50565b600081359050613a5381613a2d565b92915050565b600060208284031215613a6f57613a6e6138a3565b5b6000613a7d84828501613a44565b91505092915050565b600073ffffffffffffffffffffffffffffffffffffffff82169050919050565b6000613ab182613a86565b9050919050565b613ac181613aa6565b82525050565b6000602082019050613adc6000830184613ab8565b92915050565b613aeb81613aa6565b8114613af657600080fd5b50565b600081359050613b0881613ae2565b92915050565b60008060408385031215613b2557613b246138a3565b5b6000613b3385828601613af9565b9250506020613b4485828601613a44565b9150509250929050565b613b5781613a23565b82525050565b6000602082019050613b726000830184613b4e565b92915050565b600080600060608486031215613b9157613b906138a3565b5b6000613b9f86828701613af9565b9350506020613bb086828701613af9565b9250506040613bc186828701613a44565b9150509250925092565b6000819050919050565b613bde81613bcb565b8114613be957600080fd5b50565b600081359050613bfb81613bd5565b92915050565b600060208284031215613c1757613c166138a3565b5b6000613c2584828501613bec565b91505092915050565b613c3781613bcb565b82525050565b6000602082019050613c526000830184613c2e565b92915050565b60008060408385031215613c6f57613c6e6138a3565b5b6000613c7d85828601613a44565b9250506020613c8e85828601613a44565b9150509250929050565b6000604082019050613cad6000830185613ab8565b613cba6020830184613b4e565b9392505050565b60008060408385031215613cd857613cd76138a3565b5b6000613ce685828601613bec565b9250506020613cf785828601613af9565b9150509250929050565b6000608082019050613d16600083018761393e565b613d236020830186613b4e565b613d306040830185613ab8565b613d3d6060830184613b4e565b95945050505050565b600060208284031215613d5c57613d5b6138a3565b5b6000613d6a84828501613af9565b91505092915050565b613d7c81613932565b8114613d8757600080fd5b50565b600081359050613d9981613d73565b92915050565b60008060408385031215613db657613db56138a3565b5b6000613dc485828601613af9565b9250506020613dd585828601613d8a565b9150509250929050565b600080600060608486031215613df857613df76138a3565b5b6000613e0686828701613a44565b9350506020613e1786828701613a44565b9250506040613e2886828701613d8a565b9150509250925092565b600080fd5b600080fd5b7f4e487b7100000000000000000000000000000000000000000000000000000000600052604160045260246000fd5b613e74826139b7565b810181811067ffffffffffffffff82111715613e9357613e92613e3c565b5b80604052505050565b6000613ea6613899565b9050613eb28282613e6b565b919050565b600067ffffffffffffffff821115613ed257613ed1613e3c565b5b613edb826139b7565b9050602081019050919050565b82818337600083830152505050565b6000613f0a613f0584613eb7565b613e9c565b905082815260208101848484011115613f2657613f25613e37565b5b613f31848285613ee8565b509392505050565b600082601f830112613f4e57613f4d613e32565b5b8135613f5e848260208601613ef7565b91505092915050565b60008060008060808587031215613f8157613f806138a3565b5b6000613f8f87828801613af9565b9450506020613fa087828801613af9565b9350506040613fb187828801613a44565b925050606085013567ffffffffffffffff811115613fd257613fd16138a8565b5b613fde87828801613f39565b91505092959194509250565b600067ffffffffffffffff82111561400557614004613e3c565b5b61400e826139b7565b9050602081019050919050565b600061402e61402984613fea565b613e9c565b90508281526020810184848401111561404a57614049613e37565b5b614055848285613ee8565b509392505050565b600082601f83011261407257614071613e32565b5b813561408284826020860161401b565b91505092915050565b600080604083850312156140a2576140a16138a3565b5b60006140b085828601613af9565b925050602083013567ffffffffffffffff8111156140d1576140d06138a8565b5b6140dd8582860161405d565b9150509250929050565b600080604083850312156140fe576140fd6138a3565b5b600061410c85828601613af9565b925050602061411d85828601613af9565b9150509250929050565b7f4e487b7100000000000000000000000000000000000000000000000000000000600052602260045260246000fd5b6000600282049050600182168061416e57607f821691505b6020821081141561418257614181614127565b5b50919050565b7f4552433732313a20617070726f76656420717565727920666f72206e6f6e657860008201527f697374656e7420746f6b656e0000000000000000000000000000000000000000602082015250565b60006141e4602c83613973565b91506141ef82614188565b604082019050919050565b60006020820190508181036000830152614213816141d7565b9050919050565b7f4552433732313a20617070726f76616c20746f2063757272656e74206f776e6560008201527f7200000000000000000000000000000000000000000000000000000000000000602082015250565b6000614276602183613973565b91506142818261421a565b604082019050919050565b600060208201905081810360008301526142a581614269565b9050919050565b7f4552433732313a20617070726f76652063616c6c6572206973206e6f74206f7760008201527f6e6572206e6f7220617070726f76656420666f7220616c6c0000000000000000602082015250565b6000614308603883613973565b9150614313826142ac565b604082019050919050565b60006020820190508181036000830152614337816142fb565b9050919050565b7f4552433732313a207472616e736665722063616c6c6572206973206e6f74206f60008201527f776e6572206e6f7220617070726f766564000000000000000000000000000000602082015250565b600061439a603183613973565b91506143a58261433e565b604082019050919050565b600060208201905081810360008301526143c98161438d565b9050919050565b7f4e487b7100000000000000000000000000000000000000000000000000000000600052601160045260246000fd5b600061440a82613a23565b915061441583613a23565b9250817fffffffffffffffffffffffffffffffffffffffffffffffffffffffffffffffff048311821515161561444e5761444d6143d0565b5b828202905092915050565b7f4e487b7100000000000000000000000000000000000000000000000000000000600052601260045260246000fd5b600061449382613a23565b915061449e83613a23565b9250826144ae576144ad614459565b5b828204905092915050565b7f746f6b656e206973206e6f7420666f722073616c650000000000000000000000600082015250565b60006144ef601583613973565b91506144fa826144b9565b602082019050919050565b6000602082019050818103600083015261451e816144e2565b9050919050565b7f496e73756666696369656e7420616d6f756e7420746f20706179000000000000600082015250565b600061455b601a83613973565b915061456682614525565b602082019050919050565b6000602082019050818103600083015261458a8161454e565b9050919050565b600061459c82613a23565b91506145a783613a23565b9250827fffffffffffffffffffffffffffffffffffffffffffffffffffffffffffffffff038211156145dc576145db6143d0565b5b828201905092915050565b60006080820190506145fc6000830187613b4e565b6146096020830186613b4e565b6146166040830185613ab8565b6146236060830184613ab8565b95945050505050565b7f455243373231456e756d657261626c653a206f776e657220696e646578206f7560008201527f74206f6620626f756e6473000000000000000000000000000000000000000000602082015250565b6000614688602b83613973565b91506146938261462c565b604082019050919050565b600060208201905081810360008301526146b78161467b565b9050919050565b7f416363657373436f6e74726f6c3a2063616e206f6e6c792072656e6f756e636560008201527f20726f6c657320666f722073656c660000000000000000000000000000000000602082015250565b600061471a602f83613973565b9150614725826146be565b604082019050919050565b600060208201905081810360008301526147498161470d565b9050919050565b7f455243373231456e756d657261626c653a20676c6f62616c20696e646578206f60008201527f7574206f6620626f756e64730000000000000000000000000000000000000000602082015250565b60006147ac602c83613973565b91506147b782614750565b604082019050919050565b600060208201905081810360008301526147db8161479f565b9050919050565b7f4e487b7100000000000000000000000000000000000000000000000000000000600052603260045260246000fd5b7f4552433732313a206f776e657220717565727920666f72206e6f6e657869737460008201527f656e7420746f6b656e0000000000000000000000000000000000000000000000602082015250565b600061486d602983613973565b915061487882614811565b604082019050919050565b6000602082019050818103600083015261489c81614860565b9050919050565b7f4552433732313a2062616c616e636520717565727920666f7220746865207a6560008201527f726f206164647265737300000000000000000000000000000000000000000000602082015250565b60006148ff602a83613973565b915061490a826148a3565b604082019050919050565b6000602082019050818103600083015261492e816148f2565b9050919050565b7f4254424d61726b6574203a20796f7520646f206e6f742068617665206163636560008201527f737320746f207468697320746f6b656e00000000000000000000000000000000602082015250565b6000614991603083613973565b915061499c82614935565b604082019050919050565b600060208201905081810360008301526149c081614984565b9050919050565b60006040820190506149dc6000830185613b4e565b6149e96020830184613b4e565b9392505050565b7f6d6178537570706c792066696c6c656400000000000000000000000000000000600082015250565b6000614a26601083613973565b9150614a31826149f0565b602082019050919050565b60006020820190508181036000830152614a5581614a19565b9050919050565b7f42616e54686542616e4e46543a20456e7465722061206e756d6265722067726560008201527f61746572207468616e2063757272656e7420737570706c792e00000000000000602082015250565b6000614ab8603983613973565b9150614ac382614a5c565b604082019050919050565b60006020820190508181036000830152614ae781614aab565b9050919050565b7f4552433732313a206f70657261746f7220717565727920666f72206e6f6e657860008201527f697374656e7420746f6b656e0000000000000000000000000000000000000000602082015250565b6000614b4a602c83613973565b9150614b5582614aee565b604082019050919050565b60006020820190508181036000830152614b7981614b3d565b9050919050565b7f4552433732313a207472616e736665722066726f6d20696e636f72726563742060008201527f6f776e6572000000000000000000000000000000000000000000000000000000602082015250565b6000614bdc602583613973565b9150614be782614b80565b604082019050919050565b60006020820190508181036000830152614c0b81614bcf565b9050919050565b7f4552433732313a207472616e7366657220746f20746865207a65726f2061646460008201527f7265737300000000000000000000000000000000000000000000000000000000602082015250565b6000614c6e602483613973565b9150614c7982614c12565b604082019050919050565b60006020820190508181036000830152614c9d81614c61565b9050919050565b6000614caf82613a23565b9150614cba83613a23565b925082821015614ccd57614ccc6143d0565b5b828203905092915050565b7f4552433732313a207472616e7366657220746f206e6f6e20455243373231526560008201527f63656976657220696d706c656d656e7465720000000000000000000000000000602082015250565b6000614d34603283613973565b9150614d3f82614cd8565b604082019050919050565b60006020820190508181036000830152614d6381614d27565b9050919050565b600081905092915050565b7f416363657373436f6e74726f6c3a206163636f756e7420000000000000000000600082015250565b6000614dab601783614d6a565b9150614db682614d75565b601782019050919050565b6000614dcc82613968565b614dd68185614d6a565b9350614de6818560208601613984565b80840191505092915050565b7f206973206d697373696e6720726f6c6520000000000000000000000000000000600082015250565b6000614e28601183614d6a565b9150614e3382614df2565b601182019050919050565b6000614e4982614d9e565b9150614e558285614dc1565b9150614e6082614e1b565b9150614e6c8284614dc1565b91508190509392505050565b7f4552433732313a20617070726f766520746f2063616c6c657200000000000000600082015250565b6000614eae601983613973565b9150614eb982614e78565b602082019050919050565b60006020820190508181036000830152614edd81614ea1565b9050919050565b7f45524337323155524953746f726167653a2055524920717565727920666f722060008201527f6e6f6e6578697374656e7420746f6b656e000000000000000000000000000000602082015250565b6000614f40603183613973565b9150614f4b82614ee4565b604082019050919050565b60006020820190508181036000830152614f6f81614f33565b9050919050565b6000614f828285614dc1565b9150614f8e8284614dc1565b91508190509392505050565b7f45524337323155524953746f726167653a2055524920736574206f66206e6f6e60008201527f6578697374656e7420746f6b656e000000000000000000000000000000000000602082015250565b6000614ff6602e83613973565b915061500182614f9a565b604082019050919050565b6000602082019050818103600083015261502581614fe9565b9050919050565b600081519050919050565b600082825260208201905092915050565b60006150538261502c565b61505d8185615037565b935061506d818560208601613984565b615076816139b7565b840191505092915050565b60006080820190506150966000830187613ab8565b6150a36020830186613ab8565b6150b06040830185613b4e565b81810360608301526150c28184615048565b905095945050505050565b6000815190506150dc816138d9565b92915050565b6000602082840312156150f8576150f76138a3565b5b6000615106848285016150cd565b91505092915050565b600061511a82613a23565b9150600082141561512e5761512d6143d0565b5b600182039050919050565b7f537472696e67733a20686578206c656e67746820696e73756666696369656e74600082015250565b600061516f602083613973565b915061517a82615139565b602082019050919050565b6000602082019050818103600083015261519e81615162565b9050919050565b7f4552433732314d657461646174613a2055524920717565727920666f72206e6f60008201527f6e6578697374656e7420746f6b656e0000000000000000000000000000000000602082015250565b6000615201602f83613973565b915061520c826151a5565b604082019050919050565b60006020820190508181036000830152615230816151f4565b9050919050565b7f4e487b7100000000000000000000000000000000000000000000000000000000600052603160045260246000fd5b600061527182613a23565b91507fffffffffffffffffffffffffffffffffffffffffffffffffffffffffffffffff8214156152a4576152a36143d0565b5b600182019050919050565b60006152ba82613a23565b91506152c583613a23565b9250826152d5576152d4614459565b5b828206905092915050565b7f4552433732313a206d696e7420746f20746865207a65726f2061646472657373600082015250565b6000615316602083613973565b9150615321826152e0565b602082019050919050565b6000602082019050818103600083015261534581615309565b9050919050565b7f4552433732313a20746f6b656e20616c7265616479206d696e74656400000000600082015250565b6000615382601c83613973565b915061538d8261534c565b602082019050919050565b600060208201905081810360008301526153b181615375565b905091905056fea26469706673582212208fab746fe16e4253e2974447c1b3826507ea92401c802b7d4e1d9fe84736808764736f6c634300080b0033",
  "linkReferences": {},
  "deployedLinkReferences": {}
}