{
  "_format": "hh-sol-artifact-1",
  "contractName": "ERC721SolidState",
  "sourceName": "contracts/community/1_ERC721SolidState/ERC721SolidState.sol",
  "abi": [
    {
      "anonymous": false,
      "inputs": [
        {
          "indexed": true,
          "internalType": "address",
          "name": "owner",
          "type": "address"
        },
        {
          "indexed": true,
          "internalType": "address",
          "name": "operator",
          "type": "address"
        },
        {
          "indexed": true,
          "internalType": "uint256",
          "name": "tokenId",
          "type": "uint256"
        }
      ],
      "name": "Approval",
      "type": "event"
    },
    {
      "anonymous": false,
      "inputs": [
        {
          "indexed": true,
          "internalType": "address",
          "name": "owner",
          "type": "address"
        },
        {
          "indexed": true,
          "internalType": "address",
          "name": "operator",
          "type": "address"
        },
        {
          "indexed": false,
          "internalType": "bool",
          "name": "approved",
          "type": "bool"
        }
      ],
      "name": "ApprovalForAll",
      "type": "event"
    },
    {
      "anonymous": false,
      "inputs": [
        {
          "indexed": false,
          "internalType": "address",
          "name": "account",
          "type": "address"
        }
      ],
      "name": "Paused",
      "type": "event"
    },
    {
      "anonymous": false,
      "inputs": [
        {
          "indexed": true,
          "internalType": "address",
          "name": "from",
          "type": "address"
        },
        {
          "indexed": true,
          "internalType": "address",
          "name": "to",
          "type": "address"
        },
        {
          "indexed": true,
          "internalType": "uint256",
          "name": "tokenId",
          "type": "uint256"
        }
      ],
      "name": "Transfer",
      "type": "event"
    },
    {
      "anonymous": false,
      "inputs": [
        {
          "indexed": false,
          "internalType": "address",
          "name": "account",
          "type": "address"
        }
      ],
      "name": "Unpaused",
      "type": "event"
    },
    {
      "inputs": [
        {
          "internalType": "address",
          "name": "operator",
          "type": "address"
        },
        {
          "internalType": "uint256",
          "name": "tokenId",
          "type": "uint256"
        }
      ],
      "name": "approve",
      "outputs": [],
      "stateMutability": "payable",
      "type": "function"
    },
    {
      "inputs": [
        {
          "internalType": "address",
          "name": "account",
          "type": "address"
        }
      ],
      "name": "balanceOf",
      "outputs": [
        {
          "internalType": "uint256",
          "name": "",
          "type": "uint256"
        }
      ],
      "stateMutability": "view",
      "type": "function"
    },
    {
      "inputs": [
        {
          "internalType": "uint256",
          "name": "tokenId",
          "type": "uint256"
        }
      ],
      "name": "getApproved",
      "outputs": [
        {
          "internalType": "address",
          "name": "",
          "type": "address"
        }
      ],
      "stateMutability": "view",
      "type": "function"
    },
    {
      "inputs": [],
      "name": "init",
      "outputs": [],
      "stateMutability": "nonpayable",
      "type": "function"
    },
    {
      "inputs": [
        {
          "internalType": "address",
          "name": "account",
          "type": "address"
        },
        {
          "internalType": "address",
          "name": "operator",
          "type": "address"
        }
      ],
      "name": "isApprovedForAll",
      "outputs": [
        {
          "internalType": "bool",
          "name": "",
          "type": "bool"
        }
      ],
      "stateMutability": "view",
      "type": "function"
    },
    {
      "inputs": [],
      "name": "name",
      "outputs": [
        {
          "internalType": "string",
          "name": "",
          "type": "string"
        }
      ],
      "stateMutability": "view",
      "type": "function"
    },
    {
      "inputs": [
        {
          "internalType": "uint256",
          "name": "tokenId",
          "type": "uint256"
        }
      ],
      "name": "ownerOf",
      "outputs": [
        {
          "internalType": "address",
          "name": "",
          "type": "address"
        }
      ],
      "stateMutability": "view",
      "type": "function"
    },
    {
      "inputs": [],
      "name": "pause",
      "outputs": [],
      "stateMutability": "nonpayable",
      "type": "function"
    },
    {
      "inputs": [],
      "name": "paused",
      "outputs": [
        {
          "internalType": "bool",
          "name": "",
          "type": "bool"
        }
      ],
      "stateMutability": "view",
      "type": "function"
    },
    {
      "inputs": [
        {
          "internalType": "address",
          "name": "from",
          "type": "address"
        },
        {
          "internalType": "address",
          "name": "to",
          "type": "address"
        },
        {
          "internalType": "uint256",
          "name": "tokenId",
          "type": "uint256"
        }
      ],
      "name": "safeTransferFrom",
      "outputs": [],
      "stateMutability": "payable",
      "type": "function"
    },
    {
      "inputs": [
        {
          "internalType": "address",
          "name": "from",
          "type": "address"
        },
        {
          "internalType": "address",
          "name": "to",
          "type": "address"
        },
        {
          "internalType": "uint256",
          "name": "tokenId",
          "type": "uint256"
        },
        {
          "internalType": "bytes",
          "name": "data",
          "type": "bytes"
        }
      ],
      "name": "safeTransferFrom",
      "outputs": [],
      "stateMutability": "payable",
      "type": "function"
    },
    {
      "inputs": [
        {
          "internalType": "address",
          "name": "operator",
          "type": "address"
        },
        {
          "internalType": "bool",
          "name": "status",
          "type": "bool"
        }
      ],
      "name": "setApprovalForAll",
      "outputs": [],
      "stateMutability": "nonpayable",
      "type": "function"
    },
    {
      "inputs": [],
      "name": "symbol",
      "outputs": [
        {
          "internalType": "string",
          "name": "",
          "type": "string"
        }
      ],
      "stateMutability": "view",
      "type": "function"
    },
    {
      "inputs": [
        {
          "internalType": "uint256",
          "name": "index",
          "type": "uint256"
        }
      ],
      "name": "tokenByIndex",
      "outputs": [
        {
          "internalType": "uint256",
          "name": "",
          "type": "uint256"
        }
      ],
      "stateMutability": "view",
      "type": "function"
    },
    {
      "inputs": [
        {
          "internalType": "address",
          "name": "owner",
          "type": "address"
        },
        {
          "internalType": "uint256",
          "name": "index",
          "type": "uint256"
        }
      ],
      "name": "tokenOfOwnerByIndex",
      "outputs": [
        {
          "internalType": "uint256",
          "name": "",
          "type": "uint256"
        }
      ],
      "stateMutability": "view",
      "type": "function"
    },
    {
      "inputs": [
        {
          "internalType": "uint256",
          "name": "tokenId",
          "type": "uint256"
        }
      ],
      "name": "tokenURI",
      "outputs": [
        {
          "internalType": "string",
          "name": "",
          "type": "string"
        }
      ],
      "stateMutability": "view",
      "type": "function"
    },
    {
      "inputs": [],
      "name": "totalSupply",
      "outputs": [
        {
          "internalType": "uint256",
          "name": "",
          "type": "uint256"
        }
      ],
      "stateMutability": "view",
      "type": "function"
    },
    {
      "inputs": [
        {
          "internalType": "address",
          "name": "from",
          "type": "address"
        },
        {
          "internalType": "address",
          "name": "to",
          "type": "address"
        },
        {
          "internalType": "uint256",
          "name": "tokenId",
          "type": "uint256"
        }
      ],
      "name": "transferFrom",
      "outputs": [],
      "stateMutability": "payable",
      "type": "function"
    },
    {
      "inputs": [],
      "name": "unpause",
      "outputs": [],
      "stateMutability": "nonpayable",
      "type": "function"
    }
  ],
  "bytecode": "0x608060405234801561001057600080fd5b506122c4806100206000396000f3fe6080604052600436106101145760003560e01c80635c975abb116100a0578063a22cb46511610064578063a22cb465146102be578063b88d4fde146102de578063c87b56dd146102f1578063e1c7392a14610311578063e985e9c51461032657600080fd5b80635c975abb1461022f5780636352211e1461025457806370a08231146102745780638456cb591461029457806395d89b41146102a957600080fd5b806323b872dd116100e757806323b872dd146101b45780632f745c59146101c75780633f4ba83a146101e757806342842e0e146101fc5780634f6ccce71461020f57600080fd5b806306fdde0314610119578063081812fc14610144578063095ea7b31461017c57806318160ddd14610191575b600080fd5b34801561012557600080fd5b5061012e610346565b60405161013b9190611dce565b60405180910390f35b34801561015057600080fd5b5061016461015f366004611de1565b6103e5565b6040516001600160a01b03909116815260200161013b565b61018f61018a366004611e16565b6103f6565b005b34801561019d57600080fd5b506101a661051b565b60405190815260200161013b565b61018f6101c2366004611e40565b61052a565b3480156101d357600080fd5b506101a66101e2366004611e16565b610567565b3480156101f357600080fd5b5061018f61057a565b61018f61020a366004611e40565b61058c565b34801561021b57600080fd5b506101a661022a366004611de1565b6105a7565b34801561023b57600080fd5b506102446105b2565b604051901515815260200161013b565b34801561026057600080fd5b5061016461026f366004611de1565b6105cd565b34801561028057600080fd5b506101a661028f366004611e7c565b6105d8565b3480156102a057600080fd5b5061018f6105e3565b3480156102b557600080fd5b5061012e6105f3565b3480156102ca57600080fd5b5061018f6102d9366004611e97565b610612565b61018f6102ec366004611ee9565b610621565b3480156102fd57600080fd5b5061012e61030c366004611de1565b610665565b34801561031d57600080fd5b5061018f61089f565b34801561033257600080fd5b50610244610341366004611fc5565b61098e565b606060008051602061226f833981519152805461036290611ff8565b80601f016020809104026020016040519081016040528092919081815260200182805461038e90611ff8565b80156103db5780601f106103b0576101008083540402835291602001916103db565b820191906000526020600020905b8154815290600101906020018083116103be57829003601f168201915b5050505050905090565b60006103f08261099a565b92915050565b610401828234610a33565b600061040c826105cd565b9050806001600160a01b0316836001600160a01b03160361047e5760405162461bcd60e51b815260206004820152602160248201527f4552433732313a20617070726f76616c20746f2063757272656e74206f776e656044820152603960f91b60648201526084015b60405180910390fd5b336001600160a01b038216148061049a575061049a813361098e565b61050c5760405162461bcd60e51b815260206004820152603860248201527f4552433732313a20617070726f76652063616c6c6572206973206e6f74206f7760448201527f6e6572206e6f7220617070726f76656420666f7220616c6c00000000000000006064820152608401610475565b6105168383610a95565b505050565b6000610525610b22565b905090565b61053683838334610b3b565b6105403382610ba3565b61055c5760405162461bcd60e51b815260040161047590612032565b610516838383610c73565b60006105738383610e3b565b9392505050565b610582610e56565b61058a610edd565b565b61051683838360405180602001604052806000815250610621565b60006103f082610f80565b600061052560008051602061222f8339815191525460ff1690565b60006103f082610f9a565b60006103f082611005565b6105eb610e56565b61058a6110b0565b606060008051602061226f833981519152600101805461036290611ff8565b61061d33838361114d565b5050565b61062d84848434610b3b565b6106373383610ba3565b6106535760405162461bcd60e51b815260040161047590612032565b61065f8484848461123b565b50505050565b60606106818260008051602061224f8339815191525b906112b9565b6106e55760405162461bcd60e51b815260206004820152602f60248201527f4552433732314d657461646174613a2055524920717565727920666f72206e6f60448201526e3732bc34b9ba32b73a103a37b5b2b760891b6064820152608401610475565b60008281527f99574a7094154bb123ae6ae102096f0bf9679b85a5cd1e727aaa0ae5f132e6b460205260408120805460008051602061226f83398151915292919061072f90611ff8565b80601f016020809104026020016040519081016040528092919081815260200182805461075b90611ff8565b80156107a85780601f1061077d576101008083540402835291602001916107a8565b820191906000526020600020905b81548152906001019060200180831161078b57829003601f168201915b5050505050905060008260020180546107c090611ff8565b80601f01602080910402602001604051908101604052809291908181526020018280546107ec90611ff8565b80156108395780601f1061080e57610100808354040283529160200191610839565b820191906000526020600020905b81548152906001019060200180831161081c57829003601f168201915b50505050509050805160000361085157509392505050565b81511561088457808260405160200161086b929190612082565b6040516020818303038152906040529350505050919050565b8061088e866112c5565b60405160200161086b929190612082565b6108dd6040518060400160405280601981526020017f4d696e7465722e526f636b7320446f6e6174696f6e2044414f000000000000008152506113c6565b610902604051806040016040528060048152602001634444414f60e01b8152506113e5565b7fc8fcad8db84d3cc18b4c41d551ea0ee66dd599cde068d998e57d5e09332c131f6020527fb0f299ecb5b93181be17d5e233721498930c5361f367b1d41c5b827d4fe4d3808054600160ff19918216811790925563780e9d6360e01b6000527fc564b00dd622489e8872cfaa1fdbe51ee7adef071bfa99bc1effdc20162fa70a80549091169091179055565b60006105738383611417565b600060008051602061224f8339815191526109b581846112b9565b610a165760405162461bcd60e51b815260206004820152602c60248201527f4552433732313a20617070726f76656420717565727920666f72206e6f6e657860448201526b34b9ba32b73a103a37b5b2b760a11b6064820152608401610475565b60009283526003016020525060409020546001600160a01b031690565b80156105165760405162461bcd60e51b815260206004820152602b60248201527f4552433732313a2070617961626c6520617070726f76652063616c6c73206e6f60448201526a1d081cdd5c1c1bdc9d195960aa1b6064820152608401610475565b60008181527f3c7bf052874fa81625121783266a03507bd2cd48b16e571c01a04e8dd3fb07a96020526040902080546001600160a01b0319166001600160a01b0384169081179091558190610ae982610f9a565b6001600160a01b03167f8c5be1e5ebec7d5bd14f71427d1e84f3dd0314c0f7b2291e5b200ac8c7c3b92560405160405180910390a45050565b600061052560008051602061224f833981519152611464565b8015610b9e5760405162461bcd60e51b815260206004820152602c60248201527f4552433732313a2070617961626c65207472616e736665722063616c6c73206e60448201526b1bdd081cdd5c1c1bdc9d195960a21b6064820152608401610475565b61065f565b6000610bbd8260008051602061224f83398151915261067b565b610c155760405162461bcd60e51b815260206004820152602360248201527f4552433732313a20717565727920666f72206e6f6e6578697374656e7420746f60448201526235b2b760e91b6064820152608401610475565b6000610c2083610f9a565b9050806001600160a01b0316846001600160a01b03161480610c5b5750836001600160a01b0316610c508461099a565b6001600160a01b0316145b80610c6b5750610c6b8185611417565b949350505050565b826001600160a01b0316610c8682610f9a565b6001600160a01b031614610cee5760405162461bcd60e51b815260206004820152602960248201527f4552433732313a207472616e73666572206f6620746f6b656e2074686174206960448201526839903737ba1037bbb760b91b6064820152608401610475565b6001600160a01b038216610d505760405162461bcd60e51b8152602060048201526024808201527f4552433732313a207472616e7366657220746f20746865207a65726f206164646044820152637265737360e01b6064820152608401610475565b610d5b83838361146f565b610d66600082610a95565b6001600160a01b03831660009081527f3c7bf052874fa81625121783266a03507bd2cd48b16e571c01a04e8dd3fb07a86020526040902060008051602061224f83398151915290610db790836114cd565b506001600160a01b03831660009081526002820160205260409020610ddc90836114d9565b50610de88183856114e5565b50610df48484846114fb565b81836001600160a01b0316856001600160a01b03167fddf252ad1be2c89b69c2b068fc378daa952ba7f163c4a11628f55a4df523b3ef60405160405180910390a450505050565b600061057360008051602061224f833981519152848461155e565b7fc8fcad8db84d3cc18b4c41d551ea0ee66dd599cde068d998e57d5e09332c131c600401546001600160a01b0316331461058a5760405162461bcd60e51b815260206004820152602260248201527f4c69624469616d6f6e643a204d75737420626520636f6e7472616374206f776e60448201526132b960f11b6064820152608401610475565b60008051602061222f8339815191525460ff16610f335760405162461bcd60e51b815260206004820152601460248201527314185d5cd8589b194e881b9bdd081c185d5cd95960621b6044820152606401610475565b60008051602061222f833981519152805460ff191690556040513381527f5db9ee0a495bf2e6ff9c91a7834c1ba4fdd244a5e8aa4e537bd38aeae4b073aa906020015b60405180910390a1565b60006103f060008051602061224f83398151915283611582565b600080610fb560008051602061224f83398151915284611598565b90506001600160a01b0381166103f05760405162461bcd60e51b815260206004820152601560248201527422a9219b99189d1034b73b30b634b21037bbb732b960591b6044820152606401610475565b60006001600160a01b0382166110705760405162461bcd60e51b815260206004820152602a60248201527f4552433732313a2062616c616e636520717565727920666f7220746865207a65604482015269726f206164647265737360b01b6064820152608401610475565b6001600160a01b03821660009081527f3c7bf052874fa81625121783266a03507bd2cd48b16e571c01a04e8dd3fb07a8602052604090206103f0906115a4565b60008051602061222f8339815191525460ff16156111035760405162461bcd60e51b815260206004820152601060248201526f14185d5cd8589b194e881c185d5cd95960821b6044820152606401610475565b60008051602061222f833981519152805460ff191660011790556040513381527f62e78cea01bee320cd4e420270b5ea74000d11b0c9f74754ebdbfc544b05a25890602001610f76565b826001600160a01b0316826001600160a01b0316036111ae5760405162461bcd60e51b815260206004820152601960248201527f4552433732313a20617070726f766520746f2063616c6c6572000000000000006044820152606401610475565b6001600160a01b0383811660008181527f3c7bf052874fa81625121783266a03507bd2cd48b16e571c01a04e8dd3fb07aa6020908152604080832094871680845294825291829020805460ff1916861515908117909155825190815291517f17307eab39ab6107e8899845ad3d59bd9653f200f220920489ca2b5937696c319281900390910190a3505050565b611246848484610c73565b611252848484846115ae565b61065f5760405162461bcd60e51b815260206004820152603260248201527f4552433732313a207472616e7366657220746f206e6f6e20455243373231526560448201527131b2b4bb32b91034b6b83632b6b2b73a32b960711b6064820152608401610475565b6000610573838361167f565b6060816000036112ec5750506040805180820190915260018152600360fc1b602082015290565b8160005b81156113165780611300816120c7565b915061130f9050600a836120f6565b91506112f0565b60008167ffffffffffffffff81111561133157611331611ed3565b6040519080825280601f01601f19166020018201604052801561135b576020820181803683370190505b5090505b8415610c6b5761137060018361210a565b915061137d600a86612121565b611388906030612135565b60f81b81838151811061139d5761139d61214d565b60200101906001600160f81b031916908160001a9053506113bf600a866120f6565b945061135f565b8060008051602061226f833981519152815161061d9260200190611ca0565b805161061d907f99574a7094154bb123ae6ae102096f0bf9679b85a5cd1e727aaa0ae5f132e6b2906020840190611ca0565b6001600160a01b0391821660009081527f3c7bf052874fa81625121783266a03507bd2cd48b16e571c01a04e8dd3fb07aa6020908152604080832093909416825291909152205460ff1690565b60006103f0826115a4565b60008051602061222f8339815191525460ff16156114c25760405162461bcd60e51b815260206004820152601060248201526f14185d5cd8589b194e881c185d5cd95960821b6044820152606401610475565b610516838383611697565b600061057383836116a2565b6000610573838361176f565b6000610c6b84846001600160a01b0385166117be565b60008181527f8b1e34c06a0926cd4f4dec6712395936ddf06c5177eba09c7581fc2f39f19f4a60205260409020600401546001600160a01b0384161561154557611545848261185d565b6001600160a01b0383161561065f5761065f83826118eb565b6001600160a01b03821660009081526002840160205260408120610c6b908361196f565b60008061158f848461197b565b50949350505050565b60006105738383611997565b60006103f0825490565b60006001600160a01b0384163b6115c757506001610c6b565b600061164863150b7a0260e01b338887876040516024016115eb9493929190612163565b604051602081830303815290604052906001600160e01b0319166020820180516001600160e01b0383818316178352505050506040518060600160405280603281526020016121fd603291396001600160a01b0388169190611a2a565b905060008180602001905181019061166091906121a0565b6001600160e01b031916630a85bd0160e11b1492505050949350505050565b60008181526001830160205260408120541515610573565b610516838383611a39565b60008181526001830160205260408120548015611765578354600090859060001981019081106116d4576116d461214d565b90600052602060002001549050808560000160018403815481106116fa576116fa61214d565b600091825260208083209091019290925591825260018601905260409020819055835484908061172c5761172c6121ca565b600190038181906000526020600020016000905590558360010160008481526020019081526020016000206000905560019150506103f0565b60009150506103f0565b60008181526001830160205260408120546117b6575081546001818101845560008481526020808220909301849055845484825282860190935260409020919091556103f0565b5060006103f0565b6000828152600184016020526040812054808203611825575050604080518082018252838152602080820184815286546001818101895560008981528481209551600290930290950191825591519082015586548684528188019092529290912055610573565b8285600001600183038154811061183e5761183e61214d565b9060005260206000209060020201600101819055506000915050610573565b6001600160a01b03821660009081527f8b1e34c06a0926cd4f4dec6712395936ddf06c5177eba09c7581fc2f39f19f4b6020526040812080547f8b1e34c06a0926cd4f4dec6712395936ddf06c5177eba09c7581fc2f39f19f47928492916118c690849061210a565b92505081905550818160060160008282546118e1919061210a565b9091555050505050565b6001600160a01b03821660009081527f8b1e34c06a0926cd4f4dec6712395936ddf06c5177eba09c7581fc2f39f19f4b6020526040812080547f8b1e34c06a0926cd4f4dec6712395936ddf06c5177eba09c7581fc2f39f19f4792849291611954908490612135565b92505081905550818160060160008282546118e19190612135565b60006105738383611a7d565b600080808061198a8686611b03565b9097909650945050505050565b60008181526001830160205260408120548082036119f75760405162461bcd60e51b815260206004820152601e60248201527f456e756d657261626c654d61703a206e6f6e6578697374656e74206b657900006044820152606401610475565b836000016001820381548110611a0f57611a0f61214d565b90600052602060002090600202016001015491505092915050565b6060610c6b8484600085611ba0565b6001600160a01b0382166105165760008181527f99574a7094154bb123ae6ae102096f0bf9679b85a5cd1e727aaa0ae5f132e6b46020526040812061051691611d24565b81546000908210611adb5760405162461bcd60e51b815260206004820152602260248201527f456e756d657261626c655365743a20696e646578206f7574206f6620626f756e604482015261647360f01b6064820152608401610475565b826000018281548110611af057611af061214d565b9060005260206000200154905092915050565b815460009081908310611b635760405162461bcd60e51b815260206004820152602260248201527f456e756d657261626c654d61703a20696e646578206f7574206f6620626f756e604482015261647360f01b6064820152608401610475565b6000846000018481548110611b7a57611b7a61214d565b906000526020600020906002020190508060000154816001015492509250509250929050565b6060843b611c045760405162461bcd60e51b815260206004820152602b60248201527f416464726573735574696c733a2066756e6374696f6e2063616c6c20746f206e60448201526a1bdb8b58dbdb9d1c9858dd60aa1b6064820152608401610475565b600080866001600160a01b03168587604051611c2091906121e0565b60006040518083038185875af1925050503d8060008114611c5d576040519150601f19603f3d011682016040523d82523d6000602084013e611c62565b606091505b50915091508115611c76579150610c6b9050565b805115611c865780518082602001fd5b8360405162461bcd60e51b81526004016104759190611dce565b828054611cac90611ff8565b90600052602060002090601f016020900481019282611cce5760008555611d14565b82601f10611ce757805160ff1916838001178555611d14565b82800160010185558215611d14579182015b82811115611d14578251825591602001919060010190611cf9565b50611d20929150611d61565b5090565b508054611d3090611ff8565b6000825580601f10611d40575050565b601f016020900490600052602060002090810190611d5e9190611d61565b50565b5b80821115611d205760008155600101611d62565b60005b83811015611d91578181015183820152602001611d79565b8381111561065f5750506000910152565b60008151808452611dba816020860160208601611d76565b601f01601f19169290920160200192915050565b6020815260006105736020830184611da2565b600060208284031215611df357600080fd5b5035919050565b80356001600160a01b0381168114611e1157600080fd5b919050565b60008060408385031215611e2957600080fd5b611e3283611dfa565b946020939093013593505050565b600080600060608486031215611e5557600080fd5b611e5e84611dfa565b9250611e6c60208501611dfa565b9150604084013590509250925092565b600060208284031215611e8e57600080fd5b61057382611dfa565b60008060408385031215611eaa57600080fd5b611eb383611dfa565b915060208301358015158114611ec857600080fd5b809150509250929050565b634e487b7160e01b600052604160045260246000fd5b60008060008060808587031215611eff57600080fd5b611f0885611dfa565b9350611f1660208601611dfa565b925060408501359150606085013567ffffffffffffffff80821115611f3a57600080fd5b818701915087601f830112611f4e57600080fd5b813581811115611f6057611f60611ed3565b604051601f8201601f19908116603f01168101908382118183101715611f8857611f88611ed3565b816040528281528a6020848701011115611fa157600080fd5b82602086016020830137600060208483010152809550505050505092959194509250565b60008060408385031215611fd857600080fd5b611fe183611dfa565b9150611fef60208401611dfa565b90509250929050565b600181811c9082168061200c57607f821691505b60208210810361202c57634e487b7160e01b600052602260045260246000fd5b50919050565b60208082526030908201527f4552433732313a207472616e736665722063616c6c6572206973206e6f74206f60408201526f1ddb995c881bdc88185c1c1c9bdd995960821b606082015260800190565b60008351612094818460208801611d76565b8351908301906120a8818360208801611d76565b01949350505050565b634e487b7160e01b600052601160045260246000fd5b6000600182016120d9576120d96120b1565b5060010190565b634e487b7160e01b600052601260045260246000fd5b600082612105576121056120e0565b500490565b60008282101561211c5761211c6120b1565b500390565b600082612130576121306120e0565b500690565b60008219821115612148576121486120b1565b500190565b634e487b7160e01b600052603260045260246000fd5b6001600160a01b038581168252841660208201526040810183905260806060820181905260009061219690830184611da2565b9695505050505050565b6000602082840312156121b257600080fd5b81516001600160e01b03198116811461057357600080fd5b634e487b7160e01b600052603160045260246000fd5b600082516121f2818460208701611d76565b919091019291505056fe4552433732313a207472616e7366657220746f206e6f6e20455243373231526563656976657220696d706c656d656e74657268721c0bbf2c02a4d65000340d1370666be06a630022208d4baa9bd7a4b6fea83c7bf052874fa81625121783266a03507bd2cd48b16e571c01a04e8dd3fb07a699574a7094154bb123ae6ae102096f0bf9679b85a5cd1e727aaa0ae5f132e6b1a2646970667358221220edb27cea47ac33a5d3fdc85051794f1162602ce24d8e7018c55bf0951be1d8a364736f6c634300080d0033",
  "linkReferences": {},
  "deployedLinkReferences": {}
}