{
  "_format": "hh-sol-artifact-1",
  "contractName": "OnchainMetadata",
  "sourceName": "contracts/community/3_onchain_metadata/OnchainMetadata.sol",
  "abi": [
    {
      "anonymous": false,
      "inputs": [
        {
          "indexed": true,
          "internalType": "address",
          "name": "owner",
          "type": "address"
        },
        {
          "indexed": true,
          "internalType": "address",
          "name": "operator",
          "type": "address"
        },
        {
          "indexed": true,
          "internalType": "uint256",
          "name": "tokenId",
          "type": "uint256"
        }
      ],
      "name": "Approval",
      "type": "event"
    },
    {
      "anonymous": false,
      "inputs": [
        {
          "indexed": true,
          "internalType": "address",
          "name": "owner",
          "type": "address"
        },
        {
          "indexed": true,
          "internalType": "address",
          "name": "operator",
          "type": "address"
        },
        {
          "indexed": false,
          "internalType": "bool",
          "name": "approved",
          "type": "bool"
        }
      ],
      "name": "ApprovalForAll",
      "type": "event"
    },
    {
      "anonymous": false,
      "inputs": [
        {
          "indexed": true,
          "internalType": "address",
          "name": "from",
          "type": "address"
        },
        {
          "indexed": true,
          "internalType": "address",
          "name": "to",
          "type": "address"
        },
        {
          "indexed": true,
          "internalType": "uint256",
          "name": "tokenId",
          "type": "uint256"
        }
      ],
      "name": "Transfer",
      "type": "event"
    },
    {
      "inputs": [
        {
          "internalType": "uint256",
          "name": "tokenId",
          "type": "uint256"
        }
      ],
      "name": "tokenURI",
      "outputs": [
        {
          "internalType": "string",
          "name": "",
          "type": "string"
        }
      ],
      "stateMutability": "view",
      "type": "function"
    }
  ],
  "bytecode": "0x6080806040523461001657611dc0908161001c8239f35b600080fdfe6080604052600436101561001257600080fd5b6000803560e01c63c87b56dd1461002857600080fd5b346103be5760203660031901126103be5760043561006f816000527f8b1e34c06a0926cd4f4dec6712395936ddf06c5177eba09c7581fc2f39f19f4a602052604060002090565b90600582015492610081841515610422565b600483015490606094816006860154600787015b81831061033e575050506100b06100ab8661082d565b611b04565b926100c06100ab6001880161082d565b916100ca82611c8b565b936100f57f8b1e34c06a0926cd4f4dec6712395936ddf06c5177eba09c7581fc2f39f19f5054610566565b1590506103095761010d610107610696565b91610cc1565b9060028801549361011d85611d40565b9385604051809b6020820192610133918461092c565b039a601f199b8c810182526101489082610531565b5190209061015591611962565b941595610160610774565b9161016a98610e10565b9061017490610cc1565b6040516a7b226e616d65223a20222360a81b602082015293849291602b840161019c91610553565b72111610113232b9b1b934b83a34b7b7111d101160691b81526013016101c191610553565b6c1116101134b6b0b3b2911d101160991b8152600d016101e091610553565b7f222c2022696e746572616374696f6e22203a207b2272656164223a5b5d2c227781527f72697465223a5b7b22696e70757473223a5b7b22696e7465726e616c5479706560208201527f223a2275696e74323536222c226e616d65223a22746f6b656e4964222c22747960408201527f7065223a2275696e74323536227d5d2c226e616d65223a226368616e6765506160608201527f747465726e222c226f757470757473223a5b5d2c2273746174654d757461626960808201527f6c697479223a226e6f6e70617961626c65222c2274797065223a2266756e637460a082015267696f6e227d5d7d7d60c01b60c082015260c8010390810182526102e59082610531565b6102ee90610ace565b6102f790610940565b6040516103058192826103f6565b0390f35b61010d6101076103397f8b1e34c06a0926cd4f4dec6712395936ddf06c5177eba09c7581fc2f39f19f4c54611d40565b6108d0565b909197506103b76103b161037461036f6103628c8690600052602052604060002090565b546001600160a01b031690565b610bac565b610394600161038d8d8790600052602052604060002090565b0154611c8b565b60026103aa8d8790600052602052604060002090565b0191610623565b9861049d565b9190610095565b80fd5b918091926000905b8282106103e15750116103da575050565b6000910152565b915080602091830151818601520182916103c9565b6040916020825261041681518092816020860152602086860191016103c1565b601f01601f1916010190565b1561042957565b60405162461bcd60e51b815260206004820152602f60248201527f4552433732314d657461646174613a2055524920717565727920666f72206e6f60448201526e3732bc34b9ba32b73a103a37b5b2b760891b6064820152608490fd5b50634e487b7160e01b600052601160045260246000fd5b60019060001981146104ad570190565b6104b5610486565b0190565b50634e487b7160e01b600052604160045260246000fd5b6060810190811067ffffffffffffffff8211176104ec57604052565b6104f46104b9565b604052565b6040810190811067ffffffffffffffff8211176104ec57604052565b6020810190811067ffffffffffffffff8211176104ec57604052565b90601f8019910116810190811067ffffffffffffffff8211176104ec57604052565b906104b5602092828151948592016103c1565b90600182811c92168015610596575b602083101461058057565b634e487b7160e01b600052602260045260246000fd5b91607f1691610575565b6000929181546105af81610566565b9260019180831690811561060857506001146105cc575b50505050565b90919293945060005260209081600020906000915b8583106105f757505050500190388080806105c6565b8054858401529183019181016105e1565b60ff19168452505050811515909102019150388080806105c6565b60039061067c6106949395946024604051978461064a8a965180926020808a0191016103c1565b85019061016160f51b9182602082015261066e8251809360206022850191016103c1565b0190602282015201906105a0565b621017b760e91b815203601c19810185520183610531565b565b604051906000827f8b1e34c06a0926cd4f4dec6712395936ddf06c5177eba09c7581fc2f39f19f509182546106ca81610566565b8084529360019180831690811561075057506001146106f2575b505061069492500383610531565b600090815291507f39bc84a6f3fd6651d7e520c851b226ddc703ed288d6ba295f5e799cd02e8d9945b8483106107355750610694935050810160200138806106e4565b81935090816020925483858a0101520191019091859261071b565b9150506020925061069494915060ff191682840152151560051b82010138806106e4565b604051906000827f8b1e34c06a0926cd4f4dec6712395936ddf06c5177eba09c7581fc2f39f19f4f9182546107a881610566565b8084529360019180831690811561075057506001146107cf57505061069492500383610531565b600090815291507fcc1fe7173d3f3b7ce5019b9db119237c0260ba0805c313a42542070edf6997e45b8483106108125750610694935050810160200138806106e4565b81935090816020925483858a010152019101909185926107f8565b906040519182600082549261084184610566565b9081845260019485811690816000146108ad575060011461086a57505061069492500383610531565b9093915060005260209081600020936000915b818310610895575050610694935082010138806106e4565b8554888401850152948501948794509183019161087d565b91505061069494506020925060ff191682840152151560051b82010138806106e4565b90610694603b60405180946c02334b939ba1023b7b0b6101d1609d1b6020830152610905815180926020602d860191016103c1565b81016d206f662038303030204d4154494360901b602d82015203601b810185520183610531565b61093990602093926105a0565b9081520190565b90610694603d60405180947f646174613a6170706c69636174696f6e2f6a736f6e3b6261736536342c000000602083015261098481518092602086860191016103c1565b810103601d810185520183610531565b60209067ffffffffffffffff81116109b2575b601f01601f19160190565b6109ba6104b9565b6109a7565b604051906020820182811067ffffffffffffffff8211176109e4575b60405260008252565b6109ec6104b9565b6109db565b604051906109fe826104d0565b604082527f6768696a6b6c6d6e6f707172737475767778797a303132333435363738392b2f6040837f4142434445464748494a4b4c4d4e4f505152535455565758595a61626364656660208201520152565b60029060021981116104ad570190565b50634e487b7160e01b600052601260045260246000fd5b6001600160fe1b038111600116610a8f575b60021b90565b610a97610486565b610a89565b90610aa682610994565b610ab36040519182610531565b8281528092610ac4601f1991610994565b0190602036910137565b805115610ba057610add6109f1565b610b01610afc610af7610af08551610a50565b6003900490565b610a77565b610a9c565b9160208301918182518301915b828210610b4e57505050600390510680600114610b3b57600214610b30575090565b603d90600019015390565b50603d9081600019820153600119015390565b9091936004906003809401938451600190603f9082828260121c16880101518553828282600c1c16880101518386015382828260061c1688010151600286015316850101519082015301939190610b0e565b50610ba96109bf565b90565b604051906001600160a01b0316610bc2826104d0565b602a825260403660208401376030610bd983610c7b565b536078610be583610c91565b536029905b60018211610bfd57610ba9915015610d65565b600f81166010811015610c3a575b6f181899199a1a9b1b9c1cb0b131b232b360811b901a610c2b8385610ca2565b5360041c906000190190610bea565b610c42610c64565b610c0b565b60405190610c54826104f9565b60018252600360fc1b6020830152565b50634e487b7160e01b600052603260045260246000fd5b602090805115610c89570190565b6104b5610c64565b602190805160011015610c89570190565b906020918051821015610cb457010190565b610cbc610c64565b010190565b8015610d5c576000818181805b610d445750610cdc81610a9c565b935b610ce85750505090565b60018110610d37575b6000190190600a90603082820680198211610d2a575b0160f81b6001600160f81b031916841a610d218487610ca2565b53049081610cde565b610d32610486565b610d07565b610d3f610486565b610cf1565b9150610d51600a9161049d565b910480849291610cce565b50610ba9610c47565b15610d6c57565b60405162461bcd60e51b815260206004820152602260248201527f55696e745574696c733a20686578206c656e67746820696e73756666696369656044820152611b9d60f21b6064820152608490fd5b90610694603a60405180947f646174613a696d6167652f7376672b786d6c3b6261736536342c0000000000006020830152610e0081518092602086860191016103c1565b810103601a810185520183610531565b9697959193959492946000906000146119325750604051610e30816104d0565b602b81527f207374796c653d2266696c7465723a2075726c28236d6f74696f6e2d626c757260208201526a16b23ab7ba37b732949d9160a91b6040820152965b604080517f3c3f786d6c2076657273696f6e3d22312e302220656e636f64696e673d22757460208201527f662d38223f3e3c7376672076696577426f783d22313530203020373030203130918101919091527f30302220786d6c6e733d22687474703a2f2f7777772e77332e6f72672f32303060608201527f302f737667223e3c646566733e3c66696c7465722069643d226d6f74696f6e2d60808201527f626c75722d64756f746f6e652220636f6c6f722d696e746572706f6c6174696f60a08201527f6e2d66696c746572733d22735247422220783d222d353030252220793d222d3560c08201527f303025222077696474683d22313030302522206865696768743d22313030302560e08201527f223e3c6665476175737369616e426c757220737464446576696174696f6e3d226101008201527f3720302220656467654d6f64653d226e6f6e65222f3e3c6665436f6c6f724d616101208201527f7472697820747970653d226d61747269782220726573756c743d2267726179736101408201527f63616c65222076616c7565733d223120302030203020302031203020302030206101608201527f302031203020302030203020302030203020312030222f3e3c6665436f6d706f6101808201527f6e656e745472616e7366657220726573756c743d2264756f746f6e65223e3c666101a08201527f6546756e635220747970653d227461626c6522207461626c6556616c7565733d6101c08201527f22302e37343120302e393838222f3e3c666546756e634720747970653d2274616101e08201527f626c6522207461626c6556616c7565733d22302e30343320302e373333222f3e6102008201527f3c666546756e634220747970653d227461626c6522207461626c6556616c75656102208201527f733d22302e35363920302e303531222f3e3c666546756e634120747970653d226102408201527f7461626c6522207461626c6556616c7565733d22302031222f3e3c2f6665436f6102608201527f6d706f6e656e745472616e736665723e3c2f66696c7465723e3c636c697050616102808201527f74682069643d22636c69702d70617468223e3c726563742077696474683d22376102a08201527f303022206865696768743d22313030302220783d223135302220793d2230222f6102c08201527f3e3c2f636c6970506174683e3c7374796c653e2e636c732d317b636c69702d706102e08201527f6174683a75726c2823636c69702d70617468293b20666f6e742d66616d696c796103008201527f3a436f7572696572204e65773b7d2e636c732d327b7374726f6b653a233164316103208201527f6431623b7d2e636c732d337b66696c6c3a6e6f6e653b207374726f6b652d6d696103408201527f7465726c696d69743a31303b207374726f6b653a236461646164613b7374726f6103608201527f6b652d77696474683a3170783b7d2e636c732d347b66696c6c3a2331623137316103808201527f383b6f7061636974793a302e39373b7d2e636c732d357b666f6e742d73697a656103a08201527f3a20373070783b7d2e636c732d367b666f6e742d73697a653a20333270783b206103c08201527f66696c6c3a236666663b20666f6e742d66616d696c793a436f7572696572204e6103e08201527f65773b7d2e636c732d377b666f6e742d73697a653a20353070783b2066696c6c6104008201527f3a236666663b7d2e636c732d387b666f6e742d73697a653a20333570783b7d2e6104208201527f636c732d397b666f6e742d73697a653a20343070783b7d2e636c732d31307b666104408201527f696c6c3a233939636632393b20666f6e742d73697a653a20333570783b20666f6104608201527f6e742d66616d696c793a436f75726965724e657750534d547d3c2f7374796c656104808201527f3e3c2f646566733e3c6720636c6173733d22636c732d312200000000000000006104a0820152988998611424906104b88b0190610553565b7f3e3c7265637420636c6173733d22636c732d322220783d223135302220793d2281527f30222077696474683d2237303022206865696768743d2231303030222f3e3c7060208201527f6f6c796c696e6520636c6173733d22636c732d332220706f696e74733d2200006040820152605e0161149f91610553565b7f222f3e3c7265637420636c6173733d22636c732d342220783d2231353022207981527f3d2230222077696474683d2237303022206865696768743d22323130222f3e3c60208201527f7265637420636c6173733d22636c732d342220783d223135302220793d22383060408201527f30222077696474683d2237303022206865696768743d22323030222f3e3c746560608201527f787420636c6173733d22636c732d352220783d223138302220793d223935222060808201527f7374796c653d2266696c6c3a233939636632393b223e4d696e7465722e3c747360a08201527f70616e207374796c653d2266696c6c3a236464363430303b223e726f636b733c60c08201527f2f747370616e3e3c2f746578743e3c7465787420636c6173733d22636c732d3660e08201527111103c1e91189c1811103c9e91189a9a911f60711b610100820152610112016115f591610553565b7f3c747370616e20783d223138302220793d22313935223e000000000000000000815260170161162491610553565b7f3c2f747370616e3e3c2f746578743e3c7465787420636c6173733d22636c732d8152721b91103c1e91189c1811103c9e911b1818111f60691b602082015260330161166f91610553565b7f204d617469633c2f746578743e3c7465787420636c6173733d22636c732d382281527f20783d223138302220793d2236383522207374796c653d2266696c6c3a23646460208201527f363430303b223e426c6f636b3c747370616e207374796c653d2266696c6c3a2360408201527f3030653166323b223e206e756d6265723c2f747370616e3e3c747370616e207360608201527503a3cb6329e913334b6361d11b09c18181a9a1d911f160551b608082015260960161172f91610553565b7f3c2f747370616e3e3c2f746578743e3c7465787420636c6173733d22636c732d81527f392220783d223138302220793d2237353022207374796c653d2266696c6c3a2360208201527f3939636632393b223e566f74696e67203c747370616e207374796c653d22666960408201527f6c6c3a236464363430303b22203e506f776572203c2f747370616e3e3c74737060608201527f616e207374796c653d2266696c6c3a233030653166323b223e0000000000000060808201526099016117f691610553565b7f3c2f747370616e3e3c2f746578743e3c7465787420636c6173733d22636c732d81527f31302220783d223138352220793d2238353022203e6e6f74696669636174696f60208201527f6e3c747370616e20783d223138302220793d2239313022207374796c653d226660408201527037b73a16b9b4bd329d101998383c1d911f60791b606082015260710161188b91610553565b7f3c747370616e2020783d223138302220793d22393535223e000000000000000081526018016118ba91610553565b7f3c2f747370616e3e3c2f747370616e3e3c2f746578743e3c2f673e3c2f7376678152601f60f91b602082015260210103601f199081810183526118fe9083610531565b60405180926020820161191091610553565b0390810182526119209082610531565b61192990610ace565b610ba990610dbc565b6040519061193f82610515565b815296610e70565b8015611955575b6000190190565b61195d610486565b61194e565b60609291670de0b6b3a764000090049060005b600a8084106119935761198b919293049161049d565b919091611975565b50916001907f199999999999999999999999999999999999999999999999999999999999999984118216611a6a575b600a93840281198111611a5d575b0192835b6119de5750505050565b6103e88084116119f0575b50836119d4565b92611a506021839698611a0f611a5695600160fd1b9504978806610cc1565b906040519485928251611a2a816020958680890191016103c1565b8401611a3e825180938680850191016103c1565b01918201520385810184520182610531565b95611947565b92386119e9565b611a65610486565b6119d0565b611a72610486565b6119c2565b60019061ffff8091169081146104ad570190565b6021610694919392936040519481611aad8793518092602080870191016103c1565b82019060ff60f81b166020820152036001810185520183610531565b90610694602460405184611ae78296518092602080860191016103c1565b810163616d703b60e01b6020820152036004810185520183610531565b90600091825b815161ffff821690811015611b6657611b49611b3c611b2e601360f91b9386610ca2565b516001600160f81b03191690565b6001600160f81b03191690565b14611b5d575b611b5890611a77565b611b0a565b60019350611b4f565b5050909115600014611b755790565b60609160005b82519361ffff821694851015611be457611ba290611b9c611b2e8787610ca2565b90611a8b565b8094611bb9611b3c611b2e601360f91b9388610ca2565b14611bce575b50611bc990611a77565b611b7b565b611bc9919450611bdd90611ac9565b9390611bbf565b925050915090565b60ff16604d8111611bfe575b600a0a90565b611c06610486565b611bf8565b60405190611c18826104f9565b60018252601760f91b6020830152565b6020610694919392936040519481611c4987935180928680870191016103c1565b8201611c5d825180938680850191016103c1565b01038085520183610531565b60ff168015611955576000190190565b60ff1660018110611955576000190190565b906012600392611cb5611ca7670de0b6b3a76400008304610cc1565b611caf611c0b565b90611c28565b60ff80861615611d3957611d1191611d0b91851615611d3157611caf611ce3611cdd87611c69565b96611bec565b8015611d24575b611cfb611cf688611c79565b611bec565b908115611d17575b860604610cc1565b94611c69565b93611cb5565b611d1f610a60565b611d03565b611d2c610a60565b611cea565b611caf610c47565b5093505050565b906012600292611d5c611ca7670de0b6b3a76400008304610cc1565b60ff80861615611d3957611d8491611d0b91851615611d3157611caf611ce3611cdd87611c69565b93611d5c56fea26469706673582212202661b67d546da64f2178d25ce185c94cf1a3ad7420bb62674233b20c3a40551164736f6c634300080f0033",
  "linkReferences": {},
  "deployedLinkReferences": {}
}