{
  "_format": "hh-sol-artifact-1",
  "contractName": "Collection5",
  "sourceName": "contracts/collection-factory/collection-5-factory/Collection5.sol",
  "abi": [
    {
      "inputs": [],
      "stateMutability": "nonpayable",
      "type": "constructor"
    },
    {
      "anonymous": false,
      "inputs": [
        {
          "indexed": true,
          "internalType": "address",
          "name": "account",
          "type": "address"
        },
        {
          "indexed": true,
          "internalType": "address",
          "name": "operator",
          "type": "address"
        },
        {
          "indexed": false,
          "internalType": "bool",
          "name": "approved",
          "type": "bool"
        }
      ],
      "name": "ApprovalForAll",
      "type": "event"
    },
    {
      "anonymous": false,
      "inputs": [
        {
          "indexed": false,
          "internalType": "uint8",
          "name": "version",
          "type": "uint8"
        }
      ],
      "name": "Initialized",
      "type": "event"
    },
    {
      "anonymous": false,
      "inputs": [
        {
          "indexed": true,
          "internalType": "address",
          "name": "previousOwner",
          "type": "address"
        },
        {
          "indexed": true,
          "internalType": "address",
          "name": "newOwner",
          "type": "address"
        }
      ],
      "name": "OwnershipTransferred",
      "type": "event"
    },
    {
      "anonymous": false,
      "inputs": [
        {
          "indexed": true,
          "internalType": "address",
          "name": "operator",
          "type": "address"
        },
        {
          "indexed": true,
          "internalType": "address",
          "name": "from",
          "type": "address"
        },
        {
          "indexed": true,
          "internalType": "address",
          "name": "to",
          "type": "address"
        },
        {
          "indexed": false,
          "internalType": "uint256[]",
          "name": "ids",
          "type": "uint256[]"
        },
        {
          "indexed": false,
          "internalType": "uint256[]",
          "name": "values",
          "type": "uint256[]"
        }
      ],
      "name": "TransferBatch",
      "type": "event"
    },
    {
      "anonymous": false,
      "inputs": [
        {
          "indexed": true,
          "internalType": "address",
          "name": "operator",
          "type": "address"
        },
        {
          "indexed": true,
          "internalType": "address",
          "name": "from",
          "type": "address"
        },
        {
          "indexed": true,
          "internalType": "address",
          "name": "to",
          "type": "address"
        },
        {
          "indexed": false,
          "internalType": "uint256",
          "name": "id",
          "type": "uint256"
        },
        {
          "indexed": false,
          "internalType": "uint256",
          "name": "value",
          "type": "uint256"
        }
      ],
      "name": "TransferSingle",
      "type": "event"
    },
    {
      "anonymous": false,
      "inputs": [
        {
          "indexed": false,
          "internalType": "string",
          "name": "value",
          "type": "string"
        },
        {
          "indexed": true,
          "internalType": "uint256",
          "name": "id",
          "type": "uint256"
        }
      ],
      "name": "URI",
      "type": "event"
    },
    {
      "inputs": [
        {
          "internalType": "address",
          "name": "account",
          "type": "address"
        },
        {
          "internalType": "uint256",
          "name": "id",
          "type": "uint256"
        }
      ],
      "name": "balanceOf",
      "outputs": [
        {
          "internalType": "uint256",
          "name": "",
          "type": "uint256"
        }
      ],
      "stateMutability": "view",
      "type": "function"
    },
    {
      "inputs": [
        {
          "internalType": "address[]",
          "name": "accounts",
          "type": "address[]"
        },
        {
          "internalType": "uint256[]",
          "name": "ids",
          "type": "uint256[]"
        }
      ],
      "name": "balanceOfBatch",
      "outputs": [
        {
          "internalType": "uint256[]",
          "name": "",
          "type": "uint256[]"
        }
      ],
      "stateMutability": "view",
      "type": "function"
    },
    {
      "inputs": [
        {
          "internalType": "address",
          "name": "account",
          "type": "address"
        },
        {
          "internalType": "uint256",
          "name": "id",
          "type": "uint256"
        },
        {
          "internalType": "uint256",
          "name": "value",
          "type": "uint256"
        }
      ],
      "name": "burn",
      "outputs": [],
      "stateMutability": "nonpayable",
      "type": "function"
    },
    {
      "inputs": [
        {
          "internalType": "address",
          "name": "account",
          "type": "address"
        },
        {
          "internalType": "uint256[]",
          "name": "ids",
          "type": "uint256[]"
        },
        {
          "internalType": "uint256[]",
          "name": "values",
          "type": "uint256[]"
        }
      ],
      "name": "burnBatch",
      "outputs": [],
      "stateMutability": "nonpayable",
      "type": "function"
    },
    {
      "inputs": [
        {
          "internalType": "uint256",
          "name": "tokenId",
          "type": "uint256"
        }
      ],
      "name": "cap",
      "outputs": [
        {
          "internalType": "uint256",
          "name": "",
          "type": "uint256"
        }
      ],
      "stateMutability": "view",
      "type": "function"
    },
    {
      "inputs": [],
      "name": "collectionInfo",
      "outputs": [
        {
          "internalType": "string",
          "name": "",
          "type": "string"
        }
      ],
      "stateMutability": "view",
      "type": "function"
    },
    {
      "inputs": [],
      "name": "deleteDefaultRoyalty",
      "outputs": [],
      "stateMutability": "nonpayable",
      "type": "function"
    },
    {
      "inputs": [
        {
          "internalType": "uint256",
          "name": "id",
          "type": "uint256"
        }
      ],
      "name": "exists",
      "outputs": [
        {
          "internalType": "bool",
          "name": "",
          "type": "bool"
        }
      ],
      "stateMutability": "view",
      "type": "function"
    },
    {
      "inputs": [
        {
          "internalType": "string",
          "name": "_collectionInfo",
          "type": "string"
        },
        {
          "internalType": "string",
          "name": "_name",
          "type": "string"
        },
        {
          "internalType": "string",
          "name": "_symbol",
          "type": "string"
        },
        {
          "internalType": "address",
          "name": "_owner",
          "type": "address"
        },
        {
          "internalType": "uint96",
          "name": "_royaltyNumerator",
          "type": "uint96"
        },
        {
          "internalType": "address",
          "name": "_royaltyReciever",
          "type": "address"
        }
      ],
      "name": "initialize",
      "outputs": [],
      "stateMutability": "nonpayable",
      "type": "function"
    },
    {
      "inputs": [
        {
          "internalType": "address",
          "name": "account",
          "type": "address"
        },
        {
          "internalType": "address",
          "name": "operator",
          "type": "address"
        }
      ],
      "name": "isApprovedForAll",
      "outputs": [
        {
          "internalType": "bool",
          "name": "",
          "type": "bool"
        }
      ],
      "stateMutability": "view",
      "type": "function"
    },
    {
      "inputs": [
        {
          "internalType": "address",
          "name": "account",
          "type": "address"
        },
        {
          "internalType": "uint256",
          "name": "id",
          "type": "uint256"
        },
        {
          "internalType": "uint256",
          "name": "amount",
          "type": "uint256"
        }
      ],
      "name": "mint",
      "outputs": [],
      "stateMutability": "nonpayable",
      "type": "function"
    },
    {
      "inputs": [
        {
          "internalType": "address",
          "name": "to",
          "type": "address"
        },
        {
          "internalType": "uint256[]",
          "name": "ids",
          "type": "uint256[]"
        },
        {
          "internalType": "uint256[]",
          "name": "amounts",
          "type": "uint256[]"
        }
      ],
      "name": "mintBatch",
      "outputs": [],
      "stateMutability": "nonpayable",
      "type": "function"
    },
    {
      "inputs": [],
      "name": "name",
      "outputs": [
        {
          "internalType": "string",
          "name": "",
          "type": "string"
        }
      ],
      "stateMutability": "view",
      "type": "function"
    },
    {
      "inputs": [
        {
          "internalType": "uint256",
          "name": "id_",
          "type": "uint256"
        },
        {
          "internalType": "uint256",
          "name": "cap_",
          "type": "uint256"
        },
        {
          "internalType": "string",
          "name": "uri_",
          "type": "string"
        }
      ],
      "name": "newId",
      "outputs": [],
      "stateMutability": "nonpayable",
      "type": "function"
    },
    {
      "inputs": [],
      "name": "owner",
      "outputs": [
        {
          "internalType": "address",
          "name": "",
          "type": "address"
        }
      ],
      "stateMutability": "view",
      "type": "function"
    },
    {
      "inputs": [],
      "name": "renounceOwnership",
      "outputs": [],
      "stateMutability": "nonpayable",
      "type": "function"
    },
    {
      "inputs": [
        {
          "internalType": "uint256",
          "name": "tokenId",
          "type": "uint256"
        }
      ],
      "name": "resetTokenRoyalty",
      "outputs": [],
      "stateMutability": "nonpayable",
      "type": "function"
    },
    {
      "inputs": [
        {
          "internalType": "uint256",
          "name": "_tokenId",
          "type": "uint256"
        },
        {
          "internalType": "uint256",
          "name": "_salePrice",
          "type": "uint256"
        }
      ],
      "name": "royaltyInfo",
      "outputs": [
        {
          "internalType": "address",
          "name": "",
          "type": "address"
        },
        {
          "internalType": "uint256",
          "name": "",
          "type": "uint256"
        }
      ],
      "stateMutability": "view",
      "type": "function"
    },
    {
      "inputs": [
        {
          "internalType": "address",
          "name": "from",
          "type": "address"
        },
        {
          "internalType": "address",
          "name": "to",
          "type": "address"
        },
        {
          "internalType": "uint256[]",
          "name": "ids",
          "type": "uint256[]"
        },
        {
          "internalType": "uint256[]",
          "name": "amounts",
          "type": "uint256[]"
        },
        {
          "internalType": "bytes",
          "name": "data",
          "type": "bytes"
        }
      ],
      "name": "safeBatchTransferFrom",
      "outputs": [],
      "stateMutability": "nonpayable",
      "type": "function"
    },
    {
      "inputs": [
        {
          "internalType": "address",
          "name": "from",
          "type": "address"
        },
        {
          "internalType": "address",
          "name": "to",
          "type": "address"
        },
        {
          "internalType": "uint256",
          "name": "id",
          "type": "uint256"
        },
        {
          "internalType": "uint256",
          "name": "amount",
          "type": "uint256"
        },
        {
          "internalType": "bytes",
          "name": "data",
          "type": "bytes"
        }
      ],
      "name": "safeTransferFrom",
      "outputs": [],
      "stateMutability": "nonpayable",
      "type": "function"
    },
    {
      "inputs": [
        {
          "internalType": "address",
          "name": "operator",
          "type": "address"
        },
        {
          "internalType": "bool",
          "name": "approved",
          "type": "bool"
        }
      ],
      "name": "setApprovalForAll",
      "outputs": [],
      "stateMutability": "nonpayable",
      "type": "function"
    },
    {
      "inputs": [
        {
          "internalType": "uint256",
          "name": "id",
          "type": "uint256"
        },
        {
          "internalType": "address",
          "name": "receiver",
          "type": "address"
        },
        {
          "internalType": "uint96",
          "name": "feeNumerator",
          "type": "uint96"
        }
      ],
      "name": "setTokenRoyalty",
      "outputs": [],
      "stateMutability": "nonpayable",
      "type": "function"
    },
    {
      "inputs": [
        {
          "internalType": "uint256",
          "name": "tokenId",
          "type": "uint256"
        },
        {
          "internalType": "string",
          "name": "newuri",
          "type": "string"
        }
      ],
      "name": "setURI",
      "outputs": [],
      "stateMutability": "nonpayable",
      "type": "function"
    },
    {
      "inputs": [
        {
          "internalType": "bytes4",
          "name": "interfaceId",
          "type": "bytes4"
        }
      ],
      "name": "supportsInterface",
      "outputs": [
        {
          "internalType": "bool",
          "name": "",
          "type": "bool"
        }
      ],
      "stateMutability": "view",
      "type": "function"
    },
    {
      "inputs": [],
      "name": "symbol",
      "outputs": [
        {
          "internalType": "string",
          "name": "",
          "type": "string"
        }
      ],
      "stateMutability": "view",
      "type": "function"
    },
    {
      "inputs": [
        {
          "internalType": "uint256",
          "name": "id",
          "type": "uint256"
        }
      ],
      "name": "totalSupply",
      "outputs": [
        {
          "internalType": "uint256",
          "name": "",
          "type": "uint256"
        }
      ],
      "stateMutability": "view",
      "type": "function"
    },
    {
      "inputs": [
        {
          "internalType": "address",
          "name": "newOwner",
          "type": "address"
        }
      ],
      "name": "transferOwnership",
      "outputs": [],
      "stateMutability": "nonpayable",
      "type": "function"
    },
    {
      "inputs": [
        {
          "internalType": "uint256",
          "name": "tokenId",
          "type": "uint256"
        }
      ],
      "name": "uri",
      "outputs": [
        {
          "internalType": "string",
          "name": "",
          "type": "string"
        }
      ],
      "stateMutability": "view",
      "type": "function"
    }
  ],
  "bytecode": "0x608060405234620000bf576037546001908181811c91168015620000b4575b60208210146200009e57601f811162000052575b600060375562000041620000c4565b50604051612eca9081620001888239f35b6037600052601f0160051c7f42a7b7dd785cd69714a189dffb3fd7d7174edc9ece837694ce50f7078f7c31ae908101905b81811062000092575062000032565b60008155820162000083565b634e487b7160e01b600052602260045260246000fd5b90607f16906200001e565b600080fd5b60005460ff8160081c16600014620001215760405162461bcd60e51b815260206004820152602e60248201526000805160206200305283398151915260448201526d191e481a5b9a5d1a585b1a5e995960921b6064820152608490fd5b60ff80821610156200013c5760ff191660ff17600055600190565b60405162461bcd60e51b815260206004820152602e60248201526000805160206200305283398151915260448201526d191e481a5b9a5d1a585b1a5e995960921b6064820152608490fdfe6080604052600436101561001257600080fd5b60003560e01c8062fdd58e1461215f57806301ffc9a7146120d757806306fdde03146120435780630e89341c14612024578063156e29f614611e395780632a55205a14611d8e5780632eb2c2d614611a8f5780634e1273f4146118f15780634f558e79146118bb5780635944c753146117855780636b20c45414611581578063715018a614611518578063862440e2146114c55780638a616bc0146114885780638da5cb5b1461145b57806395d89b41146113b5578063a22cb465146112d1578063aa1b103f146112a1578063b57c1caa146111e7578063bd85b039146111bb578063d670226d14610b80578063d81d0a1514610891578063e985e9c51461083b578063f242432a146104ce578063f2fde38b14610438578063f5298aca14610266578063fdd173b4146101805763ff2ad8e41461014f57600080fd5b3461017b57602036600319011261017b57600435600052603a6020526020604060002054604051908152f35b600080fd5b3461017b57600036600319011261017b576040516000603b546101a2816121ba565b8084529060019081811690811561023f57506001146101e4575b6101e0846101cc8186038261222a565b604051918291602083526020830190612280565b0390f35b603b600090815292507fbbe3212124853f8b0084a66a2d057c2966e251e132af3691db153ab65f0d1a4d5b8284106102275750505081016020016101cc826101bc565b8054602085870181019190915290930192810161020f565b60ff191660208087019190915292151560051b850190920192506101cc91508390506101bc565b3461017b57610274366122a5565b90916001600160a01b031690338214801561040f575b61029390612594565b8115906102a08215612dc4565b6102a98461282e565b936102b38261282e565b9260006040516102c28161220f565b526103bb575b60005b8551811015610329576102de818561256a565b51906102ea818861256a565b51600052603960205260406000208054928084106103135761030e9303905561255b565b6102cb565b634e487b7160e01b600052601160045260246000fd5b506000848282526020936034855260408320828452855280604084205461035282821015612e1c565b8585526034875260408520848652875203604084205560405190848252858201527fc3d58168c5ae7397731d063d5bbf3d657854427343f4c083240f7aacaa2d0f6260403392a460005260398152604060002054156103ae575b005b6033905260006040812055005b929060005b855181101561040757806103d7610402928661256a565b516103e2828961256a565b5160005260396020526103fb60406000209182546126ab565b905561255b565b6103c0565b5090926102c8565b5081600052603560205260406000203360005260205261029360ff60406000205416905061028a565b3461017b57602036600319011261017b5761045161218e565b60018060a01b0361046a8160005460101c163314612427565b81161561047a576103ac90612472565b60405162461bcd60e51b815260206004820152602660248201527f4f776e61626c653a206e6577206f776e657220697320746865207a65726f206160448201526564647265737360d01b6064820152608490fd5b3461017b5760a036600319011261017b576104e761218e565b6104ef6121a4565b906064356044356084356001600160401b03811161017b57610515903690600401612344565b6001600160a01b03938416933385148015610812575b61053490612594565b8516801561054281156125f2565b61054b8461282e565b906105558661282e565b9087156107d2575b61076f575b5050826000526020956034875260406000208660005287528460406000205461058d8282101561264c565b85600052603489526040600020886000528952036040600020558360005260348752604060002082600052875260406000206105ca8682546126ab565b90558186604051868152878a8201527fc3d58168c5ae7397731d063d5bbf3d657854427343f4c083240f7aacaa2d0f6260403392a43b61060657005b61064a93600087946040519687958694859363f23a6e6160e01b9b8c865233600487015260248601526044850152606484015260a0608484015260a4830190612280565b03925af160009181610740575b506107165750506001906106696127a2565b6308c379a0146106e1575b5061067b57005b60405162461bcd60e51b815260206004820152603460248201527f455243313135353a207472616e7366657220746f206e6f6e20455243313135356044820152732932b1b2b4bb32b91034b6b83632b6b2b73a32b960611b6064820152608490fd5b0390fd5b6106e96127c0565b90816106f55750610674565b6106dd60405192839262461bcd60e51b845260048401526024830190612280565b6001600160e01b0319161490506103ac5760405162461bcd60e51b8152806106dd60048201612759565b610761919250843d8611610768575b610759818361222a565b810190612739565b9084610657565b503d61074f565b949195926000979491975b88518110156107c25761078d818861256a565b5190610799818b61256a565b5160005260396020526040600020805492808410610313576107bd9303905561255b565b61077a565b5092959194509295508680610562565b969390979491959260005b875181101561080457806107f46107ff928c61256a565b516103e2828b61256a565b6107dd565b50929591949790939661055d565b5084600052603560205260406000203360005260205261053460ff60406000205416905061052b565b3461017b57604036600319011261017b5761085461218e565b61085c6121a4565b9060018060a01b03809116600052603560205260406000209116600052602052602060ff604060002054166040519015158152f35b3461017b5761089f366123ce565b9060018060a01b03916108ba8360005460101c163314612427565b6040516108c68161220f565b6000815260005b835181101561093457806108e461092f928661256a565b5160005261092a602060398152603a61090d604060002054610906868a61256a565b51906126ab565b91610918858a61256a565b51600052526040600020541015612d22565b61255b565b6108cd565b50928416938415946109468615612d6e565b61095384518451146126b7565b60005b845181101561097d578061096d610978928661256a565b516103e2828861256a565b610956565b5090918486610b29575b60005b85518110156109d657806109a16109d1928561256a565b516109ac828961256a565b5160005260206034815260406000209087600052526103fb60406000209182546126ab565b61098a565b5091928360006040517f4a39dc06d4c0dbc64b70af90fd698a233a518aa5d07e595d983b8c0526c8f7fb339180610a0e888c83612714565b0390a43b610a1857005b610a7b926020926000604051809681958294610a6c610a5963bc197c8160e01b9c8d875233600488015287602488015260a0604488015260a487019061239a565b600319938487830301606488015261239a565b91848303016084850152612280565b03925af160009181610b09575b50610ae15750506001610a996127a2565b6308c379a014610aaa575b61067b57005b610ab26127c0565b80610abd5750610aa4565b60405162461bcd60e51b8152602060048201529081906106dd906024830190612280565b6001600160e01b031916146103ac5760405162461bcd60e51b8152806106dd60048201612759565b610b2291925060203d811161076857610759818361222a565b9083610a88565b92909160005b8551811015610b7757610b42818561256a565b5190610b4e818861256a565b516000526039602052604060002080549280841061031357610b729303905561255b565b610b2f565b50919092610987565b3461017b5760c036600319011261017b576004356001600160401b03811161017b57610bb0903690600401612344565b6024356001600160401b03811161017b57610bcf903690600401612344565b906044356001600160401b03811161017b57610bef903690600401612344565b916001600160a01b03606435808216900361017b576001600160601b03608435166084350361017b5760a43591818316830361017b57610c2d6128b6565b93846111a7575b8051906001600160401b038211610f9d578190610c52603b546121ba565b601f811161113a575b50602090601f83116001146110b4576000926110a9575b50508160011b916000199060031b1c191617603b555b8051906001600160401b038211610f9d578190610ca6603c546121ba565b601f8111611032575b50602090601f8311600114610fbe57600092610fb3575b50508160011b916000199060031b1c191617603c555b83516001600160401b038111610f9d57610cf7603d546121ba565b601f8111610f38575b50602094601f8211600114610eb457948192939495600092610ea9575b50508160011b916000199060031b1c191617603d555b60ff60005460081c1615610e5057610d4c606435612472565b6001600160601b0360843516610d9d575b5050610d6557005b61ff0019600054166000557f7f26b83ff96e1f2b6a682f133852f6798a09c465da95921460cefb3847402498602060405160018152a1005b80821615610dff57610dbe6127106001600160601b036084351611156128f6565b604051610dca816121f4565b818316815260206001600160601b03608435169101526001600160601b0360a01b60843560a01b169116176032558180610d5d565b60405162461bcd60e51b8152602060048201526024808201527f436f6c6c656374696f6e3a20496e76616c696420526f79616c7479207265636560448201526334bb32b960e11b6064820152608490fd5b60405162461bcd60e51b815260206004820152602b60248201527f496e697469616c697a61626c653a20636f6e7472616374206973206e6f74206960448201526a6e697469616c697a696e6760a81b6064820152608490fd5b015190508580610d1d565b601f19821695603d6000527fece66cfdbd22e3f37d348a3d8e19074452862cd65fd4b9a11f0336d1ac6d1dc39160005b888110610f2057508360019596979810610f07575b505050811b01603d55610d33565b015160001960f88460031b161c19169055858080610ef9565b91926020600181928685015181550194019201610ee4565b603d6000527fece66cfdbd22e3f37d348a3d8e19074452862cd65fd4b9a11f0336d1ac6d1dc3601f830160051c81019160208410610f93575b601f0160051c01905b818110610f875750610d00565b60008155600101610f7a565b9091508190610f71565b634e487b7160e01b600052604160045260246000fd5b015190508680610cc6565b603c6000908152600080516020612e758339815191529350601f198516905b81811061101a5750908460019594939210611001575b505050811b01603c55610cdc565b015160001960f88460031b161c19169055868080610ff3565b92936020600181928786015181550195019301610fdd565b909150603c600052601f830160051c600080516020612e75833981519152019060208410611093575b90601f8493920160051c600080516020612e7583398151915201905b8181106110845750610caf565b60008155849350600101611077565b600080516020612e75833981519152915061105b565b015190508780610c72565b603b60009081527fbbe3212124853f8b0084a66a2d057c2966e251e132af3691db153ab65f0d1a4d9350601f198516905b8181106111225750908460019594939210611109575b505050811b01603b55610c88565b015160001960f88460031b161c191690558780806110fb565b929360206001819287860151815501950193016110e5565b909150603b6000527fbbe3212124853f8b0084a66a2d057c2966e251e132af3691db153ab65f0d1a4d601f840160051c8101602085106111a0575b90849392915b601f830160051c82018110611191575050610c5b565b6000815585945060010161117b565b5080611175565b61010061ff00196000541617600055610c34565b3461017b57602036600319011261017b5760043560005260396020526020604060002054604051908152f35b3461017b57606036600319011261017b576004356044356001600160401b03811161017b5761121a903690600401612344565b61123260018060a01b0360005460101c163314612427565b611249826000526039602052604060002054151590565b61126857816103ac92600052603a602052602435604060002055612955565b60405162461bcd60e51b8152602060048201526011602482015270696420616c72656164792065786973747360781b6044820152606490fd5b3461017b57600036600319011261017b576112ca60018060a01b0360005460101c163314612427565b6000603255005b3461017b57604036600319011261017b576112ea61218e565b6024359081151580920361017b576001600160a01b03169033821461135e57336000526035602052604060002082600052602052604060002060ff1981541660ff83161790556040519081527f17307eab39ab6107e8899845ad3d59bd9653f200f220920489ca2b5937696c3160203392a3005b60405162461bcd60e51b815260206004820152602960248201527f455243313135353a2073657474696e6720617070726f76616c20737461747573604482015268103337b91039b2b63360b91b6064820152608490fd5b3461017b57600036600319011261017b576040516000603d546113d7816121ba565b8084529060019081811690811561023f5750600114611400576101e0846101cc8186038261222a565b603d600090815292507fece66cfdbd22e3f37d348a3d8e19074452862cd65fd4b9a11f0336d1ac6d1dc35b8284106114435750505081016020016101cc826101bc565b8054602085870181019190915290930192810161142b565b3461017b57600036600319011261017b5760005460405160109190911c6001600160a01b03168152602090f35b3461017b57602036600319011261017b576114b160018060a01b0360005460101c163314612427565b600435600090815260336020526040812055005b3461017b57604036600319011261017b576024356001600160401b03811161017b576114f86103ac913690600401612344565b61151060018060a01b0360005460101c163314612427565b600435612955565b3461017b57600036600319011261017b5760008054601081901c6001600160a01b031690611547338314612427565b62010000600160b01b03191682556040519082907f8be0079c531659141344cd1fd0a4f28419497f9722a3daafe3b4186f6b6457e08284a3f35b3461017b5761158f366123ce565b90916001600160a01b031690338214801561175c575b6115ae90612594565b81156115ba8115612dc4565b6115c784518351146126b7565b60006040516115d58161220f565b5261172c575b60005b8351811015611626576115f1818361256a565b51906115fd818661256a565b5160005260396020526040600020805492808410610313576116219303905561255b565b6115de565b509060005b835181101561169a5780611642611695928661256a565b5161164d828661256a565b519080600052603460209080825260406000208760005282526040600020549261167985851015612e1c565b600052815260406000209086600052520360406000205561255b565b61162b565b506000917f4a39dc06d4c0dbc64b70af90fd698a233a518aa5d07e595d983b8c0526c8f7fb604051806116cf33948883612714565b0390a460005b81518110156103ac57806116ec611708928461256a565b516000526020603981526040600020541561170d575b5061255b565b6116d5565b60339061171a838661256a565b51600052526000604081205583611702565b60005b83518110156117565780611746611751928461256a565b516103e2828761256a565b61172f565b506115db565b508160005260356020526040600020336000526020526115ae60ff6040600020541690506115a5565b3461017b57606036600319011261017b576004356117a16121a4565b604435906001600160601b03821680920361017b5760018060a01b03906117d08260005460101c163314612427565b6117e7846000526039602052604060002054151590565b6118845781906117fb6127108511156128f6565b1692831561183f5760405193611810856121f4565b84526020808501938452600091825260339052604090209251915160a01b6001600160a01b0319169116179055005b60405162461bcd60e51b815260206004820152601b60248201527f455243323938313a20496e76616c696420706172616d657465727300000000006044820152606490fd5b60405162461bcd60e51b815260206004820152600f60248201526e6e6f6e2d7a65726f20737570706c7960881b6044820152606490fd5b3461017b57602036600319011261017b5760206118e76004356000526039602052604060002054151590565b6040519015158152f35b3461017b57604036600319011261017b576004356001600160401b0380821161017b573660238301121561017b5781600401359061192e826122cf565b9261193c604051948561222a565b82845260209260248486019160051b8301019136831161017b57602401905b828210611a705750505060243590811161017b5761197d9036906004016122e6565b8251815103611a1957825192611992846122cf565b936119a0604051958661222a565b8085526119af601f19916122cf565b01368486013760005b8151811015611a02576119fd906119ed6001600160a01b036119da838661256a565b51166119e6838761256a565b51906124d5565b6119f7828861256a565b5261255b565b6119b8565b5050506101e060405192828493845283019061239a565b60405162461bcd60e51b815260048101839052602960248201527f455243313135353a206163636f756e747320616e6420696473206c656e677468604482015268040dad2e6dac2e8c6d60bb1b6064820152608490fd5b81356001600160a01b038116810361017b57815290840190840161195b565b3461017b5760031960a03682011261017b57611aa961218e565b90611ab26121a4565b906001600160401b039060443582811161017b57611ad49036906004016122e6565b60643583811161017b57611aec9036906004016122e6565b9260843590811161017b57611b05903690600401612344565b6001600160a01b03958616959092903387148015611d6a575b15611d0a57611b3083518651146126b7565b8516928315611b3f81156125f2565b8715611cce575b611c73575b60005b8351811015611bdc5780611b65611bd7928661256a565b51611b70828961256a565b519080600052603460209181835260406000208d6000528352838d60406000205490611b9e8383101561264c565b83600052848652604060002090600052855203604060002055600052815260406000209088600052526103fb60406000209182546126ab565b611b4e565b5090949392919382876040517f4a39dc06d4c0dbc64b70af90fd698a233a518aa5d07e595d983b8c0526c8f7fb339180611c178a8c83612714565b0390a43b611c2157005b6000602094610a7b610a6c97611c6394604051998a988997889663bc197c8160e01b9e8f89523360048a0152602489015260a0604489015260a488019061239a565b908487830301606488015261239a565b949195929060005b8751811015611cc357611c8e818761256a565b5190611c9a818a61256a565b516000526039602052604060002080549280841061031357611cbe9303905561255b565b611c7b565b509092959194611b4b565b95929693919060005b8851811015611cfe5780611cee611cf9928961256a565b516103e2828c61256a565b611cd7565b50909193969295611b46565b60405162461bcd60e51b815260206004820152603260248201527f455243313135353a207472616e736665722063616c6c6572206973206e6f74206044820152711bdddb995c881b9bdc88185c1c1c9bdd995960721b6064820152608490fd5b5086600052603560205260406000203360005260205260ff60406000205416611b1e565b3461017b57604036600319011261017b57602435600435600052603360205260406000209060405191611dc0836121f4565b546001600160a01b0380821680855260a09290921c6020850152929015611e17575b6001600160601b0360208201511682600019048111831515166103135760409361271092511692845193845202046020820152f35b50604051611e24816121f4565b603254838116825260a01c6020820152611de2565b3461017b57611e47366122a5565b60018060a09493941b03611e638160005460101c163314612427565b60405190611e708261220f565b6000825284600052603991602091838352611ea8611e93866040600020546126ab565b88600052603a85526040600020541015612d22565b851695861596611eb88815612d6e565b611ec18261282e565b95611ecb8161282e565b9360005b8851811015611f0d5780611ee6611f08928861256a565b51611ef1828c61256a565b516000528989526103fb60406000209182546126ab565b611ecf565b5088888888978d611fc0575b505050846000526034865260406000208460005286526040600020611f3f8482546126ab565b905583600060405187815285898201527fc3d58168c5ae7397731d063d5bbf3d657854427343f4c083240f7aacaa2d0f6260403392a43b611f7c57005b61064a928592600060405180968195829463f23a6e6160e01b9a8b85523360048601528560248601526044850152606484015260a0608484015260a4830190612280565b9360009895919692989793975b895181101561201357611fe0818761256a565b5190611fec818c61256a565b5160005288885260406000208054928084106103135761200e9303905561255b565b611fcd565b509350939650935093868080611f19565b3461017b57602036600319011261017b576101e06101cc600435612ae3565b3461017b57600036600319011261017b576040516000603c54612065816121ba565b8084529060019081811690811561023f575060011461208e576101e0846101cc8186038261222a565b603c60009081529250600080516020612e758339815191525b8284106120bf5750505081016020016101cc826101bc565b805460208587018101919091529093019281016120a7565b3461017b57602036600319011261017b5760043563ffffffff60e01b811680910361017b57602090636cdb3d1360e11b811490811561214e575b8115612123575b506040519015158152f35b63152a902d60e11b81149150811561213d575b5082612118565b6301ffc9a760e01b14905082612136565b6303a24d0760e21b81149150612111565b3461017b57604036600319011261017b57602061218661217d61218e565b602435906124d5565b604051908152f35b600435906001600160a01b038216820361017b57565b602435906001600160a01b038216820361017b57565b90600182811c921680156121ea575b60208310146121d457565b634e487b7160e01b600052602260045260246000fd5b91607f16916121c9565b604081019081106001600160401b03821117610f9d57604052565b602081019081106001600160401b03821117610f9d57604052565b90601f801991011681019081106001600160401b03821117610f9d57604052565b918091926000905b82821061226b575011612264575050565b6000910152565b91508060209183015181860152018291612253565b906020916122998151809281855285808601910161224b565b601f01601f1916010190565b606090600319011261017b576004356001600160a01b038116810361017b57906024359060443590565b6001600160401b038111610f9d5760051b60200190565b81601f8201121561017b578035916122fd836122cf565b9261230b604051948561222a565b808452602092838086019260051b82010192831161017b578301905b828210612335575050505090565b81358152908301908301612327565b81601f8201121561017b578035906001600160401b038211610f9d5760405192612378601f8401601f19166020018561222a565b8284526020838301011161017b57816000926020809301838601378301015290565b90815180825260208080930193019160005b8281106123ba575050505090565b8351855293810193928101926001016123ac565b606060031982011261017b576004356001600160a01b038116810361017b57916001600160401b0360243581811161017b578361240d916004016122e6565b9260443591821161017b57612424916004016122e6565b90565b1561242e57565b606460405162461bcd60e51b815260206004820152602060248201527f4f776e61626c653a2063616c6c6572206973206e6f7420746865206f776e65726044820152fd5b6000805462010000600160b01b03198116601084811b62010000600160b01b03169190911783556040516001600160a01b03948516949290911c909116917f8be0079c531659141344cd1fd0a4f28419497f9722a3daafe3b4186f6b6457e091a3565b6001600160a01b031690811561250257600052603460205260406000209060005260205260406000205490565b60405162461bcd60e51b815260206004820152602b60248201527f455243313135353a2062616c616e636520717565727920666f7220746865207a60448201526a65726f206164647265737360a81b6064820152608490fd5b60001981146103135760010190565b805182101561257e5760209160051b010190565b634e487b7160e01b600052603260045260246000fd5b1561259b57565b60405162461bcd60e51b815260206004820152602960248201527f455243313135353a2063616c6c6572206973206e6f74206f776e6572206e6f7260448201526808185c1c1c9bdd995960ba1b6064820152608490fd5b156125f957565b60405162461bcd60e51b815260206004820152602560248201527f455243313135353a207472616e7366657220746f20746865207a65726f206164604482015264647265737360d81b6064820152608490fd5b1561265357565b60405162461bcd60e51b815260206004820152602a60248201527f455243313135353a20696e73756666696369656e742062616c616e636520666f60448201526939103a3930b739b332b960b11b6064820152608490fd5b81198111610313570190565b156126be57565b60405162461bcd60e51b815260206004820152602860248201527f455243313135353a2069647320616e6420616d6f756e7473206c656e677468206044820152670dad2e6dac2e8c6d60c31b6064820152608490fd5b909161272b6124249360408452604084019061239a565b91602081840391015261239a565b9081602091031261017b57516001600160e01b03198116810361017b5790565b60809060208152602860208201527f455243313135353a204552433131353552656365697665722072656a656374656040820152676420746f6b656e7360c01b60608201520190565b60009060033d116127af57565b905060046000803e60005160e01c90565b600060443d1061242457604051600319913d83016004833e81516001600160401b03918282113d60248401111761281d57818401948551938411612825573d8501016020848701011161281d57506124249291016020019061222a565b949350505050565b50949350505050565b6040519061283b826121f4565b6001825260208201602036823782511561257e575290565b1561285a57565b60405162461bcd60e51b815260206004820152602e60248201527f496e697469616c697a61626c653a20636f6e747261637420697320616c72656160448201526d191e481a5b9a5d1a585b1a5e995960921b6064820152608490fd5b60005460ff8160081c166000146128d857506128d3303b15612853565b600090565b806128e9600160ff81941610612853565b60ff191617600055600190565b156128fd57565b60405162461bcd60e51b815260206004820152602a60248201527f455243323938313a20726f79616c7479206665652077696c6c206578636565646044820152692073616c65507269636560b01b6064820152608490fd5b9060008281526020906038825260408120908351906001600160401b038211612acf5761298283546121ba565b601f8111612a8c575b508390601f8311600114612a0557907f6bb7ff708619ba0610cba295a58592e0451dee2622938c8755667688daf3529b95836129fa575b50508160011b916000199060031b1c19161790555b6129e083612ae3565b906129f5604051928284938452830190612280565b0390a2565b0151905038806129c2565b91929394601f198416858452868420935b818110612a7557509160019391857f6bb7ff708619ba0610cba295a58592e0451dee2622938c8755667688daf3529b9897969410612a5c575b505050811b0190556129d7565b015160001960f88460031b161c19169055388080612a4f565b929387600181928786015181550195019301612a16565b838252848220601f840160051c810191868510612ac5575b601f0160051c01905b818110612aba575061298b565b828155600101612aad565b9091508190612aa4565b634e487b7160e01b81526041600452602490fd5b600090815260209060388252604081209060405190809183549281612b07856121ba565b9182825287820196600196898882169182600014612d04575050600114612cc6575b50612b369250038261222a565b805115612c0b576040519485938360375491612b51836121ba565b92818116908115612bea5750600114612b8a575b50505050612b7b6124249483925193849161224b565b0103601f19810183528261222a565b909192969450603782527f42a7b7dd785cd69714a189dffb3fd7d7174edc9ece837694ce50f7078f7c31ae5b838310612bd45750505061242494612b7b9185010192943880612b65565b8054898401890152889650918701918101612bb6565b60ff191688860152505050801515028401019150612b7b6124243880612b65565b5060405160365490949350849282612c22836121ba565b80865292828116908115612ca45750600114612c48575b5050506124249250038261222a565b603681527f4a11f94e20a93c79f6ec743a1954ec4fc2c08429ae2122118bf234b2185c81b895935091905b818310612c8c5750506124249350820101388080612c39565b85548784018501529485019486945091830191612c73565b9250505061242494925060ff191682840152151560051b820101388080612c39565b915050835281868085208686915b858310612ceb575050612b36935082010138612b29565b8091929450548385880101520191018790868593612cd4565b60ff19168a52612b3695151560051b8501019250389150612b299050565b15612d2957565b60405162461bcd60e51b815260206004820152601b60248201527f455243313135354361707065643a2063617020657863656564656400000000006044820152606490fd5b15612d7557565b60405162461bcd60e51b815260206004820152602160248201527f455243313135353a206d696e7420746f20746865207a65726f206164647265736044820152607360f81b6064820152608490fd5b15612dcb57565b60405162461bcd60e51b815260206004820152602360248201527f455243313135353a206275726e2066726f6d20746865207a65726f206164647260448201526265737360e81b6064820152608490fd5b15612e2357565b60405162461bcd60e51b8152602060048201526024808201527f455243313135353a206275726e20616d6f756e7420657863656564732062616c604482015263616e636560e01b6064820152608490fdfec6bb06cb7f92603de181bf256cd16846b93b752a170ff24824098b31aa008a7ea2646970667358221220ce6e0931f6914796d18e660111cb31152e91399919b5c4693ed2482ef17f653b64736f6c634300080f0033496e697469616c697a61626c653a20636f6e747261637420697320616c726561",
  "linkReferences": {},
  "deployedLinkReferences": {}
}