{
  "_format": "hh-sol-artifact-1",
  "contractName": "Collection1",
  "sourceName": "contracts/collection-factory/collection-1-factory/Collection1.sol",
  "abi": [
    {
      "inputs": [],
      "stateMutability": "nonpayable",
      "type": "constructor"
    },
    {
      "anonymous": false,
      "inputs": [
        {
          "indexed": true,
          "internalType": "address",
          "name": "owner",
          "type": "address"
        },
        {
          "indexed": true,
          "internalType": "address",
          "name": "approved",
          "type": "address"
        },
        {
          "indexed": true,
          "internalType": "uint256",
          "name": "tokenId",
          "type": "uint256"
        }
      ],
      "name": "Approval",
      "type": "event"
    },
    {
      "anonymous": false,
      "inputs": [
        {
          "indexed": true,
          "internalType": "address",
          "name": "owner",
          "type": "address"
        },
        {
          "indexed": true,
          "internalType": "address",
          "name": "operator",
          "type": "address"
        },
        {
          "indexed": false,
          "internalType": "bool",
          "name": "approved",
          "type": "bool"
        }
      ],
      "name": "ApprovalForAll",
      "type": "event"
    },
    {
      "anonymous": false,
      "inputs": [
        {
          "indexed": false,
          "internalType": "uint8",
          "name": "version",
          "type": "uint8"
        }
      ],
      "name": "Initialized",
      "type": "event"
    },
    {
      "anonymous": false,
      "inputs": [
        {
          "indexed": true,
          "internalType": "address",
          "name": "previousOwner",
          "type": "address"
        },
        {
          "indexed": true,
          "internalType": "address",
          "name": "newOwner",
          "type": "address"
        }
      ],
      "name": "OwnershipTransferred",
      "type": "event"
    },
    {
      "anonymous": false,
      "inputs": [
        {
          "indexed": true,
          "internalType": "address",
          "name": "from",
          "type": "address"
        },
        {
          "indexed": true,
          "internalType": "address",
          "name": "to",
          "type": "address"
        },
        {
          "indexed": true,
          "internalType": "uint256",
          "name": "tokenId",
          "type": "uint256"
        }
      ],
      "name": "Transfer",
      "type": "event"
    },
    {
      "inputs": [],
      "name": "_creator_",
      "outputs": [
        {
          "internalType": "string",
          "name": "",
          "type": "string"
        }
      ],
      "stateMutability": "view",
      "type": "function"
    },
    {
      "inputs": [
        {
          "internalType": "address",
          "name": "to",
          "type": "address"
        },
        {
          "internalType": "uint256",
          "name": "tokenId",
          "type": "uint256"
        }
      ],
      "name": "approve",
      "outputs": [],
      "stateMutability": "nonpayable",
      "type": "function"
    },
    {
      "inputs": [
        {
          "internalType": "address",
          "name": "owner",
          "type": "address"
        }
      ],
      "name": "balanceOf",
      "outputs": [
        {
          "internalType": "uint256",
          "name": "",
          "type": "uint256"
        }
      ],
      "stateMutability": "view",
      "type": "function"
    },
    {
      "inputs": [
        {
          "internalType": "uint256",
          "name": "tokenId",
          "type": "uint256"
        }
      ],
      "name": "burn",
      "outputs": [],
      "stateMutability": "nonpayable",
      "type": "function"
    },
    {
      "inputs": [],
      "name": "deleteDefaultRoyalty",
      "outputs": [],
      "stateMutability": "nonpayable",
      "type": "function"
    },
    {
      "inputs": [
        {
          "internalType": "uint256",
          "name": "tokenId",
          "type": "uint256"
        }
      ],
      "name": "getApproved",
      "outputs": [
        {
          "internalType": "address",
          "name": "",
          "type": "address"
        }
      ],
      "stateMutability": "view",
      "type": "function"
    },
    {
      "inputs": [
        {
          "internalType": "string",
          "name": "_creator",
          "type": "string"
        },
        {
          "internalType": "string",
          "name": "_name",
          "type": "string"
        },
        {
          "internalType": "string",
          "name": "_symbol",
          "type": "string"
        },
        {
          "internalType": "address",
          "name": "_owner",
          "type": "address"
        },
        {
          "internalType": "uint96",
          "name": "_royaltyNumerator",
          "type": "uint96"
        },
        {
          "internalType": "address",
          "name": "_royaltyReciever",
          "type": "address"
        }
      ],
      "name": "initialize",
      "outputs": [],
      "stateMutability": "nonpayable",
      "type": "function"
    },
    {
      "inputs": [
        {
          "internalType": "address",
          "name": "owner",
          "type": "address"
        },
        {
          "internalType": "address",
          "name": "operator",
          "type": "address"
        }
      ],
      "name": "isApprovedForAll",
      "outputs": [
        {
          "internalType": "bool",
          "name": "",
          "type": "bool"
        }
      ],
      "stateMutability": "view",
      "type": "function"
    },
    {
      "inputs": [],
      "name": "name",
      "outputs": [
        {
          "internalType": "string",
          "name": "",
          "type": "string"
        }
      ],
      "stateMutability": "view",
      "type": "function"
    },
    {
      "inputs": [],
      "name": "owner",
      "outputs": [
        {
          "internalType": "address",
          "name": "",
          "type": "address"
        }
      ],
      "stateMutability": "view",
      "type": "function"
    },
    {
      "inputs": [
        {
          "internalType": "uint256",
          "name": "tokenId",
          "type": "uint256"
        }
      ],
      "name": "ownerOf",
      "outputs": [
        {
          "internalType": "address",
          "name": "",
          "type": "address"
        }
      ],
      "stateMutability": "view",
      "type": "function"
    },
    {
      "inputs": [],
      "name": "renounceOwnership",
      "outputs": [],
      "stateMutability": "nonpayable",
      "type": "function"
    },
    {
      "inputs": [
        {
          "internalType": "uint256",
          "name": "tokenId",
          "type": "uint256"
        }
      ],
      "name": "resetTokenRoyalty",
      "outputs": [],
      "stateMutability": "nonpayable",
      "type": "function"
    },
    {
      "inputs": [
        {
          "internalType": "uint256",
          "name": "_tokenId",
          "type": "uint256"
        },
        {
          "internalType": "uint256",
          "name": "_salePrice",
          "type": "uint256"
        }
      ],
      "name": "royaltyInfo",
      "outputs": [
        {
          "internalType": "address",
          "name": "",
          "type": "address"
        },
        {
          "internalType": "uint256",
          "name": "",
          "type": "uint256"
        }
      ],
      "stateMutability": "view",
      "type": "function"
    },
    {
      "inputs": [
        {
          "internalType": "address",
          "name": "to",
          "type": "address"
        },
        {
          "internalType": "uint256",
          "name": "tokenId",
          "type": "uint256"
        },
        {
          "internalType": "string",
          "name": "uri",
          "type": "string"
        }
      ],
      "name": "safeMint",
      "outputs": [],
      "stateMutability": "nonpayable",
      "type": "function"
    },
    {
      "inputs": [
        {
          "internalType": "address",
          "name": "to",
          "type": "address"
        },
        {
          "internalType": "string",
          "name": "uri",
          "type": "string"
        }
      ],
      "name": "safeMint",
      "outputs": [],
      "stateMutability": "nonpayable",
      "type": "function"
    },
    {
      "inputs": [
        {
          "internalType": "address",
          "name": "from",
          "type": "address"
        },
        {
          "internalType": "address",
          "name": "to",
          "type": "address"
        },
        {
          "internalType": "uint256",
          "name": "tokenId",
          "type": "uint256"
        }
      ],
      "name": "safeTransferFrom",
      "outputs": [],
      "stateMutability": "nonpayable",
      "type": "function"
    },
    {
      "inputs": [
        {
          "internalType": "address",
          "name": "from",
          "type": "address"
        },
        {
          "internalType": "address",
          "name": "to",
          "type": "address"
        },
        {
          "internalType": "uint256",
          "name": "tokenId",
          "type": "uint256"
        },
        {
          "internalType": "bytes",
          "name": "_data",
          "type": "bytes"
        }
      ],
      "name": "safeTransferFrom",
      "outputs": [],
      "stateMutability": "nonpayable",
      "type": "function"
    },
    {
      "inputs": [
        {
          "internalType": "address",
          "name": "operator",
          "type": "address"
        },
        {
          "internalType": "bool",
          "name": "approved",
          "type": "bool"
        }
      ],
      "name": "setApprovalForAll",
      "outputs": [],
      "stateMutability": "nonpayable",
      "type": "function"
    },
    {
      "inputs": [
        {
          "internalType": "string",
          "name": "_creatorName",
          "type": "string"
        }
      ],
      "name": "setCreatorName",
      "outputs": [],
      "stateMutability": "nonpayable",
      "type": "function"
    },
    {
      "inputs": [
        {
          "internalType": "uint256",
          "name": "tokenId",
          "type": "uint256"
        },
        {
          "internalType": "address",
          "name": "receiver",
          "type": "address"
        },
        {
          "internalType": "uint96",
          "name": "feeNumerator",
          "type": "uint96"
        }
      ],
      "name": "setTokenRoyalty",
      "outputs": [],
      "stateMutability": "nonpayable",
      "type": "function"
    },
    {
      "inputs": [
        {
          "internalType": "bytes4",
          "name": "interfaceId",
          "type": "bytes4"
        }
      ],
      "name": "supportsInterface",
      "outputs": [
        {
          "internalType": "bool",
          "name": "",
          "type": "bool"
        }
      ],
      "stateMutability": "view",
      "type": "function"
    },
    {
      "inputs": [],
      "name": "symbol",
      "outputs": [
        {
          "internalType": "string",
          "name": "",
          "type": "string"
        }
      ],
      "stateMutability": "view",
      "type": "function"
    },
    {
      "inputs": [
        {
          "internalType": "uint256",
          "name": "tokenId",
          "type": "uint256"
        }
      ],
      "name": "tokenURI",
      "outputs": [
        {
          "internalType": "string",
          "name": "",
          "type": "string"
        }
      ],
      "stateMutability": "view",
      "type": "function"
    },
    {
      "inputs": [
        {
          "internalType": "address",
          "name": "from",
          "type": "address"
        },
        {
          "internalType": "address",
          "name": "to",
          "type": "address"
        },
        {
          "internalType": "uint256",
          "name": "tokenId",
          "type": "uint256"
        }
      ],
      "name": "transferFrom",
      "outputs": [],
      "stateMutability": "nonpayable",
      "type": "function"
    },
    {
      "inputs": [
        {
          "internalType": "address",
          "name": "newOwner",
          "type": "address"
        }
      ],
      "name": "transferOwnership",
      "outputs": [],
      "stateMutability": "nonpayable",
      "type": "function"
    }
  ],
  "bytecode": "0x6080604052346200002557620000146200002a565b50604051612a9d9081620000ee8239f35b600080fd5b60005460ff8160081c16600014620000875760405162461bcd60e51b815260206004820152602e602482015260008051602062002b8b83398151915260448201526d191e481a5b9a5d1a585b1a5e995960921b6064820152608490fd5b60ff8082161015620000a25760ff191660ff17600055600190565b60405162461bcd60e51b815260206004820152602e602482015260008051602062002b8b83398151915260448201526d191e481a5b9a5d1a585b1a5e995960921b6064820152608490fdfe60806040526004361015610013575b600080fd5b60003560e01c806301ffc9a71461021b57806306fdde0314610212578063081812fc14610209578063095ea7b31461020057806323b872dd146101f75780632a55205a146101ee57806342842e0e146101e557806342966c68146101dc5780635944c753146101d357806360eb9485146101ca5780636352211e146101c157806370a08231146101b8578063715018a6146101af5780638a616bc0146101a65780638da5cb5b1461019d57806395d89b4114610194578063a22cb4651461018b578063aa1b103f14610182578063b88d4fde14610179578063bb99e70114610170578063c87b56dd14610167578063cd279c7c1461015e578063d204c45e14610155578063d670226d1461014c578063e985e9c5146101435763f2fde38b1461013b57600080fd5b61000e6113aa565b5061000e61134c565b5061000e6112ba565b5061000e61120c565b5061000e6111a7565b5061000e611173565b5061000e6110ac565b5061000e610f6e565b5061000e610f3f565b5061000e610e52565b5061000e610daa565b5061000e610d7f565b5061000e610d40565b5061000e610cd9565b5061000e610c36565b5061000e610c17565b5061000e610aef565b5061000e610854565b5061000e6106b5565b5061000e61068c565b5061000e6105d5565b5061000e6105ab565b5061000e610486565b5061000e610413565b5061000e61032d565b5061000e610236565b6001600160e01b031981160361000e57565b503461000e57602036600319011261000e57602060043561025681610224565b63ffffffff60e01b166380ac58cd60e01b81149081156102ae575b8115610283575b506040519015158152f35b63152a902d60e11b81149150811561029d575b5038610278565b6301ffc9a760e01b14905038610296565b635b5e139f60e01b81149150610271565b918091926000905b8282106102df5750116102d8575050565b6000910152565b915080602091830151818601520182916102c7565b9060209161030d815180928185528580860191016102bf565b601f01601f1916010190565b90602061032a9281815201906102f4565b90565b503461000e5760008060031936011261041057604051908060975461035181610fce565b808552916001918083169081156103e6575060011461038b575b6103878561037b81870382610a43565b60405191829182610319565b0390f35b9250609783527f354a83ed9988f79f6038d4c7a7dadbad8af32f4ad6df893e0e5807a1b1944ff95b8284106103ce57505050810160200161037b8261038761036b565b805460208587018101919091529093019281016103b3565b8695506103879693506020925061037b94915060ff191682840152151560051b820101929361036b565b80fd5b503461000e57602036600319011261000e5760206104326004356115c6565b6040516001600160a01b039091168152f35b600435906001600160a01b038216820361000e57565b602435906001600160a01b038216820361000e57565b60a435906001600160a01b038216820361000e57565b503461000e57604036600319011261000e576104a0610444565b6024356104ac816114dc565b916001600160a01b038084169082168114610527576104de936104d99133149081156104e0575b50611554565b611ab7565b005b6001600160a01b03166000908152609c60205260409020610521915061051a9033905b9060018060a01b0316600052602052604060002090565b5460ff1690565b386104d3565b60405162461bcd60e51b815260206004820152602160248201527f4552433732313a20617070726f76616c20746f2063757272656e74206f776e656044820152603960f91b6064820152608490fd5b606090600319011261000e576001600160a01b0390600435828116810361000e5791602435908116810361000e579060443590565b503461000e576104de6105bd36610576565b916105d06105cb8433611774565b611658565b611929565b503461000e57604036600319011261000e5760243560043560005260666020526106026040600020611ce1565b80519091906001600160a01b03161561067c575b6103876106486001600160601b0360208501511693836000190485118415151661066f575b516001600160a01b031690565b6127106040519485940204908360209093929193604081019460018060a01b031681520152565b6106776118bc565b61063b565b9050610686611cbb565b90610616565b503461000e576104de61069e36610576565b90604051926106ac84610a28565b600084526116d1565b503461000e57602036600319011261000e576004356106d48133611774565b156107ca5761078b6106e5826114dc565b6106ee83611a61565b60018060a01b0316918060008481958252609a602052604082208054600181106107bd575b6000190190558282526099602052604080832080546001600160a01b0319169055517fddf252ad1be2c89b69c2b068fc378daa952ba7f163c4a11628f55a4df523b3ef908390a46107766107718260005260c9602052604060002090565b612737565b61079057600052606660205260006040812055565b604051f35b6107ac6107a78260005260c9602052604060002090565b612741565b600052606660205260006040812055565b6107c56118bc565b610713565b60405162461bcd60e51b815260206004820152603060248201527f4552433732314275726e61626c653a2063616c6c6572206973206e6f74206f7760448201526f1b995c881b9bdc88185c1c1c9bdd995960821b6064820152608490fd5b604435906001600160601b038216820361000e57565b608435906001600160601b038216820361000e57565b503461000e57606036600319011261000e5760043561087161045a565b610879610828565b61015f546001600160a01b03906108939082163314611442565b8061089d856114dc565b163303610974576108bb6127106001600160601b03841611156123a3565b82161561092f576104de926108f7610907926108e76108d8610a64565b6001600160a01b039096168652565b6001600160601b03166020850152565b6000526066602052604060002090565b815160209092015160a01b6001600160a01b0319166001600160a01b03909216919091179055565b60405162461bcd60e51b815260206004820152601b60248201527f455243323938313a20496e76616c696420706172616d657465727300000000006044820152606490fd5b60405162461bcd60e51b815260206004820152604160248201527f436f6c6c656374696f6e3a20796f75206d75737420626520746865206f776e6560448201527f72206f662074686520746f6b656e20746f207365742074686520726f79616c746064820152607960f81b608482015260a490fd5b50634e487b7160e01b600052604160045260246000fd5b604081019081106001600160401b03821117610a1b57604052565b610a236109e9565b604052565b602081019081106001600160401b03821117610a1b57604052565b90601f801991011681019081106001600160401b03821117610a1b57604052565b60405190610a7182610a00565b565b6020906001600160401b038111610a90575b601f01601f19160190565b610a986109e9565b610a85565b929192610aa982610a73565b91610ab76040519384610a43565b82948184528183011161000e578281602093846000960137010152565b9080601f8301121561000e5781602061032a93359101610a9d565b503461000e5760208060031936011261000e576001600160401b039060043582811161000e57610b23903690600401610ad4565b91610b3a60018060a01b0361015f54163314611442565b8251908111610c0a575b61019291610b5b82610b568554610fce565b611d1d565b80601f8311600114610b945750819293600092610b89575b50508160011b916000199060031b1c1916179055005b015190503880610b73565b90601f19831694610bb6610192600052600080516020612a4883398151915290565b926000905b878210610bf2575050836001959610610bd9575b505050811b019055005b015160001960f88460031b161c19169055388080610bcf565b80600185968294968601518155019501930190610bbb565b610c126109e9565b610b44565b503461000e57602036600319011261000e5760206104326004356114dc565b503461000e57602036600319011261000e576001600160a01b03610c58610444565b168015610c8157600052609a602052610387604060002054604051918291829190602083019252565b60405162461bcd60e51b815260206004820152602a60248201527f4552433732313a2062616c616e636520717565727920666f7220746865207a65604482015269726f206164647265737360b01b6064820152608490fd5b503461000e576000806003193601126104105761015f80546001600160a01b0381169190610d08338414611442565b6001600160a01b03191690556040519082907f8be0079c531659141344cd1fd0a4f28419497f9722a3daafe3b4186f6b6457e08284a3f35b503461000e57602036600319011261000e57610d6860018060a01b0361015f54163314611442565b6104de600435600052606660205260006040812055565b503461000e57600036600319011261000e5761015f546040516001600160a01b039091168152602090f35b503461000e57600080600319360112610410576040519080609854610dce81610fce565b808552916001918083169081156103e65750600114610df7576103878561037b81870382610a43565b9250609883527f2237a976fa961f5921fd19f2b03c925c725d77b20ce8f790c19709c03de4d8145b828410610e3a57505050810160200161037b8261038761036b565b80546020858701810191909152909301928101610e1f565b503461000e57604036600319011261000e57610e6c610444565b602435801515810361000e576001600160a01b03821691338314610efa5781610eb7610ec89233600052609c60205260406000209060018060a01b0316600052602052604060002090565b9060ff801983541691151516179055565b604051901515815233907f17307eab39ab6107e8899845ad3d59bd9653f200f220920489ca2b5937696c3190602090a3005b60405162461bcd60e51b815260206004820152601960248201527f4552433732313a20617070726f766520746f2063616c6c6572000000000000006044820152606490fd5b503461000e57600036600319011261000e57610f6760018060a01b0361015f54163314611442565b6000606555005b503461000e57608036600319011261000e57610f88610444565b610f9061045a565b606435916001600160401b03831161000e573660238401121561000e57610fc46104de933690602481600401359101610a9d565b91604435916116d1565b90600182811c92168015610ffe575b6020831014610fe857565b634e487b7160e01b600052602260045260246000fd5b91607f1691610fdd565b906040519182600082549261101c84610fce565b9081845260019485811690816000146110895750600114611046575b5050610a7192500383610a43565b9093915060005260209081600020936000915b818310611071575050610a7193508201013880611038565b85548884018501529485019487945091830191611059565b915050610a7194506020925060ff191682840152151560051b8201013880611038565b503461000e57600080600319360112610410576040519080610192908154906110d482610fce565b8086529260019280841690811561114657506001146110fe575b6103878661037b81880382610a43565b81529250600080516020612a488339815191525b82841061112e57505050810160200161037b82610387386110ee565b80546020858701810191909152909301928101611112565b90508695506103879693506020925061037b94915060ff191682840152151560051b8201019293386110ee565b503461000e57602036600319011261000e576103876111936004356127a0565b6040519182916020835260208301906102f4565b503461000e57606036600319011261000e576111c1610444565b604435906024356001600160401b03831161000e57611207816111eb6104de953690600401610ad4565b9361120260018060a01b0361015f54163314611442565b612497565b6125d4565b503461000e57604036600319011261000e57611226610444565b6024356001600160401b03811161000e57611245903690600401610ad4565b61125b60018060a01b0361015f54163314611442565b6000908192600180805b61127a575b8461078b85886112078188612497565b94909415611297575b506101918054808601909155938381611265565b6000818152609960205260409020546001600160a01b031661128357938061126a565b503461000e5760c036600319011261000e576001600160401b0360043581811161000e576112ec903690600401610ad4565b60243582811161000e57611304903690600401610ad4565b9160443590811161000e5761131d903690600401610ad4565b916064356001600160a01b038116810361000e576104de9361133d61083e565b92611346610470565b94611f4a565b503461000e57604036600319011261000e57602060ff61139e61136d610444565b61137561045a565b6001600160a01b039182166000908152609c865260408082209290931681526020919091522090565b54166040519015158152f35b503461000e57602036600319011261000e576113c4610444565b61015f546001600160a01b03906113de9082163314611442565b8116156113ee576104de9061148d565b60405162461bcd60e51b815260206004820152602660248201527f4f776e61626c653a206e6577206f776e657220697320746865207a65726f206160448201526564647265737360d01b6064820152608490fd5b1561144957565b606460405162461bcd60e51b815260206004820152602060248201527f4f776e61626c653a2063616c6c6572206973206e6f7420746865206f776e65726044820152fd5b61015f80546001600160a01b039283166001600160a01b031982168117909255604051919216907f8be0079c531659141344cd1fd0a4f28419497f9722a3daafe3b4186f6b6457e090600090a3565b6000908152609960205260409020546001600160a01b031680156114fd5790565b60405162461bcd60e51b815260206004820152602960248201527f4552433732313a206f776e657220717565727920666f72206e6f6e657869737460448201526832b73a103a37b5b2b760b91b6064820152608490fd5b1561155b57565b60405162461bcd60e51b815260206004820152603860248201527f4552433732313a20617070726f76652063616c6c6572206973206e6f74206f7760448201527f6e6572206e6f7220617070726f76656420666f7220616c6c00000000000000006064820152608490fd5b6000818152609960205260409020546001600160a01b0316156115fe576000908152609b60205260409020546001600160a01b031690565b60405162461bcd60e51b815260206004820152602c60248201527f4552433732313a20617070726f76656420717565727920666f72206e6f6e657860448201526b34b9ba32b73a103a37b5b2b760a11b6064820152608490fd5b1561165f57565b60405162461bcd60e51b815260206004820152603160248201527f4552433732313a207472616e736665722063616c6c6572206973206e6f74206f6044820152701ddb995c881b9bdc88185c1c1c9bdd9959607a1b6064820152608490fd5b604051906116cb82610a28565b60008252565b91610a7193916116f8936116e86105cb8433611774565b6116f3838383611929565b611c7f565b611750565b60809060208152603260208201527f4552433732313a207472616e7366657220746f206e6f6e20455243373231526560408201527131b2b4bb32b91034b6b83632b6b2b73a32b960711b60608201520190565b1561175757565b60405162461bcd60e51b815280611770600482016116fd565b0390fd5b6000828152609960205260409020546001600160a01b03161561180a5761179a826114dc565b9160018060a01b03908183169282851684149485156117d9575b505083156117c3575b50505090565b6117cf919293506115c6565b16143880806117bd565b6001600160a01b03166000908152609c6020526040902091945060ff916118009190610503565b54169238806117b4565b60405162461bcd60e51b815260206004820152602c60248201527f4552433732313a206f70657261746f7220717565727920666f72206e6f6e657860448201526b34b9ba32b73a103a37b5b2b760a11b6064820152608490fd5b1561186b57565b60405162461bcd60e51b8152602060048201526024808201527f4552433732313a207472616e7366657220746f20746865207a65726f206164646044820152637265737360e01b6064820152608490fd5b50634e487b7160e01b600052601160045260246000fd5b600181106118e3575b6000190190565b6118eb6118bc565b6118dc565b6001906001198111611900570190565b6119086118bc565b0190565b801960301161191c575b60300190565b6119246118bc565b611916565b90611933836114dc565b6001600160a01b038381169290918216839003611a0e576119826119e59282169461195f861515611864565b61196887611a61565b6001600160a01b03166000908152609a6020526040902090565b61198c81546118d3565b90556001600160a01b0381166000908152609a602052604090206119b081546118f0565b90556119c6856000526099602052604060002090565b80546001600160a01b0319166001600160a01b03909216919091179055565b7fddf252ad1be2c89b69c2b068fc378daa952ba7f163c4a11628f55a4df523b3ef6000604051a4565b60405162461bcd60e51b815260206004820152602560248201527f4552433732313a207472616e736665722066726f6d20696e636f72726563742060448201526437bbb732b960d91b6064820152608490fd5b6000818152609b6020526040812080546001600160a01b03191690556001600160a01b03611a8e836114dc565b167f8c5be1e5ebec7d5bd14f71427d1e84f3dd0314c0f7b2291e5b200ac8c7c3b92582604051a4565b6000828152609b6020526040902080546001600160a01b0319166001600160a01b0383161790556001600160a01b0380611af0846114dc565b169116907f8c5be1e5ebec7d5bd14f71427d1e84f3dd0314c0f7b2291e5b200ac8c7c3b9256000604051a4565b9081602091031261000e575161032a81610224565b61032a939260809260018060a01b0316825260006020830152604082015281606082015201906102f4565b6001600160a01b03918216815291166020820152604081019190915260806060820181905261032a929101906102f4565b3d15611bb9573d90611b9f82610a73565b91611bad6040519384610a43565b82523d6000602084013e565b606090565b909190803b15611c7757611bf0602091600093604051948580948193630a85bd0160e11b998a84523360048501611b32565b03926001600160a01b03165af160009181611c47575b50611c3957611c13611b8e565b80519081611c345760405162461bcd60e51b815280611770600482016116fd565b602001fd5b6001600160e01b0319161490565b611c6991925060203d8111611c70575b611c618183610a43565b810190611b1d565b9038611c06565b503d611c57565b505050600190565b92909190823b15611cb257611bf0926020926000604051809681958294630a85bd0160e11b9a8b85523360048601611b5d565b50505050600190565b60405190611cc882610a00565b6065546001600160a01b038116835260a01c6020830152565b90604051611cee81610a00565b91546001600160a01b038116835260a01c6020830152565b818110611d11575050565b60008155600101611d06565b90601f8211611d2a575050565b610a7191610192600052600080516020612a48833981519152906020601f840160051c83019310611d63575b601f0160051c0190611d06565b9091508190611d56565b90601f8211611d7a575050565b610a719160976000527f354a83ed9988f79f6038d4c7a7dadbad8af32f4ad6df893e0e5807a1b1944ff9906020601f840160051c83019310611d6357601f0160051c0190611d06565b90601f8211611dd0575050565b610a719160986000527f2237a976fa961f5921fd19f2b03c925c725d77b20ce8f790c19709c03de4d814906020601f840160051c83019310611d6357601f0160051c0190611d06565b9190601f8111611e2857505050565b610a71926000526020600020906020601f840160051c83019310611d6357601f0160051c0190611d06565b9081516001600160401b038111611f3d575b611e7981611e74609854610fce565b611dc3565b602080601f8311600114611eb55750819293600092611eaa575b50508160011b916000199060031b1c191617609855565b015190503880611e93565b90601f19831694611ee860986000527f2237a976fa961f5921fd19f2b03c925c725d77b20ce8f790c19709c03de4d81490565b926000905b878210611f25575050836001959610611f0c575b505050811b01609855565b015160001960f88460031b161c19169055388080611f01565b80600185968294968601518155019501930190611eed565b611f456109e9565b611e65565b9493929190611f57612230565b95866120e7575b80516001600160401b0381116120da575b61019291611f8182610b568554610fce565b60209081601f841160011461205a57509180611fd597969492611fc0969460009261204f575b50508160011b916000199060031b1c1916179055612270565b611fc8612392565b611fd0612392565b6121b3565b6001600160601b03811661202b575b5050611fec57565b611ffc61ff001960005416600055565b604051600181527f7f26b83ff96e1f2b6a682f133852f6798a09c465da95921460cefb384740249890602090a1565b612048916120436001600160a01b03821615156120fb565b612402565b3880611fe4565b015190503880611fa7565b6101926000529190601f198416600080516020612a48833981519152936000905b8282106120c2575050926001928592611fc09896611fd59b9a9896106120a9575b505050811b019055612270565b015160001960f88460031b161c1916905538808061209c565b8060018697829497870151815501960194019061207b565b6120e26109e9565b611f6f565b61010061ff00196000541617600055611f5e565b1561210257565b60405162461bcd60e51b8152602060048201526024808201527f436f6c6c656374696f6e3a20496e76616c696420526f79616c7479207265636560448201526334bb32b960e11b6064820152608490fd5b1561215a57565b60405162461bcd60e51b815260206004820152602b60248201527f496e697469616c697a61626c653a20636f6e7472616374206973206e6f74206960448201526a6e697469616c697a696e6760a81b6064820152608490fd5b610a71906121c860ff60005460081c16612153565b61148d565b156121d457565b60405162461bcd60e51b815260206004820152602e60248201527f496e697469616c697a61626c653a20636f6e747261637420697320616c72656160448201526d191e481a5b9a5d1a585b1a5e995960921b6064820152608490fd5b60005460ff8160081c16600014612252575061224d303b156121cd565b600090565b80612263600160ff819416106121cd565b60ff191617600055600190565b9061228b60ff60005460081c1661228681612153565b612153565b81516001600160401b038111612385575b6122b0816122ab609754610fce565b611d6d565b602080601f83116001146122f257508190610a71946000926122e7575b50508160011b916000199060031b1c191617609755611e53565b0151905038806122cd565b919293601f19841661232660976000527f354a83ed9988f79f6038d4c7a7dadbad8af32f4ad6df893e0e5807a1b1944ff990565b936000905b82821061236d575050916001939185610a7197969410612354575b505050811b01609755611e53565b015160001960f88460031b161c19169055388080612346565b8060018697829497870151815501960194019061232b565b61238d6109e9565b61229c565b610a7160ff60005460081c16612153565b156123aa57565b60405162461bcd60e51b815260206004820152602a60248201527f455243323938313a20726f79616c7479206665652077696c6c206578636565646044820152692073616c65507269636560b01b6064820152608490fd5b906001600160601b0381169161241c6127108411156123a3565b6001600160a01b031691821561245257602060405161243a81610a00565b848152015260a01b6001600160a01b03191617606555565b60405162461bcd60e51b815260206004820152601960248201527f455243323938313a20696e76616c6964207265636569766572000000000000006044820152606490fd5b906040516124a481610a28565b600081526001600160a01b038316918215612590576000818152609960205260409020546001600160a01b031661254b5783816116f8946124fa610a719760018060a01b0316600052609a602052604060002090565b61250481546118f0565b905561251e836119c6846000526099602052604060002090565b60007fddf252ad1be2c89b69c2b068fc378daa952ba7f163c4a11628f55a4df523b3ef81604051a4611bbe565b60405162461bcd60e51b815260206004820152601c60248201527f4552433732313a20746f6b656e20616c7265616479206d696e746564000000006044820152606490fd5b606460405162461bcd60e51b815260206004820152602060248201527f4552433732313a206d696e7420746f20746865207a65726f20616464726573736044820152fd5b6000818152609960205260409020549192916001600160a01b0316156126db57600052602060c981526040600020908351906001600160401b0382116126ce575b612629826126238554610fce565b85611e19565b80601f8311600114612663575081929394600092612658575b50508160011b916000199060031b1c1916179055565b015190503880612642565b90601f1983169561267985600052602060002090565b926000905b8882106126b65750508360019596971061269d575b505050811b019055565b015160001960f88460031b161c19169055388080612693565b8060018596829496860151815501950193019061267e565b6126d66109e9565b612615565b60405162461bcd60e51b815260206004820152602e60248201527f45524337323155524953746f726167653a2055524920736574206f66206e6f6e60448201526d32bc34b9ba32b73a103a37b5b2b760911b6064820152608490fd5b61032a9054610fce565b61274b8154610fce565b9081612755575050565b81601f60009311600114612767575055565b8183526020832061278391601f0160051c810190600101611d06565b8160208120915555565b90611908602092828151948592016102bf565b6000818152609960205260409020546001600160a01b03161561282f576127d96127d48260005260c9602052604060002090565b611008565b906127e26116be565b80511561282a5782516127fa575061032a915061288e565b61032a915061281c61281693604051948593602085019061278d565b9061278d565b03601f198101835282610a43565b505090565b60405162461bcd60e51b815260206004820152603160248201527f45524337323155524953746f726167653a2055524920717565727920666f72206044820152703737b732bc34b9ba32b73a103a37b5b2b760791b6064820152608490fd5b6000818152609960205260409020546001600160a01b0316156128ea576128b36116be565b8051909190156128e0576128169161281c6128d061032a9361296e565b604051948593602085019061278d565b505061032a6116be565b60405162461bcd60e51b815260206004820152602f60248201527f4552433732314d657461646174613a2055524920717565727920666f72206e6f60448201526e3732bc34b9ba32b73a103a37b5b2b760891b6064820152608490fd5b908151811015612958570160200190565b634e487b7160e01b600052603260045260246000fd5b8015612a2957806000908282935b612a03575061298a83610a73565b926129986040519485610a43565b80845281601f196129a883610a73565b013660208701375b6129ba5750505090565b6129c3906118d3565b90600a906129ee6129de6129d884840661190c565b60ff1690565b60f81b6001600160f81b03191690565b841a6129fa8487612947565b530490816129b0565b926001600a916000198114612a1c575b0193048061297c565b612a246118bc565b612a13565b50604051612a3681610a00565b60018152600360fc1b60208201529056fefcfced99f9d921eebdc59aa6f7a664084bd564a3d2d54ebc1a5c057c99c67abaa264697066735822122058eaa7400c31d5ba811792bf126c079e1c82ac9e258b43e2b81afbebc3b4512b64736f6c634300080f0033496e697469616c697a61626c653a20636f6e747261637420697320616c726561",
  "linkReferences": {},
  "deployedLinkReferences": {}
}