{
  "_format": "hh-sol-artifact-1",
  "contractName": "Collection",
  "sourceName": "contracts/Collection3.sol",
  "abi": [
    {
      "inputs": [],
      "stateMutability": "nonpayable",
      "type": "constructor"
    },
    {
      "anonymous": false,
      "inputs": [
        {
          "indexed": false,
          "internalType": "address",
          "name": "previousAdmin",
          "type": "address"
        },
        {
          "indexed": false,
          "internalType": "address",
          "name": "newAdmin",
          "type": "address"
        }
      ],
      "name": "AdminChanged",
      "type": "event"
    },
    {
      "anonymous": false,
      "inputs": [
        {
          "indexed": true,
          "internalType": "address",
          "name": "owner",
          "type": "address"
        },
        {
          "indexed": true,
          "internalType": "address",
          "name": "approved",
          "type": "address"
        },
        {
          "indexed": true,
          "internalType": "uint256",
          "name": "tokenId",
          "type": "uint256"
        }
      ],
      "name": "Approval",
      "type": "event"
    },
    {
      "anonymous": false,
      "inputs": [
        {
          "indexed": true,
          "internalType": "address",
          "name": "owner",
          "type": "address"
        },
        {
          "indexed": true,
          "internalType": "address",
          "name": "operator",
          "type": "address"
        },
        {
          "indexed": false,
          "internalType": "bool",
          "name": "approved",
          "type": "bool"
        }
      ],
      "name": "ApprovalForAll",
      "type": "event"
    },
    {
      "anonymous": false,
      "inputs": [
        {
          "indexed": true,
          "internalType": "address",
          "name": "beacon",
          "type": "address"
        }
      ],
      "name": "BeaconUpgraded",
      "type": "event"
    },
    {
      "anonymous": false,
      "inputs": [
        {
          "indexed": false,
          "internalType": "address",
          "name": "userAddr",
          "type": "address"
        },
        {
          "indexed": false,
          "internalType": "uint256",
          "name": "userBalance",
          "type": "uint256"
        },
        {
          "indexed": false,
          "internalType": "uint256",
          "name": "paidAmount",
          "type": "uint256"
        },
        {
          "indexed": false,
          "internalType": "string",
          "name": "text",
          "type": "string"
        },
        {
          "indexed": false,
          "internalType": "uint256",
          "name": "typeInt",
          "type": "uint256"
        },
        {
          "indexed": false,
          "internalType": "uint256",
          "name": "_commentIndex",
          "type": "uint256"
        }
      ],
      "name": "Comment",
      "type": "event"
    },
    {
      "anonymous": false,
      "inputs": [
        {
          "indexed": false,
          "internalType": "uint8",
          "name": "version",
          "type": "uint8"
        }
      ],
      "name": "Initialized",
      "type": "event"
    },
    {
      "anonymous": false,
      "inputs": [
        {
          "indexed": true,
          "internalType": "address",
          "name": "previousOwner",
          "type": "address"
        },
        {
          "indexed": true,
          "internalType": "address",
          "name": "newOwner",
          "type": "address"
        }
      ],
      "name": "OwnershipTransferred",
      "type": "event"
    },
    {
      "anonymous": false,
      "inputs": [
        {
          "indexed": false,
          "internalType": "address",
          "name": "_userAddr",
          "type": "address"
        },
        {
          "indexed": false,
          "internalType": "string",
          "name": "username",
          "type": "string"
        }
      ],
      "name": "Register",
      "type": "event"
    },
    {
      "anonymous": false,
      "inputs": [
        {
          "indexed": false,
          "internalType": "string",
          "name": "baseURI_",
          "type": "string"
        }
      ],
      "name": "SetBaseURI",
      "type": "event"
    },
    {
      "anonymous": false,
      "inputs": [
        {
          "indexed": false,
          "internalType": "string",
          "name": "_creatorName",
          "type": "string"
        }
      ],
      "name": "SetCreatorName",
      "type": "event"
    },
    {
      "anonymous": false,
      "inputs": [
        {
          "indexed": false,
          "internalType": "uint256",
          "name": "_maxSupply",
          "type": "uint256"
        }
      ],
      "name": "SetMaxSupply",
      "type": "event"
    },
    {
      "anonymous": false,
      "inputs": [
        {
          "indexed": true,
          "internalType": "address",
          "name": "from",
          "type": "address"
        },
        {
          "indexed": true,
          "internalType": "address",
          "name": "to",
          "type": "address"
        },
        {
          "indexed": true,
          "internalType": "uint256",
          "name": "tokenId",
          "type": "uint256"
        }
      ],
      "name": "Transfer",
      "type": "event"
    },
    {
      "anonymous": false,
      "inputs": [
        {
          "indexed": false,
          "internalType": "address",
          "name": "_userAddr",
          "type": "address"
        }
      ],
      "name": "UnRegister",
      "type": "event"
    },
    {
      "anonymous": false,
      "inputs": [
        {
          "indexed": true,
          "internalType": "address",
          "name": "implementation",
          "type": "address"
        }
      ],
      "name": "Upgraded",
      "type": "event"
    },
    {
      "inputs": [],
      "name": "_creator_",
      "outputs": [
        {
          "internalType": "string",
          "name": "",
          "type": "string"
        }
      ],
      "stateMutability": "view",
      "type": "function"
    },
    {
      "inputs": [
        {
          "internalType": "address",
          "name": "to",
          "type": "address"
        },
        {
          "internalType": "uint256",
          "name": "tokenId",
          "type": "uint256"
        }
      ],
      "name": "approve",
      "outputs": [],
      "stateMutability": "nonpayable",
      "type": "function"
    },
    {
      "inputs": [
        {
          "internalType": "address",
          "name": "owner",
          "type": "address"
        }
      ],
      "name": "balanceOf",
      "outputs": [
        {
          "internalType": "uint256",
          "name": "",
          "type": "uint256"
        }
      ],
      "stateMutability": "view",
      "type": "function"
    },
    {
      "inputs": [
        {
          "internalType": "uint256",
          "name": "tokenId",
          "type": "uint256"
        }
      ],
      "name": "burn",
      "outputs": [],
      "stateMutability": "nonpayable",
      "type": "function"
    },
    {
      "inputs": [
        {
          "internalType": "uint256[]",
          "name": "tokenId",
          "type": "uint256[]"
        }
      ],
      "name": "burnBatch",
      "outputs": [],
      "stateMutability": "nonpayable",
      "type": "function"
    },
    {
      "inputs": [
        {
          "internalType": "string",
          "name": "text",
          "type": "string"
        },
        {
          "internalType": "uint256",
          "name": "typeInt",
          "type": "uint256"
        }
      ],
      "name": "comment",
      "outputs": [],
      "stateMutability": "payable",
      "type": "function"
    },
    {
      "inputs": [],
      "name": "commentIndex",
      "outputs": [
        {
          "internalType": "uint256",
          "name": "",
          "type": "uint256"
        }
      ],
      "stateMutability": "view",
      "type": "function"
    },
    {
      "inputs": [],
      "name": "deleteDefaultRoyalty",
      "outputs": [],
      "stateMutability": "nonpayable",
      "type": "function"
    },
    {
      "inputs": [
        {
          "internalType": "uint256",
          "name": "tokenId",
          "type": "uint256"
        }
      ],
      "name": "getApproved",
      "outputs": [
        {
          "internalType": "address",
          "name": "",
          "type": "address"
        }
      ],
      "stateMutability": "view",
      "type": "function"
    },
    {
      "inputs": [],
      "name": "guestsCommentFee",
      "outputs": [
        {
          "internalType": "uint256",
          "name": "",
          "type": "uint256"
        }
      ],
      "stateMutability": "view",
      "type": "function"
    },
    {
      "inputs": [],
      "name": "initialize",
      "outputs": [],
      "stateMutability": "nonpayable",
      "type": "function"
    },
    {
      "inputs": [
        {
          "internalType": "address",
          "name": "owner",
          "type": "address"
        },
        {
          "internalType": "address",
          "name": "operator",
          "type": "address"
        }
      ],
      "name": "isApprovedForAll",
      "outputs": [
        {
          "internalType": "bool",
          "name": "",
          "type": "bool"
        }
      ],
      "stateMutability": "view",
      "type": "function"
    },
    {
      "inputs": [],
      "name": "maxSupply",
      "outputs": [
        {
          "internalType": "uint256",
          "name": "",
          "type": "uint256"
        }
      ],
      "stateMutability": "view",
      "type": "function"
    },
    {
      "inputs": [
        {
          "internalType": "uint256",
          "name": "numberOfTokens",
          "type": "uint256"
        }
      ],
      "name": "mintFee",
      "outputs": [
        {
          "internalType": "uint256",
          "name": "",
          "type": "uint256"
        }
      ],
      "stateMutability": "view",
      "type": "function"
    },
    {
      "inputs": [],
      "name": "name",
      "outputs": [
        {
          "internalType": "string",
          "name": "",
          "type": "string"
        }
      ],
      "stateMutability": "view",
      "type": "function"
    },
    {
      "inputs": [],
      "name": "owner",
      "outputs": [
        {
          "internalType": "address",
          "name": "",
          "type": "address"
        }
      ],
      "stateMutability": "view",
      "type": "function"
    },
    {
      "inputs": [
        {
          "internalType": "uint256",
          "name": "tokenId",
          "type": "uint256"
        }
      ],
      "name": "ownerName",
      "outputs": [
        {
          "internalType": "string",
          "name": "",
          "type": "string"
        }
      ],
      "stateMutability": "view",
      "type": "function"
    },
    {
      "inputs": [
        {
          "internalType": "uint256",
          "name": "tokenId",
          "type": "uint256"
        }
      ],
      "name": "ownerOf",
      "outputs": [
        {
          "internalType": "address",
          "name": "",
          "type": "address"
        }
      ],
      "stateMutability": "view",
      "type": "function"
    },
    {
      "inputs": [],
      "name": "proxiableUUID",
      "outputs": [
        {
          "internalType": "bytes32",
          "name": "",
          "type": "bytes32"
        }
      ],
      "stateMutability": "view",
      "type": "function"
    },
    {
      "inputs": [
        {
          "internalType": "string",
          "name": "_username",
          "type": "string"
        }
      ],
      "name": "register",
      "outputs": [],
      "stateMutability": "nonpayable",
      "type": "function"
    },
    {
      "inputs": [],
      "name": "renounceOwnership",
      "outputs": [],
      "stateMutability": "nonpayable",
      "type": "function"
    },
    {
      "inputs": [
        {
          "internalType": "uint256",
          "name": "_tokenId",
          "type": "uint256"
        },
        {
          "internalType": "uint256",
          "name": "_salePrice",
          "type": "uint256"
        }
      ],
      "name": "royaltyInfo",
      "outputs": [
        {
          "internalType": "address",
          "name": "",
          "type": "address"
        },
        {
          "internalType": "uint256",
          "name": "",
          "type": "uint256"
        }
      ],
      "stateMutability": "view",
      "type": "function"
    },
    {
      "inputs": [
        {
          "internalType": "address",
          "name": "to",
          "type": "address"
        }
      ],
      "name": "safeMint",
      "outputs": [],
      "stateMutability": "payable",
      "type": "function"
    },
    {
      "inputs": [
        {
          "internalType": "address",
          "name": "to",
          "type": "address"
        },
        {
          "internalType": "uint256",
          "name": "numberOfTokens",
          "type": "uint256"
        }
      ],
      "name": "safeMintBatch",
      "outputs": [],
      "stateMutability": "payable",
      "type": "function"
    },
    {
      "inputs": [
        {
          "internalType": "address",
          "name": "from",
          "type": "address"
        },
        {
          "internalType": "address",
          "name": "to",
          "type": "address"
        },
        {
          "internalType": "uint256",
          "name": "tokenId",
          "type": "uint256"
        }
      ],
      "name": "safeTransferFrom",
      "outputs": [],
      "stateMutability": "nonpayable",
      "type": "function"
    },
    {
      "inputs": [
        {
          "internalType": "address",
          "name": "from",
          "type": "address"
        },
        {
          "internalType": "address",
          "name": "to",
          "type": "address"
        },
        {
          "internalType": "uint256",
          "name": "tokenId",
          "type": "uint256"
        },
        {
          "internalType": "bytes",
          "name": "_data",
          "type": "bytes"
        }
      ],
      "name": "safeTransferFrom",
      "outputs": [],
      "stateMutability": "nonpayable",
      "type": "function"
    },
    {
      "inputs": [
        {
          "internalType": "address[]",
          "name": "from",
          "type": "address[]"
        },
        {
          "internalType": "address[]",
          "name": "to",
          "type": "address[]"
        },
        {
          "internalType": "uint256[]",
          "name": "tokenId",
          "type": "uint256[]"
        }
      ],
      "name": "safeTransferFromBatch",
      "outputs": [],
      "stateMutability": "nonpayable",
      "type": "function"
    },
    {
      "inputs": [
        {
          "internalType": "address",
          "name": "operator",
          "type": "address"
        },
        {
          "internalType": "bool",
          "name": "approved",
          "type": "bool"
        }
      ],
      "name": "setApprovalForAll",
      "outputs": [],
      "stateMutability": "nonpayable",
      "type": "function"
    },
    {
      "inputs": [
        {
          "internalType": "uint256",
          "name": "_baseMintFee",
          "type": "uint256"
        }
      ],
      "name": "setBaseMintFee",
      "outputs": [],
      "stateMutability": "nonpayable",
      "type": "function"
    },
    {
      "inputs": [
        {
          "internalType": "string",
          "name": "baseURI_",
          "type": "string"
        }
      ],
      "name": "setBaseURI",
      "outputs": [],
      "stateMutability": "nonpayable",
      "type": "function"
    },
    {
      "inputs": [
        {
          "internalType": "string",
          "name": "_creatorName",
          "type": "string"
        }
      ],
      "name": "setCreatorName",
      "outputs": [],
      "stateMutability": "nonpayable",
      "type": "function"
    },
    {
      "inputs": [
        {
          "internalType": "uint256",
          "name": "_guestsCommentFee",
          "type": "uint256"
        }
      ],
      "name": "setGuestsCommentFee",
      "outputs": [],
      "stateMutability": "nonpayable",
      "type": "function"
    },
    {
      "inputs": [
        {
          "internalType": "uint256",
          "name": "_maxSupply",
          "type": "uint256"
        }
      ],
      "name": "setMaxSupply",
      "outputs": [],
      "stateMutability": "nonpayable",
      "type": "function"
    },
    {
      "inputs": [
        {
          "internalType": "uint256",
          "name": "_mintFeeRatioNumerator",
          "type": "uint256"
        }
      ],
      "name": "setMintFeeRatioNumerator",
      "outputs": [],
      "stateMutability": "nonpayable",
      "type": "function"
    },
    {
      "inputs": [
        {
          "internalType": "uint256",
          "name": "_tokenHoldersCommentFee",
          "type": "uint256"
        }
      ],
      "name": "setTokenHoldersCommentFee",
      "outputs": [],
      "stateMutability": "nonpayable",
      "type": "function"
    },
    {
      "inputs": [
        {
          "internalType": "bytes4",
          "name": "interfaceId",
          "type": "bytes4"
        }
      ],
      "name": "supportsInterface",
      "outputs": [
        {
          "internalType": "bool",
          "name": "",
          "type": "bool"
        }
      ],
      "stateMutability": "view",
      "type": "function"
    },
    {
      "inputs": [],
      "name": "symbol",
      "outputs": [
        {
          "internalType": "string",
          "name": "",
          "type": "string"
        }
      ],
      "stateMutability": "view",
      "type": "function"
    },
    {
      "inputs": [
        {
          "internalType": "uint256",
          "name": "index",
          "type": "uint256"
        }
      ],
      "name": "tokenByIndex",
      "outputs": [
        {
          "internalType": "uint256",
          "name": "",
          "type": "uint256"
        }
      ],
      "stateMutability": "view",
      "type": "function"
    },
    {
      "inputs": [],
      "name": "tokenHoldersCommentFee",
      "outputs": [
        {
          "internalType": "uint256",
          "name": "",
          "type": "uint256"
        }
      ],
      "stateMutability": "view",
      "type": "function"
    },
    {
      "inputs": [
        {
          "internalType": "address",
          "name": "owner",
          "type": "address"
        },
        {
          "internalType": "uint256",
          "name": "index",
          "type": "uint256"
        }
      ],
      "name": "tokenOfOwnerByIndex",
      "outputs": [
        {
          "internalType": "uint256",
          "name": "",
          "type": "uint256"
        }
      ],
      "stateMutability": "view",
      "type": "function"
    },
    {
      "inputs": [
        {
          "internalType": "uint256",
          "name": "tokenId",
          "type": "uint256"
        }
      ],
      "name": "tokenURI",
      "outputs": [
        {
          "internalType": "string",
          "name": "",
          "type": "string"
        }
      ],
      "stateMutability": "view",
      "type": "function"
    },
    {
      "inputs": [],
      "name": "totalSupply",
      "outputs": [
        {
          "internalType": "uint256",
          "name": "",
          "type": "uint256"
        }
      ],
      "stateMutability": "view",
      "type": "function"
    },
    {
      "inputs": [
        {
          "internalType": "address",
          "name": "from",
          "type": "address"
        },
        {
          "internalType": "address",
          "name": "to",
          "type": "address"
        },
        {
          "internalType": "uint256",
          "name": "tokenId",
          "type": "uint256"
        }
      ],
      "name": "transferFrom",
      "outputs": [],
      "stateMutability": "nonpayable",
      "type": "function"
    },
    {
      "inputs": [
        {
          "internalType": "address",
          "name": "newOwner",
          "type": "address"
        }
      ],
      "name": "transferOwnership",
      "outputs": [],
      "stateMutability": "nonpayable",
      "type": "function"
    },
    {
      "inputs": [],
      "name": "unRegister",
      "outputs": [],
      "stateMutability": "nonpayable",
      "type": "function"
    },
    {
      "inputs": [
        {
          "internalType": "address",
          "name": "newImplementation",
          "type": "address"
        }
      ],
      "name": "upgradeTo",
      "outputs": [],
      "stateMutability": "nonpayable",
      "type": "function"
    },
    {
      "inputs": [
        {
          "internalType": "address",
          "name": "newImplementation",
          "type": "address"
        },
        {
          "internalType": "bytes",
          "name": "data",
          "type": "bytes"
        }
      ],
      "name": "upgradeToAndCall",
      "outputs": [],
      "stateMutability": "payable",
      "type": "function"
    },
    {
      "inputs": [
        {
          "internalType": "string",
          "name": "_username",
          "type": "string"
        }
      ],
      "name": "userBalance",
      "outputs": [
        {
          "internalType": "uint256",
          "name": "",
          "type": "uint256"
        }
      ],
      "stateMutability": "view",
      "type": "function"
    },
    {
      "inputs": [
        {
          "internalType": "address",
          "name": "userAddr",
          "type": "address"
        }
      ],
      "name": "username",
      "outputs": [
        {
          "internalType": "string",
          "name": "",
          "type": "string"
        }
      ],
      "stateMutability": "view",
      "type": "function"
    },
    {
      "inputs": [
        {
          "internalType": "uint256",
          "name": "amount",
          "type": "uint256"
        }
      ],
      "name": "withdraw",
      "outputs": [],
      "stateMutability": "nonpayable",
      "type": "function"
    }
  ],
  "bytecode": "0x60a0604052306080523480156200001557600080fd5b506200002062000026565b62000156565b6200003260ff62000035565b50565b60008054610100900460ff1615620000ce578160ff1660011480156200006e57506200006c306200014760201b62001e271760201c565b155b620000c65760405162461bcd60e51b815260206004820152602e602482015260008051602062003e5c83398151915260448201526d191e481a5b9a5d1a585b1a5e995960921b60648201526084015b60405180910390fd5b506000919050565b60005460ff8084169116106200012d5760405162461bcd60e51b815260206004820152602e602482015260008051602062003e5c83398151915260448201526d191e481a5b9a5d1a585b1a5e995960921b6064820152608401620000bd565b506000805460ff191660ff92909216919091179055600190565b6001600160a01b03163b151590565b608051613cce6200018e60003960008181610eae01528181610eee015281816110df0152818161111f01526112410152613cce6000f3fe6080604052600436106102c95760003560e01c80636352211e11610175578063aa1b103f116100dc578063d5abeb0111610095578063e985e9c51161006f578063e985e9c51461083b578063f2c298be14610884578063f2fde38b146108a4578063ffae01b0146108c457600080fd5b8063d5abeb01146107e4578063d72e780e146107fb578063e4623c1b1461081b57600080fd5b8063aa1b103f14610743578063b88d4fde14610758578063b8dcb01f14610778578063ba4e72ad14610798578063bb99e701146107af578063c87b56dd146107c457600080fd5b80638da5cb5b1161012e5780638da5cb5b1461069857806395d89b41146106b75780639c3d371c146106cc578063a1cebf44146106ec578063a22cb46514610703578063a9b449e01461072357600080fd5b80636352211e146105ee5780636f8b44b01461060e57806370a082311461062e578063715018a61461064e5780638129fc1c146106635780638a35ace31461067857600080fd5b80632f745c59116102345780634f1ef286116101ed57806352d1902d116101c757806352d1902d1461058657806355f804b31461059b5780635c751ff2146105bb57806360eb9485146105ce57600080fd5b80634f1ef2861461053c5780634f6ccce71461054f57806350a364001461056f57600080fd5b80632f745c59146104965780633659cfe6146104b657806340d097c3146104d657806342842e0e146104e957806342966c68146105095780634bc962481461052957600080fd5b806318160ddd1161028657806318160ddd146103cd57806323b872dd146103e257806325b5c6e31461040257806326d7b3b4146104225780632a55205a146104375780632e1a7d4d1461047657600080fd5b806301ffc9a7146102ce5780630610a7a21461030357806306fdde0314610330578063081812fc14610345578063095ea7b31461037d5780631536aedd1461039f575b600080fd5b3480156102da57600080fd5b506102ee6102e93660046131c8565b6108e4565b60405190151581526020015b60405180910390f35b34801561030f57600080fd5b5061032361031e3660046131fc565b6108f5565b6040516102fa919061326f565b34801561033c57600080fd5b506103236109a2565b34801561035157600080fd5b50610365610360366004613282565b610a34565b6040516001600160a01b0390911681526020016102fa565b34801561038957600080fd5b5061039d61039836600461329b565b610ace565b005b3480156103ab57600080fd5b506103bf6103ba36600461337c565b610be3565b6040519081526020016102fa565b3480156103d957600080fd5b5060cb546103bf565b3480156103ee57600080fd5b5061039d6103fd3660046133b1565b610c17565b34801561040e57600080fd5b5061039d61041d366004613282565b610c49565b34801561042e57600080fd5b5061039d610c7a565b34801561044357600080fd5b506104576104523660046133ed565b610d06565b604080516001600160a01b0390931683526020830191909152016102fa565b34801561048257600080fd5b5061039d610491366004613282565b610db2565b3480156104a257600080fd5b506103bf6104b136600461329b565b610e0e565b3480156104c257600080fd5b5061039d6104d13660046131fc565b610ea4565b61039d6104e43660046131fc565b610f83565b3480156104f557600080fd5b5061039d6105043660046133b1565b610fd2565b34801561051557600080fd5b5061039d610524366004613282565b610fed565b61039d61053736600461329b565b611064565b61039d61054a36600461340f565b6110d5565b34801561055b57600080fd5b506103bf61056a366004613282565b6111a1565b34801561057b57600080fd5b506103bf6101fe5481565b34801561059257600080fd5b506103bf611234565b3480156105a757600080fd5b5061039d6105b636600461337c565b6112e7565b61039d6105c936600461345d565b611361565b3480156105da57600080fd5b5061039d6105e936600461337c565b6114cb565b3480156105fa57600080fd5b50610365610609366004613282565b61153a565b34801561061a57600080fd5b5061039d610629366004613282565b6115b1565b34801561063a57600080fd5b506103bf6106493660046131fc565b61169e565b34801561065a57600080fd5b5061039d611725565b34801561066f57600080fd5b5061039d61175c565b34801561068457600080fd5b506103bf610693366004613282565b6118ad565b3480156106a457600080fd5b5061015f546001600160a01b0316610365565b3480156106c357600080fd5b506103236118e3565b3480156106d857600080fd5b506103236106e7366004613282565b6118f2565b3480156106f857600080fd5b506103bf6102005481565b34801561070f57600080fd5b5061039d61071e3660046134a2565b611900565b34801561072f57600080fd5b5061039d61073e366004613282565b61190b565b34801561074f57600080fd5b5061039d61193c565b34801561076457600080fd5b5061039d6107733660046134de565b611971565b34801561078457600080fd5b5061039d610793366004613637565b6119a9565b3480156107a457600080fd5b506103bf6101ff5481565b3480156107bb57600080fd5b50610323611a91565b3480156107d057600080fd5b506103236107df366004613282565b611b20565b3480156107f057600080fd5b506103bf6101f85481565b34801561080757600080fd5b5061039d610816366004613282565b611bfa565b34801561082757600080fd5b5061039d6108363660046136bf565b611c2b565b34801561084757600080fd5b506102ee6108563660046136f4565b6001600160a01b039182166000908152609c6020908152604080832093909416825291909152205460ff1690565b34801561089057600080fd5b5061039d61089f36600461337c565b611c6b565b3480156108b057600080fd5b5061039d6108bf3660046131fc565b611d5d565b3480156108d057600080fd5b5061039d6108df366004613282565b611df6565b60006108ef82611e36565b92915050565b6001600160a01b03811660009081526101f96020526040902080546060919061091d90613727565b80601f016020809104026020016040519081016040528092919081815260200182805461094990613727565b80156109965780601f1061096b57610100808354040283529160200191610996565b820191906000526020600020905b81548152906001019060200180831161097957829003601f168201915b50505050509050919050565b6060609780546109b190613727565b80601f01602080910402602001604051908101604052809291908181526020018280546109dd90613727565b8015610a2a5780601f106109ff57610100808354040283529160200191610a2a565b820191906000526020600020905b815481529060010190602001808311610a0d57829003601f168201915b5050505050905090565b6000818152609960205260408120546001600160a01b0316610ab25760405162461bcd60e51b815260206004820152602c60248201527f4552433732313a20617070726f76656420717565727920666f72206e6f6e657860448201526b34b9ba32b73a103a37b5b2b760a11b60648201526084015b60405180910390fd5b506000908152609b60205260409020546001600160a01b031690565b6000610ad98261153a565b9050806001600160a01b0316836001600160a01b031603610b465760405162461bcd60e51b815260206004820152602160248201527f4552433732313a20617070726f76616c20746f2063757272656e74206f776e656044820152603960f91b6064820152608401610aa9565b336001600160a01b0382161480610b625750610b628133610856565b610bd45760405162461bcd60e51b815260206004820152603860248201527f4552433732313a20617070726f76652063616c6c6572206973206e6f74206f7760448201527f6e6572206e6f7220617070726f76656420666f7220616c6c00000000000000006064820152608401610aa9565b610bde8383611e41565b505050565b60006108ef6101fa83604051610bf99190613761565b908152604051908190036020019020546001600160a01b031661169e565b610c22335b82611eaf565b610c3e5760405162461bcd60e51b8152600401610aa99061377d565b610bde838383611fa6565b61015f546001600160a01b03163314610c745760405162461bcd60e51b8152600401610aa9906137ce565b6101fb55565b3360009081526101f960205260409081902090516101fa91610c9b91613803565b908152604080516020928190038301902080546001600160a01b03191690553360009081526101f99092528120610cd1916130df565b6040513381527f630f28bb6372d0a747db8dcdb1a523bd9d875ddd96649c705325e60b239fc3c39060200160405180910390a1565b60008281526066602090815260408083208151808301909252546001600160a01b038116808352600160a01b9091046001600160601b0316928201929092528291610d7b5750604080518082019091526065546001600160a01b0381168252600160a01b90046001600160601b031660208201525b602081015160009061271090610d9a906001600160601b0316876138b4565b610da491906138e9565b915196919550909350505050565b61015f546001600160a01b03163314610ddd5760405162461bcd60e51b8152600401610aa9906137ce565b604051339082156108fc029083906000818181858888f19350505050158015610e0a573d6000803e3d6000fd5b5050565b6000610e198361169e565b8210610e7b5760405162461bcd60e51b815260206004820152602b60248201527f455243373231456e756d657261626c653a206f776e657220696e646578206f7560448201526a74206f6620626f756e647360a81b6064820152608401610aa9565b506001600160a01b0391909116600090815260c960209081526040808320938352929052205490565b6001600160a01b037f0000000000000000000000000000000000000000000000000000000000000000163003610eec5760405162461bcd60e51b8152600401610aa9906138fd565b7f00000000000000000000000000000000000000000000000000000000000000006001600160a01b0316610f35600080516020613c52833981519152546001600160a01b031690565b6001600160a01b031614610f5b5760405162461bcd60e51b8152600401610aa990613949565b610f648161214d565b60408051600080825260208201909252610f8091839190612178565b50565b6000610f8f6101f55490565b9050610f9a816122e3565b341015610fb95760405162461bcd60e51b8152600401610aa990613995565b610fc86101f580546001019055565b610e0a828261231d565b610bde83838360405180602001604052806000815250611971565b610ff633610c1c565b61105b5760405162461bcd60e51b815260206004820152603060248201527f4552433732314275726e61626c653a2063616c6c6572206973206e6f74206f7760448201526f1b995c881b9bdc88185c1c1c9bdd995960821b6064820152608401610aa9565b610f8081612337565b6110776110716101f55490565b82612340565b3410156110965760405162461bcd60e51b8152600401610aa990613995565b60005b81811015610bde576110b4836110af6101f55490565b61231d565b6110c36101f580546001019055565b806110cd816139d6565b915050611099565b6001600160a01b037f000000000000000000000000000000000000000000000000000000000000000016300361111d5760405162461bcd60e51b8152600401610aa9906138fd565b7f00000000000000000000000000000000000000000000000000000000000000006001600160a01b0316611166600080516020613c52833981519152546001600160a01b031690565b6001600160a01b03161461118c5760405162461bcd60e51b8152600401610aa990613949565b6111958261214d565b610e0a82826001612178565b60006111ac60cb5490565b821061120f5760405162461bcd60e51b815260206004820152602c60248201527f455243373231456e756d657261626c653a20676c6f62616c20696e646578206f60448201526b7574206f6620626f756e647360a01b6064820152608401610aa9565b60cb8281548110611222576112226139ef565b90600052602060002001549050919050565b6000306001600160a01b037f000000000000000000000000000000000000000000000000000000000000000016146112d45760405162461bcd60e51b815260206004820152603860248201527f555550535570677261646561626c653a206d757374206e6f742062652063616c60448201527f6c6564207468726f7567682064656c656761746563616c6c00000000000000006064820152608401610aa9565b50600080516020613c5283398151915290565b61015f546001600160a01b031633146113125760405162461bcd60e51b8152600401610aa9906137ce565b8051611326906101f7906020840190613119565b507f23c8c9488efebfd474e85a7956de6f39b17c7ab88502d42a623db2d8e382bbaa81604051611356919061326f565b60405180910390a150565b600061136c3361169e565b90503481156113e3576101fe5481116113de5760405162461bcd60e51b815260206004820152602e60248201527f436f6c6c656374696f6e3a20696e73756666696369656e742066656520666f7260448201526d103a37b5b2b72437b63232b9399760911b6064820152608401610aa9565b611445565b6101ff5481116114455760405162461bcd60e51b815260206004820152602760248201527f436f6c6c656374696f6e3a20696e73756666696369656e742066656520666f726044820152661033bab2b9ba1760c91b6064820152608401610aa9565b3360009081526101fd602052604081208054839290611465908490613a05565b9091555050610200546040517fb115fe19761893878cadbab8cfc5c7a04feb93c88ff56aa5c93a8430347973a2916114a7913391869186918a918a9190613a1d565b60405180910390a161020080549060006114c0836139d6565b919050555050505050565b61015f546001600160a01b031633146114f65760405162461bcd60e51b8152600401610aa9906137ce565b805161150a906101f6906020840190613119565b507f236f8389aa7c121fd00a2e18f64a0bf0789ab8925f9d80674426dc499590d85c81604051611356919061326f565b6000818152609960205260408120546001600160a01b0316806108ef5760405162461bcd60e51b815260206004820152602960248201527f4552433732313a206f776e657220717565727920666f72206e6f6e657869737460448201526832b73a103a37b5b2b760b91b6064820152608401610aa9565b61015f546001600160a01b031633146115dc5760405162461bcd60e51b8152600401610aa9906137ce565b6101f5548110156116685760405162461bcd60e51b815260206004820152604a60248201527f436f6c6c656374696f6e3a206d6178537570706c79206d75737420626520677260448201527f6561746572207468616e206f7220657175616c20746f20746865206375727265606482015269373a1039bab838363c9760b11b608482015260a401610aa9565b6101f88190556040518181527f3f8118fc46e72ecde0c5e090803cad8c88e817b2f1e93e820aa9bfbf51f2468d90602001611356565b60006001600160a01b0382166117095760405162461bcd60e51b815260206004820152602a60248201527f4552433732313a2062616c616e636520717565727920666f7220746865207a65604482015269726f206164647265737360b01b6064820152608401610aa9565b506001600160a01b03166000908152609a602052604090205490565b61015f546001600160a01b031633146117505760405162461bcd60e51b8152600401610aa9906137ce565b61175a6000612369565b565b600061176860016123bc565b90508015611780576000805461ff0019166101001790555b6040805180820190915260068082526552656e6f706560d01b60209092019182526117ae916101f691613119565b506117f66040518060400160405280600b81526020016a636f6c6c656374696f6e3360a81b81525060405180604001604052806002815260200161633360f01b815250612449565b6117fe61247a565b61180661247a565b61180f336124a1565b60408051602081019182905260009081905261182e916101f791613119565b5060646101f855611841306101f46124c8565b66b1a2bc2ec500006101fb5560c86101fc556611c37937e080006101fe55662386f26fc100006101ff558015610f80576000805461ff0019169055604051600181527f7f26b83ff96e1f2b6a682f133852f6798a09c465da95921460cefb384740249890602001611356565b6000806118ba6101f55490565b9050826001146118d3576118ce8184612340565b6118dc565b6118dc816122e3565b9392505050565b6060609880546109b190613727565b60606108ef61031e8361153a565b610e0a3383836125c5565b61015f546001600160a01b031633146119365760405162461bcd60e51b8152600401610aa9906137ce565b6101fc55565b61015f546001600160a01b031633146119675760405162461bcd60e51b8152600401610aa9906137ce565b61175a6000606555565b61197b3383611eaf565b6119975760405162461bcd60e51b8152600401610aa99061377d565b6119a384848484612693565b50505050565b805183511480156119bb575080518251145b611a1d5760405162461bcd60e51b815260206004820152602d60248201527f436f6c6c656374696f6e3a20796f75206d75737420656e7465722073616d652060448201526c6c656e6774682061727261797360981b6064820152608401610aa9565b60005b81518110156119a357611a7f848281518110611a3e57611a3e6139ef565b6020026020010151848381518110611a5857611a586139ef565b6020026020010151848481518110611a7257611a726139ef565b6020026020010151610fd2565b80611a89816139d6565b915050611a20565b6101f68054611a9f90613727565b80601f0160208091040260200160405190810160405280929190818152602001828054611acb90613727565b8015611b185780601f10611aed57610100808354040283529160200191611b18565b820191906000526020600020905b815481529060010190602001808311611afb57829003601f168201915b505050505081565b6000818152609960205260409020546060906001600160a01b0316611b9f5760405162461bcd60e51b815260206004820152602f60248201527f4552433732314d657461646174613a2055524920717565727920666f72206e6f60448201526e3732bc34b9ba32b73a103a37b5b2b760891b6064820152608401610aa9565b6000611ba96126c6565b90506000815111611bc957604051806020016040528060008152506118dc565b80611bd3846126d6565b604051602001611be4929190613a5f565b6040516020818303038152906040529392505050565b61015f546001600160a01b03163314611c255760405162461bcd60e51b8152600401610aa9906137ce565b6101ff55565b60005b8151811015610e0a57611c59828281518110611c4c57611c4c6139ef565b6020026020010151610fed565b80611c63816139d6565b915050611c2e565b60006001600160a01b03166101fa82604051611c879190613761565b908152604051908190036020019020546001600160a01b031614611d0a5760405162461bcd60e51b815260206004820152603460248201527f436f6c6c656374696f6e3a2074686520757365726e616d652068617320616c726044820152731958591e481899595b881c9959da5cdd195c995960621b6064820152608401610aa9565b3360009081526101f9602090815260409091208251611d2b92840190613119565b507f6ba0831d2f62ae5cbf7214bcc1d79c5da1d705f12811efda0beaa840006f874e3382604051611356929190613a8e565b61015f546001600160a01b03163314611d885760405162461bcd60e51b8152600401610aa9906137ce565b6001600160a01b038116611ded5760405162461bcd60e51b815260206004820152602660248201527f4f776e61626c653a206e6577206f776e657220697320746865207a65726f206160448201526564647265737360d01b6064820152608401610aa9565b610f8081612369565b61015f546001600160a01b03163314611e215760405162461bcd60e51b8152600401610aa9906137ce565b6101fe55565b6001600160a01b03163b151590565b60006108ef826127d7565b6000818152609b6020526040902080546001600160a01b0319166001600160a01b0384169081179091558190611e768261153a565b6001600160a01b03167f8c5be1e5ebec7d5bd14f71427d1e84f3dd0314c0f7b2291e5b200ac8c7c3b92560405160405180910390a45050565b6000818152609960205260408120546001600160a01b0316611f285760405162461bcd60e51b815260206004820152602c60248201527f4552433732313a206f70657261746f7220717565727920666f72206e6f6e657860448201526b34b9ba32b73a103a37b5b2b760a11b6064820152608401610aa9565b6000611f338361153a565b9050806001600160a01b0316846001600160a01b03161480611f7a57506001600160a01b038082166000908152609c602090815260408083209388168352929052205460ff165b80611f9e5750836001600160a01b0316611f9384610a34565b6001600160a01b0316145b949350505050565b826001600160a01b0316611fb98261153a565b6001600160a01b03161461201d5760405162461bcd60e51b815260206004820152602560248201527f4552433732313a207472616e736665722066726f6d20696e636f72726563742060448201526437bbb732b960d91b6064820152608401610aa9565b6001600160a01b03821661207f5760405162461bcd60e51b8152602060048201526024808201527f4552433732313a207472616e7366657220746f20746865207a65726f206164646044820152637265737360e01b6064820152608401610aa9565b61208a8383836127fc565b612095600082611e41565b6001600160a01b0383166000908152609a602052604081208054600192906120be908490613ab2565b90915550506001600160a01b0382166000908152609a602052604081208054600192906120ec908490613a05565b909155505060008181526099602052604080822080546001600160a01b0319166001600160a01b0386811691821790925591518493918716917fddf252ad1be2c89b69c2b068fc378daa952ba7f163c4a11628f55a4df523b3ef91a4505050565b61015f546001600160a01b03163314610f805760405162461bcd60e51b8152600401610aa9906137ce565b7f4910fdfa16fed3260ed0e7147f7cc6da11a60208b5b9406d12a635614ffd91435460ff16156121ab57610bde83612807565b826001600160a01b03166352d1902d6040518163ffffffff1660e01b8152600401602060405180830381865afa925050508015612205575060408051601f3d908101601f1916820190925261220291810190613ac9565b60015b6122685760405162461bcd60e51b815260206004820152602e60248201527f45524331393637557067726164653a206e657720696d706c656d656e7461746960448201526d6f6e206973206e6f74205555505360901b6064820152608401610aa9565b600080516020613c5283398151915281146122d75760405162461bcd60e51b815260206004820152602960248201527f45524331393637557067726164653a20756e737570706f727465642070726f786044820152681a58589b195555525160ba1b6064820152608401610aa9565b50610bde8383836128a3565b60006127106101fc54836101fb546122fb91906138b4565b61230591906138b4565b61230f91906138e9565b6101fb546108ef9190613a05565b610e0a8282604051806020016040528060008152506128c8565b610f80816128fb565b600061235f6123506002846138e9565b61235a9085613a05565b6122e3565b6118dc90836138b4565b61015f80546001600160a01b038381166001600160a01b0319831681179093556040519116919082907f8be0079c531659141344cd1fd0a4f28419497f9722a3daafe3b4186f6b6457e090600090a35050565b60008054610100900460ff1615612403578160ff1660011480156123df5750303b155b6123fb5760405162461bcd60e51b8152600401610aa990613ae2565b506000919050565b60005460ff80841691161061242a5760405162461bcd60e51b8152600401610aa990613ae2565b506000805460ff191660ff92909216919091179055600190565b919050565b600054610100900460ff166124705760405162461bcd60e51b8152600401610aa990613b30565b610e0a8282612915565b600054610100900460ff1661175a5760405162461bcd60e51b8152600401610aa990613b30565b600054610100900460ff16611ded5760405162461bcd60e51b8152600401610aa990613b30565b6127106001600160601b03821611156125365760405162461bcd60e51b815260206004820152602a60248201527f455243323938313a20726f79616c7479206665652077696c6c206578636565646044820152692073616c65507269636560b01b6064820152608401610aa9565b6001600160a01b03821661258c5760405162461bcd60e51b815260206004820152601960248201527f455243323938313a20696e76616c6964207265636569766572000000000000006044820152606401610aa9565b604080518082019091526001600160a01b039092168083526001600160601b039091166020909201829052600160a01b90910217606555565b816001600160a01b0316836001600160a01b0316036126265760405162461bcd60e51b815260206004820152601960248201527f4552433732313a20617070726f766520746f2063616c6c6572000000000000006044820152606401610aa9565b6001600160a01b038381166000818152609c6020908152604080832094871680845294825291829020805460ff191686151590811790915591519182527f17307eab39ab6107e8899845ad3d59bd9653f200f220920489ca2b5937696c31910160405180910390a3505050565b61269e848484611fa6565b6126aa84848484612963565b6119a35760405162461bcd60e51b8152600401610aa990613b7b565b60606101f780546109b190613727565b6060816000036126fd5750506040805180820190915260018152600360fc1b602082015290565b8160005b81156127275780612711816139d6565b91506127209050600a836138e9565b9150612701565b60008167ffffffffffffffff811115612742576127426132c5565b6040519080825280601f01601f19166020018201604052801561276c576020820181803683370190505b5090505b8415611f9e57612781600183613ab2565b915061278e600a86613bcd565b612799906030613a05565b60f81b8183815181106127ae576127ae6139ef565b60200101906001600160f81b031916908160001a9053506127d0600a866138e9565b9450612770565b60006001600160e01b0319821663780e9d6360e01b14806108ef57506108ef82612a64565b610bde838383612aa4565b6001600160a01b0381163b6128745760405162461bcd60e51b815260206004820152602d60248201527f455243313936373a206e657720696d706c656d656e746174696f6e206973206e60448201526c1bdd08184818dbdb9d1c9858dd609a1b6064820152608401610aa9565b600080516020613c5283398151915280546001600160a01b0319166001600160a01b0392909216919091179055565b6128ac83612b5c565b6000825111806128b95750805b15610bde576119a38383612b9c565b6128d28383612c90565b6128df6000848484612963565b610bde5760405162461bcd60e51b8152600401610aa990613b7b565b61290481612cec565b600090815260666020526040812055565b600054610100900460ff1661293c5760405162461bcd60e51b8152600401610aa990613b30565b815161294f906097906020850190613119565b508051610bde906098906020840190613119565b60006001600160a01b0384163b15612a5957604051630a85bd0160e11b81526001600160a01b0385169063150b7a02906129a7903390899088908890600401613be1565b6020604051808303816000875af19250505080156129e2575060408051601f3d908101601f191682019092526129df91810190613c1e565b60015b612a3f573d808015612a10576040519150601f19603f3d011682016040523d82523d6000602084013e612a15565b606091505b508051600003612a375760405162461bcd60e51b8152600401610aa990613b7b565b805181602001fd5b6001600160e01b031916630a85bd0160e11b149050611f9e565b506001949350505050565b60006001600160e01b031982166380ac58cd60e01b1480612a9557506001600160e01b03198216635b5e139f60e01b145b806108ef57506108ef82612d93565b6001600160a01b038316612aff57612afa8160cb8054600083815260cc60205260408120829055600182018355919091527fa7ce836d032b2bf62b7e2097a8e0a6d8aeb35405ad15271e96d3b0188a1d06fb0155565b612b22565b816001600160a01b0316836001600160a01b031614612b2257612b228382612dc8565b6001600160a01b038216612b3957610bde81612e65565b826001600160a01b0316826001600160a01b031614610bde57610bde8282612f14565b612b6581612807565b6040516001600160a01b038216907fbc7cd75a20ee27fd9adebab32041f755214dbc6bffa90cc0225b39da2e5c2d3b90600090a250565b60606001600160a01b0383163b612c045760405162461bcd60e51b815260206004820152602660248201527f416464726573733a2064656c65676174652063616c6c20746f206e6f6e2d636f6044820152651b9d1c9858dd60d21b6064820152608401610aa9565b600080846001600160a01b031684604051612c1f9190613761565b600060405180830381855af49150503d8060008114612c5a576040519150601f19603f3d011682016040523d82523d6000602084013e612c5f565b606091505b5091509150612c878282604051806060016040528060278152602001613c7260279139612f58565b95945050505050565b6101f8548110612ce25760405162461bcd60e51b815260206004820152601c60248201527f436f6c6c656374696f6e3a20496e76616c696420746f6b656e204964000000006044820152606401610aa9565b610e0a8282612f91565b6000612cf78261153a565b9050612d05816000846127fc565b612d10600083611e41565b6001600160a01b0381166000908152609a60205260408120805460019290612d39908490613ab2565b909155505060008281526099602052604080822080546001600160a01b0319169055518391906001600160a01b038416907fddf252ad1be2c89b69c2b068fc378daa952ba7f163c4a11628f55a4df523b3ef908390a45050565b60006001600160e01b0319821663152a902d60e11b14806108ef57506301ffc9a760e01b6001600160e01b03198316146108ef565b60006001612dd58461169e565b612ddf9190613ab2565b600083815260ca6020526040902054909150808214612e32576001600160a01b038416600090815260c960209081526040808320858452825280832054848452818420819055835260ca90915290208190555b50600091825260ca602090815260408084208490556001600160a01b03909416835260c981528383209183525290812055565b60cb54600090612e7790600190613ab2565b600083815260cc602052604081205460cb8054939450909284908110612e9f57612e9f6139ef565b906000526020600020015490508060cb8381548110612ec057612ec06139ef565b600091825260208083209091019290925582815260cc909152604080822084905585825281205560cb805480612ef857612ef8613c3b565b6001900381819060005260206000200160009055905550505050565b6000612f1f8361169e565b6001600160a01b03909316600090815260c960209081526040808320868452825280832085905593825260ca9052919091209190915550565b60608315612f675750816118dc565b825115612f775782518084602001fd5b8160405162461bcd60e51b8152600401610aa9919061326f565b6001600160a01b038216612fe75760405162461bcd60e51b815260206004820181905260248201527f4552433732313a206d696e7420746f20746865207a65726f20616464726573736044820152606401610aa9565b6000818152609960205260409020546001600160a01b03161561304c5760405162461bcd60e51b815260206004820152601c60248201527f4552433732313a20746f6b656e20616c7265616479206d696e746564000000006044820152606401610aa9565b613058600083836127fc565b6001600160a01b0382166000908152609a60205260408120805460019290613081908490613a05565b909155505060008181526099602052604080822080546001600160a01b0319166001600160a01b03861690811790915590518392907fddf252ad1be2c89b69c2b068fc378daa952ba7f163c4a11628f55a4df523b3ef908290a45050565b5080546130eb90613727565b6000825580601f106130fb575050565b601f016020900490600052602060002090810190610f80919061319d565b82805461312590613727565b90600052602060002090601f016020900481019282613147576000855561318d565b82601f1061316057805160ff191683800117855561318d565b8280016001018555821561318d579182015b8281111561318d578251825591602001919060010190613172565b5061319992915061319d565b5090565b5b80821115613199576000815560010161319e565b6001600160e01b031981168114610f8057600080fd5b6000602082840312156131da57600080fd5b81356118dc816131b2565b80356001600160a01b038116811461244457600080fd5b60006020828403121561320e57600080fd5b6118dc826131e5565b60005b8381101561323257818101518382015260200161321a565b838111156119a35750506000910152565b6000815180845261325b816020860160208601613217565b601f01601f19169290920160200192915050565b6020815260006118dc6020830184613243565b60006020828403121561329457600080fd5b5035919050565b600080604083850312156132ae57600080fd5b6132b7836131e5565b946020939093013593505050565b634e487b7160e01b600052604160045260246000fd5b604051601f8201601f1916810167ffffffffffffffff81118282101715613304576133046132c5565b604052919050565b600082601f83011261331d57600080fd5b813567ffffffffffffffff811115613337576133376132c5565b61334a601f8201601f19166020016132db565b81815284602083860101111561335f57600080fd5b816020850160208301376000918101602001919091529392505050565b60006020828403121561338e57600080fd5b813567ffffffffffffffff8111156133a557600080fd5b611f9e8482850161330c565b6000806000606084860312156133c657600080fd5b6133cf846131e5565b92506133dd602085016131e5565b9150604084013590509250925092565b6000806040838503121561340057600080fd5b50508035926020909101359150565b6000806040838503121561342257600080fd5b61342b836131e5565b9150602083013567ffffffffffffffff81111561344757600080fd5b6134538582860161330c565b9150509250929050565b6000806040838503121561347057600080fd5b823567ffffffffffffffff81111561348757600080fd5b6134938582860161330c565b95602094909401359450505050565b600080604083850312156134b557600080fd5b6134be836131e5565b9150602083013580151581146134d357600080fd5b809150509250929050565b600080600080608085870312156134f457600080fd5b6134fd856131e5565b935061350b602086016131e5565b925060408501359150606085013567ffffffffffffffff81111561352e57600080fd5b61353a8782880161330c565b91505092959194509250565b600067ffffffffffffffff821115613560576135606132c5565b5060051b60200190565b600082601f83011261357b57600080fd5b8135602061359061358b83613546565b6132db565b82815260059290921b840181019181810190868411156135af57600080fd5b8286015b848110156135d1576135c4816131e5565b83529183019183016135b3565b509695505050505050565b600082601f8301126135ed57600080fd5b813560206135fd61358b83613546565b82815260059290921b8401810191818101908684111561361c57600080fd5b8286015b848110156135d15780358352918301918301613620565b60008060006060848603121561364c57600080fd5b833567ffffffffffffffff8082111561366457600080fd5b6136708783880161356a565b9450602086013591508082111561368657600080fd5b6136928783880161356a565b935060408601359150808211156136a857600080fd5b506136b5868287016135dc565b9150509250925092565b6000602082840312156136d157600080fd5b813567ffffffffffffffff8111156136e857600080fd5b611f9e848285016135dc565b6000806040838503121561370757600080fd5b613710836131e5565b915061371e602084016131e5565b90509250929050565b600181811c9082168061373b57607f821691505b60208210810361375b57634e487b7160e01b600052602260045260246000fd5b50919050565b60008251613773818460208701613217565b9190910192915050565b60208082526031908201527f4552433732313a207472616e736665722063616c6c6572206973206e6f74206f6040820152701ddb995c881b9bdc88185c1c1c9bdd9959607a1b606082015260800190565b6020808252818101527f4f776e61626c653a2063616c6c6572206973206e6f7420746865206f776e6572604082015260600190565b600080835481600182811c91508083168061381f57607f831692505b6020808410820361383e57634e487b7160e01b86526022600452602486fd5b818015613852576001811461386357613890565b60ff19861689528489019650613890565b60008a81526020902060005b868110156138885781548b82015290850190830161386f565b505084890196505b509498975050505050505050565b634e487b7160e01b600052601160045260246000fd5b60008160001904831182151516156138ce576138ce61389e565b500290565b634e487b7160e01b600052601260045260246000fd5b6000826138f8576138f86138d3565b500490565b6020808252602c908201527f46756e6374696f6e206d7573742062652063616c6c6564207468726f7567682060408201526b19195b1959d85d1958d85b1b60a21b606082015260800190565b6020808252602c908201527f46756e6374696f6e206d7573742062652063616c6c6564207468726f7567682060408201526b6163746976652070726f787960a01b606082015260800190565b60208082526021908201527f436f6c6c656374696f6e3a20696e73756666696369656e74206d696e742066656040820152606560f81b606082015260800190565b6000600182016139e8576139e861389e565b5060010190565b634e487b7160e01b600052603260045260246000fd5b60008219821115613a1857613a1861389e565b500190565b60018060a01b038716815285602082015284604082015260c060608201526000613a4a60c0830186613243565b60808301949094525060a00152949350505050565b60008351613a71818460208801613217565b835190830190613a85818360208801613217565b01949350505050565b6001600160a01b0383168152604060208201819052600090611f9e90830184613243565b600082821015613ac457613ac461389e565b500390565b600060208284031215613adb57600080fd5b5051919050565b6020808252602e908201527f496e697469616c697a61626c653a20636f6e747261637420697320616c72656160408201526d191e481a5b9a5d1a585b1a5e995960921b606082015260800190565b6020808252602b908201527f496e697469616c697a61626c653a20636f6e7472616374206973206e6f74206960408201526a6e697469616c697a696e6760a81b606082015260800190565b60208082526032908201527f4552433732313a207472616e7366657220746f206e6f6e20455243373231526560408201527131b2b4bb32b91034b6b83632b6b2b73a32b960711b606082015260800190565b600082613bdc57613bdc6138d3565b500690565b6001600160a01b0385811682528416602082015260408101839052608060608201819052600090613c1490830184613243565b9695505050505050565b600060208284031215613c3057600080fd5b81516118dc816131b2565b634e487b7160e01b600052603160045260246000fdfe360894a13ba1a3210667c828492db98dca3e2076cc3735a920a3ca505d382bbc416464726573733a206c6f772d6c6576656c2064656c65676174652063616c6c206661696c6564a26469706673582212205e7435319a9caecbb405f92d059bc543e66a87709bbb75bc6aa20c857e0bd37464736f6c634300080d0033496e697469616c697a61626c653a20636f6e747261637420697320616c726561",
  "linkReferences": {},
  "deployedLinkReferences": {}
}