{
  "_format": "hh-sol-artifact-1",
  "contractName": "Collection",
  "sourceName": "contracts/Collection3.sol",
  "abi": [
    {
      "inputs": [],
      "stateMutability": "nonpayable",
      "type": "constructor"
    },
    {
      "anonymous": false,
      "inputs": [
        {
          "indexed": false,
          "internalType": "address",
          "name": "previousAdmin",
          "type": "address"
        },
        {
          "indexed": false,
          "internalType": "address",
          "name": "newAdmin",
          "type": "address"
        }
      ],
      "name": "AdminChanged",
      "type": "event"
    },
    {
      "anonymous": false,
      "inputs": [
        {
          "indexed": true,
          "internalType": "address",
          "name": "owner",
          "type": "address"
        },
        {
          "indexed": true,
          "internalType": "address",
          "name": "approved",
          "type": "address"
        },
        {
          "indexed": true,
          "internalType": "uint256",
          "name": "tokenId",
          "type": "uint256"
        }
      ],
      "name": "Approval",
      "type": "event"
    },
    {
      "anonymous": false,
      "inputs": [
        {
          "indexed": true,
          "internalType": "address",
          "name": "owner",
          "type": "address"
        },
        {
          "indexed": true,
          "internalType": "address",
          "name": "operator",
          "type": "address"
        },
        {
          "indexed": false,
          "internalType": "bool",
          "name": "approved",
          "type": "bool"
        }
      ],
      "name": "ApprovalForAll",
      "type": "event"
    },
    {
      "anonymous": false,
      "inputs": [
        {
          "indexed": true,
          "internalType": "address",
          "name": "beacon",
          "type": "address"
        }
      ],
      "name": "BeaconUpgraded",
      "type": "event"
    },
    {
      "anonymous": false,
      "inputs": [
        {
          "indexed": false,
          "internalType": "address",
          "name": "userAddr",
          "type": "address"
        },
        {
          "indexed": false,
          "internalType": "uint256",
          "name": "userBalance",
          "type": "uint256"
        },
        {
          "indexed": false,
          "internalType": "uint256",
          "name": "paidAmount",
          "type": "uint256"
        },
        {
          "indexed": false,
          "internalType": "string",
          "name": "text",
          "type": "string"
        },
        {
          "indexed": false,
          "internalType": "uint256",
          "name": "_commentIndex",
          "type": "uint256"
        }
      ],
      "name": "Comment",
      "type": "event"
    },
    {
      "anonymous": false,
      "inputs": [
        {
          "indexed": false,
          "internalType": "uint8",
          "name": "version",
          "type": "uint8"
        }
      ],
      "name": "Initialized",
      "type": "event"
    },
    {
      "anonymous": false,
      "inputs": [
        {
          "indexed": true,
          "internalType": "address",
          "name": "previousOwner",
          "type": "address"
        },
        {
          "indexed": true,
          "internalType": "address",
          "name": "newOwner",
          "type": "address"
        }
      ],
      "name": "OwnershipTransferred",
      "type": "event"
    },
    {
      "anonymous": false,
      "inputs": [
        {
          "indexed": false,
          "internalType": "address",
          "name": "_userAddr",
          "type": "address"
        },
        {
          "indexed": false,
          "internalType": "string",
          "name": "username",
          "type": "string"
        }
      ],
      "name": "Register",
      "type": "event"
    },
    {
      "anonymous": false,
      "inputs": [
        {
          "indexed": false,
          "internalType": "string",
          "name": "baseURI_",
          "type": "string"
        }
      ],
      "name": "SetBaseURI",
      "type": "event"
    },
    {
      "anonymous": false,
      "inputs": [
        {
          "indexed": false,
          "internalType": "string",
          "name": "_creatorName",
          "type": "string"
        }
      ],
      "name": "SetCreatorName",
      "type": "event"
    },
    {
      "anonymous": false,
      "inputs": [
        {
          "indexed": false,
          "internalType": "uint256",
          "name": "_maxSupply",
          "type": "uint256"
        }
      ],
      "name": "SetMaxSupply",
      "type": "event"
    },
    {
      "anonymous": false,
      "inputs": [
        {
          "indexed": true,
          "internalType": "address",
          "name": "from",
          "type": "address"
        },
        {
          "indexed": true,
          "internalType": "address",
          "name": "to",
          "type": "address"
        },
        {
          "indexed": true,
          "internalType": "uint256",
          "name": "tokenId",
          "type": "uint256"
        }
      ],
      "name": "Transfer",
      "type": "event"
    },
    {
      "anonymous": false,
      "inputs": [
        {
          "indexed": false,
          "internalType": "address",
          "name": "_userAddr",
          "type": "address"
        }
      ],
      "name": "UnRegister",
      "type": "event"
    },
    {
      "anonymous": false,
      "inputs": [
        {
          "indexed": true,
          "internalType": "address",
          "name": "implementation",
          "type": "address"
        }
      ],
      "name": "Upgraded",
      "type": "event"
    },
    {
      "inputs": [],
      "name": "_creator_",
      "outputs": [
        {
          "internalType": "string",
          "name": "",
          "type": "string"
        }
      ],
      "stateMutability": "view",
      "type": "function"
    },
    {
      "inputs": [
        {
          "internalType": "address",
          "name": "to",
          "type": "address"
        },
        {
          "internalType": "uint256",
          "name": "tokenId",
          "type": "uint256"
        }
      ],
      "name": "approve",
      "outputs": [],
      "stateMutability": "nonpayable",
      "type": "function"
    },
    {
      "inputs": [
        {
          "internalType": "address",
          "name": "owner",
          "type": "address"
        }
      ],
      "name": "balanceOf",
      "outputs": [
        {
          "internalType": "uint256",
          "name": "",
          "type": "uint256"
        }
      ],
      "stateMutability": "view",
      "type": "function"
    },
    {
      "inputs": [
        {
          "internalType": "uint256",
          "name": "tokenId",
          "type": "uint256"
        }
      ],
      "name": "burn",
      "outputs": [],
      "stateMutability": "nonpayable",
      "type": "function"
    },
    {
      "inputs": [
        {
          "internalType": "uint256[]",
          "name": "tokenId",
          "type": "uint256[]"
        }
      ],
      "name": "burnBatch",
      "outputs": [],
      "stateMutability": "nonpayable",
      "type": "function"
    },
    {
      "inputs": [
        {
          "internalType": "string",
          "name": "text",
          "type": "string"
        }
      ],
      "name": "comment",
      "outputs": [],
      "stateMutability": "payable",
      "type": "function"
    },
    {
      "inputs": [],
      "name": "commentIndex",
      "outputs": [
        {
          "internalType": "uint256",
          "name": "",
          "type": "uint256"
        }
      ],
      "stateMutability": "view",
      "type": "function"
    },
    {
      "inputs": [],
      "name": "deleteDefaultRoyalty",
      "outputs": [],
      "stateMutability": "nonpayable",
      "type": "function"
    },
    {
      "inputs": [
        {
          "internalType": "uint256",
          "name": "tokenId",
          "type": "uint256"
        }
      ],
      "name": "getApproved",
      "outputs": [
        {
          "internalType": "address",
          "name": "",
          "type": "address"
        }
      ],
      "stateMutability": "view",
      "type": "function"
    },
    {
      "inputs": [],
      "name": "guestsCommentFee",
      "outputs": [
        {
          "internalType": "uint256",
          "name": "",
          "type": "uint256"
        }
      ],
      "stateMutability": "view",
      "type": "function"
    },
    {
      "inputs": [],
      "name": "initialize",
      "outputs": [],
      "stateMutability": "nonpayable",
      "type": "function"
    },
    {
      "inputs": [
        {
          "internalType": "address",
          "name": "owner",
          "type": "address"
        },
        {
          "internalType": "address",
          "name": "operator",
          "type": "address"
        }
      ],
      "name": "isApprovedForAll",
      "outputs": [
        {
          "internalType": "bool",
          "name": "",
          "type": "bool"
        }
      ],
      "stateMutability": "view",
      "type": "function"
    },
    {
      "inputs": [],
      "name": "maxSupply",
      "outputs": [
        {
          "internalType": "uint256",
          "name": "",
          "type": "uint256"
        }
      ],
      "stateMutability": "view",
      "type": "function"
    },
    {
      "inputs": [
        {
          "internalType": "uint256",
          "name": "tokenOffset",
          "type": "uint256"
        },
        {
          "internalType": "uint256",
          "name": "numberOfTokens",
          "type": "uint256"
        }
      ],
      "name": "mintBatchFee",
      "outputs": [
        {
          "internalType": "uint256",
          "name": "",
          "type": "uint256"
        }
      ],
      "stateMutability": "view",
      "type": "function"
    },
    {
      "inputs": [
        {
          "internalType": "uint256",
          "name": "tokenIndex",
          "type": "uint256"
        }
      ],
      "name": "mintFee",
      "outputs": [
        {
          "internalType": "uint256",
          "name": "",
          "type": "uint256"
        }
      ],
      "stateMutability": "view",
      "type": "function"
    },
    {
      "inputs": [],
      "name": "name",
      "outputs": [
        {
          "internalType": "string",
          "name": "",
          "type": "string"
        }
      ],
      "stateMutability": "view",
      "type": "function"
    },
    {
      "inputs": [],
      "name": "owner",
      "outputs": [
        {
          "internalType": "address",
          "name": "",
          "type": "address"
        }
      ],
      "stateMutability": "view",
      "type": "function"
    },
    {
      "inputs": [
        {
          "internalType": "uint256",
          "name": "tokenId",
          "type": "uint256"
        }
      ],
      "name": "ownerName",
      "outputs": [
        {
          "internalType": "string",
          "name": "",
          "type": "string"
        }
      ],
      "stateMutability": "view",
      "type": "function"
    },
    {
      "inputs": [
        {
          "internalType": "uint256",
          "name": "tokenId",
          "type": "uint256"
        }
      ],
      "name": "ownerOf",
      "outputs": [
        {
          "internalType": "address",
          "name": "",
          "type": "address"
        }
      ],
      "stateMutability": "view",
      "type": "function"
    },
    {
      "inputs": [],
      "name": "proxiableUUID",
      "outputs": [
        {
          "internalType": "bytes32",
          "name": "",
          "type": "bytes32"
        }
      ],
      "stateMutability": "view",
      "type": "function"
    },
    {
      "inputs": [
        {
          "internalType": "string",
          "name": "_username",
          "type": "string"
        }
      ],
      "name": "register",
      "outputs": [],
      "stateMutability": "nonpayable",
      "type": "function"
    },
    {
      "inputs": [],
      "name": "renounceOwnership",
      "outputs": [],
      "stateMutability": "nonpayable",
      "type": "function"
    },
    {
      "inputs": [
        {
          "internalType": "uint256",
          "name": "_tokenId",
          "type": "uint256"
        },
        {
          "internalType": "uint256",
          "name": "_salePrice",
          "type": "uint256"
        }
      ],
      "name": "royaltyInfo",
      "outputs": [
        {
          "internalType": "address",
          "name": "",
          "type": "address"
        },
        {
          "internalType": "uint256",
          "name": "",
          "type": "uint256"
        }
      ],
      "stateMutability": "view",
      "type": "function"
    },
    {
      "inputs": [
        {
          "internalType": "address",
          "name": "to",
          "type": "address"
        }
      ],
      "name": "safeMint",
      "outputs": [],
      "stateMutability": "payable",
      "type": "function"
    },
    {
      "inputs": [
        {
          "internalType": "address",
          "name": "to",
          "type": "address"
        },
        {
          "internalType": "uint256",
          "name": "numberOfTokens",
          "type": "uint256"
        }
      ],
      "name": "safeMintBatch",
      "outputs": [],
      "stateMutability": "payable",
      "type": "function"
    },
    {
      "inputs": [
        {
          "internalType": "address",
          "name": "from",
          "type": "address"
        },
        {
          "internalType": "address",
          "name": "to",
          "type": "address"
        },
        {
          "internalType": "uint256",
          "name": "tokenId",
          "type": "uint256"
        }
      ],
      "name": "safeTransferFrom",
      "outputs": [],
      "stateMutability": "nonpayable",
      "type": "function"
    },
    {
      "inputs": [
        {
          "internalType": "address",
          "name": "from",
          "type": "address"
        },
        {
          "internalType": "address",
          "name": "to",
          "type": "address"
        },
        {
          "internalType": "uint256",
          "name": "tokenId",
          "type": "uint256"
        },
        {
          "internalType": "bytes",
          "name": "_data",
          "type": "bytes"
        }
      ],
      "name": "safeTransferFrom",
      "outputs": [],
      "stateMutability": "nonpayable",
      "type": "function"
    },
    {
      "inputs": [
        {
          "internalType": "address[]",
          "name": "from",
          "type": "address[]"
        },
        {
          "internalType": "address[]",
          "name": "to",
          "type": "address[]"
        },
        {
          "internalType": "uint256[]",
          "name": "tokenId",
          "type": "uint256[]"
        }
      ],
      "name": "safeTransferFromBatch",
      "outputs": [],
      "stateMutability": "nonpayable",
      "type": "function"
    },
    {
      "inputs": [
        {
          "internalType": "address",
          "name": "operator",
          "type": "address"
        },
        {
          "internalType": "bool",
          "name": "approved",
          "type": "bool"
        }
      ],
      "name": "setApprovalForAll",
      "outputs": [],
      "stateMutability": "nonpayable",
      "type": "function"
    },
    {
      "inputs": [
        {
          "internalType": "uint256",
          "name": "_baseMintFee",
          "type": "uint256"
        }
      ],
      "name": "setBaseMintFee",
      "outputs": [],
      "stateMutability": "nonpayable",
      "type": "function"
    },
    {
      "inputs": [
        {
          "internalType": "string",
          "name": "baseURI_",
          "type": "string"
        }
      ],
      "name": "setBaseURI",
      "outputs": [],
      "stateMutability": "nonpayable",
      "type": "function"
    },
    {
      "inputs": [
        {
          "internalType": "string",
          "name": "_creatorName",
          "type": "string"
        }
      ],
      "name": "setCreatorName",
      "outputs": [],
      "stateMutability": "nonpayable",
      "type": "function"
    },
    {
      "inputs": [
        {
          "internalType": "uint256",
          "name": "_guestsCommentFee",
          "type": "uint256"
        }
      ],
      "name": "setGuestsCommentFee",
      "outputs": [],
      "stateMutability": "nonpayable",
      "type": "function"
    },
    {
      "inputs": [
        {
          "internalType": "uint256",
          "name": "_maxSupply",
          "type": "uint256"
        }
      ],
      "name": "setMaxSupply",
      "outputs": [],
      "stateMutability": "nonpayable",
      "type": "function"
    },
    {
      "inputs": [
        {
          "internalType": "uint256",
          "name": "_mintFeeRatioNumerator",
          "type": "uint256"
        }
      ],
      "name": "setMintFeeRatioNumerator",
      "outputs": [],
      "stateMutability": "nonpayable",
      "type": "function"
    },
    {
      "inputs": [
        {
          "internalType": "uint256",
          "name": "_tokenHoldersCommentFee",
          "type": "uint256"
        }
      ],
      "name": "setTokenHoldersCommentFee",
      "outputs": [],
      "stateMutability": "nonpayable",
      "type": "function"
    },
    {
      "inputs": [
        {
          "internalType": "bytes4",
          "name": "interfaceId",
          "type": "bytes4"
        }
      ],
      "name": "supportsInterface",
      "outputs": [
        {
          "internalType": "bool",
          "name": "",
          "type": "bool"
        }
      ],
      "stateMutability": "view",
      "type": "function"
    },
    {
      "inputs": [],
      "name": "symbol",
      "outputs": [
        {
          "internalType": "string",
          "name": "",
          "type": "string"
        }
      ],
      "stateMutability": "view",
      "type": "function"
    },
    {
      "inputs": [
        {
          "internalType": "uint256",
          "name": "index",
          "type": "uint256"
        }
      ],
      "name": "tokenByIndex",
      "outputs": [
        {
          "internalType": "uint256",
          "name": "",
          "type": "uint256"
        }
      ],
      "stateMutability": "view",
      "type": "function"
    },
    {
      "inputs": [],
      "name": "tokenHoldersCommentFee",
      "outputs": [
        {
          "internalType": "uint256",
          "name": "",
          "type": "uint256"
        }
      ],
      "stateMutability": "view",
      "type": "function"
    },
    {
      "inputs": [
        {
          "internalType": "address",
          "name": "owner",
          "type": "address"
        },
        {
          "internalType": "uint256",
          "name": "index",
          "type": "uint256"
        }
      ],
      "name": "tokenOfOwnerByIndex",
      "outputs": [
        {
          "internalType": "uint256",
          "name": "",
          "type": "uint256"
        }
      ],
      "stateMutability": "view",
      "type": "function"
    },
    {
      "inputs": [
        {
          "internalType": "uint256",
          "name": "tokenId",
          "type": "uint256"
        }
      ],
      "name": "tokenURI",
      "outputs": [
        {
          "internalType": "string",
          "name": "",
          "type": "string"
        }
      ],
      "stateMutability": "view",
      "type": "function"
    },
    {
      "inputs": [],
      "name": "totalSupply",
      "outputs": [
        {
          "internalType": "uint256",
          "name": "",
          "type": "uint256"
        }
      ],
      "stateMutability": "view",
      "type": "function"
    },
    {
      "inputs": [
        {
          "internalType": "address",
          "name": "from",
          "type": "address"
        },
        {
          "internalType": "address",
          "name": "to",
          "type": "address"
        },
        {
          "internalType": "uint256",
          "name": "tokenId",
          "type": "uint256"
        }
      ],
      "name": "transferFrom",
      "outputs": [],
      "stateMutability": "nonpayable",
      "type": "function"
    },
    {
      "inputs": [
        {
          "internalType": "address",
          "name": "newOwner",
          "type": "address"
        }
      ],
      "name": "transferOwnership",
      "outputs": [],
      "stateMutability": "nonpayable",
      "type": "function"
    },
    {
      "inputs": [],
      "name": "unRegister",
      "outputs": [],
      "stateMutability": "nonpayable",
      "type": "function"
    },
    {
      "inputs": [
        {
          "internalType": "address",
          "name": "newImplementation",
          "type": "address"
        }
      ],
      "name": "upgradeTo",
      "outputs": [],
      "stateMutability": "nonpayable",
      "type": "function"
    },
    {
      "inputs": [
        {
          "internalType": "address",
          "name": "newImplementation",
          "type": "address"
        },
        {
          "internalType": "bytes",
          "name": "data",
          "type": "bytes"
        }
      ],
      "name": "upgradeToAndCall",
      "outputs": [],
      "stateMutability": "payable",
      "type": "function"
    },
    {
      "inputs": [
        {
          "internalType": "string",
          "name": "_username",
          "type": "string"
        }
      ],
      "name": "userBalance",
      "outputs": [
        {
          "internalType": "uint256",
          "name": "",
          "type": "uint256"
        }
      ],
      "stateMutability": "view",
      "type": "function"
    },
    {
      "inputs": [
        {
          "internalType": "address",
          "name": "userAddr",
          "type": "address"
        }
      ],
      "name": "username",
      "outputs": [
        {
          "internalType": "string",
          "name": "",
          "type": "string"
        }
      ],
      "stateMutability": "view",
      "type": "function"
    },
    {
      "inputs": [
        {
          "internalType": "uint256",
          "name": "amount",
          "type": "uint256"
        }
      ],
      "name": "withdraw",
      "outputs": [],
      "stateMutability": "nonpayable",
      "type": "function"
    }
  ],
  "bytecode": "0x60a0604052306080523480156200001557600080fd5b506200002062000026565b62000156565b6200003260ff62000035565b50565b60008054610100900460ff1615620000ce578160ff1660011480156200006e57506200006c306200014760201b62001e871760201c565b155b620000c65760405162461bcd60e51b815260206004820152602e602482015260008051602062003e2d83398151915260448201526d191e481a5b9a5d1a585b1a5e995960921b60648201526084015b60405180910390fd5b506000919050565b60005460ff8084169116106200012d5760405162461bcd60e51b815260206004820152602e602482015260008051602062003e2d83398151915260448201526d191e481a5b9a5d1a585b1a5e995960921b6064820152608401620000bd565b506000805460ff191660ff92909216919091179055600190565b6001600160a01b03163b151590565b608051613c9f6200018e60003960008181610ee901528181610f290152818161111a0152818161115a015261127c0152613c9f6000f3fe6080604052600436106102e45760003560e01c80636f8b44b011610190578063b88d4fde116100dc578063d5abeb0111610095578063e985e9c51161006f578063e985e9c514610876578063f2c298be146108bf578063f2fde38b146108df578063ffae01b0146108ff57600080fd5b8063d5abeb011461081f578063d72e780e14610836578063e4623c1b1461085657600080fd5b8063b88d4fde14610773578063b8dcb01f14610793578063ba4e72ad146107b3578063bb99e701146107ca578063c87b56dd146107df578063d2caaec2146107ff57600080fd5b80638da5cb5b11610149578063a1cebf4411610123578063a1cebf4414610707578063a22cb4651461071e578063a9b449e01461073e578063aa1b103f1461075e57600080fd5b80638da5cb5b146106b357806395d89b41146106d25780639c3d371c146106e757600080fd5b80636f8b44b01461061657806370a0823114610636578063715018a6146106565780638129fc1c1461066b5780638a35ace3146106805780638d3a622d146106a057600080fd5b80632f745c591161024f5780634f1ef2861161020857806352d1902d116101e257806352d1902d146105a157806355f804b3146105b657806360eb9485146105d65780636352211e146105f657600080fd5b80634f1ef286146105575780634f6ccce71461056a57806350a364001461058a57600080fd5b80632f745c59146104b15780633659cfe6146104d157806340d097c3146104f157806342842e0e1461050457806342966c68146105245780634bc962481461054457600080fd5b806318160ddd116102a157806318160ddd146103e857806323b872dd146103fd57806325b5c6e31461041d57806326d7b3b41461043d5780632a55205a146104525780632e1a7d4d1461049157600080fd5b806301ffc9a7146102e95780630610a7a21461031e57806306fdde031461034b578063081812fc14610360578063095ea7b3146103985780631536aedd146103ba575b600080fd5b3480156102f557600080fd5b506103096103043660046131c5565b61091f565b60405190151581526020015b60405180910390f35b34801561032a57600080fd5b5061033e6103393660046131f9565b610930565b604051610315919061326c565b34801561035757600080fd5b5061033e6109dd565b34801561036c57600080fd5b5061038061037b36600461327f565b610a6f565b6040516001600160a01b039091168152602001610315565b3480156103a457600080fd5b506103b86103b3366004613298565b610b09565b005b3480156103c657600080fd5b506103da6103d5366004613361565b610c1e565b604051908152602001610315565b3480156103f457600080fd5b5060cb546103da565b34801561040957600080fd5b506103b86104183660046133aa565b610c52565b34801561042957600080fd5b506103b861043836600461327f565b610c84565b34801561044957600080fd5b506103b8610cb5565b34801561045e57600080fd5b5061047261046d3660046133e6565b610d41565b604080516001600160a01b039093168352602083019190915201610315565b34801561049d57600080fd5b506103b86104ac36600461327f565b610ded565b3480156104bd57600080fd5b506103da6104cc366004613298565b610e49565b3480156104dd57600080fd5b506103b86104ec3660046131f9565b610edf565b6103b86104ff3660046131f9565b610fbe565b34801561051057600080fd5b506103b861051f3660046133aa565b61100d565b34801561053057600080fd5b506103b861053f36600461327f565b611028565b6103b8610552366004613298565b61109f565b6103b8610565366004613428565b611110565b34801561057657600080fd5b506103da61058536600461327f565b6111dc565b34801561059657600080fd5b506103da6101fe5481565b3480156105ad57600080fd5b506103da61126f565b3480156105c257600080fd5b506103b86105d1366004613361565b611322565b3480156105e257600080fd5b506103b86105f1366004613361565b61139c565b34801561060257600080fd5b5061038061061136600461327f565b61140b565b34801561062257600080fd5b506103b861063136600461327f565b611482565b34801561064257600080fd5b506103da6106513660046131f9565b61156f565b34801561066257600080fd5b506103b86115f6565b34801561067757600080fd5b506103b861162d565b34801561068c57600080fd5b506103da61069b36600461327f565b61177e565b6103b86106ae366004613361565b6117b8565b3480156106bf57600080fd5b5061015f546001600160a01b0316610380565b3480156106de57600080fd5b5061033e61191e565b3480156106f357600080fd5b5061033e61070236600461327f565b61192d565b34801561071357600080fd5b506103da6102005481565b34801561072a57600080fd5b506103b8610739366004613476565b61193b565b34801561074a57600080fd5b506103b861075936600461327f565b611946565b34801561076a57600080fd5b506103b8611977565b34801561077f57600080fd5b506103b861078e3660046134b2565b6119ac565b34801561079f57600080fd5b506103b86107ae36600461360b565b6119e4565b3480156107bf57600080fd5b506103da6101ff5481565b3480156107d657600080fd5b5061033e611acc565b3480156107eb57600080fd5b5061033e6107fa36600461327f565b611b5b565b34801561080b57600080fd5b506103da61081a3660046133e6565b611c36565b34801561082b57600080fd5b506103da6101f85481565b34801561084257600080fd5b506103b861085136600461327f565b611c5a565b34801561086257600080fd5b506103b8610871366004613693565b611c8b565b34801561088257600080fd5b506103096108913660046136c8565b6001600160a01b039182166000908152609c6020908152604080832093909416825291909152205460ff1690565b3480156108cb57600080fd5b506103b86108da366004613361565b611ccb565b3480156108eb57600080fd5b506103b86108fa3660046131f9565b611dbd565b34801561090b57600080fd5b506103b861091a36600461327f565b611e56565b600061092a82611e96565b92915050565b6001600160a01b03811660009081526101f960205260409020805460609190610958906136fb565b80601f0160208091040260200160405190810160405280929190818152602001828054610984906136fb565b80156109d15780601f106109a6576101008083540402835291602001916109d1565b820191906000526020600020905b8154815290600101906020018083116109b457829003601f168201915b50505050509050919050565b6060609780546109ec906136fb565b80601f0160208091040260200160405190810160405280929190818152602001828054610a18906136fb565b8015610a655780601f10610a3a57610100808354040283529160200191610a65565b820191906000526020600020905b815481529060010190602001808311610a4857829003601f168201915b5050505050905090565b6000818152609960205260408120546001600160a01b0316610aed5760405162461bcd60e51b815260206004820152602c60248201527f4552433732313a20617070726f76656420717565727920666f72206e6f6e657860448201526b34b9ba32b73a103a37b5b2b760a11b60648201526084015b60405180910390fd5b506000908152609b60205260409020546001600160a01b031690565b6000610b148261140b565b9050806001600160a01b0316836001600160a01b031603610b815760405162461bcd60e51b815260206004820152602160248201527f4552433732313a20617070726f76616c20746f2063757272656e74206f776e656044820152603960f91b6064820152608401610ae4565b336001600160a01b0382161480610b9d5750610b9d8133610891565b610c0f5760405162461bcd60e51b815260206004820152603860248201527f4552433732313a20617070726f76652063616c6c6572206973206e6f74206f7760448201527f6e6572206e6f7220617070726f76656420666f7220616c6c00000000000000006064820152608401610ae4565b610c198383611ea1565b505050565b600061092a6101fa83604051610c349190613735565b908152604051908190036020019020546001600160a01b031661156f565b610c5d335b82611f0f565b610c795760405162461bcd60e51b8152600401610ae490613751565b610c19838383612006565b61015f546001600160a01b03163314610caf5760405162461bcd60e51b8152600401610ae4906137a2565b6101fb55565b3360009081526101f960205260409081902090516101fa91610cd6916137d7565b908152604080516020928190038301902080546001600160a01b03191690553360009081526101f99092528120610d0c916130dc565b6040513381527f630f28bb6372d0a747db8dcdb1a523bd9d875ddd96649c705325e60b239fc3c39060200160405180910390a1565b60008281526066602090815260408083208151808301909252546001600160a01b038116808352600160a01b9091046001600160601b0316928201929092528291610db65750604080518082019091526065546001600160a01b0381168252600160a01b90046001600160601b031660208201525b602081015160009061271090610dd5906001600160601b031687613888565b610ddf91906138bd565b915196919550909350505050565b61015f546001600160a01b03163314610e185760405162461bcd60e51b8152600401610ae4906137a2565b604051339082156108fc029083906000818181858888f19350505050158015610e45573d6000803e3d6000fd5b5050565b6000610e548361156f565b8210610eb65760405162461bcd60e51b815260206004820152602b60248201527f455243373231456e756d657261626c653a206f776e657220696e646578206f7560448201526a74206f6620626f756e647360a81b6064820152608401610ae4565b506001600160a01b0391909116600090815260c960209081526040808320938352929052205490565b6001600160a01b037f0000000000000000000000000000000000000000000000000000000000000000163003610f275760405162461bcd60e51b8152600401610ae4906138d1565b7f00000000000000000000000000000000000000000000000000000000000000006001600160a01b0316610f70600080516020613c23833981519152546001600160a01b031690565b6001600160a01b031614610f965760405162461bcd60e51b8152600401610ae49061391d565b610f9f816121ad565b60408051600080825260208201909252610fbb918391906121d8565b50565b6000610fca6101f55490565b9050610fd58161177e565b341015610ff45760405162461bcd60e51b8152600401610ae490613969565b6110036101f580546001019055565b610e458282612343565b610c19838383604051806020016040528060008152506119ac565b61103133610c57565b6110965760405162461bcd60e51b815260206004820152603060248201527f4552433732314275726e61626c653a2063616c6c6572206973206e6f74206f7760448201526f1b995c881b9bdc88185c1c1c9bdd995960821b6064820152608401610ae4565b610fbb8161235d565b6110b26110ac6101f55490565b82611c36565b3410156110d15760405162461bcd60e51b8152600401610ae490613969565b60005b81811015610c19576110ef836110ea6101f55490565b612343565b6110fe6101f580546001019055565b80611108816139aa565b9150506110d4565b6001600160a01b037f00000000000000000000000000000000000000000000000000000000000000001630036111585760405162461bcd60e51b8152600401610ae4906138d1565b7f00000000000000000000000000000000000000000000000000000000000000006001600160a01b03166111a1600080516020613c23833981519152546001600160a01b031690565b6001600160a01b0316146111c75760405162461bcd60e51b8152600401610ae49061391d565b6111d0826121ad565b610e45828260016121d8565b60006111e760cb5490565b821061124a5760405162461bcd60e51b815260206004820152602c60248201527f455243373231456e756d657261626c653a20676c6f62616c20696e646578206f60448201526b7574206f6620626f756e647360a01b6064820152608401610ae4565b60cb828154811061125d5761125d6139c3565b90600052602060002001549050919050565b6000306001600160a01b037f0000000000000000000000000000000000000000000000000000000000000000161461130f5760405162461bcd60e51b815260206004820152603860248201527f555550535570677261646561626c653a206d757374206e6f742062652063616c60448201527f6c6564207468726f7567682064656c656761746563616c6c00000000000000006064820152608401610ae4565b50600080516020613c2383398151915290565b61015f546001600160a01b0316331461134d5760405162461bcd60e51b8152600401610ae4906137a2565b8051611361906101f7906020840190613116565b507f23c8c9488efebfd474e85a7956de6f39b17c7ab88502d42a623db2d8e382bbaa81604051611391919061326c565b60405180910390a150565b61015f546001600160a01b031633146113c75760405162461bcd60e51b8152600401610ae4906137a2565b80516113db906101f6906020840190613116565b507f236f8389aa7c121fd00a2e18f64a0bf0789ab8925f9d80674426dc499590d85c81604051611391919061326c565b6000818152609960205260408120546001600160a01b03168061092a5760405162461bcd60e51b815260206004820152602960248201527f4552433732313a206f776e657220717565727920666f72206e6f6e657869737460448201526832b73a103a37b5b2b760b91b6064820152608401610ae4565b61015f546001600160a01b031633146114ad5760405162461bcd60e51b8152600401610ae4906137a2565b6101f5548110156115395760405162461bcd60e51b815260206004820152604a60248201527f436f6c6c656374696f6e3a206d6178537570706c79206d75737420626520677260448201527f6561746572207468616e206f7220657175616c20746f20746865206375727265606482015269373a1039bab838363c9760b11b608482015260a401610ae4565b6101f88190556040518181527f3f8118fc46e72ecde0c5e090803cad8c88e817b2f1e93e820aa9bfbf51f2468d90602001611391565b60006001600160a01b0382166115da5760405162461bcd60e51b815260206004820152602a60248201527f4552433732313a2062616c616e636520717565727920666f7220746865207a65604482015269726f206164647265737360b01b6064820152608401610ae4565b506001600160a01b03166000908152609a602052604090205490565b61015f546001600160a01b031633146116215760405162461bcd60e51b8152600401610ae4906137a2565b61162b6000612366565b565b600061163960016123b9565b90508015611651576000805461ff0019166101001790555b6040805180820190915260068082526552656e6f706560d01b602090920191825261167f916101f691613116565b506116c76040518060400160405280600b81526020016a636f6c6c656374696f6e3360a81b81525060405180604001604052806002815260200161633360f01b815250612446565b6116cf612477565b6116d7612477565b6116e03361249e565b6040805160208101918290526000908190526116ff916101f791613116565b5060646101f855611712306101f46124c5565b66b1a2bc2ec500006101fb5560c86101fc556611c37937e080006101fe55662386f26fc100006101ff558015610fbb576000805461ff0019169055604051600181527f7f26b83ff96e1f2b6a682f133852f6798a09c465da95921460cefb384740249890602001611391565b60006127106101fc54836101fb546117969190613888565b6117a09190613888565b6117aa91906138bd565b6101fb5461092a91906139d9565b60006117c33361156f565b905034811561183a576101fe5481116118355760405162461bcd60e51b815260206004820152602e60248201527f436f6c6c656374696f6e3a20696e73756666696369656e742066656520666f7260448201526d103a37b5b2b72437b63232b9399760911b6064820152608401610ae4565b61189c565b6101fe54811161189c5760405162461bcd60e51b815260206004820152602760248201527f436f6c6c656374696f6e3a20696e73756666696369656e742066656520666f726044820152661033bab2b9ba1760c91b6064820152608401610ae4565b3360009081526101fd6020526040812080548392906118bc9084906139d9565b9091555050610200546040517fbf1bf8dfa1e556a68fe5e4785a6130e4ac1c39e1c01b2ce240096f60b4e66ca7916118fb9133918691869189916139f1565b60405180910390a16102008054906000611914836139aa565b9190505550505050565b6060609880546109ec906136fb565b606061092a6103398361140b565b610e453383836125c2565b61015f546001600160a01b031633146119715760405162461bcd60e51b8152600401610ae4906137a2565b6101fc55565b61015f546001600160a01b031633146119a25760405162461bcd60e51b8152600401610ae4906137a2565b61162b6000606555565b6119b63383611f0f565b6119d25760405162461bcd60e51b8152600401610ae490613751565b6119de84848484612690565b50505050565b805183511480156119f6575080518251145b611a585760405162461bcd60e51b815260206004820152602d60248201527f436f6c6c656374696f6e3a20796f75206d75737420656e7465722073616d652060448201526c6c656e6774682061727261797360981b6064820152608401610ae4565b60005b81518110156119de57611aba848281518110611a7957611a796139c3565b6020026020010151848381518110611a9357611a936139c3565b6020026020010151848481518110611aad57611aad6139c3565b602002602001015161100d565b80611ac4816139aa565b915050611a5b565b6101f68054611ada906136fb565b80601f0160208091040260200160405190810160405280929190818152602001828054611b06906136fb565b8015611b535780601f10611b2857610100808354040283529160200191611b53565b820191906000526020600020905b815481529060010190602001808311611b3657829003601f168201915b505050505081565b6000818152609960205260409020546060906001600160a01b0316611bda5760405162461bcd60e51b815260206004820152602f60248201527f4552433732314d657461646174613a2055524920717565727920666f72206e6f60448201526e3732bc34b9ba32b73a103a37b5b2b760891b6064820152608401610ae4565b6000611be46126c3565b90506000815111611c045760405180602001604052806000815250611c2f565b80611c0e846126d3565b604051602001611c1f929190613a30565b6040516020818303038152906040525b9392505050565b6000611c50611c466002846138bd565b61069b90856139d9565b611c2f9083613888565b61015f546001600160a01b03163314611c855760405162461bcd60e51b8152600401610ae4906137a2565b6101ff55565b60005b8151811015610e4557611cb9828281518110611cac57611cac6139c3565b6020026020010151611028565b80611cc3816139aa565b915050611c8e565b60006001600160a01b03166101fa82604051611ce79190613735565b908152604051908190036020019020546001600160a01b031614611d6a5760405162461bcd60e51b815260206004820152603460248201527f436f6c6c656374696f6e3a2074686520757365726e616d652068617320616c726044820152731958591e481899595b881c9959da5cdd195c995960621b6064820152608401610ae4565b3360009081526101f9602090815260409091208251611d8b92840190613116565b507f6ba0831d2f62ae5cbf7214bcc1d79c5da1d705f12811efda0beaa840006f874e3382604051611391929190613a5f565b61015f546001600160a01b03163314611de85760405162461bcd60e51b8152600401610ae4906137a2565b6001600160a01b038116611e4d5760405162461bcd60e51b815260206004820152602660248201527f4f776e61626c653a206e6577206f776e657220697320746865207a65726f206160448201526564647265737360d01b6064820152608401610ae4565b610fbb81612366565b61015f546001600160a01b03163314611e815760405162461bcd60e51b8152600401610ae4906137a2565b6101fe55565b6001600160a01b03163b151590565b600061092a826127d4565b6000818152609b6020526040902080546001600160a01b0319166001600160a01b0384169081179091558190611ed68261140b565b6001600160a01b03167f8c5be1e5ebec7d5bd14f71427d1e84f3dd0314c0f7b2291e5b200ac8c7c3b92560405160405180910390a45050565b6000818152609960205260408120546001600160a01b0316611f885760405162461bcd60e51b815260206004820152602c60248201527f4552433732313a206f70657261746f7220717565727920666f72206e6f6e657860448201526b34b9ba32b73a103a37b5b2b760a11b6064820152608401610ae4565b6000611f938361140b565b9050806001600160a01b0316846001600160a01b03161480611fda57506001600160a01b038082166000908152609c602090815260408083209388168352929052205460ff165b80611ffe5750836001600160a01b0316611ff384610a6f565b6001600160a01b0316145b949350505050565b826001600160a01b03166120198261140b565b6001600160a01b03161461207d5760405162461bcd60e51b815260206004820152602560248201527f4552433732313a207472616e736665722066726f6d20696e636f72726563742060448201526437bbb732b960d91b6064820152608401610ae4565b6001600160a01b0382166120df5760405162461bcd60e51b8152602060048201526024808201527f4552433732313a207472616e7366657220746f20746865207a65726f206164646044820152637265737360e01b6064820152608401610ae4565b6120ea8383836127f9565b6120f5600082611ea1565b6001600160a01b0383166000908152609a6020526040812080546001929061211e908490613a83565b90915550506001600160a01b0382166000908152609a6020526040812080546001929061214c9084906139d9565b909155505060008181526099602052604080822080546001600160a01b0319166001600160a01b0386811691821790925591518493918716917fddf252ad1be2c89b69c2b068fc378daa952ba7f163c4a11628f55a4df523b3ef91a4505050565b61015f546001600160a01b03163314610fbb5760405162461bcd60e51b8152600401610ae4906137a2565b7f4910fdfa16fed3260ed0e7147f7cc6da11a60208b5b9406d12a635614ffd91435460ff161561220b57610c1983612804565b826001600160a01b03166352d1902d6040518163ffffffff1660e01b8152600401602060405180830381865afa925050508015612265575060408051601f3d908101601f1916820190925261226291810190613a9a565b60015b6122c85760405162461bcd60e51b815260206004820152602e60248201527f45524331393637557067726164653a206e657720696d706c656d656e7461746960448201526d6f6e206973206e6f74205555505360901b6064820152608401610ae4565b600080516020613c2383398151915281146123375760405162461bcd60e51b815260206004820152602960248201527f45524331393637557067726164653a20756e737570706f727465642070726f786044820152681a58589b195555525160ba1b6064820152608401610ae4565b50610c198383836128a0565b610e458282604051806020016040528060008152506128c5565b610fbb816128f8565b61015f80546001600160a01b038381166001600160a01b0319831681179093556040519116919082907f8be0079c531659141344cd1fd0a4f28419497f9722a3daafe3b4186f6b6457e090600090a35050565b60008054610100900460ff1615612400578160ff1660011480156123dc5750303b155b6123f85760405162461bcd60e51b8152600401610ae490613ab3565b506000919050565b60005460ff8084169116106124275760405162461bcd60e51b8152600401610ae490613ab3565b506000805460ff191660ff92909216919091179055600190565b919050565b600054610100900460ff1661246d5760405162461bcd60e51b8152600401610ae490613b01565b610e458282612912565b600054610100900460ff1661162b5760405162461bcd60e51b8152600401610ae490613b01565b600054610100900460ff16611e4d5760405162461bcd60e51b8152600401610ae490613b01565b6127106001600160601b03821611156125335760405162461bcd60e51b815260206004820152602a60248201527f455243323938313a20726f79616c7479206665652077696c6c206578636565646044820152692073616c65507269636560b01b6064820152608401610ae4565b6001600160a01b0382166125895760405162461bcd60e51b815260206004820152601960248201527f455243323938313a20696e76616c6964207265636569766572000000000000006044820152606401610ae4565b604080518082019091526001600160a01b039092168083526001600160601b039091166020909201829052600160a01b90910217606555565b816001600160a01b0316836001600160a01b0316036126235760405162461bcd60e51b815260206004820152601960248201527f4552433732313a20617070726f766520746f2063616c6c6572000000000000006044820152606401610ae4565b6001600160a01b038381166000818152609c6020908152604080832094871680845294825291829020805460ff191686151590811790915591519182527f17307eab39ab6107e8899845ad3d59bd9653f200f220920489ca2b5937696c31910160405180910390a3505050565b61269b848484612006565b6126a784848484612960565b6119de5760405162461bcd60e51b8152600401610ae490613b4c565b60606101f780546109ec906136fb565b6060816000036126fa5750506040805180820190915260018152600360fc1b602082015290565b8160005b8115612724578061270e816139aa565b915061271d9050600a836138bd565b91506126fe565b60008167ffffffffffffffff81111561273f5761273f6132c2565b6040519080825280601f01601f191660200182016040528015612769576020820181803683370190505b5090505b8415611ffe5761277e600183613a83565b915061278b600a86613b9e565b6127969060306139d9565b60f81b8183815181106127ab576127ab6139c3565b60200101906001600160f81b031916908160001a9053506127cd600a866138bd565b945061276d565b60006001600160e01b0319821663780e9d6360e01b148061092a575061092a82612a61565b610c19838383612aa1565b6001600160a01b0381163b6128715760405162461bcd60e51b815260206004820152602d60248201527f455243313936373a206e657720696d706c656d656e746174696f6e206973206e60448201526c1bdd08184818dbdb9d1c9858dd609a1b6064820152608401610ae4565b600080516020613c2383398151915280546001600160a01b0319166001600160a01b0392909216919091179055565b6128a983612b59565b6000825111806128b65750805b15610c19576119de8383612b99565b6128cf8383612c8d565b6128dc6000848484612960565b610c195760405162461bcd60e51b8152600401610ae490613b4c565b61290181612ce9565b600090815260666020526040812055565b600054610100900460ff166129395760405162461bcd60e51b8152600401610ae490613b01565b815161294c906097906020850190613116565b508051610c19906098906020840190613116565b60006001600160a01b0384163b15612a5657604051630a85bd0160e11b81526001600160a01b0385169063150b7a02906129a4903390899088908890600401613bb2565b6020604051808303816000875af19250505080156129df575060408051601f3d908101601f191682019092526129dc91810190613bef565b60015b612a3c573d808015612a0d576040519150601f19603f3d011682016040523d82523d6000602084013e612a12565b606091505b508051600003612a345760405162461bcd60e51b8152600401610ae490613b4c565b805181602001fd5b6001600160e01b031916630a85bd0160e11b149050611ffe565b506001949350505050565b60006001600160e01b031982166380ac58cd60e01b1480612a9257506001600160e01b03198216635b5e139f60e01b145b8061092a575061092a82612d90565b6001600160a01b038316612afc57612af78160cb8054600083815260cc60205260408120829055600182018355919091527fa7ce836d032b2bf62b7e2097a8e0a6d8aeb35405ad15271e96d3b0188a1d06fb0155565b612b1f565b816001600160a01b0316836001600160a01b031614612b1f57612b1f8382612dc5565b6001600160a01b038216612b3657610c1981612e62565b826001600160a01b0316826001600160a01b031614610c1957610c198282612f11565b612b6281612804565b6040516001600160a01b038216907fbc7cd75a20ee27fd9adebab32041f755214dbc6bffa90cc0225b39da2e5c2d3b90600090a250565b60606001600160a01b0383163b612c015760405162461bcd60e51b815260206004820152602660248201527f416464726573733a2064656c65676174652063616c6c20746f206e6f6e2d636f6044820152651b9d1c9858dd60d21b6064820152608401610ae4565b600080846001600160a01b031684604051612c1c9190613735565b600060405180830381855af49150503d8060008114612c57576040519150601f19603f3d011682016040523d82523d6000602084013e612c5c565b606091505b5091509150612c848282604051806060016040528060278152602001613c4360279139612f55565b95945050505050565b6101f8548110612cdf5760405162461bcd60e51b815260206004820152601c60248201527f436f6c6c656374696f6e3a20496e76616c696420746f6b656e204964000000006044820152606401610ae4565b610e458282612f8e565b6000612cf48261140b565b9050612d02816000846127f9565b612d0d600083611ea1565b6001600160a01b0381166000908152609a60205260408120805460019290612d36908490613a83565b909155505060008281526099602052604080822080546001600160a01b0319169055518391906001600160a01b038416907fddf252ad1be2c89b69c2b068fc378daa952ba7f163c4a11628f55a4df523b3ef908390a45050565b60006001600160e01b0319821663152a902d60e11b148061092a57506301ffc9a760e01b6001600160e01b031983161461092a565b60006001612dd28461156f565b612ddc9190613a83565b600083815260ca6020526040902054909150808214612e2f576001600160a01b038416600090815260c960209081526040808320858452825280832054848452818420819055835260ca90915290208190555b50600091825260ca602090815260408084208490556001600160a01b03909416835260c981528383209183525290812055565b60cb54600090612e7490600190613a83565b600083815260cc602052604081205460cb8054939450909284908110612e9c57612e9c6139c3565b906000526020600020015490508060cb8381548110612ebd57612ebd6139c3565b600091825260208083209091019290925582815260cc909152604080822084905585825281205560cb805480612ef557612ef5613c0c565b6001900381819060005260206000200160009055905550505050565b6000612f1c8361156f565b6001600160a01b03909316600090815260c960209081526040808320868452825280832085905593825260ca9052919091209190915550565b60608315612f64575081611c2f565b825115612f745782518084602001fd5b8160405162461bcd60e51b8152600401610ae4919061326c565b6001600160a01b038216612fe45760405162461bcd60e51b815260206004820181905260248201527f4552433732313a206d696e7420746f20746865207a65726f20616464726573736044820152606401610ae4565b6000818152609960205260409020546001600160a01b0316156130495760405162461bcd60e51b815260206004820152601c60248201527f4552433732313a20746f6b656e20616c7265616479206d696e746564000000006044820152606401610ae4565b613055600083836127f9565b6001600160a01b0382166000908152609a6020526040812080546001929061307e9084906139d9565b909155505060008181526099602052604080822080546001600160a01b0319166001600160a01b03861690811790915590518392907fddf252ad1be2c89b69c2b068fc378daa952ba7f163c4a11628f55a4df523b3ef908290a45050565b5080546130e8906136fb565b6000825580601f106130f8575050565b601f016020900490600052602060002090810190610fbb919061319a565b828054613122906136fb565b90600052602060002090601f016020900481019282613144576000855561318a565b82601f1061315d57805160ff191683800117855561318a565b8280016001018555821561318a579182015b8281111561318a57825182559160200191906001019061316f565b5061319692915061319a565b5090565b5b80821115613196576000815560010161319b565b6001600160e01b031981168114610fbb57600080fd5b6000602082840312156131d757600080fd5b8135611c2f816131af565b80356001600160a01b038116811461244157600080fd5b60006020828403121561320b57600080fd5b611c2f826131e2565b60005b8381101561322f578181015183820152602001613217565b838111156119de5750506000910152565b60008151808452613258816020860160208601613214565b601f01601f19169290920160200192915050565b602081526000611c2f6020830184613240565b60006020828403121561329157600080fd5b5035919050565b600080604083850312156132ab57600080fd5b6132b4836131e2565b946020939093013593505050565b634e487b7160e01b600052604160045260246000fd5b604051601f8201601f1916810167ffffffffffffffff81118282101715613301576133016132c2565b604052919050565b600067ffffffffffffffff831115613323576133236132c2565b613336601f8401601f19166020016132d8565b905082815283838301111561334a57600080fd5b828260208301376000602084830101529392505050565b60006020828403121561337357600080fd5b813567ffffffffffffffff81111561338a57600080fd5b8201601f8101841361339b57600080fd5b611ffe84823560208401613309565b6000806000606084860312156133bf57600080fd5b6133c8846131e2565b92506133d6602085016131e2565b9150604084013590509250925092565b600080604083850312156133f957600080fd5b50508035926020909101359150565b600082601f83011261341957600080fd5b611c2f83833560208501613309565b6000806040838503121561343b57600080fd5b613444836131e2565b9150602083013567ffffffffffffffff81111561346057600080fd5b61346c85828601613408565b9150509250929050565b6000806040838503121561348957600080fd5b613492836131e2565b9150602083013580151581146134a757600080fd5b809150509250929050565b600080600080608085870312156134c857600080fd5b6134d1856131e2565b93506134df602086016131e2565b925060408501359150606085013567ffffffffffffffff81111561350257600080fd5b61350e87828801613408565b91505092959194509250565b600067ffffffffffffffff821115613534576135346132c2565b5060051b60200190565b600082601f83011261354f57600080fd5b8135602061356461355f8361351a565b6132d8565b82815260059290921b8401810191818101908684111561358357600080fd5b8286015b848110156135a557613598816131e2565b8352918301918301613587565b509695505050505050565b600082601f8301126135c157600080fd5b813560206135d161355f8361351a565b82815260059290921b840181019181810190868411156135f057600080fd5b8286015b848110156135a557803583529183019183016135f4565b60008060006060848603121561362057600080fd5b833567ffffffffffffffff8082111561363857600080fd5b6136448783880161353e565b9450602086013591508082111561365a57600080fd5b6136668783880161353e565b9350604086013591508082111561367c57600080fd5b50613689868287016135b0565b9150509250925092565b6000602082840312156136a557600080fd5b813567ffffffffffffffff8111156136bc57600080fd5b611ffe848285016135b0565b600080604083850312156136db57600080fd5b6136e4836131e2565b91506136f2602084016131e2565b90509250929050565b600181811c9082168061370f57607f821691505b60208210810361372f57634e487b7160e01b600052602260045260246000fd5b50919050565b60008251613747818460208701613214565b9190910192915050565b60208082526031908201527f4552433732313a207472616e736665722063616c6c6572206973206e6f74206f6040820152701ddb995c881b9bdc88185c1c1c9bdd9959607a1b606082015260800190565b6020808252818101527f4f776e61626c653a2063616c6c6572206973206e6f7420746865206f776e6572604082015260600190565b600080835481600182811c9150808316806137f357607f831692505b6020808410820361381257634e487b7160e01b86526022600452602486fd5b818015613826576001811461383757613864565b60ff19861689528489019650613864565b60008a81526020902060005b8681101561385c5781548b820152908501908301613843565b505084890196505b509498975050505050505050565b634e487b7160e01b600052601160045260246000fd5b60008160001904831182151516156138a2576138a2613872565b500290565b634e487b7160e01b600052601260045260246000fd5b6000826138cc576138cc6138a7565b500490565b6020808252602c908201527f46756e6374696f6e206d7573742062652063616c6c6564207468726f7567682060408201526b19195b1959d85d1958d85b1b60a21b606082015260800190565b6020808252602c908201527f46756e6374696f6e206d7573742062652063616c6c6564207468726f7567682060408201526b6163746976652070726f787960a01b606082015260800190565b60208082526021908201527f436f6c6c656374696f6e3a20696e73756666696369656e74206d696e742066656040820152606560f81b606082015260800190565b6000600182016139bc576139bc613872565b5060010190565b634e487b7160e01b600052603260045260246000fd5b600082198211156139ec576139ec613872565b500190565b60018060a01b038616815284602082015283604082015260a060608201526000613a1e60a0830185613240565b90508260808301529695505050505050565b60008351613a42818460208801613214565b835190830190613a56818360208801613214565b01949350505050565b6001600160a01b0383168152604060208201819052600090611ffe90830184613240565b600082821015613a9557613a95613872565b500390565b600060208284031215613aac57600080fd5b5051919050565b6020808252602e908201527f496e697469616c697a61626c653a20636f6e747261637420697320616c72656160408201526d191e481a5b9a5d1a585b1a5e995960921b606082015260800190565b6020808252602b908201527f496e697469616c697a61626c653a20636f6e7472616374206973206e6f74206960408201526a6e697469616c697a696e6760a81b606082015260800190565b60208082526032908201527f4552433732313a207472616e7366657220746f206e6f6e20455243373231526560408201527131b2b4bb32b91034b6b83632b6b2b73a32b960711b606082015260800190565b600082613bad57613bad6138a7565b500690565b6001600160a01b0385811682528416602082015260408101839052608060608201819052600090613be590830184613240565b9695505050505050565b600060208284031215613c0157600080fd5b8151611c2f816131af565b634e487b7160e01b600052603160045260246000fdfe360894a13ba1a3210667c828492db98dca3e2076cc3735a920a3ca505d382bbc416464726573733a206c6f772d6c6576656c2064656c65676174652063616c6c206661696c6564a2646970667358221220ff0b4fe5a3fd76e4e9b8e83b66e8a02e9ef92e61625d380ad9a602e5d8bf809964736f6c634300080d0033496e697469616c697a61626c653a20636f6e747261637420697320616c726561",
  "linkReferences": {},
  "deployedLinkReferences": {}
}