{
  "_format": "hh-sol-artifact-1",
  "contractName": "Collection",
  "sourceName": "contracts/Collection3.sol",
  "abi": [
    {
      "inputs": [],
      "stateMutability": "nonpayable",
      "type": "constructor"
    },
    {
      "anonymous": false,
      "inputs": [
        {
          "indexed": false,
          "internalType": "address",
          "name": "previousAdmin",
          "type": "address"
        },
        {
          "indexed": false,
          "internalType": "address",
          "name": "newAdmin",
          "type": "address"
        }
      ],
      "name": "AdminChanged",
      "type": "event"
    },
    {
      "anonymous": false,
      "inputs": [
        {
          "indexed": true,
          "internalType": "address",
          "name": "owner",
          "type": "address"
        },
        {
          "indexed": true,
          "internalType": "address",
          "name": "approved",
          "type": "address"
        },
        {
          "indexed": true,
          "internalType": "uint256",
          "name": "tokenId",
          "type": "uint256"
        }
      ],
      "name": "Approval",
      "type": "event"
    },
    {
      "anonymous": false,
      "inputs": [
        {
          "indexed": true,
          "internalType": "address",
          "name": "owner",
          "type": "address"
        },
        {
          "indexed": true,
          "internalType": "address",
          "name": "operator",
          "type": "address"
        },
        {
          "indexed": false,
          "internalType": "bool",
          "name": "approved",
          "type": "bool"
        }
      ],
      "name": "ApprovalForAll",
      "type": "event"
    },
    {
      "anonymous": false,
      "inputs": [
        {
          "indexed": true,
          "internalType": "address",
          "name": "beacon",
          "type": "address"
        }
      ],
      "name": "BeaconUpgraded",
      "type": "event"
    },
    {
      "anonymous": false,
      "inputs": [
        {
          "indexed": false,
          "internalType": "address",
          "name": "userAddr",
          "type": "address"
        },
        {
          "indexed": false,
          "internalType": "uint256",
          "name": "holdingWeight",
          "type": "uint256"
        },
        {
          "indexed": false,
          "internalType": "uint256",
          "name": "paidAmount",
          "type": "uint256"
        },
        {
          "indexed": false,
          "internalType": "string",
          "name": "text",
          "type": "string"
        },
        {
          "indexed": false,
          "internalType": "uint256",
          "name": "typeInt",
          "type": "uint256"
        },
        {
          "indexed": false,
          "internalType": "uint256",
          "name": "_commentIndex",
          "type": "uint256"
        }
      ],
      "name": "Comment",
      "type": "event"
    },
    {
      "anonymous": false,
      "inputs": [
        {
          "indexed": false,
          "internalType": "uint8",
          "name": "version",
          "type": "uint8"
        }
      ],
      "name": "Initialized",
      "type": "event"
    },
    {
      "anonymous": false,
      "inputs": [
        {
          "indexed": true,
          "internalType": "address",
          "name": "previousOwner",
          "type": "address"
        },
        {
          "indexed": true,
          "internalType": "address",
          "name": "newOwner",
          "type": "address"
        }
      ],
      "name": "OwnershipTransferred",
      "type": "event"
    },
    {
      "anonymous": false,
      "inputs": [
        {
          "indexed": false,
          "internalType": "address",
          "name": "_userAddr",
          "type": "address"
        },
        {
          "indexed": false,
          "internalType": "string",
          "name": "username",
          "type": "string"
        }
      ],
      "name": "Register",
      "type": "event"
    },
    {
      "anonymous": false,
      "inputs": [
        {
          "indexed": false,
          "internalType": "string",
          "name": "baseURI_",
          "type": "string"
        }
      ],
      "name": "SetBaseURI",
      "type": "event"
    },
    {
      "anonymous": false,
      "inputs": [
        {
          "indexed": false,
          "internalType": "string",
          "name": "_creatorName",
          "type": "string"
        }
      ],
      "name": "SetCreatorName",
      "type": "event"
    },
    {
      "anonymous": false,
      "inputs": [
        {
          "indexed": false,
          "internalType": "uint256",
          "name": "_maxSupply",
          "type": "uint256"
        }
      ],
      "name": "SetMaxSupply",
      "type": "event"
    },
    {
      "anonymous": false,
      "inputs": [
        {
          "indexed": true,
          "internalType": "address",
          "name": "from",
          "type": "address"
        },
        {
          "indexed": true,
          "internalType": "address",
          "name": "to",
          "type": "address"
        },
        {
          "indexed": true,
          "internalType": "uint256",
          "name": "tokenId",
          "type": "uint256"
        }
      ],
      "name": "Transfer",
      "type": "event"
    },
    {
      "anonymous": false,
      "inputs": [
        {
          "indexed": false,
          "internalType": "address",
          "name": "_userAddr",
          "type": "address"
        }
      ],
      "name": "UnRegister",
      "type": "event"
    },
    {
      "anonymous": false,
      "inputs": [
        {
          "indexed": true,
          "internalType": "address",
          "name": "implementation",
          "type": "address"
        }
      ],
      "name": "Upgraded",
      "type": "event"
    },
    {
      "inputs": [],
      "name": "_creator_",
      "outputs": [
        {
          "internalType": "string",
          "name": "",
          "type": "string"
        }
      ],
      "stateMutability": "view",
      "type": "function"
    },
    {
      "inputs": [
        {
          "internalType": "address",
          "name": "to",
          "type": "address"
        },
        {
          "internalType": "uint256",
          "name": "tokenId",
          "type": "uint256"
        }
      ],
      "name": "approve",
      "outputs": [],
      "stateMutability": "nonpayable",
      "type": "function"
    },
    {
      "inputs": [
        {
          "internalType": "address",
          "name": "owner",
          "type": "address"
        }
      ],
      "name": "balanceOf",
      "outputs": [
        {
          "internalType": "uint256",
          "name": "",
          "type": "uint256"
        }
      ],
      "stateMutability": "view",
      "type": "function"
    },
    {
      "inputs": [
        {
          "internalType": "uint256",
          "name": "tokenId",
          "type": "uint256"
        }
      ],
      "name": "burn",
      "outputs": [],
      "stateMutability": "nonpayable",
      "type": "function"
    },
    {
      "inputs": [
        {
          "internalType": "uint256[]",
          "name": "tokenId",
          "type": "uint256[]"
        }
      ],
      "name": "burnBatch",
      "outputs": [],
      "stateMutability": "nonpayable",
      "type": "function"
    },
    {
      "inputs": [
        {
          "internalType": "string",
          "name": "text",
          "type": "string"
        },
        {
          "internalType": "uint256",
          "name": "typeInt",
          "type": "uint256"
        }
      ],
      "name": "comment",
      "outputs": [],
      "stateMutability": "payable",
      "type": "function"
    },
    {
      "inputs": [],
      "name": "commentIndex",
      "outputs": [
        {
          "internalType": "uint256",
          "name": "",
          "type": "uint256"
        }
      ],
      "stateMutability": "view",
      "type": "function"
    },
    {
      "inputs": [],
      "name": "deleteDefaultRoyalty",
      "outputs": [],
      "stateMutability": "nonpayable",
      "type": "function"
    },
    {
      "inputs": [
        {
          "internalType": "uint256",
          "name": "tokenId",
          "type": "uint256"
        }
      ],
      "name": "getApproved",
      "outputs": [
        {
          "internalType": "address",
          "name": "",
          "type": "address"
        }
      ],
      "stateMutability": "view",
      "type": "function"
    },
    {
      "inputs": [],
      "name": "guestsCommentFee",
      "outputs": [
        {
          "internalType": "uint256",
          "name": "",
          "type": "uint256"
        }
      ],
      "stateMutability": "view",
      "type": "function"
    },
    {
      "inputs": [],
      "name": "initialize",
      "outputs": [],
      "stateMutability": "nonpayable",
      "type": "function"
    },
    {
      "inputs": [
        {
          "internalType": "address",
          "name": "owner",
          "type": "address"
        },
        {
          "internalType": "address",
          "name": "operator",
          "type": "address"
        }
      ],
      "name": "isApprovedForAll",
      "outputs": [
        {
          "internalType": "bool",
          "name": "",
          "type": "bool"
        }
      ],
      "stateMutability": "view",
      "type": "function"
    },
    {
      "inputs": [],
      "name": "maxSupply",
      "outputs": [
        {
          "internalType": "uint256",
          "name": "",
          "type": "uint256"
        }
      ],
      "stateMutability": "view",
      "type": "function"
    },
    {
      "inputs": [
        {
          "internalType": "uint256",
          "name": "numberOfTokens",
          "type": "uint256"
        }
      ],
      "name": "mintFee",
      "outputs": [
        {
          "internalType": "uint256",
          "name": "",
          "type": "uint256"
        }
      ],
      "stateMutability": "view",
      "type": "function"
    },
    {
      "inputs": [],
      "name": "name",
      "outputs": [
        {
          "internalType": "string",
          "name": "",
          "type": "string"
        }
      ],
      "stateMutability": "view",
      "type": "function"
    },
    {
      "inputs": [],
      "name": "owner",
      "outputs": [
        {
          "internalType": "address",
          "name": "",
          "type": "address"
        }
      ],
      "stateMutability": "view",
      "type": "function"
    },
    {
      "inputs": [
        {
          "internalType": "address",
          "name": "_owner",
          "type": "address"
        }
      ],
      "name": "ownerHoldingWeight",
      "outputs": [
        {
          "internalType": "uint256",
          "name": "",
          "type": "uint256"
        }
      ],
      "stateMutability": "view",
      "type": "function"
    },
    {
      "inputs": [
        {
          "internalType": "uint256",
          "name": "tokenId",
          "type": "uint256"
        }
      ],
      "name": "ownerName",
      "outputs": [
        {
          "internalType": "string",
          "name": "",
          "type": "string"
        }
      ],
      "stateMutability": "view",
      "type": "function"
    },
    {
      "inputs": [
        {
          "internalType": "uint256",
          "name": "tokenId",
          "type": "uint256"
        }
      ],
      "name": "ownerOf",
      "outputs": [
        {
          "internalType": "address",
          "name": "",
          "type": "address"
        }
      ],
      "stateMutability": "view",
      "type": "function"
    },
    {
      "inputs": [
        {
          "internalType": "address",
          "name": "_owner",
          "type": "address"
        }
      ],
      "name": "ownerVotingPower",
      "outputs": [
        {
          "internalType": "uint256",
          "name": "",
          "type": "uint256"
        }
      ],
      "stateMutability": "view",
      "type": "function"
    },
    {
      "inputs": [],
      "name": "proxiableUUID",
      "outputs": [
        {
          "internalType": "bytes32",
          "name": "",
          "type": "bytes32"
        }
      ],
      "stateMutability": "view",
      "type": "function"
    },
    {
      "inputs": [
        {
          "internalType": "string",
          "name": "_username",
          "type": "string"
        }
      ],
      "name": "register",
      "outputs": [],
      "stateMutability": "nonpayable",
      "type": "function"
    },
    {
      "inputs": [],
      "name": "renounceOwnership",
      "outputs": [],
      "stateMutability": "nonpayable",
      "type": "function"
    },
    {
      "inputs": [
        {
          "internalType": "uint256",
          "name": "_tokenId",
          "type": "uint256"
        },
        {
          "internalType": "uint256",
          "name": "_salePrice",
          "type": "uint256"
        }
      ],
      "name": "royaltyInfo",
      "outputs": [
        {
          "internalType": "address",
          "name": "",
          "type": "address"
        },
        {
          "internalType": "uint256",
          "name": "",
          "type": "uint256"
        }
      ],
      "stateMutability": "view",
      "type": "function"
    },
    {
      "inputs": [
        {
          "internalType": "address",
          "name": "to",
          "type": "address"
        }
      ],
      "name": "safeMint",
      "outputs": [],
      "stateMutability": "payable",
      "type": "function"
    },
    {
      "inputs": [
        {
          "internalType": "address",
          "name": "to",
          "type": "address"
        },
        {
          "internalType": "uint256",
          "name": "numberOfTokens",
          "type": "uint256"
        }
      ],
      "name": "safeMintBatch",
      "outputs": [],
      "stateMutability": "payable",
      "type": "function"
    },
    {
      "inputs": [
        {
          "internalType": "address",
          "name": "from",
          "type": "address"
        },
        {
          "internalType": "address",
          "name": "to",
          "type": "address"
        },
        {
          "internalType": "uint256",
          "name": "tokenId",
          "type": "uint256"
        }
      ],
      "name": "safeTransferFrom",
      "outputs": [],
      "stateMutability": "nonpayable",
      "type": "function"
    },
    {
      "inputs": [
        {
          "internalType": "address",
          "name": "from",
          "type": "address"
        },
        {
          "internalType": "address",
          "name": "to",
          "type": "address"
        },
        {
          "internalType": "uint256",
          "name": "tokenId",
          "type": "uint256"
        },
        {
          "internalType": "bytes",
          "name": "_data",
          "type": "bytes"
        }
      ],
      "name": "safeTransferFrom",
      "outputs": [],
      "stateMutability": "nonpayable",
      "type": "function"
    },
    {
      "inputs": [
        {
          "internalType": "address[]",
          "name": "from",
          "type": "address[]"
        },
        {
          "internalType": "address[]",
          "name": "to",
          "type": "address[]"
        },
        {
          "internalType": "uint256[]",
          "name": "tokenId",
          "type": "uint256[]"
        }
      ],
      "name": "safeTransferFromBatch",
      "outputs": [],
      "stateMutability": "nonpayable",
      "type": "function"
    },
    {
      "inputs": [
        {
          "internalType": "address",
          "name": "operator",
          "type": "address"
        },
        {
          "internalType": "bool",
          "name": "approved",
          "type": "bool"
        }
      ],
      "name": "setApprovalForAll",
      "outputs": [],
      "stateMutability": "nonpayable",
      "type": "function"
    },
    {
      "inputs": [
        {
          "internalType": "uint256",
          "name": "_baseMintFee",
          "type": "uint256"
        }
      ],
      "name": "setBaseMintFee",
      "outputs": [],
      "stateMutability": "nonpayable",
      "type": "function"
    },
    {
      "inputs": [
        {
          "internalType": "string",
          "name": "baseURI_",
          "type": "string"
        }
      ],
      "name": "setBaseURI",
      "outputs": [],
      "stateMutability": "nonpayable",
      "type": "function"
    },
    {
      "inputs": [
        {
          "internalType": "string",
          "name": "_creatorName",
          "type": "string"
        }
      ],
      "name": "setCreatorName",
      "outputs": [],
      "stateMutability": "nonpayable",
      "type": "function"
    },
    {
      "inputs": [
        {
          "internalType": "address",
          "name": "royaltyReceiver",
          "type": "address"
        },
        {
          "internalType": "uint96",
          "name": "royaltyNumerator",
          "type": "uint96"
        }
      ],
      "name": "setDefaultRoyalty",
      "outputs": [],
      "stateMutability": "nonpayable",
      "type": "function"
    },
    {
      "inputs": [
        {
          "internalType": "uint256",
          "name": "_guestsCommentFee",
          "type": "uint256"
        }
      ],
      "name": "setGuestsCommentFee",
      "outputs": [],
      "stateMutability": "nonpayable",
      "type": "function"
    },
    {
      "inputs": [
        {
          "internalType": "uint256",
          "name": "_maxSupply",
          "type": "uint256"
        }
      ],
      "name": "setMaxSupply",
      "outputs": [],
      "stateMutability": "nonpayable",
      "type": "function"
    },
    {
      "inputs": [
        {
          "internalType": "uint256",
          "name": "_mintFeeRatioNumerator",
          "type": "uint256"
        }
      ],
      "name": "setMintFeeRatioNumerator",
      "outputs": [],
      "stateMutability": "nonpayable",
      "type": "function"
    },
    {
      "inputs": [
        {
          "internalType": "uint256",
          "name": "_tokenHoldersCommentFee",
          "type": "uint256"
        }
      ],
      "name": "setTokenHoldersCommentFee",
      "outputs": [],
      "stateMutability": "nonpayable",
      "type": "function"
    },
    {
      "inputs": [
        {
          "internalType": "bytes4",
          "name": "interfaceId",
          "type": "bytes4"
        }
      ],
      "name": "supportsInterface",
      "outputs": [
        {
          "internalType": "bool",
          "name": "",
          "type": "bool"
        }
      ],
      "stateMutability": "view",
      "type": "function"
    },
    {
      "inputs": [],
      "name": "symbol",
      "outputs": [
        {
          "internalType": "string",
          "name": "",
          "type": "string"
        }
      ],
      "stateMutability": "view",
      "type": "function"
    },
    {
      "inputs": [
        {
          "internalType": "uint256",
          "name": "index",
          "type": "uint256"
        }
      ],
      "name": "tokenByIndex",
      "outputs": [
        {
          "internalType": "uint256",
          "name": "",
          "type": "uint256"
        }
      ],
      "stateMutability": "view",
      "type": "function"
    },
    {
      "inputs": [],
      "name": "tokenHoldersCommentFee",
      "outputs": [
        {
          "internalType": "uint256",
          "name": "",
          "type": "uint256"
        }
      ],
      "stateMutability": "view",
      "type": "function"
    },
    {
      "inputs": [
        {
          "internalType": "address",
          "name": "owner",
          "type": "address"
        },
        {
          "internalType": "uint256",
          "name": "index",
          "type": "uint256"
        }
      ],
      "name": "tokenOfOwnerByIndex",
      "outputs": [
        {
          "internalType": "uint256",
          "name": "",
          "type": "uint256"
        }
      ],
      "stateMutability": "view",
      "type": "function"
    },
    {
      "inputs": [
        {
          "internalType": "uint256",
          "name": "tokenId",
          "type": "uint256"
        }
      ],
      "name": "tokenURI",
      "outputs": [
        {
          "internalType": "string",
          "name": "",
          "type": "string"
        }
      ],
      "stateMutability": "view",
      "type": "function"
    },
    {
      "inputs": [
        {
          "internalType": "uint256",
          "name": "tokenId",
          "type": "uint256"
        }
      ],
      "name": "tokenWeight",
      "outputs": [
        {
          "internalType": "uint256",
          "name": "",
          "type": "uint256"
        }
      ],
      "stateMutability": "view",
      "type": "function"
    },
    {
      "inputs": [],
      "name": "totalSupply",
      "outputs": [
        {
          "internalType": "uint256",
          "name": "",
          "type": "uint256"
        }
      ],
      "stateMutability": "view",
      "type": "function"
    },
    {
      "inputs": [
        {
          "internalType": "address",
          "name": "from",
          "type": "address"
        },
        {
          "internalType": "address",
          "name": "to",
          "type": "address"
        },
        {
          "internalType": "uint256",
          "name": "tokenId",
          "type": "uint256"
        }
      ],
      "name": "transferFrom",
      "outputs": [],
      "stateMutability": "nonpayable",
      "type": "function"
    },
    {
      "inputs": [
        {
          "internalType": "address",
          "name": "newOwner",
          "type": "address"
        }
      ],
      "name": "transferOwnership",
      "outputs": [],
      "stateMutability": "nonpayable",
      "type": "function"
    },
    {
      "inputs": [],
      "name": "unRegister",
      "outputs": [],
      "stateMutability": "nonpayable",
      "type": "function"
    },
    {
      "inputs": [
        {
          "internalType": "address",
          "name": "newImplementation",
          "type": "address"
        }
      ],
      "name": "upgradeTo",
      "outputs": [],
      "stateMutability": "nonpayable",
      "type": "function"
    },
    {
      "inputs": [
        {
          "internalType": "address",
          "name": "newImplementation",
          "type": "address"
        },
        {
          "internalType": "bytes",
          "name": "data",
          "type": "bytes"
        }
      ],
      "name": "upgradeToAndCall",
      "outputs": [],
      "stateMutability": "payable",
      "type": "function"
    },
    {
      "inputs": [
        {
          "internalType": "string",
          "name": "_username",
          "type": "string"
        }
      ],
      "name": "userBalance",
      "outputs": [
        {
          "internalType": "uint256",
          "name": "",
          "type": "uint256"
        }
      ],
      "stateMutability": "view",
      "type": "function"
    },
    {
      "inputs": [
        {
          "internalType": "address",
          "name": "userAddr",
          "type": "address"
        }
      ],
      "name": "username",
      "outputs": [
        {
          "internalType": "string",
          "name": "",
          "type": "string"
        }
      ],
      "stateMutability": "view",
      "type": "function"
    },
    {
      "inputs": [
        {
          "internalType": "uint256",
          "name": "amount",
          "type": "uint256"
        }
      ],
      "name": "withdraw",
      "outputs": [],
      "stateMutability": "nonpayable",
      "type": "function"
    }
  ],
  "bytecode": "0x60a0604052306080523480156200001557600080fd5b506200002062000026565b62000156565b6200003260ff62000035565b50565b60008054610100900460ff1615620000ce578160ff1660011480156200006e57506200006c306200014760201b62001fe21760201c565b155b620000c65760405162461bcd60e51b815260206004820152602e60248201526000805160206200418d83398151915260448201526d191e481a5b9a5d1a585b1a5e995960921b60648201526084015b60405180910390fd5b506000919050565b60005460ff8084169116106200012d5760405162461bcd60e51b815260206004820152602e60248201526000805160206200418d83398151915260448201526d191e481a5b9a5d1a585b1a5e995960921b6064820152608401620000bd565b506000805460ff191660ff92909216919091179055600190565b6001600160a01b03163b151590565b608051613fff6200018e60003960008181610ff8015281816110380152818161122901528181611269015261138b0152613fff6000f3fe6080604052600436106103355760003560e01c80636f8b44b0116101ab578063b88d4fde116100f7578063d72e780e11610095578063e985e9c51161006f578063e985e9c51461094c578063f2c298be14610995578063f2fde38b146109b5578063ffae01b0146109d557600080fd5b8063d72e780e146108d5578063de58cd41146108f5578063e4623c1b1461092c57600080fd5b8063bb99e701116100d1578063bb99e7011461085b578063c19d7ab314610870578063c87b56dd1461089e578063d5abeb01146108be57600080fd5b8063b88d4fde14610804578063b8dcb01f14610824578063ba4e72ad1461084457600080fd5b8063903be51f11610164578063a1cebf441161013e578063a1cebf4414610798578063a22cb465146107af578063a9b449e0146107cf578063aa1b103f146107ef57600080fd5b8063903be51f1461074357806395d89b41146107635780639c3d371c1461077857600080fd5b80636f8b44b01461069a57806370a08231146106ba578063715018a6146106da5780638129fc1c146106ef5780638a35ace3146107045780638da5cb5b1461072457600080fd5b80632f745c59116102855780634f6ccce71161022357806355f804b3116101fd57806355f804b3146106275780635c751ff21461064757806360eb94851461065a5780636352211e1461067a57600080fd5b80634f6ccce7146105db57806350a36400146105fb57806352d1902d1461061257600080fd5b806342842e0e1161025f57806342842e0e1461057557806342966c68146105955780634bc96248146105b55780634f1ef286146105c857600080fd5b80632f745c59146105225780633659cfe61461054257806340d097c31461056257600080fd5b80631536aedd116102f257806325b5c6e3116102cc57806325b5c6e31461048e57806326d7b3b4146104ae5780632a55205a146104c35780632e1a7d4d1461050257600080fd5b80631536aedd1461042b57806318160ddd1461045957806323b872dd1461046e57600080fd5b806301ffc9a71461033a57806304634d8d1461036f5780630610a7a21461039157806306fdde03146103be578063081812fc146103d3578063095ea7b31461040b575b600080fd5b34801561034657600080fd5b5061035a6103553660046134c1565b6109f5565b60405190151581526020015b60405180910390f35b34801561037b57600080fd5b5061038f61038a3660046134f5565b610a06565b005b34801561039d57600080fd5b506103b16103ac366004613538565b610a48565b60405161036691906135ab565b3480156103ca57600080fd5b506103b1610af5565b3480156103df57600080fd5b506103f36103ee3660046135be565b610b87565b6040516001600160a01b039091168152602001610366565b34801561041757600080fd5b5061038f6104263660046135d7565b610c1c565b34801561043757600080fd5b5061044b6104463660046136b8565b610d31565b604051908152602001610366565b34801561046557600080fd5b5060cb5461044b565b34801561047a57600080fd5b5061038f6104893660046136ed565b610d65565b34801561049a57600080fd5b5061038f6104a93660046135be565b610d97565b3480156104ba57600080fd5b5061038f610dc8565b3480156104cf57600080fd5b506104e36104de366004613729565b610e54565b604080516001600160a01b039093168352602083019190915201610366565b34801561050e57600080fd5b5061038f61051d3660046135be565b610f00565b34801561052e57600080fd5b5061044b61053d3660046135d7565b610f58565b34801561054e57600080fd5b5061038f61055d366004613538565b610fee565b61038f610570366004613538565b6110cd565b34801561058157600080fd5b5061038f6105903660046136ed565b61111c565b3480156105a157600080fd5b5061038f6105b03660046135be565b611137565b61038f6105c33660046135d7565b6111ae565b61038f6105d636600461374b565b61121f565b3480156105e757600080fd5b5061044b6105f63660046135be565b6112eb565b34801561060757600080fd5b5061044b6101fe5481565b34801561061e57600080fd5b5061044b61137e565b34801561063357600080fd5b5061038f6106423660046136b8565b611431565b61038f610655366004613799565b6114ab565b34801561066657600080fd5b5061038f6106753660046136b8565b611619565b34801561068657600080fd5b506103f36106953660046135be565b611688565b3480156106a657600080fd5b5061038f6106b53660046135be565b6116ff565b3480156106c657600080fd5b5061044b6106d5366004613538565b6117ec565b3480156106e657600080fd5b5061038f611873565b3480156106fb57600080fd5b5061038f6118aa565b34801561071057600080fd5b5061044b61071f3660046135be565b6119fb565b34801561073057600080fd5b5061015f546001600160a01b03166103f3565b34801561074f57600080fd5b5061044b61075e366004613538565b611a31565b34801561076f57600080fd5b506103b1611a9e565b34801561078457600080fd5b506103b16107933660046135be565b611aad565b3480156107a457600080fd5b5061044b6102005481565b3480156107bb57600080fd5b5061038f6107ca3660046137de565b611abb565b3480156107db57600080fd5b5061038f6107ea3660046135be565b611ac6565b3480156107fb57600080fd5b5061038f611af7565b34801561081057600080fd5b5061038f61081f36600461380f565b611b2c565b34801561083057600080fd5b5061038f61083f366004613968565b611b64565b34801561085057600080fd5b5061044b6101ff5481565b34801561086757600080fd5b506103b1611c4c565b34801561087c57600080fd5b5061044b61088b3660046135be565b6000908152610201602052604090205490565b3480156108aa57600080fd5b506103b16108b93660046135be565b611cdb565b3480156108ca57600080fd5b5061044b6101f85481565b3480156108e157600080fd5b5061038f6108f03660046135be565b611db5565b34801561090157600080fd5b5061044b610910366004613538565b6001600160a01b03166000908152610202602052604090205490565b34801561093857600080fd5b5061038f6109473660046139f0565b611de6565b34801561095857600080fd5b5061035a610967366004613a25565b6001600160a01b039182166000908152609c6020908152604080832093909416825291909152205460ff1690565b3480156109a157600080fd5b5061038f6109b03660046136b8565b611e26565b3480156109c157600080fd5b5061038f6109d0366004613538565b611f18565b3480156109e157600080fd5b5061038f6109f03660046135be565b611fb1565b6000610a0082611ff1565b92915050565b61015f546001600160a01b03163314610a3a5760405162461bcd60e51b8152600401610a3190613a58565b60405180910390fd5b610a448282611ffc565b5050565b6001600160a01b03811660009081526101f960205260409020805460609190610a7090613a8d565b80601f0160208091040260200160405190810160405280929190818152602001828054610a9c90613a8d565b8015610ae95780601f10610abe57610100808354040283529160200191610ae9565b820191906000526020600020905b815481529060010190602001808311610acc57829003601f168201915b50505050509050919050565b606060978054610b0490613a8d565b80601f0160208091040260200160405190810160405280929190818152602001828054610b3090613a8d565b8015610b7d5780601f10610b5257610100808354040283529160200191610b7d565b820191906000526020600020905b815481529060010190602001808311610b6057829003601f168201915b5050505050905090565b6000818152609960205260408120546001600160a01b0316610c005760405162461bcd60e51b815260206004820152602c60248201527f4552433732313a20617070726f76656420717565727920666f72206e6f6e657860448201526b34b9ba32b73a103a37b5b2b760a11b6064820152608401610a31565b506000908152609b60205260409020546001600160a01b031690565b6000610c2782611688565b9050806001600160a01b0316836001600160a01b031603610c945760405162461bcd60e51b815260206004820152602160248201527f4552433732313a20617070726f76616c20746f2063757272656e74206f776e656044820152603960f91b6064820152608401610a31565b336001600160a01b0382161480610cb05750610cb08133610967565b610d225760405162461bcd60e51b815260206004820152603860248201527f4552433732313a20617070726f76652063616c6c6572206973206e6f74206f7760448201527f6e6572206e6f7220617070726f76656420666f7220616c6c00000000000000006064820152608401610a31565b610d2c83836120f9565b505050565b6000610a006101fa83604051610d479190613ac7565b908152604051908190036020019020546001600160a01b03166117ec565b610d70335b82612167565b610d8c5760405162461bcd60e51b8152600401610a3190613ae3565b610d2c83838361225e565b61015f546001600160a01b03163314610dc25760405162461bcd60e51b8152600401610a3190613a58565b6101fb55565b3360009081526101f960205260409081902090516101fa91610de991613b34565b908152604080516020928190038301902080546001600160a01b03191690553360009081526101f99092528120610e1f916133d8565b6040513381527f630f28bb6372d0a747db8dcdb1a523bd9d875ddd96649c705325e60b239fc3c39060200160405180910390a1565b60008281526066602090815260408083208151808301909252546001600160a01b038116808352600160a01b9091046001600160601b0316928201929092528291610ec95750604080518082019091526065546001600160a01b0381168252600160a01b90046001600160601b031660208201525b602081015160009061271090610ee8906001600160601b031687613be5565b610ef29190613c1a565b915196919550909350505050565b61015f546001600160a01b03163314610f2b5760405162461bcd60e51b8152600401610a3190613a58565b604051339082156108fc029083906000818181858888f19350505050158015610a44573d6000803e3d6000fd5b6000610f63836117ec565b8210610fc55760405162461bcd60e51b815260206004820152602b60248201527f455243373231456e756d657261626c653a206f776e657220696e646578206f7560448201526a74206f6620626f756e647360a81b6064820152608401610a31565b506001600160a01b0391909116600090815260c960209081526040808320938352929052205490565b6001600160a01b037f00000000000000000000000000000000000000000000000000000000000000001630036110365760405162461bcd60e51b8152600401610a3190613c2e565b7f00000000000000000000000000000000000000000000000000000000000000006001600160a01b031661107f600080516020613f83833981519152546001600160a01b031690565b6001600160a01b0316146110a55760405162461bcd60e51b8152600401610a3190613c7a565b6110ae8161240b565b604080516000808252602082019092526110ca91839190612436565b50565b60006110d96101f55490565b90506110e4816125a1565b3410156111035760405162461bcd60e51b8152600401610a3190613cc6565b6111126101f580546001019055565b610a4482826125db565b610d2c83838360405180602001604052806000815250611b2c565b61114033610d6a565b6111a55760405162461bcd60e51b815260206004820152603060248201527f4552433732314275726e61626c653a2063616c6c6572206973206e6f74206f7760448201526f1b995c881b9bdc88185c1c1c9bdd995960821b6064820152608401610a31565b6110ca816125f5565b6111c16111bb6101f55490565b826125fe565b3410156111e05760405162461bcd60e51b8152600401610a3190613cc6565b60005b81811015610d2c576111fe836111f96101f55490565b6125db565b61120d6101f580546001019055565b8061121781613d07565b9150506111e3565b6001600160a01b037f00000000000000000000000000000000000000000000000000000000000000001630036112675760405162461bcd60e51b8152600401610a3190613c2e565b7f00000000000000000000000000000000000000000000000000000000000000006001600160a01b03166112b0600080516020613f83833981519152546001600160a01b031690565b6001600160a01b0316146112d65760405162461bcd60e51b8152600401610a3190613c7a565b6112df8261240b565b610a4482826001612436565b60006112f660cb5490565b82106113595760405162461bcd60e51b815260206004820152602c60248201527f455243373231456e756d657261626c653a20676c6f62616c20696e646578206f60448201526b7574206f6620626f756e647360a01b6064820152608401610a31565b60cb828154811061136c5761136c613d20565b90600052602060002001549050919050565b6000306001600160a01b037f0000000000000000000000000000000000000000000000000000000000000000161461141e5760405162461bcd60e51b815260206004820152603860248201527f555550535570677261646561626c653a206d757374206e6f742062652063616c60448201527f6c6564207468726f7567682064656c656761746563616c6c00000000000000006064820152608401610a31565b50600080516020613f8383398151915290565b61015f546001600160a01b0316331461145c5760405162461bcd60e51b8152600401610a3190613a58565b8051611470906101f7906020840190613412565b507f23c8c9488efebfd474e85a7956de6f39b17c7ab88502d42a623db2d8e382bbaa816040516114a091906135ab565b60405180910390a150565b3360009081526102026020526040902054348115611531576101fe54811161152c5760405162461bcd60e51b815260206004820152602e60248201527f436f6c6c656374696f6e3a20696e73756666696369656e742066656520666f7260448201526d103a37b5b2b72437b63232b9399760911b6064820152608401610a31565b611593565b6101ff5481116115935760405162461bcd60e51b815260206004820152602760248201527f436f6c6c656374696f6e3a20696e73756666696369656e742066656520666f726044820152661033bab2b9ba1760c91b6064820152608401610a31565b3360009081526101fd6020526040812080548392906115b3908490613d36565b9091555050610200546040517fb115fe19761893878cadbab8cfc5c7a04feb93c88ff56aa5c93a8430347973a2916115f5913391869186918a918a9190613d4e565b60405180910390a1610200805490600061160e83613d07565b919050555050505050565b61015f546001600160a01b031633146116445760405162461bcd60e51b8152600401610a3190613a58565b8051611658906101f6906020840190613412565b507f236f8389aa7c121fd00a2e18f64a0bf0789ab8925f9d80674426dc499590d85c816040516114a091906135ab565b6000818152609960205260408120546001600160a01b031680610a005760405162461bcd60e51b815260206004820152602960248201527f4552433732313a206f776e657220717565727920666f72206e6f6e657869737460448201526832b73a103a37b5b2b760b91b6064820152608401610a31565b61015f546001600160a01b0316331461172a5760405162461bcd60e51b8152600401610a3190613a58565b6101f5548110156117b65760405162461bcd60e51b815260206004820152604a60248201527f436f6c6c656374696f6e3a206d6178537570706c79206d75737420626520677260448201527f6561746572207468616e206f7220657175616c20746f20746865206375727265606482015269373a1039bab838363c9760b11b608482015260a401610a31565b6101f88190556040518181527f3f8118fc46e72ecde0c5e090803cad8c88e817b2f1e93e820aa9bfbf51f2468d906020016114a0565b60006001600160a01b0382166118575760405162461bcd60e51b815260206004820152602a60248201527f4552433732313a2062616c616e636520717565727920666f7220746865207a65604482015269726f206164647265737360b01b6064820152608401610a31565b506001600160a01b03166000908152609a602052604090205490565b61015f546001600160a01b0316331461189e5760405162461bcd60e51b8152600401610a3190613a58565b6118a86000612627565b565b60006118b6600161267a565b905080156118ce576000805461ff0019166101001790555b6040805180820190915260068082526552656e6f706560d01b60209092019182526118fc916101f691613412565b506119446040518060400160405280600b81526020016a636f6c6c656374696f6e3360a81b81525060405180604001604052806002815260200161633360f01b815250612707565b61194c612738565b611954612738565b61195d3361275f565b60408051602081019182905260009081905261197c916101f791613412565b5060646101f85561198f306101f4611ffc565b66b1a2bc2ec500006101fb5560c86101fc556611c37937e080006101fe55662386f26fc100006101ff5580156110ca576000805461ff0019169055604051600181527f7f26b83ff96e1f2b6a682f133852f6798a09c465da95921460cefb3847402498906020016114a0565b600080611a086101f55490565b905082600114611a2157611a1c81846125fe565b611a2a565b611a2a816125a1565b9392505050565b6001600160a01b038116600090815261020260209081526040808320546102049092528220546201518090611a669042613d90565b611a709190613c1a565b611a7a9190613be5565b6001600160a01b03831660009081526102036020526040902054610a009190613d36565b606060988054610b0490613a8d565b6060610a006103ac83611688565b610a44338383612786565b61015f546001600160a01b03163314611af15760405162461bcd60e51b8152600401610a3190613a58565b6101fc55565b61015f546001600160a01b03163314611b225760405162461bcd60e51b8152600401610a3190613a58565b6118a86000606555565b611b363383612167565b611b525760405162461bcd60e51b8152600401610a3190613ae3565b611b5e84848484612854565b50505050565b80518351148015611b76575080518251145b611bd85760405162461bcd60e51b815260206004820152602d60248201527f436f6c6c656374696f6e3a20796f75206d75737420656e7465722073616d652060448201526c6c656e6774682061727261797360981b6064820152608401610a31565b60005b8151811015611b5e57611c3a848281518110611bf957611bf9613d20565b6020026020010151848381518110611c1357611c13613d20565b6020026020010151848481518110611c2d57611c2d613d20565b602002602001015161111c565b80611c4481613d07565b915050611bdb565b6101f68054611c5a90613a8d565b80601f0160208091040260200160405190810160405280929190818152602001828054611c8690613a8d565b8015611cd35780601f10611ca857610100808354040283529160200191611cd3565b820191906000526020600020905b815481529060010190602001808311611cb657829003601f168201915b505050505081565b6000818152609960205260409020546060906001600160a01b0316611d5a5760405162461bcd60e51b815260206004820152602f60248201527f4552433732314d657461646174613a2055524920717565727920666f72206e6f60448201526e3732bc34b9ba32b73a103a37b5b2b760891b6064820152608401610a31565b6000611d64612887565b90506000815111611d845760405180602001604052806000815250611a2a565b80611d8e84612897565b604051602001611d9f929190613da7565b6040516020818303038152906040529392505050565b61015f546001600160a01b03163314611de05760405162461bcd60e51b8152600401610a3190613a58565b6101ff55565b60005b8151811015610a4457611e14828281518110611e0757611e07613d20565b6020026020010151611137565b80611e1e81613d07565b915050611de9565b60006001600160a01b03166101fa82604051611e429190613ac7565b908152604051908190036020019020546001600160a01b031614611ec55760405162461bcd60e51b815260206004820152603460248201527f436f6c6c656374696f6e3a2074686520757365726e616d652068617320616c726044820152731958591e481899595b881c9959da5cdd195c995960621b6064820152608401610a31565b3360009081526101f9602090815260409091208251611ee692840190613412565b507f6ba0831d2f62ae5cbf7214bcc1d79c5da1d705f12811efda0beaa840006f874e33826040516114a0929190613dd6565b61015f546001600160a01b03163314611f435760405162461bcd60e51b8152600401610a3190613a58565b6001600160a01b038116611fa85760405162461bcd60e51b815260206004820152602660248201527f4f776e61626c653a206e6577206f776e657220697320746865207a65726f206160448201526564647265737360d01b6064820152608401610a31565b6110ca81612627565b61015f546001600160a01b03163314611fdc5760405162461bcd60e51b8152600401610a3190613a58565b6101fe55565b6001600160a01b03163b151590565b6000610a0082612998565b6127106001600160601b038216111561206a5760405162461bcd60e51b815260206004820152602a60248201527f455243323938313a20726f79616c7479206665652077696c6c206578636565646044820152692073616c65507269636560b01b6064820152608401610a31565b6001600160a01b0382166120c05760405162461bcd60e51b815260206004820152601960248201527f455243323938313a20696e76616c6964207265636569766572000000000000006044820152606401610a31565b604080518082019091526001600160a01b039092168083526001600160601b039091166020909201829052600160a01b90910217606555565b6000818152609b6020526040902080546001600160a01b0319166001600160a01b038416908117909155819061212e82611688565b6001600160a01b03167f8c5be1e5ebec7d5bd14f71427d1e84f3dd0314c0f7b2291e5b200ac8c7c3b92560405160405180910390a45050565b6000818152609960205260408120546001600160a01b03166121e05760405162461bcd60e51b815260206004820152602c60248201527f4552433732313a206f70657261746f7220717565727920666f72206e6f6e657860448201526b34b9ba32b73a103a37b5b2b760a11b6064820152608401610a31565b60006121eb83611688565b9050806001600160a01b0316846001600160a01b0316148061223257506001600160a01b038082166000908152609c602090815260408083209388168352929052205460ff165b806122565750836001600160a01b031661224b84610b87565b6001600160a01b0316145b949350505050565b826001600160a01b031661227182611688565b6001600160a01b0316146122d55760405162461bcd60e51b815260206004820152602560248201527f4552433732313a207472616e736665722066726f6d20696e636f72726563742060448201526437bbb732b960d91b6064820152608401610a31565b6001600160a01b0382166123375760405162461bcd60e51b8152602060048201526024808201527f4552433732313a207472616e7366657220746f20746865207a65726f206164646044820152637265737360e01b6064820152608401610a31565b6123428383836129bd565b61234d6000826120f9565b6001600160a01b0383166000908152609a60205260408120805460019290612376908490613d90565b90915550506001600160a01b0382166000908152609a602052604081208054600192906123a4908490613d36565b909155505060008181526099602052604080822080546001600160a01b0319166001600160a01b0386811691821790925591518493918716917fddf252ad1be2c89b69c2b068fc378daa952ba7f163c4a11628f55a4df523b3ef91a4610d2c838383612a50565b61015f546001600160a01b031633146110ca5760405162461bcd60e51b8152600401610a3190613a58565b7f4910fdfa16fed3260ed0e7147f7cc6da11a60208b5b9406d12a635614ffd91435460ff161561246957610d2c83612af0565b826001600160a01b03166352d1902d6040518163ffffffff1660e01b8152600401602060405180830381865afa9250505080156124c3575060408051601f3d908101601f191682019092526124c091810190613dfa565b60015b6125265760405162461bcd60e51b815260206004820152602e60248201527f45524331393637557067726164653a206e657720696d706c656d656e7461746960448201526d6f6e206973206e6f74205555505360901b6064820152608401610a31565b600080516020613f8383398151915281146125955760405162461bcd60e51b815260206004820152602960248201527f45524331393637557067726164653a20756e737570706f727465642070726f786044820152681a58589b195555525160ba1b6064820152608401610a31565b50610d2c838383612b8c565b60006127106101fc54836101fb546125b99190613be5565b6125c39190613be5565b6125cd9190613c1a565b6101fb54610a009190613d36565b610a44828260405180602001604052806000815250612bb1565b6110ca81612be4565b600061261d61260e600284613c1a565b6126189085613d36565b6125a1565b611a2a9083613be5565b61015f80546001600160a01b038381166001600160a01b0319831681179093556040519116919082907f8be0079c531659141344cd1fd0a4f28419497f9722a3daafe3b4186f6b6457e090600090a35050565b60008054610100900460ff16156126c1578160ff16600114801561269d5750303b155b6126b95760405162461bcd60e51b8152600401610a3190613e13565b506000919050565b60005460ff8084169116106126e85760405162461bcd60e51b8152600401610a3190613e13565b506000805460ff191660ff92909216919091179055600190565b919050565b600054610100900460ff1661272e5760405162461bcd60e51b8152600401610a3190613e61565b610a448282612bfe565b600054610100900460ff166118a85760405162461bcd60e51b8152600401610a3190613e61565b600054610100900460ff16611fa85760405162461bcd60e51b8152600401610a3190613e61565b816001600160a01b0316836001600160a01b0316036127e75760405162461bcd60e51b815260206004820152601960248201527f4552433732313a20617070726f766520746f2063616c6c6572000000000000006044820152606401610a31565b6001600160a01b038381166000818152609c6020908152604080832094871680845294825291829020805460ff191686151590811790915591519182527f17307eab39ab6107e8899845ad3d59bd9653f200f220920489ca2b5937696c31910160405180910390a3505050565b61285f84848461225e565b61286b84848484612c4c565b611b5e5760405162461bcd60e51b8152600401610a3190613eac565b60606101f78054610b0490613a8d565b6060816000036128be5750506040805180820190915260018152600360fc1b602082015290565b8160005b81156128e857806128d281613d07565b91506128e19050600a83613c1a565b91506128c2565b60008167ffffffffffffffff81111561290357612903613601565b6040519080825280601f01601f19166020018201604052801561292d576020820181803683370190505b5090505b841561225657612942600183613d90565b915061294f600a86613efe565b61295a906030613d36565b60f81b81838151811061296f5761296f613d20565b60200101906001600160f81b031916908160001a905350612991600a86613c1a565b9450612931565b60006001600160e01b0319821663780e9d6360e01b1480610a005750610a0082612d4d565b6129c8838383612d8d565b6001600160a01b03831615612a0a576129e083611a31565b6001600160a01b038416600090815261020360209081526040808320939093556102049052204290555b6001600160a01b03821615610d2c57612a2282611a31565b6001600160a01b03831660009081526102036020908152604080832093909355610204905220429055505050565b6001600160a01b03831615612a9e57600081815261020160205260409020546001600160a01b0384166000908152610202602052604081208054909190612a98908490613d90565b90915550505b6001600160a01b03821615610d2c57600081815261020160205260409020546001600160a01b0383166000908152610202602052604081208054909190612ae6908490613d36565b9091555050505050565b6001600160a01b0381163b612b5d5760405162461bcd60e51b815260206004820152602d60248201527f455243313936373a206e657720696d706c656d656e746174696f6e206973206e60448201526c1bdd08184818dbdb9d1c9858dd609a1b6064820152608401610a31565b600080516020613f8383398151915280546001600160a01b0319166001600160a01b0392909216919091179055565b612b9583612e45565b600082511180612ba25750805b15610d2c57611b5e8383612e85565b612bbb8383612f79565b612bc86000848484612c4c565b610d2c5760405162461bcd60e51b8152600401610a3190613eac565b612bed81612fd5565b600090815260666020526040812055565b600054610100900460ff16612c255760405162461bcd60e51b8152600401610a3190613e61565b8151612c38906097906020850190613412565b508051610d2c906098906020840190613412565b60006001600160a01b0384163b15612d4257604051630a85bd0160e11b81526001600160a01b0385169063150b7a0290612c90903390899088908890600401613f12565b6020604051808303816000875af1925050508015612ccb575060408051601f3d908101601f19168201909252612cc891810190613f4f565b60015b612d28573d808015612cf9576040519150601f19603f3d011682016040523d82523d6000602084013e612cfe565b606091505b508051600003612d205760405162461bcd60e51b8152600401610a3190613eac565b805181602001fd5b6001600160e01b031916630a85bd0160e11b149050612256565b506001949350505050565b60006001600160e01b031982166380ac58cd60e01b1480612d7e57506001600160e01b03198216635b5e139f60e01b145b80610a005750610a0082613084565b6001600160a01b038316612de857612de38160cb8054600083815260cc60205260408120829055600182018355919091527fa7ce836d032b2bf62b7e2097a8e0a6d8aeb35405ad15271e96d3b0188a1d06fb0155565b612e0b565b816001600160a01b0316836001600160a01b031614612e0b57612e0b83826130b9565b6001600160a01b038216612e2257610d2c81613156565b826001600160a01b0316826001600160a01b031614610d2c57610d2c8282613205565b612e4e81612af0565b6040516001600160a01b038216907fbc7cd75a20ee27fd9adebab32041f755214dbc6bffa90cc0225b39da2e5c2d3b90600090a250565b60606001600160a01b0383163b612eed5760405162461bcd60e51b815260206004820152602660248201527f416464726573733a2064656c65676174652063616c6c20746f206e6f6e2d636f6044820152651b9d1c9858dd60d21b6064820152608401610a31565b600080846001600160a01b031684604051612f089190613ac7565b600060405180830381855af49150503d8060008114612f43576040519150601f19603f3d011682016040523d82523d6000602084013e612f48565b606091505b5091509150612f708282604051806060016040528060278152602001613fa360279139613249565b95945050505050565b6101f8548110612fcb5760405162461bcd60e51b815260206004820152601c60248201527f436f6c6c656374696f6e3a20496e76616c696420746f6b656e204964000000006044820152606401610a31565b610a448282613282565b6000612fe082611688565b9050612fee816000846129bd565b612ff96000836120f9565b6001600160a01b0381166000908152609a60205260408120805460019290613022908490613d90565b909155505060008281526099602052604080822080546001600160a01b0319169055518391906001600160a01b038416907fddf252ad1be2c89b69c2b068fc378daa952ba7f163c4a11628f55a4df523b3ef908390a4610a4481600084612a50565b60006001600160e01b0319821663152a902d60e11b1480610a0057506301ffc9a760e01b6001600160e01b0319831614610a00565b600060016130c6846117ec565b6130d09190613d90565b600083815260ca6020526040902054909150808214613123576001600160a01b038416600090815260c960209081526040808320858452825280832054848452818420819055835260ca90915290208190555b50600091825260ca602090815260408084208490556001600160a01b03909416835260c981528383209183525290812055565b60cb5460009061316890600190613d90565b600083815260cc602052604081205460cb805493945090928490811061319057613190613d20565b906000526020600020015490508060cb83815481106131b1576131b1613d20565b600091825260208083209091019290925582815260cc909152604080822084905585825281205560cb8054806131e9576131e9613f6c565b6001900381819060005260206000200160009055905550505050565b6000613210836117ec565b6001600160a01b03909316600090815260c960209081526040808320868452825280832085905593825260ca9052919091209190915550565b60608315613258575081611a2a565b8251156132685782518084602001fd5b8160405162461bcd60e51b8152600401610a3191906135ab565b6001600160a01b0382166132d85760405162461bcd60e51b815260206004820181905260248201527f4552433732313a206d696e7420746f20746865207a65726f20616464726573736044820152606401610a31565b6000818152609960205260409020546001600160a01b03161561333d5760405162461bcd60e51b815260206004820152601c60248201527f4552433732313a20746f6b656e20616c7265616479206d696e746564000000006044820152606401610a31565b613349600083836129bd565b6001600160a01b0382166000908152609a60205260408120805460019290613372908490613d36565b909155505060008181526099602052604080822080546001600160a01b0319166001600160a01b03861690811790915590518392907fddf252ad1be2c89b69c2b068fc378daa952ba7f163c4a11628f55a4df523b3ef908290a4610a4460008383612a50565b5080546133e490613a8d565b6000825580601f106133f4575050565b601f0160209004906000526020600020908101906110ca9190613496565b82805461341e90613a8d565b90600052602060002090601f0160209004810192826134405760008555613486565b82601f1061345957805160ff1916838001178555613486565b82800160010185558215613486579182015b8281111561348657825182559160200191906001019061346b565b50613492929150613496565b5090565b5b808211156134925760008155600101613497565b6001600160e01b0319811681146110ca57600080fd5b6000602082840312156134d357600080fd5b8135611a2a816134ab565b80356001600160a01b038116811461270257600080fd5b6000806040838503121561350857600080fd5b613511836134de565b915060208301356001600160601b038116811461352d57600080fd5b809150509250929050565b60006020828403121561354a57600080fd5b611a2a826134de565b60005b8381101561356e578181015183820152602001613556565b83811115611b5e5750506000910152565b60008151808452613597816020860160208601613553565b601f01601f19169290920160200192915050565b602081526000611a2a602083018461357f565b6000602082840312156135d057600080fd5b5035919050565b600080604083850312156135ea57600080fd5b6135f3836134de565b946020939093013593505050565b634e487b7160e01b600052604160045260246000fd5b604051601f8201601f1916810167ffffffffffffffff8111828210171561364057613640613601565b604052919050565b600082601f83011261365957600080fd5b813567ffffffffffffffff81111561367357613673613601565b613686601f8201601f1916602001613617565b81815284602083860101111561369b57600080fd5b816020850160208301376000918101602001919091529392505050565b6000602082840312156136ca57600080fd5b813567ffffffffffffffff8111156136e157600080fd5b61225684828501613648565b60008060006060848603121561370257600080fd5b61370b846134de565b9250613719602085016134de565b9150604084013590509250925092565b6000806040838503121561373c57600080fd5b50508035926020909101359150565b6000806040838503121561375e57600080fd5b613767836134de565b9150602083013567ffffffffffffffff81111561378357600080fd5b61378f85828601613648565b9150509250929050565b600080604083850312156137ac57600080fd5b823567ffffffffffffffff8111156137c357600080fd5b6137cf85828601613648565b95602094909401359450505050565b600080604083850312156137f157600080fd5b6137fa836134de565b91506020830135801515811461352d57600080fd5b6000806000806080858703121561382557600080fd5b61382e856134de565b935061383c602086016134de565b925060408501359150606085013567ffffffffffffffff81111561385f57600080fd5b61386b87828801613648565b91505092959194509250565b600067ffffffffffffffff82111561389157613891613601565b5060051b60200190565b600082601f8301126138ac57600080fd5b813560206138c16138bc83613877565b613617565b82815260059290921b840181019181810190868411156138e057600080fd5b8286015b84811015613902576138f5816134de565b83529183019183016138e4565b509695505050505050565b600082601f83011261391e57600080fd5b8135602061392e6138bc83613877565b82815260059290921b8401810191818101908684111561394d57600080fd5b8286015b848110156139025780358352918301918301613951565b60008060006060848603121561397d57600080fd5b833567ffffffffffffffff8082111561399557600080fd5b6139a18783880161389b565b945060208601359150808211156139b757600080fd5b6139c38783880161389b565b935060408601359150808211156139d957600080fd5b506139e68682870161390d565b9150509250925092565b600060208284031215613a0257600080fd5b813567ffffffffffffffff811115613a1957600080fd5b6122568482850161390d565b60008060408385031215613a3857600080fd5b613a41836134de565b9150613a4f602084016134de565b90509250929050565b6020808252818101527f4f776e61626c653a2063616c6c6572206973206e6f7420746865206f776e6572604082015260600190565b600181811c90821680613aa157607f821691505b602082108103613ac157634e487b7160e01b600052602260045260246000fd5b50919050565b60008251613ad9818460208701613553565b9190910192915050565b60208082526031908201527f4552433732313a207472616e736665722063616c6c6572206973206e6f74206f6040820152701ddb995c881b9bdc88185c1c1c9bdd9959607a1b606082015260800190565b600080835481600182811c915080831680613b5057607f831692505b60208084108203613b6f57634e487b7160e01b86526022600452602486fd5b818015613b835760018114613b9457613bc1565b60ff19861689528489019650613bc1565b60008a81526020902060005b86811015613bb95781548b820152908501908301613ba0565b505084890196505b509498975050505050505050565b634e487b7160e01b600052601160045260246000fd5b6000816000190483118215151615613bff57613bff613bcf565b500290565b634e487b7160e01b600052601260045260246000fd5b600082613c2957613c29613c04565b500490565b6020808252602c908201527f46756e6374696f6e206d7573742062652063616c6c6564207468726f7567682060408201526b19195b1959d85d1958d85b1b60a21b606082015260800190565b6020808252602c908201527f46756e6374696f6e206d7573742062652063616c6c6564207468726f7567682060408201526b6163746976652070726f787960a01b606082015260800190565b60208082526021908201527f436f6c6c656374696f6e3a20696e73756666696369656e74206d696e742066656040820152606560f81b606082015260800190565b600060018201613d1957613d19613bcf565b5060010190565b634e487b7160e01b600052603260045260246000fd5b60008219821115613d4957613d49613bcf565b500190565b60018060a01b038716815285602082015284604082015260c060608201526000613d7b60c083018661357f565b60808301949094525060a00152949350505050565b600082821015613da257613da2613bcf565b500390565b60008351613db9818460208801613553565b835190830190613dcd818360208801613553565b01949350505050565b6001600160a01b03831681526040602082018190526000906122569083018461357f565b600060208284031215613e0c57600080fd5b5051919050565b6020808252602e908201527f496e697469616c697a61626c653a20636f6e747261637420697320616c72656160408201526d191e481a5b9a5d1a585b1a5e995960921b606082015260800190565b6020808252602b908201527f496e697469616c697a61626c653a20636f6e7472616374206973206e6f74206960408201526a6e697469616c697a696e6760a81b606082015260800190565b60208082526032908201527f4552433732313a207472616e7366657220746f206e6f6e20455243373231526560408201527131b2b4bb32b91034b6b83632b6b2b73a32b960711b606082015260800190565b600082613f0d57613f0d613c04565b500690565b6001600160a01b0385811682528416602082015260408101839052608060608201819052600090613f459083018461357f565b9695505050505050565b600060208284031215613f6157600080fd5b8151611a2a816134ab565b634e487b7160e01b600052603160045260246000fdfe360894a13ba1a3210667c828492db98dca3e2076cc3735a920a3ca505d382bbc416464726573733a206c6f772d6c6576656c2064656c65676174652063616c6c206661696c6564a26469706673582212204d4bc596492867cd001bec072652b1a2f4795c646c7595209fa067c1acd67a6864736f6c634300080d0033496e697469616c697a61626c653a20636f6e747261637420697320616c726561",
  "linkReferences": {},
  "deployedLinkReferences": {}
}