{
  "_format": "hh-sol-artifact-1",
  "contractName": "Factory1",
  "sourceName": "contracts/collection-1-factory/Factory1.sol",
  "abi": [
    {
      "anonymous": false,
      "inputs": [
        {
          "indexed": false,
          "internalType": "string",
          "name": "creatorName",
          "type": "string"
        },
        {
          "indexed": false,
          "internalType": "string",
          "name": "tokenName",
          "type": "string"
        },
        {
          "indexed": false,
          "internalType": "string",
          "name": "tokenSymbol",
          "type": "string"
        },
        {
          "indexed": false,
          "internalType": "address",
          "name": "creatorAddress",
          "type": "address"
        },
        {
          "indexed": false,
          "internalType": "address",
          "name": "contractAddress",
          "type": "address"
        },
        {
          "indexed": false,
          "internalType": "uint96",
          "name": "defaultRoyalty",
          "type": "uint96"
        }
      ],
      "name": "NewCollection",
      "type": "event"
    },
    {
      "inputs": [],
      "name": "CollectionCont",
      "outputs": [
        {
          "internalType": "contract Collection1",
          "name": "",
          "type": "address"
        }
      ],
      "stateMutability": "view",
      "type": "function"
    },
    {
      "inputs": [
        {
          "internalType": "string",
          "name": "creatorName",
          "type": "string"
        },
        {
          "internalType": "string",
          "name": "tokenName",
          "type": "string"
        },
        {
          "internalType": "string",
          "name": "tokenSymbol",
          "type": "string"
        },
        {
          "internalType": "uint96",
          "name": "royaltyNumerator",
          "type": "uint96"
        },
        {
          "internalType": "address",
          "name": "royaltyReciever",
          "type": "address"
        }
      ],
      "name": "newCollection",
      "outputs": [],
      "stateMutability": "nonpayable",
      "type": "function"
    }
  ],
  "bytecode": "0x60806040526040516100109061005f565b604051809103906000f08015801561002c573d6000803e3d6000fd5b50600080546001600160a01b0319166001600160a01b039290921691909117905534801561005957600080fd5b5061006c565b6126958061052e83390190565b6104b38061007b6000396000f3fe608060405234801561001057600080fd5b50600436106100365760003560e01c8063657ea8601461003b5780638ab1b7f214610050575b600080fd5b61004e61004936600461028d565b61007f565b005b600054610063906001600160a01b031681565b6040516001600160a01b03909116815260200160405180910390f35b60008054610095906001600160a01b0316610149565b60405163d670226d60e01b81529091506001600160a01b0382169063d670226d906100ce9089908990899033908a908a906004016103a2565b600060405180830381600087803b1580156100e857600080fd5b505af11580156100fc573d6000803e3d6000fd5b505050507f0e70862d2e86cbd94382664f96fb2e054bf9b99ad36ab47298f7111afe7b1a1e86868633858860405161013996959493929190610410565b60405180910390a1505050505050565b6000604051733d602d80600a3d3981f3363d3d373d3d3d363d7360601b81528260601b60148201526e5af43d82803e903d91602b57fd5bf360881b60288201526037816000f09150506001600160a01b0381166101e55760405162461bcd60e51b8152602060048201526016602482015275115490cc4c4d8dce8818dc99585d194819985a5b195960521b604482015260640160405180910390fd5b919050565b634e487b7160e01b600052604160045260246000fd5b600082601f83011261021157600080fd5b813567ffffffffffffffff8082111561022c5761022c6101ea565b604051601f8301601f19908116603f01168101908282118183101715610254576102546101ea565b8160405283815286602085880101111561026d57600080fd5b836020870160208301376000602085830101528094505050505092915050565b600080600080600060a086880312156102a557600080fd5b853567ffffffffffffffff808211156102bd57600080fd5b6102c989838a01610200565b965060208801359150808211156102df57600080fd5b6102eb89838a01610200565b9550604088013591508082111561030157600080fd5b5061030e88828901610200565b93505060608601356001600160601b038116811461032b57600080fd5b915060808601356001600160a01b038116811461034757600080fd5b809150509295509295909350565b6000815180845260005b8181101561037b5760208185018101518683018201520161035f565b8181111561038d576000602083870101525b50601f01601f19169290920160200192915050565b60c0815260006103b560c0830189610355565b82810360208401526103c78189610355565b905082810360408401526103db8188610355565b6001600160a01b0396871660608501526001600160601b039590951660808401525050921660a0909201919091529392505050565b60c08152600061042360c0830189610355565b82810360208401526104358189610355565b905082810360408401526104498188610355565b6001600160a01b039687166060850152949095166080830152506001600160601b039190911660a09091015294935050505056fea2646970667358221220ae51320a74ae697b00907c85d08d14d3e79cf215491a22221fbcf45b93eb113964736f6c634300080d003360806040523480156200001157600080fd5b506200001c62000022565b62000152565b6200002e60ff62000031565b50565b60008054610100900460ff1615620000ca578160ff1660011480156200006a575062000068306200014360201b62000d901760201c565b155b620000c25760405162461bcd60e51b815260206004820152602e60248201526000805160206200267583398151915260448201526d191e481a5b9a5d1a585b1a5e995960921b60648201526084015b60405180910390fd5b506000919050565b60005460ff808416911610620001295760405162461bcd60e51b815260206004820152602e60248201526000805160206200267583398151915260448201526d191e481a5b9a5d1a585b1a5e995960921b6064820152608401620000b9565b506000805460ff191660ff92909216919091179055600190565b6001600160a01b03163b151590565b61251380620001626000396000f3fe608060405234801561001057600080fd5b506004361061018e5760003560e01c80638a616bc0116100de578063bb99e70111610097578063d204c45e11610071578063d204c45e14610366578063d670226d14610379578063e985e9c51461038c578063f2fde38b146103c857600080fd5b8063bb99e70114610338578063c87b56dd14610340578063cd279c7c1461035357600080fd5b80638a616bc0146102dd5780638da5cb5b146102f057806395d89b4114610302578063a22cb4651461030a578063aa1b103f1461031d578063b88d4fde1461032557600080fd5b806342842e0e1161014b57806360eb94851161012557806360eb94851461028e5780636352211e146102a157806370a08231146102b4578063715018a6146102d557600080fd5b806342842e0e1461025557806342966c68146102685780635944c7531461027b57600080fd5b806301ffc9a71461019357806306fdde03146101bb578063081812fc146101d0578063095ea7b3146101fb57806323b872dd146102105780632a55205a14610223575b600080fd5b6101a66101a1366004611d00565b6103db565b60405190151581526020015b60405180910390f35b6101c36103ec565b6040516101b29190611d75565b6101e36101de366004611d88565b61047e565b6040516001600160a01b0390911681526020016101b2565b61020e610209366004611db8565b61050b565b005b61020e61021e366004611de2565b610620565b610236610231366004611e1e565b610652565b604080516001600160a01b0390931683526020830191909152016101b2565b61020e610263366004611de2565b6106fe565b61020e610276366004611d88565b610719565b61020e610289366004611e57565b610793565b61020e61029c366004611f3f565b610861565b6101e36102af366004611d88565b6108a4565b6102c76102c2366004611f74565b61091b565b6040519081526020016101b2565b61020e6109a2565b61020e6102eb366004611d88565b6109d9565b61015f546001600160a01b03166101e3565b6101c3610a15565b61020e610318366004611f8f565b610a24565b61020e610a2f565b61020e610333366004611fcb565b610a64565b6101c3610a9c565b6101c361034e366004611d88565b610b2b565b61020e610361366004612047565b610b36565b61020e61037436600461209e565b610b75565b61020e6103873660046120ec565b610bd1565b6101a661039a3660046121a5565b6001600160a01b039182166000908152609c6020908152604080832093909416825291909152205460ff1690565b61020e6103d6366004611f74565b610cf7565b60006103e682610d9f565b92915050565b6060609780546103fb906121d8565b80601f0160208091040260200160405190810160405280929190818152602001828054610427906121d8565b80156104745780601f1061044957610100808354040283529160200191610474565b820191906000526020600020905b81548152906001019060200180831161045757829003601f168201915b5050505050905090565b600061048982610daa565b6104ef5760405162461bcd60e51b815260206004820152602c60248201527f4552433732313a20617070726f76656420717565727920666f72206e6f6e657860448201526b34b9ba32b73a103a37b5b2b760a11b60648201526084015b60405180910390fd5b506000908152609b60205260409020546001600160a01b031690565b6000610516826108a4565b9050806001600160a01b0316836001600160a01b0316036105835760405162461bcd60e51b815260206004820152602160248201527f4552433732313a20617070726f76616c20746f2063757272656e74206f776e656044820152603960f91b60648201526084016104e6565b336001600160a01b038216148061059f575061059f813361039a565b6106115760405162461bcd60e51b815260206004820152603860248201527f4552433732313a20617070726f76652063616c6c6572206973206e6f74206f7760448201527f6e6572206e6f7220617070726f76656420666f7220616c6c000000000000000060648201526084016104e6565b61061b8383610dc7565b505050565b61062b335b82610e35565b6106475760405162461bcd60e51b81526004016104e690612212565b61061b838383610f1f565b60008281526066602090815260408083208151808301909252546001600160a01b038116808352600160a01b9091046001600160601b03169282019290925282916106c75750604080518082019091526065546001600160a01b0381168252600160a01b90046001600160601b031660208201525b6020810151600090612710906106e6906001600160601b031687612279565b6106f091906122ae565b915196919550909350505050565b61061b83838360405180602001604052806000815250610a64565b61072233610625565b6107875760405162461bcd60e51b815260206004820152603060248201527f4552433732314275726e61626c653a2063616c6c6572206973206e6f74206f7760448201526f1b995c881b9bdc88185c1c1c9bdd995960821b60648201526084016104e6565b610790816110bb565b50565b61015f546001600160a01b031633146107be5760405162461bcd60e51b81526004016104e6906122c2565b6107c7836108a4565b6001600160a01b0316336001600160a01b0316146108575760405162461bcd60e51b815260206004820152604160248201527f436f6c6c656374696f6e3a20796f75206d75737420626520746865206f776e6560448201527f72206f662074686520746f6b656e20746f207365742074686520726f79616c746064820152607960f81b608482015260a4016104e6565b61061b82826110c4565b61015f546001600160a01b0316331461088c5760405162461bcd60e51b81526004016104e6906122c2565b80516108a090610192906020840190611c1b565b5050565b6000818152609960205260408120546001600160a01b0316806103e65760405162461bcd60e51b815260206004820152602960248201527f4552433732313a206f776e657220717565727920666f72206e6f6e657869737460448201526832b73a103a37b5b2b760b91b60648201526084016104e6565b60006001600160a01b0382166109865760405162461bcd60e51b815260206004820152602a60248201527f4552433732313a2062616c616e636520717565727920666f7220746865207a65604482015269726f206164647265737360b01b60648201526084016104e6565b506001600160a01b03166000908152609a602052604090205490565b61015f546001600160a01b031633146109cd5760405162461bcd60e51b81526004016104e6906122c2565b6109d760006111c1565b565b61015f546001600160a01b03163314610a045760405162461bcd60e51b81526004016104e6906122c2565b600090815260666020526040812055565b6060609880546103fb906121d8565b6108a0338383611214565b61015f546001600160a01b03163314610a5a5760405162461bcd60e51b81526004016104e6906122c2565b6109d76000606555565b610a6e3383610e35565b610a8a5760405162461bcd60e51b81526004016104e690612212565b610a96848484846112e2565b50505050565b6101928054610aaa906121d8565b80601f0160208091040260200160405190810160405280929190818152602001828054610ad6906121d8565b8015610b235780601f10610af857610100808354040283529160200191610b23565b820191906000526020600020905b815481529060010190602001808311610b0657829003601f168201915b505050505081565b60606103e682611315565b61015f546001600160a01b03163314610b615760405162461bcd60e51b81526004016104e6906122c2565b610b6b8383611483565b61061b828261149d565b61015f546001600160a01b03163314610ba05760405162461bcd60e51b81526004016104e6906122c2565b60005b50610191805460018101909155610bb981610daa565b610ba357610bc78382611483565b61061b818361149d565b6000610bdd6001611528565b90508015610bf5576000805461ff0019166101001790555b8651610c09906101929060208a0190611c1b565b50610c1486866115b5565b610c1c6115e6565b610c246115e6565b610c2d8461160d565b6001600160601b03831615610ca8576001600160a01b038216610c9e5760405162461bcd60e51b8152602060048201526024808201527f436f6c6c656374696f6e3a20496e76616c696420526f79616c7479207265636560448201526334bb32b960e11b60648201526084016104e6565b610ca882846110c4565b8015610cee576000805461ff0019169055604051600181527f7f26b83ff96e1f2b6a682f133852f6798a09c465da95921460cefb38474024989060200160405180910390a15b50505050505050565b61015f546001600160a01b03163314610d225760405162461bcd60e51b81526004016104e6906122c2565b6001600160a01b038116610d875760405162461bcd60e51b815260206004820152602660248201527f4f776e61626c653a206e6577206f776e657220697320746865207a65726f206160448201526564647265737360d01b60648201526084016104e6565b610790816111c1565b6001600160a01b03163b151590565b60006103e682611634565b6000908152609960205260409020546001600160a01b0316151590565b6000818152609b6020526040902080546001600160a01b0319166001600160a01b0384169081179091558190610dfc826108a4565b6001600160a01b03167f8c5be1e5ebec7d5bd14f71427d1e84f3dd0314c0f7b2291e5b200ac8c7c3b92560405160405180910390a45050565b6000610e4082610daa565b610ea15760405162461bcd60e51b815260206004820152602c60248201527f4552433732313a206f70657261746f7220717565727920666f72206e6f6e657860448201526b34b9ba32b73a103a37b5b2b760a11b60648201526084016104e6565b6000610eac836108a4565b9050806001600160a01b0316846001600160a01b03161480610ef357506001600160a01b038082166000908152609c602090815260408083209388168352929052205460ff165b80610f175750836001600160a01b0316610f0c8461047e565b6001600160a01b0316145b949350505050565b826001600160a01b0316610f32826108a4565b6001600160a01b031614610f965760405162461bcd60e51b815260206004820152602560248201527f4552433732313a207472616e736665722066726f6d20696e636f72726563742060448201526437bbb732b960d91b60648201526084016104e6565b6001600160a01b038216610ff85760405162461bcd60e51b8152602060048201526024808201527f4552433732313a207472616e7366657220746f20746865207a65726f206164646044820152637265737360e01b60648201526084016104e6565b611003600082610dc7565b6001600160a01b0383166000908152609a6020526040812080546001929061102c9084906122f7565b90915550506001600160a01b0382166000908152609a6020526040812080546001929061105a90849061230e565b909155505060008181526099602052604080822080546001600160a01b0319166001600160a01b0386811691821790925591518493918716917fddf252ad1be2c89b69c2b068fc378daa952ba7f163c4a11628f55a4df523b3ef91a4505050565b61079081611674565b6127106001600160601b03821611156111325760405162461bcd60e51b815260206004820152602a60248201527f455243323938313a20726f79616c7479206665652077696c6c206578636565646044820152692073616c65507269636560b01b60648201526084016104e6565b6001600160a01b0382166111885760405162461bcd60e51b815260206004820152601960248201527f455243323938313a20696e76616c69642072656365697665720000000000000060448201526064016104e6565b604080518082019091526001600160a01b039092168083526001600160601b039091166020909201829052600160a01b90910217606555565b61015f80546001600160a01b038381166001600160a01b0319831681179093556040519116919082907f8be0079c531659141344cd1fd0a4f28419497f9722a3daafe3b4186f6b6457e090600090a35050565b816001600160a01b0316836001600160a01b0316036112755760405162461bcd60e51b815260206004820152601960248201527f4552433732313a20617070726f766520746f2063616c6c65720000000000000060448201526064016104e6565b6001600160a01b038381166000818152609c6020908152604080832094871680845294825291829020805460ff191686151590811790915591519182527f17307eab39ab6107e8899845ad3d59bd9653f200f220920489ca2b5937696c31910160405180910390a3505050565b6112ed848484610f1f565b6112f98484848461167d565b610a965760405162461bcd60e51b81526004016104e690612326565b606061132082610daa565b6113865760405162461bcd60e51b815260206004820152603160248201527f45524337323155524953746f726167653a2055524920717565727920666f72206044820152703737b732bc34b9ba32b73a103a37b5b2b760791b60648201526084016104e6565b600082815260c960205260408120805461139f906121d8565b80601f01602080910402602001604051908101604052809291908181526020018280546113cb906121d8565b80156114185780601f106113ed57610100808354040283529160200191611418565b820191906000526020600020905b8154815290600101906020018083116113fb57829003601f168201915b50505050509050600061143660408051602081019091526000815290565b90508051600003611448575092915050565b81511561147a578082604051602001611462929190612378565b60405160208183030381529060405292505050919050565b610f178461177e565b6108a0828260405180602001604052806000815250611856565b6114a682610daa565b6115095760405162461bcd60e51b815260206004820152602e60248201527f45524337323155524953746f726167653a2055524920736574206f66206e6f6e60448201526d32bc34b9ba32b73a103a37b5b2b760911b60648201526084016104e6565b600082815260c960209081526040909120825161061b92840190611c1b565b60008054610100900460ff161561156f578160ff16600114801561154b5750303b155b6115675760405162461bcd60e51b81526004016104e6906123a7565b506000919050565b60005460ff8084169116106115965760405162461bcd60e51b81526004016104e6906123a7565b506000805460ff191660ff92909216919091179055600190565b919050565b600054610100900460ff166115dc5760405162461bcd60e51b81526004016104e6906123f5565b6108a08282611889565b600054610100900460ff166109d75760405162461bcd60e51b81526004016104e6906123f5565b600054610100900460ff16610d875760405162461bcd60e51b81526004016104e6906123f5565b60006001600160e01b031982166380ac58cd60e01b148061166557506001600160e01b03198216635b5e139f60e01b145b806103e657506103e6826118d7565b610a048161190c565b60006001600160a01b0384163b1561177357604051630a85bd0160e11b81526001600160a01b0385169063150b7a02906116c1903390899088908890600401612440565b6020604051808303816000875af19250505080156116fc575060408051601f3d908101601f191682019092526116f99181019061247d565b60015b611759573d80801561172a576040519150601f19603f3d011682016040523d82523d6000602084013e61172f565b606091505b5080516000036117515760405162461bcd60e51b81526004016104e690612326565b805181602001fd5b6001600160e01b031916630a85bd0160e11b149050610f17565b506001949350505050565b606061178982610daa565b6117ed5760405162461bcd60e51b815260206004820152602f60248201527f4552433732314d657461646174613a2055524920717565727920666f72206e6f60448201526e3732bc34b9ba32b73a103a37b5b2b760891b60648201526084016104e6565b600061180460408051602081019091526000815290565b90506000815111611824576040518060200160405280600081525061184f565b8061182e8461194c565b60405160200161183f929190612378565b6040516020818303038152906040525b9392505050565b6118608383611a4d565b61186d600084848461167d565b61061b5760405162461bcd60e51b81526004016104e690612326565b600054610100900460ff166118b05760405162461bcd60e51b81526004016104e6906123f5565b81516118c3906097906020850190611c1b565b50805161061b906098906020840190611c1b565b60006001600160e01b0319821663152a902d60e11b14806103e657506301ffc9a760e01b6001600160e01b03198316146103e6565b61191581611b80565b600081815260c960205260409020805461192e906121d8565b15905061079057600081815260c96020526040812061079091611c9f565b6060816000036119735750506040805180820190915260018152600360fc1b602082015290565b8160005b811561199d57806119878161249a565b91506119969050600a836122ae565b9150611977565b60008167ffffffffffffffff8111156119b8576119b8611e93565b6040519080825280601f01601f1916602001820160405280156119e2576020820181803683370190505b5090505b8415610f17576119f76001836122f7565b9150611a04600a866124b3565b611a0f90603061230e565b60f81b818381518110611a2457611a246124c7565b60200101906001600160f81b031916908160001a905350611a46600a866122ae565b94506119e6565b6001600160a01b038216611aa35760405162461bcd60e51b815260206004820181905260248201527f4552433732313a206d696e7420746f20746865207a65726f206164647265737360448201526064016104e6565b611aac81610daa565b15611af95760405162461bcd60e51b815260206004820152601c60248201527f4552433732313a20746f6b656e20616c7265616479206d696e7465640000000060448201526064016104e6565b6001600160a01b0382166000908152609a60205260408120805460019290611b2290849061230e565b909155505060008181526099602052604080822080546001600160a01b0319166001600160a01b03861690811790915590518392907fddf252ad1be2c89b69c2b068fc378daa952ba7f163c4a11628f55a4df523b3ef908290a45050565b6000611b8b826108a4565b9050611b98600083610dc7565b6001600160a01b0381166000908152609a60205260408120805460019290611bc19084906122f7565b909155505060008281526099602052604080822080546001600160a01b0319169055518391906001600160a01b038416907fddf252ad1be2c89b69c2b068fc378daa952ba7f163c4a11628f55a4df523b3ef908390a45050565b828054611c27906121d8565b90600052602060002090601f016020900481019282611c495760008555611c8f565b82601f10611c6257805160ff1916838001178555611c8f565b82800160010185558215611c8f579182015b82811115611c8f578251825591602001919060010190611c74565b50611c9b929150611cd5565b5090565b508054611cab906121d8565b6000825580601f10611cbb575050565b601f01602090049060005260206000209081019061079091905b5b80821115611c9b5760008155600101611cd6565b6001600160e01b03198116811461079057600080fd5b600060208284031215611d1257600080fd5b813561184f81611cea565b60005b83811015611d38578181015183820152602001611d20565b83811115610a965750506000910152565b60008151808452611d61816020860160208601611d1d565b601f01601f19169290920160200192915050565b60208152600061184f6020830184611d49565b600060208284031215611d9a57600080fd5b5035919050565b80356001600160a01b03811681146115b057600080fd5b60008060408385031215611dcb57600080fd5b611dd483611da1565b946020939093013593505050565b600080600060608486031215611df757600080fd5b611e0084611da1565b9250611e0e60208501611da1565b9150604084013590509250925092565b60008060408385031215611e3157600080fd5b50508035926020909101359150565b80356001600160601b03811681146115b057600080fd5b600080600060608486031215611e6c57600080fd5b83359250611e7c60208501611da1565b9150611e8a60408501611e40565b90509250925092565b634e487b7160e01b600052604160045260246000fd5b600067ffffffffffffffff80841115611ec457611ec4611e93565b604051601f8501601f19908116603f01168101908282118183101715611eec57611eec611e93565b81604052809350858152868686011115611f0557600080fd5b858560208301376000602087830101525050509392505050565b600082601f830112611f3057600080fd5b61184f83833560208501611ea9565b600060208284031215611f5157600080fd5b813567ffffffffffffffff811115611f6857600080fd5b610f1784828501611f1f565b600060208284031215611f8657600080fd5b61184f82611da1565b60008060408385031215611fa257600080fd5b611fab83611da1565b915060208301358015158114611fc057600080fd5b809150509250929050565b60008060008060808587031215611fe157600080fd5b611fea85611da1565b9350611ff860208601611da1565b925060408501359150606085013567ffffffffffffffff81111561201b57600080fd5b8501601f8101871361202c57600080fd5b61203b87823560208401611ea9565b91505092959194509250565b60008060006060848603121561205c57600080fd5b61206584611da1565b925060208401359150604084013567ffffffffffffffff81111561208857600080fd5b61209486828701611f1f565b9150509250925092565b600080604083850312156120b157600080fd5b6120ba83611da1565b9150602083013567ffffffffffffffff8111156120d657600080fd5b6120e285828601611f1f565b9150509250929050565b60008060008060008060c0878903121561210557600080fd5b863567ffffffffffffffff8082111561211d57600080fd5b6121298a838b01611f1f565b9750602089013591508082111561213f57600080fd5b61214b8a838b01611f1f565b9650604089013591508082111561216157600080fd5b5061216e89828a01611f1f565b94505061217d60608801611da1565b925061218b60808801611e40565b915061219960a08801611da1565b90509295509295509295565b600080604083850312156121b857600080fd5b6121c183611da1565b91506121cf60208401611da1565b90509250929050565b600181811c908216806121ec57607f821691505b60208210810361220c57634e487b7160e01b600052602260045260246000fd5b50919050565b60208082526031908201527f4552433732313a207472616e736665722063616c6c6572206973206e6f74206f6040820152701ddb995c881b9bdc88185c1c1c9bdd9959607a1b606082015260800190565b634e487b7160e01b600052601160045260246000fd5b600081600019048311821515161561229357612293612263565b500290565b634e487b7160e01b600052601260045260246000fd5b6000826122bd576122bd612298565b500490565b6020808252818101527f4f776e61626c653a2063616c6c6572206973206e6f7420746865206f776e6572604082015260600190565b60008282101561230957612309612263565b500390565b6000821982111561232157612321612263565b500190565b60208082526032908201527f4552433732313a207472616e7366657220746f206e6f6e20455243373231526560408201527131b2b4bb32b91034b6b83632b6b2b73a32b960711b606082015260800190565b6000835161238a818460208801611d1d565b83519083019061239e818360208801611d1d565b01949350505050565b6020808252602e908201527f496e697469616c697a61626c653a20636f6e747261637420697320616c72656160408201526d191e481a5b9a5d1a585b1a5e995960921b606082015260800190565b6020808252602b908201527f496e697469616c697a61626c653a20636f6e7472616374206973206e6f74206960408201526a6e697469616c697a696e6760a81b606082015260800190565b6001600160a01b038581168252841660208201526040810183905260806060820181905260009061247390830184611d49565b9695505050505050565b60006020828403121561248f57600080fd5b815161184f81611cea565b6000600182016124ac576124ac612263565b5060010190565b6000826124c2576124c2612298565b500690565b634e487b7160e01b600052603260045260246000fdfea26469706673582212206412602cf2147dfa32e61d7846e658cc54ba25e29d64455ddb3f7ccc1f1b032b64736f6c634300080d0033496e697469616c697a61626c653a20636f6e747261637420697320616c726561",
  "linkReferences": {},
  "deployedLinkReferences": {}
}